{
  "abi": [
    {
      "inputs": [
        {
          "internalType": "address",
          "name": "_owner",
          "type": "address"
        },
        {
          "internalType": "address[]",
          "name": "_rewardTokens",
          "type": "address[]"
        },
        {
          "internalType": "address[]",
          "name": "_rewardManagers",
          "type": "address[]"
        },
        {
          "internalType": "uint256[]",
          "name": "_rewardRatesManual",
          "type": "uint256[]"
        },
        {
          "internalType": "address[]",
          "name": "_gaugeControllers",
          "type": "address[]"
        },
        {
          "internalType": "address[]",
          "name": "_rewardDistributors",
          "type": "address[]"
        }
      ],
      "stateMutability": "nonpayable",
      "type": "constructor"
    },
    {
      "anonymous": false,
      "inputs": [
        {
          "indexed": false,
          "internalType": "address",
          "name": "oldOwner",
          "type": "address"
        },
        {
          "indexed": false,
          "internalType": "address",
          "name": "newOwner",
          "type": "address"
        }
      ],
      "name": "OwnerChanged",
      "type": "event"
    },
    {
      "anonymous": false,
      "inputs": [
        {
          "indexed": false,
          "internalType": "address",
          "name": "newOwner",
          "type": "address"
        }
      ],
      "name": "OwnerNominated",
      "type": "event"
    },
    {
      "anonymous": false,
      "inputs": [
        {
          "indexed": true,
          "internalType": "address",
          "name": "user",
          "type": "address"
        },
        {
          "indexed": false,
          "internalType": "uint256",
          "name": "amount",
          "type": "uint256"
        },
        {
          "indexed": false,
          "internalType": "address",
          "name": "token_address",
          "type": "address"
        },
        {
          "indexed": false,
          "internalType": "address",
          "name": "destination_address",
          "type": "address"
        }
      ],
      "name": "RewardPaid",
      "type": "event"
    },
    {
      "inputs": [],
      "name": "acceptOwnership",
      "outputs": [],
      "stateMutability": "nonpayable",
      "type": "function"
    },
    {
      "inputs": [
        {
          "internalType": "address",
          "name": "account",
          "type": "address"
        }
      ],
      "name": "calcCurCombinedWeight",
      "outputs": [
        {
          "internalType": "uint256",
          "name": "old_combined_weight",
          "type": "uint256"
        },
        {
          "internalType": "uint256",
          "name": "new_vefxs_multiplier",
          "type": "uint256"
        },
        {
          "internalType": "uint256",
          "name": "new_combined_weight",
          "type": "uint256"
        }
      ],
      "stateMutability": "view",
      "type": "function"
    },
    {
      "inputs": [
        {
          "internalType": "address",
          "name": "reward_token_address",
          "type": "address"
        },
        {
          "internalType": "address",
          "name": "new_manager_address",
          "type": "address"
        }
      ],
      "name": "changeTokenManager",
      "outputs": [],
      "stateMutability": "nonpayable",
      "type": "function"
    },
    {
      "inputs": [
        {
          "internalType": "address",
          "name": "account",
          "type": "address"
        }
      ],
      "name": "combinedWeightOf",
      "outputs": [
        {
          "internalType": "uint256",
          "name": "",
          "type": "uint256"
        }
      ],
      "stateMutability": "view",
      "type": "function"
    },
    {
      "inputs": [
        {
          "internalType": "address",
          "name": "account",
          "type": "address"
        }
      ],
      "name": "earned",
      "outputs": [
        {
          "internalType": "uint256[]",
          "name": "new_earned",
          "type": "uint256[]"
        }
      ],
      "stateMutability": "view",
      "type": "function"
    },
    {
      "inputs": [],
      "name": "fraxPerLPStored",
      "outputs": [
        {
          "internalType": "uint256",
          "name": "",
          "type": "uint256"
        }
      ],
      "stateMutability": "view",
      "type": "function"
    },
    {
      "inputs": [],
      "name": "fraxPerLPToken",
      "outputs": [
        {
          "internalType": "uint256",
          "name": "",
          "type": "uint256"
        }
      ],
      "stateMutability": "view",
      "type": "function"
    },
    {
      "inputs": [],
      "name": "getAllRewardTokens",
      "outputs": [
        {
          "internalType": "address[]",
          "name": "",
          "type": "address[]"
        }
      ],
      "stateMutability": "view",
      "type": "function"
    },
    {
      "inputs": [
        {
          "internalType": "address",
          "name": "addr",
          "type": "address"
        }
      ],
      "name": "getProxyFor",
      "outputs": [
        {
          "internalType": "address",
          "name": "",
          "type": "address"
        }
      ],
      "stateMutability": "view",
      "type": "function"
    },
    {
      "inputs": [
        {
          "internalType": "address",
          "name": "destination_address",
          "type": "address"
        }
      ],
      "name": "getReward",
      "outputs": [
        {
          "internalType": "uint256[]",
          "name": "",
          "type": "uint256[]"
        }
      ],
      "stateMutability": "nonpayable",
      "type": "function"
    },
    {
      "inputs": [
        {
          "internalType": "address",
          "name": "destination_address",
          "type": "address"
        },
        {
          "internalType": "bool",
          "name": "claim_extra_too",
          "type": "bool"
        }
      ],
      "name": "getReward2",
      "outputs": [
        {
          "internalType": "uint256[]",
          "name": "",
          "type": "uint256[]"
        }
      ],
      "stateMutability": "nonpayable",
      "type": "function"
    },
    {
      "inputs": [
        {
          "internalType": "address",
          "name": "destination_address",
          "type": "address"
        }
      ],
      "name": "getRewardExtraLogic",
      "outputs": [],
      "stateMutability": "nonpayable",
      "type": "function"
    },
    {
      "inputs": [],
      "name": "getRewardForDuration",
      "outputs": [
        {
          "internalType": "uint256[]",
          "name": "rewards_per_duration_arr",
          "type": "uint256[]"
        }
      ],
      "stateMutability": "view",
      "type": "function"
    },
    {
      "inputs": [
        {
          "internalType": "address",
          "name": "caller_addr",
          "type": "address"
        },
        {
          "internalType": "address",
          "name": "reward_token_addr",
          "type": "address"
        }
      ],
      "name": "isTokenManagerFor",
      "outputs": [
        {
          "internalType": "bool",
          "name": "",
          "type": "bool"
        }
      ],
      "stateMutability": "view",
      "type": "function"
    },
    {
      "inputs": [
        {
          "internalType": "address",
          "name": "",
          "type": "address"
        }
      ],
      "name": "lastRewardClaimTime",
      "outputs": [
        {
          "internalType": "uint256",
          "name": "",
          "type": "uint256"
        }
      ],
      "stateMutability": "view",
      "type": "function"
    },
    {
      "inputs": [],
      "name": "lastUpdateTime",
      "outputs": [
        {
          "internalType": "uint256",
          "name": "",
          "type": "uint256"
        }
      ],
      "stateMutability": "view",
      "type": "function"
    },
    {
      "inputs": [
        {
          "internalType": "uint256",
          "name": "secs",
          "type": "uint256"
        }
      ],
      "name": "lockMultiplier",
      "outputs": [
        {
          "internalType": "uint256",
          "name": "",
          "type": "uint256"
        }
      ],
      "stateMutability": "view",
      "type": "function"
    },
    {
      "inputs": [],
      "name": "lock_max_multiplier",
      "outputs": [
        {
          "internalType": "uint256",
          "name": "",
          "type": "uint256"
        }
      ],
      "stateMutability": "view",
      "type": "function"
    },
    {
      "inputs": [],
      "name": "lock_time_for_max_multiplier",
      "outputs": [
        {
          "internalType": "uint256",
          "name": "",
          "type": "uint256"
        }
      ],
      "stateMutability": "view",
      "type": "function"
    },
    {
      "inputs": [],
      "name": "lock_time_min",
      "outputs": [
        {
          "internalType": "uint256",
          "name": "",
          "type": "uint256"
        }
      ],
      "stateMutability": "view",
      "type": "function"
    },
    {
      "inputs": [
        {
          "internalType": "address",
          "name": "account",
          "type": "address"
        }
      ],
      "name": "lockedLiquidityOf",
      "outputs": [
        {
          "internalType": "uint256",
          "name": "",
          "type": "uint256"
        }
      ],
      "stateMutability": "view",
      "type": "function"
    },
    {
      "inputs": [
        {
          "internalType": "address",
          "name": "account",
          "type": "address"
        }
      ],
      "name": "maxLPForMaxBoost",
      "outputs": [
        {
          "internalType": "uint256",
          "name": "",
          "type": "uint256"
        }
      ],
      "stateMutability": "view",
      "type": "function"
    },
    {
      "inputs": [
        {
          "internalType": "address",
          "name": "account",
          "type": "address"
        }
      ],
      "name": "minVeFXSForMaxBoost",
      "outputs": [
        {
          "internalType": "uint256",
          "name": "",
          "type": "uint256"
        }
      ],
      "stateMutability": "view",
      "type": "function"
    },
    {
      "inputs": [
        {
          "internalType": "address",
          "name": "proxy_address",
          "type": "address"
        }
      ],
      "name": "minVeFXSForMaxBoostProxy",
      "outputs": [
        {
          "internalType": "uint256",
          "name": "",
          "type": "uint256"
        }
      ],
      "stateMutability": "view",
      "type": "function"
    },
    {
      "inputs": [
        {
          "internalType": "address",
          "name": "_owner",
          "type": "address"
        }
      ],
      "name": "nominateNewOwner",
      "outputs": [],
      "stateMutability": "nonpayable",
      "type": "function"
    },
    {
      "inputs": [],
      "name": "nominatedOwner",
      "outputs": [
        {
          "internalType": "address",
          "name": "",
          "type": "address"
        }
      ],
      "stateMutability": "view",
      "type": "function"
    },
    {
      "inputs": [],
      "name": "owner",
      "outputs": [
        {
          "internalType": "address",
          "name": "",
          "type": "address"
        }
      ],
      "stateMutability": "view",
      "type": "function"
    },
    {
      "inputs": [],
      "name": "periodFinish",
      "outputs": [
        {
          "internalType": "uint256",
          "name": "",
          "type": "uint256"
        }
      ],
      "stateMutability": "view",
      "type": "function"
    },
    {
      "inputs": [
        {
          "internalType": "address",
          "name": "proxy_address",
          "type": "address"
        }
      ],
      "name": "proxyStakedFrax",
      "outputs": [
        {
          "internalType": "uint256",
          "name": "",
          "type": "uint256"
        }
      ],
      "stateMutability": "view",
      "type": "function"
    },
    {
      "inputs": [
        {
          "internalType": "address",
          "name": "staker_address",
          "type": "address"
        }
      ],
      "name": "proxyToggleStaker",
      "outputs": [],
      "stateMutability": "nonpayable",
      "type": "function"
    },
    {
      "inputs": [
        {
          "internalType": "address",
          "name": "",
          "type": "address"
        }
      ],
      "name": "proxy_lp_balances",
      "outputs": [
        {
          "internalType": "uint256",
          "name": "",
          "type": "uint256"
        }
      ],
      "stateMutability": "view",
      "type": "function"
    },
    {
      "inputs": [
        {
          "internalType": "address",
          "name": "tokenAddress",
          "type": "address"
        },
        {
          "internalType": "uint256",
          "name": "tokenAmount",
          "type": "uint256"
        }
      ],
      "name": "recoverERC20",
      "outputs": [],
      "stateMutability": "nonpayable",
      "type": "function"
    },
    {
      "inputs": [
        {
          "internalType": "address",
          "name": "",
          "type": "address"
        }
      ],
      "name": "rewardManagers",
      "outputs": [
        {
          "internalType": "address",
          "name": "",
          "type": "address"
        }
      ],
      "stateMutability": "view",
      "type": "function"
    },
    {
      "inputs": [
        {
          "internalType": "uint256",
          "name": "token_idx",
          "type": "uint256"
        }
      ],
      "name": "rewardRates",
      "outputs": [
        {
          "internalType": "uint256",
          "name": "rwd_rate",
          "type": "uint256"
        }
      ],
      "stateMutability": "view",
      "type": "function"
    },
    {
      "inputs": [
        {
          "internalType": "address",
          "name": "",
          "type": "address"
        }
      ],
      "name": "rewardTokenAddrToIdx",
      "outputs": [
        {
          "internalType": "uint256",
          "name": "",
          "type": "uint256"
        }
      ],
      "stateMutability": "view",
      "type": "function"
    },
    {
      "inputs": [],
      "name": "rewardsDuration",
      "outputs": [
        {
          "internalType": "uint256",
          "name": "",
          "type": "uint256"
        }
      ],
      "stateMutability": "view",
      "type": "function"
    },
    {
      "inputs": [],
      "name": "rewardsPerToken",
      "outputs": [
        {
          "internalType": "uint256[]",
          "name": "newRewardsPerTokenStored",
          "type": "uint256[]"
        }
      ],
      "stateMutability": "view",
      "type": "function"
    },
    {
      "inputs": [
        {
          "internalType": "uint256[6]",
          "name": "_misc_vars",
          "type": "uint256[6]"
        }
      ],
      "name": "setMiscVariables",
      "outputs": [],
      "stateMutability": "nonpayable",
      "type": "function"
    },
    {
      "inputs": [
        {
          "internalType": "bool",
          "name": "_stakingPaused",
          "type": "bool"
        },
        {
          "internalType": "bool",
          "name": "_withdrawalsPaused",
          "type": "bool"
        },
        {
          "internalType": "bool",
          "name": "_rewardsCollectionPaused",
          "type": "bool"
        }
      ],
      "name": "setPauses",
      "outputs": [],
      "stateMutability": "nonpayable",
      "type": "function"
    },
    {
      "inputs": [
        {
          "internalType": "address",
          "name": "reward_token_address",
          "type": "address"
        },
        {
          "internalType": "uint256",
          "name": "_new_rate",
          "type": "uint256"
        },
        {
          "internalType": "address",
          "name": "_gauge_controller_address",
          "type": "address"
        },
        {
          "internalType": "address",
          "name": "_rewards_distributor_address",
          "type": "address"
        }
      ],
      "name": "setRewardVars",
      "outputs": [],
      "stateMutability": "nonpayable",
      "type": "function"
    },
    {
      "inputs": [
        {
          "internalType": "address",
          "name": "proxy_address",
          "type": "address"
        }
      ],
      "name": "stakerSetVeFXSProxy",
      "outputs": [],
      "stateMutability": "nonpayable",
      "type": "function"
    },
    {
      "inputs": [
        {
          "internalType": "address",
          "name": "",
          "type": "address"
        }
      ],
      "name": "staker_designated_proxies",
      "outputs": [
        {
          "internalType": "address",
          "name": "",
          "type": "address"
        }
      ],
      "stateMutability": "view",
      "type": "function"
    },
    {
      "inputs": [],
      "name": "stakesUnlocked",
      "outputs": [
        {
          "internalType": "bool",
          "name": "",
          "type": "bool"
        }
      ],
      "stateMutability": "view",
      "type": "function"
    },
    {
      "inputs": [],
      "name": "sync",
      "outputs": [],
      "stateMutability": "nonpayable",
      "type": "function"
    },
    {
      "inputs": [
        {
          "internalType": "bool",
          "name": "force_update",
          "type": "bool"
        }
      ],
      "name": "sync_gauge_weights",
      "outputs": [],
      "stateMutability": "nonpayable",
      "type": "function"
    },
    {
      "inputs": [
        {
          "internalType": "address",
          "name": "_proxy_addr",
          "type": "address"
        }
      ],
      "name": "toggleValidVeFXSProxy",
      "outputs": [],
      "stateMutability": "nonpayable",
      "type": "function"
    },
    {
      "inputs": [],
      "name": "totalCombinedWeight",
      "outputs": [
        {
          "internalType": "uint256",
          "name": "",
          "type": "uint256"
        }
      ],
      "stateMutability": "view",
      "type": "function"
    },
    {
      "inputs": [],
      "name": "totalLiquidityLocked",
      "outputs": [
        {
          "internalType": "uint256",
          "name": "",
          "type": "uint256"
        }
      ],
      "stateMutability": "view",
      "type": "function"
    },
    {
      "inputs": [],
      "name": "unlockStakes",
      "outputs": [],
      "stateMutability": "nonpayable",
      "type": "function"
    },
    {
      "inputs": [
        {
          "internalType": "address",
          "name": "account",
          "type": "address"
        },
        {
          "internalType": "bool",
          "name": "sync_too",
          "type": "bool"
        }
      ],
      "name": "updateRewardAndBalance",
      "outputs": [],
      "stateMutability": "nonpayable",
      "type": "function"
    },
    {
      "inputs": [
        {
          "internalType": "address",
          "name": "account",
          "type": "address"
        }
      ],
      "name": "userStakedFrax",
      "outputs": [
        {
          "internalType": "uint256",
          "name": "",
          "type": "uint256"
        }
      ],
      "stateMutability": "view",
      "type": "function"
    },
    {
      "inputs": [
        {
          "internalType": "address",
          "name": "account",
          "type": "address"
        }
      ],
      "name": "veFXSMultiplier",
      "outputs": [
        {
          "internalType": "uint256",
          "name": "vefxs_multiplier",
          "type": "uint256"
        }
      ],
      "stateMutability": "view",
      "type": "function"
    },
    {
      "inputs": [],
      "name": "vefxs_boost_scale_factor",
      "outputs": [
        {
          "internalType": "uint256",
          "name": "",
          "type": "uint256"
        }
      ],
      "stateMutability": "view",
      "type": "function"
    },
    {
      "inputs": [],
      "name": "vefxs_max_multiplier",
      "outputs": [
        {
          "internalType": "uint256",
          "name": "",
          "type": "uint256"
        }
      ],
      "stateMutability": "view",
      "type": "function"
    },
    {
      "inputs": [],
      "name": "vefxs_per_frax_for_max_boost",
      "outputs": [
        {
          "internalType": "uint256",
          "name": "",
          "type": "uint256"
        }
      ],
      "stateMutability": "view",
      "type": "function"
    }
  ],
  "bytecode": {
    "object": "0x60c0604052346200005c575b62000026620000196200038a565b9493909392919262000807565b604051613c1362000b448239608051818181611cda01528181611eea01528181611f8501526120fa015260a051815050613c1390f35b62000065600080fd5b6200000b565b600080fd5b50634e487b7160e01b600052604160045260246000fd5b90601f01601f191681019081106001600160401b03821117620000a957604052565b620000b362000070565b604052565b90620000cf620000c760405190565b928362000087565b565b6001600160a01b031690565b90565b6001600160a01b0381165b036200006b57565b90505190620000cf82620000e0565b60209081906001600160401b0381116200011b57020190565b6200012562000070565b020190565b90929192620001436200013d8262000102565b620000b8565b938185526020808601920283019281841162000186575b915b8383106200016a5750505050565b602080916200017a8486620000f3565b8152019201916200015c565b6200018f600080fd5b6200015a565b90620000dd9181601f82011215620001b4575b6020815191016200012a565b620001bd600080fd5b620001a8565b80620000eb565b90505190620000cf82620001c3565b90929192620001ec6200013d8262000102565b93818552602080860192028301928184116200022f575b915b838310620002135750505050565b60208091620002238486620001ca565b81520192019162000205565b62000238600080fd5b62000203565b90620000dd9181601f820112156200025d575b602081519101620001d9565b62000266600080fd5b62000251565b909160c0828403126200037b575b620002868383620000f3565b92620002a881602085015160018060401b0381116200036c575b850162000195565b92620002ca82604083015160018060401b0381116200035d575b830162000195565b92620000dd620002f084606085015160018060401b0381116200034e575b85016200023e565b936200031281608086015160018060401b0381116200033f575b860162000195565b60a085015190946001600160401b03821162000330575b0162000195565b62000339600080fd5b62000329565b62000348600080fd5b6200030a565b62000357600080fd5b620002e8565b62000366600080fd5b620002c2565b62000375600080fd5b620002a0565b62000384600080fd5b6200027a565b620003ad6200475780380380620003a181620000b8565b9283398101906200026c565b909192939495565b620000dd90620000d1906001600160a01b031682565b620000dd90620003b5565b620000dd90620003cb565b620000dd620000dd620000dd9290565b90600019905b9181191691161790565b9062000415620000dd6200041d92620003e1565b8254620003f1565b9055565b50634e487b7160e01b600052601160045260246000fd5b620000cf62000421565b9160001960089290920291821b911b620003f7565b91906200046c620000dd6200041d93620003e1565b90835462000442565b620000cf9160009162000457565b8181106200048f575050565b806200049f600060019362000475565b0162000483565b9091828110620004b557505050565b620000cf9290620004cd905b92600052602060002090565b908101910162000483565b90620000cf91680100000000000000008211620004fc575b805490828155620004a6565b6200050662000070565b620004f0565b600162000540620004c16200051f855190565b94838060401b0386116200057d575b6200053a8686620004d8565b60200190565b92049160005b838110620005545750505050565b60019060206200056f620000dd86516001600160a01b031690565b940193818401550162000546565b6200058762000070565b6200052e565b90620000cf916200050c565b818110620005a5575050565b80620005b5600060019362000475565b0162000599565b9091828110620005cb57505050565b620000cf9290620005dc90620004c1565b908101910162000599565b90620000cf916801000000000000000082116200060b575b805490828155620005bc565b6200061562000070565b620005ff565b600162000649620004c16200062e855190565b94838060401b0386116200067d575b6200053a8686620005e7565b92049160005b8381106200065d5750505050565b60019060206200066f620000dd865190565b94019381840155016200064f565b6200068762000070565b6200063d565b90620000cf916200061b565b6001906000198114620006aa570190565b620006b462000421565b0190565b50634e487b7160e01b600052603260045260246000fd5b9060208091620006dd845190565b811015620006ec575b02010190565b620006f6620006b8565b620006e6565b906200070890620003d6565b600052602052604060002090565b6200073960019162000726815490565b8410156200074257600052602060002090565b91020190600090565b6200074c620006b8565b600052602060002090565b9062000783620000cf92805490680100000000000000008210156200078a575b60018201815562000716565b9062000457565b6200079462000070565b62000777565b906001600160a01b0390620003f7565b90620007be620000dd6200041d92620003d6565b82546200079a565b9060ff90620003f7565b90620007e3620000dd6200041d92151590565b8254620007c6565b620000dd62093a80620003e1565b919082018092116200043857565b94620008f26200090294939562000824620008fa94999862000a24565b6200084373c8418af6358ffdda74e09ca9cc3fe03ca6adc5b0620003d6565b60805273853d955acef822db058eb8505911ed77f175b99e60a052620008dd671bc16d674ec800006200087681620003e1565b6200088381600662000401565b620008946301e13380600762000401565b620008a462091050600862000401565b620008d4673782dace9d90000091620008bd83620003e1565b93620008cb85600962000401565b50600a62000401565b50600b62000401565b620008ea8960106200058d565b60116200058d565b60126200058d565b60136200068d565b60006200090f81620003e1565b925b6200091e620000dd865190565b841015620009d2576200095b846200095560146200094e62000941848b620006cf565b516001600160a01b031690565b90620006fc565b62000401565b620009bf6015620009786200097085620003e1565b809262000757565b62000988620009418787620006cf565b620009a981620009a3600f6200094e620009418c8e620006cf565b620007aa565b50620009b781601962000757565b601a62000757565b620009ca8462000699565b935062000911565b9350915050620009e4816021620007d0565b5062000a0842620009f781600562000401565b62000a01620007eb565b90620007f9565b62000a1581600462000401565b50565b620000dd6001620003e1565b62000a2f9062000ac8565b62000a3962000a18565b62000a1581600262000401565b620000d1620000dd620000dd9290565b620000dd9062000a46565b1562000a6957565b60405162461bcd60e51b815260206004820152601960248201527f4f776e657220616464726573732063616e6e6f742062652030000000000000006044820152606490fd5b6001600160a01b0391821681529116602082015260400190565b60009062000ad68262000a56565b9162000af76001600160a01b0384166001600160a01b038416141562000a61565b62000b038282620007aa565b507fb532073b38c83145e3e5135377a08bf9aab55bc0fd7c1179cd4fb995d2a5159c9162000b3e62000b3460405190565b9283928362000aae565b0390a156fe60806040526004361015610018575b610016600080fd5b005b60003560e01c80628cc262146104635780630d7bac4f1461045a57806312edb24c146104515780631627540c146104485780631c1f78eb1461043f5780631face85614610436578063231b68dc1461042d57806328408bab146104245780632c0c2a0a1461041b57806336f89af214610412578063386a952514610409578063387edc861461040057806341a16f3f146103f75780634fd2b536146103ee57806353a47bb7146103e557806355189773146103dc5780635bfd9258146103d357806364f2c060146103ca57806369339245146103c15780636c430dbb146103b85780636e27cef9146103af57806370641a36146103a65780637910d17b1461039d57806379ba5097146103945780637d6ef08e1461038b5780637f472e54146103825780638980f11f146103795780638bad86a7146103705780638da5cb5b1461036757806391cf600a1461035e5780639637927f14610355578063a0f234761461034c578063aa1d4fce14610343578063b94c4dcb1461033a578063c00007b014610331578063c354382614610328578063c8f33c911461031f578063cc2abd6414610316578063cdc82e801461030d578063d2010fb414610304578063d42fc9b4146102fb578063d5e1a9c6146102f2578063d7400d56146102e9578063d9f96e8d146102e0578063de1a6551146102d7578063e01f62bf146102ce578063e1ba95d2146102c5578063e7f30582146102bc578063ebe2b12b146102b3578063f288baf6146102aa578063f2a8d349146102a1578063f2caeb1e14610298578063f77e34d11461028f578063facefb64146102865763fff6cae90361000e57610281611384565b61000e565b5061028161135d565b506102816111bd565b50610281611176565b5061028161114c565b50610281611116565b506102816110e0565b506102816110ad565b50610281611086565b5061028161105c565b50610281611034565b5061028161100a565b50610281610fe3565b50610281610fb8565b50610281610f44565b50610281610f1a565b50610281610ee4565b50610281610eb0565b50610281610e48565b50610281610e12565b50610281610de8565b50610281610dbe565b50610281610d88565b50610281610d52565b50610281610d28565b50610281610cdb565b50610281610cb1565b50610281610c7b565b50610281610c53565b50610281610bf8565b50610281610bce565b50610281610b95565b50610281610b6a565b50610281610b40565b50610281610b16565b50610281610ae0565b50610281610aa4565b50610281610a4d565b50610281610a24565b506102816109fc565b5061028161098c565b50610281610956565b5061028161092c565b506102816108f4565b506102816108ca565b5061028161087f565b50610281610855565b50610281610803565b5061028161074a565b506102816106ef565b506102816106c5565b50610281610699565b50610281610663565b506102816105b1565b50610281610547565b600080fd5b73ffffffffffffffffffffffffffffffffffffffff1690565b90565b73ffffffffffffffffffffffffffffffffffffffff81165b0361046c57565b905035906104b98261048d565b565b9061048a91602081830312156104ac576104d3600080fd5b6104ac565b9052565b0190565b906105006104f96104ef845190565b8084529260200190565b9260200190565b9060005b8181106105115750505090565b90919261052e6105276001928651815260200190565b9460200190565b929101610504565b602080825261048a929101906104e0565b5034610574575b61057061056461055f3660046104bb565b611a05565b60405191829182610536565b0390f35b61057c600080fd5b61054e565b806104a5565b905035906104b982610581565b9061048a9160208183031215610587576105ac600080fd5b610587565b50346105de575b6105706105ce6105c9366004610594565b611c2e565b6040519182918290815260200190565b6105e6600080fd5b6105b8565b60009103126105f657565b6104b9600080fd5b9061060d6104f96104ef845190565b9060005b81811061061e5750505090565b90919261064a610527600192865173ffffffffffffffffffffffffffffffffffffffff16815260200190565b929101610611565b602080825261048a929101906105fe565b503461068c575b6106753660046105eb565b6105706106806114ec565b60405191829182610652565b610694600080fd5b61066a565b50346106b8575b6106b36106ae3660046104bb565b6138a8565b604051005b6106c0600080fd5b6106a0565b50346106e2575b6106d73660046105eb565b610570610564611b0b565b6106ea600080fd5b6106cc565b503461070c575b6105706105ce6107073660046104bb565b611c98565b610714600080fd5b6106f6565b919061048a9060408482031261073d575b61073481856104ac565b936020016104ac565b610745600080fd5b61072a565b503461077a575b610570610768610762366004610719565b906113bd565b60405191829182901515815260200190565b610782600080fd5b610751565b61047161048a61048a9273ffffffffffffffffffffffffffffffffffffffff1690565b61048a90610787565b61048a906107aa565b906107c6906107b3565b600052602052604060002090565b61048a916008021c610471565b9061048a91546107d4565b61048a906107fe6020916000926107bc565b6107e1565b5034610848575b61057061082061081b3660046104bb565b6107ec565b6040515b9182918273ffffffffffffffffffffffffffffffffffffffff909116815260200190565b610850600080fd5b61080a565b5034610872575b6105706105ce61086d3660046104bb565b611e84565b61087a600080fd5b61085c565b503461089c575b6105706105ce6108973660046104bb565b611ba9565b6108a4600080fd5b610886565b61048a61048a61048a9290565b61048a62093a806108a9565b61048a6108b6565b50346108e7575b6108dc3660046105eb565b6105706105ce6108c2565b6108ef600080fd5b6108d1565b3461090d575b6104b96109083660046104bb565b6126ba565b610915600080fd5b6108fa565b61048a906107fe600f916000926107bc565b5034610949575b6105706108206109443660046104bb565b61091a565b610951600080fd5b610933565b5034610973575b6105706105ce61096e3660046104bb565b611e0e565b61097b600080fd5b61095d565b61048a600060016107e1565b50346109a9575b61099e3660046105eb565b610570610820610980565b6109b1600080fd5b610993565b8015156104a5565b905035906104b9826109b6565b919061048a906040848203126109ef575b6109e681856104ac565b936020016109be565b6109f7600080fd5b6109dc565b5034610a17575b6106b3610a113660046109cb565b90612476565b610a1f600080fd5b610a03565b34610a40575b610a353660046105eb565b610a3d611dae565b50565b610a48600080fd5b610a2a565b5034610a6a575b610a5f3660046105eb565b6105706105ce611b9f565b610a72600080fd5b610a54565b61048a916008021c81565b9061048a9154610a77565b61048a90610a9f6014916000926107bc565b610a82565b5034610ac1575b6105706105ce610abc3660046104bb565b610a8d565b610ac9600080fd5b610aab565b61048a90610a9f6018916000926107bc565b5034610afd575b6105706105ce610af83660046104bb565b610ace565b610b05600080fd5b610ae7565b61048a60006008610a82565b5034610b33575b610b283660046105eb565b6105706105ce610b0a565b610b3b600080fd5b610b1d565b5034610b5d575b610b523660046105eb565b6105706105646118d6565b610b65600080fd5b610b47565b5034610b88575b610570610564610b823660046109cb565b906127b6565b610b90600080fd5b610b71565b5034610baf575b610ba73660046105eb565b6106b3613969565b610bb7600080fd5b610b9c565b61048a90610a9f601f916000926107bc565b5034610beb575b6105706105ce610be63660046104bb565b610bbc565b610bf3600080fd5b610bd5565b5034610c15575b6105706105ce610c103660046104bb565b611e30565b610c1d600080fd5b610bff565b919061048a90604084820312610c46575b610c3d81856104ac565b93602001610587565b610c4e600080fd5b610c33565b5034610c6e575b6106b3610c68366004610c22565b90613395565b610c76600080fd5b610c5a565b34610c99575b610c94610c8f3660046104bb565b611bc0565b505050565b610ca1600080fd5b610c81565b61048a6000806107e1565b5034610cce575b610cc33660046105eb565b610570610820610ca6565b610cd6600080fd5b610cb8565b5034610cf5575b6106b3610cf03660046104bb565b61318d565b610cfd600080fd5b610ce2565b61048a916008021c5b60ff1690565b9061048a9154610d02565b61048a60006021610d11565b5034610d45575b610d3a3660046105eb565b610570610768610d1c565b610d4d600080fd5b610d2f565b5034610d6f575b6105706105ce610d6a3660046104bb565b611cc0565b610d77600080fd5b610d59565b61048a60006009610a82565b5034610da5575b610d9a3660046105eb565b6105706105ce610d7c565b610dad600080fd5b610d8f565b61048a60006007610a82565b5034610ddb575b610dd03660046105eb565b6105706105ce610db2565b610de3600080fd5b610dc5565b5034610e05575b610570610564610e003660046104bb565b612778565b610e0d600080fd5b610def565b5034610e2f575b610570610820610e2a3660046104bb565b611e5b565b610e37600080fd5b610e19565b61048a60006005610a82565b5034610e65575b610e5a3660046105eb565b6105706105ce610e3c565b610e6d600080fd5b610e4f565b9091606082840312610ea3575b61048a610e8c84846109be565b93610e9a81602086016109be565b936040016109be565b610eab600080fd5b610e7f565b5034610ecb575b6106b3610ec5366004610e72565b91613121565b610ed3600080fd5b610eb7565b61048a60006006610a82565b5034610f01575b610ef63660046105eb565b6105706105ce610ed8565b610f09600080fd5b610eeb565b61048a60006003610a82565b5034610f37575b610f2c3660046105eb565b6105706105ce610f0e565b610f3f600080fd5b610f21565b5034610f61575b6105706105ce610f5c3660046104bb565b611c68565b610f69600080fd5b610f4b565b608081830312610fab575b610f8382826104ac565b9261048a610f948460208501610587565b93610fa281604086016104ac565b936060016104ac565b610fb3600080fd5b610f79565b5034610fd6575b6106b3610fcd366004610f6e565b92919091613784565b610fde600080fd5b610fbf565b5034610ffd575b6106b3610ff83660046104bb565b6123b9565b611005600080fd5b610fea565b5034611027575b6105706105ce6110223660046104bb565b611b88565b61102f600080fd5b611011565b503461104f575b6106b3611049366004610719565b906137b6565b611057600080fd5b61103b565b5034611079575b61106e3660046105eb565b6105706105ce611b7e565b611081600080fd5b611063565b50346110a0575b6110983660046105eb565b6106b3613158565b6110a8600080fd5b61108d565b50346110c7575b6106b36110c23660046104bb565b612287565b6110cf600080fd5b6110b4565b61048a60006004610a82565b50346110fd575b6110f23660046105eb565b6105706105ce6110d4565b611105600080fd5b6110e7565b61048a6000600a610a82565b5034611133575b6111283660046105eb565b6105706105ce61110a565b61113b600080fd5b61111d565b61048a6000600b610a82565b5034611169575b61115e3660046105eb565b6105706105ce611140565b611171600080fd5b611153565b5034611193575b6105706105ce61118e366004610594565b61164b565b61119b600080fd5b61117d565b9061048a91602081830312156109be576111b8600080fd5b6109be565b50346111d7575b6106b36111d23660046111a0565b612a0a565b6111df600080fd5b6111c4565b601f017fffffffffffffffffffffffffffffffffffffffffffffffffffffffffffffffe01690565b507f4e487b7100000000000000000000000000000000000000000000000000000000600052604160045260246000fd5b90601f017fffffffffffffffffffffffffffffffffffffffffffffffffffffffffffffffe016810190811067ffffffffffffffff82111761127c57604052565b61128461120c565b604052565b906104b961129660405190565b928361123c565b60209067ffffffffffffffff81116112b3570290565b6112bb61120c565b0290565b909291926112d46112cf8261129d565b611289565b93602085920283019281841161130d575b915b8383106112f45750505050565b602080916113028486610587565b8152019201916112e7565b611315600080fd5b6112e5565b9061048a9181601f82011215611333575b6006906112bf565b61133b600080fd5b61132b565b9061048a9160c0818303121561131a57611358600080fd5b61131a565b5034611377575b6106b3611372366004611340565b6136c7565b61137f600080fd5b611364565b3461139d575b6113953660046105eb565b6104b9612bb6565b6113a5600080fd5b61138a565b61048a90610471565b61048a90546113aa565b906113cb61047160006113b3565b73ffffffffffffffffffffffffffffffffffffffff8316036113ee575050600190565b61142161140761140261143b93600f6107bc565b6113b3565b9273ffffffffffffffffffffffffffffffffffffffff1690565b9173ffffffffffffffffffffffffffffffffffffffff1690565b1461144557600090565b600190565b906114656114596104ef845490565b92600052602060002090565b9060005b8181106114765750505090565b9091926114b06114a960019261148b876113b3565b73ffffffffffffffffffffffffffffffffffffffff16815260200190565b9460010190565b929101611469565b9061048a9161144a565b906104b96114dc926114d360405190565b938480926114b8565b038361123c565b61048a906114c2565b61048a60106114e3565b507f4e487b7100000000000000000000000000000000000000000000000000000000600052603260045260246000fd5b611546600191611534815490565b84101561154f57600052602060002090565b91020190600090565b6115576114f6565b600052602060002090565b61047161048a61048a9290565b61048a90611562565b905051906104b982610581565b9061048a91602081830312156115785761159d600080fd5b611578565b506040513d6000823e3d90fd5b507f4e487b7100000000000000000000000000000000000000000000000000000000600052601160045260246000fd5b818102929181159184041417156115f257565b6104b96115af565b507f4e487b7100000000000000000000000000000000000000000000000000000000600052601260045260246000fd5b90611634565b9190565b90811561163f570490565b6116476115fa565b0490565b61165f611659826011611526565b906107e1565b61166c610471600061156f565b73ffffffffffffffffffffffffffffffffffffffff82161461174f576116bf61048a9260206116a76116a2856116f396506107b3565b6107b3565b630a3be757906116b660405190565b94859260e01b90565b825260049082905afa918215611742575b60009261170a575b506116e76116ed916019611526565b90610a82565b906115df565b611704670de0b6b3a76400006108a9565b9061162a565b6116ed9192506117336116e79160203d811161173b575b61172b818361123c565b810190611585565b9291506116d8565b503d611721565b61174a6115a2565b6116d0565b506116e761048a916013611526565b61048a9081565b61048a905461175e565b6020809167ffffffffffffffff811161178757020190565b61178f61120c565b020190565b906117a16112cf8361176f565b918252565b369037565b906104b96117c16117bb84611794565b9361176f565b7fffffffffffffffffffffffffffffffffffffffffffffffffffffffffffffffe001602084016117a6565b6001907fffffffffffffffffffffffffffffffffffffffffffffffffffffffffffffffff811461181a570190565b6104dc6115af565b919082039182116115f257565b919082018092116115f257565b9060208091611849845190565b811015611857575b02010190565b61185f6114f6565b611851565b906118736114596104ef845490565b9060005b8181106118845750505090565b9091926118a16114a960019261189987611765565b815260200190565b929101611877565b9061048a91611864565b906104b96114dc926118c460405190565b938480926118a9565b61048a906118b3565b6118e0601b611765565b6000906118ef611630836108a9565b1480156119bf575b15611907575061048a60156118cd565b61192161191b61191660105490565b6117ab565b916108a9565b915b601561193061048a825490565b8410156119b9576119496116e785836119979450611526565b61199161198761197661196d61195d6119dc565b6119676005611765565b90611822565b6116ed8961164b565b6116ed670de0b6b3a76400006108a9565b611704601c611765565b9061182f565b6119a8816119a5868661183c565b52565b506119b2836117ec565b9250611923565b50915090565b506119ca601c611765565b6119d6611630836108a9565b146118f7565b61048a426119ea6004611765565b808210156119f6575090565b919050565b906107c6906108a9565b90611a0e6118d6565b91601090611a1d611916835490565b908194601e611a34611a2f84836107bc565b611765565b600090611a43611630836108a9565b11611a51575b505050505050565b80611a639197929394959697506108a9565b955b611a7061048a825490565b871015611af95761048a611a7091611ad7611ac56116f3886116ed8b6119678f80611ac0611ab88f611a2f94611aae611a2f8984611ab495506107bc565b9961183c565b5190565b9460166107bc565b6119fb565b611991611a2f8c611ac08c60176107bc565b611ae5816119a58c8c61183c565b50611aef896117ec565b9850915050611a65565b50945050505050388080808080611a49565b601390611b19611916835490565b908190611b2660006108a9565b935b611b3361048a825490565b851015611b775761048a611b3391611b55611b4d8861164b565b6116ed6108b6565b611b63816119a58a8a61183c565b50611b6d876117ec565b9650915050611b28565b5091509150565b61048a601b611765565b611a2f61048a91611b97600090565b50601d6107bc565b61048a601c611765565b611a2f61048a91611bb8600090565b50601e6107bc565b5050611bca600090565b506040517f08c379a000000000000000000000000000000000000000000000000000000000815260206004820152600f60248201527f4e6565642063434357206c6f67696300000000000000000000000000000000006044820152606490fd5b0390fd5b61048a906119ea611c4d611c426006611765565b926116ed6006611765565b6117046007611765565b61048a670de0b6b3a76400006108a9565b611c9061048a91611c77600090565b506116ed611a2f611c886003611765565b92601d6107bc565b611704611c57565b611c9061048a91611ca7600090565b506116ed611a2f611cb86003611765565b92601f6107bc565b611d6c611d40602061048a93611cd4600090565b50611cfe7f00000000000000000000000000000000000000000000000000000000000000006107b3565b611d1c6370a08231611d0f60405190565b9586948593849360e01b90565b835273ffffffffffffffffffffffffffffffffffffffff1660048301526024820190565b03915afa908115611da1575b600091611d83575b50611d67611d60611c57565b80926115df565b6115df565b611704611d79600b611765565b6116ed6003611765565b611d9b915060203d811161173b5761172b818361123c565b38611d54565b611da96115a2565b611d4c565b506040517f08c379a000000000000000000000000000000000000000000000000000000000815260206004820152601060248201527f4e6565642066504c5054206c6f676963000000000000000000000000000000006044820152606490fd5b611c90611e2661048a92611e20600090565b50611c68565b6116ed600b611765565b611c90611e2661048a92611e42600090565b50611c98565b61048a90610d0b565b61048a9054611e48565b611e6e611e6982600d6107bc565b611e51565b15611e765790565b61140261048a9160206107bc565b600090611fc1600091611e96836108a9565b50611ea081611e5b565b90611eaa8461156f565b9173ffffffffffffffffffffffffffffffffffffffff831673ffffffffffffffffffffffffffffffffffffffff82161480156120f057611f266020611f0e7f00000000000000000000000000000000000000000000000000000000000000006107b3565b6370a0823190611f1d60405190565b93849260e01b90565b825273ffffffffffffffffffffffffffffffffffffffff8716600483015260249082905afa9081156120e3575b6000916120c5575b50935b611f7e611f74611f6e600a611765565b876115df565b6116ed6009611765565b6020611fa97f00000000000000000000000000000000000000000000000000000000000000006107b3565b6318160ddd90611fb860405190565b998a9260e01b90565b825260049082905afa9687156120b8575b600097612094575b50611ff190611704611fea611c57565b80996115df565b97505015612084575061200390611e0e565b925b61200e816108a9565b841115612072575061203161203b9361202c848461202c95506115df565b61162a565b6116ed600a611765565b8082111561206a5750905b8161205761163061048a600a611765565b1161205e57565b905061048a600a611765565b919050612046565b91505061207f91506108a9565b61203b565b61208e9150611e30565b92612005565b611ff19197506120b19060203d811161173b5761172b818361123c565b9690611fda565b6120c06115a2565b611fd2565b6120dd915060203d811161173b5761172b818361123c565b38611f5b565b6120eb6115a2565b611f53565b61211e6020611f0e7f00000000000000000000000000000000000000000000000000000000000000006107b3565b825273ffffffffffffffffffffffffffffffffffffffff8616600483015260249082905afa908115612178575b60009161215a575b5093611f5e565b612172915060203d811161173b5761172b818361123c565b38612153565b6121806115a2565b61214b565b1561218c57565b6040517f08c379a000000000000000000000000000000000000000000000000000000000815260206004820152600d60248201527f496e76616c69642070726f7879000000000000000000000000000000000000006044820152606490fd5b9060ff905b9181191691161790565b9061220a61048a61221192151590565b82546121eb565b9055565b9073ffffffffffffffffffffffffffffffffffffffff906121f0565b9061224161048a612211926107b3565b8254612215565b907fffffffffffffffffffffffffffffffffffffffffffffffffffffffffffffffff906121f0565b9061228061048a612211926108a9565b8254612248565b3361229e612299611e6983600d6107bc565b612185565b806122d5600e6122d0856122bf6122c86122c4611e69846122bf8a896107bc565b6107bc565b1590565b9586946107bc565b6121fa565b506020916122e661140282856107bc565b61230573ffffffffffffffffffffffffffffffffffffffff8416611421565b1461230f57505050565b61233e611cb8611a2f8361234d94611b976104b998612339612331600061156f565b9384926107bc565b612231565b9161234883611765565b611822565b90612270565b1561235a57565b6040517f08c379a000000000000000000000000000000000000000000000000000000000815260206004820152601d60248201527f50726f787920686173206e6f7420616c6c6f77656420796f75207965740000006044820152606490fd5b6104b9906123ce612299611e6983600d6107bc565b61234d612449611cb8611a2f6123e585600e6107bc565b6123fb6123f6611e693380946107bc565b612353565b6124428661233983602061241261140283836107bc565b61241f610471600061156f565b73ffffffffffffffffffffffffffffffffffffffff821603612458575b506107bc565b601d6107bc565b9161245383611765565b61182f565b6124709061234d61233e611cb8611a2f87601d6107bc565b3861243c565b906124b1575b612489610471600061156f565b73ffffffffffffffffffffffffffffffffffffffff8216036124a85750565b610c9490611bc0565b6124b9612bb6565b61247c565b6124c961048a845190565b851015612506576124dd611ab4868561183c565b6124f5816124f088611ac08960176107bc565b612270565b506124ff856117ec565b94506124be565b612512919294506108a9565b925b61251f61048a825190565b8410156125625761048a61251f9161253b6116e7876015611526565b61254e816124f089611ac08a60166107bc565b50612558866117ec565b9550915050612514565b50915050565b61048a60026108a9565b1561257957565b6040517f08c379a000000000000000000000000000000000000000000000000000000000815260206004820152601f60248201527f5265656e7472616e637947756172643a207265656e7472616e742063616c6c006044820152606490fd5b61048a60016108a9565b6104b9906125f06002611765565b6126046125fb612568565b91821415612572565b61260f816002612270565b50612691565b61048a9060101c610d0b565b61048a9054612615565b1561263257565b6040517f08c379a000000000000000000000000000000000000000000000000000000000815260206004820152601960248201527f5265776172647320636f6c6c656374696f6e20706175736564000000000000006044820152606490fd5b6104b9906126b46126a26021612621565b6126ae60005b91151590565b1461262b565b336126c3565b6104b9906125e2565b5050506126cf60405190565b7f08c379a000000000000000000000000000000000000000000000000000000000815260206004820152600f60248201527f4e656564206752454c206c6f67696300000000000000000000000000000000006044820152606490fd5b906127569161273a6002611765565b6127456125fb612568565b612750816002612270565b5061276a565b9061275f6125d8565b610a3d816002612270565b5061048a9060019033612982565b61048a90606061272b565b9061275692916127936002611765565b61279e6125fb612568565b6127a9816002612270565b505061048a919033612982565b61048a91906060612783565b9061048a9392916127d4600183612476565b612823565b90815273ffffffffffffffffffffffffffffffffffffffff90911660208201526060810192916104b9916040905b019073ffffffffffffffffffffffffffffffffffffffff169052565b93909192935042612839816124f08560186107bc565b506128446021612621565b60009190612855906126ae846126a8565b601091612863611916845490565b91829061286f836108a9565b975b61287c61048a875490565b89101561296957866128bb60176119a56128aa8d6128a1611a2f82611ac089886107bc565b9283918c61183c565b506124f08c611ac06122c88a6108a9565b6128cb61048a611ab48c8961183c565b116128e1575b6128da896117ec565b9850612871565b6129056128f16116598b89611526565b896128ff611ab48d8a61183c565b91613b35565b612912611ab48a8761183c565b61291f6116598b89611526565b7f1d2f2ca53af5d2f333bd32fdd45f9c52ad8ebe31414f7792912077fcb3876dff9061294a8a6107b3565b926129618c61295860405190565b938493846127d9565b0390a26128d1565b9350959350955050612979575050565b6104b9916126c3565b61048a92919060606127c2565b73ffffffffffffffffffffffffffffffffffffffff90911681526040810192916104b99160200152565b919060086121f09102916129ec7fffffffffffffffffffffffffffffffffffffffffffffffffffffffffffffffff841b90565b921b90565b9190612a0261048a612211936108a9565b9083546129b9565b600090612a16826108a9565b925b6011612a2561048a825490565b851015612baf576116598582612a3b9350611526565b612a476104718561156f565b73ffffffffffffffffffffffffffffffffffffffff821603612a75575b50612a6e846117ec565b9350612a18565b828315612b93575b15612a6457612b1090602090612a92816107b3565b612a9b816107b3565b91636472eee184612ac7612aae306107b3565b92612ad242612abc60405190565b958694859460e01b90565b84526004840161298f565b03818c885af1908115612b86575b600091612b69575b50612afe81612af88c6019611526565b906129f1565b50505063513872bd90611f1d60405190565b825260049082905afa908115612b5c575b600091612b3e575b50612b3981612af887601a611526565b612a64565b612b56915060203d811161173b5761172b818361123c565b38612b29565b612b646115a2565b612b21565b612b809150853d811161173b5761172b818361123c565b38612ae8565b612b8e6115a2565b612ae0565b5042612ba961163061048a6116e789601a611526565b11612a7d565b5092505050565b610a356000612a0a565b919061048a90604084820312612be4575b612bdb8185611578565b93602001611578565b612bec600080fd5b612bd1565b6104d89073ffffffffffffffffffffffffffffffffffffffff1660601b90565b906104dc612c6a6014937f4e6f7420656e6f7567682072657761726420746f6b656e7320617661696c616281527f6c653a2000000000000000000000000000000000000000000000000000000000602082015260240190565b8092612bf1565b60005b838110612c845750506000910152565b8181015183820152602001612c74565b612cb56111e46020936104dc93612ca9815190565b80835293849260200190565b95869101612c71565b602080825261048a92910190612c94565b15612cd75750565b611c2a90612ce460405190565b9182917f08c379a000000000000000000000000000000000000000000000000000000000835260048301612cbe565b6012612d2061048a825490565b841015612df7576116598482612d369350611526565b612d426104718461156f565b73ffffffffffffffffffffffffffffffffffffffff821603612d70575b50612d69836117ec565b9250612d13565b6040612d836116a283612dad94506107b3565b63092193ab90611d1c86612d96306107b3565b93612da060405190565b9687958694859360e01b90565b03925af18015612dea575b15612d5f57612ddd9060403d8111612de3575b612dd5818361123c565b810190612bc0565b50612d5f565b503d612dcb565b612df26115a2565b612db8565b50909150612e09426119676004611765565b91612e1f61191b612e186108b6565b809561162a565b925b6010612e2e61048a825490565b851015612f215780612ee6612ebe61165988612eec95612eb6611630612e9f6020612e836116a26116a28f8f612e7d611659926116ed612e728e94611d678661164b565b9161199160016108a9565b99611526565b6370a0823190611d1c612e95306107b3565b92611d0f60405190565b03915afa908115612f14575b600091612efc575090565b111594611526565b61048a612eca60405190565b8092612eda602083019182612c11565b9081038252038261123c565b90612ccf565b612ef5846117ec565b9350612e21565b61048a915060203d811161173b5761172b818361123c565b612f1c6115a2565b612eab565b50612f4492935061199190611d67612f396004611765565b9361199160016108a9565b612f4f816004612270565b50610a35612f5b6118d6565b90612f6660006108a9565b915b6015612f7561048a825490565b841015612faa57612f998491612af8612f91611ab4858761183c565b938492611526565b50612fa3836117ec565b9250612f68565b50509050612fb66119dc565b610a3d816005612270565b15612fc857565b6040517f08c379a000000000000000000000000000000000000000000000000000000000815260206004820152601560248201527f4e6f74206f776e6572206f722074696d656c6f636b00000000000000000000006044820152606490fd5b906104b992916130643361303e61047160006113b3565b73ffffffffffffffffffffffffffffffffffffffff821614908115613069575b50612fc1565b6130fe565b9050613088738412ebf45bac1b340bbe8f318b928c466c4e39ca611421565b143861305e565b9063ff0000009060181b6121f0565b906130ae61048a61221192151590565b825461308f565b9061ff009060081b6121f0565b906130d261048a61221192151590565b82546130b5565b9062ff00009060101b6121f0565b906130f761048a61221192151590565b82546130d9565b61310981602161309e565b506131158160216130c2565b50610a3d8160216130e7565b906104b99291613027565b61313d3361303e61047160006113b3565b6104b961314d6122c46021611e51565b610a3d8160216121fa565b6104b961312c565b6104b9906131753361303e61047160006113b3565b610a3d600d6122d06123316122c4611e6986856107bc565b6104b990613160565b1561319d57565b6040517f08c379a000000000000000000000000000000000000000000000000000000000815260206004820152601460248201527f4e6f74206f776e6572206f7220746b6e206d67720000000000000000000000006044820152606490fd5b906104b99161323a338261321361047160006113b3565b73ffffffffffffffffffffffffffffffffffffffff83161491821561323f575b5050613196565b613250565b61324992506113bd565b8238613233565b600092918361325e816108a9565b945b601061326d61048a825490565b87101561338a5761165987826132839350611526565b6132a273ffffffffffffffffffffffffffffffffffffffff8616611421565b146132b7576132b0866117ec565b9550613260565b5090919293506001905b818061336a575b8215613340575b5050156132e1576104b9913390613b35565b6040517f08c379a000000000000000000000000000000000000000000000000000000000815260206004820152601a60248201527f4e6f2076616c696420746f6b656e7320746f207265636f7665720000000000006044820152606490fd5b15915081613351575b5038806132cf565b905061336361142161047133936113b3565b1438613349565b915061337a61140285600f6107bc565b61338333611421565b14916132c8565b5091929394506132c1565b906104b9916131fc565b6104b9906133b43361303e61047160006113b3565b613505565b9060209060068110156133cb57020190565b61178f6114f6565b156133da57565b6040517f08c379a000000000000000000000000000000000000000000000000000000000815260206004820152601360248201527f4d757374206265203e3d204d554c2050524543000000000000000000000000006044820152606490fd5b1561344057565b6040517f08c379a000000000000000000000000000000000000000000000000000000000815260206004820152600c60248201527f4d757374206265203e3d203000000000000000000000000000000000000000006044820152606490fd5b156134a657565b6040517f08c379a000000000000000000000000000000000000000000000000000000000815260206004820152600c60248201527f4d757374206265203e3d203100000000000000000000000000000000000000006044820152606490fd5b611ab461364291613626611ab46135a6600061354461352f611ab4613529846108a9565b886133b9565b61353d61163061048a611c57565b10156133d3565b6135e3611ab46135dd6001613564611ab461355e836108a9565b8b6133b9565b613570611630876108a9565b1015806136a3575b80613674575b61358790613439565b6135cc611ab461355e6004976135c78d6135ac611ab46135a68d6108a9565b836133b9565b6135b8611630896108a9565b1015908161364d575b5061349f565b6108a9565b6135d7816006612270565b506108a9565b876133b9565b6135ee81600a612270565b506135ff611ab46135dd60026108a9565b61360a81600b612270565b5061361b611ab46135dd60036108a9565b6135d7816009612270565b613631816007612270565b5061363c60056108a9565b906133b9565b610a3d816008612270565b6136609150611ab49061363c60056108a9565b61366c611630886108a9565b10158e6135c1565b5061358761368e611ab461368860036108a9565b8c6133b9565b61369a611630886108a9565b1015905061357e565b506136b4611ab461355e60026108a9565b6136c0611630876108a9565b1015613578565b6104b99061339f565b906104b99392916136e9338261321361047160006113b3565b61372e565b919060086121f09102916129ec73ffffffffffffffffffffffffffffffffffffffff841b90565b919061372661048a612211936107b3565b9083546136ee565b8391613758611a2f61377593610a3d9660139461375e81612af8601498613758611a2f888c6107bc565b90611526565b5061377b816137756011613758611a2f878b6107bc565b90613715565b506012936107bc565b906104b99392916136d0565b906104b9916137a7338261321361047160006113b3565b81612339610a3d92600f6107bc565b906104b991613790565b156137c757565b6040517f08c379a000000000000000000000000000000000000000000000000000000000815260206004820152602f60248201527f4f6e6c792074686520636f6e7472616374206f776e6572206d6179207065726660448201527f6f726d207468697320616374696f6e00000000000000000000000000000000006064820152608490fd5b6104b99061386a3361386461142161047160006113b3565b146137c0565b613875816001612231565b6138a37f906a1c6bd7e3091ea86693dd029a831c19049ce77f1dce2ce0bab1cacbabce229161082460405190565b0390a1565b6104b99061384c565b156138b857565b6040517f08c379a000000000000000000000000000000000000000000000000000000000815260206004820152603560248201527f596f75206d757374206265206e6f6d696e61746564206265666f726520796f7560448201527f2063616e20616363657074206f776e65727368697000000000000000000000006064820152608490fd5b73ffffffffffffffffffffffffffffffffffffffff90911681526040810192916104b991602090612807565b6139833361397d61142161047160016113b3565b146138b1565b61398d60006113b3565b61399760016113b3565b7fb532073b38c83145e3e5135377a08bf9aab55bc0fd7c1179cd4fb995d2a5159c916139ce6139c560405190565b9283928361393d565b0390a16139db60016113b3565b6139e6816000612231565b506139f1600061156f565b610a3d816001612231565b613a0f613a0961048a9290565b60e01b90565b7fffffffff000000000000000000000000000000000000000000000000000000001690565b6104dc60209167ffffffffffffffff8111613a7157601f017fffffffffffffffffffffffffffffffffffffffffffffffffffffffffffffffe01690565b6111e461120c565b906117a16112cf83613a34565b3d15613aa057613a953d613a79565b903d6000602084013e565b606090565b905051906104b9826109b6565b9061048a9160208183031215613aa557613aca600080fd5b613aa5565b15613ad657565b6040517f08c379a000000000000000000000000000000000000000000000000000000000815260206004820152601f60248201527f5472616e7366657248656c7065723a205452414e534645525f4641494c4544006044820152606490fd5b600091906004613b7d8493613b6e6104b997613b5463a9059cbb6139fc565b92613b5e60405190565b958694602086019081520161298f565b6020820181038252038261123c565b82602082019151925af1613b8f613a86565b81613b9b575b50613acf565b8051909150613bad61163060006108a9565b14908115613bbd575b5038613b95565b613bd791506020613bcc825190565b818301019101613ab2565b38613bb656fea2646970667358221220782b20068764a1aa0a66c07ead6a61d21c431ccbde26165b1e202fd3af14ceb064736f6c63430008110033",
    "linkReferences": {}
  },
  "methodIdentifiers": {
    "acceptOwnership()": "79ba5097",
    "calcCurCombinedWeight(address)": "8bad86a7",
    "changeTokenManager(address,address)": "de1a6551",
    "combinedWeightOf(address)": "36f89af2",
    "earned(address)": "008cc262",
    "fraxPerLPStored()": "d2010fb4",
    "fraxPerLPToken()": "5bfd9258",
    "getAllRewardTokens()": "12edb24c",
    "getProxyFor(address)": "c3543826",
    "getReward(address)": "c00007b0",
    "getReward2(address,bool)": "7910d17b",
    "getRewardExtraLogic(address)": "387edc86",
    "getRewardForDuration()": "1c1f78eb",
    "isTokenManagerFor(address,address)": "231b68dc",
    "lastRewardClaimTime(address)": "6c430dbb",
    "lastUpdateTime()": "c8f33c91",
    "lockMultiplier(uint256)": "0d7bac4f",
    "lock_max_multiplier()": "cdc82e80",
    "lock_time_for_max_multiplier()": "b94c4dcb",
    "lock_time_min()": "6e27cef9",
    "lockedLiquidityOf(address)": "d9f96e8d",
    "maxLPForMaxBoost(address)": "a0f23476",
    "minVeFXSForMaxBoost(address)": "4fd2b536",
    "minVeFXSForMaxBoostProxy(address)": "7f472e54",
    "nominateNewOwner(address)": "1627540c",
    "nominatedOwner()": "53a47bb7",
    "owner()": "8da5cb5b",
    "periodFinish()": "ebe2b12b",
    "proxyStakedFrax(address)": "1face856",
    "proxyToggleStaker(address)": "e7f30582",
    "proxy_lp_balances(address)": "7d6ef08e",
    "recoverERC20(address,uint256)": "8980f11f",
    "rewardManagers(address)": "41a16f3f",
    "rewardRates(uint256)": "f2caeb1e",
    "rewardTokenAddrToIdx(address)": "69339245",
    "rewardsDuration()": "386a9525",
    "rewardsPerToken()": "70641a36",
    "setMiscVariables(uint256[6])": "facefb64",
    "setPauses(bool,bool,bool)": "cc2abd64",
    "setRewardVars(address,uint256,address,address)": "d5e1a9c6",
    "stakerSetVeFXSProxy(address)": "d7400d56",
    "staker_designated_proxies(address)": "28408bab",
    "stakesUnlocked()": "9637927f",
    "sync()": "fff6cae9",
    "sync_gauge_weights(bool)": "f77e34d1",
    "toggleValidVeFXSProxy(address)": "91cf600a",
    "totalCombinedWeight()": "64f2c060",
    "totalLiquidityLocked()": "e01f62bf",
    "unlockStakes()": "e1ba95d2",
    "updateRewardAndBalance(address,bool)": "55189773",
    "userStakedFrax(address)": "d42fc9b4",
    "veFXSMultiplier(address)": "2c0c2a0a",
    "vefxs_boost_scale_factor()": "aa1d4fce",
    "vefxs_max_multiplier()": "f288baf6",
    "vefxs_per_frax_for_max_boost()": "f2a8d349"
  },
  "id": 66
}