{
  "abi": [
    {
      "anonymous": false,
      "inputs": [
        {
          "indexed": true,
          "internalType": "address",
          "name": "owner",
          "type": "address"
        },
        {
          "indexed": true,
          "internalType": "address",
          "name": "spender",
          "type": "address"
        },
        {
          "indexed": false,
          "internalType": "uint256",
          "name": "value",
          "type": "uint256"
        }
      ],
      "name": "Approval",
      "type": "event"
    },
    {
      "anonymous": false,
      "inputs": [
        {
          "indexed": true,
          "internalType": "address",
          "name": "from",
          "type": "address"
        },
        {
          "indexed": true,
          "internalType": "address",
          "name": "to",
          "type": "address"
        },
        {
          "indexed": false,
          "internalType": "uint256",
          "name": "value",
          "type": "uint256"
        }
      ],
      "name": "Transfer",
      "type": "event"
    },
    {
      "inputs": [
        {
          "internalType": "address",
          "name": "owner",
          "type": "address"
        },
        {
          "internalType": "address",
          "name": "spender",
          "type": "address"
        }
      ],
      "name": "allowance",
      "outputs": [
        {
          "internalType": "uint256",
          "name": "",
          "type": "uint256"
        }
      ],
      "stateMutability": "view",
      "type": "function"
    },
    {
      "inputs": [
        {
          "internalType": "address",
          "name": "spender",
          "type": "address"
        },
        {
          "internalType": "uint256",
          "name": "amount",
          "type": "uint256"
        }
      ],
      "name": "approve",
      "outputs": [
        {
          "internalType": "bool",
          "name": "",
          "type": "bool"
        }
      ],
      "stateMutability": "nonpayable",
      "type": "function"
    },
    {
      "inputs": [
        {
          "internalType": "address",
          "name": "account",
          "type": "address"
        }
      ],
      "name": "balanceOf",
      "outputs": [
        {
          "internalType": "uint256",
          "name": "",
          "type": "uint256"
        }
      ],
      "stateMutability": "view",
      "type": "function"
    },
    {
      "inputs": [
        {
          "internalType": "uint256",
          "name": "amount",
          "type": "uint256"
        }
      ],
      "name": "burn",
      "outputs": [],
      "stateMutability": "nonpayable",
      "type": "function"
    },
    {
      "inputs": [
        {
          "internalType": "address",
          "name": "account",
          "type": "address"
        },
        {
          "internalType": "uint256",
          "name": "amount",
          "type": "uint256"
        }
      ],
      "name": "burnFrom",
      "outputs": [],
      "stateMutability": "nonpayable",
      "type": "function"
    },
    {
      "inputs": [
        {
          "internalType": "address",
          "name": "spender",
          "type": "address"
        },
        {
          "internalType": "uint256",
          "name": "subtractedValue",
          "type": "uint256"
        }
      ],
      "name": "decreaseAllowance",
      "outputs": [
        {
          "internalType": "bool",
          "name": "",
          "type": "bool"
        }
      ],
      "stateMutability": "nonpayable",
      "type": "function"
    },
    {
      "inputs": [
        {
          "internalType": "address",
          "name": "spender",
          "type": "address"
        },
        {
          "internalType": "uint256",
          "name": "addedValue",
          "type": "uint256"
        }
      ],
      "name": "increaseAllowance",
      "outputs": [
        {
          "internalType": "bool",
          "name": "",
          "type": "bool"
        }
      ],
      "stateMutability": "nonpayable",
      "type": "function"
    },
    {
      "inputs": [],
      "name": "totalSupply",
      "outputs": [
        {
          "internalType": "uint256",
          "name": "",
          "type": "uint256"
        }
      ],
      "stateMutability": "view",
      "type": "function"
    },
    {
      "inputs": [
        {
          "internalType": "address",
          "name": "recipient",
          "type": "address"
        },
        {
          "internalType": "uint256",
          "name": "amount",
          "type": "uint256"
        }
      ],
      "name": "transfer",
      "outputs": [
        {
          "internalType": "bool",
          "name": "",
          "type": "bool"
        }
      ],
      "stateMutability": "nonpayable",
      "type": "function"
    },
    {
      "inputs": [
        {
          "internalType": "address",
          "name": "sender",
          "type": "address"
        },
        {
          "internalType": "address",
          "name": "recipient",
          "type": "address"
        },
        {
          "internalType": "uint256",
          "name": "amount",
          "type": "uint256"
        }
      ],
      "name": "transferFrom",
      "outputs": [
        {
          "internalType": "bool",
          "name": "",
          "type": "bool"
        }
      ],
      "stateMutability": "nonpayable",
      "type": "function"
    }
  ],
  "bytecode": {
    "object": "0x60806040523461001b575b604051611076610029823961107690f35b610023600080fd5b61000a56fe60806040526004361015610018575b610016600080fd5b005b60003560e01c8063095ea7b3146100e057806318160ddd146100d757806323b872dd146100ce57806339509351146100c557806342966c68146100bc57806370a08231146100b357806379cc6790146100aa578063a457c2d7146100a1578063a9059cbb146100985763dd62ed3e0361000e576100936103de565b61000e565b50610093610382565b50610093610357565b5061009361032f565b50610093610305565b506100936102bc565b50610093610274565b50610093610249565b506100936101d0565b5061009361017c565b600080fd5b73ffffffffffffffffffffffffffffffffffffffff1690565b90565b73ffffffffffffffffffffffffffffffffffffffff81165b036100e957565b905035906101368261010a565b565b80610122565b9050359061013682610138565b91906101079060408482031261016f575b6101668185610129565b9360200161013e565b610177600080fd5b61015c565b50346101b0575b6101ac61019a61019436600461014b565b906104d5565b60405191829182901515815260200190565b0390f35b6101b8600080fd5b610183565b60009103126101c857565b610136600080fd5b50346101fe575b6101e23660046101bd565b6101ac6101ed61041a565b6040515b9182918290815260200190565b610206600080fd5b6101d7565b909160608284031261023c575b6101076102258484610129565b936102338160208601610129565b9360400161013e565b610244600080fd5b610218565b5034610267575b6101ac61019a61026136600461020b565b91610664565b61026f600080fd5b610250565b5034610292575b6101ac61019a61028c36600461014b565b906106b9565b61029a600080fd5b61027b565b90610107916020818303121561013e576102b7600080fd5b61013e565b50346102db575b6102d66102d136600461029f565b610a24565b604051005b6102e3600080fd5b6102c3565b90610107916020818303121561012957610300600080fd5b610129565b5034610322575b6101ac6101ed61031d3660046102e8565b610471565b61032a600080fd5b61030c565b503461034a575b6102d661034436600461014b565b90610a99565b610352600080fd5b610336565b5034610375575b6101ac61019a61036f36600461014b565b90610746565b61037d600080fd5b61035e565b50346103a0575b6101ac61019a61039a36600461014b565b9061048d565b6103a8600080fd5b610389565b9190610107906040848203126103d1575b6103c88185610129565b93602001610129565b6103d9600080fd5b6103be565b50346103fc575b6101ac6101ed6103f63660046103ad565b906104b5565b610404600080fd5b6103e5565b6101079081565b6101079054610409565b6101076002610410565b6100ee6101076101079273ffffffffffffffffffffffffffffffffffffffff1690565b61010790610424565b61010790610447565b9061046390610450565b600052602052604060002090565b61048861010791610480600090565b506000610459565b610410565b6104a791906104a261049d6104ac565b610450565b61092a565b600190565b61010733610450565b610107916104d0610488926104c8600090565b506001610459565b610459565b6104a791906104e561049d6104ac565b610d91565b601f017fffffffffffffffffffffffffffffffffffffffffffffffffffffffffffffffe01690565b507f4e487b7100000000000000000000000000000000000000000000000000000000600052604160045260246000fd5b90601f017fffffffffffffffffffffffffffffffffffffffffffffffffffffffffffffffe016810190811067ffffffffffffffff82111761058257604052565b61058a610512565b604052565b9061013661059c60405190565b9283610542565b6105e060209167ffffffffffffffff81116105e457601f017fffffffffffffffffffffffffffffffffffffffffffffffffffffffffffffffe01690565b0190565b6104ea610512565b906105fe6105f9836105a3565b61058f565b918252565b61060d60286105ec565b7f45524332303a207472616e7366657220616d6f756e742065786365656473206160208201527f6c6c6f77616e6365000000000000000000000000000000000000000000000000604082015290565b610107610603565b61067b8361010793610674600090565b508361092a565b6106836104ac565b906106b36106ad60019561069e610488866104d0878b610459565b906106a761065c565b91611022565b92610450565b90610d91565b610107906106c56104ac565b906104e56106ad6001956106e0610488856104d0888b610459565b610f0a565b6106ef60256105ec565b7f45524332303a2064656372656173656420616c6c6f77616e63652062656c6f7760208201527f207a65726f000000000000000000000000000000000000000000000000000000604082015290565b6101076106e5565b610107906107526104ac565b906104e56106ad60019561076d610488856104d0888b610459565b906106a761073e565b6100ee6101076101079290565b61010790610776565b1561079357565b6040517f08c379a000000000000000000000000000000000000000000000000000000000815260206004820152602560248201527f45524332303a207472616e736665722066726f6d20746865207a65726f20616460448201527f64726573730000000000000000000000000000000000000000000000000000006064820152608490fd5b0390fd5b1561082357565b6040517f08c379a000000000000000000000000000000000000000000000000000000000815260206004820152602360248201527f45524332303a207472616e7366657220746f20746865207a65726f206164647260448201527f65737300000000000000000000000000000000000000000000000000000000006064820152608490fd5b6108b260266105ec565b7f45524332303a207472616e7366657220616d6f756e742065786365656473206260208201527f616c616e63650000000000000000000000000000000000000000000000000000604082015290565b6101076108a8565b6101076101076101079290565b9061010761010761092692610909565b9055565b816109de600061099561097761093f83610783565b6100ee73ffffffffffffffffffffffffffffffffffffffff821673ffffffffffffffffffffffffffffffffffffffff8916141561078c565b73ffffffffffffffffffffffffffffffffffffffff8516141561081c565b6109ae6109a56104888684610459565b876106a7610901565b6109c1816109bc8785610459565b610916565b506109bc6109d6876106e06104888786610459565b938492610459565b50610a1f610a15610a0f7fddf252ad1be2c89b69c2b068fc378daa952ba7f163c4a11628f55a4df523b3ef93610450565b93610450565b936101f160405190565b0390a3565b61013690610a3361049d6104ac565b610bbd565b610a4260246105ec565b7f45524332303a206275726e20616d6f756e74206578636565647320616c6c6f7760208201527f616e636500000000000000000000000000000000000000000000000000000000604082015290565b610107610a38565b9061013691610a33610aa96104ac565b610ab281610450565b610ac8610abf82866104b5565b866106a7610a91565b915083610d91565b15610ad757565b6040517f08c379a000000000000000000000000000000000000000000000000000000000815260206004820152602160248201527f45524332303a206275726e2066726f6d20746865207a65726f2061646472657360448201527f73000000000000000000000000000000000000000000000000000000000000006064820152608490fd5b610b6660226105ec565b7f45524332303a206275726e20616d6f756e7420657863656564732062616c616e60208201527f6365000000000000000000000000000000000000000000000000000000000000604082015290565b610107610b5c565b600090610bc982610783565b91610c0273ffffffffffffffffffffffffffffffffffffffff841673ffffffffffffffffffffffffffffffffffffffff84161415610ad0565b610c1b610c126104888484610459565b856106a7610bb5565b610c29816109bc8585610459565b50610c3d84610c386002610410565b610f67565b610c48816002610916565b5050610a1f610a15610a0f7fddf252ad1be2c89b69c2b068fc378daa952ba7f163c4a11628f55a4df523b3ef93610450565b15610c8157565b6040517f08c379a0000000000000000000000000000000000000000000000000000000008152602060048201526024808201527f45524332303a20617070726f76652066726f6d20746865207a65726f2061646460448201527f72657373000000000000000000000000000000000000000000000000000000006064820152608490fd5b15610d0c57565b6040517f08c379a000000000000000000000000000000000000000000000000000000000815260206004820152602260248201527f45524332303a20617070726f766520746f20746865207a65726f20616464726560448201527f73730000000000000000000000000000000000000000000000000000000000006064820152608490fd5b610e13610df56000610da281610783565b90610ddb73ffffffffffffffffffffffffffffffffffffffff831673ffffffffffffffffffffffffffffffffffffffff87161415610c7a565b5073ffffffffffffffffffffffffffffffffffffffff1690565b73ffffffffffffffffffffffffffffffffffffffff84161415610d05565b610e26836109bc846104d0856001610459565b610a1f610a15610a0f7f8c5be1e5ebec7d5bd14f71427d1e84f3dd0314c0f7b2291e5b200ac8c7c3b92593610450565b507f4e487b7100000000000000000000000000000000000000000000000000000000600052601160045260246000fd5b9190610e91565b9290565b8201809211610e9c57565b610136610e56565b15610eab57565b6040517f08c379a000000000000000000000000000000000000000000000000000000000815260206004820152601b60248201527f536166654d6174683a206164646974696f6e206f766572666c6f7700000000006044820152606490fd5b90610f24610e8d61010792610f1d600090565b5084610e86565b821015610ea4565b610f36601e6105ec565b7f536166654d6174683a207375627472616374696f6e206f766572666c6f770000602082015290565b610107610f2c565b610107916106a7610f5f565b60005b838110610f865750506000910152565b8181015183820152602001610f76565b610fb76104ea6020936105e093610fab815190565b80835293849260200190565b95869101610f73565b602080825261010792910190610f96565b15610fd95750565b61081890610fe660405190565b9182917f08c379a000000000000000000000000000000000000000000000000000000000835260048301610fc0565b91908203918211610e9c57565b61103b61010793611031600090565b5082841115610fd1565b61101556fea2646970667358221220612c83bdf6806fa14412b2a1a2dfadb95faf51a081bfdade1f605bd50ef14b2a64736f6c63430008110033",
    "linkReferences": {}
  },
  "methodIdentifiers": {
    "allowance(address,address)": "dd62ed3e",
    "approve(address,uint256)": "095ea7b3",
    "balanceOf(address)": "70a08231",
    "burn(uint256)": "42966c68",
    "burnFrom(address,uint256)": "79cc6790",
    "decreaseAllowance(address,uint256)": "a457c2d7",
    "increaseAllowance(address,uint256)": "39509351",
    "totalSupply()": "18160ddd",
    "transfer(address,uint256)": "a9059cbb",
    "transferFrom(address,address,uint256)": "23b872dd"
  },
  "id": 32
}