{
  "abi": [
    {
      "inputs": [
        {
          "internalType": "address",
          "name": "token0",
          "type": "address"
        },
        {
          "internalType": "uint32",
          "name": "blockTimestampLast",
          "type": "uint32"
        },
        {
          "internalType": "bool",
          "name": "successTransfer",
          "type": "bool"
        },
        {
          "internalType": "string",
          "name": "_name",
          "type": "string"
        },
        {
          "internalType": "string",
          "name": "_symbol",
          "type": "string"
        },
        {
          "internalType": "uint8",
          "name": "_decimals",
          "type": "uint8"
        }
      ],
      "stateMutability": "nonpayable",
      "type": "constructor"
    },
    {
      "anonymous": false,
      "inputs": [
        {
          "indexed": true,
          "internalType": "address",
          "name": "owner",
          "type": "address"
        },
        {
          "indexed": true,
          "internalType": "address",
          "name": "spender",
          "type": "address"
        },
        {
          "indexed": false,
          "internalType": "uint256",
          "name": "amount",
          "type": "uint256"
        }
      ],
      "name": "Approval",
      "type": "event"
    },
    {
      "anonymous": false,
      "inputs": [
        {
          "indexed": true,
          "internalType": "address",
          "name": "from",
          "type": "address"
        },
        {
          "indexed": true,
          "internalType": "address",
          "name": "to",
          "type": "address"
        },
        {
          "indexed": false,
          "internalType": "uint256",
          "name": "amount",
          "type": "uint256"
        }
      ],
      "name": "Transfer",
      "type": "event"
    },
    {
      "inputs": [],
      "name": "DOMAIN_SEPARATOR",
      "outputs": [
        {
          "internalType": "bytes32",
          "name": "",
          "type": "bytes32"
        }
      ],
      "stateMutability": "view",
      "type": "function"
    },
    {
      "inputs": [
        {
          "internalType": "address",
          "name": "",
          "type": "address"
        },
        {
          "internalType": "address",
          "name": "",
          "type": "address"
        }
      ],
      "name": "allowance",
      "outputs": [
        {
          "internalType": "uint256",
          "name": "",
          "type": "uint256"
        }
      ],
      "stateMutability": "view",
      "type": "function"
    },
    {
      "inputs": [
        {
          "internalType": "address",
          "name": "spender",
          "type": "address"
        },
        {
          "internalType": "uint256",
          "name": "amount",
          "type": "uint256"
        }
      ],
      "name": "approve",
      "outputs": [
        {
          "internalType": "bool",
          "name": "",
          "type": "bool"
        }
      ],
      "stateMutability": "nonpayable",
      "type": "function"
    },
    {
      "inputs": [
        {
          "internalType": "address",
          "name": "",
          "type": "address"
        }
      ],
      "name": "balanceOf",
      "outputs": [
        {
          "internalType": "uint256",
          "name": "",
          "type": "uint256"
        }
      ],
      "stateMutability": "view",
      "type": "function"
    },
    {
      "inputs": [
        {
          "internalType": "address",
          "name": "from",
          "type": "address"
        },
        {
          "internalType": "uint256",
          "name": "value",
          "type": "uint256"
        }
      ],
      "name": "burn",
      "outputs": [],
      "stateMutability": "nonpayable",
      "type": "function"
    },
    {
      "inputs": [],
      "name": "decimals",
      "outputs": [
        {
          "internalType": "uint8",
          "name": "",
          "type": "uint8"
        }
      ],
      "stateMutability": "view",
      "type": "function"
    },
    {
      "inputs": [
        {
          "internalType": "uint256",
          "name": "blockTimestamp",
          "type": "uint256"
        }
      ],
      "name": "getReserveAfterTwamm",
      "outputs": [
        {
          "internalType": "uint112",
          "name": "reserve0",
          "type": "uint112"
        },
        {
          "internalType": "uint112",
          "name": "reserve1",
          "type": "uint112"
        },
        {
          "internalType": "uint256",
          "name": "lastVirtualOrderTimestamp",
          "type": "uint256"
        },
        {
          "internalType": "uint112",
          "name": "_twammReserve0",
          "type": "uint112"
        },
        {
          "internalType": "uint112",
          "name": "_twammReserve1",
          "type": "uint112"
        }
      ],
      "stateMutability": "view",
      "type": "function"
    },
    {
      "inputs": [
        {
          "internalType": "address",
          "name": "to",
          "type": "address"
        },
        {
          "internalType": "uint256",
          "name": "value",
          "type": "uint256"
        }
      ],
      "name": "mint",
      "outputs": [],
      "stateMutability": "nonpayable",
      "type": "function"
    },
    {
      "inputs": [],
      "name": "name",
      "outputs": [
        {
          "internalType": "string",
          "name": "",
          "type": "string"
        }
      ],
      "stateMutability": "view",
      "type": "function"
    },
    {
      "inputs": [
        {
          "internalType": "address",
          "name": "",
          "type": "address"
        }
      ],
      "name": "nonces",
      "outputs": [
        {
          "internalType": "uint256",
          "name": "",
          "type": "uint256"
        }
      ],
      "stateMutability": "view",
      "type": "function"
    },
    {
      "inputs": [
        {
          "internalType": "address",
          "name": "owner",
          "type": "address"
        },
        {
          "internalType": "address",
          "name": "spender",
          "type": "address"
        },
        {
          "internalType": "uint256",
          "name": "value",
          "type": "uint256"
        },
        {
          "internalType": "uint256",
          "name": "deadline",
          "type": "uint256"
        },
        {
          "internalType": "uint8",
          "name": "v",
          "type": "uint8"
        },
        {
          "internalType": "bytes32",
          "name": "r",
          "type": "bytes32"
        },
        {
          "internalType": "bytes32",
          "name": "s",
          "type": "bytes32"
        }
      ],
      "name": "permit",
      "outputs": [],
      "stateMutability": "nonpayable",
      "type": "function"
    },
    {
      "inputs": [],
      "name": "symbol",
      "outputs": [
        {
          "internalType": "string",
          "name": "",
          "type": "string"
        }
      ],
      "stateMutability": "view",
      "type": "function"
    },
    {
      "inputs": [],
      "name": "token0",
      "outputs": [
        {
          "internalType": "address",
          "name": "",
          "type": "address"
        }
      ],
      "stateMutability": "view",
      "type": "function"
    },
    {
      "inputs": [],
      "name": "totalSupply",
      "outputs": [
        {
          "internalType": "uint256",
          "name": "",
          "type": "uint256"
        }
      ],
      "stateMutability": "view",
      "type": "function"
    },
    {
      "inputs": [
        {
          "internalType": "address",
          "name": "to",
          "type": "address"
        },
        {
          "internalType": "uint256",
          "name": "amount",
          "type": "uint256"
        }
      ],
      "name": "transfer",
      "outputs": [
        {
          "internalType": "bool",
          "name": "",
          "type": "bool"
        }
      ],
      "stateMutability": "nonpayable",
      "type": "function"
    },
    {
      "inputs": [
        {
          "internalType": "address",
          "name": "from",
          "type": "address"
        },
        {
          "internalType": "address",
          "name": "to",
          "type": "address"
        },
        {
          "internalType": "uint256",
          "name": "amount",
          "type": "uint256"
        }
      ],
      "name": "transferFrom",
      "outputs": [
        {
          "internalType": "bool",
          "name": "",
          "type": "bool"
        }
      ],
      "stateMutability": "nonpayable",
      "type": "function"
    }
  ],
  "bytecode": {
    "object": "0x60e06040523462000053575b6200002662000019620002c9565b94939093929192620003c9565b60405161157c62000817823960805181610610015260a05181610f9f015260c05181610fc6015261157c90f35b6200005c600080fd5b6200000b565b600080fd5b50634e487b7160e01b600052604160045260246000fd5b90601f01601f191681019081106001600160401b03821117620000a057604052565b620000aa62000067565b604052565b90620000c6620000be60405190565b92836200007e565b565b6001600160a01b031690565b90565b6001600160a01b0381165b036200006257565b90505190620000c682620000d7565b63ffffffff8116620000e2565b90505190620000c682620000f9565b801515620000e2565b90505190620000c68262000115565b6020906200014e906001600160401b0381116200015257601f01601f191690565b0190565b6200015c62000067565b601f01601f191690565b60005b8381106200017a5750506000910152565b818101518382015260200162000169565b929190620000c691620001a8620001a2836200012d565b620000af565b94828652602086019183820111156200016657620001c4600080fd5b62000166565b90620000d49181601f82011215620001e9575b6020815191016200018b565b620001f2600080fd5b620001dd565b60ff8116620000e2565b90505190620000c682620001f8565b9060c082820312620002ba575b6200022a8183620000ea565b926200023a826020850162000106565b92604091620000d462000250858585016200011e565b946200029281620002768160608801516001808b1b038111620002ab575b8801620001ca565b966001806080890151921b0381116200029c575b8601620001ca565b9360a00162000202565b620002a5600080fd5b6200028a565b620002b4600080fd5b6200026e565b620002c3600080fd5b6200021e565b620002ec62001d9380380380620002e081620000af565b92833981019062000211565b909192939495565b906001600160a01b03905b9181191691161790565b620000d490620000c8906001600160a01b031682565b620000d49062000309565b620000d4906200031f565b9062000349620000d462000351926200032a565b8254620002f4565b9055565b906001600160e01b03199060e01b620002ff565b6200037f620000d4620000d49263ffffffff1690565b63ffffffff1690565b906200039c620000d4620003519262000369565b825462000355565b9060ff90620002ff565b90620003c1620000d46200035192151590565b8254620003a4565b9293620003d99295919462000405565b620003e681600662000335565b50620003f481600762000388565b5062000402816008620003ae565b50565b90620000c6929162000620565b50634e487b7160e01b600052602260045260246000fd5b906001600283049216801562000450575b60208310146200044657565b620000c662000412565b91607f16916200043a565b9160001960089290920291821b911b620002ff565b620000d4620000d4620000d49290565b919062000495620000d4620003519362000470565b9083546200045b565b620000c69160009162000480565b818110620004b8575050565b80620004c860006001936200049e565b01620004ac565b9190601f8111620004df57505050565b620004f3620000c693600052602060002090565b906020601f84018190048301931062000517575b6020601f909101040190620004ac565b909150819062000507565b906200052c815190565b906001600160401b03821162000604575b62000555826200054e855462000429565b85620004cf565b602090601f831160011462000594576200035192916000918362000588575b5050600019600883021c1916906002021790565b01519050388062000574565b601f19831691620005aa85600052602060002090565b9260005b818110620005eb57509160029391856001969410620005d1575b50505002019055565b01516000196008601f8516021c19169055388080620005c8565b91936020600181928787015181550195019201620005ae565b6200060e62000067565b6200053d565b90620000c69162000522565b90620006326200063a92600062000614565b600162000614565b6080524660a0526200064b62000766565b60c052565b8054600093929162000670620006668362000429565b8085529360200190565b9160018116908115620006c757506001146200068b57505050565b6200069f9192939450600052602060002090565b916000925b818410620006b25750500190565b805484840152602090930192600101620006a4565b92949550505060ff1916825215156020020190565b90620000d49162000650565b90620000c66200070692620006fc60405190565b93848092620006dc565b03836200007e565b620000d490620006e8565b90959492620000c694620007506200075792620007496080966200074260a088019c6000890152565b6020870152565b6040850152565b6060830152565b01906001600160a01b03169052565b7f8b73c3c69bb8fe3d512ecc4cf759cc79239f7b179b0ffacaa9a75d522b39400f620008056200079760006200070e565b620007ab620007a4825190565b9160200190565b207fc89efdaa54c0f20c7adf612882df0950f5a951637e0307cdcb4c672f298b8bc692620007f846620007de306200032a565b90620007e960405190565b96879560208701958662000719565b908103825203826200007e565b62000812620007a4825190565b209056fe60806040526004361015610018575b610016600080fd5b005b60003560e01c806306fdde0314610158578063095ea7b31461014f5780630dfe16811461014657806318160ddd1461013d57806323b872dd14610134578063313ce5671461012b5780633644e5151461012257806340c10f191461011957806370a08231146101105780637ecebe001461010757806395d89b41146100fe5780639dc29fac146100f5578063a9059cbb146100ec578063bcaa64ea146100e3578063d505accf146100da5763dd62ed3e0361000e576100d56109ee565b61000e565b506100d5610975565b506100d56108ab565b506100d56107e2565b506100d56107ba565b506100d5610790565b506100d561075a565b506100d561071e565b506100d5610670565b506100d5610646565b506100d56105f9565b506100d56105ce565b506100d5610555565b506100d56104e2565b506100d56104a5565b506100d56103e2565b600080fd5b600091031261017157565b610179600080fd5b565b507f4e487b7100000000000000000000000000000000000000000000000000000000600052600060045260246000fd5b507f4e487b7100000000000000000000000000000000000000000000000000000000600052602260045260246000fd5b90600160028304921680156101fe575b60208310146101f657565b6101796101ab565b91607f16916101eb565b8054600093929161022561021b836101db565b8085529360200190565b9160018116908115610277575060011461023e57505050565b6102519192939450600052602060002090565b916000925b8184106102635750500190565b805484840152602090930192600101610256565b92949550505060ff1916825215156020020190565b9061029691610208565b90565b507f4e487b7100000000000000000000000000000000000000000000000000000000600052604160045260246000fd5b90601f017fffffffffffffffffffffffffffffffffffffffffffffffffffffffffffffffe016810190811067ffffffffffffffff82111761030957604052565b610311610299565b604052565b906101796103309261032760405190565b9384809261028c565b03836102c9565b61029691156103165761034861017b565b610316565b610296600080610337565b60005b83811061036b5750506000910152565b818101518382015260200161035b565b61039c6103a56020936103cd93610390815190565b80835293849260200190565b95869101610358565b601f017fffffffffffffffffffffffffffffffffffffffffffffffffffffffffffffffe01690565b0190565b60208082526102969291019061037b565b503461040f575b6103f4366004610166565b61040b6103ff61034d565b604051918291826103d1565b0390f35b610417600080fd5b6103e9565b73ffffffffffffffffffffffffffffffffffffffff1690565b73ffffffffffffffffffffffffffffffffffffffff81165b0361016157565b9050359061017982610435565b8061044d565b9050359061017982610461565b919061029690604084820312610498575b61048f8185610454565b93602001610467565b6104a0600080fd5b610485565b50346104d5575b61040b6104c36104bd366004610474565b90610a6f565b60405191829182901515815260200190565b6104dd600080fd5b6104ac565b5034610526575b6104f4366004610166565b61040b6104ff6114cd565b6040519182918273ffffffffffffffffffffffffffffffffffffffff909116815260200190565b61052e600080fd5b6104e9565b610296916008021c81565b906102969154610533565b6102966000600261053e565b5034610583575b610567366004610166565b61040b610572610549565b6040515b9182918290815260200190565b61058b600080fd5b61055c565b90916060828403126105c1575b6102966105aa8484610454565b936105b88160208601610454565b93604001610467565b6105c9600080fd5b61059d565b50346105ec575b61040b6104c36105e6366004610590565b91610b92565b6105f4600080fd5b6105d5565b5034610639575b61060b366004610166565b6040517f000000000000000000000000000000000000000000000000000000000000000060ff168152602090f35b610641600080fd5b610600565b5034610663575b610658366004610166565b61040b610572610f9d565b61066b600080fd5b61064d565b5034610690575b61068b610685366004610474565b90611399565b604051005b610698600080fd5b610677565b906102969160208183031215610454576106b5600080fd5b610454565b61041c6102966102969273ffffffffffffffffffffffffffffffffffffffff1690565b610296906106ba565b610296906106dd565b906106f9906106e6565b600052602052604060002090565b610296906107196003916000926106ef565b61053e565b503461073b575b61040b61057261073636600461069d565b610707565b610743600080fd5b610725565b610296906107196005916000926106ef565b5034610777575b61040b61057261077236600461069d565b610748565b61077f600080fd5b610761565b61029660006001610337565b50346107ad575b6107a2366004610166565b61040b6103ff610784565b6107b5600080fd5b610797565b50346107d5575b61068b6107cf366004610474565b90611160565b6107dd600080fd5b6107c1565b5034610800575b61040b6104c36107fa366004610474565b90610b26565b610808600080fd5b6107e9565b90610296916020818303121561046757610825600080fd5b610467565b909594926101799461087e6108959261087760809661086060a088019c60008901906dffffffffffffffffffffffffffff169052565b6dffffffffffffffffffffffffffff166020870152565b6040850152565b6dffffffffffffffffffffffffffff166060830152565b01906dffffffffffffffffffffffffffff169052565b50346108de575b61040b6108c86108c336600461080d565b611500565b916108d595939560405190565b9586958661082a565b6108e6600080fd5b6108b2565b60ff811661044d565b90503590610179826108eb565b60e081830312610968575b6109168282610454565b926109248360208401610454565b926109328160408501610467565b926109408260608301610467565b9261029661095184608085016108f4565b9361095f8160a08601610467565b9360c001610467565b610970600080fd5b61090c565b5034610996575b61068b61098a366004610901565b95949094939193610df6565b61099e600080fd5b61097c565b9190610296906040848203126109c7575b6109be8185610454565b93602001610454565b6109cf600080fd5b6109b4565b610719610296926109e96004936000946106ef565b6106ef565b5034610a0c575b61040b610572610a063660046109a3565b906109d4565b610a14600080fd5b6109f5565b907fffffffffffffffffffffffffffffffffffffffffffffffffffffffffffffffff905b9181191691161790565b6102966102966102969290565b90610a64610296610a6b92610a47565b8254610a19565b9055565b33610a8883610a83846109e98560046106ef565b610a54565b610ac8610abe610ab87f8c5be1e5ebec7d5bd14f71427d1e84f3dd0314c0f7b2291e5b200ac8c7c3b925936106e6565b936106e6565b9361057660405190565b0390a3600190565b6102969081565b6102969054610ad0565b507f4e487b7100000000000000000000000000000000000000000000000000000000600052601160045260246000fd5b91908203918211610b1e57565b610179610ae1565b33610b62610b558360036109e9610b3d86836106ef565b610b4f89610b4a83610ad7565b610b11565b90610a54565b610b4f856103cd83610ad7565b610ac8610abe610ab87fddf252ad1be2c89b69c2b068fc378daa952ba7f163c4a11628f55a4df523b3ef936106e6565b80836004610ba083826106ef565b610bb3610bae3380936106ef565b610ad7565b907fffffffffffffffffffffffffffffffffffffffffffffffffffffffffffffffff8203610bf8575b505050905050610b62610b558360036109e9610b3d86836106ef565b6109e9610c0d610c159584610a839550610b11565b9586946106ef565b508083388080610bdc565b15610c2757565b6040517f08c379a000000000000000000000000000000000000000000000000000000000815260206004820152601760248201527f5045524d49545f444541444c494e455f455850495245440000000000000000006044820152606490fd5b9194610cef610cf692989795610ce860a096610ccb6101799a610cae60c08a019e60008b0152565b73ffffffffffffffffffffffffffffffffffffffff166020890152565b73ffffffffffffffffffffffffffffffffffffffff166040870152565b6060850152565b6080830152565b0152565b6020809392610d37610d326103cd947f1901000000000000000000000000000000000000000000000000000000000000815260020190565b918252565b01918252565b610cf661017994610d66606094989795610d5c608086019a6000870152565b60ff166020850152565b6040830152565b506040513d6000823e3d90fd5b61041c6102966102969290565b61029690610d7a565b15610d9757565b6040517f08c379a000000000000000000000000000000000000000000000000000000000815260206004820152600e60248201527f494e56414c49445f5349474e45520000000000000000000000000000000000006044820152606490fd5b939094610ed78397610e82610eb86020978a610e8e8b60009a610e21610e194290565b861015610c20565b610e82610e2c610f9d565b957f6e71edae12b1b97f4d1f60370fef10105fa2faae0126114a169c64845d6126c992610e5a8560056106ef565b90610e71610e6783610ad7565b9260018401610b4f565b604051978896602088019687610c86565b908103825203826102c9565b610ea0610e99825190565b9160200190565b2090610eab60405190565b9384928b84019283610cfa565b610ec3610e99825190565b2092610ece60405190565b94859485610d3d565b838052039060015afa15610f90575b610f3983610a83846109e9610efd60005160001b90565b610f0a61041c6000610d87565b73ffffffffffffffffffffffffffffffffffffffff8216141580610f6e575b610f3290610d90565b60046106ef565b610f69610abe610ab87f8c5be1e5ebec7d5bd14f71427d1e84f3dd0314c0f7b2291e5b200ac8c7c3b925936106e6565b0390a3565b5073ffffffffffffffffffffffffffffffffffffffff81811690881614610f29565b610f98610d6d565b610ee6565b7f00000000000000000000000000000000000000000000000000000000000000004603610fe8577f000000000000000000000000000000000000000000000000000000000000000090565b6102966110d0565b8054600093929161100361021b836101db565b9160018116908115610277575060011461101c57505050565b61102f9192939450600052602060002090565b916000925b8184106110415750500190565b805484840152602090930192600101611034565b9061029691610ff0565b906101796103309261107060405190565b93848092611055565b6102969061105f565b90959492610179946110ad6110b4926108776080966110a660a088019c6000890152565b6020870152565b6060830152565b019073ffffffffffffffffffffffffffffffffffffffff169052565b7f8b73c3c69bb8fe3d512ecc4cf759cc79239f7b179b0ffacaa9a75d522b39400f6111516110fe6000611079565b611109610e99825190565b207fc89efdaa54c0f20c7adf612882df0950f5a951637e0307cdcb4c672f298b8bc692610e8246611139306106e6565b9061114360405190565b968795602087019586611082565b61115c610e99825190565b2090565b90610179916111806111738260036106ef565b610b4f84610b4a83610ad7565b61119c611195836111916002610ad7565b0390565b6002610a54565b6111a66000610d87565b90610f69610abe610ab87fddf252ad1be2c89b69c2b068fc378daa952ba7f163c4a11628f55a4df523b3ef936106e6565b507f4e487b7100000000000000000000000000000000000000000000000000000000600052601260045260246000fd5b8115611211570490565b6112196111d7565b0490565b81810292918115918404141715610b1e57565b61123d6102966102969290565b6dffffffffffffffffffffffffffff1690565b6102969061123d565b6102969054611250565b6dffffffffffffffffffffffffffff908116911601906dffffffffffffffffffffffffffff8211610b1e57565b906dffffffffffffffffffffffffffff90610a3d565b61123d610296610296926dffffffffffffffffffffffffffff1690565b906112d3610296610a6b926112a6565b8254611290565b6102969060701c61123d565b61029690546112da565b907bffffffffffffffffffffffffffff00000000000000000000000000009060701b610a3d565b90611327610296610a6b926112a6565b82546112f0565b61133b6102966102969290565b63ffffffff1690565b907fffffffff000000000000000000000000000000000000000000000000000000009060e01b610a3d565b61133b6102966102969263ffffffff1690565b90611392610296610a6b9261136f565b8254611344565b906101799161141561140e6114046113d96113bd6113b76014610a47565b87611207565b6113f46113ed6113de6113d96113d3600b610a47565b8561121d565b611230565b6113e86007611259565b611263565b60076112c3565b6113fe6009610a47565b9061121d565b6113e860076112e6565b6007611317565b61143161142c426114266001610a47565b90610b11565b61132e565b61143c816007611382565b5061144f565b91908201809211610b1e57565b611465611195836114606002610ad7565b611442565b6114806114738260036106ef565b610b4f846103cd83610ad7565b61148a6000610d87565b610f69610abe610ab87fddf252ad1be2c89b69c2b068fc378daa952ba7f163c4a11628f55a4df523b3ef936106e6565b6102969061041c565b61029690546114ba565b61029660066114c3565b6102969060e01c61133b565b61029690546114d7565b6102966102966102969263ffffffff1690565b5061150b6007611259565b61151560076112e6565b9161152060076114e3565b9161152b6007611259565b9161154161153960076112e6565b9295946114ed565b92919056fea264697066735822122055561d1e826011f2d9bbcfd02e64ca1c865d8f12e44116633f5b6d88eef9024764736f6c63430008110033",
    "linkReferences": {}
  },
  "methodIdentifiers": {
    "DOMAIN_SEPARATOR()": "3644e515",
    "allowance(address,address)": "dd62ed3e",
    "approve(address,uint256)": "095ea7b3",
    "balanceOf(address)": "70a08231",
    "burn(address,uint256)": "9dc29fac",
    "decimals()": "313ce567",
    "getReserveAfterTwamm(uint256)": "bcaa64ea",
    "mint(address,uint256)": "40c10f19",
    "name()": "06fdde03",
    "nonces(address)": "7ecebe00",
    "permit(address,address,uint256,uint256,uint8,bytes32,bytes32)": "d505accf",
    "symbol()": "95d89b41",
    "token0()": "0dfe1681",
    "totalSupply()": "18160ddd",
    "transfer(address,uint256)": "a9059cbb",
    "transferFrom(address,address,uint256)": "23b872dd"
  },
  "id": 92
}