{
  "abi": [
    {
      "inputs": [
        {
          "internalType": "string",
          "name": "_name",
          "type": "string"
        },
        {
          "internalType": "string",
          "name": "_symbol",
          "type": "string"
        },
        {
          "internalType": "uint8",
          "name": "_decimals",
          "type": "uint8"
        }
      ],
      "stateMutability": "nonpayable",
      "type": "constructor"
    },
    {
      "anonymous": false,
      "inputs": [
        {
          "indexed": true,
          "internalType": "address",
          "name": "owner",
          "type": "address"
        },
        {
          "indexed": true,
          "internalType": "address",
          "name": "spender",
          "type": "address"
        },
        {
          "indexed": false,
          "internalType": "uint256",
          "name": "amount",
          "type": "uint256"
        }
      ],
      "name": "Approval",
      "type": "event"
    },
    {
      "anonymous": false,
      "inputs": [
        {
          "indexed": true,
          "internalType": "address",
          "name": "from",
          "type": "address"
        },
        {
          "indexed": true,
          "internalType": "address",
          "name": "to",
          "type": "address"
        },
        {
          "indexed": false,
          "internalType": "uint256",
          "name": "amount",
          "type": "uint256"
        }
      ],
      "name": "Transfer",
      "type": "event"
    },
    {
      "inputs": [],
      "name": "DOMAIN_SEPARATOR",
      "outputs": [
        {
          "internalType": "bytes32",
          "name": "",
          "type": "bytes32"
        }
      ],
      "stateMutability": "view",
      "type": "function"
    },
    {
      "inputs": [
        {
          "internalType": "address",
          "name": "",
          "type": "address"
        },
        {
          "internalType": "address",
          "name": "",
          "type": "address"
        }
      ],
      "name": "allowance",
      "outputs": [
        {
          "internalType": "uint256",
          "name": "",
          "type": "uint256"
        }
      ],
      "stateMutability": "view",
      "type": "function"
    },
    {
      "inputs": [
        {
          "internalType": "address",
          "name": "spender",
          "type": "address"
        },
        {
          "internalType": "uint256",
          "name": "amount",
          "type": "uint256"
        }
      ],
      "name": "approve",
      "outputs": [
        {
          "internalType": "bool",
          "name": "",
          "type": "bool"
        }
      ],
      "stateMutability": "nonpayable",
      "type": "function"
    },
    {
      "inputs": [
        {
          "internalType": "address",
          "name": "",
          "type": "address"
        }
      ],
      "name": "balanceOf",
      "outputs": [
        {
          "internalType": "uint256",
          "name": "",
          "type": "uint256"
        }
      ],
      "stateMutability": "view",
      "type": "function"
    },
    {
      "inputs": [
        {
          "internalType": "address",
          "name": "from",
          "type": "address"
        },
        {
          "internalType": "uint256",
          "name": "value",
          "type": "uint256"
        }
      ],
      "name": "burn",
      "outputs": [],
      "stateMutability": "nonpayable",
      "type": "function"
    },
    {
      "inputs": [],
      "name": "decimals",
      "outputs": [
        {
          "internalType": "uint8",
          "name": "",
          "type": "uint8"
        }
      ],
      "stateMutability": "view",
      "type": "function"
    },
    {
      "inputs": [
        {
          "internalType": "address",
          "name": "to",
          "type": "address"
        },
        {
          "internalType": "uint256",
          "name": "value",
          "type": "uint256"
        }
      ],
      "name": "mint",
      "outputs": [],
      "stateMutability": "nonpayable",
      "type": "function"
    },
    {
      "inputs": [],
      "name": "name",
      "outputs": [
        {
          "internalType": "string",
          "name": "",
          "type": "string"
        }
      ],
      "stateMutability": "view",
      "type": "function"
    },
    {
      "inputs": [
        {
          "internalType": "address",
          "name": "",
          "type": "address"
        }
      ],
      "name": "nonces",
      "outputs": [
        {
          "internalType": "uint256",
          "name": "",
          "type": "uint256"
        }
      ],
      "stateMutability": "view",
      "type": "function"
    },
    {
      "inputs": [
        {
          "internalType": "address",
          "name": "owner",
          "type": "address"
        },
        {
          "internalType": "address",
          "name": "spender",
          "type": "address"
        },
        {
          "internalType": "uint256",
          "name": "value",
          "type": "uint256"
        },
        {
          "internalType": "uint256",
          "name": "deadline",
          "type": "uint256"
        },
        {
          "internalType": "uint8",
          "name": "v",
          "type": "uint8"
        },
        {
          "internalType": "bytes32",
          "name": "r",
          "type": "bytes32"
        },
        {
          "internalType": "bytes32",
          "name": "s",
          "type": "bytes32"
        }
      ],
      "name": "permit",
      "outputs": [],
      "stateMutability": "nonpayable",
      "type": "function"
    },
    {
      "inputs": [],
      "name": "symbol",
      "outputs": [
        {
          "internalType": "string",
          "name": "",
          "type": "string"
        }
      ],
      "stateMutability": "view",
      "type": "function"
    },
    {
      "inputs": [],
      "name": "totalSupply",
      "outputs": [
        {
          "internalType": "uint256",
          "name": "",
          "type": "uint256"
        }
      ],
      "stateMutability": "view",
      "type": "function"
    },
    {
      "inputs": [
        {
          "internalType": "address",
          "name": "to",
          "type": "address"
        },
        {
          "internalType": "uint256",
          "name": "amount",
          "type": "uint256"
        }
      ],
      "name": "transfer",
      "outputs": [
        {
          "internalType": "bool",
          "name": "",
          "type": "bool"
        }
      ],
      "stateMutability": "nonpayable",
      "type": "function"
    },
    {
      "inputs": [
        {
          "internalType": "address",
          "name": "from",
          "type": "address"
        },
        {
          "internalType": "address",
          "name": "to",
          "type": "address"
        },
        {
          "internalType": "uint256",
          "name": "amount",
          "type": "uint256"
        }
      ],
      "name": "transferFrom",
      "outputs": [
        {
          "internalType": "bool",
          "name": "",
          "type": "bool"
        }
      ],
      "stateMutability": "nonpayable",
      "type": "function"
    }
  ],
  "bytecode": {
    "object": "0x60e0604052346200004d575b620000206200001962000238565b9162000260565b60405161110a620006b4823960805181610597015260a05181610e13015260c05181610e3a015261110a90f35b62000056600080fd5b6200000b565b600080fd5b50634e487b7160e01b600052604160045260246000fd5b90601f01601f191681019081106001600160401b038211176200009a57604052565b620000a462000061565b604052565b90620000c0620000b860405190565b928362000078565b565b602090620000e3906001600160401b038111620000e757601f01601f191690565b0190565b620000f162000061565b601f01601f191690565b60005b8381106200010f5750506000910152565b8181015183820152602001620000fe565b929190620000c0916200013d6200013783620000c2565b620000a9565b9482865260208601918382011115620000fb5762000159600080fd5b620000fb565b906200017e9181601f8201121562000181575b60208151910162000120565b90565b6200018a600080fd5b62000172565b60ff8116036200005c57565b90505190620000c08262000190565b909160608284031262000229575b81516200017e90620001df9085906001600160401b0381116200021a575b85016200015f565b936200020181602086015160018060401b0381116200020b575b86016200015f565b936040016200019c565b62000214600080fd5b620001f9565b62000223600080fd5b620001d7565b62000232600080fd5b620001b9565b6200025b620017be803803806200024f81620000a9565b928339810190620001ab565b909192565b90620000c092916200047d565b50634e487b7160e01b600052602260045260246000fd5b9060016002830492168015620002ab575b6020831014620002a157565b620000c06200026d565b91607f169162000295565b6200017e6200017e6200017e9290565b9190620002db6200017e620002f793620002b6565b9083549160001960089290920291821b911b9181191691161790565b9055565b620000c091600091620002c6565b81811062000315575050565b80620003256000600193620002fb565b0162000309565b9190601f81116200033c57505050565b62000350620000c093600052602060002090565b906020601f84018190048301931062000374575b6020601f90910104019062000309565b909150819062000364565b9062000389815190565b906001600160401b03821162000461575b620003b282620003ab855462000284565b856200032c565b602090601f8311600114620003f157620002f7929160009183620003e5575b5050600019600883021c1916906002021790565b015190503880620003d1565b601f198316916200040785600052602060002090565b9260005b81811062000448575091600293918560019694106200042e575b50505002019055565b01516000196008601f8516021c1916905538808062000425565b919360206001819287870151815501950192016200040b565b6200046b62000061565b6200039a565b90620000c0916200037f565b906200048f6200049792600062000471565b600162000471565b6080524660a052620004a862000603565b60c052565b80546000939291620004cd620004c38362000284565b8085529360200190565b9160018116908115620005245750600114620004e857505050565b620004fc9192939450600052602060002090565b916000925b8184106200050f5750500190565b80548484015260209093019260010162000501565b92949550505060ff1916825215156020020190565b906200017e91620004ad565b90620000c062000563926200055960405190565b9384809262000539565b038362000078565b6200017e9062000545565b6200017e906200058c906001600160a01b031682565b6001600160a01b031690565b6200017e9062000576565b6200017e9062000598565b9052565b620005ae906200058c565b90959492620000c094620005f4620005fb92620005ed608096620005e660a088019c6000890152565b6020870152565b6040850152565b6060830152565b0190620005b2565b7f8b73c3c69bb8fe3d512ecc4cf759cc79239f7b179b0ffacaa9a75d522b39400f620006a26200063460006200056b565b6200064862000641825190565b9160200190565b207fc89efdaa54c0f20c7adf612882df0950f5a951637e0307cdcb4c672f298b8bc69262000695466200067b30620005a3565b906200068660405190565b968795602087019586620005bd565b9081038252038262000078565b620006af62000641825190565b209056fe60806040526004361015610018575b610016600080fd5b005b60003560e01c806306fdde0314610130578063095ea7b31461012757806318160ddd1461011e57806323b872dd14610115578063313ce5671461010c5780633644e5151461010357806340c10f19146100fa57806370a08231146100f15780637ecebe00146100e857806395d89b41146100df5780639dc29fac146100d6578063a9059cbb146100cd578063d505accf146100c45763dd62ed3e0361000e576100bf610897565b61000e565b506100bf61081e565b506100bf610769565b506100bf610741565b506100bf610717565b506100bf6106e1565b506100bf6106a5565b506100bf6105f7565b506100bf6105cd565b506100bf610580565b506100bf610555565b506100bf6104dc565b506100bf61047d565b506100bf6103ba565b600080fd5b600091031261014957565b610151600080fd5b565b507f4e487b7100000000000000000000000000000000000000000000000000000000600052600060045260246000fd5b507f4e487b7100000000000000000000000000000000000000000000000000000000600052602260045260246000fd5b90600160028304921680156101d6575b60208310146101ce57565b610151610183565b91607f16916101c3565b805460009392916101fd6101f3836101b3565b8085529360200190565b916001811690811561024f575060011461021657505050565b6102299192939450600052602060002090565b916000925b81841061023b5750500190565b80548484015260209093019260010161022e565b92949550505060ff1916825215156020020190565b9061026e916101e0565b90565b507f4e487b7100000000000000000000000000000000000000000000000000000000600052604160045260246000fd5b90601f017fffffffffffffffffffffffffffffffffffffffffffffffffffffffffffffffe016810190811067ffffffffffffffff8211176102e157604052565b6102e9610271565b604052565b90610151610308926102ff60405190565b93848092610264565b03836102a1565b61026e91156102ee57610320610153565b6102ee565b61026e60008061030f565b60005b8381106103435750506000910152565b8181015183820152602001610333565b61037461037d6020936103a593610368815190565b80835293849260200190565b95869101610330565b601f017fffffffffffffffffffffffffffffffffffffffffffffffffffffffffffffffe01690565b0190565b602080825261026e92910190610353565b50346103e7575b6103cc36600461013e565b6103e36103d7610325565b604051918291826103a9565b0390f35b6103ef600080fd5b6103c1565b73ffffffffffffffffffffffffffffffffffffffff1690565b73ffffffffffffffffffffffffffffffffffffffff81165b0361013957565b905035906101518261040d565b80610425565b9050359061015182610439565b919061026e90604084820312610470575b610467818561042c565b9360200161043f565b610478600080fd5b61045d565b50346104ad575b6103e361049b61049536600461044c565b906108e3565b60405191829182901515815260200190565b6104b5600080fd5b610484565b61026e916008021c81565b9061026e91546104ba565b61026e600060026104c5565b503461050a575b6104ee36600461013e565b6103e36104f96104d0565b6040515b9182918290815260200190565b610512600080fd5b6104e3565b9091606082840312610548575b61026e610531848461042c565b9361053f816020860161042c565b9360400161043f565b610550600080fd5b610524565b5034610573575b6103e361049b61056d366004610517565b91610a06565b61057b600080fd5b61055c565b50346105c0575b61059236600461013e565b6040517f000000000000000000000000000000000000000000000000000000000000000060ff168152602090f35b6105c8600080fd5b610587565b50346105ea575b6105df36600461013e565b6103e36104f9610e11565b6105f2600080fd5b6105d4565b5034610617575b61061261060c36600461044c565b90610fdb565b604051005b61061f600080fd5b6105fe565b9061026e916020818303121561042c5761063c600080fd5b61042c565b6103f461026e61026e9273ffffffffffffffffffffffffffffffffffffffff1690565b61026e90610641565b61026e90610664565b906106809061066d565b600052602052604060002090565b61026e906106a0600391600092610676565b6104c5565b50346106c2575b6103e36104f96106bd366004610624565b61068e565b6106ca600080fd5b6106ac565b61026e906106a0600591600092610676565b50346106fe575b6103e36104f96106f9366004610624565b6106cf565b610706600080fd5b6106e8565b61026e6000600161030f565b5034610734575b61072936600461013e565b6103e36103d761070b565b61073c600080fd5b61071e565b503461075c575b61061261075636600461044c565b90611064565b610764600080fd5b610748565b5034610787575b6103e361049b61078136600461044c565b9061099a565b61078f600080fd5b610770565b60ff8116610425565b9050359061015182610794565b60e081830312610811575b6107bf828261042c565b926107cd836020840161042c565b926107db816040850161043f565b926107e9826060830161043f565b9261026e6107fa846080850161079d565b936108088160a0860161043f565b9360c00161043f565b610819600080fd5b6107b5565b503461083f575b6106126108333660046107aa565b95949094939193610c6a565b610847600080fd5b610825565b919061026e90604084820312610870575b610867818561042c565b9360200161042c565b610878600080fd5b61085d565b6106a061026e92610892600493600094610676565b610676565b50346108b5575b6103e36104f96108af36600461084c565b9061087d565b6108bd600080fd5b61089e565b61026e61026e61026e9290565b9061026e61026e6108df926108c2565b9055565b336108fc836108f784610892856004610676565b6108cf565b61093c61093261092c7f8c5be1e5ebec7d5bd14f71427d1e84f3dd0314c0f7b2291e5b200ac8c7c3b9259361066d565b9361066d565b936104fd60405190565b0390a3600190565b61026e9081565b61026e9054610944565b507f4e487b7100000000000000000000000000000000000000000000000000000000600052601160045260246000fd5b9190820391821161099257565b610151610955565b336109d66109c98360036108926109b18683610676565b6109c3896109be8361094b565b610985565b906108cf565b6109c3856103a58361094b565b61093c61093261092c7fddf252ad1be2c89b69c2b068fc378daa952ba7f163c4a11628f55a4df523b3ef9361066d565b80836004610a148382610676565b610a27610a22338093610676565b61094b565b907fffffffffffffffffffffffffffffffffffffffffffffffffffffffffffffffff8203610a6c575b5050509050506109d66109c98360036108926109b18683610676565b610892610a81610a8995846108f79550610985565b958694610676565b508083388080610a50565b15610a9b57565b6040517f08c379a000000000000000000000000000000000000000000000000000000000815260206004820152601760248201527f5045524d49545f444541444c494e455f455850495245440000000000000000006044820152606490fd5b9194610b63610b6a92989795610b5c60a096610b3f6101519a610b2260c08a019e60008b0152565b73ffffffffffffffffffffffffffffffffffffffff166020890152565b73ffffffffffffffffffffffffffffffffffffffff166040870152565b6060850152565b6080830152565b0152565b6020809392610bab610ba66103a5947f1901000000000000000000000000000000000000000000000000000000000000815260020190565b918252565b01918252565b610b6a61015194610bda606094989795610bd0608086019a6000870152565b60ff166020850152565b6040830152565b506040513d6000823e3d90fd5b6103f461026e61026e9290565b61026e90610bee565b15610c0b57565b6040517f08c379a000000000000000000000000000000000000000000000000000000000815260206004820152600e60248201527f494e56414c49445f5349474e45520000000000000000000000000000000000006044820152606490fd5b939094610d4b8397610cf6610d2c6020978a610d028b60009a610c95610c8d4290565b861015610a94565b610cf6610ca0610e11565b957f6e71edae12b1b97f4d1f60370fef10105fa2faae0126114a169c64845d6126c992610cce856005610676565b90610ce5610cdb8361094b565b92600184016109c3565b604051978896602088019687610afa565b908103825203826102a1565b610d14610d0d825190565b9160200190565b2090610d1f60405190565b9384928b84019283610b6e565b610d37610d0d825190565b2092610d4260405190565b94859485610bb1565b838052039060015afa15610e04575b610dad836108f784610892610d7160005160001b90565b610d7e6103f46000610bfb565b73ffffffffffffffffffffffffffffffffffffffff8216141580610de2575b610da690610c04565b6004610676565b610ddd61093261092c7f8c5be1e5ebec7d5bd14f71427d1e84f3dd0314c0f7b2291e5b200ac8c7c3b9259361066d565b0390a3565b5073ffffffffffffffffffffffffffffffffffffffff81811690881614610d9d565b610e0c610be1565b610d5a565b7f00000000000000000000000000000000000000000000000000000000000000004603610e5c577f000000000000000000000000000000000000000000000000000000000000000090565b61026e610f4b565b80546000939291610e776101f3836101b3565b916001811690811561024f5750600114610e9057505050565b610ea39192939450600052602060002090565b916000925b818410610eb55750500190565b805484840152602090930192600101610ea8565b9061026e91610e64565b9061015161030892610ee460405190565b93848092610ec9565b61026e90610ed3565b9095949261015194610f28610f2f92610f21608096610f1a60a088019c6000890152565b6020870152565b6040850152565b6060830152565b019073ffffffffffffffffffffffffffffffffffffffff169052565b7f8b73c3c69bb8fe3d512ecc4cf759cc79239f7b179b0ffacaa9a75d522b39400f610fcc610f796000610eed565b610f84610d0d825190565b207fc89efdaa54c0f20c7adf612882df0950f5a951637e0307cdcb4c672f298b8bc692610cf646610fb43061066d565b90610fbe60405190565b968795602087019586610ef6565b610fd7610d0d825190565b2090565b9061015191610ff2565b9190820180921161099257565b61100f61100883611003600261094b565b610fe5565b60026108cf565b61102a61101d826003610676565b6109c3846103a58361094b565b6110346000610bfb565b610ddd61093261092c7fddf252ad1be2c89b69c2b068fc378daa952ba7f163c4a11628f55a4df523b3ef9361066d565b9061015191611084611077826003610676565b6109c3846109be8361094b565b61109961100883611095600261094b565b0390565b6110a36000610bfb565b90610ddd61093261092c7fddf252ad1be2c89b69c2b068fc378daa952ba7f163c4a11628f55a4df523b3ef9361066d56fea2646970667358221220ee37de693c4aacb4540edc1a21d7a82a5418a728586941dfa231871b96c70c0c64736f6c63430008110033",
    "linkReferences": {}
  },
  "methodIdentifiers": {
    "DOMAIN_SEPARATOR()": "3644e515",
    "allowance(address,address)": "dd62ed3e",
    "approve(address,uint256)": "095ea7b3",
    "balanceOf(address)": "70a08231",
    "burn(address,uint256)": "9dc29fac",
    "decimals()": "313ce567",
    "mint(address,uint256)": "40c10f19",
    "name()": "06fdde03",
    "nonces(address)": "7ecebe00",
    "permit(address,address,uint256,uint256,uint8,bytes32,bytes32)": "d505accf",
    "symbol()": "95d89b41",
    "totalSupply()": "18160ddd",
    "transfer(address,uint256)": "a9059cbb",
    "transferFrom(address,address,uint256)": "23b872dd"
  },
  "id": 45
}