{
  "abi": [
    {
      "inputs": [
        {
          "internalType": "address",
          "name": "_owner",
          "type": "address"
        },
        {
          "internalType": "address[]",
          "name": "_rewardTokens",
          "type": "address[]"
        },
        {
          "internalType": "address[]",
          "name": "_rewardManagers",
          "type": "address[]"
        },
        {
          "internalType": "uint256[]",
          "name": "_rewardRatesManual",
          "type": "uint256[]"
        },
        {
          "internalType": "address[]",
          "name": "_gaugeControllers",
          "type": "address[]"
        },
        {
          "internalType": "address[]",
          "name": "_rewardDistributors",
          "type": "address[]"
        },
        {
          "internalType": "address",
          "name": "_stakingToken",
          "type": "address"
        }
      ],
      "stateMutability": "nonpayable",
      "type": "constructor"
    },
    {
      "inputs": [],
      "name": "AllowanceIsZero",
      "type": "error"
    },
    {
      "inputs": [],
      "name": "CannotBeZero",
      "type": "error"
    },
    {
      "inputs": [],
      "name": "CannotShortenLockTime",
      "type": "error"
    },
    {
      "inputs": [],
      "name": "InsufficientAllowance",
      "type": "error"
    },
    {
      "inputs": [],
      "name": "InvalidAmount",
      "type": "error"
    },
    {
      "inputs": [],
      "name": "InvalidChainlinkPrice",
      "type": "error"
    },
    {
      "inputs": [],
      "name": "InvalidReceiver",
      "type": "error"
    },
    {
      "inputs": [],
      "name": "MinimumStakeTimeNotMet",
      "type": "error"
    },
    {
      "inputs": [],
      "name": "MustBeInTheFuture",
      "type": "error"
    },
    {
      "inputs": [],
      "name": "MustBePositive",
      "type": "error"
    },
    {
      "inputs": [],
      "name": "StakerNotFound",
      "type": "error"
    },
    {
      "inputs": [],
      "name": "StakesUnlocked",
      "type": "error"
    },
    {
      "inputs": [],
      "name": "StakingPaused",
      "type": "error"
    },
    {
      "inputs": [
        {
          "internalType": "address",
          "name": "spender",
          "type": "address"
        },
        {
          "internalType": "bytes32",
          "name": "kek_id",
          "type": "bytes32"
        }
      ],
      "name": "TransferLockNotAllowed",
      "type": "error"
    },
    {
      "inputs": [],
      "name": "TryingToLockForTooLong",
      "type": "error"
    },
    {
      "inputs": [],
      "name": "WithdrawalsPaused",
      "type": "error"
    },
    {
      "anonymous": false,
      "inputs": [
        {
          "indexed": true,
          "internalType": "address",
          "name": "staker",
          "type": "address"
        },
        {
          "indexed": true,
          "internalType": "address",
          "name": "spender",
          "type": "address"
        },
        {
          "indexed": true,
          "internalType": "bytes32",
          "name": "kek_id",
          "type": "bytes32"
        },
        {
          "indexed": false,
          "internalType": "uint256",
          "name": "amount",
          "type": "uint256"
        }
      ],
      "name": "Approval",
      "type": "event"
    },
    {
      "anonymous": false,
      "inputs": [
        {
          "indexed": true,
          "internalType": "address",
          "name": "owner",
          "type": "address"
        },
        {
          "indexed": true,
          "internalType": "address",
          "name": "spender",
          "type": "address"
        },
        {
          "indexed": false,
          "internalType": "bool",
          "name": "approved",
          "type": "bool"
        }
      ],
      "name": "ApprovalForAll",
      "type": "event"
    },
    {
      "anonymous": false,
      "inputs": [
        {
          "indexed": true,
          "internalType": "address",
          "name": "user",
          "type": "address"
        },
        {
          "indexed": false,
          "internalType": "bytes32",
          "name": "kek_id",
          "type": "bytes32"
        },
        {
          "indexed": false,
          "internalType": "uint256",
          "name": "amount",
          "type": "uint256"
        }
      ],
      "name": "LockedAdditional",
      "type": "event"
    },
    {
      "anonymous": false,
      "inputs": [
        {
          "indexed": true,
          "internalType": "address",
          "name": "user",
          "type": "address"
        },
        {
          "indexed": false,
          "internalType": "bytes32",
          "name": "kek_id",
          "type": "bytes32"
        },
        {
          "indexed": false,
          "internalType": "uint256",
          "name": "new_secs",
          "type": "uint256"
        },
        {
          "indexed": false,
          "internalType": "uint256",
          "name": "new_start_ts",
          "type": "uint256"
        },
        {
          "indexed": false,
          "internalType": "uint256",
          "name": "new_end_ts",
          "type": "uint256"
        }
      ],
      "name": "LockedLonger",
      "type": "event"
    },
    {
      "anonymous": false,
      "inputs": [
        {
          "indexed": false,
          "internalType": "address",
          "name": "oldOwner",
          "type": "address"
        },
        {
          "indexed": false,
          "internalType": "address",
          "name": "newOwner",
          "type": "address"
        }
      ],
      "name": "OwnerChanged",
      "type": "event"
    },
    {
      "anonymous": false,
      "inputs": [
        {
          "indexed": false,
          "internalType": "address",
          "name": "newOwner",
          "type": "address"
        }
      ],
      "name": "OwnerNominated",
      "type": "event"
    },
    {
      "anonymous": false,
      "inputs": [
        {
          "indexed": true,
          "internalType": "address",
          "name": "user",
          "type": "address"
        },
        {
          "indexed": false,
          "internalType": "uint256",
          "name": "amount",
          "type": "uint256"
        },
        {
          "indexed": false,
          "internalType": "address",
          "name": "token_address",
          "type": "address"
        },
        {
          "indexed": false,
          "internalType": "address",
          "name": "destination_address",
          "type": "address"
        }
      ],
      "name": "RewardPaid",
      "type": "event"
    },
    {
      "anonymous": false,
      "inputs": [
        {
          "indexed": true,
          "internalType": "address",
          "name": "user",
          "type": "address"
        },
        {
          "indexed": false,
          "internalType": "uint256",
          "name": "amount",
          "type": "uint256"
        },
        {
          "indexed": false,
          "internalType": "uint256",
          "name": "secs",
          "type": "uint256"
        },
        {
          "indexed": false,
          "internalType": "bytes32",
          "name": "kek_id",
          "type": "bytes32"
        },
        {
          "indexed": false,
          "internalType": "address",
          "name": "source_address",
          "type": "address"
        }
      ],
      "name": "StakeLocked",
      "type": "event"
    },
    {
      "anonymous": false,
      "inputs": [
        {
          "indexed": true,
          "internalType": "address",
          "name": "sender_address",
          "type": "address"
        },
        {
          "indexed": true,
          "internalType": "address",
          "name": "destination_address",
          "type": "address"
        },
        {
          "indexed": false,
          "internalType": "uint256",
          "name": "amount_transferred",
          "type": "uint256"
        },
        {
          "indexed": false,
          "internalType": "bytes32",
          "name": "source_kek_id",
          "type": "bytes32"
        },
        {
          "indexed": false,
          "internalType": "bytes32",
          "name": "destination_kek_id",
          "type": "bytes32"
        }
      ],
      "name": "TransferLocked",
      "type": "event"
    },
    {
      "anonymous": false,
      "inputs": [
        {
          "indexed": true,
          "internalType": "address",
          "name": "user",
          "type": "address"
        },
        {
          "indexed": false,
          "internalType": "uint256",
          "name": "liquidity",
          "type": "uint256"
        },
        {
          "indexed": false,
          "internalType": "bytes32",
          "name": "kek_id",
          "type": "bytes32"
        },
        {
          "indexed": false,
          "internalType": "address",
          "name": "destination_address",
          "type": "address"
        }
      ],
      "name": "WithdrawLocked",
      "type": "event"
    },
    {
      "inputs": [],
      "name": "acceptOwnership",
      "outputs": [],
      "stateMutability": "nonpayable",
      "type": "function"
    },
    {
      "inputs": [
        {
          "internalType": "address",
          "name": "account",
          "type": "address"
        }
      ],
      "name": "calcCurCombinedWeight",
      "outputs": [
        {
          "internalType": "uint256",
          "name": "old_combined_weight",
          "type": "uint256"
        },
        {
          "internalType": "uint256",
          "name": "new_vefxs_multiplier",
          "type": "uint256"
        },
        {
          "internalType": "uint256",
          "name": "new_combined_weight",
          "type": "uint256"
        }
      ],
      "stateMutability": "view",
      "type": "function"
    },
    {
      "inputs": [
        {
          "internalType": "address",
          "name": "account",
          "type": "address"
        },
        {
          "internalType": "uint256",
          "name": "stake_idx",
          "type": "uint256"
        }
      ],
      "name": "calcCurrLockMultiplier",
      "outputs": [
        {
          "internalType": "uint256",
          "name": "midpoint_lock_multiplier",
          "type": "uint256"
        }
      ],
      "stateMutability": "view",
      "type": "function"
    },
    {
      "inputs": [
        {
          "internalType": "address",
          "name": "reward_token_address",
          "type": "address"
        },
        {
          "internalType": "address",
          "name": "new_manager_address",
          "type": "address"
        }
      ],
      "name": "changeTokenManager",
      "outputs": [],
      "stateMutability": "nonpayable",
      "type": "function"
    },
    {
      "inputs": [
        {
          "internalType": "address",
          "name": "account",
          "type": "address"
        }
      ],
      "name": "combinedWeightOf",
      "outputs": [
        {
          "internalType": "uint256",
          "name": "",
          "type": "uint256"
        }
      ],
      "stateMutability": "view",
      "type": "function"
    },
    {
      "inputs": [],
      "name": "curvePool",
      "outputs": [
        {
          "internalType": "contract ICurvefrxETHETHPool",
          "name": "",
          "type": "address"
        }
      ],
      "stateMutability": "view",
      "type": "function"
    },
    {
      "inputs": [],
      "name": "curveToken",
      "outputs": [
        {
          "internalType": "contract I2poolToken",
          "name": "",
          "type": "address"
        }
      ],
      "stateMutability": "view",
      "type": "function"
    },
    {
      "inputs": [
        {
          "internalType": "address",
          "name": "account",
          "type": "address"
        }
      ],
      "name": "earned",
      "outputs": [
        {
          "internalType": "uint256[]",
          "name": "new_earned",
          "type": "uint256[]"
        }
      ],
      "stateMutability": "view",
      "type": "function"
    },
    {
      "inputs": [],
      "name": "fraxPerLPStored",
      "outputs": [
        {
          "internalType": "uint256",
          "name": "",
          "type": "uint256"
        }
      ],
      "stateMutability": "view",
      "type": "function"
    },
    {
      "inputs": [],
      "name": "fraxPerLPToken",
      "outputs": [
        {
          "internalType": "uint256",
          "name": "",
          "type": "uint256"
        }
      ],
      "stateMutability": "view",
      "type": "function"
    },
    {
      "inputs": [],
      "name": "getAllRewardTokens",
      "outputs": [
        {
          "internalType": "address[]",
          "name": "",
          "type": "address[]"
        }
      ],
      "stateMutability": "view",
      "type": "function"
    },
    {
      "inputs": [],
      "name": "getLatestETHPriceE8",
      "outputs": [
        {
          "internalType": "int256",
          "name": "",
          "type": "int256"
        }
      ],
      "stateMutability": "view",
      "type": "function"
    },
    {
      "inputs": [
        {
          "internalType": "address",
          "name": "addr",
          "type": "address"
        }
      ],
      "name": "getProxyFor",
      "outputs": [
        {
          "internalType": "address",
          "name": "",
          "type": "address"
        }
      ],
      "stateMutability": "view",
      "type": "function"
    },
    {
      "inputs": [
        {
          "internalType": "address",
          "name": "destination_address",
          "type": "address"
        }
      ],
      "name": "getReward",
      "outputs": [
        {
          "internalType": "uint256[]",
          "name": "",
          "type": "uint256[]"
        }
      ],
      "stateMutability": "nonpayable",
      "type": "function"
    },
    {
      "inputs": [
        {
          "internalType": "address",
          "name": "destination_address",
          "type": "address"
        },
        {
          "internalType": "bool",
          "name": "claim_extra_too",
          "type": "bool"
        }
      ],
      "name": "getReward2",
      "outputs": [
        {
          "internalType": "uint256[]",
          "name": "",
          "type": "uint256[]"
        }
      ],
      "stateMutability": "nonpayable",
      "type": "function"
    },
    {
      "inputs": [
        {
          "internalType": "address",
          "name": "destination_address",
          "type": "address"
        }
      ],
      "name": "getRewardExtraLogic",
      "outputs": [],
      "stateMutability": "nonpayable",
      "type": "function"
    },
    {
      "inputs": [],
      "name": "getRewardForDuration",
      "outputs": [
        {
          "internalType": "uint256[]",
          "name": "rewards_per_duration_arr",
          "type": "uint256[]"
        }
      ],
      "stateMutability": "view",
      "type": "function"
    },
    {
      "inputs": [
        {
          "internalType": "address",
          "name": "staker_address",
          "type": "address"
        },
        {
          "internalType": "bytes32",
          "name": "kek_id",
          "type": "bytes32"
        }
      ],
      "name": "getStake",
      "outputs": [
        {
          "internalType": "uint256",
          "name": "arr_idx",
          "type": "uint256"
        }
      ],
      "stateMutability": "view",
      "type": "function"
    },
    {
      "inputs": [
        {
          "internalType": "address",
          "name": "spender",
          "type": "address"
        },
        {
          "internalType": "bytes32",
          "name": "kek_id",
          "type": "bytes32"
        },
        {
          "internalType": "uint256",
          "name": "amount",
          "type": "uint256"
        }
      ],
      "name": "increaseAllowance",
      "outputs": [],
      "stateMutability": "nonpayable",
      "type": "function"
    },
    {
      "inputs": [
        {
          "internalType": "address",
          "name": "staker",
          "type": "address"
        },
        {
          "internalType": "bytes32",
          "name": "kek_id",
          "type": "bytes32"
        },
        {
          "internalType": "uint256",
          "name": "amount",
          "type": "uint256"
        }
      ],
      "name": "isApproved",
      "outputs": [
        {
          "internalType": "bool",
          "name": "",
          "type": "bool"
        }
      ],
      "stateMutability": "view",
      "type": "function"
    },
    {
      "inputs": [
        {
          "internalType": "address",
          "name": "caller_addr",
          "type": "address"
        },
        {
          "internalType": "address",
          "name": "reward_token_addr",
          "type": "address"
        }
      ],
      "name": "isTokenManagerFor",
      "outputs": [
        {
          "internalType": "bool",
          "name": "",
          "type": "bool"
        }
      ],
      "stateMutability": "view",
      "type": "function"
    },
    {
      "inputs": [
        {
          "internalType": "address",
          "name": "",
          "type": "address"
        },
        {
          "internalType": "bytes32",
          "name": "",
          "type": "bytes32"
        },
        {
          "internalType": "address",
          "name": "",
          "type": "address"
        }
      ],
      "name": "kekAllowance",
      "outputs": [
        {
          "internalType": "uint256",
          "name": "",
          "type": "uint256"
        }
      ],
      "stateMutability": "view",
      "type": "function"
    },
    {
      "inputs": [
        {
          "internalType": "address",
          "name": "",
          "type": "address"
        }
      ],
      "name": "lastRewardClaimTime",
      "outputs": [
        {
          "internalType": "uint256",
          "name": "",
          "type": "uint256"
        }
      ],
      "stateMutability": "view",
      "type": "function"
    },
    {
      "inputs": [],
      "name": "lastUpdateTime",
      "outputs": [
        {
          "internalType": "uint256",
          "name": "",
          "type": "uint256"
        }
      ],
      "stateMutability": "view",
      "type": "function"
    },
    {
      "inputs": [
        {
          "internalType": "bytes32",
          "name": "kek_id",
          "type": "bytes32"
        },
        {
          "internalType": "uint256",
          "name": "addl_liq",
          "type": "uint256"
        }
      ],
      "name": "lockAdditional",
      "outputs": [],
      "stateMutability": "nonpayable",
      "type": "function"
    },
    {
      "inputs": [
        {
          "internalType": "bytes32",
          "name": "kek_id",
          "type": "bytes32"
        },
        {
          "internalType": "uint256",
          "name": "new_ending_ts",
          "type": "uint256"
        }
      ],
      "name": "lockLonger",
      "outputs": [],
      "stateMutability": "nonpayable",
      "type": "function"
    },
    {
      "inputs": [
        {
          "internalType": "uint256",
          "name": "secs",
          "type": "uint256"
        }
      ],
      "name": "lockMultiplier",
      "outputs": [
        {
          "internalType": "uint256",
          "name": "",
          "type": "uint256"
        }
      ],
      "stateMutability": "view",
      "type": "function"
    },
    {
      "inputs": [],
      "name": "lock_max_multiplier",
      "outputs": [
        {
          "internalType": "uint256",
          "name": "",
          "type": "uint256"
        }
      ],
      "stateMutability": "view",
      "type": "function"
    },
    {
      "inputs": [],
      "name": "lock_time_for_max_multiplier",
      "outputs": [
        {
          "internalType": "uint256",
          "name": "",
          "type": "uint256"
        }
      ],
      "stateMutability": "view",
      "type": "function"
    },
    {
      "inputs": [],
      "name": "lock_time_min",
      "outputs": [
        {
          "internalType": "uint256",
          "name": "",
          "type": "uint256"
        }
      ],
      "stateMutability": "view",
      "type": "function"
    },
    {
      "inputs": [
        {
          "internalType": "address",
          "name": "account",
          "type": "address"
        }
      ],
      "name": "lockedLiquidityOf",
      "outputs": [
        {
          "internalType": "uint256",
          "name": "",
          "type": "uint256"
        }
      ],
      "stateMutability": "view",
      "type": "function"
    },
    {
      "inputs": [
        {
          "internalType": "address",
          "name": "",
          "type": "address"
        },
        {
          "internalType": "uint256",
          "name": "",
          "type": "uint256"
        }
      ],
      "name": "lockedStakes",
      "outputs": [
        {
          "internalType": "bytes32",
          "name": "kek_id",
          "type": "bytes32"
        },
        {
          "internalType": "uint256",
          "name": "start_timestamp",
          "type": "uint256"
        },
        {
          "internalType": "uint256",
          "name": "liquidity",
          "type": "uint256"
        },
        {
          "internalType": "uint256",
          "name": "ending_timestamp",
          "type": "uint256"
        },
        {
          "internalType": "uint256",
          "name": "lock_multiplier",
          "type": "uint256"
        }
      ],
      "stateMutability": "view",
      "type": "function"
    },
    {
      "inputs": [
        {
          "internalType": "address",
          "name": "account",
          "type": "address"
        }
      ],
      "name": "lockedStakesOf",
      "outputs": [
        {
          "components": [
            {
              "internalType": "bytes32",
              "name": "kek_id",
              "type": "bytes32"
            },
            {
              "internalType": "uint256",
              "name": "start_timestamp",
              "type": "uint256"
            },
            {
              "internalType": "uint256",
              "name": "liquidity",
              "type": "uint256"
            },
            {
              "internalType": "uint256",
              "name": "ending_timestamp",
              "type": "uint256"
            },
            {
              "internalType": "uint256",
              "name": "lock_multiplier",
              "type": "uint256"
            }
          ],
          "internalType": "struct FraxUnifiedFarm_ERC20.LockedStake[]",
          "name": "",
          "type": "tuple[]"
        }
      ],
      "stateMutability": "view",
      "type": "function"
    },
    {
      "inputs": [
        {
          "internalType": "address",
          "name": "account",
          "type": "address"
        }
      ],
      "name": "lockedStakesOfLength",
      "outputs": [
        {
          "internalType": "uint256",
          "name": "",
          "type": "uint256"
        }
      ],
      "stateMutability": "view",
      "type": "function"
    },
    {
      "inputs": [
        {
          "internalType": "address",
          "name": "account",
          "type": "address"
        }
      ],
      "name": "maxLPForMaxBoost",
      "outputs": [
        {
          "internalType": "uint256",
          "name": "",
          "type": "uint256"
        }
      ],
      "stateMutability": "view",
      "type": "function"
    },
    {
      "inputs": [
        {
          "internalType": "address",
          "name": "account",
          "type": "address"
        }
      ],
      "name": "minVeFXSForMaxBoost",
      "outputs": [
        {
          "internalType": "uint256",
          "name": "",
          "type": "uint256"
        }
      ],
      "stateMutability": "view",
      "type": "function"
    },
    {
      "inputs": [
        {
          "internalType": "address",
          "name": "proxy_address",
          "type": "address"
        }
      ],
      "name": "minVeFXSForMaxBoostProxy",
      "outputs": [
        {
          "internalType": "uint256",
          "name": "",
          "type": "uint256"
        }
      ],
      "stateMutability": "view",
      "type": "function"
    },
    {
      "inputs": [
        {
          "internalType": "address",
          "name": "_owner",
          "type": "address"
        }
      ],
      "name": "nominateNewOwner",
      "outputs": [],
      "stateMutability": "nonpayable",
      "type": "function"
    },
    {
      "inputs": [],
      "name": "nominatedOwner",
      "outputs": [
        {
          "internalType": "address",
          "name": "",
          "type": "address"
        }
      ],
      "stateMutability": "view",
      "type": "function"
    },
    {
      "inputs": [],
      "name": "owner",
      "outputs": [
        {
          "internalType": "address",
          "name": "",
          "type": "address"
        }
      ],
      "stateMutability": "view",
      "type": "function"
    },
    {
      "inputs": [],
      "name": "periodFinish",
      "outputs": [
        {
          "internalType": "uint256",
          "name": "",
          "type": "uint256"
        }
      ],
      "stateMutability": "view",
      "type": "function"
    },
    {
      "inputs": [],
      "name": "priceFeedETHUSD",
      "outputs": [
        {
          "internalType": "contract AggregatorV3Interface",
          "name": "",
          "type": "address"
        }
      ],
      "stateMutability": "view",
      "type": "function"
    },
    {
      "inputs": [
        {
          "internalType": "address",
          "name": "proxy_address",
          "type": "address"
        }
      ],
      "name": "proxyStakedFrax",
      "outputs": [
        {
          "internalType": "uint256",
          "name": "",
          "type": "uint256"
        }
      ],
      "stateMutability": "view",
      "type": "function"
    },
    {
      "inputs": [
        {
          "internalType": "address",
          "name": "staker_address",
          "type": "address"
        }
      ],
      "name": "proxyToggleStaker",
      "outputs": [],
      "stateMutability": "nonpayable",
      "type": "function"
    },
    {
      "inputs": [
        {
          "internalType": "address",
          "name": "",
          "type": "address"
        }
      ],
      "name": "proxy_lp_balances",
      "outputs": [
        {
          "internalType": "uint256",
          "name": "",
          "type": "uint256"
        }
      ],
      "stateMutability": "view",
      "type": "function"
    },
    {
      "inputs": [
        {
          "internalType": "address",
          "name": "tokenAddress",
          "type": "address"
        },
        {
          "internalType": "uint256",
          "name": "tokenAmount",
          "type": "uint256"
        }
      ],
      "name": "recoverERC20",
      "outputs": [],
      "stateMutability": "nonpayable",
      "type": "function"
    },
    {
      "inputs": [
        {
          "internalType": "address",
          "name": "spender",
          "type": "address"
        },
        {
          "internalType": "bytes32",
          "name": "kek_id",
          "type": "bytes32"
        }
      ],
      "name": "removeAllowance",
      "outputs": [],
      "stateMutability": "nonpayable",
      "type": "function"
    },
    {
      "inputs": [
        {
          "internalType": "address",
          "name": "",
          "type": "address"
        }
      ],
      "name": "rewardManagers",
      "outputs": [
        {
          "internalType": "address",
          "name": "",
          "type": "address"
        }
      ],
      "stateMutability": "view",
      "type": "function"
    },
    {
      "inputs": [
        {
          "internalType": "uint256",
          "name": "token_idx",
          "type": "uint256"
        }
      ],
      "name": "rewardRates",
      "outputs": [
        {
          "internalType": "uint256",
          "name": "rwd_rate",
          "type": "uint256"
        }
      ],
      "stateMutability": "view",
      "type": "function"
    },
    {
      "inputs": [
        {
          "internalType": "address",
          "name": "",
          "type": "address"
        }
      ],
      "name": "rewardTokenAddrToIdx",
      "outputs": [
        {
          "internalType": "uint256",
          "name": "",
          "type": "uint256"
        }
      ],
      "stateMutability": "view",
      "type": "function"
    },
    {
      "inputs": [],
      "name": "rewardsDuration",
      "outputs": [
        {
          "internalType": "uint256",
          "name": "",
          "type": "uint256"
        }
      ],
      "stateMutability": "view",
      "type": "function"
    },
    {
      "inputs": [],
      "name": "rewardsPerToken",
      "outputs": [
        {
          "internalType": "uint256[]",
          "name": "newRewardsPerTokenStored",
          "type": "uint256[]"
        }
      ],
      "stateMutability": "view",
      "type": "function"
    },
    {
      "inputs": [
        {
          "internalType": "address",
          "name": "spender",
          "type": "address"
        },
        {
          "internalType": "bytes32",
          "name": "kek_id",
          "type": "bytes32"
        },
        {
          "internalType": "uint256",
          "name": "amount",
          "type": "uint256"
        }
      ],
      "name": "setAllowance",
      "outputs": [],
      "stateMutability": "nonpayable",
      "type": "function"
    },
    {
      "inputs": [
        {
          "internalType": "address",
          "name": "spender",
          "type": "address"
        },
        {
          "internalType": "bool",
          "name": "approved",
          "type": "bool"
        }
      ],
      "name": "setApprovalForAll",
      "outputs": [],
      "stateMutability": "nonpayable",
      "type": "function"
    },
    {
      "inputs": [
        {
          "internalType": "address",
          "name": "_eth_usd_oracle_address",
          "type": "address"
        }
      ],
      "name": "setETHUSDOracle",
      "outputs": [],
      "stateMutability": "nonpayable",
      "type": "function"
    },
    {
      "inputs": [
        {
          "internalType": "uint256[6]",
          "name": "_misc_vars",
          "type": "uint256[6]"
        }
      ],
      "name": "setMiscVariables",
      "outputs": [],
      "stateMutability": "nonpayable",
      "type": "function"
    },
    {
      "inputs": [
        {
          "internalType": "bool",
          "name": "_stakingPaused",
          "type": "bool"
        },
        {
          "internalType": "bool",
          "name": "_withdrawalsPaused",
          "type": "bool"
        },
        {
          "internalType": "bool",
          "name": "_rewardsCollectionPaused",
          "type": "bool"
        }
      ],
      "name": "setPauses",
      "outputs": [],
      "stateMutability": "nonpayable",
      "type": "function"
    },
    {
      "inputs": [
        {
          "internalType": "address",
          "name": "reward_token_address",
          "type": "address"
        },
        {
          "internalType": "uint256",
          "name": "_new_rate",
          "type": "uint256"
        },
        {
          "internalType": "address",
          "name": "_gauge_controller_address",
          "type": "address"
        },
        {
          "internalType": "address",
          "name": "_rewards_distributor_address",
          "type": "address"
        }
      ],
      "name": "setRewardVars",
      "outputs": [],
      "stateMutability": "nonpayable",
      "type": "function"
    },
    {
      "inputs": [
        {
          "internalType": "address",
          "name": "",
          "type": "address"
        },
        {
          "internalType": "address",
          "name": "",
          "type": "address"
        }
      ],
      "name": "spenderApprovalForAllLocks",
      "outputs": [
        {
          "internalType": "bool",
          "name": "",
          "type": "bool"
        }
      ],
      "stateMutability": "view",
      "type": "function"
    },
    {
      "inputs": [
        {
          "internalType": "uint256",
          "name": "liquidity",
          "type": "uint256"
        },
        {
          "internalType": "uint256",
          "name": "secs",
          "type": "uint256"
        }
      ],
      "name": "stakeLocked",
      "outputs": [
        {
          "internalType": "bytes32",
          "name": "",
          "type": "bytes32"
        }
      ],
      "stateMutability": "nonpayable",
      "type": "function"
    },
    {
      "inputs": [
        {
          "internalType": "address",
          "name": "proxy_address",
          "type": "address"
        }
      ],
      "name": "stakerSetVeFXSProxy",
      "outputs": [],
      "stateMutability": "nonpayable",
      "type": "function"
    },
    {
      "inputs": [
        {
          "internalType": "address",
          "name": "",
          "type": "address"
        }
      ],
      "name": "staker_designated_proxies",
      "outputs": [
        {
          "internalType": "address",
          "name": "",
          "type": "address"
        }
      ],
      "stateMutability": "view",
      "type": "function"
    },
    {
      "inputs": [],
      "name": "stakesUnlocked",
      "outputs": [
        {
          "internalType": "bool",
          "name": "",
          "type": "bool"
        }
      ],
      "stateMutability": "view",
      "type": "function"
    },
    {
      "inputs": [],
      "name": "stakingToken",
      "outputs": [
        {
          "internalType": "contract IConvexStakingWrapperFrax",
          "name": "",
          "type": "address"
        }
      ],
      "stateMutability": "view",
      "type": "function"
    },
    {
      "inputs": [],
      "name": "sync",
      "outputs": [],
      "stateMutability": "nonpayable",
      "type": "function"
    },
    {
      "inputs": [
        {
          "internalType": "bool",
          "name": "force_update",
          "type": "bool"
        }
      ],
      "name": "sync_gauge_weights",
      "outputs": [],
      "stateMutability": "nonpayable",
      "type": "function"
    },
    {
      "inputs": [
        {
          "internalType": "address",
          "name": "_proxy_addr",
          "type": "address"
        }
      ],
      "name": "toggleValidVeFXSProxy",
      "outputs": [],
      "stateMutability": "nonpayable",
      "type": "function"
    },
    {
      "inputs": [],
      "name": "totalCombinedWeight",
      "outputs": [
        {
          "internalType": "uint256",
          "name": "",
          "type": "uint256"
        }
      ],
      "stateMutability": "view",
      "type": "function"
    },
    {
      "inputs": [],
      "name": "totalLiquidityLocked",
      "outputs": [
        {
          "internalType": "uint256",
          "name": "",
          "type": "uint256"
        }
      ],
      "stateMutability": "view",
      "type": "function"
    },
    {
      "inputs": [
        {
          "internalType": "address",
          "name": "receiver_address",
          "type": "address"
        },
        {
          "internalType": "bytes32",
          "name": "source_kek_id",
          "type": "bytes32"
        },
        {
          "internalType": "uint256",
          "name": "transfer_amount",
          "type": "uint256"
        },
        {
          "internalType": "bytes32",
          "name": "destination_kek_id",
          "type": "bytes32"
        }
      ],
      "name": "transferLocked",
      "outputs": [
        {
          "internalType": "bytes32",
          "name": "",
          "type": "bytes32"
        },
        {
          "internalType": "bytes32",
          "name": "",
          "type": "bytes32"
        }
      ],
      "stateMutability": "nonpayable",
      "type": "function"
    },
    {
      "inputs": [
        {
          "internalType": "address",
          "name": "sender_address",
          "type": "address"
        },
        {
          "internalType": "address",
          "name": "receiver_address",
          "type": "address"
        },
        {
          "internalType": "bytes32",
          "name": "source_kek_id",
          "type": "bytes32"
        },
        {
          "internalType": "uint256",
          "name": "transfer_amount",
          "type": "uint256"
        },
        {
          "internalType": "bytes32",
          "name": "destination_kek_id",
          "type": "bytes32"
        }
      ],
      "name": "transferLockedFrom",
      "outputs": [
        {
          "internalType": "bytes32",
          "name": "",
          "type": "bytes32"
        },
        {
          "internalType": "bytes32",
          "name": "",
          "type": "bytes32"
        }
      ],
      "stateMutability": "nonpayable",
      "type": "function"
    },
    {
      "inputs": [],
      "name": "unlockStakes",
      "outputs": [],
      "stateMutability": "nonpayable",
      "type": "function"
    },
    {
      "inputs": [
        {
          "internalType": "address",
          "name": "account",
          "type": "address"
        },
        {
          "internalType": "bool",
          "name": "sync_too",
          "type": "bool"
        }
      ],
      "name": "updateRewardAndBalance",
      "outputs": [],
      "stateMutability": "nonpayable",
      "type": "function"
    },
    {
      "inputs": [
        {
          "internalType": "address",
          "name": "account",
          "type": "address"
        }
      ],
      "name": "userStakedFrax",
      "outputs": [
        {
          "internalType": "uint256",
          "name": "",
          "type": "uint256"
        }
      ],
      "stateMutability": "view",
      "type": "function"
    },
    {
      "inputs": [
        {
          "internalType": "address",
          "name": "account",
          "type": "address"
        }
      ],
      "name": "veFXSMultiplier",
      "outputs": [
        {
          "internalType": "uint256",
          "name": "vefxs_multiplier",
          "type": "uint256"
        }
      ],
      "stateMutability": "view",
      "type": "function"
    },
    {
      "inputs": [],
      "name": "vefxs_boost_scale_factor",
      "outputs": [
        {
          "internalType": "uint256",
          "name": "",
          "type": "uint256"
        }
      ],
      "stateMutability": "view",
      "type": "function"
    },
    {
      "inputs": [],
      "name": "vefxs_max_multiplier",
      "outputs": [
        {
          "internalType": "uint256",
          "name": "",
          "type": "uint256"
        }
      ],
      "stateMutability": "view",
      "type": "function"
    },
    {
      "inputs": [],
      "name": "vefxs_per_frax_for_max_boost",
      "outputs": [
        {
          "internalType": "uint256",
          "name": "",
          "type": "uint256"
        }
      ],
      "stateMutability": "view",
      "type": "function"
    },
    {
      "inputs": [
        {
          "internalType": "bytes32",
          "name": "kek_id",
          "type": "bytes32"
        },
        {
          "internalType": "address",
          "name": "destination_address",
          "type": "address"
        }
      ],
      "name": "withdrawLocked",
      "outputs": [
        {
          "internalType": "uint256",
          "name": "",
          "type": "uint256"
        }
      ],
      "stateMutability": "nonpayable",
      "type": "function"
    }
  ],
  "bytecode": {
    "object": "0x60c0604052346200005c575b620000266200001962000386565b9594909493919362000445565b60405161643d62000c2b8239608051818181612627015281816127d70152818161287201526129e7015260a05181505061643d90f35b62000065600080fd5b6200000b565b600080fd5b50634e487b7160e01b600052604160045260246000fd5b90601f01601f191681019081106001600160401b03821117620000a957604052565b620000b362000070565b604052565b90620000cf620000c760405190565b928362000087565b565b6001600160a01b031690565b90565b6001600160a01b0381165b036200006b57565b90505190620000cf82620000e0565b60209081906001600160401b0381116200011b57020190565b6200012562000070565b020190565b90929192620001436200013d8262000102565b620000b8565b938185526020808601920283019281841162000186575b915b8383106200016a5750505050565b602080916200017a8486620000f3565b8152019201916200015c565b6200018f600080fd5b6200015a565b90620000dd9181601f82011215620001b4575b6020815191016200012a565b620001bd600080fd5b620001a8565b80620000eb565b90505190620000cf82620001c3565b90929192620001ec6200013d8262000102565b93818552602080860192028301928184116200022f575b915b838310620002135750505050565b60208091620002238486620001ca565b81520192019162000205565b62000238600080fd5b62000203565b90620000dd9181601f820112156200025d575b602081519101620001d9565b62000266600080fd5b62000251565b60e08183031262000377575b620002848282620000f3565b92620002a683602084015160018060401b03811162000368575b840162000195565b92620002c881604085015160018060401b0381116200034a575b850162000195565b92620002ea82606083015160018060401b03811162000359575b83016200023e565b92620000dd6200030f84608085015160018060401b0381116200034a57850162000195565b93620003318160a086015160018060401b0381116200033b575b860162000195565b9360c001620000f3565b62000344600080fd5b62000329565b62000353600080fd5b620002c0565b62000362600080fd5b620002e2565b62000371600080fd5b6200029e565b62000380600080fd5b62000278565b620003a962007068803803806200039d81620000b8565b9283398101906200026c565b90919293949596565b620000dd90620000d1906001600160a01b031682565b620000dd90620003b2565b620000dd90620003c8565b90600160281b600160c81b039060281b5b9181191691161790565b906200040d620000dd6200041592620003d3565b8254620003de565b9055565b906001600160a01b0390620003ef565b906200043d620000dd6200041592620003d3565b825462000419565b620004519650620008ee565b6200047c62000474734659d5ff63a1e1edd6d5dd9cc315e063c95947d0620003d3565b6021620003f9565b620004a76200049f73f43211935c781d5ca1a41d2041f397b8a7366c7a620003d3565b602362000429565b620004d2620004ca73a1f8a6807c402e4a15ef4eba36528a3fed24e577620003d3565b602462000429565b620000cf620004f5735f4ec3df9cbd43714fe2740f5e3616155c5b8419620003d3565b602562000429565b620000dd620000dd620000dd9290565b9060001990620003ef565b906200052c620000dd6200041592620004fd565b82546200050d565b50634e487b7160e01b600052601160045260246000fd5b620000cf62000534565b9160001960089290920291821b911b620003ef565b91906200057f620000dd6200041593620004fd565b90835462000555565b620000cf916000916200056a565b818110620005a2575050565b80620005b2600060019362000588565b0162000596565b9091828110620005c857505050565b620000cf9290620005e0905b92600052602060002090565b908101910162000596565b90620000cf916801000000000000000082116200060f575b805490828155620005b9565b6200061962000070565b62000603565b600162000653620005d462000632855190565b94838060401b03861162000690575b6200064d8686620005eb565b60200190565b92049160005b838110620006675750505050565b600190602062000682620000dd86516001600160a01b031690565b940193818401550162000659565b6200069a62000070565b62000641565b90620000cf916200061f565b818110620006b8575050565b80620006c8600060019362000588565b01620006ac565b9091828110620006de57505050565b620000cf9290620006ef90620005d4565b9081019101620006ac565b90620000cf916801000000000000000082116200071e575b805490828155620006cf565b6200072862000070565b62000712565b60016200075c620005d462000741855190565b94838060401b03861162000790575b6200064d8686620006fa565b92049160005b838110620007705750505050565b600190602062000782620000dd865190565b940193818401550162000762565b6200079a62000070565b62000750565b90620000cf916200072e565b6001906000198114620007bd570190565b620007c762000534565b0190565b50634e487b7160e01b600052603260045260246000fd5b9060208091620007f0845190565b811015620007ff575b02010190565b62000809620007cb565b620007f9565b906200081b90620003d3565b600052602052604060002090565b6200084c60019162000839815490565b8410156200085557600052602060002090565b91020190600090565b6200085f620007cb565b600052602060002090565b9062000896620000cf92805490680100000000000000008210156200089d575b60018201815562000829565b906200056a565b620008a762000070565b6200088a565b9060ff90620003ef565b90620008ca620000dd6200041592151590565b8254620008ad565b620000dd62093a80620004fd565b919082018092116200054b57565b94620009d9620009e99493956200090b620009e194999862000b0b565b6200092a73c8418af6358ffdda74e09ca9cc3fe03ca6adc5b0620003d3565b60805273853d955acef822db058eb8505911ed77f175b99e60a052620009c4671bc16d674ec800006200095d81620004fd565b6200096a81600662000518565b6200097b6301e13380600762000518565b6200098b62091050600862000518565b620009bb673782dace9d90000091620009a483620004fd565b93620009b285600962000518565b50600a62000518565b50600b62000518565b620009d1896010620006a0565b6011620006a0565b6012620006a0565b6013620007a0565b6000620009f681620004fd565b925b62000a05620000dd865190565b84101562000ab95762000a428462000a3c601462000a3562000a28848b620007e2565b516001600160a01b031690565b906200080f565b62000518565b62000aa6601562000a5f62000a5785620004fd565b80926200086a565b62000a6f62000a288787620007e2565b62000a908162000a8a600f62000a3562000a288c8e620007e2565b62000429565b5062000a9e8160196200086a565b601a6200086a565b62000ab184620007ac565b9350620009f8565b935091505062000acb816021620008b7565b5062000aef4262000ade81600562000518565b62000ae8620008d2565b90620008e0565b62000afc81600462000518565b50565b620000dd6001620004fd565b62000b169062000baf565b62000b2062000aff565b62000afc81600262000518565b620000d1620000dd620000dd9290565b620000dd9062000b2d565b1562000b5057565b60405162461bcd60e51b815260206004820152601960248201527f4f776e657220616464726573732063616e6e6f742062652030000000000000006044820152606490fd5b6001600160a01b0391821681529116602082015260400190565b60009062000bbd8262000b3d565b9162000bde6001600160a01b0384166001600160a01b038416141562000b48565b62000bea828262000429565b507fb532073b38c83145e3e5135377a08bf9aab55bc0fd7c1179cd4fb995d2a5159c9162000c2562000c1b60405190565b9283928362000b95565b0390a156fe60806040526004361015610018575b610016600080fd5b005b60003560e01c80628cc26214610643578063061a7bf51461063a5780630d7bac4f1461063157806312edb24c1461062857806315a202a11461061f5780631627540c1461061657806317b18c891461060d5780631bcb7d90146106045780631c1f78eb146105fb5780631e090f01146105f25780631face856146105e9578063218751b2146105e0578063231b68dc146105d757806328408bab146105ce5780632c0c2a0a146105c557806336f89af2146105bc578063386a9525146105b3578063387edc86146105aa5780633c62c44f146105a157806341a16f3f146105985780634f39059c1461058f5780634fd2b5361461058657806353a47bb71461057d57806355189773146105745780635bfd92581461056b57806364f2c06014610562578063663b135c1461055957806369339245146105505780636c430dbb146105475780636e27cef91461053e57806370641a361461053557806372f702f31461052c578063733ff19414610523578063741d3c181461051a578063774d4ae7146105115780637910d17b146105085780637970833e146104ff57806379ba5097146104f65780637ab44e40146104ed5780637d6ef08e146104e45780637f472e54146104db5780638980f11f146104d25780638bad86a7146104c95780638da5cb5b146104c057806391cf600a146104b75780639637927f146104ae578063a0f23476146104a5578063a10d3b331461049c578063a22cb46514610493578063aa1d4fce1461048a578063b61aa08c14610481578063b85efd0614610478578063b94c4dcb1461046f578063bdb123e314610466578063c00007b01461045d578063c354382614610454578063c8f33c911461044b578063ca6df29d14610442578063cc2abd6414610439578063cdc82e8014610430578063d2010fb414610427578063d2fbdc0d1461041e578063d42fc9b414610415578063d5e1a9c61461040c578063d7400d5614610403578063d9f96e8d146103fa578063de1a6551146103f1578063de57a5b5146103e8578063e01f62bf146103df578063e1ba95d2146103d6578063e44b9fa5146103cd578063e7f30582146103c4578063ebe2b12b146103bb578063f288baf6146103b2578063f2a8d349146103a9578063f2caeb1e146103a0578063f77e34d114610397578063facefb641461038e5763fff6cae90361000e57610389611da2565b61000e565b50610389611d7b565b50610389611bdb565b50610389611b94565b50610389611b6a565b50610389611b34565b50610389611afe565b50610389611acb565b50610389611aa0565b50610389611a51565b50610389611a27565b506103896119fc565b506103896119d4565b506103896119aa565b50610389611983565b50610389611958565b506103896118e4565b506103896118bc565b50610389611892565b5061038961185c565b50610389611828565b506103896117c0565b50610389611796565b50610389611760565b50610389611736565b5061038961170c565b506103896116e2565b506103896116ae565b50610389611686565b5061038961165c565b50610389611628565b50610389611600565b506103896115d6565b506103896115ac565b50610389611579565b5061038961154f565b5061038961150a565b506103896114c4565b5061038961149a565b50610389611470565b50610389611433565b506103896113a9565b50610389611368565b50610389611222565b506103896111f7565b506103896111a8565b50610389611180565b50610389611156565b50610389611120565b506103896110f6565b506103896110c0565b50610389611084565b5061038961102c565b50610389610fa8565b50610389610f7e565b50610389610f56565b50610389610ee6565b50610389610eb0565b50610389610e86565b50610389610e50565b50610389610dfd565b50610389610d75565b50610389610d4b565b50610389610d00565b50610389610cd6565b50610389610c84565b50610389610c42565b50610389610c18565b50610389610be2565b50610389610bac565b50610389610ae7565b50610389610abc565b50610389610a0f565b506103896109b2565b5061038961097c565b506103896108c0565b5061038961080d565b506103896107b2565b50610389610727565b600080fd5b73ffffffffffffffffffffffffffffffffffffffff1690565b90565b73ffffffffffffffffffffffffffffffffffffffff81165b0361064c57565b905035906106998261066d565b565b9061066a916020818303121561068c576106b3600080fd5b61068c565b9052565b0190565b906106e06106d96106cf845190565b8084529260200190565b9260200190565b9060005b8181106106f15750505090565b90919261070e6107076001928651815260200190565b9460200190565b9291016106e4565b602080825261066a929101906106c0565b5034610754575b61075061074461073f36600461069b565b6123c0565b60405191829182610716565b0390f35b61075c600080fd5b61072e565b80610685565b9050359061069982610761565b90916060828403126107a5575b61066a61078e848461068c565b9361079c8160208601610767565b93604001610767565b6107ad600080fd5b610781565b50346107e3575b6107506107d06107ca366004610774565b91615ad6565b6040515b91829182901515815260200190565b6107eb600080fd5b6107b9565b9061066a916020818303121561076757610808600080fd5b610767565b503461083b575b61075061082a6108253660046107f0565b61257b565b6040515b9182918290815260200190565b610843600080fd5b610814565b600091031261085357565b610699600080fd5b9061086a6106d96106cf845190565b9060005b81811061087b5750505090565b9091926108a7610707600192865173ffffffffffffffffffffffffffffffffffffffff16815260200190565b92910161086e565b602080825261066a9291019061085b565b50346108e9575b6108d2366004610848565b6107506108dd611f0b565b604051918291826108af565b6108f1600080fd5b6108c7565b61066a916008021c73ffffffffffffffffffffffffffffffffffffffff1690565b9061066a91546108f6565b61066a60006025610917565b61065161066a61066a9273ffffffffffffffffffffffffffffffffffffffff1690565b61066a9061092e565b61066a90610951565b6106b89061095a565b6020810192916106999190610963565b50346109a5575b61098e366004610848565b610750610999610922565b6040519182918261096c565b6109ad600080fd5b610983565b50346109d1575b6109cc6109c736600461069b565b614274565b604051005b6109d9600080fd5b6109b9565b919061066a90604084820312610a02575b6109f98185610767565b93602001610767565b610a0a600080fd5b6109ef565b5034610a2d575b61075061082a610a273660046109de565b90615410565b610a35600080fd5b610a16565b919061066a90604084820312610a5e575b610a55818561068c565b9360200161068c565b610a66600080fd5b610a4b565b90610a759061095a565b600052602052604060002090565b61066a916008021c5b60ff1690565b9061066a9154610a83565b610ab761066a92610ab2602793600094610a6b565b610a6b565b610a92565b5034610ada575b6107506107d0610ad4366004610a3a565b90610a9d565b610ae2600080fd5b610ac3565b5034610b04575b610af9366004610848565b6107506107446124c6565b610b0c600080fd5b610aee565b8051825261069991906080908190610b2e60208201516020860152565b610b3d60408201516040860152565b610b4c60608201516060860152565b0151910152565b906106bc8160a093610b11565b90610b6f6106d96106cf845190565b9060005b818110610b805750505090565b909192610b936107076001928651610b53565b929101610b73565b602080825261066a92910190610b60565b5034610bd5575b610750610bc9610bc436600461069b565b614c57565b60405191829182610b9b565b610bdd600080fd5b610bb3565b5034610bff575b61075061082a610bfa36600461069b565b6125e5565b610c07600080fd5b610be9565b61066a60006024610917565b5034610c35575b610c2a366004610848565b610750610999610c0c565b610c3d600080fd5b610c1f565b5034610c60575b6107506107d0610c5a366004610a3a565b90611ddc565b610c68600080fd5b610c49565b61066a90610c7f602091600092610a6b565b610917565b5034610cc9575b610750610ca1610c9c36600461069b565b610c6d565b6040515b9182918273ffffffffffffffffffffffffffffffffffffffff909116815260200190565b610cd1600080fd5b610c8b565b5034610cf3575b61075061082a610cee36600461069b565b612771565b610cfb600080fd5b610cdd565b5034610d1d575b61075061082a610d1836600461069b565b612564565b610d25600080fd5b610d07565b61066a61066a61066a9290565b61066a62093a80610d2a565b61066a610d37565b5034610d68575b610d5d366004610848565b61075061082a610d43565b610d70600080fd5b610d52565b5034610d8f575b6109cc610d8a36600461069b565b613095565b610d97600080fd5b610d7c565b608081830312610dd9575b610db1828261068c565b9261066a610dc28460208501610767565b93610dd08160408601610767565b93606001610767565b610de1600080fd5b610da7565b9081526040810192916106999160200152565b0152565b5034610e31575b610e1b610e12366004610d9c565b92919091615cca565b90610750610e2860405190565b92839283610de6565b610e39600080fd5b610e04565b61066a90610c7f600f91600092610a6b565b5034610e6d575b610750610ca1610e6836600461069b565b610e3e565b610e75600080fd5b610e57565b61066a60006023610917565b5034610ea3575b610e98366004610848565b610750610999610e7a565b610eab600080fd5b610e8d565b5034610ecd575b61075061082a610ec836600461069b565b6126fb565b610ed5600080fd5b610eb7565b61066a60006001610917565b5034610f03575b610ef8366004610848565b610750610ca1610eda565b610f0b600080fd5b610eed565b801515610685565b9050359061069982610f10565b919061066a90604084820312610f49575b610f40818561068c565b93602001610f18565b610f51600080fd5b610f36565b5034610f71575b6109cc610f6b366004610f25565b90612d62565b610f79600080fd5b610f5d565b5034610f9b575b610f90366004610848565b61075061082a6145a9565b610fa3600080fd5b610f85565b5034610fc5575b610fba366004610848565b61075061082a61255a565b610fcd600080fd5b610faf565b919060a08382031261101f575b610fe9818461068c565b92610ff7826020830161068c565b9261066a6110088460408501610767565b936110168160608601610767565b93608001610767565b611027600080fd5b610fdf565b503461104a575b610e1b611041366004610fd2565b93929092615bd6565b611052600080fd5b611033565b61066a916008021c81565b9061066a9154611057565b61066a9061107f601491600092610a6b565b611062565b50346110a1575b61075061082a61109c36600461069b565b61106d565b6110a9600080fd5b61108b565b61066a9061107f601891600092610a6b565b50346110dd575b61075061082a6110d836600461069b565b6110ae565b6110e5600080fd5b6110c7565b61066a60006008611062565b5034611113575b611108366004610848565b61075061082a6110ea565b61111b600080fd5b6110fd565b503461113d575b611132366004610848565b610750610744612291565b611145600080fd5b611127565b61066a60056021610917565b5034611173575b611168366004610848565b61075061099961114a565b61117b600080fd5b61115d565b503461119b575b6109cc611195366004610774565b91615941565b6111a3600080fd5b611187565b50346111c2575b6109cc6111bd36600461069b565b6148d7565b6111ca600080fd5b6111af565b919061066a906040848203126111ea575b6109f9818561068c565b6111f2600080fd5b6111e0565b5034611215575b61075061082a61120f3660046111cf565b90614964565b61121d600080fd5b6111fe565b5034611240575b61075061074461123a366004610f25565b9061311e565b611248600080fd5b611229565b507f4e487b7100000000000000000000000000000000000000000000000000000000600052603260045260246000fd5b61129d60059161128b815490565b8410156112a657600052602060002090565b91020190600090565b6112ae61124d565b600052602060002090565b61066a9081565b61066a90546112b9565b91906112da602293600094610a6b565b805482101561132b576112ee92935061127d565b506112f8816112c0565b91611305600183016112c0565b91611312600282016112c0565b9161066a6004611324600385016112c0565b93016112c0565b8380fd5b9095949261069994611361610df99261135a60809661135360a088019c6000890152565b6020870152565b6040850152565b6060830152565b503461139c575b6107506113866113803660046111cf565b906112ca565b9161139395939560405190565b9586958661132f565b6113a4600080fd5b61136f565b50346113c3575b6113bb366004610848565b6109cc614335565b6113cb600080fd5b6113b0565b9091606082840312611401575b61066a6113ea848461068c565b936113f88160208601610767565b9360400161068c565b611409600080fd5b6113dd565b90610a75565b9061066a92610ab261107f9261142e602695600096610a6b565b61140e565b5034611451575b61075061082a61144b3660046113d0565b91611414565b611459600080fd5b61143a565b61066a9061107f601f91600092610a6b565b503461148d575b61075061082a61148836600461069b565b61145e565b611495600080fd5b611477565b50346114b7575b61075061082a6114b236600461069b565b61271d565b6114bf600080fd5b6114a1565b50346114df575b6109cc6114d93660046111cf565b90613d61565b6114e7600080fd5b6114cb565b908152606081019392610699929091604091610df9905b6020830152565b5034611537575b61075061152761152236600461069b565b614ab5565b6040519193915b938493846114ec565b61153f600080fd5b611511565b61066a600080610917565b503461156c575b611561366004610848565b610750610ca1611544565b611574600080fd5b611556565b5034611593575b6109cc61158e36600461069b565b613b59565b61159b600080fd5b611580565b61066a60006021610a92565b50346115c9575b6115be366004610848565b6107506107d06115a0565b6115d1600080fd5b6115b3565b50346115f3575b61075061082a6115ee36600461069b565b61260d565b6115fb600080fd5b6115dd565b503461161b575b6109cc611615366004610774565b916158b4565b611623600080fd5b611607565b5034611643575b6109cc61163d366004610f25565b90615a7d565b61164b600080fd5b61162f565b61066a60006009611062565b5034611679575b61166e366004610848565b61075061082a611650565b611681600080fd5b611663565b50346116a1575b6109cc61169b3660046111cf565b90615a10565b6116a9600080fd5b61168d565b50346116c9575b6109cc6116c33660046109de565b9061503a565b6116d1600080fd5b6116b5565b61066a60006007611062565b50346116ff575b6116f4366004610848565b61075061082a6116d6565b611707600080fd5b6116e9565b5034611729575b61171e366004610848565b61075061082a614751565b611731600080fd5b611713565b5034611753575b61075061074461174e36600461069b565b6130e0565b61175b600080fd5b61173d565b503461177d575b610750610ca161177836600461069b565b612748565b611785600080fd5b611767565b61066a60006005611062565b50346117b3575b6117a8366004610848565b61075061082a61178a565b6117bb600080fd5b61179d565b50346117dd575b61075061082a6117d836600461069b565b614c73565b6117e5600080fd5b6117c7565b909160608284031261181b575b61066a6118048484610f18565b936118128160208601610f18565b93604001610f18565b611823600080fd5b6117f7565b5034611843575b6109cc61183d3660046117ea565b91613aed565b61184b600080fd5b61182f565b61066a60006006611062565b5034611879575b61186e366004610848565b61075061082a611850565b611881600080fd5b611863565b61066a60006003611062565b50346118af575b6118a4366004610848565b61075061082a611886565b6118b7600080fd5b611899565b50346118d7575b6109cc6118d13660046109de565b906153d1565b6118df600080fd5b6118c3565b5034611901575b61075061082a6118fc36600461069b565b6125b5565b611909600080fd5b6118eb565b60808183031261194b575b611923828261068c565b9261066a6119348460208501610767565b93611942816040860161068c565b9360600161068c565b611953600080fd5b611919565b5034611976575b6109cc61196d36600461190e565b92919091614150565b61197e600080fd5b61195f565b503461199d575b6109cc61199836600461069b565b612ca5565b6119a5600080fd5b61198a565b50346119c7575b61075061082a6119c236600461069b565b612543565b6119cf600080fd5b6119b1565b50346119ef575b6109cc6119e9366004610a3a565b90614182565b6119f7600080fd5b6119db565b5034611a1a575b61075061082a611a143660046111cf565b90614c82565b611a22600080fd5b611a03565b5034611a44575b611a39366004610848565b61075061082a612539565b611a4c600080fd5b611a2e565b5034611a6b575b611a63366004610848565b6109cc613b24565b611a73600080fd5b611a58565b919061066a90604084820312611a93575b610a558185610767565b611a9b600080fd5b611a89565b5034611abe575b61075061082a611ab8366004611a78565b90615671565b611ac6600080fd5b611aa7565b5034611ae5575b6109cc611ae036600461069b565b612b78565b611aed600080fd5b611ad2565b61066a60006004611062565b5034611b1b575b611b10366004610848565b61075061082a611af2565b611b23600080fd5b611b05565b61066a6000600a611062565b5034611b51575b611b46366004610848565b61075061082a611b28565b611b59600080fd5b611b3b565b61066a6000600b611062565b5034611b87575b611b7c366004610848565b61075061082a611b5e565b611b8f600080fd5b611b71565b5034611bb1575b61075061082a611bac3660046107f0565b612017565b611bb9600080fd5b611b9b565b9061066a9160208183031215610f1857611bd6600080fd5b610f18565b5034611bf5575b6109cc611bf0366004611bbe565b613377565b611bfd600080fd5b611be2565b601f017fffffffffffffffffffffffffffffffffffffffffffffffffffffffffffffffe01690565b507f4e487b7100000000000000000000000000000000000000000000000000000000600052604160045260246000fd5b90601f017fffffffffffffffffffffffffffffffffffffffffffffffffffffffffffffffe016810190811067ffffffffffffffff821117611c9a57604052565b611ca2611c2a565b604052565b90610699611cb460405190565b9283611c5a565b60209067ffffffffffffffff8111611cd1570290565b611cd9611c2a565b0290565b90929192611cf2611ced82611cbb565b611ca7565b936020859202830192818411611d2b575b915b838310611d125750505050565b60208091611d208486610767565b815201920191611d05565b611d33600080fd5b611d03565b9061066a9181601f82011215611d51575b600690611cdd565b611d59600080fd5b611d49565b9061066a9160c08183031215611d3857611d76600080fd5b611d38565b5034611d95575b6109cc611d90366004611d5e565b614093565b611d9d600080fd5b611d82565b5034611dbc575b611db4366004610848565b6109cc613523565b611dc4600080fd5b611da9565b61066a90610651565b61066a9054611dc9565b90611dea6106516000611dd2565b73ffffffffffffffffffffffffffffffffffffffff831603611e0d575050600190565b611e40611e26611e21611e5a93600f610a6b565b611dd2565b9273ffffffffffffffffffffffffffffffffffffffff1690565b9173ffffffffffffffffffffffffffffffffffffffff1690565b14611e6457600090565b600190565b90611e84611e786106cf845490565b92600052602060002090565b9060005b818110611e955750505090565b909192611ecf611ec8600192611eaa87611dd2565b73ffffffffffffffffffffffffffffffffffffffff16815260200190565b9460010190565b929101611e88565b9061066a91611e69565b90610699611efb92611ef260405190565b93848092611ed7565b0383611c5a565b61066a90611ee1565b61066a6010611f02565b61129d60019161128b815490565b61065161066a61066a9290565b61066a90611f23565b9050519061069982610761565b9061066a9160208183031215611f3957611f5e600080fd5b611f39565b506040513d6000823e3d90fd5b507f4e487b7100000000000000000000000000000000000000000000000000000000600052601160045260246000fd5b9190611fab565b9290565b91808302928184041490151715611fbe57565b610699611f70565b507f4e487b7100000000000000000000000000000000000000000000000000000000600052601260045260246000fd5b90612000565b9190565b90811561200b570490565b612013611fc6565b0490565b61202b612025826011611f15565b90610917565b6120386106516000611f30565b73ffffffffffffffffffffffffffffffffffffffff82161461211b5761208b61066a92602061207361206e856120bf965061095a565b61095a565b630a3be7579061208260405190565b94859260e01b90565b825260049082905afa91821561210e575b6000926120d6575b506120b36120b9916019611f15565b90611062565b90611fa0565b6120d0670de0b6b3a7640000610d2a565b90611ff6565b6120b99192506120ff6120b39160203d8111612107575b6120f78183611c5a565b810190611f46565b9291506120a4565b503d6120ed565b612116611f63565b61209c565b506120b361066a916013611f15565b6020809167ffffffffffffffff811161214257020190565b61214a611c2a565b020190565b9061215c611ced8361212a565b918252565b369037565b9061069961217c6121768461214f565b9361212a565b7fffffffffffffffffffffffffffffffffffffffffffffffffffffffffffffffe00160208401612161565b6001907fffffffffffffffffffffffffffffffffffffffffffffffffffffffffffffffff81146121d5570190565b6106bc611f70565b91908203918211611fbe57565b91908201809211611fbe57565b9060208091612204845190565b811015612212575b02010190565b61221a61124d565b61220c565b9061222e611e786106cf845490565b9060005b81811061223f5750505090565b90919261225c611ec8600192612254876112c0565b815260200190565b929101612232565b9061066a9161221f565b90610699611efb9261227f60405190565b93848092612264565b61066a9061226e565b61229b601b6112c0565b6000906122aa611ffc83610d2a565b14801561237a575b156122c2575061066a6015612288565b6122dc6122d66122d160105490565b612166565b91610d2a565b915b60156122eb61066a825490565b841015612374576123046120b385836123529450611f15565b61234c612342612331612328612318612397565b61232260056112c0565b906121dd565b6120b989612017565b6120b9670de0b6b3a7640000610d2a565b6120d0601c6112c0565b906121ea565b6123638161236086866121f7565b52565b5061236d836121a7565b92506122de565b50915090565b50612385601c6112c0565b612391611ffc83610d2a565b146122b2565b61066a426123a560046112c0565b808210156123b1575090565b919050565b90610a7590610d2a565b906123c9612291565b916010906123d86122d1835490565b908194601e6123ef6123ea8483610a6b565b6112c0565b6000906123fe611ffc83610d2a565b1161240c575b505050505050565b8061241e919792939495969750610d2a565b955b61242b61066a825490565b8710156124b45761066a61242b916124926124806120bf886120b98b6123228f8061247b6124738f6123ea946124696123ea898461246f9550610a6b565b996121f7565b5190565b946016610a6b565b6123b6565b61234c6123ea8c61247b8c6017610a6b565b6124a0816123608c8c6121f7565b506124aa896121a7565b9850915050612420565b50945050505050388080808080612404565b6013906124d46122d1835490565b9081906124e16000610d2a565b935b6124ee61066a825490565b8510156125325761066a6124ee9161251061250888612017565b6120b9610d37565b61251e816123608a8a6121f7565b50612528876121a7565b96509150506124e3565b5091509150565b61066a601b6112c0565b6123ea61066a91612552600090565b50601d610a6b565b61066a601c6112c0565b6123ea61066a91612573600090565b50601e610a6b565b61066a906123a561259a61258f60066112c0565b926120b960066112c0565b6120d060076112c0565b61066a670de0b6b3a7640000610d2a565b6125dd61066a916125c4600090565b506120b96123ea6125d560036112c0565b92601d610a6b565b6120d06125a4565b6125dd61066a916125f4600090565b506120b96123ea61260560036112c0565b92601f610a6b565b6126b961268d602061066a93612621600090565b5061264b7f000000000000000000000000000000000000000000000000000000000000000061095a565b6126696370a0823161265c60405190565b9586948593849360e01b90565b835273ffffffffffffffffffffffffffffffffffffffff1660048301526024820190565b03915afa9081156126ee575b6000916126d0575b506126b46126ad6125a4565b8092611fa0565b611fa0565b6120d06126c6600b6112c0565b6120b960036112c0565b6126e8915060203d8111612107576120f78183611c5a565b386126a1565b6126f6611f63565b612699565b6125dd61271361066a9261270d600090565b506125b5565b6120b9600b6112c0565b6125dd61271361066a9261272f600090565b506125e5565b61066a90610a8c565b61066a9054612735565b61275b61275682600d610a6b565b61273e565b156127635790565b611e2161066a916020610a6b565b6000906128ae60009161278383610d2a565b5061278d81612748565b9061279784611f30565b9173ffffffffffffffffffffffffffffffffffffffff831673ffffffffffffffffffffffffffffffffffffffff82161480156129dd5761281360206127fb7f000000000000000000000000000000000000000000000000000000000000000061095a565b6370a082319061280a60405190565b93849260e01b90565b825273ffffffffffffffffffffffffffffffffffffffff8716600483015260249082905afa9081156129d0575b6000916129b2575b50935b61286b61286161285b600a6112c0565b87611fa0565b6120b960096112c0565b60206128967f000000000000000000000000000000000000000000000000000000000000000061095a565b6318160ddd906128a560405190565b998a9260e01b90565b825260049082905afa9687156129a5575b600097612981575b506128de906120d06128d76125a4565b8099611fa0565b9750501561297157506128f0906126fb565b925b6128fb81610d2a565b84111561295f575061291e6129289361291984846129199550611fa0565b611ff6565b6120b9600a6112c0565b808211156129575750905b81612944611ffc61066a600a6112c0565b1161294b57565b905061066a600a6112c0565b919050612933565b91505061296c9150610d2a565b612928565b61297b915061271d565b926128f2565b6128de91975061299e9060203d8111612107576120f78183611c5a565b96906128c7565b6129ad611f63565b6128bf565b6129ca915060203d8111612107576120f78183611c5a565b38612848565b6129d8611f63565b612840565b612a0b60206127fb7f000000000000000000000000000000000000000000000000000000000000000061095a565b825273ffffffffffffffffffffffffffffffffffffffff8616600483015260249082905afa908115612a65575b600091612a47575b509361284b565b612a5f915060203d8111612107576120f78183611c5a565b38612a40565b612a6d611f63565b612a38565b15612a7957565b6040517f08c379a000000000000000000000000000000000000000000000000000000000815260206004820152600d60248201527f496e76616c69642070726f7879000000000000000000000000000000000000006044820152606490fd5b0390fd5b9060ff905b9181191691161790565b90612afb61066a612b0292151590565b8254612adc565b9055565b9073ffffffffffffffffffffffffffffffffffffffff90612ae1565b90612b3261066a612b029261095a565b8254612b06565b907fffffffffffffffffffffffffffffffffffffffffffffffffffffffffffffffff90612ae1565b90612b7161066a612b0292610d2a565b8254612b39565b33612b8f612b8a61275683600d610a6b565b612a72565b80612bc1600e612bbc85610ab2612bb4612bb061275684610ab28a89610a6b565b1590565b958694610a6b565b612aeb565b50602091612bd2611e218285610a6b565b612bf173ffffffffffffffffffffffffffffffffffffffff8416611e40565b14612bfb57505050565b612c2a6126056123ea83612c399461255261069998612c25612c1d6000611f30565b938492610a6b565b612b22565b91612c34836112c0565b6121dd565b90612b61565b15612c4657565b6040517f08c379a000000000000000000000000000000000000000000000000000000000815260206004820152601d60248201527f50726f787920686173206e6f7420616c6c6f77656420796f75207965740000006044820152606490fd5b61069990612cba612b8a61275683600d610a6b565b612c39612d356126056123ea612cd185600e610a6b565b612ce7612ce2612756338094610a6b565b612c3f565b612d2e86612c25836020612cfe611e218383610a6b565b612d0b6106516000611f30565b73ffffffffffffffffffffffffffffffffffffffff821603612d44575b50610a6b565b601d610a6b565b91612d3f836112c0565b6121ea565b612d5c90612c39612c2a6126056123ea87601d610a6b565b38612d28565b90612e3e575b612d756106516000611f30565b73ffffffffffffffffffffffffffffffffffffffff821603612d945750565b612d9d81614ab5565b90612da784612e4b565b612dbb81612db686600c610a6b565b612b61565b50818110612e075791612dfa82612dda612e049486612db697506121dd565b90612de982612d3f601c6112c0565b612df481601c612b61565b506121ea565b928391601e610a6b565b50565b91612dfa82612e1e612db695612e049550826121dd565b90612e2d82612c34601c6112c0565b612e3881601c612b61565b506121dd565b612e46613523565b612d68565b600090612e5a61065183611f30565b73ffffffffffffffffffffffffffffffffffffffff821603612e7a575050565b9091612e85826123c0565b90612e8f84610d2a565b935b612e9c61066a845190565b851015612ed457612eb061246f86856121f7565b612ec381612db68861247b896017610a6b565b50612ecd856121a7565b9450612e91565b612ee091929450610d2a565b925b612eed61066a825190565b841015612f305761066a612eed91612f096120b3876015611f15565b612f1c81612db68961247b8a6016610a6b565b50612f26866121a7565b9550915050612ee2565b50915050565b61066a6002610d2a565b15612f4757565b6040517f08c379a000000000000000000000000000000000000000000000000000000000815260206004820152601f60248201527f5265656e7472616e637947756172643a207265656e7472616e742063616c6c006044820152606490fd5b61066a6001610d2a565b612fe390612fbe60026112c0565b612fd2612fc9612f36565b91821415612f40565b612fdd816002612b61565b50613072565b612feb612fa6565b612e04816002612b61565b61066a9060101c610a8c565b61066a9054612ff6565b1561301357565b6040517f08c379a000000000000000000000000000000000000000000000000000000000815260206004820152601960248201527f5265776172647320636f6c6c656374696f6e20706175736564000000000000006044820152606490fd5b61069990612e046130836021613002565b61308f60005b91151590565b1461300c565b61069990612fb0565b906130c9916130ad60026112c0565b6130b8612fc9612f36565b6130c3816002612b61565b506130d2565b90612feb612fa6565b5061066a90600190336132ef565b61066a90606061309e565b906130c992916130fb60026112c0565b613106612fc9612f36565b613111816002612b61565b505061066a9190336132ef565b61066a919060606130eb565b9061066a93929161313c600183612d62565b613191565b908152606081019392610699929091604091613175905b73ffffffffffffffffffffffffffffffffffffffff166020830152565b019073ffffffffffffffffffffffffffffffffffffffff169052565b939091929350426131a781612db6856018610a6b565b506131b26021613002565b600091906131c39061308f84613089565b6010916131d16122d1845490565b9182906131dd83610d2a565b975b6131ea61066a875490565b8910156132d7578661322960176123606132188d61320f6123ea8261247b8988610a6b565b9283918c6121f7565b50612db68c61247b612bb48a610d2a565b61323961066a61246f8c896121f7565b1161324f575b613248896121a7565b98506131df565b61327361325f6120258b89611f15565b8961326d61246f8d8a6121f7565b91614501565b61328061246f8a876121f7565b61328d6120258b89611f15565b7f1d2f2ca53af5d2f333bd32fdd45f9c52ad8ebe31414f7792912077fcb3876dff906132b88a61095a565b926132cf8c6132c660405190565b93849384613141565b0390a261323f565b93509593509550506132e7575050565b506106999050565b61066a929190606061312a565b73ffffffffffffffffffffffffffffffffffffffff90911681526040810192916106999160200152565b91906008612ae19102916133597fffffffffffffffffffffffffffffffffffffffffffffffffffffffffffffffff841b90565b921b90565b919061336f61066a612b0293610d2a565b908354613326565b60009061338382610d2a565b925b601161339261066a825490565b85101561351c5761202585826133a89350611f15565b6133b461065185611f30565b73ffffffffffffffffffffffffffffffffffffffff8216036133e2575b506133db846121a7565b9350613385565b828315613500575b156133d15761347d906020906133ff8161095a565b6134088161095a565b91636472eee18461343461341b3061095a565b9261343f4261342960405190565b958694859460e01b90565b8452600484016132fc565b03818c885af19081156134f3575b6000916134d6575b5061346b816134658c6019611f15565b9061335e565b50505063513872bd9061280a60405190565b825260049082905afa9081156134c9575b6000916134ab575b506134a68161346587601a611f15565b6133d1565b6134c3915060203d8111612107576120f78183611c5a565b38613496565b6134d1611f63565b61348e565b6134ed9150853d8111612107576120f78183611c5a565b38613455565b6134fb611f63565b61344d565b5042613516611ffc61066a6120b389601a611f15565b116133ea565b5092505050565b61352d6000613377565b6135356145a9565b613540816003612b61565b5042613552611ffc61066a60046112c0565b1061355f576106996136ba565b61069961391f565b919061066a9060408482031261358b575b6135828185611f39565b93602001611f39565b613593600080fd5b613578565b6106b89073ffffffffffffffffffffffffffffffffffffffff1660601b90565b906106bc6136116014937f4e6f7420656e6f7567682072657761726420746f6b656e7320617661696c616281527f6c653a2000000000000000000000000000000000000000000000000000000000602082015260240190565b8092613598565b60005b83811061362b5750506000910152565b818101518382015260200161361b565b61365c611c026020936106bc93613650815190565b80835293849260200190565b95869101613618565b602080825261066a9291019061363b565b1561367e5750565b612ad89061368b60405190565b9182917f08c379a000000000000000000000000000000000000000000000000000000000835260048301613665565b60006136c581610d2a565b915b60126136d461066a825490565b8410156137ab5761202584826136ea9350611f15565b6136f661065184611f30565b73ffffffffffffffffffffffffffffffffffffffff821603613724575b5061371d836121a7565b92506136c7565b604061373761206e83613761945061095a565b63092193ab906126698661374a3061095a565b9361375460405190565b9687958694859360e01b90565b03925af1801561379e575b15613713576137919060403d8111613797575b6137898183611c5a565b810190613567565b50613713565b503d61377f565b6137a6611f63565b61376c565b509091506137bd4261232260046112c0565b916137d36122d66137cc610d37565b8095611ff6565b925b60106137e261066a825490565b8510156138d5578061389a613872612025886138a09561386a611ffc613853602061383761206e61206e8f8f613831612025926120b96138268e946126b486612017565b9161234c6001610d2a565b99611f15565b6370a08231906126696138493061095a565b9261265c60405190565b03915afa9081156138c8575b6000916138b0575090565b111594611f15565b61066a61387e60405190565b809261388e6020830191826135b8565b90810382520382611c5a565b90613676565b6138a9846121a7565b93506137d5565b61066a915060203d8111612107576120f78183611c5a565b6138d0611f63565b61385f565b506138f892935061234c906126b46138ed60046112c0565b9361234c6001610d2a565b613903816004612b61565b5061390c61391f565b6139146145a9565b612e04816003612b61565b613927612291565b906139326000610d2a565b915b601561394161066a825490565b84101561397657613965849161346561395d61246f85876121f7565b938492611f15565b5061396f836121a7565b9250613934565b50509050613982612397565b612e04816005612b61565b1561399457565b6040517f08c379a000000000000000000000000000000000000000000000000000000000815260206004820152601560248201527f4e6f74206f776e6572206f722074696d656c6f636b00000000000000000000006044820152606490fd5b906106999291613a3033613a0a6106516000611dd2565b73ffffffffffffffffffffffffffffffffffffffff821614908115613a35575b5061398d565b613aca565b9050613a54738412ebf45bac1b340bbe8f318b928c466c4e39ca611e40565b1438613a2a565b9063ff0000009060181b612ae1565b90613a7a61066a612b0292151590565b8254613a5b565b9061ff009060081b612ae1565b90613a9e61066a612b0292151590565b8254613a81565b9062ff00009060101b612ae1565b90613ac361066a612b0292151590565b8254613aa5565b613ad5816021613a6a565b50613ae1816021613a8e565b50612e04816021613ab3565b9061069992916139f3565b613b0933613a0a6106516000611dd2565b610699613b19612bb0602161273e565b612e04816021612aeb565b610699613af8565b61069990613b4133613a0a6106516000611dd2565b612e04600d612bbc612c1d612bb06127568685610a6b565b61069990613b2c565b15613b6957565b6040517f08c379a000000000000000000000000000000000000000000000000000000000815260206004820152601460248201527f4e6f74206f776e6572206f7220746b6e206d67720000000000000000000000006044820152606490fd5b9061069991613c063382613bdf6106516000611dd2565b73ffffffffffffffffffffffffffffffffffffffff831614918215613c0b575b5050613b62565b613c1c565b613c159250611ddc565b8238613bff565b6000929183613c2a81610d2a565b945b6010613c3961066a825490565b871015613d56576120258782613c4f9350611f15565b613c6e73ffffffffffffffffffffffffffffffffffffffff8616611e40565b14613c8357613c7c866121a7565b9550613c2c565b5090919293506001905b8180613d36575b8215613d0c575b505015613cad57610699913390614501565b6040517f08c379a000000000000000000000000000000000000000000000000000000000815260206004820152601a60248201527f4e6f2076616c696420746f6b656e7320746f207265636f7665720000000000006044820152606490fd5b15915081613d1d575b503880613c9b565b9050613d2f611e406106513393611dd2565b1438613d15565b9150613d46611e2185600f610a6b565b613d4f33611e40565b1491613c94565b509192939450613c8d565b9061069991613bc8565b61069990613d8033613a0a6106516000611dd2565b613ed1565b906020906006811015613d9757020190565b61214a61124d565b15613da657565b6040517f08c379a000000000000000000000000000000000000000000000000000000000815260206004820152601360248201527f4d757374206265203e3d204d554c2050524543000000000000000000000000006044820152606490fd5b15613e0c57565b6040517f08c379a000000000000000000000000000000000000000000000000000000000815260206004820152600c60248201527f4d757374206265203e3d203000000000000000000000000000000000000000006044820152606490fd5b15613e7257565b6040517f08c379a000000000000000000000000000000000000000000000000000000000815260206004820152600c60248201527f4d757374206265203e3d203100000000000000000000000000000000000000006044820152606490fd5b61246f61400e91613ff261246f613f726000613f10613efb61246f613ef584610d2a565b88613d85565b613f09611ffc61066a6125a4565b1015613d9f565b613faf61246f613fa96001613f3061246f613f2a83610d2a565b8b613d85565b613f3c611ffc87610d2a565b10158061406f575b80614040575b613f5390613e05565b613f9861246f613f2a600497613f938d613f7861246f613f728d610d2a565b83613d85565b613f84611ffc89610d2a565b10159081614019575b50613e6b565b610d2a565b613fa3816006612b61565b50610d2a565b87613d85565b613fba81600a612b61565b50613fcb61246f613fa96002610d2a565b613fd681600b612b61565b50613fe761246f613fa96003610d2a565b613fa3816009612b61565b613ffd816007612b61565b506140086005610d2a565b90613d85565b612e04816008612b61565b61402c915061246f906140086005610d2a565b614038611ffc88610d2a565b10158e613f8d565b50613f5361405a61246f6140546003610d2a565b8c613d85565b614066611ffc88610d2a565b10159050613f4a565b5061408061246f613f2a6002610d2a565b61408c611ffc87610d2a565b1015613f44565b61069990613d6b565b906106999392916140b53382613bdf6106516000611dd2565b6140fa565b91906008612ae191029161335973ffffffffffffffffffffffffffffffffffffffff841b90565b91906140f261066a612b029361095a565b9083546140ba565b83916141246123ea61414193612e049660139461412a816134656014986141246123ea888c610a6b565b90611f15565b506141478161414160116141246123ea878b610a6b565b906140e1565b50601293610a6b565b9061069993929161409c565b90610699916141733382613bdf6106516000611dd2565b81612c25612e0492600f610a6b565b906106999161415c565b1561419357565b6040517f08c379a000000000000000000000000000000000000000000000000000000000815260206004820152602f60248201527f4f6e6c792074686520636f6e7472616374206f776e6572206d6179207065726660448201527f6f726d207468697320616374696f6e00000000000000000000000000000000006064820152608490fd5b6106999061423633614230611e406106516000611dd2565b1461418c565b614241816001612b22565b61426f7f906a1c6bd7e3091ea86693dd029a831c19049ce77f1dce2ce0bab1cacbabce2291610ca560405190565b0390a1565b61069990614218565b1561428457565b6040517f08c379a000000000000000000000000000000000000000000000000000000000815260206004820152603560248201527f596f75206d757374206265206e6f6d696e61746564206265666f726520796f7560448201527f2063616e20616363657074206f776e65727368697000000000000000000000006064820152608490fd5b73ffffffffffffffffffffffffffffffffffffffff909116815260408101929161069991602090613175565b61434f33614349611e406106516001611dd2565b1461427d565b6143596000611dd2565b6143636001611dd2565b7fb532073b38c83145e3e5135377a08bf9aab55bc0fd7c1179cd4fb995d2a5159c9161439a61439160405190565b92839283614309565b0390a16143a76001611dd2565b6143b2816000612b22565b506143bd6000611f30565b612e04816001612b22565b6143db6143d561066a9290565b60e01b90565b7fffffffff000000000000000000000000000000000000000000000000000000001690565b6106bc60209167ffffffffffffffff811161443d57601f017fffffffffffffffffffffffffffffffffffffffffffffffffffffffffffffffe01690565b611c02611c2a565b9061215c611ced83614400565b3d1561446c576144613d614445565b903d6000602084013e565b606090565b9050519061069982610f10565b9061066a916020818303121561447157614496600080fd5b614471565b156144a257565b6040517f08c379a000000000000000000000000000000000000000000000000000000000815260206004820152601f60248201527f5472616e7366657248656c7065723a205452414e534645525f4641494c4544006044820152606490fd5b600091906004614549849361453a6106999761452063a9059cbb6143c8565b9261452a60405190565b95869460208601908152016132fc565b60208201810382520382611c5a565b82602082019151925af161455b614452565b81614567575b5061449b565b8051909150614579611ffc6000610d2a565b14908115614589575b5038614561565b6145a391506020614598825190565b81830101910161447e565b38614582565b61066a61467261465361462261460260206145da61206e735e8422345238f34275888049021821e8e08caa1f61095a565b6370a082319061266973a1f8a6807c402e4a15ef4eba36528a3fed24e5779261265c60405190565b03915afa9081156146cb575b6000916146ad575b506120b9613f93614751565b602061464461206e73f43211935c781d5ca1a41d2041f397b8a7366c7a61095a565b6318160ddd9061208260405190565b825260049082905afa9182156146a0575b600092614680575b50611ff6565b6120b96402540be400610d2a565b61469991925060203d8111612107576120f78183611c5a565b903861466c565b6146a8611f63565b614664565b6146c5915060203d8111612107576120f78183611c5a565b38614616565b6146d3611f63565b61460e565b69ffffffffffffffffffff8116610685565b90505190610699826146d8565b919060a083820312614744575b61470e81846146ea565b9261471c8260208301611f39565b9261066a61472d8460408501611f39565b9361473b8160608601611f39565b936080016146ea565b61474c600080fd5b614704565b61477260a061476361206e6025611dd2565b63feaf968c9061280a60405190565b825260049082905afa801561484d575b600091829182918291614817575b5060009261479d84610d2a565b85129384156147fd575b505082156147e4575b50506147b95790565b6040517f8002905d000000000000000000000000000000000000000000000000000000008152600490fd5b69ffffffffffffffffffff9081169250161038806147b0565b9193509061480e90611ffc90610d2a565b149138806147a7565b9250505061483c915060a03d8111614846575b6148348183611c5a565b8101906146f7565b9193909293614790565b503d61482a565b614855611f63565b614782565b6106999061486f33613a0a6106516000611dd2565b61487c6106516000611f30565b73ffffffffffffffffffffffffffffffffffffffff8216146148ac576148a19061095a565b612e04816025612b22565b6040517f1e1d0ab5000000000000000000000000000000000000000000000000000000008152600490fd5b6106999061485a565b61066a60a0611ca7565b9061069961495460046148fb6148e0565b9461490c614908826112c0565b8752565b61492261491b600183016112c0565b6020880152565b614938614931600283016112c0565b6040880152565b61494e614947600383016112c0565b6060880152565b016112c0565b6080840152565b61066a906148ea565b90919061498661498060009461497b846022610a6b565b61127d565b5061495b565b926018906149976123ea8484610a6b565b60208601906149aa611ffc61066a845190565b1015614aa15751925b60608601926149c0845190565b4293908410614a6f57506149d7916123ea91610a6b565b6149e5611ffc61066a855190565b1015614a5c57614a096120d091612322614a04614a3a96612c34875190565b945190565b614a34614a26846126b4610825614a206002610d2a565b83611ff6565b61234c836126b46000610d2a565b926121ea565b915b6080810190614a4c61066a835190565b8411614a56575050565b50519150565b505050614a696000610d2a565b91614a3c565b61082594925061234c915092612c34614a92614a6997614a979650612c34865190565b935190565b6120d06002610d2a565b50614aaf6123ea8484610a6b565b926149b3565b600090601e90614ac86123ea8284610a6b565b93614ad282612771565b94859450614ae46123ea84601d610a6b565b9383600095614af5611ffc88610d2a565b149182614bd6575b50508015614bbc575b15614b9c579392935b614b1885610d2a565b9450845b6022614b3261066a614b2e8784610a6b565b5490565b871015614b92579061234c8561234c6125dd614b7a8c614b746040614b6e8f614b686149808261497b614b809f808e9150610a6b565b98614964565b96015190565b946121ea565b83611fa0565b93614b8a866121a7565b955093614b1c565b5093945094509050565b94614bb390614a979061234c6123ea86600c610a6b565b94939293614b0f565b50614bce61066a6123ea85600c610a6b565b861015614b06565b614be592506123ea9190610a6b565b614bf1611ffc86610d2a565b148338614afd565b90614c02825490565b614c0b8161214f565b92614c1f6020850191600052602060002090565b6000915b838310614c305750505050565b60056020600192614c408561495b565b815201920192019190614c23565b61066a90614bf9565b614c6e61066a91614c66606090565b506022610a6b565b614c4e565b614b2e61066a91614c66600090565b614c8c9190614cc4565b905090565b614c996148e0565b906000825260208080808086016000815201600081520160008152016000905250565b61066a614c91565b9091614cce614cbc565b91600080935b6022614ce661066a614b2e8684610a6b565b861015614d7c578590614d0c61066a6000614d058561497b8a87610a6b565b50016112c0565b8814614d24575050614d1d856121a7565b9450614cd4565b614d3a94614980945091925061497b9190610a6b565b925b614d4a611ffc611fa7865190565b03614d5157565b6040517fe6215fab000000000000000000000000000000000000000000000000000000008152600490fd5b509491509250614d3c565b90612fe391614d9660026112c0565b614da1612fc9612f36565b614dac816002612b61565b506106999190614dbd600133612d62565b614e8b565b61066a9060281c610651565b61066a9054614dc2565b507f4e487b7100000000000000000000000000000000000000000000000000000000600052600060045260246000fd5b90612b7161066a612b029290565b6106999190612c3990608090600490614e3781614e31875190565b90614e08565b614e4960018201612c39602088015190565b614e5b60028201612c39604088015190565b614e6d60038201612c39606088015190565b0192015190565b610699929115614e1657614e86614dd8565b614e16565b903390614e988383614cc4565b614ea783612d3f604085015190565b90600091614eb483610d2a565b85111561500f57614f4a8392614f3f89614f38614fbf98614947614f5297614ef48d8f614ee461206e6021614dce565b90614eee3061095a565b91615101565b614f31614f02602085015190565b614f2a614f1b6080614f15606089015190565b97015190565b97614f246148e0565b9d8e0152565b60208c0152565b60408a0152565b6080860152565b61497b886022610a6b565b819391614e74565b50614f6b614f6484612d3f601b6112c0565b601b612b61565b614f86614f7985601d610a6b565b612c3985612d3f836112c0565b614f8f84612748565b614f9b61065183611f30565b73ffffffffffffffffffffffffffffffffffffffff821603614ffb575b5083612d62565b614fe97f2640b32e7e5d0fa2a21ea06b22fbd75fda0fda384a895a5fdeef43646de47a0c9261095a565b92614ff6610e2860405190565b0390a2565b614f7961500991601f610a6b565b38614fb8565b6040517f063921df000000000000000000000000000000000000000000000000000000008152600490fd5b9061069991614d87565b73ffffffffffffffffffffffffffffffffffffffff9091168152606081019392610699929091604091610df990613158565b1561507d57565b6040517f08c379a0000000000000000000000000000000000000000000000000000000008152602060048201526024808201527f5472616e7366657248656c7065723a205452414e534645525f46524f4d5f464160448201527f494c4544000000000000000000000000000000000000000000000000000000006064820152608490fd5b600461513a6000949361453a6106999787966151206323b872dd6143c8565b9361512a60405190565b9687956020870190815201615044565b82602082019151925af161514c614452565b81615158575b50615076565b805190915061516a611ffc6000610d2a565b1490811561517a575b5038615152565b61518991506020614598825190565b38615173565b90612fe39161519e60026112c0565b6151a9612fc9612f36565b6151b4816002612b61565b5061069991906151c5600133612d62565b6151f7565b610df9610699946151f06060949897956151e9608086019a6000870152565b6020850152565b6040830152565b33906152038183614cc4565b4294919291858111156153a657606084018661521d825190565b6000908210156153945750612c34615233925190565b935b61524661524288846121dd565b9590565b8511156153695761525a61066a60086112c0565b851061533e5761526d61066a60076112c0565b8511615313576152ca614f4a614ff6946152bf61528c60408c96015190565b6152b46152988b61257b565b916149316152a46148e0565b986152ad8d8b52565b60208a0152565b614f38876060880152565b61497b896022610a6b565b506152d6600086612d62565b6153007fc2cf1aae6decacbc52f96b4e4fec96d4ebab5236e4ed987165537bc463014a439561095a565b9561530a60405190565b948594856151ca565b6040517f42d144ad000000000000000000000000000000000000000000000000000000008152600490fd5b6040517fda0f0f2a000000000000000000000000000000000000000000000000000000008152600490fd5b6040517fbdddfeec000000000000000000000000000000000000000000000000000000008152600490fd5b6153a092509050610d2a565b93615235565b6040517fa51620a7000000000000000000000000000000000000000000000000000000008152600490fd5b906106999161518f565b906130c992916153eb60026112c0565b6153f6612fc9612f36565b615401816002612b61565b505061066a91429133806155d1565b61066a919060006153db565b9061066a9594939291615430600183612d62565b61546a565b61066a9060181c610a8c565b61066a9054615435565b613175610699946151f06060949897956151e9608086019a6000870152565b50919390929061547a6021615441565b6155a65761548b61066a60086112c0565b821061533e5761549e61066a60076112c0565b8211615313576154df906154c3866154b961206e6021614dce565b87614eee3061095a565b6154cc8361257b565b90866154d885836121ea565b918661637d565b936154f1614f6482612d3f601b6112c0565b61550c6154ff84601d610a6b565b612c3983612d3f836112c0565b61554b61551884612748565b60009061552761065183611f30565b73ffffffffffffffffffffffffffffffffffffffff821603615592575b5084612d62565b61558c6155787ff400e72e69ef4402819dfc57eeddc66f5eb69bf405e0e8098b1946ec1ac14a229461095a565b948661558360405190565b9485948561544b565b0390a290565b614f796155a091601f610a6b565b38615544565b6040517f26d1807b000000000000000000000000000000000000000000000000000000008152600490fd5b61066a9493929190600061541c565b906130c992916155f060026112c0565b6155fb612fc9612f36565b615606816002612b61565b50615622565b61066a9060081c610a8c565b61066a905461560c565b5061562d6021615618565b6156376001613089565b146156465761066a9133615716565b6040517f6022a9e7000000000000000000000000000000000000000000000000000000008152600490fd5b61066a919060006155e0565b919061336f61066a612b029390565b6106999160009161567d565b6106999160009161335e565b60006004610699926156b88380830161568c565b6156c58360018301615698565b6156d28360028301615698565b6156df8360038301615698565b01615698565b61069991156156a4576156f6614dd8565b6156a4565b90815260608101939261069992909160409161317590611503565b600192916157258482846132ef565b506157308383614cc4565b9442615743611ffc61066a606086015190565b1015908115615895575b5061586a576040015193600061576281610d2a565b8611615771575b505050505090565b6158026157fc61580893615792898761578d61206e6021614dce565b614501565b6157a3614f648a612c34601b6112c0565b6157be6157b188601d610a6b565b612c398b612c34836112c0565b6157c787612748565b6157d361065186611f30565b73ffffffffffffffffffffffffffffffffffffffff821603615856575b5061497b876022610a6b565b906156e5565b83612d62565b6158327f1d9308f6b22a2754a1c622bb30889e8f8f956c83e524d039e9d65d5f052eb9089261095a565b9261584961583f60405190565b92839287846156fb565b0390a23880808080615769565b6157b161586491601f610a6b565b386157f0565b6040517f372a7fe5000000000000000000000000000000000000000000000000000000008152600490fd5b90506158ad6130896158a7602161273e565b92151590565b143861574d565b3360266158cc6123ea84610ab28761142e8787610a6b565b6158d9611ffc6000610d2a565b10156148ac5784612db684610ab28761142e876158f597610a6b565b61593c61593261592e6159287fa1376f00ce38a02643af0ff97dce59c2c81b4c8ad34c717ce9a44ed623e0718d9461095a565b9461095a565b9490565b9461082e60405190565b0390a4565b3392602661595a6123ea84610ab28761142e8a87610a6b565b615967611ffc6000610d2a565b11156159cc5782610ab28561142e886123ea95610ab2886159989950612c39612d3589610ab28961142e8989610a6b565b9261593c61593261592e6159287fa1376f00ce38a02643af0ff97dce59c2c81b4c8ad34c717ce9a44ed623e0718d9461095a565b6040517f34ed7e71000000000000000000000000000000000000000000000000000000008152600490fd5b6106b890610d2a565b60208101929161069991906159f7565b90600091615a1d83610d2a565b3390615a3681612db685610ab28861142e886026610a6b565b5061593c615a6a61592e6159287fa1376f00ce38a02643af0ff97dce59c2c81b4c8ad34c717ce9a44ed623e0718d9461095a565b94615a7460405190565b91829182615a00565b33615a9183612bbc84610ab2856027610a6b565b615ad1615ac7615ac17f17307eab39ab6107e8899845ad3d59bd9653f200f220920489ca2b5937696c319361095a565b9361095a565b936107d460405190565b0390a3565b615ae1816027610a6b565b90615af0612756338094610a6b565b15615afe5750505050600190565b6123ea611ffc92610ab2615b1a9561142e611fa7956026610a6b565b10615b2457600190565b600090565b90615b59969594939291615b3d60026112c0565b615b48612fc9612f36565b615b53816002612b61565b50615b63565b9091612feb612fa6565b969594939291965050615b7a612bb0848489615ad6565b615b995785615b95959650615b90848483615be6565b61630f565b9091565b5033612ad8615ba760405190565b9283927f01aca06d000000000000000000000000000000000000000000000000000000008452600484016132fc565b615b959493929190600080615b29565b91602690615bf88361142e8685610a6b565b90615c076123ea338094610a6b565b819003615c2f5750612db690610ab2612e049461142e615c276000610d2a565b978896610a6b565b929190615c476123ea82610ab28661142e8a88610a6b565b841015615c6557610ab2612c399361142e61069997612c2a95610a6b565b6040517f13be252b000000000000000000000000000000000000000000000000000000008152600490fd5b90615b599594939291615ca360026112c0565b615cae612fc9612f36565b615cb9816002612b61565b5050615b959493929190503361630f565b615b9593929190600080615c90565b90615b95969594939291615cee600184612d62565b90615b95969594939291615d03600185612d62565b615da7565b7fffffffff000000000000000000000000000000000000000000000000000000008116610685565b9050519061069982615d08565b9061066a9160208183031215615d3057615d55600080fd5b615d30565b73ffffffffffffffffffffffffffffffffffffffff91821681529116602082015261066a91608082019190615d8e906151f0565b60608183039101526000815260200190565b1561064c57565b509395949293509091600090823b615dc1611ffc84610d2a565b11616264575b615dd18584614cc4565b91615ddb84611f30565b9273ffffffffffffffffffffffffffffffffffffffff841673ffffffffffffffffffffffffffffffffffffffff881614801561622f575b6160515742906060840194615e2861066a875190565b8310158015616214575b61586a5760408501908c615e4a611ffc61066a855190565b1180156161ff575b6161d457615ef7918a8e8a615eeb611e4061066a968f615e98615e8b88601d610ab2615e7e8683610a6b565b612c398c612c34836112c0565b612c3988612d3f836112c0565b615ea181612748565b615ec073ffffffffffffffffffffffffffffffffffffffff8416611e40565b036161af575b50615ed086612748565b935073ffffffffffffffffffffffffffffffffffffffff1690565b0361618d575b50505190565b8b03616165576157fc615f0f9161497b896022610a6b565b615f1b61066a86610d2a565b82036160b75750506020939291615f519189615f4a6080615f44615f3f8a86015190565b955190565b93015190565b928861637d565b965b615f686001615f628186612d62565b86612d62565b7fd8413caab9b66d88aed167bb4f6b308542a6953a6a54e22f67c5271d34ef97be615f928461095a565b9087615f9d8861095a565b93615fab8c61152e60405190565b0390a3615fdd615fbd61206e8661095a565b9163c42d8b95615fe88a615fd060405190565b9889978896879560e01b90565b855260048501615d5a565b03925af19081156160aa575b60009161607c575b506160487fc42d8b95000000000000000000000000000000000000000000000000000000005b917fffffffff000000000000000000000000000000000000000000000000000000001690565b03616051579190565b6040517f1e4ec46b000000000000000000000000000000000000000000000000000000008152600490fd5b61609d915060203d81116160a3575b6160958183611c5a565b810190615d3d565b38615ffc565b503d61608b565b6160b2611f63565b615ff4565b602095949387929a936160ca8c85614cc4565b602293916160fc906060906160f760026160e88661497b8d8c610a6b565b5001612c398c612d3f836112c0565b015190565b61610a611ffc61066a855190565b1061611b575b505050505050615f53565b61497b61614a61082561615997612c346161529688600499508c615ef18c60036161528c61497b61614a895190565b968795610a6b565b5001612b61565b50843880808080616110565b60026161796161889261497b8a6022610a6b565b5001612c398c612c34836112c0565b615f0f565b612c39612d356161a8936161a2601f91612748565b90610a6b565b8a8e615ef1565b6161c16161ce916161a2601f91612748565b612c3987612c34836112c0565b8f615ec6565b6040517f2c5211c6000000000000000000000000000000000000000000000000000000008152600490fd5b508c61620d611ffc8a610d2a565b1115615e52565b5061621f602161273e565b6162296001613089565b14615e32565b5073ffffffffffffffffffffffffffffffffffffffff861673ffffffffffffffffffffffffffffffffffffffff881614615e12565b6162df616287602061627861206e8761095a565b634fb071059061280a60405190565b825281878161629b8d8d8d60048501615d5a565b03925af1908115616302575b6000916162e4575b506162d97f4fb0710500000000000000000000000000000000000000000000000000000000616022565b14615da0565b615dc7565b6162fc915060203d81116160a3576160958183611c5a565b386162af565b61630a611f63565b6162a7565b615b959493929190600080615cd9565b9261633c60206106bc9461633c60148861633c859b9a8699613598565b01918252565b9061636a6106999280549068010000000000000000821015616370575b60018201815561127d565b90614e74565b616378611c2a565b61635f565b94936164029061495461069995616392600090565b506163fb61388e6163c46163aa6123ea8d601d610a6b565b8c6163b460405190565b9384928c8c60208601948561631f565b6163d66163cf825190565b9160200190565b20966149316163ea61066a8a9d6022610a6b565b976152ad6163f66148e0565b9a8b52565b6060860152565b61634256fea26469706673582212201f21cbf5e569302a6533fd9e39060a21f4affc820c9c36fc12d153a4e0c923cc64736f6c63430008110033",
    "linkReferences": {}
  },
  "methodIdentifiers": {
    "acceptOwnership()": "79ba5097",
    "calcCurCombinedWeight(address)": "8bad86a7",
    "calcCurrLockMultiplier(address,uint256)": "774d4ae7",
    "changeTokenManager(address,address)": "de1a6551",
    "combinedWeightOf(address)": "36f89af2",
    "curvePool()": "218751b2",
    "curveToken()": "4f39059c",
    "earned(address)": "008cc262",
    "fraxPerLPStored()": "d2010fb4",
    "fraxPerLPToken()": "5bfd9258",
    "getAllRewardTokens()": "12edb24c",
    "getLatestETHPriceE8()": "bdb123e3",
    "getProxyFor(address)": "c3543826",
    "getReward(address)": "c00007b0",
    "getReward2(address,bool)": "7910d17b",
    "getRewardExtraLogic(address)": "387edc86",
    "getRewardForDuration()": "1c1f78eb",
    "getStake(address,bytes32)": "de57a5b5",
    "increaseAllowance(address,bytes32,uint256)": "733ff194",
    "isApproved(address,bytes32,uint256)": "061a7bf5",
    "isTokenManagerFor(address,address)": "231b68dc",
    "kekAllowance(address,bytes32,address)": "7ab44e40",
    "lastRewardClaimTime(address)": "6c430dbb",
    "lastUpdateTime()": "c8f33c91",
    "lockAdditional(bytes32,uint256)": "b85efd06",
    "lockLonger(bytes32,uint256)": "d2fbdc0d",
    "lockMultiplier(uint256)": "0d7bac4f",
    "lock_max_multiplier()": "cdc82e80",
    "lock_time_for_max_multiplier()": "b94c4dcb",
    "lock_time_min()": "6e27cef9",
    "lockedLiquidityOf(address)": "d9f96e8d",
    "lockedStakes(address,uint256)": "7970833e",
    "lockedStakesOf(address)": "1e090f01",
    "lockedStakesOfLength(address)": "ca6df29d",
    "maxLPForMaxBoost(address)": "a0f23476",
    "minVeFXSForMaxBoost(address)": "4fd2b536",
    "minVeFXSForMaxBoostProxy(address)": "7f472e54",
    "nominateNewOwner(address)": "1627540c",
    "nominatedOwner()": "53a47bb7",
    "owner()": "8da5cb5b",
    "periodFinish()": "ebe2b12b",
    "priceFeedETHUSD()": "15a202a1",
    "proxyStakedFrax(address)": "1face856",
    "proxyToggleStaker(address)": "e7f30582",
    "proxy_lp_balances(address)": "7d6ef08e",
    "recoverERC20(address,uint256)": "8980f11f",
    "removeAllowance(address,bytes32)": "b61aa08c",
    "rewardManagers(address)": "41a16f3f",
    "rewardRates(uint256)": "f2caeb1e",
    "rewardTokenAddrToIdx(address)": "69339245",
    "rewardsDuration()": "386a9525",
    "rewardsPerToken()": "70641a36",
    "setAllowance(address,bytes32,uint256)": "a10d3b33",
    "setApprovalForAll(address,bool)": "a22cb465",
    "setETHUSDOracle(address)": "741d3c18",
    "setMiscVariables(uint256[6])": "facefb64",
    "setPauses(bool,bool,bool)": "cc2abd64",
    "setRewardVars(address,uint256,address,address)": "d5e1a9c6",
    "spenderApprovalForAllLocks(address,address)": "1bcb7d90",
    "stakeLocked(uint256,uint256)": "17b18c89",
    "stakerSetVeFXSProxy(address)": "d7400d56",
    "staker_designated_proxies(address)": "28408bab",
    "stakesUnlocked()": "9637927f",
    "stakingToken()": "72f702f3",
    "sync()": "fff6cae9",
    "sync_gauge_weights(bool)": "f77e34d1",
    "toggleValidVeFXSProxy(address)": "91cf600a",
    "totalCombinedWeight()": "64f2c060",
    "totalLiquidityLocked()": "e01f62bf",
    "transferLocked(address,bytes32,uint256,bytes32)": "3c62c44f",
    "transferLockedFrom(address,address,bytes32,uint256,bytes32)": "663b135c",
    "unlockStakes()": "e1ba95d2",
    "updateRewardAndBalance(address,bool)": "55189773",
    "userStakedFrax(address)": "d42fc9b4",
    "veFXSMultiplier(address)": "2c0c2a0a",
    "vefxs_boost_scale_factor()": "aa1d4fce",
    "vefxs_max_multiplier()": "f288baf6",
    "vefxs_per_frax_for_max_boost()": "f2a8d349",
    "withdrawLocked(bytes32,address)": "e44b9fa5"
  },
  "id": 78
}