{
  "abi": [
    {
      "inputs": [
        {
          "internalType": "address",
          "name": "_owner",
          "type": "address"
        },
        {
          "internalType": "address[]",
          "name": "_rewardTokens",
          "type": "address[]"
        },
        {
          "internalType": "address[]",
          "name": "_rewardManagers",
          "type": "address[]"
        },
        {
          "internalType": "uint256[]",
          "name": "_rewardRatesManual",
          "type": "uint256[]"
        },
        {
          "internalType": "address[]",
          "name": "_gaugeControllers",
          "type": "address[]"
        },
        {
          "internalType": "address[]",
          "name": "_rewardDistributors",
          "type": "address[]"
        },
        {
          "internalType": "address",
          "name": "_stakingToken",
          "type": "address"
        }
      ],
      "stateMutability": "nonpayable",
      "type": "constructor"
    },
    {
      "inputs": [],
      "name": "CannotShortenLockTime",
      "type": "error"
    },
    {
      "inputs": [],
      "name": "InsufficientAllowance",
      "type": "error"
    },
    {
      "inputs": [],
      "name": "InvalidAmount",
      "type": "error"
    },
    {
      "inputs": [],
      "name": "InvalidReceiver",
      "type": "error"
    },
    {
      "inputs": [],
      "name": "MinimumStakeTimeNotMet",
      "type": "error"
    },
    {
      "inputs": [],
      "name": "MustBeInTheFuture",
      "type": "error"
    },
    {
      "inputs": [],
      "name": "MustBePositive",
      "type": "error"
    },
    {
      "inputs": [],
      "name": "StakerNotFound",
      "type": "error"
    },
    {
      "inputs": [],
      "name": "StakesUnlocked",
      "type": "error"
    },
    {
      "inputs": [],
      "name": "StakingPaused",
      "type": "error"
    },
    {
      "inputs": [
        {
          "internalType": "address",
          "name": "spender",
          "type": "address"
        },
        {
          "internalType": "bytes32",
          "name": "kek_id",
          "type": "bytes32"
        }
      ],
      "name": "TransferLockNotAllowed",
      "type": "error"
    },
    {
      "inputs": [],
      "name": "TryingToLockForTooLong",
      "type": "error"
    },
    {
      "inputs": [],
      "name": "WithdrawalsPaused",
      "type": "error"
    },
    {
      "anonymous": false,
      "inputs": [
        {
          "indexed": true,
          "internalType": "address",
          "name": "staker",
          "type": "address"
        },
        {
          "indexed": true,
          "internalType": "address",
          "name": "spender",
          "type": "address"
        },
        {
          "indexed": true,
          "internalType": "bytes32",
          "name": "kek_id",
          "type": "bytes32"
        },
        {
          "indexed": false,
          "internalType": "uint256",
          "name": "amount",
          "type": "uint256"
        }
      ],
      "name": "Approval",
      "type": "event"
    },
    {
      "anonymous": false,
      "inputs": [
        {
          "indexed": true,
          "internalType": "address",
          "name": "owner",
          "type": "address"
        },
        {
          "indexed": true,
          "internalType": "address",
          "name": "spender",
          "type": "address"
        },
        {
          "indexed": false,
          "internalType": "bool",
          "name": "approved",
          "type": "bool"
        }
      ],
      "name": "ApprovalForAll",
      "type": "event"
    },
    {
      "anonymous": false,
      "inputs": [
        {
          "indexed": true,
          "internalType": "address",
          "name": "user",
          "type": "address"
        },
        {
          "indexed": false,
          "internalType": "bytes32",
          "name": "kek_id",
          "type": "bytes32"
        },
        {
          "indexed": false,
          "internalType": "uint256",
          "name": "amount",
          "type": "uint256"
        }
      ],
      "name": "LockedAdditional",
      "type": "event"
    },
    {
      "anonymous": false,
      "inputs": [
        {
          "indexed": true,
          "internalType": "address",
          "name": "user",
          "type": "address"
        },
        {
          "indexed": false,
          "internalType": "bytes32",
          "name": "kek_id",
          "type": "bytes32"
        },
        {
          "indexed": false,
          "internalType": "uint256",
          "name": "new_secs",
          "type": "uint256"
        },
        {
          "indexed": false,
          "internalType": "uint256",
          "name": "new_start_ts",
          "type": "uint256"
        },
        {
          "indexed": false,
          "internalType": "uint256",
          "name": "new_end_ts",
          "type": "uint256"
        }
      ],
      "name": "LockedLonger",
      "type": "event"
    },
    {
      "anonymous": false,
      "inputs": [
        {
          "indexed": false,
          "internalType": "address",
          "name": "oldOwner",
          "type": "address"
        },
        {
          "indexed": false,
          "internalType": "address",
          "name": "newOwner",
          "type": "address"
        }
      ],
      "name": "OwnerChanged",
      "type": "event"
    },
    {
      "anonymous": false,
      "inputs": [
        {
          "indexed": false,
          "internalType": "address",
          "name": "newOwner",
          "type": "address"
        }
      ],
      "name": "OwnerNominated",
      "type": "event"
    },
    {
      "anonymous": false,
      "inputs": [
        {
          "indexed": true,
          "internalType": "address",
          "name": "user",
          "type": "address"
        },
        {
          "indexed": false,
          "internalType": "uint256",
          "name": "amount",
          "type": "uint256"
        },
        {
          "indexed": false,
          "internalType": "address",
          "name": "token_address",
          "type": "address"
        },
        {
          "indexed": false,
          "internalType": "address",
          "name": "destination_address",
          "type": "address"
        }
      ],
      "name": "RewardPaid",
      "type": "event"
    },
    {
      "anonymous": false,
      "inputs": [
        {
          "indexed": true,
          "internalType": "address",
          "name": "user",
          "type": "address"
        },
        {
          "indexed": false,
          "internalType": "uint256",
          "name": "amount",
          "type": "uint256"
        },
        {
          "indexed": false,
          "internalType": "uint256",
          "name": "secs",
          "type": "uint256"
        },
        {
          "indexed": false,
          "internalType": "bytes32",
          "name": "kek_id",
          "type": "bytes32"
        },
        {
          "indexed": false,
          "internalType": "address",
          "name": "source_address",
          "type": "address"
        }
      ],
      "name": "StakeLocked",
      "type": "event"
    },
    {
      "anonymous": false,
      "inputs": [
        {
          "indexed": true,
          "internalType": "address",
          "name": "sender_address",
          "type": "address"
        },
        {
          "indexed": true,
          "internalType": "address",
          "name": "destination_address",
          "type": "address"
        },
        {
          "indexed": false,
          "internalType": "uint256",
          "name": "amount_transferred",
          "type": "uint256"
        },
        {
          "indexed": false,
          "internalType": "bytes32",
          "name": "source_kek_id",
          "type": "bytes32"
        },
        {
          "indexed": false,
          "internalType": "bytes32",
          "name": "destination_kek_id",
          "type": "bytes32"
        }
      ],
      "name": "TransferLocked",
      "type": "event"
    },
    {
      "anonymous": false,
      "inputs": [
        {
          "indexed": true,
          "internalType": "address",
          "name": "user",
          "type": "address"
        },
        {
          "indexed": false,
          "internalType": "uint256",
          "name": "liquidity",
          "type": "uint256"
        },
        {
          "indexed": false,
          "internalType": "bytes32",
          "name": "kek_id",
          "type": "bytes32"
        },
        {
          "indexed": false,
          "internalType": "address",
          "name": "destination_address",
          "type": "address"
        }
      ],
      "name": "WithdrawLocked",
      "type": "event"
    },
    {
      "inputs": [],
      "name": "acceptOwnership",
      "outputs": [],
      "stateMutability": "nonpayable",
      "type": "function"
    },
    {
      "inputs": [
        {
          "internalType": "address",
          "name": "account",
          "type": "address"
        }
      ],
      "name": "calcCurCombinedWeight",
      "outputs": [
        {
          "internalType": "uint256",
          "name": "old_combined_weight",
          "type": "uint256"
        },
        {
          "internalType": "uint256",
          "name": "new_vefxs_multiplier",
          "type": "uint256"
        },
        {
          "internalType": "uint256",
          "name": "new_combined_weight",
          "type": "uint256"
        }
      ],
      "stateMutability": "view",
      "type": "function"
    },
    {
      "inputs": [
        {
          "internalType": "address",
          "name": "account",
          "type": "address"
        },
        {
          "internalType": "uint256",
          "name": "stake_idx",
          "type": "uint256"
        }
      ],
      "name": "calcCurrLockMultiplier",
      "outputs": [
        {
          "internalType": "uint256",
          "name": "midpoint_lock_multiplier",
          "type": "uint256"
        }
      ],
      "stateMutability": "view",
      "type": "function"
    },
    {
      "inputs": [
        {
          "internalType": "address",
          "name": "reward_token_address",
          "type": "address"
        },
        {
          "internalType": "address",
          "name": "new_manager_address",
          "type": "address"
        }
      ],
      "name": "changeTokenManager",
      "outputs": [],
      "stateMutability": "nonpayable",
      "type": "function"
    },
    {
      "inputs": [
        {
          "internalType": "address",
          "name": "account",
          "type": "address"
        }
      ],
      "name": "combinedWeightOf",
      "outputs": [
        {
          "internalType": "uint256",
          "name": "",
          "type": "uint256"
        }
      ],
      "stateMutability": "view",
      "type": "function"
    },
    {
      "inputs": [],
      "name": "curvePool",
      "outputs": [
        {
          "internalType": "contract ICurvefrxETHETHPool",
          "name": "",
          "type": "address"
        }
      ],
      "stateMutability": "view",
      "type": "function"
    },
    {
      "inputs": [],
      "name": "curveToken",
      "outputs": [
        {
          "internalType": "contract I2poolToken",
          "name": "",
          "type": "address"
        }
      ],
      "stateMutability": "view",
      "type": "function"
    },
    {
      "inputs": [
        {
          "internalType": "address",
          "name": "account",
          "type": "address"
        }
      ],
      "name": "earned",
      "outputs": [
        {
          "internalType": "uint256[]",
          "name": "new_earned",
          "type": "uint256[]"
        }
      ],
      "stateMutability": "view",
      "type": "function"
    },
    {
      "inputs": [],
      "name": "fraxPerLPStored",
      "outputs": [
        {
          "internalType": "uint256",
          "name": "",
          "type": "uint256"
        }
      ],
      "stateMutability": "view",
      "type": "function"
    },
    {
      "inputs": [],
      "name": "fraxPerLPToken",
      "outputs": [
        {
          "internalType": "uint256",
          "name": "",
          "type": "uint256"
        }
      ],
      "stateMutability": "view",
      "type": "function"
    },
    {
      "inputs": [],
      "name": "getAllRewardTokens",
      "outputs": [
        {
          "internalType": "address[]",
          "name": "",
          "type": "address[]"
        }
      ],
      "stateMutability": "view",
      "type": "function"
    },
    {
      "inputs": [],
      "name": "getLatestETHPriceE8",
      "outputs": [
        {
          "internalType": "int256",
          "name": "",
          "type": "int256"
        }
      ],
      "stateMutability": "view",
      "type": "function"
    },
    {
      "inputs": [
        {
          "internalType": "address",
          "name": "addr",
          "type": "address"
        }
      ],
      "name": "getProxyFor",
      "outputs": [
        {
          "internalType": "address",
          "name": "",
          "type": "address"
        }
      ],
      "stateMutability": "view",
      "type": "function"
    },
    {
      "inputs": [
        {
          "internalType": "address",
          "name": "destination_address",
          "type": "address"
        }
      ],
      "name": "getReward",
      "outputs": [
        {
          "internalType": "uint256[]",
          "name": "",
          "type": "uint256[]"
        }
      ],
      "stateMutability": "nonpayable",
      "type": "function"
    },
    {
      "inputs": [
        {
          "internalType": "address",
          "name": "destination_address",
          "type": "address"
        },
        {
          "internalType": "bool",
          "name": "claim_extra_too",
          "type": "bool"
        }
      ],
      "name": "getReward2",
      "outputs": [
        {
          "internalType": "uint256[]",
          "name": "",
          "type": "uint256[]"
        }
      ],
      "stateMutability": "nonpayable",
      "type": "function"
    },
    {
      "inputs": [
        {
          "internalType": "address",
          "name": "destination_address",
          "type": "address"
        }
      ],
      "name": "getRewardExtraLogic",
      "outputs": [],
      "stateMutability": "nonpayable",
      "type": "function"
    },
    {
      "inputs": [],
      "name": "getRewardForDuration",
      "outputs": [
        {
          "internalType": "uint256[]",
          "name": "rewards_per_duration_arr",
          "type": "uint256[]"
        }
      ],
      "stateMutability": "view",
      "type": "function"
    },
    {
      "inputs": [
        {
          "internalType": "address",
          "name": "staker_address",
          "type": "address"
        },
        {
          "internalType": "bytes32",
          "name": "kek_id",
          "type": "bytes32"
        }
      ],
      "name": "getStake",
      "outputs": [
        {
          "internalType": "uint256",
          "name": "arr_idx",
          "type": "uint256"
        }
      ],
      "stateMutability": "view",
      "type": "function"
    },
    {
      "inputs": [
        {
          "internalType": "address",
          "name": "staker",
          "type": "address"
        },
        {
          "internalType": "bytes32",
          "name": "kek_id",
          "type": "bytes32"
        },
        {
          "internalType": "uint256",
          "name": "amount",
          "type": "uint256"
        }
      ],
      "name": "isApproved",
      "outputs": [
        {
          "internalType": "bool",
          "name": "",
          "type": "bool"
        }
      ],
      "stateMutability": "view",
      "type": "function"
    },
    {
      "inputs": [
        {
          "internalType": "address",
          "name": "caller_addr",
          "type": "address"
        },
        {
          "internalType": "address",
          "name": "reward_token_addr",
          "type": "address"
        }
      ],
      "name": "isTokenManagerFor",
      "outputs": [
        {
          "internalType": "bool",
          "name": "",
          "type": "bool"
        }
      ],
      "stateMutability": "view",
      "type": "function"
    },
    {
      "inputs": [
        {
          "internalType": "address",
          "name": "",
          "type": "address"
        },
        {
          "internalType": "bytes32",
          "name": "",
          "type": "bytes32"
        },
        {
          "internalType": "address",
          "name": "",
          "type": "address"
        }
      ],
      "name": "kekAllowance",
      "outputs": [
        {
          "internalType": "uint256",
          "name": "",
          "type": "uint256"
        }
      ],
      "stateMutability": "view",
      "type": "function"
    },
    {
      "inputs": [
        {
          "internalType": "address",
          "name": "",
          "type": "address"
        }
      ],
      "name": "lastRewardClaimTime",
      "outputs": [
        {
          "internalType": "uint256",
          "name": "",
          "type": "uint256"
        }
      ],
      "stateMutability": "view",
      "type": "function"
    },
    {
      "inputs": [],
      "name": "lastUpdateTime",
      "outputs": [
        {
          "internalType": "uint256",
          "name": "",
          "type": "uint256"
        }
      ],
      "stateMutability": "view",
      "type": "function"
    },
    {
      "inputs": [
        {
          "internalType": "bytes32",
          "name": "kek_id",
          "type": "bytes32"
        },
        {
          "internalType": "uint256",
          "name": "addl_liq",
          "type": "uint256"
        }
      ],
      "name": "lockAdditional",
      "outputs": [],
      "stateMutability": "nonpayable",
      "type": "function"
    },
    {
      "inputs": [
        {
          "internalType": "bytes32",
          "name": "kek_id",
          "type": "bytes32"
        },
        {
          "internalType": "uint256",
          "name": "new_ending_ts",
          "type": "uint256"
        }
      ],
      "name": "lockLonger",
      "outputs": [],
      "stateMutability": "nonpayable",
      "type": "function"
    },
    {
      "inputs": [
        {
          "internalType": "uint256",
          "name": "secs",
          "type": "uint256"
        }
      ],
      "name": "lockMultiplier",
      "outputs": [
        {
          "internalType": "uint256",
          "name": "",
          "type": "uint256"
        }
      ],
      "stateMutability": "view",
      "type": "function"
    },
    {
      "inputs": [],
      "name": "lock_max_multiplier",
      "outputs": [
        {
          "internalType": "uint256",
          "name": "",
          "type": "uint256"
        }
      ],
      "stateMutability": "view",
      "type": "function"
    },
    {
      "inputs": [],
      "name": "lock_time_for_max_multiplier",
      "outputs": [
        {
          "internalType": "uint256",
          "name": "",
          "type": "uint256"
        }
      ],
      "stateMutability": "view",
      "type": "function"
    },
    {
      "inputs": [],
      "name": "lock_time_min",
      "outputs": [
        {
          "internalType": "uint256",
          "name": "",
          "type": "uint256"
        }
      ],
      "stateMutability": "view",
      "type": "function"
    },
    {
      "inputs": [
        {
          "internalType": "address",
          "name": "account",
          "type": "address"
        }
      ],
      "name": "lockedLiquidityOf",
      "outputs": [
        {
          "internalType": "uint256",
          "name": "",
          "type": "uint256"
        }
      ],
      "stateMutability": "view",
      "type": "function"
    },
    {
      "inputs": [
        {
          "internalType": "address",
          "name": "",
          "type": "address"
        },
        {
          "internalType": "uint256",
          "name": "",
          "type": "uint256"
        }
      ],
      "name": "lockedStakes",
      "outputs": [
        {
          "internalType": "bytes32",
          "name": "kek_id",
          "type": "bytes32"
        },
        {
          "internalType": "uint256",
          "name": "start_timestamp",
          "type": "uint256"
        },
        {
          "internalType": "uint256",
          "name": "liquidity",
          "type": "uint256"
        },
        {
          "internalType": "uint256",
          "name": "ending_timestamp",
          "type": "uint256"
        },
        {
          "internalType": "uint256",
          "name": "lock_multiplier",
          "type": "uint256"
        }
      ],
      "stateMutability": "view",
      "type": "function"
    },
    {
      "inputs": [
        {
          "internalType": "address",
          "name": "account",
          "type": "address"
        }
      ],
      "name": "lockedStakesOf",
      "outputs": [
        {
          "components": [
            {
              "internalType": "bytes32",
              "name": "kek_id",
              "type": "bytes32"
            },
            {
              "internalType": "uint256",
              "name": "start_timestamp",
              "type": "uint256"
            },
            {
              "internalType": "uint256",
              "name": "liquidity",
              "type": "uint256"
            },
            {
              "internalType": "uint256",
              "name": "ending_timestamp",
              "type": "uint256"
            },
            {
              "internalType": "uint256",
              "name": "lock_multiplier",
              "type": "uint256"
            }
          ],
          "internalType": "struct FraxUnifiedFarm_ERC20.LockedStake[]",
          "name": "",
          "type": "tuple[]"
        }
      ],
      "stateMutability": "view",
      "type": "function"
    },
    {
      "inputs": [
        {
          "internalType": "address",
          "name": "account",
          "type": "address"
        }
      ],
      "name": "lockedStakesOfLength",
      "outputs": [
        {
          "internalType": "uint256",
          "name": "",
          "type": "uint256"
        }
      ],
      "stateMutability": "view",
      "type": "function"
    },
    {
      "inputs": [
        {
          "internalType": "address",
          "name": "account",
          "type": "address"
        }
      ],
      "name": "maxLPForMaxBoost",
      "outputs": [
        {
          "internalType": "uint256",
          "name": "",
          "type": "uint256"
        }
      ],
      "stateMutability": "view",
      "type": "function"
    },
    {
      "inputs": [
        {
          "internalType": "address",
          "name": "account",
          "type": "address"
        }
      ],
      "name": "minVeFXSForMaxBoost",
      "outputs": [
        {
          "internalType": "uint256",
          "name": "",
          "type": "uint256"
        }
      ],
      "stateMutability": "view",
      "type": "function"
    },
    {
      "inputs": [
        {
          "internalType": "address",
          "name": "proxy_address",
          "type": "address"
        }
      ],
      "name": "minVeFXSForMaxBoostProxy",
      "outputs": [
        {
          "internalType": "uint256",
          "name": "",
          "type": "uint256"
        }
      ],
      "stateMutability": "view",
      "type": "function"
    },
    {
      "inputs": [
        {
          "internalType": "address",
          "name": "_owner",
          "type": "address"
        }
      ],
      "name": "nominateNewOwner",
      "outputs": [],
      "stateMutability": "nonpayable",
      "type": "function"
    },
    {
      "inputs": [],
      "name": "nominatedOwner",
      "outputs": [
        {
          "internalType": "address",
          "name": "",
          "type": "address"
        }
      ],
      "stateMutability": "view",
      "type": "function"
    },
    {
      "inputs": [],
      "name": "owner",
      "outputs": [
        {
          "internalType": "address",
          "name": "",
          "type": "address"
        }
      ],
      "stateMutability": "view",
      "type": "function"
    },
    {
      "inputs": [],
      "name": "periodFinish",
      "outputs": [
        {
          "internalType": "uint256",
          "name": "",
          "type": "uint256"
        }
      ],
      "stateMutability": "view",
      "type": "function"
    },
    {
      "inputs": [],
      "name": "priceFeedETHUSD",
      "outputs": [
        {
          "internalType": "contract AggregatorV3Interface",
          "name": "",
          "type": "address"
        }
      ],
      "stateMutability": "view",
      "type": "function"
    },
    {
      "inputs": [
        {
          "internalType": "address",
          "name": "proxy_address",
          "type": "address"
        }
      ],
      "name": "proxyStakedFrax",
      "outputs": [
        {
          "internalType": "uint256",
          "name": "",
          "type": "uint256"
        }
      ],
      "stateMutability": "view",
      "type": "function"
    },
    {
      "inputs": [
        {
          "internalType": "address",
          "name": "staker_address",
          "type": "address"
        }
      ],
      "name": "proxyToggleStaker",
      "outputs": [],
      "stateMutability": "nonpayable",
      "type": "function"
    },
    {
      "inputs": [
        {
          "internalType": "address",
          "name": "",
          "type": "address"
        }
      ],
      "name": "proxy_lp_balances",
      "outputs": [
        {
          "internalType": "uint256",
          "name": "",
          "type": "uint256"
        }
      ],
      "stateMutability": "view",
      "type": "function"
    },
    {
      "inputs": [
        {
          "internalType": "address",
          "name": "tokenAddress",
          "type": "address"
        },
        {
          "internalType": "uint256",
          "name": "tokenAmount",
          "type": "uint256"
        }
      ],
      "name": "recoverERC20",
      "outputs": [],
      "stateMutability": "nonpayable",
      "type": "function"
    },
    {
      "inputs": [
        {
          "internalType": "address",
          "name": "spender",
          "type": "address"
        },
        {
          "internalType": "bytes32",
          "name": "kek_id",
          "type": "bytes32"
        }
      ],
      "name": "removeAllowance",
      "outputs": [],
      "stateMutability": "nonpayable",
      "type": "function"
    },
    {
      "inputs": [
        {
          "internalType": "address",
          "name": "",
          "type": "address"
        }
      ],
      "name": "rewardManagers",
      "outputs": [
        {
          "internalType": "address",
          "name": "",
          "type": "address"
        }
      ],
      "stateMutability": "view",
      "type": "function"
    },
    {
      "inputs": [
        {
          "internalType": "uint256",
          "name": "token_idx",
          "type": "uint256"
        }
      ],
      "name": "rewardRates",
      "outputs": [
        {
          "internalType": "uint256",
          "name": "rwd_rate",
          "type": "uint256"
        }
      ],
      "stateMutability": "view",
      "type": "function"
    },
    {
      "inputs": [
        {
          "internalType": "address",
          "name": "",
          "type": "address"
        }
      ],
      "name": "rewardTokenAddrToIdx",
      "outputs": [
        {
          "internalType": "uint256",
          "name": "",
          "type": "uint256"
        }
      ],
      "stateMutability": "view",
      "type": "function"
    },
    {
      "inputs": [],
      "name": "rewardsDuration",
      "outputs": [
        {
          "internalType": "uint256",
          "name": "",
          "type": "uint256"
        }
      ],
      "stateMutability": "view",
      "type": "function"
    },
    {
      "inputs": [],
      "name": "rewardsPerToken",
      "outputs": [
        {
          "internalType": "uint256[]",
          "name": "newRewardsPerTokenStored",
          "type": "uint256[]"
        }
      ],
      "stateMutability": "view",
      "type": "function"
    },
    {
      "inputs": [
        {
          "internalType": "address",
          "name": "spender",
          "type": "address"
        },
        {
          "internalType": "bytes32",
          "name": "kek_id",
          "type": "bytes32"
        },
        {
          "internalType": "uint256",
          "name": "amount",
          "type": "uint256"
        }
      ],
      "name": "setAllowance",
      "outputs": [],
      "stateMutability": "nonpayable",
      "type": "function"
    },
    {
      "inputs": [
        {
          "internalType": "address",
          "name": "spender",
          "type": "address"
        },
        {
          "internalType": "bool",
          "name": "approved",
          "type": "bool"
        }
      ],
      "name": "setApprovalForAll",
      "outputs": [],
      "stateMutability": "nonpayable",
      "type": "function"
    },
    {
      "inputs": [
        {
          "internalType": "address",
          "name": "_eth_usd_oracle_address",
          "type": "address"
        }
      ],
      "name": "setETHUSDOracle",
      "outputs": [],
      "stateMutability": "nonpayable",
      "type": "function"
    },
    {
      "inputs": [
        {
          "internalType": "uint256[6]",
          "name": "_misc_vars",
          "type": "uint256[6]"
        }
      ],
      "name": "setMiscVariables",
      "outputs": [],
      "stateMutability": "nonpayable",
      "type": "function"
    },
    {
      "inputs": [
        {
          "internalType": "bool",
          "name": "_stakingPaused",
          "type": "bool"
        },
        {
          "internalType": "bool",
          "name": "_withdrawalsPaused",
          "type": "bool"
        },
        {
          "internalType": "bool",
          "name": "_rewardsCollectionPaused",
          "type": "bool"
        }
      ],
      "name": "setPauses",
      "outputs": [],
      "stateMutability": "nonpayable",
      "type": "function"
    },
    {
      "inputs": [
        {
          "internalType": "address",
          "name": "reward_token_address",
          "type": "address"
        },
        {
          "internalType": "uint256",
          "name": "_new_rate",
          "type": "uint256"
        },
        {
          "internalType": "address",
          "name": "_gauge_controller_address",
          "type": "address"
        },
        {
          "internalType": "address",
          "name": "_rewards_distributor_address",
          "type": "address"
        }
      ],
      "name": "setRewardVars",
      "outputs": [],
      "stateMutability": "nonpayable",
      "type": "function"
    },
    {
      "inputs": [
        {
          "internalType": "address",
          "name": "",
          "type": "address"
        },
        {
          "internalType": "address",
          "name": "",
          "type": "address"
        }
      ],
      "name": "spenderApprovalForAllLocks",
      "outputs": [
        {
          "internalType": "bool",
          "name": "",
          "type": "bool"
        }
      ],
      "stateMutability": "view",
      "type": "function"
    },
    {
      "inputs": [
        {
          "internalType": "uint256",
          "name": "liquidity",
          "type": "uint256"
        },
        {
          "internalType": "uint256",
          "name": "secs",
          "type": "uint256"
        }
      ],
      "name": "stakeLocked",
      "outputs": [
        {
          "internalType": "bytes32",
          "name": "",
          "type": "bytes32"
        }
      ],
      "stateMutability": "nonpayable",
      "type": "function"
    },
    {
      "inputs": [
        {
          "internalType": "address",
          "name": "proxy_address",
          "type": "address"
        }
      ],
      "name": "stakerSetVeFXSProxy",
      "outputs": [],
      "stateMutability": "nonpayable",
      "type": "function"
    },
    {
      "inputs": [
        {
          "internalType": "address",
          "name": "",
          "type": "address"
        }
      ],
      "name": "staker_designated_proxies",
      "outputs": [
        {
          "internalType": "address",
          "name": "",
          "type": "address"
        }
      ],
      "stateMutability": "view",
      "type": "function"
    },
    {
      "inputs": [],
      "name": "stakesUnlocked",
      "outputs": [
        {
          "internalType": "bool",
          "name": "",
          "type": "bool"
        }
      ],
      "stateMutability": "view",
      "type": "function"
    },
    {
      "inputs": [],
      "name": "stakingToken",
      "outputs": [
        {
          "internalType": "contract IConvexStakingWrapperFrax",
          "name": "",
          "type": "address"
        }
      ],
      "stateMutability": "view",
      "type": "function"
    },
    {
      "inputs": [],
      "name": "sync",
      "outputs": [],
      "stateMutability": "nonpayable",
      "type": "function"
    },
    {
      "inputs": [
        {
          "internalType": "bool",
          "name": "force_update",
          "type": "bool"
        }
      ],
      "name": "sync_gauge_weights",
      "outputs": [],
      "stateMutability": "nonpayable",
      "type": "function"
    },
    {
      "inputs": [
        {
          "internalType": "address",
          "name": "_proxy_addr",
          "type": "address"
        }
      ],
      "name": "toggleValidVeFXSProxy",
      "outputs": [],
      "stateMutability": "nonpayable",
      "type": "function"
    },
    {
      "inputs": [],
      "name": "totalCombinedWeight",
      "outputs": [
        {
          "internalType": "uint256",
          "name": "",
          "type": "uint256"
        }
      ],
      "stateMutability": "view",
      "type": "function"
    },
    {
      "inputs": [],
      "name": "totalLiquidityLocked",
      "outputs": [
        {
          "internalType": "uint256",
          "name": "",
          "type": "uint256"
        }
      ],
      "stateMutability": "view",
      "type": "function"
    },
    {
      "inputs": [
        {
          "internalType": "address",
          "name": "receiver_address",
          "type": "address"
        },
        {
          "internalType": "bytes32",
          "name": "source_kek_id",
          "type": "bytes32"
        },
        {
          "internalType": "uint256",
          "name": "transfer_amount",
          "type": "uint256"
        },
        {
          "internalType": "bytes32",
          "name": "destination_kek_id",
          "type": "bytes32"
        }
      ],
      "name": "transferLocked",
      "outputs": [
        {
          "internalType": "bytes32",
          "name": "",
          "type": "bytes32"
        },
        {
          "internalType": "bytes32",
          "name": "",
          "type": "bytes32"
        }
      ],
      "stateMutability": "nonpayable",
      "type": "function"
    },
    {
      "inputs": [
        {
          "internalType": "address",
          "name": "sender_address",
          "type": "address"
        },
        {
          "internalType": "address",
          "name": "receiver_address",
          "type": "address"
        },
        {
          "internalType": "bytes32",
          "name": "source_kek_id",
          "type": "bytes32"
        },
        {
          "internalType": "uint256",
          "name": "transfer_amount",
          "type": "uint256"
        },
        {
          "internalType": "bytes32",
          "name": "destination_kek_id",
          "type": "bytes32"
        }
      ],
      "name": "transferLockedFrom",
      "outputs": [
        {
          "internalType": "bytes32",
          "name": "",
          "type": "bytes32"
        },
        {
          "internalType": "bytes32",
          "name": "",
          "type": "bytes32"
        }
      ],
      "stateMutability": "nonpayable",
      "type": "function"
    },
    {
      "inputs": [],
      "name": "unlockStakes",
      "outputs": [],
      "stateMutability": "nonpayable",
      "type": "function"
    },
    {
      "inputs": [
        {
          "internalType": "address",
          "name": "account",
          "type": "address"
        },
        {
          "internalType": "bool",
          "name": "sync_too",
          "type": "bool"
        }
      ],
      "name": "updateRewardAndBalance",
      "outputs": [],
      "stateMutability": "nonpayable",
      "type": "function"
    },
    {
      "inputs": [
        {
          "internalType": "address",
          "name": "account",
          "type": "address"
        }
      ],
      "name": "userStakedFrax",
      "outputs": [
        {
          "internalType": "uint256",
          "name": "",
          "type": "uint256"
        }
      ],
      "stateMutability": "view",
      "type": "function"
    },
    {
      "inputs": [
        {
          "internalType": "address",
          "name": "account",
          "type": "address"
        }
      ],
      "name": "veFXSMultiplier",
      "outputs": [
        {
          "internalType": "uint256",
          "name": "vefxs_multiplier",
          "type": "uint256"
        }
      ],
      "stateMutability": "view",
      "type": "function"
    },
    {
      "inputs": [],
      "name": "vefxs_boost_scale_factor",
      "outputs": [
        {
          "internalType": "uint256",
          "name": "",
          "type": "uint256"
        }
      ],
      "stateMutability": "view",
      "type": "function"
    },
    {
      "inputs": [],
      "name": "vefxs_max_multiplier",
      "outputs": [
        {
          "internalType": "uint256",
          "name": "",
          "type": "uint256"
        }
      ],
      "stateMutability": "view",
      "type": "function"
    },
    {
      "inputs": [],
      "name": "vefxs_per_frax_for_max_boost",
      "outputs": [
        {
          "internalType": "uint256",
          "name": "",
          "type": "uint256"
        }
      ],
      "stateMutability": "view",
      "type": "function"
    },
    {
      "inputs": [
        {
          "internalType": "bytes32",
          "name": "kek_id",
          "type": "bytes32"
        },
        {
          "internalType": "address",
          "name": "destination_address",
          "type": "address"
        }
      ],
      "name": "withdrawLocked",
      "outputs": [
        {
          "internalType": "uint256",
          "name": "",
          "type": "uint256"
        }
      ],
      "stateMutability": "nonpayable",
      "type": "function"
    }
  ],
  "bytecode": {
    "object": "0x60c0604052346200005c575b620000266200001962000386565b9594909493919362000445565b6040516172ed62000c2b82396080518181816125c501528181612761015281816127fc015261296e015260a0518150506172ed90f35b62000065600080fd5b6200000b565b600080fd5b50634e487b7160e01b600052604160045260246000fd5b90601f01601f191681019081106001600160401b03821117620000a957604052565b620000b362000070565b604052565b90620000cf620000c760405190565b928362000087565b565b6001600160a01b031690565b90565b6001600160a01b0381165b036200006b57565b90505190620000cf82620000e0565b60209081906001600160401b0381116200011b57020190565b6200012562000070565b020190565b90929192620001436200013d8262000102565b620000b8565b938185526020808601920283019281841162000186575b915b8383106200016a5750505050565b602080916200017a8486620000f3565b8152019201916200015c565b6200018f600080fd5b6200015a565b90620000dd9181601f82011215620001b4575b6020815191016200012a565b620001bd600080fd5b620001a8565b80620000eb565b90505190620000cf82620001c3565b90929192620001ec6200013d8262000102565b93818552602080860192028301928184116200022f575b915b838310620002135750505050565b60208091620002238486620001ca565b81520192019162000205565b62000238600080fd5b62000203565b90620000dd9181601f820112156200025d575b602081519101620001d9565b62000266600080fd5b62000251565b60e08183031262000377575b620002848282620000f3565b92620002a683602084015160018060401b03811162000368575b840162000195565b92620002c881604085015160018060401b0381116200034a575b850162000195565b92620002ea82606083015160018060401b03811162000359575b83016200023e565b92620000dd6200030f84608085015160018060401b0381116200034a57850162000195565b93620003318160a086015160018060401b0381116200033b575b860162000195565b9360c001620000f3565b62000344600080fd5b62000329565b62000353600080fd5b620002c0565b62000362600080fd5b620002e2565b62000371600080fd5b6200029e565b62000380600080fd5b62000278565b620003a962007f18803803806200039d81620000b8565b9283398101906200026c565b90919293949596565b620000dd90620000d1906001600160a01b031682565b620000dd90620003b2565b620000dd90620003c8565b90600160281b600160c81b039060281b5b9181191691161790565b906200040d620000dd6200041592620003d3565b8254620003de565b9055565b906001600160a01b0390620003ef565b906200043d620000dd6200041592620003d3565b825462000419565b620004519650620008ee565b6200047c62000474734659d5ff63a1e1edd6d5dd9cc315e063c95947d0620003d3565b6021620003f9565b620004a76200049f73f43211935c781d5ca1a41d2041f397b8a7366c7a620003d3565b602362000429565b620004d2620004ca73a1f8a6807c402e4a15ef4eba36528a3fed24e577620003d3565b602462000429565b620000cf620004f5735f4ec3df9cbd43714fe2740f5e3616155c5b8419620003d3565b602562000429565b620000dd620000dd620000dd9290565b9060001990620003ef565b906200052c620000dd6200041592620004fd565b82546200050d565b50634e487b7160e01b600052601160045260246000fd5b620000cf62000534565b9160001960089290920291821b911b620003ef565b91906200057f620000dd6200041593620004fd565b90835462000555565b620000cf916000916200056a565b818110620005a2575050565b80620005b2600060019362000588565b0162000596565b9091828110620005c857505050565b620000cf9290620005e0905b92600052602060002090565b908101910162000596565b90620000cf916801000000000000000082116200060f575b805490828155620005b9565b6200061962000070565b62000603565b600162000653620005d462000632855190565b94838060401b03861162000690575b6200064d8686620005eb565b60200190565b92049160005b838110620006675750505050565b600190602062000682620000dd86516001600160a01b031690565b940193818401550162000659565b6200069a62000070565b62000641565b90620000cf916200061f565b818110620006b8575050565b80620006c8600060019362000588565b01620006ac565b9091828110620006de57505050565b620000cf9290620006ef90620005d4565b9081019101620006ac565b90620000cf916801000000000000000082116200071e575b805490828155620006cf565b6200072862000070565b62000712565b60016200075c620005d462000741855190565b94838060401b03861162000790575b6200064d8686620006fa565b92049160005b838110620007705750505050565b600190602062000782620000dd865190565b940193818401550162000762565b6200079a62000070565b62000750565b90620000cf916200072e565b6001906000198114620007bd570190565b620007c762000534565b0190565b50634e487b7160e01b600052603260045260246000fd5b9060208091620007f0845190565b811015620007ff575b02010190565b62000809620007cb565b620007f9565b906200081b90620003d3565b600052602052604060002090565b6200084c60019162000839815490565b8410156200085557600052602060002090565b91020190600090565b6200085f620007cb565b600052602060002090565b9062000896620000cf92805490680100000000000000008210156200089d575b60018201815562000829565b906200056a565b620008a762000070565b6200088a565b9060ff90620003ef565b90620008ca620000dd6200041592151590565b8254620008ad565b620000dd62093a80620004fd565b919082018092116200054b57565b94620009d9620009e99493956200090b620009e194999862000b0b565b6200092a73c8418af6358ffdda74e09ca9cc3fe03ca6adc5b0620003d3565b60805273853d955acef822db058eb8505911ed77f175b99e60a052620009c4671bc16d674ec800006200095d81620004fd565b6200096a81600662000518565b6200097b6301e13380600762000518565b6200098b62091050600862000518565b620009bb673782dace9d90000091620009a483620004fd565b93620009b285600962000518565b50600a62000518565b50600b62000518565b620009d1896010620006a0565b6011620006a0565b6012620006a0565b6013620007a0565b6000620009f681620004fd565b925b62000a05620000dd865190565b84101562000ab95762000a428462000a3c601462000a3562000a28848b620007e2565b516001600160a01b031690565b906200080f565b62000518565b62000aa6601562000a5f62000a5785620004fd565b80926200086a565b62000a6f62000a288787620007e2565b62000a908162000a8a600f62000a3562000a288c8e620007e2565b62000429565b5062000a9e8160196200086a565b601a6200086a565b62000ab184620007ac565b9350620009f8565b935091505062000acb816021620008b7565b5062000aef4262000ade81600562000518565b62000ae8620008d2565b90620008e0565b62000afc81600462000518565b50565b620000dd6001620004fd565b62000b169062000baf565b62000b2062000aff565b62000afc81600262000518565b620000d1620000dd620000dd9290565b620000dd9062000b2d565b1562000b5057565b60405162461bcd60e51b815260206004820152601960248201527f4f776e657220616464726573732063616e6e6f742062652030000000000000006044820152606490fd5b6001600160a01b0391821681529116602082015260400190565b60009062000bbd8262000b3d565b9162000bde6001600160a01b0384166001600160a01b038416141562000b48565b62000bea828262000429565b507fb532073b38c83145e3e5135377a08bf9aab55bc0fd7c1179cd4fb995d2a5159c9162000c2562000c1b60405190565b9283928362000b95565b0390a156fe60806040526004361015610018575b610016600080fd5b005b60003560e01c80628cc2621461062f578063061a7bf5146106265780630d7bac4f1461061d57806312edb24c1461061457806315a202a11461060b5780631627540c1461060257806317b18c89146105f95780631bcb7d90146105f05780631c1f78eb146105e75780631e090f01146105de5780631face856146105d5578063218751b2146105cc578063231b68dc146105c357806328408bab146105ba5780632c0c2a0a146105b157806336f89af2146105a8578063386a95251461059f578063387edc86146105965780633c62c44f1461058d57806341a16f3f146105845780634f39059c1461057b5780634fd2b5361461057257806353a47bb71461056957806355189773146105605780635bfd92581461055757806364f2c0601461054e578063663b135c14610545578063693392451461053c5780636c430dbb146105335780636e27cef91461052a57806370641a361461052157806372f702f314610518578063741d3c181461050f578063774d4ae7146105065780637910d17b146104fd5780637970833e146104f457806379ba5097146104eb5780637ab44e40146104e25780637d6ef08e146104d95780637f472e54146104d05780638980f11f146104c75780638bad86a7146104be5780638da5cb5b146104b557806391cf600a146104ac5780639637927f146104a3578063a0f234761461049a578063a10d3b3314610491578063a22cb46514610488578063aa1d4fce1461047f578063b61aa08c14610476578063b85efd061461046d578063b94c4dcb14610464578063bdb123e31461045b578063c00007b014610452578063c354382614610449578063c8f33c9114610440578063ca6df29d14610437578063cc2abd641461042e578063cdc82e8014610425578063d2010fb41461041c578063d2fbdc0d14610413578063d42fc9b41461040a578063d5e1a9c614610401578063d7400d56146103f8578063d9f96e8d146103ef578063de1a6551146103e6578063de57a5b5146103dd578063e01f62bf146103d4578063e1ba95d2146103cb578063e44b9fa5146103c2578063e7f30582146103b9578063ebe2b12b146103b0578063f288baf6146103a7578063f2a8d3491461039e578063f2caeb1e14610395578063f77e34d11461038c578063facefb64146103835763fff6cae90361000e5761037e611d66565b61000e565b5061037e611d3f565b5061037e611b9f565b5061037e611b58565b5061037e611b2e565b5061037e611af8565b5061037e611ac2565b5061037e611a8f565b5061037e611a64565b5061037e611a15565b5061037e6119eb565b5061037e6119c0565b5061037e611998565b5061037e61196e565b5061037e611947565b5061037e61191c565b5061037e6118a8565b5061037e611880565b5061037e611856565b5061037e611820565b5061037e6117ec565b5061037e611784565b5061037e61175a565b5061037e611724565b5061037e6116fa565b5061037e6116d0565b5061037e6116a6565b5061037e611672565b5061037e61164a565b5061037e611620565b5061037e6115ec565b5061037e6115c4565b5061037e61159a565b5061037e611570565b5061037e61153d565b5061037e611513565b5061037e6114ce565b5061037e611488565b5061037e61145e565b5061037e611434565b5061037e6113f7565b5061037e61136d565b5061037e61132c565b5061037e6111e6565b5061037e6111bb565b5061037e61116c565b5061037e611142565b5061037e61110c565b5061037e6110e2565b5061037e6110ac565b5061037e611070565b5061037e611018565b5061037e610f94565b5061037e610f6a565b5061037e610f42565b5061037e610ed2565b5061037e610e9c565b5061037e610e72565b5061037e610e3c565b5061037e610de9565b5061037e610d61565b5061037e610d37565b5061037e610cec565b5061037e610cc2565b5061037e610c70565b5061037e610c2e565b5061037e610c04565b5061037e610bce565b5061037e610b98565b5061037e610ad3565b5061037e610aa8565b5061037e6109fb565b5061037e61099e565b5061037e610968565b5061037e6108ac565b5061037e6107f9565b5061037e61079e565b5061037e610713565b600080fd5b73ffffffffffffffffffffffffffffffffffffffff1690565b90565b73ffffffffffffffffffffffffffffffffffffffff81165b0361063857565b9050359061068582610659565b565b9061065691602081830312156106785761069f600080fd5b610678565b9052565b0190565b906106cc6106c56106bb845190565b8084529260200190565b9260200190565b9060005b8181106106dd5750505090565b9091926106fa6106f36001928651815260200190565b9460200190565b9291016106d0565b6020808252610656929101906106ac565b5034610740575b61073c61073061072b366004610687565b612379565b60405191829182610702565b0390f35b610748600080fd5b61071a565b80610671565b905035906106858261074d565b9091606082840312610791575b61065661077a8484610678565b936107888160208601610753565b93604001610753565b610799600080fd5b61076d565b50346107cf575b61073c6107bc6107b6366004610760565b91615c8c565b6040515b91829182901515815260200190565b6107d7600080fd5b6107a5565b906106569160208183031215610753576107f4600080fd5b610753565b5034610827575b61073c6108166108113660046107dc565b612519565b6040515b9182918290815260200190565b61082f600080fd5b610800565b600091031261083f57565b610685600080fd5b906108566106c56106bb845190565b9060005b8181106108675750505090565b9091926108936106f3600192865173ffffffffffffffffffffffffffffffffffffffff16815260200190565b92910161085a565b602080825261065692910190610847565b50346108d5575b6108be366004610834565b61073c6108c9611ecf565b6040519182918261089b565b6108dd600080fd5b6108b3565b610656916008021c73ffffffffffffffffffffffffffffffffffffffff1690565b9061065691546108e2565b61065660006025610903565b61063d6106566106569273ffffffffffffffffffffffffffffffffffffffff1690565b6106569061091a565b6106569061093d565b6106a490610946565b602081019291610685919061094f565b5034610991575b61097a366004610834565b61073c61098561090e565b60405191829182610958565b610999600080fd5b61096f565b50346109bd575b6109b86109b3366004610687565b614123565b604051005b6109c5600080fd5b6109a5565b9190610656906040848203126109ee575b6109e58185610753565b93602001610753565b6109f6600080fd5b6109db565b5034610a19575b61073c610816610a133660046109ca565b906156ba565b610a21600080fd5b610a02565b919061065690604084820312610a4a575b610a418185610678565b93602001610678565b610a52600080fd5b610a37565b90610a6190610946565b600052602052604060002090565b610656916008021c5b60ff1690565b906106569154610a6f565b610aa361065692610a9e602793600094610a57565b610a57565b610a7e565b5034610ac6575b61073c6107bc610ac0366004610a26565b90610a89565b610ace600080fd5b610aaf565b5034610af0575b610ae5366004610834565b61073c610730612471565b610af8600080fd5b610ada565b8051825261068591906080908190610b1a60208201516020860152565b610b2960408201516040860152565b610b3860608201516060860152565b0151910152565b906106a88160a093610afd565b90610b5b6106c56106bb845190565b9060005b818110610b6c5750505090565b909192610b7f6106f36001928651610b3f565b929101610b5f565b602080825261065692910190610b4c565b5034610bc1575b61073c610bb5610bb0366004610687565b614b73565b60405191829182610b87565b610bc9600080fd5b610b9f565b5034610beb575b61073c610816610be6366004610687565b612583565b610bf3600080fd5b610bd5565b61065660006024610903565b5034610c21575b610c16366004610834565b61073c610985610bf8565b610c29600080fd5b610c0b565b5034610c4c575b61073c6107bc610c46366004610a26565b90611da0565b610c54600080fd5b610c35565b61065690610c6b602091600092610a57565b610903565b5034610cb5575b61073c610c8d610c88366004610687565b610c59565b6040515b9182918273ffffffffffffffffffffffffffffffffffffffff909116815260200190565b610cbd600080fd5b610c77565b5034610cdf575b61073c610816610cda366004610687565b61270f565b610ce7600080fd5b610cc9565b5034610d09575b61073c610816610d04366004610687565b612502565b610d11600080fd5b610cf3565b6106566106566106569290565b61065662093a80610d16565b610656610d23565b5034610d54575b610d49366004610834565b61073c610816610d2f565b610d5c600080fd5b610d3e565b5034610d7b575b6109b8610d76366004610687565b612fd9565b610d83600080fd5b610d68565b608081830312610dc5575b610d9d8282610678565b92610656610dae8460208501610753565b93610dbc8160408601610753565b93606001610753565b610dcd600080fd5b610d93565b9081526040810192916106859160200152565b0152565b5034610e1d575b610e07610dfe366004610d88565b92919091615e58565b9061073c610e1460405190565b92839283610dd2565b610e25600080fd5b610df0565b61065690610c6b600f91600092610a57565b5034610e59575b61073c610c8d610e54366004610687565b610e2a565b610e61600080fd5b610e43565b61065660006023610903565b5034610e8f575b610e84366004610834565b61073c610985610e66565b610e97600080fd5b610e79565b5034610eb9575b61073c610816610eb4366004610687565b612699565b610ec1600080fd5b610ea3565b61065660006001610903565b5034610eef575b610ee4366004610834565b61073c610c8d610ec6565b610ef7600080fd5b610ed9565b801515610671565b9050359061068582610efc565b919061065690604084820312610f35575b610f2c8185610678565b93602001610f04565b610f3d600080fd5b610f22565b5034610f5d575b6109b8610f57366004610f11565b90612ce4565b610f65600080fd5b610f49565b5034610f87575b610f7c366004610834565b61073c61081661445a565b610f8f600080fd5b610f71565b5034610fb1575b610fa6366004610834565b61073c6108166124f8565b610fb9600080fd5b610f9b565b919060a08382031261100b575b610fd58184610678565b92610fe38260208301610678565b92610656610ff48460408501610753565b936110028160608601610753565b93608001610753565b611013600080fd5b610fcb565b5034611036575b610e0761102d366004610fbe565b93929092615d79565b61103e600080fd5b61101f565b610656916008021c81565b906106569154611043565b6106569061106b601491600092610a57565b61104e565b503461108d575b61073c610816611088366004610687565b611059565b611095600080fd5b611077565b6106569061106b601891600092610a57565b50346110c9575b61073c6108166110c4366004610687565b61109a565b6110d1600080fd5b6110b3565b6106566000600861104e565b50346110ff575b6110f4366004610834565b61073c6108166110d6565b611107600080fd5b6110e9565b5034611129575b61111e366004610834565b61073c610730612253565b611131600080fd5b611113565b61065660056021610903565b503461115f575b611154366004610834565b61073c610985611136565b611167600080fd5b611149565b5034611186575b6109b8611181366004610687565b614806565b61118e600080fd5b611173565b9190610656906040848203126111ae575b6109e58185610678565b6111b6600080fd5b6111a4565b50346111d9575b61073c6108166111d3366004611193565b90614893565b6111e1600080fd5b6111c2565b5034611204575b61073c6107306111fe366004610f11565b9061303d565b61120c600080fd5b6111ed565b507f4e487b7100000000000000000000000000000000000000000000000000000000600052603260045260246000fd5b61126160059161124f815490565b84101561126a57600052602060002090565b91020190600090565b611272611211565b600052602060002090565b6106569081565b610656905461127d565b919061129e602293600094610a57565b80548210156112ef576112b2929350611241565b506112bc81611284565b916112c960018301611284565b916112d660028201611284565b9161065660046112e860038501611284565b9301611284565b8380fd5b9095949261068594611325610de59261131e60809661131760a088019c6000890152565b6020870152565b6040850152565b6060830152565b5034611360575b61073c61134a611344366004611193565b9061128e565b9161135795939560405190565b958695866112f3565b611368600080fd5b611333565b5034611387575b61137f366004610834565b6109b86141e4565b61138f600080fd5b611374565b90916060828403126113c5575b6106566113ae8484610678565b936113bc8160208601610753565b93604001610678565b6113cd600080fd5b6113a1565b90610a61565b9061065692610a9e61106b926113f2602695600096610a57565b6113d2565b5034611415575b61073c61081661140f366004611394565b916113d8565b61141d600080fd5b6113fe565b6106569061106b601f91600092610a57565b5034611451575b61073c61081661144c366004610687565b611422565b611459600080fd5b61143b565b503461147b575b61073c610816611476366004610687565b6126bb565b611483600080fd5b611465565b50346114a3575b6109b861149d366004611193565b90613c2b565b6114ab600080fd5b61148f565b908152606081019392610685929091604091610de5905b6020830152565b50346114fb575b61073c6114eb6114e6366004610687565b6149e2565b6040519193915b938493846114b0565b611503600080fd5b6114d5565b610656600080610903565b5034611530575b611525366004610834565b61073c610c8d611508565b611538600080fd5b61151a565b5034611557575b6109b8611552366004610687565b613a2b565b61155f600080fd5b611544565b61065660006021610a7e565b503461158d575b611582366004610834565b61073c6107bc611564565b611595600080fd5b611577565b50346115b7575b61073c6108166115b2366004610687565b6125ab565b6115bf600080fd5b6115a1565b50346115df575b6109b86115d9366004610760565b91615b4a565b6115e7600080fd5b6115cb565b5034611607575b6109b8611601366004610f11565b90615c33565b61160f600080fd5b6115f3565b6106566000600961104e565b503461163d575b611632366004610834565b61073c610816611614565b611645600080fd5b611627565b5034611665575b6109b861165f366004611193565b90615bc7565b61166d600080fd5b611651565b503461168d575b6109b86116873660046109ca565b90615301565b611695600080fd5b611679565b6106566000600761104e565b50346116c3575b6116b8366004610834565b61073c61081661169a565b6116cb600080fd5b6116ad565b50346116ed575b6116e2366004610834565b61073c610816614668565b6116f5600080fd5b6116d7565b5034611717575b61073c610730611712366004610687565b613013565b61171f600080fd5b611701565b5034611741575b61073c610c8d61173c366004610687565b6126e6565b611749600080fd5b61172b565b6106566000600561104e565b5034611777575b61176c366004610834565b61073c61081661174e565b61177f600080fd5b611761565b50346117a1575b61073c61081661179c366004610687565b614b8f565b6117a9600080fd5b61178b565b90916060828403126117df575b6106566117c88484610f04565b936117d68160208601610f04565b93604001610f04565b6117e7600080fd5b6117bb565b5034611807575b6109b86118013660046117ae565b916139be565b61180f600080fd5b6117f3565b6106566000600661104e565b503461183d575b611832366004610834565b61073c610816611814565b611845600080fd5b611827565b6106566000600361104e565b5034611873575b611868366004610834565b61073c61081661184a565b61187b600080fd5b61185d565b503461189b575b6109b86118953660046109ca565b9061568f565b6118a3600080fd5b611887565b50346118c5575b61073c6108166118c0366004610687565b612553565b6118cd600080fd5b6118af565b60808183031261190f575b6118e78282610678565b926106566118f88460208501610753565b936119068160408601610678565b93606001610678565b611917600080fd5b6118dd565b503461193a575b6109b86119313660046118d2565b92919091613fff565b611942600080fd5b611923565b5034611961575b6109b861195c366004610687565b612c2e565b611969600080fd5b61194e565b503461198b575b61073c610816611986366004610687565b6124e1565b611993600080fd5b611975565b50346119b3575b6109b86119ad366004610a26565b90614031565b6119bb600080fd5b61199f565b50346119de575b61073c6108166119d8366004611193565b90614b9e565b6119e6600080fd5b6119c7565b5034611a08575b6119fd366004610834565b61073c6108166124d7565b611a10600080fd5b6119f2565b5034611a2f575b611a27366004610834565b6109b86139f4565b611a37600080fd5b611a1c565b919061065690604084820312611a57575b610a418185610753565b611a5f600080fd5b611a4d565b5034611a82575b61073c610816611a7c366004611a3c565b90615907565b611a8a600080fd5b611a6b565b5034611aa9575b6109b8611aa4366004610687565b612aff565b611ab1600080fd5b611a96565b6106566000600461104e565b5034611adf575b611ad4366004610834565b61073c610816611ab6565b611ae7600080fd5b611ac9565b6106566000600a61104e565b5034611b15575b611b0a366004610834565b61073c610816611aec565b611b1d600080fd5b611aff565b6106566000600b61104e565b5034611b4b575b611b40366004610834565b61073c610816611b22565b611b53600080fd5b611b35565b5034611b75575b61073c610816611b703660046107dc565b611fdb565b611b7d600080fd5b611b5f565b906106569160208183031215610f0457611b9a600080fd5b610f04565b5034611bb9575b6109b8611bb4366004611b82565b61328e565b611bc1600080fd5b611ba6565b601f017fffffffffffffffffffffffffffffffffffffffffffffffffffffffffffffffe01690565b507f4e487b7100000000000000000000000000000000000000000000000000000000600052604160045260246000fd5b90601f017fffffffffffffffffffffffffffffffffffffffffffffffffffffffffffffffe016810190811067ffffffffffffffff821117611c5e57604052565b611c66611bee565b604052565b90610685611c7860405190565b9283611c1e565b60209067ffffffffffffffff8111611c95570290565b611c9d611bee565b0290565b90929192611cb6611cb182611c7f565b611c6b565b936020859202830192818411611cef575b915b838310611cd65750505050565b60208091611ce48486610753565b815201920191611cc9565b611cf7600080fd5b611cc7565b906106569181601f82011215611d15575b600690611ca1565b611d1d600080fd5b611d0d565b906106569160c08183031215611cfc57611d3a600080fd5b611cfc565b5034611d59575b6109b8611d54366004611d22565b613f46565b611d61600080fd5b611d46565b5034611d80575b611d78366004610834565b6109b8613426565b611d88600080fd5b611d6d565b6106569061063d565b6106569054611d8d565b90611dae61063d6000611d96565b73ffffffffffffffffffffffffffffffffffffffff831603611dd1575050600190565b611e04611dea611de5611e1e93600f610a57565b611d96565b9273ffffffffffffffffffffffffffffffffffffffff1690565b9173ffffffffffffffffffffffffffffffffffffffff1690565b14611e2857600090565b600190565b90611e48611e3c6106bb845490565b92600052602060002090565b9060005b818110611e595750505090565b909192611e93611e8c600192611e6e87611d96565b73ffffffffffffffffffffffffffffffffffffffff16815260200190565b9460010190565b929101611e4c565b9061065691611e2d565b90610685611ebf92611eb660405190565b93848092611e9b565b0383611c1e565b61065690611ea5565b6106566010611ec6565b61126160019161124f815490565b61063d6106566106569290565b61065690611ee7565b905051906106858261074d565b906106569160208183031215611efd57611f22600080fd5b611efd565b506040513d6000823e3d90fd5b507f4e487b7100000000000000000000000000000000000000000000000000000000600052601160045260246000fd5b9190611f6f565b9290565b91808302928184041490151715611f8257565b610685611f34565b507f4e487b7100000000000000000000000000000000000000000000000000000000600052601260045260246000fd5b90611fc4565b9190565b908115611fcf570490565b611fd7611f8a565b0490565b611fef611fe9826011611ed9565b90610903565b611ffc61063d6000611ef4565b73ffffffffffffffffffffffffffffffffffffffff8216146120dd5761204d61065692602061203561203061208195610946565b610946565b630a3be7579061204460405190565b94859260e01b90565b825260049082905afa9182156120d0575b600092612098575b5061207561207b916019611ed9565b9061104e565b90611f64565b612092670de0b6b3a7640000610d16565b90611fba565b61207b9192506120c16120759160203d81116120c9575b6120b98183611c1e565b810190611f0a565b929150612066565b503d6120af565b6120d8611f27565b61205e565b50612075610656916013611ed9565b6020809167ffffffffffffffff811161210457020190565b61210c611bee565b020190565b9061211e611cb1836120ec565b918252565b369037565b9061068561213e61213884612111565b936120ec565b7fffffffffffffffffffffffffffffffffffffffffffffffffffffffffffffffe00160208401612123565b6001907fffffffffffffffffffffffffffffffffffffffffffffffffffffffffffffffff8114612197570190565b6106a8611f34565b91908203918211611f8257565b91908201809211611f8257565b90602080916121c6845190565b8110156121d4575b02010190565b6121dc611211565b6121ce565b906121f0611e3c6106bb845490565b9060005b8181106122015750505090565b90919261221e611e8c60019261221687611284565b815260200190565b9291016121f4565b90610656916121e1565b90610685611ebf9261224160405190565b93848092612226565b61065690612230565b61225d601b611284565b60009061226c611fc083610d16565b148015612333575b156122845750610656601561224a565b61229e61229861229360105490565b612128565b91610d16565b6015906122ac610656835490565b81101561232e576123246123176122c96120758461232996611ed9565b6123116123076122f66122ed6122dd612350565b6122e76005611284565b9061219f565b61207b88611fdb565b61207b670de0b6b3a7640000610d16565b612092601c611284565b906121ac565b61232183866121b9565b52565b612169565b61229e565b505090565b5061233e601c611284565b61234a611fc083610d16565b14612274565b6106564261235e6004611284565b8082101561236a575090565b905090565b90610a6190610d16565b90612382612253565b916010612390612293825490565b918294601e6123a76123a28483610a57565b611284565b6000906123b6611fc083610d16565b116123c4575b505050505050565b6123d5909792949691939597610d16565b6123e0610656885490565b81101561245e57610656612456826123248b612321836124508d6123116123a28f9b8f6124486120816123e09f61207b61243161242d876124276123a28d6124439a610a57565b946121b9565b5190565b6122e76123a2886124438d6016610a57565b61236f565b946017610a57565b926121b9565b9150506123d5565b50945094505050503880808080806123bc565b601361247e612293825490565b91829061248b6000610d16565b612496610656855490565b8110156124d0576106566124c8826123246124be6124b661249696611fdb565b61207b610d23565b612321838b6121b9565b91505061248b565b5091509150565b610656601b611284565b6123a2610656916124f0600090565b50601d610a57565b610656601c611284565b6123a261065691612511600090565b50601e610a57565b6106569061235e61253861252d6006611284565b9261207b6006611284565b6120926007611284565b610656670de0b6b3a7640000610d16565b61257b61065691612562600090565b5061207b6123a26125736003611284565b92601d610a57565b612092612542565b61257b61065691612592600090565b5061207b6123a26125a36003611284565b92601f610a57565b61265761262b6020610656936125bf600090565b506125e97f0000000000000000000000000000000000000000000000000000000000000000610946565b6126076370a082316125fa60405190565b9586948593849360e01b90565b835273ffffffffffffffffffffffffffffffffffffffff1660048301526024820190565b03915afa90811561268c575b60009161266e575b5061265261264b612542565b8092611f64565b611f64565b612092612664600b611284565b61207b6003611284565b612686915060203d81116120c9576120b98183611c1e565b3861263f565b612694611f27565b612637565b61257b6126b1610656926126ab600090565b50612553565b61207b600b611284565b61257b6126b1610656926126cd600090565b50612583565b61065690610a78565b61065690546126d3565b6126f96126f482600d610a57565b6126dc565b156127015790565b611de5610656916020610a57565b60009061283860009161272183610d16565b5061272b816126e6565b9061273861063d85611ef4565b73ffffffffffffffffffffffffffffffffffffffff8316149182156129645761279d60206127857f0000000000000000000000000000000000000000000000000000000000000000610946565b6370a082319061279460405190565b93849260e01b90565b825273ffffffffffffffffffffffffffffffffffffffff8616600483015260249082905afa908115612957575b600091612939575b50925b6127f56127eb6127e5600a611284565b86611f64565b61207b6009611284565b60206128207f0000000000000000000000000000000000000000000000000000000000000000610946565b6318160ddd9061282f60405190565b98899260e01b90565b825260049082905afa95861561292c575b600096612908575b5061286890612092612861612542565b8098611f64565b9650156128f8575061287990612699565b925b61288481610d16565b8411156128e657506128a56128af936128a0846128a094611f64565b611fba565b61207b600a611284565b808211156128de5750905b816128cb611fc0610656600a611284565b116128d257565b9050610656600a611284565b9050906128ba565b9150506128f39150610d16565b6128af565b61290291506126bb565b9261287b565b6128689196506129259060203d81116120c9576120b98183611c1e565b9590612851565b612934611f27565b612849565b612951915060203d81116120c9576120b98183611c1e565b386127d2565b61295f611f27565b6127ca565b61299260206127857f0000000000000000000000000000000000000000000000000000000000000000610946565b825273ffffffffffffffffffffffffffffffffffffffff8516600483015260249082905afa9081156129ec575b6000916129ce575b50926127d5565b6129e6915060203d81116120c9576120b98183611c1e565b386129c7565b6129f4611f27565b6129bf565b15612a0057565b6040517f08c379a000000000000000000000000000000000000000000000000000000000815260206004820152600d60248201527f496e76616c69642070726f7879000000000000000000000000000000000000006044820152606490fd5b0390fd5b9060ff905b9181191691161790565b90612a82610656612a8992151590565b8254612a63565b9055565b9073ffffffffffffffffffffffffffffffffffffffff90612a68565b90612ab9610656612a8992610946565b8254612a8d565b907fffffffffffffffffffffffffffffffffffffffffffffffffffffffffffffffff90612a68565b90612af8610656612a8992610d16565b8254612ac0565b33612b16612b116126f483600d610a57565b6129f9565b612b46600e612b4184610a9e85612b3b612b376126f485610a9e858a610a57565b1590565b94610a57565b612a72565b602091612b56611de58285610a57565b612b7573ffffffffffffffffffffffffffffffffffffffff8416611e04565b14612b7f57505050565b612bb36125a36123a283612bac61068597612ba7612bc297612ba16000611ef4565b92610a57565b612aa9565b601d610a57565b91612bbd83611284565b61219f565b90612ae8565b15612bcf57565b6040517f08c379a000000000000000000000000000000000000000000000000000000000815260206004820152601d60248201527f50726f787920686173206e6f7420616c6c6f77656420796f75207965740000006044820152606490fd5b61068590612c43612b116126f483600d610a57565b612bc2612cb76125a36123a2612c5a85600e610a57565b612c70612c6b6126f4338094610a57565b612bc8565b612bac86612ba7836020612c87611de58383610a57565b612c9461063d6000611ef4565b73ffffffffffffffffffffffffffffffffffffffff821603612cc6575b50610a57565b91612cc183611284565b6121ac565b612cde90612bc2612bb36125a36123a287601d610a57565b38612cb1565b90612da1575b612cf761063d6000611ef4565b73ffffffffffffffffffffffffffffffffffffffff821603612d165750565b80612d23612d3f926149e2565b919390612d2f84612dae565b612d3a84600c610a57565b612ae8565b828110612d7b57612d7383612d5a61068595612d3a9461219f565b90612cc1612d6c83612cc1601c611284565b601c612ae8565b91601e610a57565b612d7383612d8f612d3a936106859661219f565b90612bbd612d6c83612bbd601c611284565b612da9613426565b612cea565b6000612dbc61063d82611ef4565b73ffffffffffffffffffffffffffffffffffffffff831603612ddc575050565b9091612de783612379565b90612df183610d16565b612dfc610656845190565b811015612e2b5780612324612e1761242d612e2694876121b9565b612d3a836124438a6017610a57565b612df1565b509091612e3790610d16565b612e42610656845190565b811015612e7b57610656612e7382612324612e64612075612e42966015611ed9565b612d3a836124438b6016610a57565b915050612e37565b50915050565b6106566002610d16565b15612e9257565b6040517f08c379a000000000000000000000000000000000000000000000000000000000815260206004820152601f60248201527f5265656e7472616e637947756172643a207265656e7472616e742063616c6c006044820152606490fd5b6106566001610d16565b612f2c90612f27612f0c6002611284565b612f20612f17612e81565b91821415612e8b565b6002612ae8565b612fb3565b610685612f20612ef1565b6106569060101c610a78565b6106569054612f37565b15612f5457565b6040517f08c379a000000000000000000000000000000000000000000000000000000000815260206004820152601960248201527f5265776172647320636f6c6c656374696f6e20706175736564000000000000006044820152606490fd5b61068590612fd6612fc46021612f43565b612fd060005b91151590565b14612f4d565b50565b61068590612efb565b90612ff991612ff4612f0c6002611284565b613005565b90610685612f20612ef1565b506106569060019033613206565b610656906060612fe2565b90612ff99291613031612f0c6002611284565b50610656919033613206565b6106569190606061301e565b9061065693929161305b600183612ce4565b6130b0565b908152606081019392610685929091604091613094905b73ffffffffffffffffffffffffffffffffffffffff166020830152565b019073ffffffffffffffffffffffffffffffffffffffff169052565b506130c042612d3a836018610a57565b6130ca6021612f43565b6000906130da90612fd083612fca565b6010906130e8612293835490565b9586906130f483610d16565b6130ff610656865490565b8110156131ec5761316290858a89838a6131436017612d3a8461244361313b8f6131368b612321866124506123a282898f8e610a57565b610d16565b958694610a57565b61315361065661242d84876121b9565b11613167575b50505050612169565b6130f4565b61242d81612427611fe961317e9461318498611ed9565b916143ad565b61319161242d828c6121b9565b61319e611fe98389611ed9565b7f1d2f2ca53af5d2f333bd32fdd45f9c52ad8ebe31414f7792912077fcb3876dff906131c98a610946565b926131e08c6131d760405190565b93849384613060565b0390a2858a8983613159565b509592509550509190916131fe575050565b610685915050565b6106569291906060613049565b73ffffffffffffffffffffffffffffffffffffffff90911681526040810192916106859160200152565b91906008612a689102916132707fffffffffffffffffffffffffffffffffffffffffffffffffffffffffffffffff841b90565b921b90565b9190613286610656612a8993610d16565b90835461323d565b60009061329a82610d16565b6011906132a8610656835490565b811015613420576132bf611fe9826132ee94611ed9565b6132cb61063d86611ef4565b73ffffffffffffffffffffffffffffffffffffffff8216036132f3575b50612169565b61329a565b838415613404575b156132e85761338460206133146120306133a994610946565b613375636472eee18361334261332930610946565b9261334d4261333760405190565b958694859460e01b90565b845260048401613213565b03818d875af19081156133f7575b6000916133da575b5061336f876019611ed9565b90613275565b63513872bd9061279460405190565b825260049082905afa9081156133cd575b6000916133af575b5061336f83601a611ed9565b386132e8565b6133c7915060203d81116120c9576120b98183611c1e565b3861339d565b6133d5611f27565b613395565b6133f19150843d81116120c9576120b98183611c1e565b38613363565b6133ff611f27565b61335b565b504261341a611fc061065661207586601a611ed9565b116132fb565b50505050565b613430600061328e565b61344261343b61445a565b6003612ae8565b42613453611fc06106566004611284565b10613460576106856135bb565b610685613801565b91906106569060408482031261348c575b6134838185611efd565b93602001611efd565b613494600080fd5b613479565b6106a49073ffffffffffffffffffffffffffffffffffffffff1660601b90565b906106a86135126014937f4e6f7420656e6f7567682072657761726420746f6b656e7320617661696c616281527f6c653a2000000000000000000000000000000000000000000000000000000000602082015260240190565b8092613499565b60005b83811061352c5750506000910152565b818101518382015260200161351c565b61355d611bc66020936106a893613551815190565b80835293849260200190565b95869101613519565b60208082526106569291019061353c565b1561357f5750565b612a5f9061358c60405190565b9182917f08c379a000000000000000000000000000000000000000000000000000000000835260048301613566565b60006135c681610d16565b6012906135d4610656835490565b8110156136a3576135eb611fe98261361994611ed9565b6135f761063d85611ef4565b73ffffffffffffffffffffffffffffffffffffffff82160361361e5750612169565b6135c6565b604061362f61203061365993610946565b63092193ab906126078761364230610946565b9361364c60405190565b9687958694859360e01b90565b03925af18015613696575b156132e8576136899060403d811161368f575b6136818183611c1e565b810190613468565b506132e8565b503d613677565b61369e611f27565b613664565b50506136b3426122e76004611284565b906136c96122986136c2610d23565b8094611fba565b60106136d6610656825490565b8210156137c257906123248261379261376a611fe98561379897613762611fc061374b602061372f8f8f611fe9896137296120309361207b61371e6120309761265286611fdb565b916123116001610d16565b99611ed9565b6370a082319061260761374130610946565b926125fa60405190565b03915afa9081156137b5575b60009161379d575090565b111594611ed9565b61065661377660405190565b80926137866020830191826134b9565b90810382520382611c1e565b90613577565b6136c9565b610656915060203d81116120c9576120b98183611c1e565b6137bd611f27565b613757565b50506137e7906123116137ee936126526137dc6004611284565b936123116001610d16565b6004612ae8565b6137f6613801565b61068561343b61445a565b613809612253565b6138136000610d16565b601590613821610656835490565b81101561384b576123246138469261336f8361384061242d82896121b9565b92611ed9565b613813565b505050610685613859612350565b6005612ae8565b1561386757565b6040517f08c379a000000000000000000000000000000000000000000000000000000000815260206004820152601560248201527f4e6f74206f776e6572206f722074696d656c6f636b00000000000000000000006044820152606490fd5b906106859291613903336138dd61063d6000611d96565b73ffffffffffffffffffffffffffffffffffffffff821614908115613908575b50613860565b61399d565b9050613927738412ebf45bac1b340bbe8f318b928c466c4e39ca611e04565b14386138fd565b9063ff0000009060181b612a68565b9061394d610656612a8992151590565b825461392e565b9061ff009060081b612a68565b90613971610656612a8992151590565b8254613954565b9062ff00009060101b612a68565b90613996610656612a8992151590565b8254613978565b61068592916139b06139b792602161393d565b6021613961565b6021613986565b9061068592916138c6565b6139da336138dd61063d6000611d96565b6106856106856139ed612b3760216126dc565b6021612a72565b6106856139c9565b61068590613a11336138dd61063d6000611d96565b61068590612b41600d91612ba1612b376126f48386610a57565b610685906139fc565b15613a3b57565b6040517f08c379a000000000000000000000000000000000000000000000000000000000815260206004820152601460248201527f4e6f74206f776e6572206f7220746b6e206d67720000000000000000000000006044820152606490fd5b9061068591613ad83382613ab161063d6000611d96565b73ffffffffffffffffffffffffffffffffffffffff831614918215613add575b5050613a34565b613aee565b613ae79250611da0565b8238613ad1565b60009182613afb81610d16565b6010613b08610656825490565b821015613c2057611fe982613b1c92611ed9565b613b3b73ffffffffffffffffffffffffffffffffffffffff8616611e04565b14613b4e57613b4990612169565b613afb565b50909192506001905b8180613c00575b8215613bd6575b505015613b77576106859133906143ad565b6040517f08c379a000000000000000000000000000000000000000000000000000000000815260206004820152601a60248201527f4e6f2076616c696420746f6b656e7320746f207265636f7665720000000000006044820152606490fd5b15915081613be7575b503880613b65565b9050613bf9611e0461063d3393611d96565b1438613bdf565b9150613c10611de585600f610a57565b613c1933611e04565b1491613b5e565b505092909192613b57565b9061068591613a9a565b61068590613c4a336138dd61063d6000611d96565b613d9b565b906020906006811015613c6157020190565b61210c611211565b15613c7057565b6040517f08c379a000000000000000000000000000000000000000000000000000000000815260206004820152601360248201527f4d757374206265203e3d204d554c2050524543000000000000000000000000006044820152606490fd5b15613cd657565b6040517f08c379a000000000000000000000000000000000000000000000000000000000815260206004820152600c60248201527f4d757374206265203e3d203000000000000000000000000000000000000000006044820152606490fd5b15613d3c57565b6040517f08c379a000000000000000000000000000000000000000000000000000000000815260206004820152600c60248201527f4d757374206265203e3d203100000000000000000000000000000000000000006044820152606490fd5b613ec361242d61068592613eb9613eb261242d613eac613e0f613e78613e7161242d613e6b6000613df0613ddb61242d8d613dd585610d16565b90613c4f565b613de9611fc0610656612542565b1015613c69565b613136613e6461242d8d613dd5600195613e1561242d613e0f89610d16565b85613c4f565b613e21611fc083610d16565b101580613f22575b80613ef9575b613e3890613ccf565b613e4761242d60049d8e610d16565b613e53611fc089610d16565b101580613eca575b61313690613d35565b6006612ae8565b89613c4f565b600a612ae8565b613e92613e8b61242d613e6b6002610d16565b600b612ae8565b613136613ea561242d613e6b6003610d16565b6009612ae8565b84613c4f565b6007612ae8565b613dd56005610d16565b6008612ae8565b50613136613ee461242d613ede6005610d16565b86613c4f565b613ef0611fc08a610d16565b10159050613e5b565b50613e38613f0d61242d613ede6003610d16565b613f19611fc084610d16565b10159050613e2f565b50613f3361242d613e0f6002610d16565b613f3f611fc083610d16565b1015613e29565b61068590613c35565b90610685939291613f683382613ab161063d6000611d96565b613fad565b91906008612a6891029161327073ffffffffffffffffffffffffffffffffffffffff841b90565b9190613fa5610656612a8993610946565b908354613f6d565b90613fd96123a2613ff193613ff76106859796613fdf60139661336f601498613fd96123a2888c610a57565b90611ed9565b613ff16011613fd96123a2868a610a57565b90613f94565b601293610a57565b90610685939291613f4f565b90610685916140223382613ab161063d6000611d96565b90612ba761068592600f610a57565b906106859161400b565b1561404257565b6040517f08c379a000000000000000000000000000000000000000000000000000000000815260206004820152602f60248201527f4f6e6c792074686520636f6e7472616374206f776e6572206d6179207065726660448201527f6f726d207468697320616374696f6e00000000000000000000000000000000006064820152608490fd5b610685906140e5336140df611e0461063d6000611d96565b1461403b565b6140f0816001612aa9565b61411e7f906a1c6bd7e3091ea86693dd029a831c19049ce77f1dce2ce0bab1cacbabce2291610c9160405190565b0390a1565b610685906140c7565b1561413357565b6040517f08c379a000000000000000000000000000000000000000000000000000000000815260206004820152603560248201527f596f75206d757374206265206e6f6d696e61746564206265666f726520796f7560448201527f2063616e20616363657074206f776e65727368697000000000000000000000006064820152608490fd5b73ffffffffffffffffffffffffffffffffffffffff909116815260408101929161068591602090613094565b6141fe336141f8611e0461063d6001611d96565b1461412c565b6142086000611d96565b6142126001611d96565b7fb532073b38c83145e3e5135377a08bf9aab55bc0fd7c1179cd4fb995d2a5159c9161424961424060405190565b928392836141b8565b0390a16142606142596001611d96565b6000612aa9565b61068561426d6000611ef4565b6001612aa9565b6142876142816106569290565b60e01b90565b7fffffffff000000000000000000000000000000000000000000000000000000001690565b6106a860209167ffffffffffffffff81116142e957601f017fffffffffffffffffffffffffffffffffffffffffffffffffffffffffffffffe01690565b611bc6611bee565b9061211e611cb1836142ac565b3d156143185761430d3d6142f1565b903d6000602084013e565b606090565b9050519061068582610efc565b90610656916020818303121561431d57614342600080fd5b61431d565b1561434e57565b6040517f08c379a000000000000000000000000000000000000000000000000000000000815260206004820152601f60248201527f5472616e7366657248656c7065723a205452414e534645525f4641494c4544006044820152606490fd5b6000919060046143f584936143e6610685976143cc63a9059cbb614274565b926143d660405190565b9586946020860190815201613213565b60208201810382520382611c1e565b82602082019151925af16144076142fe565b81614413575b50614347565b905061441d815190565b61442a611fc06000610d16565b1490811561443a575b503861440d565b61445491506020614449825190565b81830101910161432a565b38614433565b6106566145236145046144d36144b3602061448b612030735e8422345238f34275888049021821e8e08caa1f610946565b6370a082319061260773a1f8a6807c402e4a15ef4eba36528a3fed24e577926125fa60405190565b03915afa90811561457c575b60009161455e575b5061207b613136614668565b60206144f561203073f43211935c781d5ca1a41d2041f397b8a7366c7a610946565b6318160ddd9061204460405190565b825260049082905afa918215614551575b600092614531575b50611fba565b61207b6402540be400610d16565b61454a91925060203d81116120c9576120b98183611c1e565b903861451d565b614559611f27565b614515565b614576915060203d81116120c9576120b98183611c1e565b386144c7565b614584611f27565b6144bf565b69ffffffffffffffffffff8116610671565b9050519061068582614589565b919060a0838203126145f5575b6145bf818461459b565b926145cd8260208301611efd565b926106566145de8460408501611efd565b936145ec8160608601611efd565b9360800161459b565b6145fd600080fd5b6145b5565b1561460957565b6040517f08c379a000000000000000000000000000000000000000000000000000000000815260206004820152601760248201527f496e76616c696420636861696e6c696e6b2070726963650000000000000000006044820152606490fd5b61468960a061467a6120306025611d96565b63feaf968c9061279460405190565b825260049082905afa801561473d575b600090819081908190614706575b6106569394506000926146b984610d16565b86121593846146ec575b5050826146d2575b5050614602565b69ffffffffffffffffffff908116925016101538806146cb565b6146fc91929450611fc090610d16565b14159138806146c3565b5050505061472d6106569160a03d8111614736575b6147258183611c1e565b8101906145a8565b915091926146a7565b503d61471b565b614745611f27565b614699565b6106859061475f336138dd61063d6000611d96565b6147ca565b1561476b57565b6040517f08c379a000000000000000000000000000000000000000000000000000000000815260206004820152601560248201527f5a65726f206164647265737320646574656374656400000000000000000000006044820152606490fd5b6147ff610685916120306147e161063d6000611ef4565b73ffffffffffffffffffffffffffffffffffffffff83161415614764565b6025612aa9565b6106859061474a565b61065660a0611c6b565b90610685614883600461482a61480f565b9461483b61483782611284565b8752565b61485161484a60018301611284565b6020880152565b61486761486060028301611284565b6040880152565b61487d61487660038301611284565b6060880152565b01611284565b6080840152565b61065690614819565b91906148b46148ae6000926148a9866022610a57565b611241565b5061488a565b9260186148c46123a28383610a57565b60208601906148d7611fc0610656845190565b10156149ce5751915b60608601916148ed835190565b429590861061499a5750614904916123a291610a57565b614912611fc0610656845190565b1015614985576120926149386080946122e761493361496996612bbd875190565b945190565b6149636149558461265261081161494f6002610d16565b83611fba565b612311836126526000610d16565b926121ac565b925b01614977610656825190565b83116149805750565b519150565b50505060806149946000610d16565b9261496b565b6149c49250610811939150608095612bbd6149bf614994976123119450612bbd865190565b935190565b6120926002610d16565b506149dc6123a28383610a57565b916148e0565b601e916000916149f56123a28286610a57565b91614a40614a028361270f565b809550614a136123a285601d610a57565b9684600098614a24611fc08b610d16565b149182614af2575b50508015614ad8575b15614abd5795610d16565b92835b6022614a59610656614a558784610a57565b5490565b861015614ab457614aae916123118661231161257b614aa28d614a9c6040614a968f614a906148ae826148a9614aa89f8d90610a57565b98614893565b96015190565b946121ac565b83611f64565b94612169565b93614a43565b50935094509050565b6149c4614ad2916123116123a287600c610a57565b95610d16565b50614aea6106566123a286600c610a57565b811015614a35565b614b019250906123a291610a57565b614b0d611fc089610d16565b148438614a2c565b90614b1e825490565b614b2781612111565b92614b3b6020850191600052602060002090565b6000915b838310614b4c5750505050565b60056020600192614b5c8561488a565b815201920192019190614b3f565b61065690614b15565b614b8a61065691614b82606090565b506022610a57565b614b6a565b614a5561065691614b82600090565b61236a9190614da3565b614bb061480f565b906000825260208080808086016000815201600081520160008152016000905250565b610656614ba8565b614be5600d6142f1565b7f67657474696e67207374616b6500000000000000000000000000000000000000602082015290565b610656614bdb565b614c2060076142f1565b7f6c6f6f70696e6700000000000000000000000000000000000000000000000000602082015290565b610656614c16565b614c5b600c6142f1565b7f666f756e64206b656b5f69640000000000000000000000000000000000000000602082015290565b610656614c51565b614c9660176142f1565b7f5468652077696e6e696e67206e756d626572206973213a000000000000000000602082015290565b610656614c8c565b614cd1600e6142f1565b7f6265666f72652052657175697265000000000000000000000000000000000000602082015290565b610656614cc7565b15614d0957565b6040517f08c379a000000000000000000000000000000000000000000000000000000000815260206004820152601060248201527f5374616b65724e6f74466f756e643a28000000000000000000000000000000006044820152606490fd5b614d72600e6142f1565b7f7265717569726520706173736564000000000000000000000000000000000000602082015290565b610656614d68565b9091614dad614bd3565b91600080614dc283614dbd614c0e565b615018565b614dcb86614ec7565b6022614ddd610656614a558684610a57565b821015614eb957614df582614df0614c49565b614f98565b614e126106566000614e0b856148a98987610a57565b5001611284565b8714614e275750614e2290612169565b614dcb565b819550614e6b9250906148a9614eae946148ae93614e4784614df0614c84565b614e62614e5d6000614e0b876148a98787610a57565b614ec7565b610a9e8a614ec7565b93614e8384614e7b614e5d885190565b614df0614cbf565b614e93614e8e614cfa565b614f31565b614ea8611fc0611f6b8761242d614e5d825190565b14614d02565b610685614e8e614d9b565b50509293614eae9150614e83565b6143e6614f1061068592614eda60405190565b9283916004602084017f27b7cf850000000000000000000000000000000000000000000000000000000081520190815260200190565b60008091614f1c815190565b906020016a636f6e736f6c652e6c6f675afa50565b6143e6614f1061068592614f4460405190565b9283916004602084017f41304fac00000000000000000000000000000000000000000000000000000000815201613566565b92916020614f93610685936040870190878203600089015261353c565b940152565b90614f10610685926143e6614fac60405190565b9384926004602085017fb60e72cc00000000000000000000000000000000000000000000000000000000815201614f76565b92916020614ffb610685936040870190878203600089015261353c565b94019073ffffffffffffffffffffffffffffffffffffffff169052565b90614f10610685926143e661502c60405190565b9384926004602085017f319af33300000000000000000000000000000000000000000000000000000000815201614fde565b90612f2c91615070612f0c6002611284565b6106859190615080600133612ce4565b61514e565b6106569060281c61063d565b6106569054615085565b507f4e487b7100000000000000000000000000000000000000000000000000000000600052600060045260246000fd5b90612af8610656612a899290565b6106859190612bc2906080906004906150fa816150f4875190565b906150cb565b61510c60018201612bc2602088015190565b61511e60028201612bc2604088015190565b61513060038201612bc2606088015190565b0192015190565b6106859291156150d95761514961509b565b6150d9565b90339061515b8383614da3565b61516a83612cc1604085015190565b9060009161517783610d16565b8511156152d65761521461521a9261520989615202615286986151fb89976151b78d8f6151a76120306021615091565b906151b130610946565b916153c8565b6151f46151c5602085015190565b6151ed6151de60806151d8606089015190565b97015190565b976151e761480f565b9c8d0152565b60208b0152565b6040890152565b6060870152565b6080850152565b6148a9886022610a57565b90615137565b61523261522b84612cc1601b611284565b601b612ae8565b61524d61524085601d610a57565b612bc285612cc183611284565b615256846126e6565b61526261063d83611ef4565b73ffffffffffffffffffffffffffffffffffffffff8216036152c2575b5083612ce4565b6152b07f2640b32e7e5d0fa2a21ea06b22fbd75fda0fda384a895a5fdeef43646de47a0c92610946565b926152bd610e1460405190565b0390a2565b6152406152d091601f610a57565b3861527f565b6040517f063921df000000000000000000000000000000000000000000000000000000008152600490fd5b906106859161505e565b73ffffffffffffffffffffffffffffffffffffffff9091168152606081019392610685929091604091610de590613077565b1561534457565b6040517f08c379a0000000000000000000000000000000000000000000000000000000008152602060048201526024808201527f5472616e7366657248656c7065723a205452414e534645525f46524f4d5f464160448201527f494c4544000000000000000000000000000000000000000000000000000000006064820152608490fd5b6004615401600094936143e66106859787966153e76323b872dd614274565b936153f160405190565b968795602087019081520161530b565b82602082019151925af16154136142fe565b8161541f575b5061533d565b9050615429815190565b615436611fc06000610d16565b14908115615446575b5038615419565b61545591506020614449825190565b3861543f565b90612f2c9161546d612f0c6002611284565b610685919061547d600133612ce4565b6154af565b610de5610685946154a86060949897956154a1608086019a6000870152565b6020850152565b6040830152565b33906154bb8183614da3565b4294919291858111156156645760608401866154d5825190565b6000908210156156525750612bbd6154eb925190565b935b6154fe6154fa888461219f565b9590565b851115615627576155126106566008611284565b85106155fc576155256106566007611284565b85116155d157866152146152bd9461557e615544604061558996015190565b6155736155508b612519565b9161556c61555c61480f565b976155658d8a52565b6020890152565b6040870152565b615202876060870152565b6148a9896022610a57565b615594600086612ce4565b6155be7fc2cf1aae6decacbc52f96b4e4fec96d4ebab5236e4ed987165537bc463014a4395610946565b956155c860405190565b94859485615482565b6040517f42d144ad000000000000000000000000000000000000000000000000000000008152600490fd5b6040517fda0f0f2a000000000000000000000000000000000000000000000000000000008152600490fd5b6040517fbdddfeec000000000000000000000000000000000000000000000000000000008152600490fd5b905061565e9150610d16565b936154ed565b6040517fa51620a7000000000000000000000000000000000000000000000000000000008152600490fd5b906106859161545b565b90612ff992916156ac612f0c6002611284565b50610656914291338061587b565b61065691906000615699565b9061065695949392916156da600183612ce4565b615714565b6106569060181c610a78565b61065690546156df565b613094610685946154a86060949897956154a1608086019a6000870152565b50919390929061572460216156eb565b615850576157356106566008611284565b82106155fc576157486106566007611284565b82116155d1576157899061576d866157636120306021615091565b876151b130610946565b61577683612519565b908661578285836121ac565b9186616f86565b9361579b61522b82612cc1601b611284565b6157b66157a984601d610a57565b612bc283612cc183611284565b6157f56157c2846126e6565b6000906157d161063d83611ef4565b73ffffffffffffffffffffffffffffffffffffffff82160361583c575b5084612ce4565b6158366158227ff400e72e69ef4402819dfc57eeddc66f5eb69bf405e0e8098b1946ec1ac14a2294610946565b948661582d60405190565b948594856156f5565b0390a290565b61524061584a91601f610a57565b386157ee565b6040517f26d1807b000000000000000000000000000000000000000000000000000000008152600490fd5b610656949392919060006156c6565b90612ff9929161589d612f0c6002611284565b6158b8565b6106569060081c610a78565b61065690546158a2565b506158c360216158ae565b6158cd6001612fca565b146158dc5761065691336159ac565b6040517f6022a9e7000000000000000000000000000000000000000000000000000000008152600490fd5b6106569190600061588a565b9190613286610656612a899390565b61068591600091615913565b61068591600091613275565b600060046106859261594e83808301615922565b61595b836001830161592e565b615968836002830161592e565b615975836003830161592e565b0161592e565b610685911561593a5761598c61509b565b61593a565b908152606081019392610685929091604091613094906114c7565b600192916159bb848284613206565b506159c68383614da3565b94426159d9611fc0610656606086015190565b1015908115615b2b575b50615b0057604001519360006159f881610d16565b8611615a07575b505050505090565b615a98615a92615a9e93615a288987615a236120306021615091565b6143ad565b615a3961522b8a612bbd601b611284565b615a54615a4788601d610a57565b612bc28b612bbd83611284565b615a5d876126e6565b615a6961063d86611ef4565b73ffffffffffffffffffffffffffffffffffffffff821603615aec575b506148a9876022610a57565b9061597b565b83612ce4565b615ac87f1d9308f6b22a2754a1c622bb30889e8f8f956c83e524d039e9d65d5f052eb90892610946565b92615adf615ad560405190565b9283928784615991565b0390a238808080806159ff565b615a47615afa91601f610a57565b38615a86565b6040517f372a7fe5000000000000000000000000000000000000000000000000000000008152600490fd5b9050615b43612fca615b3d60216126dc565b92151590565b14386159e3565b33615b6284612d3a84610a9e876113f2876026610a57565b615ba9615b9f615b9b615b957fa1376f00ce38a02643af0ff97dce59c2c81b4c8ad34c717ce9a44ed623e0718d94610946565b94610946565b9490565b9461081a60405190565b0390a4565b6106a490610d16565b6020810192916106859190615bae565b90600091615bd483610d16565b615bed602691612d3a84610a9e876113f2338098610a57565b615ba9615c20615b9b615b957fa1376f00ce38a02643af0ff97dce59c2c81b4c8ad34c717ce9a44ed623e0718d94610946565b94615c2a60405190565b91829182615bb7565b33615c4783612b4184610a9e856027610a57565b615c87615c7d615c777f17307eab39ab6107e8899845ad3d59bd9653f200f220920489ca2b5937696c3193610946565b93610946565b936107c060405190565b0390a3565b615c97816027610a57565b90615ca66126f4338094610a57565b15615cb45750505050600190565b6123a2611fc092610a9e615cd0956113f2611f6b956026610a57565b10615cda57600190565b600090565b90615cfb969594939291615cf6612f0c6002611284565b615d08565b9091610685612f20612ef1565b969594939291965050615d1f612b37848489615c8c565b615d3c5785615d338484615d389899615d89565b616c5b565b9091565b5033612a5f615d4a60405190565b9283927f01aca06d00000000000000000000000000000000000000000000000000000000845260048401613213565b615d389493929190600080615cdf565b90602691615d9b826113f28386610a57565b93615daa6123a2338097610a57565b819003615dd1575092610a9e612d3a926113f261068596615dcb6000610d16565b96610a57565b929093615de96123a282610a9e866113f28a88610a57565b841015615e0757610a9e612bc2936113f261068597612bb395610a57565b6040517f13be252b000000000000000000000000000000000000000000000000000000008152600490fd5b90615cfb9594939291615e48612f0c6002611284565b50615d3894939291905033616c5b565b615d3893929190600080615e32565b90615d38969594939291615e7c600184612ce4565b90615d38969594939291615e91600185612ce4565b61658e565b7fffffffff000000000000000000000000000000000000000000000000000000008116610671565b9050519061068582615e96565b906106569160208183031215615ebe57615ee3600080fd5b615ebe565b73ffffffffffffffffffffffffffffffffffffffff9091168152610656926080820192615f3291906154a8905b73ffffffffffffffffffffffffffffffffffffffff166020850152565b60608183039101526000815260200190565b1561063857565b615f5560166142f1565b7f494e56414c4944205245434549564552204552524f5200000000000000000000602082015290565b610656615f4b565b615f9060126142f1565b7f494e56414c49442054494d45204552524f520000000000000000000000000000602082015290565b610656615f86565b615fcb60146142f1565b7f494e56414c494420414d4f554e54204552524f52000000000000000000000000602082015290565b610656615fc1565b616006601a6142f1565b7f5374616b657220616464726573732070726f787920434845434b000000000000602082015290565b610656615ffc565b61604160116142f1565b7f4265666f7265206163636f756e74696e67000000000000000000000000000000602082015290565b610656616037565b61607c60066142f1565b7f4445445543540000000000000000000000000000000000000000000000000000602082015290565b610656616072565b6160b760106142f1565b7f4166746572206163636f756e74696e6700000000000000000000000000000000602082015290565b6106566160ad565b6160f260066142f1565b7f44454c4554450000000000000000000000000000000000000000000000000000602082015290565b6106566160e8565b61612d600f6142f1565b7f555044415445204558495354494e470000000000000000000000000000000000602082015290565b610656616123565b616168601c6142f1565b7f41667465725570646174654578697374696e67446573745374616b6500000000602082015290565b61065661615e565b6161a360226142f1565b7f4265666f726555706461746552656365697665725374616b654c69717569646960208201527f7479000000000000000000000000000000000000000000000000000000000000604082015290565b610656616199565b61620460216142f1565b7f416674657255706461746552656365697665725374616b654c6971756964697460208201527f7900000000000000000000000000000000000000000000000000000000000000604082015290565b6106566161fa565b61626560226142f1565b7f4265666f726555706461746552656365697665725374616b6554696d6573746160208201527f6d70000000000000000000000000000000000000000000000000000000000000604082015290565b61065661625b565b6162c660106142f1565b7f455854454e442054494d455354414d5000000000000000000000000000000000602082015290565b6106566162bc565b61630160226142f1565b7f57697468696e55706461746552656365697665725374616b6554696d6573746160208201527f6d70000000000000000000000000000000000000000000000000000000000000604082015290565b6106566162f7565b61636260216142f1565b7f416674657255706461746552656365697665725374616b6554696d657374616d60208201527f7000000000000000000000000000000000000000000000000000000000000000604082015290565b610656616358565b6163c3600a6142f1565b7f435245415445204e455700000000000000000000000000000000000000000000602082015290565b6106566163b9565b6163fe60156142f1565b7f6265666f726520637265617465206e6577206b656b0000000000000000000000602082015290565b6106566163f4565b61643960146142f1565b7f616674657220637265617465206e6577206b656b000000000000000000000000602082015290565b61065661642f565b616474601b6142f1565b7f555044415445205245574152445320414e442042414c414e4345530000000000602082015290565b61065661646a565b6164af60106142f1565b7f73656e6465722c20726563656976657200000000000000000000000000000000602082015290565b6106566164a5565b6164ea60136142f1565b7f43414c4c204f4e4c4f434b524543454956454400000000000000000000000000602082015290565b6106566164e0565b61065660006142f1565b61065661651b565b61653760236142f1565b7f56657279206e6963652c2049206c696b652c206772656174207375636365737360208201527f2121210000000000000000000000000000000000000000000000000000000000604082015290565b61065661652d565b5093959492935090916000823b6165a7611fc083610d16565b11616b7e575b6165b78584614da3565b9290916165c381611ef4565b9373ffffffffffffffffffffffffffffffffffffffff851673ffffffffffffffffffffffffffffffffffffffff8816148015616b49575b616b1057606084019461660e610656875190565b4210158015616af5575b616ad057604085019061662c610656835190565b8c118015616abe575b616a7e57918b6166fb9492610656946166aa611e04611dea8e8e61667661666983601d610a9e8c612bc2612bb38885610a57565b612bc28a612cc183611284565b61667f816126e6565b61669e73ffffffffffffffffffffffffffffffffffffffff8816611e04565b03616a45575b506126e6565b03616a1c575b6166c9826166bc835190565b6166c461606a565b616d01565b896166d5610656835190565b83036169df57505050615a92613136916166f0614e8e61611b565b6148a98a6022610a57565b810361680c579161674b9161672561680196959461671a614e8e6163ec565b614e5d614e8e616427565b88616744608061673e616739602086015190565b955190565b93015190565b9286616f86565b9561675b87614e5d614e8e616462565b616766614e8e61649d565b61677b60016167758185612ce4565b84612ce4565b7fd8413caab9b66d88aed167bb4f6b308542a6953a6a54e22f67c5271d34ef97be6167a583610946565b90866167b086610946565b936167be8b6114f260405190565b0390a36167d382826167ce6164d8565b616d88565b6167de614e8e616513565b6167f96167f46167ec616525565b888585617196565b615f44565b6167ce6164d8565b611fc0614e8e616586565b96905061694b616801949392616823614e8e616156565b61694261693d826168348c89614da3565b6168608160606168476040869796015190565b950194616852865190565b9061685b616191565b616dfc565b898360229261688361687b6002614e0b846148a9888a610a57565b614df06161f2565b6168a56002616896836148a98789610a57565b5001612bc28d612cc183611284565b6168c36168bb6002614e0b846148a9888a610a57565b614df0616253565b6168ea6168ce835190565b6168dc611fc0610656895190565b106168e56162b4565b616c91565b6169006168f5835190565b8651906166c46162b4565b8151616910611fc0610656885190565b10616950575b505161242d935091506169269050565b616934611fc0610656885190565b106168e56163b1565b915190565b906166c46163b1565b61675b565b6169b660049360036169af846148a96169a86169d59b61242d61699d6169af9b61697b614e8e6162ef565b61242d616986825190565b616994611fc0610656885190565b106168e5616350565b8251906166c4616350565b948a610a57565b5001612ae8565b6148a98d6169cf6108116169c88d5190565b429061219f565b95610a57565b8338898382616916565b9061242d6002616a05613136966148a9616a14966169fe614e8e6160a5565b6022610a57565b5001612bc285612bbd83611284565b6166c46160e0565b616a40616a33601f616a2d8e6126e6565b90610a57565b612bc284612cc183611284565b6166b0565b616a6b81616a60616a58616a78946126e6565b614dbd61602f565b616a2d601f916126e6565b612bc289612bbd83611284565b8e6166a4565b616a938c616a8a845190565b906166c4615ff4565b6040517f2c5211c6000000000000000000000000000000000000000000000000000000008152600490fd5b50616ac884610d16565b8c1115616635565b615b00616adb875190565b616ae560216126dc565b90616aee615fb9565b4290616e71565b50616b0060216126dc565b616b0a6001612fca565b14616618565b616b1d86886167ce615f7e565b6040515b7f1e4ec46b000000000000000000000000000000000000000000000000000000008152600490fd5b5073ffffffffffffffffffffffffffffffffffffffff861673ffffffffffffffffffffffffffffffffffffffff8816146165fa565b616c1b616ba16020616b9261203087610946565b634fb071059061279460405190565b8252818681616bb58d8d8d60048501615ee8565b03925af1908115616c4e575b600091616c20575b50616c157f4fb07105000000000000000000000000000000000000000000000000000000005b917fffffffff000000000000000000000000000000000000000000000000000000001690565b14615f44565b6165ad565b616c41915060203d8111616c47575b616c398183611c1e565b810190615ecb565b38616bc9565b503d616c2f565b616c56611f27565b616bc1565b615d389493929190600080615e67565b92916020616c88610685936040870190878203600089015261353c565b94019015159052565b90614f10610685926143e6616ca560405190565b9384926004602085017fc3b5563500000000000000000000000000000000000000000000000000000000815201616c6b565b604090610de5616cf9610685959796946060840190848203600086015261353c565b966020830152565b614f10906143e661068594616d1560405190565b9485936004602086017fca47c4eb00000000000000000000000000000000000000000000000000000000815201616cd7565b604090613094616d69610685959796946060840190848203600086015261353c565b73ffffffffffffffffffffffffffffffffffffffff9097166020830152565b614f10906143e661068594616d9c60405190565b9485936004602086017ffcec75e000000000000000000000000000000000000000000000000000000000815201616d47565b610de5610685946154a8616df4606095999896996080860190868203600088015261353c565b986020850152565b6143e661068594614f109394616e1160405190565b9586946004602087017fa7a8785300000000000000000000000000000000000000000000000000000000815201616dce565b616e69610685946154a8616df4606095999896996080860190868203600088015261353c565b019015159052565b6143e661068594614f109394616e8660405190565b9586946004602087017f7626db9200000000000000000000000000000000000000000000000000000000815201616e43565b616ec260106142f1565b7f435245415445204e4557204b454b494400000000000000000000000000000000602082015290565b610656616eb8565b92616f1060206106a894616f10601488616f10859b9a8699613499565b01918252565b906152146106859280549068010000000000000000821015616f3e575b600182018155611241565b616f46611bee565b616f33565b616f5560196142f1565b7f435245415445204e4557204b454b4944202d2050555348454400000000000000602082015290565b610656616f4b565b949361701f9061488361702495616f9b600090565b50616fa7614e8e616eeb565b617018613786616fd8616fbe6123a28d601d610a57565b8c616fc860405190565b9384928c8c602086019485616ef3565b616fea616fe3825190565b9160200190565b20966148606170006106568a9d6169fe8c614ec7565b9761701161700c61480f565b9a8b52565b60208a0152565b6060860152565b616f16565b610685614e8e616f7e565b61703960176142f1565b7f436865636b696e67206f6e4c6f636b5265636569766564000000000000000000602082015290565b61065661702f565b61707460146142f1565b7f726563656976657220686173206e6f20636f6465000000000000000000000000602082015290565b61065661706a565b6170af60116142f1565b7f72656365697665722068617320636f6465000000000000000000000000000000602082015290565b6106566170a5565b73ffffffffffffffffffffffffffffffffffffffff9091168152610656936080820193909261711391906154a890615f15565b606081840391015261353c565b61712a60066142f1565b7f747279696e670000000000000000000000000000000000000000000000000000602082015290565b610656617120565b61716560066142f1565b7f6661696c65640000000000000000000000000000000000000000000000000000602082015290565b61065661715b565b6000949391926171a984836167ce617062565b600093803b6171ba611fc087610d16565b11156172a557906020916171cf614e8e6170d8565b6171db61203082610946565b908663c42d8b959561720b6171ef60405190565b988996879586946172008c60e01b90565b8652600486016170e0565b03925af160009281617285575b5061726557505060016172285750565b6172306142fe565b9061723c614e8e61718e565b617250611fc061724a845190565b92610d16565b0361725d57604051616b21565b805190602001fd5b616bef91939450617281925061727c614e8e617153565b614274565b1490565b61729e91935060203d8111616c4757616c398183611c1e565b9138617218565b50505050509050611e28614e8e61709d56fea264697066735822122033f0c0ee2f26e34147dcd4e72972e31bbd283a52f611e204c5050349dbd89c2e64736f6c63430008110033",
    "linkReferences": {}
  },
  "methodIdentifiers": {
    "acceptOwnership()": "79ba5097",
    "calcCurCombinedWeight(address)": "8bad86a7",
    "calcCurrLockMultiplier(address,uint256)": "774d4ae7",
    "changeTokenManager(address,address)": "de1a6551",
    "combinedWeightOf(address)": "36f89af2",
    "curvePool()": "218751b2",
    "curveToken()": "4f39059c",
    "earned(address)": "008cc262",
    "fraxPerLPStored()": "d2010fb4",
    "fraxPerLPToken()": "5bfd9258",
    "getAllRewardTokens()": "12edb24c",
    "getLatestETHPriceE8()": "bdb123e3",
    "getProxyFor(address)": "c3543826",
    "getReward(address)": "c00007b0",
    "getReward2(address,bool)": "7910d17b",
    "getRewardExtraLogic(address)": "387edc86",
    "getRewardForDuration()": "1c1f78eb",
    "getStake(address,bytes32)": "de57a5b5",
    "isApproved(address,bytes32,uint256)": "061a7bf5",
    "isTokenManagerFor(address,address)": "231b68dc",
    "kekAllowance(address,bytes32,address)": "7ab44e40",
    "lastRewardClaimTime(address)": "6c430dbb",
    "lastUpdateTime()": "c8f33c91",
    "lockAdditional(bytes32,uint256)": "b85efd06",
    "lockLonger(bytes32,uint256)": "d2fbdc0d",
    "lockMultiplier(uint256)": "0d7bac4f",
    "lock_max_multiplier()": "cdc82e80",
    "lock_time_for_max_multiplier()": "b94c4dcb",
    "lock_time_min()": "6e27cef9",
    "lockedLiquidityOf(address)": "d9f96e8d",
    "lockedStakes(address,uint256)": "7970833e",
    "lockedStakesOf(address)": "1e090f01",
    "lockedStakesOfLength(address)": "ca6df29d",
    "maxLPForMaxBoost(address)": "a0f23476",
    "minVeFXSForMaxBoost(address)": "4fd2b536",
    "minVeFXSForMaxBoostProxy(address)": "7f472e54",
    "nominateNewOwner(address)": "1627540c",
    "nominatedOwner()": "53a47bb7",
    "owner()": "8da5cb5b",
    "periodFinish()": "ebe2b12b",
    "priceFeedETHUSD()": "15a202a1",
    "proxyStakedFrax(address)": "1face856",
    "proxyToggleStaker(address)": "e7f30582",
    "proxy_lp_balances(address)": "7d6ef08e",
    "recoverERC20(address,uint256)": "8980f11f",
    "removeAllowance(address,bytes32)": "b61aa08c",
    "rewardManagers(address)": "41a16f3f",
    "rewardRates(uint256)": "f2caeb1e",
    "rewardTokenAddrToIdx(address)": "69339245",
    "rewardsDuration()": "386a9525",
    "rewardsPerToken()": "70641a36",
    "setAllowance(address,bytes32,uint256)": "a10d3b33",
    "setApprovalForAll(address,bool)": "a22cb465",
    "setETHUSDOracle(address)": "741d3c18",
    "setMiscVariables(uint256[6])": "facefb64",
    "setPauses(bool,bool,bool)": "cc2abd64",
    "setRewardVars(address,uint256,address,address)": "d5e1a9c6",
    "spenderApprovalForAllLocks(address,address)": "1bcb7d90",
    "stakeLocked(uint256,uint256)": "17b18c89",
    "stakerSetVeFXSProxy(address)": "d7400d56",
    "staker_designated_proxies(address)": "28408bab",
    "stakesUnlocked()": "9637927f",
    "stakingToken()": "72f702f3",
    "sync()": "fff6cae9",
    "sync_gauge_weights(bool)": "f77e34d1",
    "toggleValidVeFXSProxy(address)": "91cf600a",
    "totalCombinedWeight()": "64f2c060",
    "totalLiquidityLocked()": "e01f62bf",
    "transferLocked(address,bytes32,uint256,bytes32)": "3c62c44f",
    "transferLockedFrom(address,address,bytes32,uint256,bytes32)": "663b135c",
    "unlockStakes()": "e1ba95d2",
    "updateRewardAndBalance(address,bool)": "55189773",
    "userStakedFrax(address)": "d42fc9b4",
    "veFXSMultiplier(address)": "2c0c2a0a",
    "vefxs_boost_scale_factor()": "aa1d4fce",
    "vefxs_max_multiplier()": "f288baf6",
    "vefxs_per_frax_for_max_boost()": "f2a8d349",
    "withdrawLocked(bytes32,address)": "e44b9fa5"
  },
  "id": 78
}