{
  "abi": [
    {
      "inputs": [
        {
          "internalType": "address",
          "name": "_owner",
          "type": "address"
        },
        {
          "internalType": "address[]",
          "name": "_rewardTokens",
          "type": "address[]"
        },
        {
          "internalType": "address[]",
          "name": "_rewardManagers",
          "type": "address[]"
        },
        {
          "internalType": "uint256[]",
          "name": "_rewardRatesManual",
          "type": "uint256[]"
        },
        {
          "internalType": "address[]",
          "name": "_gaugeControllers",
          "type": "address[]"
        },
        {
          "internalType": "address[]",
          "name": "_rewardDistributors",
          "type": "address[]"
        },
        {
          "internalType": "address",
          "name": "_stakingToken",
          "type": "address"
        }
      ],
      "stateMutability": "nonpayable",
      "type": "constructor"
    },
    {
      "inputs": [],
      "name": "CannotShortenLockTime",
      "type": "error"
    },
    {
      "inputs": [],
      "name": "InsufficientAllowance",
      "type": "error"
    },
    {
      "inputs": [],
      "name": "InvalidAmount",
      "type": "error"
    },
    {
      "inputs": [],
      "name": "InvalidReceiver",
      "type": "error"
    },
    {
      "inputs": [],
      "name": "MinimumStakeTimeNotMet",
      "type": "error"
    },
    {
      "inputs": [],
      "name": "MustBeInTheFuture",
      "type": "error"
    },
    {
      "inputs": [],
      "name": "MustBePositive",
      "type": "error"
    },
    {
      "inputs": [],
      "name": "StakerNotFound",
      "type": "error"
    },
    {
      "inputs": [],
      "name": "StakesUnlocked",
      "type": "error"
    },
    {
      "inputs": [],
      "name": "StakingPaused",
      "type": "error"
    },
    {
      "inputs": [
        {
          "internalType": "address",
          "name": "spender",
          "type": "address"
        },
        {
          "internalType": "bytes32",
          "name": "kek_id",
          "type": "bytes32"
        }
      ],
      "name": "TransferLockNotAllowed",
      "type": "error"
    },
    {
      "inputs": [],
      "name": "TryingToLockForTooLong",
      "type": "error"
    },
    {
      "inputs": [],
      "name": "WithdrawalsPaused",
      "type": "error"
    },
    {
      "anonymous": false,
      "inputs": [
        {
          "indexed": true,
          "internalType": "address",
          "name": "staker",
          "type": "address"
        },
        {
          "indexed": true,
          "internalType": "address",
          "name": "spender",
          "type": "address"
        },
        {
          "indexed": true,
          "internalType": "bytes32",
          "name": "kek_id",
          "type": "bytes32"
        },
        {
          "indexed": false,
          "internalType": "uint256",
          "name": "amount",
          "type": "uint256"
        }
      ],
      "name": "Approval",
      "type": "event"
    },
    {
      "anonymous": false,
      "inputs": [
        {
          "indexed": true,
          "internalType": "address",
          "name": "owner",
          "type": "address"
        },
        {
          "indexed": true,
          "internalType": "address",
          "name": "spender",
          "type": "address"
        },
        {
          "indexed": false,
          "internalType": "bool",
          "name": "approved",
          "type": "bool"
        }
      ],
      "name": "ApprovalForAll",
      "type": "event"
    },
    {
      "anonymous": false,
      "inputs": [
        {
          "indexed": true,
          "internalType": "address",
          "name": "user",
          "type": "address"
        },
        {
          "indexed": false,
          "internalType": "bytes32",
          "name": "kek_id",
          "type": "bytes32"
        },
        {
          "indexed": false,
          "internalType": "uint256",
          "name": "amount",
          "type": "uint256"
        }
      ],
      "name": "LockedAdditional",
      "type": "event"
    },
    {
      "anonymous": false,
      "inputs": [
        {
          "indexed": true,
          "internalType": "address",
          "name": "user",
          "type": "address"
        },
        {
          "indexed": false,
          "internalType": "bytes32",
          "name": "kek_id",
          "type": "bytes32"
        },
        {
          "indexed": false,
          "internalType": "uint256",
          "name": "new_secs",
          "type": "uint256"
        },
        {
          "indexed": false,
          "internalType": "uint256",
          "name": "new_start_ts",
          "type": "uint256"
        },
        {
          "indexed": false,
          "internalType": "uint256",
          "name": "new_end_ts",
          "type": "uint256"
        }
      ],
      "name": "LockedLonger",
      "type": "event"
    },
    {
      "anonymous": false,
      "inputs": [
        {
          "indexed": false,
          "internalType": "address",
          "name": "oldOwner",
          "type": "address"
        },
        {
          "indexed": false,
          "internalType": "address",
          "name": "newOwner",
          "type": "address"
        }
      ],
      "name": "OwnerChanged",
      "type": "event"
    },
    {
      "anonymous": false,
      "inputs": [
        {
          "indexed": false,
          "internalType": "address",
          "name": "newOwner",
          "type": "address"
        }
      ],
      "name": "OwnerNominated",
      "type": "event"
    },
    {
      "anonymous": false,
      "inputs": [
        {
          "indexed": true,
          "internalType": "address",
          "name": "user",
          "type": "address"
        },
        {
          "indexed": false,
          "internalType": "uint256",
          "name": "amount",
          "type": "uint256"
        },
        {
          "indexed": false,
          "internalType": "address",
          "name": "token_address",
          "type": "address"
        },
        {
          "indexed": false,
          "internalType": "address",
          "name": "destination_address",
          "type": "address"
        }
      ],
      "name": "RewardPaid",
      "type": "event"
    },
    {
      "anonymous": false,
      "inputs": [
        {
          "indexed": true,
          "internalType": "address",
          "name": "user",
          "type": "address"
        },
        {
          "indexed": false,
          "internalType": "uint256",
          "name": "amount",
          "type": "uint256"
        },
        {
          "indexed": false,
          "internalType": "uint256",
          "name": "secs",
          "type": "uint256"
        },
        {
          "indexed": false,
          "internalType": "bytes32",
          "name": "kek_id",
          "type": "bytes32"
        },
        {
          "indexed": false,
          "internalType": "address",
          "name": "source_address",
          "type": "address"
        }
      ],
      "name": "StakeLocked",
      "type": "event"
    },
    {
      "anonymous": false,
      "inputs": [
        {
          "indexed": true,
          "internalType": "address",
          "name": "staker_address",
          "type": "address"
        },
        {
          "indexed": true,
          "internalType": "address",
          "name": "destination_address",
          "type": "address"
        },
        {
          "indexed": false,
          "internalType": "uint256",
          "name": "amount_transferred",
          "type": "uint256"
        },
        {
          "indexed": false,
          "internalType": "bytes32",
          "name": "source_kek_id",
          "type": "bytes32"
        },
        {
          "indexed": false,
          "internalType": "bytes32",
          "name": "destination_kek_id",
          "type": "bytes32"
        }
      ],
      "name": "TransferLocked",
      "type": "event"
    },
    {
      "anonymous": false,
      "inputs": [
        {
          "indexed": true,
          "internalType": "address",
          "name": "user",
          "type": "address"
        },
        {
          "indexed": false,
          "internalType": "uint256",
          "name": "liquidity",
          "type": "uint256"
        },
        {
          "indexed": false,
          "internalType": "bytes32",
          "name": "kek_id",
          "type": "bytes32"
        },
        {
          "indexed": false,
          "internalType": "address",
          "name": "destination_address",
          "type": "address"
        }
      ],
      "name": "WithdrawLocked",
      "type": "event"
    },
    {
      "inputs": [],
      "name": "acceptOwnership",
      "outputs": [],
      "stateMutability": "nonpayable",
      "type": "function"
    },
    {
      "inputs": [
        {
          "internalType": "address",
          "name": "account",
          "type": "address"
        }
      ],
      "name": "calcCurCombinedWeight",
      "outputs": [
        {
          "internalType": "uint256",
          "name": "old_combined_weight",
          "type": "uint256"
        },
        {
          "internalType": "uint256",
          "name": "new_vefxs_multiplier",
          "type": "uint256"
        },
        {
          "internalType": "uint256",
          "name": "new_combined_weight",
          "type": "uint256"
        }
      ],
      "stateMutability": "view",
      "type": "function"
    },
    {
      "inputs": [
        {
          "internalType": "address",
          "name": "account",
          "type": "address"
        },
        {
          "internalType": "uint256",
          "name": "stake_idx",
          "type": "uint256"
        }
      ],
      "name": "calcCurrLockMultiplier",
      "outputs": [
        {
          "internalType": "uint256",
          "name": "midpoint_lock_multiplier",
          "type": "uint256"
        }
      ],
      "stateMutability": "view",
      "type": "function"
    },
    {
      "inputs": [
        {
          "internalType": "address",
          "name": "reward_token_address",
          "type": "address"
        },
        {
          "internalType": "address",
          "name": "new_manager_address",
          "type": "address"
        }
      ],
      "name": "changeTokenManager",
      "outputs": [],
      "stateMutability": "nonpayable",
      "type": "function"
    },
    {
      "inputs": [
        {
          "internalType": "address",
          "name": "account",
          "type": "address"
        }
      ],
      "name": "combinedWeightOf",
      "outputs": [
        {
          "internalType": "uint256",
          "name": "",
          "type": "uint256"
        }
      ],
      "stateMutability": "view",
      "type": "function"
    },
    {
      "inputs": [],
      "name": "curvePool",
      "outputs": [
        {
          "internalType": "contract ICurvefrxETHETHPool",
          "name": "",
          "type": "address"
        }
      ],
      "stateMutability": "view",
      "type": "function"
    },
    {
      "inputs": [],
      "name": "curveToken",
      "outputs": [
        {
          "internalType": "contract I2poolToken",
          "name": "",
          "type": "address"
        }
      ],
      "stateMutability": "view",
      "type": "function"
    },
    {
      "inputs": [
        {
          "internalType": "address",
          "name": "account",
          "type": "address"
        }
      ],
      "name": "earned",
      "outputs": [
        {
          "internalType": "uint256[]",
          "name": "new_earned",
          "type": "uint256[]"
        }
      ],
      "stateMutability": "view",
      "type": "function"
    },
    {
      "inputs": [],
      "name": "fraxPerLPStored",
      "outputs": [
        {
          "internalType": "uint256",
          "name": "",
          "type": "uint256"
        }
      ],
      "stateMutability": "view",
      "type": "function"
    },
    {
      "inputs": [],
      "name": "fraxPerLPToken",
      "outputs": [
        {
          "internalType": "uint256",
          "name": "",
          "type": "uint256"
        }
      ],
      "stateMutability": "view",
      "type": "function"
    },
    {
      "inputs": [],
      "name": "getAllRewardTokens",
      "outputs": [
        {
          "internalType": "address[]",
          "name": "",
          "type": "address[]"
        }
      ],
      "stateMutability": "view",
      "type": "function"
    },
    {
      "inputs": [],
      "name": "getLatestETHPriceE8",
      "outputs": [
        {
          "internalType": "int256",
          "name": "",
          "type": "int256"
        }
      ],
      "stateMutability": "view",
      "type": "function"
    },
    {
      "inputs": [
        {
          "internalType": "address",
          "name": "addr",
          "type": "address"
        }
      ],
      "name": "getProxyFor",
      "outputs": [
        {
          "internalType": "address",
          "name": "",
          "type": "address"
        }
      ],
      "stateMutability": "view",
      "type": "function"
    },
    {
      "inputs": [
        {
          "internalType": "address",
          "name": "destination_address",
          "type": "address"
        }
      ],
      "name": "getReward",
      "outputs": [
        {
          "internalType": "uint256[]",
          "name": "",
          "type": "uint256[]"
        }
      ],
      "stateMutability": "nonpayable",
      "type": "function"
    },
    {
      "inputs": [
        {
          "internalType": "address",
          "name": "destination_address",
          "type": "address"
        },
        {
          "internalType": "bool",
          "name": "claim_extra_too",
          "type": "bool"
        }
      ],
      "name": "getReward2",
      "outputs": [
        {
          "internalType": "uint256[]",
          "name": "",
          "type": "uint256[]"
        }
      ],
      "stateMutability": "nonpayable",
      "type": "function"
    },
    {
      "inputs": [
        {
          "internalType": "address",
          "name": "destination_address",
          "type": "address"
        }
      ],
      "name": "getRewardExtraLogic",
      "outputs": [],
      "stateMutability": "nonpayable",
      "type": "function"
    },
    {
      "inputs": [],
      "name": "getRewardForDuration",
      "outputs": [
        {
          "internalType": "uint256[]",
          "name": "rewards_per_duration_arr",
          "type": "uint256[]"
        }
      ],
      "stateMutability": "view",
      "type": "function"
    },
    {
      "inputs": [
        {
          "internalType": "address",
          "name": "staker_address",
          "type": "address"
        },
        {
          "internalType": "bytes32",
          "name": "kek_id",
          "type": "bytes32"
        }
      ],
      "name": "getStake",
      "outputs": [
        {
          "internalType": "uint256",
          "name": "arr_idx",
          "type": "uint256"
        }
      ],
      "stateMutability": "view",
      "type": "function"
    },
    {
      "inputs": [
        {
          "internalType": "address",
          "name": "staker",
          "type": "address"
        },
        {
          "internalType": "bytes32",
          "name": "kek_id",
          "type": "bytes32"
        },
        {
          "internalType": "uint256",
          "name": "amount",
          "type": "uint256"
        }
      ],
      "name": "isApproved",
      "outputs": [
        {
          "internalType": "bool",
          "name": "",
          "type": "bool"
        }
      ],
      "stateMutability": "view",
      "type": "function"
    },
    {
      "inputs": [
        {
          "internalType": "address",
          "name": "caller_addr",
          "type": "address"
        },
        {
          "internalType": "address",
          "name": "reward_token_addr",
          "type": "address"
        }
      ],
      "name": "isTokenManagerFor",
      "outputs": [
        {
          "internalType": "bool",
          "name": "",
          "type": "bool"
        }
      ],
      "stateMutability": "view",
      "type": "function"
    },
    {
      "inputs": [
        {
          "internalType": "address",
          "name": "",
          "type": "address"
        },
        {
          "internalType": "bytes32",
          "name": "",
          "type": "bytes32"
        },
        {
          "internalType": "address",
          "name": "",
          "type": "address"
        }
      ],
      "name": "kekAllowance",
      "outputs": [
        {
          "internalType": "uint256",
          "name": "",
          "type": "uint256"
        }
      ],
      "stateMutability": "view",
      "type": "function"
    },
    {
      "inputs": [
        {
          "internalType": "address",
          "name": "",
          "type": "address"
        }
      ],
      "name": "lastRewardClaimTime",
      "outputs": [
        {
          "internalType": "uint256",
          "name": "",
          "type": "uint256"
        }
      ],
      "stateMutability": "view",
      "type": "function"
    },
    {
      "inputs": [],
      "name": "lastUpdateTime",
      "outputs": [
        {
          "internalType": "uint256",
          "name": "",
          "type": "uint256"
        }
      ],
      "stateMutability": "view",
      "type": "function"
    },
    {
      "inputs": [
        {
          "internalType": "bytes32",
          "name": "kek_id",
          "type": "bytes32"
        },
        {
          "internalType": "uint256",
          "name": "addl_liq",
          "type": "uint256"
        }
      ],
      "name": "lockAdditional",
      "outputs": [],
      "stateMutability": "nonpayable",
      "type": "function"
    },
    {
      "inputs": [
        {
          "internalType": "bytes32",
          "name": "kek_id",
          "type": "bytes32"
        },
        {
          "internalType": "uint256",
          "name": "new_ending_ts",
          "type": "uint256"
        }
      ],
      "name": "lockLonger",
      "outputs": [],
      "stateMutability": "nonpayable",
      "type": "function"
    },
    {
      "inputs": [
        {
          "internalType": "uint256",
          "name": "secs",
          "type": "uint256"
        }
      ],
      "name": "lockMultiplier",
      "outputs": [
        {
          "internalType": "uint256",
          "name": "",
          "type": "uint256"
        }
      ],
      "stateMutability": "view",
      "type": "function"
    },
    {
      "inputs": [],
      "name": "lock_max_multiplier",
      "outputs": [
        {
          "internalType": "uint256",
          "name": "",
          "type": "uint256"
        }
      ],
      "stateMutability": "view",
      "type": "function"
    },
    {
      "inputs": [],
      "name": "lock_time_for_max_multiplier",
      "outputs": [
        {
          "internalType": "uint256",
          "name": "",
          "type": "uint256"
        }
      ],
      "stateMutability": "view",
      "type": "function"
    },
    {
      "inputs": [],
      "name": "lock_time_min",
      "outputs": [
        {
          "internalType": "uint256",
          "name": "",
          "type": "uint256"
        }
      ],
      "stateMutability": "view",
      "type": "function"
    },
    {
      "inputs": [
        {
          "internalType": "address",
          "name": "account",
          "type": "address"
        }
      ],
      "name": "lockedLiquidityOf",
      "outputs": [
        {
          "internalType": "uint256",
          "name": "",
          "type": "uint256"
        }
      ],
      "stateMutability": "view",
      "type": "function"
    },
    {
      "inputs": [
        {
          "internalType": "address",
          "name": "",
          "type": "address"
        },
        {
          "internalType": "uint256",
          "name": "",
          "type": "uint256"
        }
      ],
      "name": "lockedStakes",
      "outputs": [
        {
          "internalType": "bytes32",
          "name": "kek_id",
          "type": "bytes32"
        },
        {
          "internalType": "uint256",
          "name": "start_timestamp",
          "type": "uint256"
        },
        {
          "internalType": "uint256",
          "name": "liquidity",
          "type": "uint256"
        },
        {
          "internalType": "uint256",
          "name": "ending_timestamp",
          "type": "uint256"
        },
        {
          "internalType": "uint256",
          "name": "lock_multiplier",
          "type": "uint256"
        }
      ],
      "stateMutability": "view",
      "type": "function"
    },
    {
      "inputs": [
        {
          "internalType": "address",
          "name": "account",
          "type": "address"
        }
      ],
      "name": "lockedStakesOf",
      "outputs": [
        {
          "components": [
            {
              "internalType": "bytes32",
              "name": "kek_id",
              "type": "bytes32"
            },
            {
              "internalType": "uint256",
              "name": "start_timestamp",
              "type": "uint256"
            },
            {
              "internalType": "uint256",
              "name": "liquidity",
              "type": "uint256"
            },
            {
              "internalType": "uint256",
              "name": "ending_timestamp",
              "type": "uint256"
            },
            {
              "internalType": "uint256",
              "name": "lock_multiplier",
              "type": "uint256"
            }
          ],
          "internalType": "struct FraxUnifiedFarm_ERC20.LockedStake[]",
          "name": "",
          "type": "tuple[]"
        }
      ],
      "stateMutability": "view",
      "type": "function"
    },
    {
      "inputs": [
        {
          "internalType": "address",
          "name": "account",
          "type": "address"
        }
      ],
      "name": "lockedStakesOfLength",
      "outputs": [
        {
          "internalType": "uint256",
          "name": "",
          "type": "uint256"
        }
      ],
      "stateMutability": "view",
      "type": "function"
    },
    {
      "inputs": [
        {
          "internalType": "address",
          "name": "account",
          "type": "address"
        }
      ],
      "name": "maxLPForMaxBoost",
      "outputs": [
        {
          "internalType": "uint256",
          "name": "",
          "type": "uint256"
        }
      ],
      "stateMutability": "view",
      "type": "function"
    },
    {
      "inputs": [
        {
          "internalType": "address",
          "name": "account",
          "type": "address"
        }
      ],
      "name": "minVeFXSForMaxBoost",
      "outputs": [
        {
          "internalType": "uint256",
          "name": "",
          "type": "uint256"
        }
      ],
      "stateMutability": "view",
      "type": "function"
    },
    {
      "inputs": [
        {
          "internalType": "address",
          "name": "proxy_address",
          "type": "address"
        }
      ],
      "name": "minVeFXSForMaxBoostProxy",
      "outputs": [
        {
          "internalType": "uint256",
          "name": "",
          "type": "uint256"
        }
      ],
      "stateMutability": "view",
      "type": "function"
    },
    {
      "inputs": [
        {
          "internalType": "address",
          "name": "_owner",
          "type": "address"
        }
      ],
      "name": "nominateNewOwner",
      "outputs": [],
      "stateMutability": "nonpayable",
      "type": "function"
    },
    {
      "inputs": [],
      "name": "nominatedOwner",
      "outputs": [
        {
          "internalType": "address",
          "name": "",
          "type": "address"
        }
      ],
      "stateMutability": "view",
      "type": "function"
    },
    {
      "inputs": [],
      "name": "owner",
      "outputs": [
        {
          "internalType": "address",
          "name": "",
          "type": "address"
        }
      ],
      "stateMutability": "view",
      "type": "function"
    },
    {
      "inputs": [],
      "name": "periodFinish",
      "outputs": [
        {
          "internalType": "uint256",
          "name": "",
          "type": "uint256"
        }
      ],
      "stateMutability": "view",
      "type": "function"
    },
    {
      "inputs": [],
      "name": "priceFeedETHUSD",
      "outputs": [
        {
          "internalType": "contract AggregatorV3Interface",
          "name": "",
          "type": "address"
        }
      ],
      "stateMutability": "view",
      "type": "function"
    },
    {
      "inputs": [
        {
          "internalType": "address",
          "name": "proxy_address",
          "type": "address"
        }
      ],
      "name": "proxyStakedFrax",
      "outputs": [
        {
          "internalType": "uint256",
          "name": "",
          "type": "uint256"
        }
      ],
      "stateMutability": "view",
      "type": "function"
    },
    {
      "inputs": [
        {
          "internalType": "address",
          "name": "staker_address",
          "type": "address"
        }
      ],
      "name": "proxyToggleStaker",
      "outputs": [],
      "stateMutability": "nonpayable",
      "type": "function"
    },
    {
      "inputs": [
        {
          "internalType": "address",
          "name": "",
          "type": "address"
        }
      ],
      "name": "proxy_lp_balances",
      "outputs": [
        {
          "internalType": "uint256",
          "name": "",
          "type": "uint256"
        }
      ],
      "stateMutability": "view",
      "type": "function"
    },
    {
      "inputs": [
        {
          "internalType": "address",
          "name": "tokenAddress",
          "type": "address"
        },
        {
          "internalType": "uint256",
          "name": "tokenAmount",
          "type": "uint256"
        }
      ],
      "name": "recoverERC20",
      "outputs": [],
      "stateMutability": "nonpayable",
      "type": "function"
    },
    {
      "inputs": [
        {
          "internalType": "address",
          "name": "spender",
          "type": "address"
        },
        {
          "internalType": "bytes32",
          "name": "kek_id",
          "type": "bytes32"
        }
      ],
      "name": "removeAllowance",
      "outputs": [],
      "stateMutability": "nonpayable",
      "type": "function"
    },
    {
      "inputs": [
        {
          "internalType": "address",
          "name": "",
          "type": "address"
        }
      ],
      "name": "rewardManagers",
      "outputs": [
        {
          "internalType": "address",
          "name": "",
          "type": "address"
        }
      ],
      "stateMutability": "view",
      "type": "function"
    },
    {
      "inputs": [
        {
          "internalType": "uint256",
          "name": "token_idx",
          "type": "uint256"
        }
      ],
      "name": "rewardRates",
      "outputs": [
        {
          "internalType": "uint256",
          "name": "rwd_rate",
          "type": "uint256"
        }
      ],
      "stateMutability": "view",
      "type": "function"
    },
    {
      "inputs": [
        {
          "internalType": "address",
          "name": "",
          "type": "address"
        }
      ],
      "name": "rewardTokenAddrToIdx",
      "outputs": [
        {
          "internalType": "uint256",
          "name": "",
          "type": "uint256"
        }
      ],
      "stateMutability": "view",
      "type": "function"
    },
    {
      "inputs": [],
      "name": "rewardsDuration",
      "outputs": [
        {
          "internalType": "uint256",
          "name": "",
          "type": "uint256"
        }
      ],
      "stateMutability": "view",
      "type": "function"
    },
    {
      "inputs": [],
      "name": "rewardsPerToken",
      "outputs": [
        {
          "internalType": "uint256[]",
          "name": "newRewardsPerTokenStored",
          "type": "uint256[]"
        }
      ],
      "stateMutability": "view",
      "type": "function"
    },
    {
      "inputs": [
        {
          "internalType": "address",
          "name": "spender",
          "type": "address"
        },
        {
          "internalType": "bytes32",
          "name": "kek_id",
          "type": "bytes32"
        },
        {
          "internalType": "uint256",
          "name": "amount",
          "type": "uint256"
        }
      ],
      "name": "setAllowance",
      "outputs": [],
      "stateMutability": "nonpayable",
      "type": "function"
    },
    {
      "inputs": [
        {
          "internalType": "address",
          "name": "spender",
          "type": "address"
        },
        {
          "internalType": "bool",
          "name": "approved",
          "type": "bool"
        }
      ],
      "name": "setApprovalForAll",
      "outputs": [],
      "stateMutability": "nonpayable",
      "type": "function"
    },
    {
      "inputs": [
        {
          "internalType": "address",
          "name": "_eth_usd_oracle_address",
          "type": "address"
        }
      ],
      "name": "setETHUSDOracle",
      "outputs": [],
      "stateMutability": "nonpayable",
      "type": "function"
    },
    {
      "inputs": [
        {
          "internalType": "uint256[6]",
          "name": "_misc_vars",
          "type": "uint256[6]"
        }
      ],
      "name": "setMiscVariables",
      "outputs": [],
      "stateMutability": "nonpayable",
      "type": "function"
    },
    {
      "inputs": [
        {
          "internalType": "bool",
          "name": "_stakingPaused",
          "type": "bool"
        },
        {
          "internalType": "bool",
          "name": "_withdrawalsPaused",
          "type": "bool"
        },
        {
          "internalType": "bool",
          "name": "_rewardsCollectionPaused",
          "type": "bool"
        }
      ],
      "name": "setPauses",
      "outputs": [],
      "stateMutability": "nonpayable",
      "type": "function"
    },
    {
      "inputs": [
        {
          "internalType": "address",
          "name": "reward_token_address",
          "type": "address"
        },
        {
          "internalType": "uint256",
          "name": "_new_rate",
          "type": "uint256"
        },
        {
          "internalType": "address",
          "name": "_gauge_controller_address",
          "type": "address"
        },
        {
          "internalType": "address",
          "name": "_rewards_distributor_address",
          "type": "address"
        }
      ],
      "name": "setRewardVars",
      "outputs": [],
      "stateMutability": "nonpayable",
      "type": "function"
    },
    {
      "inputs": [
        {
          "internalType": "address",
          "name": "",
          "type": "address"
        },
        {
          "internalType": "address",
          "name": "",
          "type": "address"
        }
      ],
      "name": "spenderApprovalForAllLocks",
      "outputs": [
        {
          "internalType": "bool",
          "name": "",
          "type": "bool"
        }
      ],
      "stateMutability": "view",
      "type": "function"
    },
    {
      "inputs": [
        {
          "internalType": "uint256",
          "name": "liquidity",
          "type": "uint256"
        },
        {
          "internalType": "uint256",
          "name": "secs",
          "type": "uint256"
        }
      ],
      "name": "stakeLocked",
      "outputs": [
        {
          "internalType": "bytes32",
          "name": "",
          "type": "bytes32"
        }
      ],
      "stateMutability": "nonpayable",
      "type": "function"
    },
    {
      "inputs": [
        {
          "internalType": "address",
          "name": "proxy_address",
          "type": "address"
        }
      ],
      "name": "stakerSetVeFXSProxy",
      "outputs": [],
      "stateMutability": "nonpayable",
      "type": "function"
    },
    {
      "inputs": [
        {
          "internalType": "address",
          "name": "",
          "type": "address"
        }
      ],
      "name": "staker_designated_proxies",
      "outputs": [
        {
          "internalType": "address",
          "name": "",
          "type": "address"
        }
      ],
      "stateMutability": "view",
      "type": "function"
    },
    {
      "inputs": [],
      "name": "stakesUnlocked",
      "outputs": [
        {
          "internalType": "bool",
          "name": "",
          "type": "bool"
        }
      ],
      "stateMutability": "view",
      "type": "function"
    },
    {
      "inputs": [],
      "name": "stakingToken",
      "outputs": [
        {
          "internalType": "contract IConvexStakingWrapperFrax",
          "name": "",
          "type": "address"
        }
      ],
      "stateMutability": "view",
      "type": "function"
    },
    {
      "inputs": [],
      "name": "sync",
      "outputs": [],
      "stateMutability": "nonpayable",
      "type": "function"
    },
    {
      "inputs": [
        {
          "internalType": "bool",
          "name": "force_update",
          "type": "bool"
        }
      ],
      "name": "sync_gauge_weights",
      "outputs": [],
      "stateMutability": "nonpayable",
      "type": "function"
    },
    {
      "inputs": [
        {
          "internalType": "address",
          "name": "_proxy_addr",
          "type": "address"
        }
      ],
      "name": "toggleValidVeFXSProxy",
      "outputs": [],
      "stateMutability": "nonpayable",
      "type": "function"
    },
    {
      "inputs": [],
      "name": "totalCombinedWeight",
      "outputs": [
        {
          "internalType": "uint256",
          "name": "",
          "type": "uint256"
        }
      ],
      "stateMutability": "view",
      "type": "function"
    },
    {
      "inputs": [],
      "name": "totalLiquidityLocked",
      "outputs": [
        {
          "internalType": "uint256",
          "name": "",
          "type": "uint256"
        }
      ],
      "stateMutability": "view",
      "type": "function"
    },
    {
      "inputs": [
        {
          "internalType": "address",
          "name": "receiver_address",
          "type": "address"
        },
        {
          "internalType": "bytes32",
          "name": "source_kek_id",
          "type": "bytes32"
        },
        {
          "internalType": "uint256",
          "name": "transfer_amount",
          "type": "uint256"
        },
        {
          "internalType": "bytes32",
          "name": "destination_kek_id",
          "type": "bytes32"
        }
      ],
      "name": "transferLocked",
      "outputs": [
        {
          "internalType": "bytes32",
          "name": "",
          "type": "bytes32"
        },
        {
          "internalType": "bytes32",
          "name": "",
          "type": "bytes32"
        }
      ],
      "stateMutability": "nonpayable",
      "type": "function"
    },
    {
      "inputs": [
        {
          "internalType": "address",
          "name": "staker_address",
          "type": "address"
        },
        {
          "internalType": "address",
          "name": "receiver_address",
          "type": "address"
        },
        {
          "internalType": "bytes32",
          "name": "source_kek_id",
          "type": "bytes32"
        },
        {
          "internalType": "uint256",
          "name": "transfer_amount",
          "type": "uint256"
        },
        {
          "internalType": "bytes32",
          "name": "destination_kek_id",
          "type": "bytes32"
        }
      ],
      "name": "transferLockedFrom",
      "outputs": [
        {
          "internalType": "bytes32",
          "name": "",
          "type": "bytes32"
        },
        {
          "internalType": "bytes32",
          "name": "",
          "type": "bytes32"
        }
      ],
      "stateMutability": "nonpayable",
      "type": "function"
    },
    {
      "inputs": [],
      "name": "unlockStakes",
      "outputs": [],
      "stateMutability": "nonpayable",
      "type": "function"
    },
    {
      "inputs": [
        {
          "internalType": "address",
          "name": "account",
          "type": "address"
        },
        {
          "internalType": "bool",
          "name": "sync_too",
          "type": "bool"
        }
      ],
      "name": "updateRewardAndBalance",
      "outputs": [],
      "stateMutability": "nonpayable",
      "type": "function"
    },
    {
      "inputs": [
        {
          "internalType": "address",
          "name": "account",
          "type": "address"
        }
      ],
      "name": "userStakedFrax",
      "outputs": [
        {
          "internalType": "uint256",
          "name": "",
          "type": "uint256"
        }
      ],
      "stateMutability": "view",
      "type": "function"
    },
    {
      "inputs": [
        {
          "internalType": "address",
          "name": "account",
          "type": "address"
        }
      ],
      "name": "veFXSMultiplier",
      "outputs": [
        {
          "internalType": "uint256",
          "name": "vefxs_multiplier",
          "type": "uint256"
        }
      ],
      "stateMutability": "view",
      "type": "function"
    },
    {
      "inputs": [],
      "name": "vefxs_boost_scale_factor",
      "outputs": [
        {
          "internalType": "uint256",
          "name": "",
          "type": "uint256"
        }
      ],
      "stateMutability": "view",
      "type": "function"
    },
    {
      "inputs": [],
      "name": "vefxs_max_multiplier",
      "outputs": [
        {
          "internalType": "uint256",
          "name": "",
          "type": "uint256"
        }
      ],
      "stateMutability": "view",
      "type": "function"
    },
    {
      "inputs": [],
      "name": "vefxs_per_frax_for_max_boost",
      "outputs": [
        {
          "internalType": "uint256",
          "name": "",
          "type": "uint256"
        }
      ],
      "stateMutability": "view",
      "type": "function"
    },
    {
      "inputs": [
        {
          "internalType": "bytes32",
          "name": "kek_id",
          "type": "bytes32"
        },
        {
          "internalType": "address",
          "name": "destination_address",
          "type": "address"
        }
      ],
      "name": "withdrawLocked",
      "outputs": [
        {
          "internalType": "uint256",
          "name": "",
          "type": "uint256"
        }
      ],
      "stateMutability": "nonpayable",
      "type": "function"
    }
  ],
  "bytecode": {
    "object": "0x60c0604052346200005c575b620000266200001962000386565b9594909493919362000445565b60405161726762000c2b82396080518181816125eb0152818161279b0152818161283601526129ab015260a05181505061726790f35b62000065600080fd5b6200000b565b600080fd5b50634e487b7160e01b600052604160045260246000fd5b90601f01601f191681019081106001600160401b03821117620000a957604052565b620000b362000070565b604052565b90620000cf620000c760405190565b928362000087565b565b6001600160a01b031690565b90565b6001600160a01b0381165b036200006b57565b90505190620000cf82620000e0565b60209081906001600160401b0381116200011b57020190565b6200012562000070565b020190565b90929192620001436200013d8262000102565b620000b8565b938185526020808601920283019281841162000186575b915b8383106200016a5750505050565b602080916200017a8486620000f3565b8152019201916200015c565b6200018f600080fd5b6200015a565b90620000dd9181601f82011215620001b4575b6020815191016200012a565b620001bd600080fd5b620001a8565b80620000eb565b90505190620000cf82620001c3565b90929192620001ec6200013d8262000102565b93818552602080860192028301928184116200022f575b915b838310620002135750505050565b60208091620002238486620001ca565b81520192019162000205565b62000238600080fd5b62000203565b90620000dd9181601f820112156200025d575b602081519101620001d9565b62000266600080fd5b62000251565b60e08183031262000377575b620002848282620000f3565b92620002a683602084015160018060401b03811162000368575b840162000195565b92620002c881604085015160018060401b0381116200034a575b850162000195565b92620002ea82606083015160018060401b03811162000359575b83016200023e565b92620000dd6200030f84608085015160018060401b0381116200034a57850162000195565b93620003318160a086015160018060401b0381116200033b575b860162000195565b9360c001620000f3565b62000344600080fd5b62000329565b62000353600080fd5b620002c0565b62000362600080fd5b620002e2565b62000371600080fd5b6200029e565b62000380600080fd5b62000278565b620003a962007e92803803806200039d81620000b8565b9283398101906200026c565b90919293949596565b620000dd90620000d1906001600160a01b031682565b620000dd90620003b2565b620000dd90620003c8565b90600160281b600160c81b039060281b5b9181191691161790565b906200040d620000dd6200041592620003d3565b8254620003de565b9055565b906001600160a01b0390620003ef565b906200043d620000dd6200041592620003d3565b825462000419565b620004519650620008ee565b6200047c62000474734659d5ff63a1e1edd6d5dd9cc315e063c95947d0620003d3565b6021620003f9565b620004a76200049f73f43211935c781d5ca1a41d2041f397b8a7366c7a620003d3565b602362000429565b620004d2620004ca73a1f8a6807c402e4a15ef4eba36528a3fed24e577620003d3565b602462000429565b620000cf620004f5735f4ec3df9cbd43714fe2740f5e3616155c5b8419620003d3565b602562000429565b620000dd620000dd620000dd9290565b9060001990620003ef565b906200052c620000dd6200041592620004fd565b82546200050d565b50634e487b7160e01b600052601160045260246000fd5b620000cf62000534565b9160001960089290920291821b911b620003ef565b91906200057f620000dd6200041593620004fd565b90835462000555565b620000cf916000916200056a565b818110620005a2575050565b80620005b2600060019362000588565b0162000596565b9091828110620005c857505050565b620000cf9290620005e0905b92600052602060002090565b908101910162000596565b90620000cf916801000000000000000082116200060f575b805490828155620005b9565b6200061962000070565b62000603565b600162000653620005d462000632855190565b94838060401b03861162000690575b6200064d8686620005eb565b60200190565b92049160005b838110620006675750505050565b600190602062000682620000dd86516001600160a01b031690565b940193818401550162000659565b6200069a62000070565b62000641565b90620000cf916200061f565b818110620006b8575050565b80620006c8600060019362000588565b01620006ac565b9091828110620006de57505050565b620000cf9290620006ef90620005d4565b9081019101620006ac565b90620000cf916801000000000000000082116200071e575b805490828155620006cf565b6200072862000070565b62000712565b60016200075c620005d462000741855190565b94838060401b03861162000790575b6200064d8686620006fa565b92049160005b838110620007705750505050565b600190602062000782620000dd865190565b940193818401550162000762565b6200079a62000070565b62000750565b90620000cf916200072e565b6001906000198114620007bd570190565b620007c762000534565b0190565b50634e487b7160e01b600052603260045260246000fd5b9060208091620007f0845190565b811015620007ff575b02010190565b62000809620007cb565b620007f9565b906200081b90620003d3565b600052602052604060002090565b6200084c60019162000839815490565b8410156200085557600052602060002090565b91020190600090565b6200085f620007cb565b600052602060002090565b9062000896620000cf92805490680100000000000000008210156200089d575b60018201815562000829565b906200056a565b620008a762000070565b6200088a565b9060ff90620003ef565b90620008ca620000dd6200041592151590565b8254620008ad565b620000dd62093a80620004fd565b919082018092116200054b57565b94620009d9620009e99493956200090b620009e194999862000b0b565b6200092a73c8418af6358ffdda74e09ca9cc3fe03ca6adc5b0620003d3565b60805273853d955acef822db058eb8505911ed77f175b99e60a052620009c4671bc16d674ec800006200095d81620004fd565b6200096a81600662000518565b6200097b6301e13380600762000518565b6200098b62091050600862000518565b620009bb673782dace9d90000091620009a483620004fd565b93620009b285600962000518565b50600a62000518565b50600b62000518565b620009d1896010620006a0565b6011620006a0565b6012620006a0565b6013620007a0565b6000620009f681620004fd565b925b62000a05620000dd865190565b84101562000ab95762000a428462000a3c601462000a3562000a28848b620007e2565b516001600160a01b031690565b906200080f565b62000518565b62000aa6601562000a5f62000a5785620004fd565b80926200086a565b62000a6f62000a288787620007e2565b62000a908162000a8a600f62000a3562000a288c8e620007e2565b62000429565b5062000a9e8160196200086a565b601a6200086a565b62000ab184620007ac565b9350620009f8565b935091505062000acb816021620008b7565b5062000aef4262000ade81600562000518565b62000ae8620008d2565b90620008e0565b62000afc81600462000518565b50565b620000dd6001620004fd565b62000b169062000baf565b62000b2062000aff565b62000afc81600262000518565b620000d1620000dd620000dd9290565b620000dd9062000b2d565b1562000b5057565b60405162461bcd60e51b815260206004820152601960248201527f4f776e657220616464726573732063616e6e6f742062652030000000000000006044820152606490fd5b6001600160a01b0391821681529116602082015260400190565b60009062000bbd8262000b3d565b9162000bde6001600160a01b0384166001600160a01b038416141562000b48565b62000bea828262000429565b507fb532073b38c83145e3e5135377a08bf9aab55bc0fd7c1179cd4fb995d2a5159c9162000c2562000c1b60405190565b9283928362000b95565b0390a156fe60806040526004361015610018575b610016600080fd5b005b60003560e01c80628cc2621461062f578063061a7bf5146106265780630d7bac4f1461061d57806312edb24c1461061457806315a202a11461060b5780631627540c1461060257806317b18c89146105f95780631bcb7d90146105f05780631c1f78eb146105e75780631e090f01146105de5780631face856146105d5578063218751b2146105cc578063231b68dc146105c357806328408bab146105ba5780632c0c2a0a146105b157806336f89af2146105a8578063386a95251461059f578063387edc86146105965780633c62c44f1461058d57806341a16f3f146105845780634f39059c1461057b5780634fd2b5361461057257806353a47bb71461056957806355189773146105605780635bfd92581461055757806364f2c0601461054e578063663b135c14610545578063693392451461053c5780636c430dbb146105335780636e27cef91461052a57806370641a361461052157806372f702f314610518578063741d3c181461050f578063774d4ae7146105065780637910d17b146104fd5780637970833e146104f457806379ba5097146104eb5780637ab44e40146104e25780637d6ef08e146104d95780637f472e54146104d05780638980f11f146104c75780638bad86a7146104be5780638da5cb5b146104b557806391cf600a146104ac5780639637927f146104a3578063a0f234761461049a578063a10d3b3314610491578063a22cb46514610488578063aa1d4fce1461047f578063b61aa08c14610476578063b85efd061461046d578063b94c4dcb14610464578063bdb123e31461045b578063c00007b014610452578063c354382614610449578063c8f33c9114610440578063ca6df29d14610437578063cc2abd641461042e578063cdc82e8014610425578063d2010fb41461041c578063d2fbdc0d14610413578063d42fc9b41461040a578063d5e1a9c614610401578063d7400d56146103f8578063d9f96e8d146103ef578063de1a6551146103e6578063de57a5b5146103dd578063e01f62bf146103d4578063e1ba95d2146103cb578063e44b9fa5146103c2578063e7f30582146103b9578063ebe2b12b146103b0578063f288baf6146103a7578063f2a8d3491461039e578063f2caeb1e14610395578063f77e34d11461038c578063facefb64146103835763fff6cae90361000e5761037e611d66565b61000e565b5061037e611d3f565b5061037e611b9f565b5061037e611b58565b5061037e611b2e565b5061037e611af8565b5061037e611ac2565b5061037e611a8f565b5061037e611a64565b5061037e611a15565b5061037e6119eb565b5061037e6119c0565b5061037e611998565b5061037e61196e565b5061037e611947565b5061037e61191c565b5061037e6118a8565b5061037e611880565b5061037e611856565b5061037e611820565b5061037e6117ec565b5061037e611784565b5061037e61175a565b5061037e611724565b5061037e6116fa565b5061037e6116d0565b5061037e6116a6565b5061037e611672565b5061037e61164a565b5061037e611620565b5061037e6115ec565b5061037e6115c4565b5061037e61159a565b5061037e611570565b5061037e61153d565b5061037e611513565b5061037e6114ce565b5061037e611488565b5061037e61145e565b5061037e611434565b5061037e6113f7565b5061037e61136d565b5061037e61132c565b5061037e6111e6565b5061037e6111bb565b5061037e61116c565b5061037e611142565b5061037e61110c565b5061037e6110e2565b5061037e6110ac565b5061037e611070565b5061037e611018565b5061037e610f94565b5061037e610f6a565b5061037e610f42565b5061037e610ed2565b5061037e610e9c565b5061037e610e72565b5061037e610e3c565b5061037e610de9565b5061037e610d61565b5061037e610d37565b5061037e610cec565b5061037e610cc2565b5061037e610c70565b5061037e610c2e565b5061037e610c04565b5061037e610bce565b5061037e610b98565b5061037e610ad3565b5061037e610aa8565b5061037e6109fb565b5061037e61099e565b5061037e610968565b5061037e6108ac565b5061037e6107f9565b5061037e61079e565b5061037e610713565b600080fd5b73ffffffffffffffffffffffffffffffffffffffff1690565b90565b73ffffffffffffffffffffffffffffffffffffffff81165b0361063857565b9050359061068582610659565b565b9061065691602081830312156106785761069f600080fd5b610678565b9052565b0190565b906106cc6106c56106bb845190565b8084529260200190565b9260200190565b9060005b8181106106dd5750505090565b9091926106fa6106f36001928651815260200190565b9460200190565b9291016106d0565b6020808252610656929101906106ac565b5034610740575b61073c61073061072b366004610687565b612384565b60405191829182610702565b0390f35b610748600080fd5b61071a565b80610671565b905035906106858261074d565b9091606082840312610791575b61065661077a8484610678565b936107888160208601610753565b93604001610753565b610799600080fd5b61076d565b50346107cf575b61073c6107bc6107b6366004610760565b916162f1565b6040515b91829182901515815260200190565b6107d7600080fd5b6107a5565b906106569160208183031215610753576107f4600080fd5b610753565b5034610827575b61073c6108166108113660046107dc565b61253f565b6040515b9182918290815260200190565b61082f600080fd5b610800565b600091031261083f57565b610685600080fd5b906108566106c56106bb845190565b9060005b8181106108675750505090565b9091926108936106f3600192865173ffffffffffffffffffffffffffffffffffffffff16815260200190565b92910161085a565b602080825261065692910190610847565b50346108d5575b6108be366004610834565b61073c6108c9611ecf565b6040519182918261089b565b6108dd600080fd5b6108b3565b610656916008021c73ffffffffffffffffffffffffffffffffffffffff1690565b9061065691546108e2565b61065660006025610903565b61063d6106566106569273ffffffffffffffffffffffffffffffffffffffff1690565b6106569061091a565b6106569061093d565b6106a490610946565b602081019291610685919061094f565b5034610991575b61097a366004610834565b61073c61098561090e565b60405191829182610958565b610999600080fd5b61096f565b50346109bd575b6109b86109b3366004610687565b614238565b604051005b6109c5600080fd5b6109a5565b9190610656906040848203126109ee575b6109e58185610753565b93602001610753565b6109f6600080fd5b6109db565b5034610a19575b61073c610816610a133660046109ca565b90615b30565b610a21600080fd5b610a02565b919061065690604084820312610a4a575b610a418185610678565b93602001610678565b610a52600080fd5b610a37565b90610a6190610946565b600052602052604060002090565b610656916008021c5b60ff1690565b906106569154610a6f565b610aa361065692610a9e602793600094610a57565b610a57565b610a7e565b5034610ac6575b61073c6107bc610ac0366004610a26565b90610a89565b610ace600080fd5b610aaf565b5034610af0575b610ae5366004610834565b61073c61073061248a565b610af8600080fd5b610ada565b8051825261068591906080908190610b1a60208201516020860152565b610b2960408201516040860152565b610b3860608201516060860152565b0151910152565b906106a88160a093610afd565b90610b5b6106c56106bb845190565b9060005b818110610b6c5750505090565b909192610b7f6106f36001928651610b3f565b929101610b5f565b602080825261065692910190610b4c565b5034610bc1575b61073c610bb5610bb0366004610687565b614f8c565b60405191829182610b87565b610bc9600080fd5b610b9f565b5034610beb575b61073c610816610be6366004610687565b6125a9565b610bf3600080fd5b610bd5565b61065660006024610903565b5034610c21575b610c16366004610834565b61073c610985610bf8565b610c29600080fd5b610c0b565b5034610c4c575b61073c6107bc610c46366004610a26565b90611da0565b610c54600080fd5b610c35565b61065690610c6b602091600092610a57565b610903565b5034610cb5575b61073c610c8d610c88366004610687565b610c59565b6040515b9182918273ffffffffffffffffffffffffffffffffffffffff909116815260200190565b610cbd600080fd5b610c77565b5034610cdf575b61073c610816610cda366004610687565b612735565b610ce7600080fd5b610cc9565b5034610d09575b61073c610816610d04366004610687565b612528565b610d11600080fd5b610cf3565b6106566106566106569290565b61065662093a80610d16565b610656610d23565b5034610d54575b610d49366004610834565b61073c610816610d2f565b610d5c600080fd5b610d3e565b5034610d7b575b6109b8610d76366004610687565b613059565b610d83600080fd5b610d68565b608081830312610dc5575b610d9d8282610678565b92610656610dae8460208501610753565b93610dbc8160408601610753565b93606001610753565b610dcd600080fd5b610d93565b9081526040810192916106859160200152565b0152565b5034610e1d575b610e07610dfe366004610d88565b929190916164e5565b9061073c610e1460405190565b92839283610dd2565b610e25600080fd5b610df0565b61065690610c6b600f91600092610a57565b5034610e59575b61073c610c8d610e54366004610687565b610e2a565b610e61600080fd5b610e43565b61065660006023610903565b5034610e8f575b610e84366004610834565b61073c610985610e66565b610e97600080fd5b610e79565b5034610eb9575b61073c610816610eb4366004610687565b6126bf565b610ec1600080fd5b610ea3565b61065660006001610903565b5034610eef575b610ee4366004610834565b61073c610c8d610ec6565b610ef7600080fd5b610ed9565b801515610671565b9050359061068582610efc565b919061065690604084820312610f35575b610f2c8185610678565b93602001610f04565b610f3d600080fd5b610f22565b5034610f5d575b6109b8610f57366004610f11565b90612d26565b610f65600080fd5b610f49565b5034610f87575b610f7c366004610834565b61073c610816614694565b610f8f600080fd5b610f71565b5034610fb1575b610fa6366004610834565b61073c61081661251e565b610fb9600080fd5b610f9b565b919060a08382031261100b575b610fd58184610678565b92610fe38260208301610678565b92610656610ff48460408501610753565b936110028160608601610753565b93608001610753565b611013600080fd5b610fcb565b5034611036575b610e0761102d366004610fbe565b939290926163f1565b61103e600080fd5b61101f565b610656916008021c81565b906106569154611043565b6106569061106b601491600092610a57565b61104e565b503461108d575b61073c610816611088366004610687565b611059565b611095600080fd5b611077565b6106569061106b601891600092610a57565b50346110c9575b61073c6108166110c4366004610687565b61109a565b6110d1600080fd5b6110b3565b6106566000600861104e565b50346110ff575b6110f4366004610834565b61073c6108166110d6565b611107600080fd5b6110e9565b5034611129575b61111e366004610834565b61073c610730612255565b611131600080fd5b611113565b61065660056021610903565b503461115f575b611154366004610834565b61073c610985611136565b611167600080fd5b611149565b5034611186575b6109b8611181366004610687565b614c12565b61118e600080fd5b611173565b9190610656906040848203126111ae575b6109e58185610678565b6111b6600080fd5b6111a4565b50346111d9575b61073c6108166111d3366004611193565b90614c9f565b6111e1600080fd5b6111c2565b5034611204575b61073c6107306111fe366004610f11565b906130e2565b61120c600080fd5b6111ed565b507f4e487b7100000000000000000000000000000000000000000000000000000000600052603260045260246000fd5b61126160059161124f815490565b84101561126a57600052602060002090565b91020190600090565b611272611211565b600052602060002090565b6106569081565b610656905461127d565b919061129e602293600094610a57565b80548210156112ef576112b2929350611241565b506112bc81611284565b916112c960018301611284565b916112d660028201611284565b9161065660046112e860038501611284565b9301611284565b8380fd5b9095949261068594611325610de59261131e60809661131760a088019c6000890152565b6020870152565b6040850152565b6060830152565b5034611360575b61073c61134a611344366004611193565b9061128e565b9161135795939560405190565b958695866112f3565b611368600080fd5b611333565b5034611387575b61137f366004610834565b6109b86142f9565b61138f600080fd5b611374565b90916060828403126113c5575b6106566113ae8484610678565b936113bc8160208601610753565b93604001610678565b6113cd600080fd5b6113a1565b90610a61565b9061065692610a9e61106b926113f2602695600096610a57565b6113d2565b5034611415575b61073c61081661140f366004611394565b916113d8565b61141d600080fd5b6113fe565b6106569061106b601f91600092610a57565b5034611451575b61073c61081661144c366004610687565b611422565b611459600080fd5b61143b565b503461147b575b61073c610816611476366004610687565b6126e1565b611483600080fd5b611465565b50346114a3575b6109b861149d366004611193565b90613d25565b6114ab600080fd5b61148f565b908152606081019392610685929091604091610de5905b6020830152565b50346114fb575b61073c6114eb6114e6366004610687565b614df0565b6040519193915b938493846114b0565b611503600080fd5b6114d5565b610656600080610903565b5034611530575b611525366004610834565b61073c610c8d611508565b611538600080fd5b61151a565b5034611557575b6109b8611552366004610687565b613b1d565b61155f600080fd5b611544565b61065660006021610a7e565b503461158d575b611582366004610834565b61073c6107bc611564565b611595600080fd5b611577565b50346115b7575b61073c6108166115b2366004610687565b6125d1565b6115bf600080fd5b6115a1565b50346115df575b6109b86115d9366004610760565b916160af565b6115e7600080fd5b6115cb565b5034611607575b6109b8611601366004610f11565b906161d4565b61160f600080fd5b6115f3565b6106566000600961104e565b503461163d575b611632366004610834565b61073c610816611614565b611645600080fd5b611627565b5034611665575b6109b861165f366004611193565b9061612c565b61166d600080fd5b611651565b503461168d575b6109b86116873660046109ca565b90615702565b611695600080fd5b611679565b6106566000600761104e565b50346116c3575b6116b8366004610834565b61073c61081661169a565b6116cb600080fd5b6116ad565b50346116ed575b6116e2366004610834565b61073c610816614a72565b6116f5600080fd5b6116d7565b5034611717575b61073c610730611712366004610687565b6130a4565b61171f600080fd5b611701565b5034611741575b61073c610c8d61173c366004610687565b61270c565b611749600080fd5b61172b565b6106566000600561104e565b5034611777575b61176c366004610834565b61073c61081661174e565b61177f600080fd5b611761565b50346117a1575b61073c61081661179c366004610687565b614fa8565b6117a9600080fd5b61178b565b90916060828403126117df575b6106566117c88484610f04565b936117d68160208601610f04565b93604001610f04565b6117e7600080fd5b6117bb565b5034611807575b6109b86118013660046117ae565b91613ab1565b61180f600080fd5b6117f3565b6106566000600661104e565b503461183d575b611832366004610834565b61073c610816611814565b611845600080fd5b611827565b6106566000600361104e565b5034611873575b611868366004610834565b61073c61081661184a565b61187b600080fd5b61185d565b503461189b575b6109b86118953660046109ca565b90615a99565b6118a3600080fd5b611887565b50346118c5575b61073c6108166118c0366004610687565b612579565b6118cd600080fd5b6118af565b60808183031261190f575b6118e78282610678565b926106566118f88460208501610753565b936119068160408601610678565b93606001610678565b611917600080fd5b6118dd565b503461193a575b6109b86119313660046118d2565b92919091614114565b611942600080fd5b611923565b5034611961575b6109b861195c366004610687565b612c69565b611969600080fd5b61194e565b503461198b575b61073c610816611986366004610687565b612507565b611993600080fd5b611975565b50346119b3575b6109b86119ad366004610a26565b90614146565b6119bb600080fd5b61199f565b50346119de575b61073c6108166119d8366004611193565b90614fb7565b6119e6600080fd5b6119c7565b5034611a08575b6119fd366004610834565b61073c6108166124fd565b611a10600080fd5b6119f2565b5034611a2f575b611a27366004610834565b6109b8613ae8565b611a37600080fd5b611a1c565b919061065690604084820312611a57575b610a418185610753565b611a5f600080fd5b611a4d565b5034611a82575b61073c610816611a7c366004611a3c565b90615e6c565b611a8a600080fd5b611a6b565b5034611aa9575b6109b8611aa4366004610687565b612b3c565b611ab1600080fd5b611a96565b6106566000600461104e565b5034611adf575b611ad4366004610834565b61073c610816611ab6565b611ae7600080fd5b611ac9565b6106566000600a61104e565b5034611b15575b611b0a366004610834565b61073c610816611aec565b611b1d600080fd5b611aff565b6106566000600b61104e565b5034611b4b575b611b40366004610834565b61073c610816611b22565b611b53600080fd5b611b35565b5034611b75575b61073c610816611b703660046107dc565b611fdb565b611b7d600080fd5b611b5f565b906106569160208183031215610f0457611b9a600080fd5b610f04565b5034611bb9575b6109b8611bb4366004611b82565b61333b565b611bc1600080fd5b611ba6565b601f017fffffffffffffffffffffffffffffffffffffffffffffffffffffffffffffffe01690565b507f4e487b7100000000000000000000000000000000000000000000000000000000600052604160045260246000fd5b90601f017fffffffffffffffffffffffffffffffffffffffffffffffffffffffffffffffe016810190811067ffffffffffffffff821117611c5e57604052565b611c66611bee565b604052565b90610685611c7860405190565b9283611c1e565b60209067ffffffffffffffff8111611c95570290565b611c9d611bee565b0290565b90929192611cb6611cb182611c7f565b611c6b565b936020859202830192818411611cef575b915b838310611cd65750505050565b60208091611ce48486610753565b815201920191611cc9565b611cf7600080fd5b611cc7565b906106569181601f82011215611d15575b600690611ca1565b611d1d600080fd5b611d0d565b906106569160c08183031215611cfc57611d3a600080fd5b611cfc565b5034611d59575b6109b8611d54366004611d22565b614057565b611d61600080fd5b611d46565b5034611d80575b611d78366004610834565b6109b86134e7565b611d88600080fd5b611d6d565b6106569061063d565b6106569054611d8d565b90611dae61063d6000611d96565b73ffffffffffffffffffffffffffffffffffffffff831603611dd1575050600190565b611e04611dea611de5611e1e93600f610a57565b611d96565b9273ffffffffffffffffffffffffffffffffffffffff1690565b9173ffffffffffffffffffffffffffffffffffffffff1690565b14611e2857600090565b600190565b90611e48611e3c6106bb845490565b92600052602060002090565b9060005b818110611e595750505090565b909192611e93611e8c600192611e6e87611d96565b73ffffffffffffffffffffffffffffffffffffffff16815260200190565b9460010190565b929101611e4c565b9061065691611e2d565b90610685611ebf92611eb660405190565b93848092611e9b565b0383611c1e565b61065690611ea5565b6106566010611ec6565b61126160019161124f815490565b61063d6106566106569290565b61065690611ee7565b905051906106858261074d565b906106569160208183031215611efd57611f22600080fd5b611efd565b506040513d6000823e3d90fd5b507f4e487b7100000000000000000000000000000000000000000000000000000000600052601160045260246000fd5b9190611f6f565b9290565b91808302928184041490151715611f8257565b610685611f34565b507f4e487b7100000000000000000000000000000000000000000000000000000000600052601260045260246000fd5b90611fc4565b9190565b908115611fcf570490565b611fd7611f8a565b0490565b611fef611fe9826011611ed9565b90610903565b611ffc61063d6000611ef4565b73ffffffffffffffffffffffffffffffffffffffff8216146120df5761204f610656926020612037612032856120839650610946565b610946565b630a3be7579061204660405190565b94859260e01b90565b825260049082905afa9182156120d2575b60009261209a575b5061207761207d916019611ed9565b9061104e565b90611f64565b612094670de0b6b3a7640000610d16565b90611fba565b61207d9192506120c36120779160203d81116120cb575b6120bb8183611c1e565b810190611f0a565b929150612068565b503d6120b1565b6120da611f27565b612060565b50612077610656916013611ed9565b6020809167ffffffffffffffff811161210657020190565b61210e611bee565b020190565b90612120611cb1836120ee565b918252565b369037565b9061068561214061213a84612113565b936120ee565b7fffffffffffffffffffffffffffffffffffffffffffffffffffffffffffffffe00160208401612125565b6001907fffffffffffffffffffffffffffffffffffffffffffffffffffffffffffffffff8114612199570190565b6106a8611f34565b91908203918211611f8257565b91908201809211611f8257565b90602080916121c8845190565b8110156121d6575b02010190565b6121de611211565b6121d0565b906121f2611e3c6106bb845490565b9060005b8181106122035750505090565b909192612220611e8c60019261221887611284565b815260200190565b9291016121f6565b90610656916121e3565b90610685611ebf9261224360405190565b93848092612228565b61065690612232565b61225f601b611284565b60009061226e611fc083610d16565b14801561233e575b156122865750610656601561224c565b6122a061229a61229560105490565b61212a565b91610d16565b915b60156122af610656825490565b841015612338576122c861207785836123169450611ed9565b6123106123066122f56122ec6122dc61235b565b6122e66005611284565b906121a1565b61207d89611fdb565b61207d670de0b6b3a7640000610d16565b612094601c611284565b906121ae565b6123278161232486866121bb565b52565b506123318361216b565b92506122a2565b50915090565b50612349601c611284565b612355611fc083610d16565b14612276565b610656426123696004611284565b80821015612375575090565b919050565b90610a6190610d16565b9061238d612255565b9160109061239c612295835490565b908194601e6123b36123ae8483610a57565b611284565b6000906123c2611fc083610d16565b116123d0575b505050505050565b806123e2919792939495969750610d16565b955b6123ef610656825490565b871015612478576106566123ef916124566124446120838861207d8b6122e68f8061243f6124378f6123ae9461242d6123ae89846124339550610a57565b996121bb565b5190565b946016610a57565b61237a565b6123106123ae8c61243f8c6017610a57565b612464816123248c8c6121bb565b5061246e8961216b565b98509150506123e4565b509450505050503880808080806123c8565b601390612498612295835490565b9081906124a56000610d16565b935b6124b2610656825490565b8510156124f6576106566124b2916124d46124cc88611fdb565b61207d610d23565b6124e2816123248a8a6121bb565b506124ec8761216b565b96509150506124a7565b5091509150565b610656601b611284565b6123ae61065691612516600090565b50601d610a57565b610656601c611284565b6123ae61065691612537600090565b50601e610a57565b6106569061236961255e6125536006611284565b9261207d6006611284565b6120946007611284565b610656670de0b6b3a7640000610d16565b6125a161065691612588600090565b5061207d6123ae6125996003611284565b92601d610a57565b612094612568565b6125a1610656916125b8600090565b5061207d6123ae6125c96003611284565b92601f610a57565b61267d6126516020610656936125e5600090565b5061260f7f0000000000000000000000000000000000000000000000000000000000000000610946565b61262d6370a0823161262060405190565b9586948593849360e01b90565b835273ffffffffffffffffffffffffffffffffffffffff1660048301526024820190565b03915afa9081156126b2575b600091612694575b50612678612671612568565b8092611f64565b611f64565b61209461268a600b611284565b61207d6003611284565b6126ac915060203d81116120cb576120bb8183611c1e565b38612665565b6126ba611f27565b61265d565b6125a16126d7610656926126d1600090565b50612579565b61207d600b611284565b6125a16126d7610656926126f3600090565b506125a9565b61065690610a78565b61065690546126f9565b61271f61271a82600d610a57565b612702565b156127275790565b611de5610656916020610a57565b60009061287260009161274783610d16565b506127518161270c565b9061275b84611ef4565b9173ffffffffffffffffffffffffffffffffffffffff831673ffffffffffffffffffffffffffffffffffffffff82161480156129a1576127d760206127bf7f0000000000000000000000000000000000000000000000000000000000000000610946565b6370a08231906127ce60405190565b93849260e01b90565b825273ffffffffffffffffffffffffffffffffffffffff8716600483015260249082905afa908115612994575b600091612976575b50935b61282f61282561281f600a611284565b87611f64565b61207d6009611284565b602061285a7f0000000000000000000000000000000000000000000000000000000000000000610946565b6318160ddd9061286960405190565b998a9260e01b90565b825260049082905afa968715612969575b600097612945575b506128a29061209461289b612568565b8099611f64565b9750501561293557506128b4906126bf565b925b6128bf81610d16565b84111561292357506128e26128ec936128dd84846128dd9550611f64565b611fba565b61207d600a611284565b8082111561291b5750905b81612908611fc0610656600a611284565b1161290f57565b9050610656600a611284565b9190506128f7565b9150506129309150610d16565b6128ec565b61293f91506126e1565b926128b6565b6128a29197506129629060203d81116120cb576120bb8183611c1e565b969061288b565b612971611f27565b612883565b61298e915060203d81116120cb576120bb8183611c1e565b3861280c565b61299c611f27565b612804565b6129cf60206127bf7f0000000000000000000000000000000000000000000000000000000000000000610946565b825273ffffffffffffffffffffffffffffffffffffffff8616600483015260249082905afa908115612a29575b600091612a0b575b509361280f565b612a23915060203d81116120cb576120bb8183611c1e565b38612a04565b612a31611f27565b6129fc565b15612a3d57565b6040517f08c379a000000000000000000000000000000000000000000000000000000000815260206004820152600d60248201527f496e76616c69642070726f7879000000000000000000000000000000000000006044820152606490fd5b0390fd5b9060ff905b9181191691161790565b90612abf610656612ac692151590565b8254612aa0565b9055565b9073ffffffffffffffffffffffffffffffffffffffff90612aa5565b90612af6610656612ac692610946565b8254612aca565b907fffffffffffffffffffffffffffffffffffffffffffffffffffffffffffffffff90612aa5565b90612b35610656612ac692610d16565b8254612afd565b33612b53612b4e61271a83600d610a57565b612a36565b80612b85600e612b8085610a9e612b78612b7461271a84610a9e8a89610a57565b1590565b958694610a57565b612aaf565b50602091612b96611de58285610a57565b612bb573ffffffffffffffffffffffffffffffffffffffff8416611e04565b14612bbf57505050565b612bee6125c96123ae83612bfd9461251661068598612be9612be16000611ef4565b938492610a57565b612ae6565b91612bf883611284565b6121a1565b90612b25565b15612c0a57565b6040517f08c379a000000000000000000000000000000000000000000000000000000000815260206004820152601d60248201527f50726f787920686173206e6f7420616c6c6f77656420796f75207965740000006044820152606490fd5b61068590612c7e612b4e61271a83600d610a57565b612bfd612cf96125c96123ae612c9585600e610a57565b612cab612ca661271a338094610a57565b612c03565b612cf286612be9836020612cc2611de58383610a57565b612ccf61063d6000611ef4565b73ffffffffffffffffffffffffffffffffffffffff821603612d08575b50610a57565b601d610a57565b91612d0383611284565b6121ae565b612d2090612bfd612bee6125c96123ae87601d610a57565b38612cec565b90612e02575b612d3961063d6000611ef4565b73ffffffffffffffffffffffffffffffffffffffff821603612d585750565b612d6181614df0565b90612d6b84612e0f565b612d7f81612d7a86600c610a57565b612b25565b50818110612dcb5791612dbe82612d9e612dc89486612d7a97506121a1565b90612dad82612d03601c611284565b612db881601c612b25565b506121ae565b928391601e610a57565b50565b91612dbe82612de2612d7a95612dc89550826121a1565b90612df182612bf8601c611284565b612dfc81601c612b25565b506121a1565b612e0a6134e7565b612d2c565b600090612e1e61063d83611ef4565b73ffffffffffffffffffffffffffffffffffffffff821603612e3e575050565b9091612e4982612384565b90612e5384610d16565b935b612e60610656845190565b851015612e9857612e7461243386856121bb565b612e8781612d7a8861243f896017610a57565b50612e918561216b565b9450612e55565b612ea491929450610d16565b925b612eb1610656825190565b841015612ef457610656612eb191612ecd612077876015611ed9565b612ee081612d7a8961243f8a6016610a57565b50612eea8661216b565b9550915050612ea6565b50915050565b6106566002610d16565b15612f0b57565b6040517f08c379a000000000000000000000000000000000000000000000000000000000815260206004820152601f60248201527f5265656e7472616e637947756172643a207265656e7472616e742063616c6c006044820152606490fd5b6106566001610d16565b612fa790612f826002611284565b612f96612f8d612efa565b91821415612f04565b612fa1816002612b25565b50613036565b612faf612f6a565b612dc8816002612b25565b6106569060101c610a78565b6106569054612fba565b15612fd757565b6040517f08c379a000000000000000000000000000000000000000000000000000000000815260206004820152601960248201527f5265776172647320636f6c6c656374696f6e20706175736564000000000000006044820152606490fd5b61068590612dc86130476021612fc6565b61305360005b91151590565b14612fd0565b61068590612f74565b9061308d916130716002611284565b61307c612f8d612efa565b613087816002612b25565b50613096565b90612faf612f6a565b5061065690600190336132b3565b610656906060613062565b9061308d92916130bf6002611284565b6130ca612f8d612efa565b6130d5816002612b25565b50506106569190336132b3565b610656919060606130af565b90610656939291613100600183612d26565b613155565b908152606081019392610685929091604091613139905b73ffffffffffffffffffffffffffffffffffffffff166020830152565b019073ffffffffffffffffffffffffffffffffffffffff169052565b9390919293504261316b81612d7a856018610a57565b506131766021612fc6565b60009190613187906130538461304d565b601091613195612295845490565b9182906131a183610d16565b975b6131ae610656875490565b89101561329b57866131ed60176123246131dc8d6131d36123ae8261243f8988610a57565b9283918c6121bb565b50612d7a8c61243f612b788a610d16565b6131fd6106566124338c896121bb565b11613213575b61320c8961216b565b98506131a3565b613237613223611fe98b89611ed9565b896132316124338d8a6121bb565b916144c5565b6132446124338a876121bb565b613251611fe98b89611ed9565b7f1d2f2ca53af5d2f333bd32fdd45f9c52ad8ebe31414f7792912077fcb3876dff9061327c8a610946565b926132938c61328a60405190565b93849384613105565b0390a2613203565b93509593509550506132ab575050565b506106859050565b61065692919060606130ee565b73ffffffffffffffffffffffffffffffffffffffff90911681526040810192916106859160200152565b91906008612aa591029161331d7fffffffffffffffffffffffffffffffffffffffffffffffffffffffffffffffff841b90565b921b90565b9190613333610656612ac693610d16565b9083546132ea565b60009061334782610d16565b925b6011613356610656825490565b8510156134e057611fe9858261336c9350611ed9565b61337861063d85611ef4565b73ffffffffffffffffffffffffffffffffffffffff8216036133a6575b5061339f8461216b565b9350613349565b8283156134c4575b1561339557613441906020906133c381610946565b6133cc81610946565b91636472eee1846133f86133df30610946565b92613403426133ed60405190565b958694859460e01b90565b8452600484016132c0565b03818c885af19081156134b7575b60009161349a575b5061342f816134298c6019611ed9565b90613322565b50505063513872bd906127ce60405190565b825260049082905afa90811561348d575b60009161346f575b5061346a8161342987601a611ed9565b613395565b613487915060203d81116120cb576120bb8183611c1e565b3861345a565b613495611f27565b613452565b6134b19150853d81116120cb576120bb8183611c1e565b38613419565b6134bf611f27565b613411565b50426134da611fc061065661207789601a611ed9565b116133ae565b5092505050565b6134f1600061333b565b6134f9614694565b613504816003612b25565b5042613516611fc06106566004611284565b106135235761068561367e565b6106856138e3565b91906106569060408482031261354f575b6135468185611efd565b93602001611efd565b613557600080fd5b61353c565b6106a49073ffffffffffffffffffffffffffffffffffffffff1660601b90565b906106a86135d56014937f4e6f7420656e6f7567682072657761726420746f6b656e7320617661696c616281527f6c653a2000000000000000000000000000000000000000000000000000000000602082015260240190565b809261355c565b60005b8381106135ef5750506000910152565b81810151838201526020016135df565b613620611bc66020936106a893613614815190565b80835293849260200190565b958691016135dc565b6020808252610656929101906135ff565b156136425750565b612a9c9061364f60405190565b9182917f08c379a000000000000000000000000000000000000000000000000000000000835260048301613629565b600061368981610d16565b915b6012613698610656825490565b84101561376f57611fe984826136ae9350611ed9565b6136ba61063d84611ef4565b73ffffffffffffffffffffffffffffffffffffffff8216036136e8575b506136e18361216b565b925061368b565b60406136fb612032836137259450610946565b63092193ab9061262d8661370e30610946565b9361371860405190565b9687958694859360e01b90565b03925af18015613762575b156136d7576137559060403d811161375b575b61374d8183611c1e565b81019061352b565b506136d7565b503d613743565b61376a611f27565b613730565b50909150613781426122e66004611284565b9161379761229a613790610d23565b8095611fba565b925b60106137a6610656825490565b851015613899578061385e613836611fe9886138649561382e611fc061381760206137fb6120326120328f8f6137f5611fe99261207d6137ea8e9461267886611fdb565b916123106001610d16565b99611ed9565b6370a082319061262d61380d30610946565b9261262060405190565b03915afa90811561388c575b600091613874575090565b111594611ed9565b61065661384260405190565b809261385260208301918261357c565b90810382520382611c1e565b9061363a565b61386d8461216b565b9350613799565b610656915060203d81116120cb576120bb8183611c1e565b613894611f27565b613823565b506138bc929350612310906126786138b16004611284565b936123106001610d16565b6138c7816004612b25565b506138d06138e3565b6138d8614694565b612dc8816003612b25565b6138eb612255565b906138f66000610d16565b915b6015613905610656825490565b84101561393a57613929849161342961392161243385876121bb565b938492611ed9565b506139338361216b565b92506138f8565b5050905061394661235b565b612dc8816005612b25565b1561395857565b6040517f08c379a000000000000000000000000000000000000000000000000000000000815260206004820152601560248201527f4e6f74206f776e6572206f722074696d656c6f636b00000000000000000000006044820152606490fd5b9061068592916139f4336139ce61063d6000611d96565b73ffffffffffffffffffffffffffffffffffffffff8216149081156139f9575b50613951565b613a8e565b9050613a18738412ebf45bac1b340bbe8f318b928c466c4e39ca611e04565b14386139ee565b9063ff0000009060181b612aa5565b90613a3e610656612ac692151590565b8254613a1f565b9061ff009060081b612aa5565b90613a62610656612ac692151590565b8254613a45565b9062ff00009060101b612aa5565b90613a87610656612ac692151590565b8254613a69565b613a99816021613a2e565b50613aa5816021613a52565b50612dc8816021613a77565b9061068592916139b7565b613acd336139ce61063d6000611d96565b610685613add612b746021612702565b612dc8816021612aaf565b610685613abc565b61068590613b05336139ce61063d6000611d96565b612dc8600d612b80612be1612b7461271a8685610a57565b61068590613af0565b15613b2d57565b6040517f08c379a000000000000000000000000000000000000000000000000000000000815260206004820152601460248201527f4e6f74206f776e6572206f7220746b6e206d67720000000000000000000000006044820152606490fd5b9061068591613bca3382613ba361063d6000611d96565b73ffffffffffffffffffffffffffffffffffffffff831614918215613bcf575b5050613b26565b613be0565b613bd99250611da0565b8238613bc3565b6000929183613bee81610d16565b945b6010613bfd610656825490565b871015613d1a57611fe98782613c139350611ed9565b613c3273ffffffffffffffffffffffffffffffffffffffff8616611e04565b14613c4757613c408661216b565b9550613bf0565b5090919293506001905b8180613cfa575b8215613cd0575b505015613c71576106859133906144c5565b6040517f08c379a000000000000000000000000000000000000000000000000000000000815260206004820152601a60248201527f4e6f2076616c696420746f6b656e7320746f207265636f7665720000000000006044820152606490fd5b15915081613ce1575b503880613c5f565b9050613cf3611e0461063d3393611d96565b1438613cd9565b9150613d0a611de585600f610a57565b613d1333611e04565b1491613c58565b509192939450613c51565b9061068591613b8c565b61068590613d44336139ce61063d6000611d96565b613e95565b906020906006811015613d5b57020190565b61210e611211565b15613d6a57565b6040517f08c379a000000000000000000000000000000000000000000000000000000000815260206004820152601360248201527f4d757374206265203e3d204d554c2050524543000000000000000000000000006044820152606490fd5b15613dd057565b6040517f08c379a000000000000000000000000000000000000000000000000000000000815260206004820152600c60248201527f4d757374206265203e3d203000000000000000000000000000000000000000006044820152606490fd5b15613e3657565b6040517f08c379a000000000000000000000000000000000000000000000000000000000815260206004820152600c60248201527f4d757374206265203e3d203100000000000000000000000000000000000000006044820152606490fd5b612433613fd291613fb6612433613f366000613ed4613ebf612433613eb984610d16565b88613d49565b613ecd611fc0610656612568565b1015613d63565b613f73612433613f6d6001613ef4612433613eee83610d16565b8b613d49565b613f00611fc087610d16565b101580614033575b80614004575b613f1790613dc9565b613f5c612433613eee600497613f578d613f3c612433613f368d610d16565b83613d49565b613f48611fc089610d16565b10159081613fdd575b50613e2f565b610d16565b613f67816006612b25565b50610d16565b87613d49565b613f7e81600a612b25565b50613f8f612433613f6d6002610d16565b613f9a81600b612b25565b50613fab612433613f6d6003610d16565b613f67816009612b25565b613fc1816007612b25565b50613fcc6005610d16565b90613d49565b612dc8816008612b25565b613ff0915061243390613fcc6005610d16565b613ffc611fc088610d16565b10158e613f51565b50613f1761401e6124336140186003610d16565b8c613d49565b61402a611fc088610d16565b10159050613f0e565b50614044612433613eee6002610d16565b614050611fc087610d16565b1015613f08565b61068590613d2f565b906106859392916140793382613ba361063d6000611d96565b6140be565b91906008612aa591029161331d73ffffffffffffffffffffffffffffffffffffffff841b90565b91906140b6610656612ac693610946565b90835461407e565b83916140e86123ae61410593612dc8966013946140ee816134296014986140e86123ae888c610a57565b90611ed9565b5061410b8161410560116140e86123ae878b610a57565b906140a5565b50601293610a57565b90610685939291614060565b90610685916141373382613ba361063d6000611d96565b81612be9612dc892600f610a57565b9061068591614120565b1561415757565b6040517f08c379a000000000000000000000000000000000000000000000000000000000815260206004820152602f60248201527f4f6e6c792074686520636f6e7472616374206f776e6572206d6179207065726660448201527f6f726d207468697320616374696f6e00000000000000000000000000000000006064820152608490fd5b610685906141fa336141f4611e0461063d6000611d96565b14614150565b614205816001612ae6565b6142337f906a1c6bd7e3091ea86693dd029a831c19049ce77f1dce2ce0bab1cacbabce2291610c9160405190565b0390a1565b610685906141dc565b1561424857565b6040517f08c379a000000000000000000000000000000000000000000000000000000000815260206004820152603560248201527f596f75206d757374206265206e6f6d696e61746564206265666f726520796f7560448201527f2063616e20616363657074206f776e65727368697000000000000000000000006064820152608490fd5b73ffffffffffffffffffffffffffffffffffffffff909116815260408101929161068591602090613139565b6143133361430d611e0461063d6001611d96565b14614241565b61431d6000611d96565b6143276001611d96565b7fb532073b38c83145e3e5135377a08bf9aab55bc0fd7c1179cd4fb995d2a5159c9161435e61435560405190565b928392836142cd565b0390a161436b6001611d96565b614376816000612ae6565b506143816000611ef4565b612dc8816001612ae6565b61439f6143996106569290565b60e01b90565b7fffffffff000000000000000000000000000000000000000000000000000000001690565b6106a860209167ffffffffffffffff811161440157601f017fffffffffffffffffffffffffffffffffffffffffffffffffffffffffffffffe01690565b611bc6611bee565b90612120611cb1836143c4565b3d15614430576144253d614409565b903d6000602084013e565b606090565b9050519061068582610efc565b9061065691602081830312156144355761445a600080fd5b614435565b1561446657565b6040517f08c379a000000000000000000000000000000000000000000000000000000000815260206004820152601f60248201527f5472616e7366657248656c7065723a205452414e534645525f4641494c4544006044820152606490fd5b60009190600461450d84936144fe610685976144e463a9059cbb61438c565b926144ee60405190565b95869460208601908152016132c0565b60208201810382520382611c1e565b82602082019151925af161451f614416565b8161452b575b5061445f565b805190915061453d611fc06000610d16565b1490811561454d575b5038614525565b6145679150602061455c825190565b818301019101614442565b38614546565b6145776012614409565b7f667261785f7065725f6c705f746f6b656e310000000000000000000000000000602082015290565b61065661456d565b6145b26015614409565b7f6375727665546f6b656e546f74616c537570706c790000000000000000000000602082015290565b6106566145a8565b6145ed600c614409565b7f667278457468496e506f6f6c0000000000000000000000000000000000000000602082015290565b6106566145e3565b6146286011614409565b7f66727845746856616c75654c6f636b6564000000000000000000000000000000602082015290565b61065661461e565b6146636012614409565b7f667261785f7065725f6c705f746f6b656e320000000000000000000000000000602082015290565b610656614659565b73__$03410bdb5b6e31ba206af5f1ba44259eff$__6146bb60006146b66145a0565b61492c565b61485161484361482473f43211935c781d5ca1a41d2041f397b8a7366c7a60206146e482610946565b6146ed81610946565b6318160ddd9161472c6146ff60405190565b6147098560e01b90565b81528581600481875afa9081156148fd575b6000916148e0575b506146b66145db565b6148186147d985735e8422345238f34275888049021821e8e08caa1f61475181610946565b61262d61475d82610946565b916370a082319073a1f8a6807c402e4a15ef4eba36528a3fed24e577946147cf61478660405190565b6147908560e01b90565b815273ffffffffffffffffffffffffffffffffffffffff8816600482015288816024818a5afa9081156148d3575b6000916148b6575b506146b6614616565b5050604051612620565b03915afa9081156148a9575b60009161488c575b5061480d6148056147ff613f57614a72565b83611f64565b6146b6614651565b61207d613f57614a72565b94505061204660405190565b825260049082905afa91821561487f575b60009261485f575b50611fba565b61207d6402540be400610d16565b9050610656816146b661468c565b61487891925060203d81116120cb576120bb8183611c1e565b903861483d565b614887611f27565b614835565b6148a39150863d81116120cb576120bb8183611c1e565b386147ed565b6148b1611f27565b6147e5565b6148cd9150893d81116120cb576120bb8183611c1e565b386147c6565b6148db611f27565b6147be565b6148f79150863d81116120cb576120bb8183611c1e565b38614723565b614905611f27565b61471b565b9291602061492761068593604087019087820360008901526135ff565b940152565b90614972610685926144fe61494060405190565b9384926004602085017fb60e72cc0000000000000000000000000000000000000000000000000000000081520161490a565b6000809161497e815190565b906020016a636f6e736f6c652e6c6f675afa50565b69ffffffffffffffffffff8116610671565b9050519061068582614993565b919060a0838203126149ff575b6149c981846149a5565b926149d78260208301611efd565b926106566149e88460408501611efd565b936149f68160608601611efd565b936080016149a5565b614a07600080fd5b6149bf565b15614a1357565b6040517f08c379a000000000000000000000000000000000000000000000000000000000815260206004820152601760248201527f496e76616c696420636861696e6c696e6b2070726963650000000000000000006044820152606490fd5b614a9360a0614a846120326025611d96565b63feaf968c906127ce60405190565b825260049082905afa8015614b48575b600090819081908190614b11575b610656939450600092614ac384610d16565b8612159384614af6575b505082614adc575b5050614a0c565b69ffffffffffffffffffff90811692501610153880614ad5565b91935090614b0790611fc090610d16565b1415913880614acd565b50505050614b386106569160a03d8111614b41575b614b308183611c1e565b8101906149b2565b91509192614ab1565b503d614b26565b614b50611f27565b614aa3565b61068590614b6a336139ce61063d6000611d96565b614bd5565b15614b7657565b6040517f08c379a000000000000000000000000000000000000000000000000000000000815260206004820152601560248201527f5a65726f206164647265737320646574656374656400000000000000000000006044820152606490fd5b614c0790612032614be961063d6000611ef4565b73ffffffffffffffffffffffffffffffffffffffff83161415614b6f565b612dc8816025612ae6565b61068590614b55565b61065660a0611c6b565b90610685614c8f6004614c36614c1b565b94614c47614c4382611284565b8752565b614c5d614c5660018301611284565b6020880152565b614c73614c6c60028301611284565b6040880152565b614c89614c8260038301611284565b6060880152565b01611284565b6080840152565b61065690614c25565b909190614cc1614cbb600094614cb6846022610a57565b611241565b50614c96565b92601890614cd26123ae8484610a57565b6020860190614ce5611fc0610656845190565b1015614ddc5751925b6060860192614cfb845190565b4293908410614daa5750614d12916123ae91610a57565b614d20611fc0610656855190565b1015614d9757614d44612094916122e6614d3f614d7596612bf8875190565b945190565b614d6f614d6184612678610811614d5b6002610d16565b83611fba565b612310836126786000610d16565b926121ae565b915b6080810190614d87610656835190565b8411614d91575050565b50519150565b505050614da46000610d16565b91614d77565b610811949250612310915092612bf8614dcd614da497614dd29650612bf8865190565b935190565b6120946002610d16565b50614dea6123ae8484610a57565b92614cee565b600090601e90614e036123ae8284610a57565b93614e0d82612735565b94859450614e1f6123ae84601d610a57565b9383600095614e30611fc088610d16565b149182614f0b575b50508015614ef1575b15614ed1579392935b614e5385610d16565b9450845b6022614e6d610656614e698784610a57565b5490565b871015614ec75790612310856123106125a16147ff8c614eaf6040614ea98f614ea3614cbb82614cb6614eb59f808e9150610a57565b98614c9f565b96015190565b946121ae565b93614ebf8661216b565b955093614e57565b5093945094509050565b94614ee890614dd2906123106123ae86600c610a57565b94939293614e4a565b50614f036106566123ae85600c610a57565b861015614e41565b614f1a92506123ae9190610a57565b614f26611fc086610d16565b148338614e38565b90614f37825490565b614f4081612113565b92614f546020850191600052602060002090565b6000915b838310614f655750505050565b60056020600192614f7585614c96565b815201920192019190614f58565b61065690614f2e565b614fa361065691614f9b606090565b506022610a57565b614f83565b614e6961065691614f9b600090565b614fc191906151c1565b905090565b614fce614c1b565b906000825260208080808086016000815201600081520160008152016000905250565b610656614fc6565b615003600d614409565b7f67657474696e67207374616b6500000000000000000000000000000000000000602082015290565b610656614ff9565b61503e6007614409565b7f6c6f6f70696e6700000000000000000000000000000000000000000000000000602082015290565b610656615034565b615079600c614409565b7f666f756e64206b656b5f69640000000000000000000000000000000000000000602082015290565b61065661506f565b6150b46017614409565b7f5468652077696e6e696e67206e756d626572206973213a000000000000000000602082015290565b6106566150aa565b6150ef600e614409565b7f6265666f72652052657175697265000000000000000000000000000000000000602082015290565b6106566150e5565b1561512757565b6040517f08c379a000000000000000000000000000000000000000000000000000000000815260206004820152601060248201527f5374616b65724e6f74466f756e643a28000000000000000000000000000000006044820152606490fd5b615190600e614409565b7f7265717569726520706173736564000000000000000000000000000000000000602082015290565b610656615186565b916151ca614ff1565b916000938473__$03410bdb5b6e31ba206af5f1ba44259eff$__956151f6836151f161502c565b615409565b6151ff84615341565b945b6022615213610656614e698684610a57565b87101561532b578690615228826146b6615067565b615245610656600061523e85614cb68a87610a57565b5001611284565b861461525d5750506152568661216b565b9550615201565b611fc09350611f6b92506152a691614cb66152f996614cbb93615282846146b66150a2565b61529d615298600061523e87614cb68787610a57565b615341565b610a9e8a615341565b966152be876152b66152988b5190565b6146b66150dd565b6152ce6152c9615118565b61538a565b87906152db615298835190565b6152ed6152e6835190565b8714615120565b506124336152c96151b9565b0361530057565b6040517fe6215fab000000000000000000000000000000000000000000000000000000008152600490fd5b5095611fc09195506152f99250611f6b906152be565b6144fe6149726106859261535460405190565b9283916004602084017f27b7cf850000000000000000000000000000000000000000000000000000000081520190815260200190565b6144fe6149726106859261539d60405190565b9283916004602084017f41304fac00000000000000000000000000000000000000000000000000000000815201613629565b929160206153ec61068593604087019087820360008901526135ff565b94019073ffffffffffffffffffffffffffffffffffffffff169052565b90614972610685926144fe61541d60405190565b9384926004602085017f319af333000000000000000000000000000000000000000000000000000000008152016153cf565b90612fa79161545e6002611284565b615469612f8d612efa565b615474816002612b25565b506106859190615485600133612d26565b615553565b6106569060281c61063d565b610656905461548a565b507f4e487b7100000000000000000000000000000000000000000000000000000000600052600060045260246000fd5b90612b35610656612ac69290565b6106859190612bfd906080906004906154ff816154f9875190565b906154d0565b61551160018201612bfd602088015190565b61552360028201612bfd604088015190565b61553560038201612bfd606088015190565b0192015190565b6106859291156154de5761554e6154a0565b6154de565b90339061556083836151c1565b61556f83612d03604085015190565b9060009161557c83610d16565b8511156156d75761561283926156078961560061568798614c8261561a976155bc8d8f6155ac6120326021615496565b906155b630610946565b916157c9565b6155f96155ca602085015190565b6155f26155e360806155dd606089015190565b97015190565b976155ec614c1b565b9d8e0152565b60208c0152565b60408a0152565b6080860152565b614cb6886022610a57565b81939161553c565b5061563361562c84612d03601b611284565b601b612b25565b61564e61564185601d610a57565b612bfd85612d0383611284565b6156578461270c565b61566361063d83611ef4565b73ffffffffffffffffffffffffffffffffffffffff8216036156c3575b5083612d26565b6156b17f2640b32e7e5d0fa2a21ea06b22fbd75fda0fda384a895a5fdeef43646de47a0c92610946565b926156be610e1460405190565b0390a2565b6156416156d191601f610a57565b38615680565b6040517f063921df000000000000000000000000000000000000000000000000000000008152600490fd5b906106859161544f565b73ffffffffffffffffffffffffffffffffffffffff9091168152606081019392610685929091604091610de59061311c565b1561574557565b6040517f08c379a0000000000000000000000000000000000000000000000000000000008152602060048201526024808201527f5472616e7366657248656c7065723a205452414e534645525f46524f4d5f464160448201527f494c4544000000000000000000000000000000000000000000000000000000006064820152608490fd5b6004615802600094936144fe6106859787966157e86323b872dd61438c565b936157f260405190565b968795602087019081520161570c565b82602082019151925af1615814614416565b81615820575b5061573e565b8051909150615832611fc06000610d16565b14908115615842575b503861581a565b6158519150602061455c825190565b3861583b565b90612fa7916158666002611284565b615871612f8d612efa565b61587c816002612b25565b50610685919061588d600133612d26565b6158bf565b610de5610685946158b86060949897956158b1608086019a6000870152565b6020850152565b6040830152565b33906158cb81836151c1565b429491929185811115615a6e5760608401866158e5825190565b600090821015615a5c5750612bf86158fb925190565b935b61590e61590a88846121a1565b9590565b851115615a31576159226106566008611284565b8510615a06576159356106566007611284565b85116159db576159926156126156be9461598761595460408c96015190565b61597c6159608b61253f565b91614c6c61596c614c1b565b986159758d8b52565b60208a0152565b615600876060880152565b614cb6896022610a57565b5061599e600086612d26565b6159c87fc2cf1aae6decacbc52f96b4e4fec96d4ebab5236e4ed987165537bc463014a4395610946565b956159d260405190565b94859485615892565b6040517f42d144ad000000000000000000000000000000000000000000000000000000008152600490fd5b6040517fda0f0f2a000000000000000000000000000000000000000000000000000000008152600490fd5b6040517fbdddfeec000000000000000000000000000000000000000000000000000000008152600490fd5b615a6892509050610d16565b936158fd565b6040517fa51620a7000000000000000000000000000000000000000000000000000000008152600490fd5b9061068591615857565b9061308d9291615ab36002611284565b615abe612f8d612efa565b615ac9816002612b25565b50615b0a565b615ad96017614409565b7f465258465241524d3a205374616b696e67546f6b656e31000000000000000000602082015290565b610656615acf565b5061065691615b27615b1f6120326021615496565b6151f1615b02565b42913380615dcc565b61065691906000615aa3565b906106569594939291615b50600183612d26565b615c26565b6106569060181c610a78565b6106569054615b55565b615b756017614409565b7f465258465241524d3a205374616b696e67546f6b656e32000000000000000000602082015290565b610656615b6b565b615bb06027614409565b7f465241584641524d3a206d616465206974207061737420746865207472616e7360208201527f66657246726f6d00000000000000000000000000000000000000000000000000604082015290565b610656615ba6565b613139610685946158b86060949897956158b1608086019a6000870152565b509193909290615c366021615b61565b615da157615c476106566008611284565b8210615a0657615c5a6106566007611284565b82116159db57615cda9073__$03410bdb5b6e31ba206af5f1ba44259eff$__615c91615c896120326021615496565b6151f1615b9e565b615cb287615ca26120326021615496565b88615cac30610946565b916171b7565b50615cbe6152c9615bff565b615cc78361253f565b9086615cd385836121ae565b9186616dee565b93615cec61562c82612d03601b611284565b615d07615cfa84601d610a57565b612bfd83612d0383611284565b615d46615d138461270c565b600090615d2261063d83611ef4565b73ffffffffffffffffffffffffffffffffffffffff821603615d8d575b5084612d26565b615d87615d737ff400e72e69ef4402819dfc57eeddc66f5eb69bf405e0e8098b1946ec1ac14a2294610946565b9486615d7e60405190565b94859485615c07565b0390a290565b615641615d9b91601f610a57565b38615d3f565b6040517f26d1807b000000000000000000000000000000000000000000000000000000008152600490fd5b61065694939291906000615b3c565b9061308d9291615deb6002611284565b615df6612f8d612efa565b615e01816002612b25565b50615e1d565b6106569060081c610a78565b6106569054615e07565b50615e286021615e13565b615e32600161304d565b14615e41576106569133615f11565b6040517f6022a9e7000000000000000000000000000000000000000000000000000000008152600490fd5b61065691906000615ddb565b9190613333610656612ac69390565b61068591600091615e78565b61068591600091613322565b6000600461068592615eb383808301615e87565b615ec08360018301615e93565b615ecd8360028301615e93565b615eda8360038301615e93565b01615e93565b6106859115615e9f57615ef16154a0565b615e9f565b908152606081019392610685929091604091613139906114c7565b60019291615f208482846132b3565b50615f2b83836151c1565b9442615f3e611fc0610656606086015190565b1015908115616090575b506160655760400151936000615f5d81610d16565b8611615f6c575b505050505090565b615ffd615ff761600393615f8d8987615f886120326021615496565b6144c5565b615f9e61562c8a612bf8601b611284565b615fb9615fac88601d610a57565b612bfd8b612bf883611284565b615fc28761270c565b615fce61063d86611ef4565b73ffffffffffffffffffffffffffffffffffffffff821603616051575b50614cb6876022610a57565b90615ee0565b83612d26565b61602d7f1d9308f6b22a2754a1c622bb30889e8f8f956c83e524d039e9d65d5f052eb90892610946565b9261604461603a60405190565b9283928784615ef6565b0390a23880808080615f64565b615fac61605f91601f610a57565b38615feb565b6040517f372a7fe5000000000000000000000000000000000000000000000000000000008152600490fd5b90506160a861304d6160a26021612702565b92151590565b1438615f48565b336160c784612d7a84610a9e876113f2876026610a57565b61610e6161046161006160fa7fa1376f00ce38a02643af0ff97dce59c2c81b4c8ad34c717ce9a44ed623e0718d94610946565b94610946565b9490565b9461081a60405190565b0390a4565b6106a490610d16565b6020810192916106859190616113565b9060009161613983610d16565b339061615281612d7a85610a9e886113f2886026610a57565b5061610e6161866161006160fa7fa1376f00ce38a02643af0ff97dce59c2c81b4c8ad34c717ce9a44ed623e0718d94610946565b9461619060405190565b9182918261611c565b6161a36011614409565b7f736574417070726f76616c466f72416c6c000000000000000000000000000000602082015290565b610656616199565b336161e88383836161e36161cc565b6162aa565b6161fb83612b8084610a9e856027610a57565b61623b61623161622b7f17307eab39ab6107e8899845ad3d59bd9653f200f220920489ca2b5937696c3193610946565b93610946565b936107c060405190565b0390a3565b6162a26106859461628561626660609599989699608086019086820360008801526135ff565b73ffffffffffffffffffffffffffffffffffffffff9099166020850152565b73ffffffffffffffffffffffffffffffffffffffff166040830152565b019015159052565b6144fe6106859461497293946162bf60405190565b9586946004602087017fb59dbd6000000000000000000000000000000000000000000000000000000000815201616240565b6162fc816027610a57565b9061630b61271a338094610a57565b156163195750505050600190565b6123ae611fc092610a9e616335956113f2611f6b956026610a57565b1061633f57600190565b600090565b906163749695949392916163586002611284565b616363612f8d612efa565b61636e816002612b25565b5061637e565b9091612faf612f6a565b969594939291965050616395612b748484896162f1565b6163b457856163b09596506163ab848483616401565b616d80565b9091565b5033612a9c6163c260405190565b9283927f01aca06d000000000000000000000000000000000000000000000000000000008452600484016132c0565b6163b09493929190600080616344565b91602690616413836113f28685610a57565b906164226123ae338094610a57565b81900361644a5750612d7a90610a9e612dc8946113f26164426000610d16565b978896610a57565b9291906164626123ae82610a9e866113f28a88610a57565b84101561648057610a9e612bfd936113f261068597612bee95610a57565b6040517f13be252b000000000000000000000000000000000000000000000000000000008152600490fd5b9061637495949392916164be6002611284565b6164c9612f8d612efa565b6164d4816002612b25565b50506163b094939291905033616d80565b6163b0939291906000806164ab565b906163b0969594939291616509600184612d26565b906163b096959493929161651e600185612d26565b616836565b7fffffffff000000000000000000000000000000000000000000000000000000008116610671565b9050519061068582616523565b90610656916020818303121561654b57616570600080fd5b61654b565b73ffffffffffffffffffffffffffffffffffffffff90911681526106569260808201926165bf91906158b8905b73ffffffffffffffffffffffffffffffffffffffff166020850152565b60608183039101526000815260200190565b61439f6143996106569263ffffffff1690565b1561063857565b6165f5601a614409565b7f5374616b657220616464726573732070726f787920434845434b000000000000602082015290565b6106566165eb565b6166306006614409565b7f4445445543540000000000000000000000000000000000000000000000000000602082015290565b610656616626565b61666b6006614409565b7f44454c4554450000000000000000000000000000000000000000000000000000602082015290565b610656616661565b6166a6600f614409565b7f555044415445204558495354494e470000000000000000000000000000000000602082015290565b61065661669c565b6166e16010614409565b7f455854454e442054494d455354414d5000000000000000000000000000000000602082015290565b6106566166d7565b61671c600a614409565b7f435245415445204e455700000000000000000000000000000000000000000000602082015290565b610656616712565b616757601b614409565b7f555044415445205245574152445320414e442042414c414e4345530000000000602082015290565b61065661674d565b6167926013614409565b7f43414c4c204f4e4c4f434b524543454956454400000000000000000000000000602082015290565b610656616788565b6106566000614409565b6106566167c3565b6167df6023614409565b7f56657279206e6963652c2049206c696b652c206772656174207375636365737360208201527f2121210000000000000000000000000000000000000000000000000000000000604082015290565b6106566167d5565b50919594929392909150600090823b616851611fc084610d16565b11616c92575b61686185846151c1565b90919061686d84611ef4565b9073ffffffffffffffffffffffffffffffffffffffff821673ffffffffffffffffffffffffffffffffffffffff8b16148015616c5d575b616c3157429160608501956168ba610656885190565b8410158015616c16575b6160655760408601926168d8610656855190565b8a118015616c04575b616bd957616963610656616986958f8d610656978e61691961564185601d610a9e61690c8683610a57565b612bfd89612bf883611284565b6169228161270c565b61694173ffffffffffffffffffffffffffffffffffffffff8416611e04565b03616ba0575b50616957611e04611dea8561270c565b03616b7e575b50505190565b8a03616b5057615ff7613f579161697b6152c9616694565b614cb68b6022610a57565b8203616a6f575050916169cb616a5e92616a63946169a56152c9616745565b866169c460806169be6169b9602086015190565b955190565b93015190565b9285616dee565b9687905b73__$03410bdb5b6e31ba206af5f1ba44259eff$__956169f06152c9616780565b6169ff6001615ffd8187612d26565b7fd8413caab9b66d88aed167bb4f6b308542a6953a6a54e22f67c5271d34ef97be616a2985610946565b9089616a3485610946565b93616a42876114f260405190565b0390a3616a506152c96167bb565b616a586167cd565b92616fdf565b6165e4565b50611fc06152c961682e565b9780616a5e9481616a639795859c616ad58b616ada606073__$03410bdb5b6e31ba206af5f1ba44259eff$__92616aa76152c96166cf565b616ab18c896151c1565b959091612bfd6002616ac989614cb660229e8f610a57565b500191612d0383611284565b015190565b616ae8611fc0610656895190565b10616afa575b505050505050506169cf565b616b34610811616b3c94612bf8616b4399600498614cb69650616b1e6152c961670a565b8c61695d8c6003616b3c8c614cb6616b34895190565b968795610a57565b5001612b25565b5080388080808080616aee565b6002616b6f613f5792616b646152c9616659565b614cb68c6022610a57565b5001612bfd8b612bf883611284565b612bfd612cf9616b9993616b93601f9161270c565b90610a57565b8f8d61695d565b616bc6616bd391616bbb616bb38261270c565b6151f161661e565b616b93601f9161270c565b612bfd84612bf883611284565b8e616947565b6040517f2c5211c6000000000000000000000000000000000000000000000000000000008152600490fd5b50616c0e82610d16565b8a11156168e1565b50616c216021612702565b616c2b600161304d565b146168c4565b6040515b7f1e4ec46b000000000000000000000000000000000000000000000000000000008152600490fd5b5073ffffffffffffffffffffffffffffffffffffffff861673ffffffffffffffffffffffffffffffffffffffff8b16146168a4565b616d2e616cd8616ca185610946565b616caa81610946565b634fb071059160208a8d616cbd60405190565b9687928392616ccc8960e01b90565b84528d60048501616575565b03818a865af1938415616d73575b600094616d33575b50616d2892616d029261439f9250506165d1565b917fffffffff000000000000000000000000000000000000000000000000000000001690565b146165e4565b616857565b61439f91945092616d0292616d61616d289560203d8111616d6c575b616d598183611c1e565b810190616558565b959250925092616cee565b503d616d4f565b616d7b611f27565b616ce6565b6163b094939291906000806164f4565b92616dad60206106a894616dad601488616dad859b9a869961355c565b01918252565b90616ddb6106859280549068010000000000000000821015616de1575b600182018155611241565b9061553c565b616de9611bee565b616dd0565b9493616e7390614c8f61068595616e03600090565b50616e6c613852616e35616e1b6123ae8d601d610a57565b8c616e2560405190565b9384928c8c602086019485616d90565b616e47616e40825190565b9160200190565b2096614c6c616e5b6106568a9d6022610a57565b97615975616e67614c1b565b9a8b52565b6060860152565b616db3565b616e826017614409565b7f436865636b696e67206f6e4c6f636b5265636569766564000000000000000000602082015290565b610656616e78565b616ebd6014614409565b7f726563656976657220686173206e6f20636f6465000000000000000000000000602082015290565b610656616eb3565b616ef86011614409565b7f72656365697665722068617320636f6465000000000000000000000000000000602082015290565b610656616eee565b73ffffffffffffffffffffffffffffffffffffffff90911681526106569360808201939092616f5c91906158b8906165a2565b60608184039101526135ff565b616f736006614409565b7f747279696e670000000000000000000000000000000000000000000000000000602082015290565b610656616f69565b616fae6006614409565b7f6661696c65640000000000000000000000000000000000000000000000000000602082015290565b610656616fa4565b6000949373__$03410bdb5b6e31ba206af5f1ba44259eff$__939161700c8482617007616eab565b617171565b600093803b61701d611fc087610d16565b111561711c5761702e6152c9616f21565b61703781610946565b9060208161704484610946565b9461707163c42d8b959761705760405190565b998a9485946170668c60e01b90565b865260048601616f29565b038189875af1600095816170fc575b506170d25750505050506001617094575050565b61709c614416565b91506170a96152c9616fd7565b6170bd611fc06170b7845190565b92610d16565b036170ca57604051616c35565b805190602001fd5b84979850616d0295506170f89661439f9550506170f06152c9616f9c565b5050506165d1565b1490565b61711591965060203d8111616d6c57616d598183611c1e565b9438617080565b505050505090915050611e286152c9616ee6565b60409061313961715261068595979694606084019084820360008601526135ff565b73ffffffffffffffffffffffffffffffffffffffff9097166020830152565b614972906144fe6106859461718560405190565b9485936004602086017ffcec75e000000000000000000000000000000000000000000000000000000000815201617130565b60046171d6600094936144fe6106859787966157e86323b872dd61438c565b82602082019151925af16171e8614416565b615814816144fe614972610685926171ff60405190565b9283916004602084017f0be77f560000000000000000000000000000000000000000000000000000000081520161362956fea264697066735822122097e05e0bda8808c5f2b8a7328a81d11ac267196f1fdc5a4f78f8a1ea5008b15664736f6c63430008110033",
    "linkReferences": {
      "lib/forge-std/src/console2.sol": {
        "console2": [
          {
            "start": 21185,
            "length": 20
          },
          {
            "start": 24060,
            "length": 20
          },
          {
            "start": 26769,
            "length": 20
          },
          {
            "start": 30204,
            "length": 20
          },
          {
            "start": 30387,
            "length": 20
          },
          {
            "start": 31760,
            "length": 20
          }
        ]
      }
    }
  },
  "methodIdentifiers": {
    "acceptOwnership()": "79ba5097",
    "calcCurCombinedWeight(address)": "8bad86a7",
    "calcCurrLockMultiplier(address,uint256)": "774d4ae7",
    "changeTokenManager(address,address)": "de1a6551",
    "combinedWeightOf(address)": "36f89af2",
    "curvePool()": "218751b2",
    "curveToken()": "4f39059c",
    "earned(address)": "008cc262",
    "fraxPerLPStored()": "d2010fb4",
    "fraxPerLPToken()": "5bfd9258",
    "getAllRewardTokens()": "12edb24c",
    "getLatestETHPriceE8()": "bdb123e3",
    "getProxyFor(address)": "c3543826",
    "getReward(address)": "c00007b0",
    "getReward2(address,bool)": "7910d17b",
    "getRewardExtraLogic(address)": "387edc86",
    "getRewardForDuration()": "1c1f78eb",
    "getStake(address,bytes32)": "de57a5b5",
    "isApproved(address,bytes32,uint256)": "061a7bf5",
    "isTokenManagerFor(address,address)": "231b68dc",
    "kekAllowance(address,bytes32,address)": "7ab44e40",
    "lastRewardClaimTime(address)": "6c430dbb",
    "lastUpdateTime()": "c8f33c91",
    "lockAdditional(bytes32,uint256)": "b85efd06",
    "lockLonger(bytes32,uint256)": "d2fbdc0d",
    "lockMultiplier(uint256)": "0d7bac4f",
    "lock_max_multiplier()": "cdc82e80",
    "lock_time_for_max_multiplier()": "b94c4dcb",
    "lock_time_min()": "6e27cef9",
    "lockedLiquidityOf(address)": "d9f96e8d",
    "lockedStakes(address,uint256)": "7970833e",
    "lockedStakesOf(address)": "1e090f01",
    "lockedStakesOfLength(address)": "ca6df29d",
    "maxLPForMaxBoost(address)": "a0f23476",
    "minVeFXSForMaxBoost(address)": "4fd2b536",
    "minVeFXSForMaxBoostProxy(address)": "7f472e54",
    "nominateNewOwner(address)": "1627540c",
    "nominatedOwner()": "53a47bb7",
    "owner()": "8da5cb5b",
    "periodFinish()": "ebe2b12b",
    "priceFeedETHUSD()": "15a202a1",
    "proxyStakedFrax(address)": "1face856",
    "proxyToggleStaker(address)": "e7f30582",
    "proxy_lp_balances(address)": "7d6ef08e",
    "recoverERC20(address,uint256)": "8980f11f",
    "removeAllowance(address,bytes32)": "b61aa08c",
    "rewardManagers(address)": "41a16f3f",
    "rewardRates(uint256)": "f2caeb1e",
    "rewardTokenAddrToIdx(address)": "69339245",
    "rewardsDuration()": "386a9525",
    "rewardsPerToken()": "70641a36",
    "setAllowance(address,bytes32,uint256)": "a10d3b33",
    "setApprovalForAll(address,bool)": "a22cb465",
    "setETHUSDOracle(address)": "741d3c18",
    "setMiscVariables(uint256[6])": "facefb64",
    "setPauses(bool,bool,bool)": "cc2abd64",
    "setRewardVars(address,uint256,address,address)": "d5e1a9c6",
    "spenderApprovalForAllLocks(address,address)": "1bcb7d90",
    "stakeLocked(uint256,uint256)": "17b18c89",
    "stakerSetVeFXSProxy(address)": "d7400d56",
    "staker_designated_proxies(address)": "28408bab",
    "stakesUnlocked()": "9637927f",
    "stakingToken()": "72f702f3",
    "sync()": "fff6cae9",
    "sync_gauge_weights(bool)": "f77e34d1",
    "toggleValidVeFXSProxy(address)": "91cf600a",
    "totalCombinedWeight()": "64f2c060",
    "totalLiquidityLocked()": "e01f62bf",
    "transferLocked(address,bytes32,uint256,bytes32)": "3c62c44f",
    "transferLockedFrom(address,address,bytes32,uint256,bytes32)": "663b135c",
    "unlockStakes()": "e1ba95d2",
    "updateRewardAndBalance(address,bool)": "55189773",
    "userStakedFrax(address)": "d42fc9b4",
    "veFXSMultiplier(address)": "2c0c2a0a",
    "vefxs_boost_scale_factor()": "aa1d4fce",
    "vefxs_max_multiplier()": "f288baf6",
    "vefxs_per_frax_for_max_boost()": "f2a8d349",
    "withdrawLocked(bytes32,address)": "e44b9fa5"
  },
  "id": 78
}