{
  "abi": [
    {
      "inputs": [
        {
          "internalType": "address",
          "name": "_owner",
          "type": "address"
        },
        {
          "internalType": "address[]",
          "name": "_rewardTokens",
          "type": "address[]"
        },
        {
          "internalType": "address[]",
          "name": "_rewardManagers",
          "type": "address[]"
        },
        {
          "internalType": "uint256[]",
          "name": "_rewardRatesManual",
          "type": "uint256[]"
        },
        {
          "internalType": "address[]",
          "name": "_gaugeControllers",
          "type": "address[]"
        },
        {
          "internalType": "address[]",
          "name": "_rewardDistributors",
          "type": "address[]"
        },
        {
          "internalType": "address",
          "name": "_stakingToken",
          "type": "address"
        }
      ],
      "stateMutability": "nonpayable",
      "type": "constructor"
    },
    {
      "anonymous": false,
      "inputs": [
        {
          "indexed": true,
          "internalType": "address",
          "name": "user",
          "type": "address"
        },
        {
          "indexed": false,
          "internalType": "bytes32",
          "name": "kek_id",
          "type": "bytes32"
        },
        {
          "indexed": false,
          "internalType": "uint256",
          "name": "amount",
          "type": "uint256"
        }
      ],
      "name": "LockedAdditional",
      "type": "event"
    },
    {
      "anonymous": false,
      "inputs": [
        {
          "indexed": true,
          "internalType": "address",
          "name": "user",
          "type": "address"
        },
        {
          "indexed": false,
          "internalType": "bytes32",
          "name": "kek_id",
          "type": "bytes32"
        },
        {
          "indexed": false,
          "internalType": "uint256",
          "name": "new_secs",
          "type": "uint256"
        },
        {
          "indexed": false,
          "internalType": "uint256",
          "name": "new_start_ts",
          "type": "uint256"
        },
        {
          "indexed": false,
          "internalType": "uint256",
          "name": "new_end_ts",
          "type": "uint256"
        }
      ],
      "name": "LockedLonger",
      "type": "event"
    },
    {
      "anonymous": false,
      "inputs": [
        {
          "indexed": false,
          "internalType": "address",
          "name": "oldOwner",
          "type": "address"
        },
        {
          "indexed": false,
          "internalType": "address",
          "name": "newOwner",
          "type": "address"
        }
      ],
      "name": "OwnerChanged",
      "type": "event"
    },
    {
      "anonymous": false,
      "inputs": [
        {
          "indexed": false,
          "internalType": "address",
          "name": "newOwner",
          "type": "address"
        }
      ],
      "name": "OwnerNominated",
      "type": "event"
    },
    {
      "anonymous": false,
      "inputs": [
        {
          "indexed": true,
          "internalType": "address",
          "name": "user",
          "type": "address"
        },
        {
          "indexed": false,
          "internalType": "uint256",
          "name": "amount",
          "type": "uint256"
        },
        {
          "indexed": false,
          "internalType": "address",
          "name": "token_address",
          "type": "address"
        },
        {
          "indexed": false,
          "internalType": "address",
          "name": "destination_address",
          "type": "address"
        }
      ],
      "name": "RewardPaid",
      "type": "event"
    },
    {
      "anonymous": false,
      "inputs": [
        {
          "indexed": true,
          "internalType": "address",
          "name": "user",
          "type": "address"
        },
        {
          "indexed": false,
          "internalType": "uint256",
          "name": "amount",
          "type": "uint256"
        },
        {
          "indexed": false,
          "internalType": "uint256",
          "name": "secs",
          "type": "uint256"
        },
        {
          "indexed": false,
          "internalType": "bytes32",
          "name": "kek_id",
          "type": "bytes32"
        },
        {
          "indexed": false,
          "internalType": "address",
          "name": "source_address",
          "type": "address"
        }
      ],
      "name": "StakeLocked",
      "type": "event"
    },
    {
      "anonymous": false,
      "inputs": [
        {
          "indexed": true,
          "internalType": "address",
          "name": "user",
          "type": "address"
        },
        {
          "indexed": false,
          "internalType": "uint256",
          "name": "liquidity",
          "type": "uint256"
        },
        {
          "indexed": false,
          "internalType": "bytes32",
          "name": "kek_id",
          "type": "bytes32"
        },
        {
          "indexed": false,
          "internalType": "address",
          "name": "destination_address",
          "type": "address"
        }
      ],
      "name": "WithdrawLocked",
      "type": "event"
    },
    {
      "inputs": [],
      "name": "acceptOwnership",
      "outputs": [],
      "stateMutability": "nonpayable",
      "type": "function"
    },
    {
      "inputs": [
        {
          "internalType": "address",
          "name": "account",
          "type": "address"
        }
      ],
      "name": "calcCurCombinedWeight",
      "outputs": [
        {
          "internalType": "uint256",
          "name": "old_combined_weight",
          "type": "uint256"
        },
        {
          "internalType": "uint256",
          "name": "new_vefxs_multiplier",
          "type": "uint256"
        },
        {
          "internalType": "uint256",
          "name": "new_combined_weight",
          "type": "uint256"
        }
      ],
      "stateMutability": "view",
      "type": "function"
    },
    {
      "inputs": [
        {
          "internalType": "address",
          "name": "account",
          "type": "address"
        },
        {
          "internalType": "uint256",
          "name": "stake_idx",
          "type": "uint256"
        }
      ],
      "name": "calcCurrLockMultiplier",
      "outputs": [
        {
          "internalType": "uint256",
          "name": "midpoint_lock_multiplier",
          "type": "uint256"
        }
      ],
      "stateMutability": "view",
      "type": "function"
    },
    {
      "inputs": [
        {
          "internalType": "address",
          "name": "reward_token_address",
          "type": "address"
        },
        {
          "internalType": "address",
          "name": "new_manager_address",
          "type": "address"
        }
      ],
      "name": "changeTokenManager",
      "outputs": [],
      "stateMutability": "nonpayable",
      "type": "function"
    },
    {
      "inputs": [
        {
          "internalType": "address",
          "name": "account",
          "type": "address"
        }
      ],
      "name": "combinedWeightOf",
      "outputs": [
        {
          "internalType": "uint256",
          "name": "",
          "type": "uint256"
        }
      ],
      "stateMutability": "view",
      "type": "function"
    },
    {
      "inputs": [
        {
          "internalType": "address",
          "name": "account",
          "type": "address"
        }
      ],
      "name": "earned",
      "outputs": [
        {
          "internalType": "uint256[]",
          "name": "new_earned",
          "type": "uint256[]"
        }
      ],
      "stateMutability": "view",
      "type": "function"
    },
    {
      "inputs": [],
      "name": "fraxPerLPStored",
      "outputs": [
        {
          "internalType": "uint256",
          "name": "",
          "type": "uint256"
        }
      ],
      "stateMutability": "view",
      "type": "function"
    },
    {
      "inputs": [],
      "name": "fraxPerLPToken",
      "outputs": [
        {
          "internalType": "uint256",
          "name": "",
          "type": "uint256"
        }
      ],
      "stateMutability": "view",
      "type": "function"
    },
    {
      "inputs": [],
      "name": "getAllRewardTokens",
      "outputs": [
        {
          "internalType": "address[]",
          "name": "",
          "type": "address[]"
        }
      ],
      "stateMutability": "view",
      "type": "function"
    },
    {
      "inputs": [
        {
          "internalType": "address",
          "name": "addr",
          "type": "address"
        }
      ],
      "name": "getProxyFor",
      "outputs": [
        {
          "internalType": "address",
          "name": "",
          "type": "address"
        }
      ],
      "stateMutability": "view",
      "type": "function"
    },
    {
      "inputs": [
        {
          "internalType": "address",
          "name": "destination_address",
          "type": "address"
        }
      ],
      "name": "getReward",
      "outputs": [
        {
          "internalType": "uint256[]",
          "name": "",
          "type": "uint256[]"
        }
      ],
      "stateMutability": "nonpayable",
      "type": "function"
    },
    {
      "inputs": [
        {
          "internalType": "address",
          "name": "destination_address",
          "type": "address"
        },
        {
          "internalType": "bool",
          "name": "claim_extra_too",
          "type": "bool"
        }
      ],
      "name": "getReward2",
      "outputs": [
        {
          "internalType": "uint256[]",
          "name": "",
          "type": "uint256[]"
        }
      ],
      "stateMutability": "nonpayable",
      "type": "function"
    },
    {
      "inputs": [
        {
          "internalType": "address",
          "name": "destination_address",
          "type": "address"
        }
      ],
      "name": "getRewardExtraLogic",
      "outputs": [],
      "stateMutability": "nonpayable",
      "type": "function"
    },
    {
      "inputs": [],
      "name": "getRewardForDuration",
      "outputs": [
        {
          "internalType": "uint256[]",
          "name": "rewards_per_duration_arr",
          "type": "uint256[]"
        }
      ],
      "stateMutability": "view",
      "type": "function"
    },
    {
      "inputs": [
        {
          "internalType": "uint256",
          "name": "i",
          "type": "uint256"
        }
      ],
      "name": "getRewardTokenAt",
      "outputs": [
        {
          "internalType": "address",
          "name": "",
          "type": "address"
        }
      ],
      "stateMutability": "view",
      "type": "function"
    },
    {
      "inputs": [],
      "name": "getRewardTokensLength",
      "outputs": [
        {
          "internalType": "uint256",
          "name": "",
          "type": "uint256"
        }
      ],
      "stateMutability": "view",
      "type": "function"
    },
    {
      "inputs": [
        {
          "internalType": "address",
          "name": "caller_addr",
          "type": "address"
        },
        {
          "internalType": "address",
          "name": "reward_token_addr",
          "type": "address"
        }
      ],
      "name": "isTokenManagerFor",
      "outputs": [
        {
          "internalType": "bool",
          "name": "",
          "type": "bool"
        }
      ],
      "stateMutability": "view",
      "type": "function"
    },
    {
      "inputs": [
        {
          "internalType": "address",
          "name": "",
          "type": "address"
        }
      ],
      "name": "lastRewardClaimTime",
      "outputs": [
        {
          "internalType": "uint256",
          "name": "",
          "type": "uint256"
        }
      ],
      "stateMutability": "view",
      "type": "function"
    },
    {
      "inputs": [],
      "name": "lastUpdateTime",
      "outputs": [
        {
          "internalType": "uint256",
          "name": "",
          "type": "uint256"
        }
      ],
      "stateMutability": "view",
      "type": "function"
    },
    {
      "inputs": [
        {
          "internalType": "bytes32",
          "name": "kek_id",
          "type": "bytes32"
        },
        {
          "internalType": "uint256",
          "name": "addl_liq",
          "type": "uint256"
        }
      ],
      "name": "lockAdditional",
      "outputs": [],
      "stateMutability": "nonpayable",
      "type": "function"
    },
    {
      "inputs": [
        {
          "internalType": "bytes32",
          "name": "kek_id",
          "type": "bytes32"
        },
        {
          "internalType": "uint256",
          "name": "new_ending_ts",
          "type": "uint256"
        }
      ],
      "name": "lockLonger",
      "outputs": [],
      "stateMutability": "nonpayable",
      "type": "function"
    },
    {
      "inputs": [
        {
          "internalType": "uint256",
          "name": "secs",
          "type": "uint256"
        }
      ],
      "name": "lockMultiplier",
      "outputs": [
        {
          "internalType": "uint256",
          "name": "",
          "type": "uint256"
        }
      ],
      "stateMutability": "view",
      "type": "function"
    },
    {
      "inputs": [],
      "name": "lock_max_multiplier",
      "outputs": [
        {
          "internalType": "uint256",
          "name": "",
          "type": "uint256"
        }
      ],
      "stateMutability": "view",
      "type": "function"
    },
    {
      "inputs": [],
      "name": "lock_time_for_max_multiplier",
      "outputs": [
        {
          "internalType": "uint256",
          "name": "",
          "type": "uint256"
        }
      ],
      "stateMutability": "view",
      "type": "function"
    },
    {
      "inputs": [],
      "name": "lock_time_min",
      "outputs": [
        {
          "internalType": "uint256",
          "name": "",
          "type": "uint256"
        }
      ],
      "stateMutability": "view",
      "type": "function"
    },
    {
      "inputs": [
        {
          "internalType": "address",
          "name": "account",
          "type": "address"
        }
      ],
      "name": "lockedLiquidityOf",
      "outputs": [
        {
          "internalType": "uint256",
          "name": "",
          "type": "uint256"
        }
      ],
      "stateMutability": "view",
      "type": "function"
    },
    {
      "inputs": [
        {
          "internalType": "address",
          "name": "",
          "type": "address"
        },
        {
          "internalType": "uint256",
          "name": "",
          "type": "uint256"
        }
      ],
      "name": "lockedStakes",
      "outputs": [
        {
          "internalType": "bytes32",
          "name": "kek_id",
          "type": "bytes32"
        },
        {
          "internalType": "uint256",
          "name": "start_timestamp",
          "type": "uint256"
        },
        {
          "internalType": "uint256",
          "name": "liquidity",
          "type": "uint256"
        },
        {
          "internalType": "uint256",
          "name": "ending_timestamp",
          "type": "uint256"
        },
        {
          "internalType": "uint256",
          "name": "lock_multiplier",
          "type": "uint256"
        }
      ],
      "stateMutability": "view",
      "type": "function"
    },
    {
      "inputs": [
        {
          "internalType": "address",
          "name": "account",
          "type": "address"
        }
      ],
      "name": "lockedStakesOf",
      "outputs": [
        {
          "components": [
            {
              "internalType": "bytes32",
              "name": "kek_id",
              "type": "bytes32"
            },
            {
              "internalType": "uint256",
              "name": "start_timestamp",
              "type": "uint256"
            },
            {
              "internalType": "uint256",
              "name": "liquidity",
              "type": "uint256"
            },
            {
              "internalType": "uint256",
              "name": "ending_timestamp",
              "type": "uint256"
            },
            {
              "internalType": "uint256",
              "name": "lock_multiplier",
              "type": "uint256"
            }
          ],
          "internalType": "struct LockedStake[]",
          "name": "",
          "type": "tuple[]"
        }
      ],
      "stateMutability": "view",
      "type": "function"
    },
    {
      "inputs": [
        {
          "internalType": "address",
          "name": "account",
          "type": "address"
        }
      ],
      "name": "lockedStakesOfLength",
      "outputs": [
        {
          "internalType": "uint256",
          "name": "",
          "type": "uint256"
        }
      ],
      "stateMutability": "view",
      "type": "function"
    },
    {
      "inputs": [
        {
          "internalType": "address",
          "name": "account",
          "type": "address"
        }
      ],
      "name": "maxLPForMaxBoost",
      "outputs": [
        {
          "internalType": "uint256",
          "name": "",
          "type": "uint256"
        }
      ],
      "stateMutability": "view",
      "type": "function"
    },
    {
      "inputs": [
        {
          "internalType": "address",
          "name": "account",
          "type": "address"
        }
      ],
      "name": "minVeFXSForMaxBoost",
      "outputs": [
        {
          "internalType": "uint256",
          "name": "",
          "type": "uint256"
        }
      ],
      "stateMutability": "view",
      "type": "function"
    },
    {
      "inputs": [
        {
          "internalType": "address",
          "name": "proxy_address",
          "type": "address"
        }
      ],
      "name": "minVeFXSForMaxBoostProxy",
      "outputs": [
        {
          "internalType": "uint256",
          "name": "",
          "type": "uint256"
        }
      ],
      "stateMutability": "view",
      "type": "function"
    },
    {
      "inputs": [
        {
          "internalType": "address",
          "name": "_owner",
          "type": "address"
        }
      ],
      "name": "nominateNewOwner",
      "outputs": [],
      "stateMutability": "nonpayable",
      "type": "function"
    },
    {
      "inputs": [],
      "name": "nominatedOwner",
      "outputs": [
        {
          "internalType": "address",
          "name": "",
          "type": "address"
        }
      ],
      "stateMutability": "view",
      "type": "function"
    },
    {
      "inputs": [],
      "name": "owner",
      "outputs": [
        {
          "internalType": "address",
          "name": "",
          "type": "address"
        }
      ],
      "stateMutability": "view",
      "type": "function"
    },
    {
      "inputs": [],
      "name": "periodFinish",
      "outputs": [
        {
          "internalType": "uint256",
          "name": "",
          "type": "uint256"
        }
      ],
      "stateMutability": "view",
      "type": "function"
    },
    {
      "inputs": [
        {
          "internalType": "address",
          "name": "proxy_address",
          "type": "address"
        }
      ],
      "name": "proxyStakedFrax",
      "outputs": [
        {
          "internalType": "uint256",
          "name": "",
          "type": "uint256"
        }
      ],
      "stateMutability": "view",
      "type": "function"
    },
    {
      "inputs": [
        {
          "internalType": "address",
          "name": "staker_address",
          "type": "address"
        }
      ],
      "name": "proxyToggleStaker",
      "outputs": [],
      "stateMutability": "nonpayable",
      "type": "function"
    },
    {
      "inputs": [
        {
          "internalType": "address",
          "name": "",
          "type": "address"
        }
      ],
      "name": "proxy_lp_balances",
      "outputs": [
        {
          "internalType": "uint256",
          "name": "",
          "type": "uint256"
        }
      ],
      "stateMutability": "view",
      "type": "function"
    },
    {
      "inputs": [
        {
          "internalType": "address",
          "name": "tokenAddress",
          "type": "address"
        },
        {
          "internalType": "uint256",
          "name": "tokenAmount",
          "type": "uint256"
        }
      ],
      "name": "recoverERC20",
      "outputs": [],
      "stateMutability": "nonpayable",
      "type": "function"
    },
    {
      "inputs": [
        {
          "internalType": "address",
          "name": "",
          "type": "address"
        }
      ],
      "name": "rewardManagers",
      "outputs": [
        {
          "internalType": "address",
          "name": "",
          "type": "address"
        }
      ],
      "stateMutability": "view",
      "type": "function"
    },
    {
      "inputs": [
        {
          "internalType": "uint256",
          "name": "token_idx",
          "type": "uint256"
        }
      ],
      "name": "rewardRates",
      "outputs": [
        {
          "internalType": "uint256",
          "name": "rwd_rate",
          "type": "uint256"
        }
      ],
      "stateMutability": "view",
      "type": "function"
    },
    {
      "inputs": [
        {
          "internalType": "address",
          "name": "",
          "type": "address"
        }
      ],
      "name": "rewardTokenAddrToIdx",
      "outputs": [
        {
          "internalType": "uint256",
          "name": "",
          "type": "uint256"
        }
      ],
      "stateMutability": "view",
      "type": "function"
    },
    {
      "inputs": [
        {
          "internalType": "uint256",
          "name": "",
          "type": "uint256"
        }
      ],
      "name": "rewardTokens",
      "outputs": [
        {
          "internalType": "address",
          "name": "",
          "type": "address"
        }
      ],
      "stateMutability": "view",
      "type": "function"
    },
    {
      "inputs": [],
      "name": "rewardsDuration",
      "outputs": [
        {
          "internalType": "uint256",
          "name": "",
          "type": "uint256"
        }
      ],
      "stateMutability": "view",
      "type": "function"
    },
    {
      "inputs": [],
      "name": "rewardsPerToken",
      "outputs": [
        {
          "internalType": "uint256[]",
          "name": "newRewardsPerTokenStored",
          "type": "uint256[]"
        }
      ],
      "stateMutability": "view",
      "type": "function"
    },
    {
      "inputs": [
        {
          "internalType": "uint256[6]",
          "name": "_misc_vars",
          "type": "uint256[6]"
        }
      ],
      "name": "setMiscVariables",
      "outputs": [],
      "stateMutability": "nonpayable",
      "type": "function"
    },
    {
      "inputs": [
        {
          "internalType": "bool",
          "name": "_stakingPaused",
          "type": "bool"
        },
        {
          "internalType": "bool",
          "name": "_withdrawalsPaused",
          "type": "bool"
        },
        {
          "internalType": "bool",
          "name": "_rewardsCollectionPaused",
          "type": "bool"
        }
      ],
      "name": "setPauses",
      "outputs": [],
      "stateMutability": "nonpayable",
      "type": "function"
    },
    {
      "inputs": [
        {
          "internalType": "address",
          "name": "reward_token_address",
          "type": "address"
        },
        {
          "internalType": "uint256",
          "name": "_new_rate",
          "type": "uint256"
        },
        {
          "internalType": "address",
          "name": "_gauge_controller_address",
          "type": "address"
        },
        {
          "internalType": "address",
          "name": "_rewards_distributor_address",
          "type": "address"
        }
      ],
      "name": "setRewardVars",
      "outputs": [],
      "stateMutability": "nonpayable",
      "type": "function"
    },
    {
      "inputs": [
        {
          "internalType": "uint256",
          "name": "liquidity",
          "type": "uint256"
        },
        {
          "internalType": "uint256",
          "name": "secs",
          "type": "uint256"
        }
      ],
      "name": "stakeLocked",
      "outputs": [
        {
          "internalType": "bytes32",
          "name": "",
          "type": "bytes32"
        }
      ],
      "stateMutability": "nonpayable",
      "type": "function"
    },
    {
      "inputs": [
        {
          "internalType": "address",
          "name": "proxy_address",
          "type": "address"
        }
      ],
      "name": "stakerSetVeFXSProxy",
      "outputs": [],
      "stateMutability": "nonpayable",
      "type": "function"
    },
    {
      "inputs": [
        {
          "internalType": "address",
          "name": "",
          "type": "address"
        }
      ],
      "name": "staker_designated_proxies",
      "outputs": [
        {
          "internalType": "address",
          "name": "",
          "type": "address"
        }
      ],
      "stateMutability": "view",
      "type": "function"
    },
    {
      "inputs": [],
      "name": "stakesUnlocked",
      "outputs": [
        {
          "internalType": "bool",
          "name": "",
          "type": "bool"
        }
      ],
      "stateMutability": "view",
      "type": "function"
    },
    {
      "inputs": [],
      "name": "stakingToken",
      "outputs": [
        {
          "internalType": "contract IFraxswapPair",
          "name": "",
          "type": "address"
        }
      ],
      "stateMutability": "view",
      "type": "function"
    },
    {
      "inputs": [],
      "name": "sync",
      "outputs": [],
      "stateMutability": "nonpayable",
      "type": "function"
    },
    {
      "inputs": [
        {
          "internalType": "bool",
          "name": "force_update",
          "type": "bool"
        }
      ],
      "name": "sync_gauge_weights",
      "outputs": [],
      "stateMutability": "nonpayable",
      "type": "function"
    },
    {
      "inputs": [
        {
          "internalType": "address",
          "name": "_proxy_addr",
          "type": "address"
        }
      ],
      "name": "toggleValidVeFXSProxy",
      "outputs": [],
      "stateMutability": "nonpayable",
      "type": "function"
    },
    {
      "inputs": [],
      "name": "totalCombinedWeight",
      "outputs": [
        {
          "internalType": "uint256",
          "name": "",
          "type": "uint256"
        }
      ],
      "stateMutability": "view",
      "type": "function"
    },
    {
      "inputs": [],
      "name": "totalLiquidityLocked",
      "outputs": [
        {
          "internalType": "uint256",
          "name": "",
          "type": "uint256"
        }
      ],
      "stateMutability": "view",
      "type": "function"
    },
    {
      "inputs": [],
      "name": "unlockStakes",
      "outputs": [],
      "stateMutability": "nonpayable",
      "type": "function"
    },
    {
      "inputs": [
        {
          "internalType": "address",
          "name": "account",
          "type": "address"
        },
        {
          "internalType": "bool",
          "name": "sync_too",
          "type": "bool"
        }
      ],
      "name": "updateRewardAndBalance",
      "outputs": [],
      "stateMutability": "nonpayable",
      "type": "function"
    },
    {
      "inputs": [
        {
          "internalType": "address",
          "name": "account",
          "type": "address"
        }
      ],
      "name": "userStakedFrax",
      "outputs": [
        {
          "internalType": "uint256",
          "name": "",
          "type": "uint256"
        }
      ],
      "stateMutability": "view",
      "type": "function"
    },
    {
      "inputs": [
        {
          "internalType": "address",
          "name": "account",
          "type": "address"
        }
      ],
      "name": "veFXSMultiplier",
      "outputs": [
        {
          "internalType": "uint256",
          "name": "vefxs_multiplier",
          "type": "uint256"
        }
      ],
      "stateMutability": "view",
      "type": "function"
    },
    {
      "inputs": [],
      "name": "vefxs_boost_scale_factor",
      "outputs": [
        {
          "internalType": "uint256",
          "name": "",
          "type": "uint256"
        }
      ],
      "stateMutability": "view",
      "type": "function"
    },
    {
      "inputs": [],
      "name": "vefxs_max_multiplier",
      "outputs": [
        {
          "internalType": "uint256",
          "name": "",
          "type": "uint256"
        }
      ],
      "stateMutability": "view",
      "type": "function"
    },
    {
      "inputs": [],
      "name": "vefxs_per_frax_for_max_boost",
      "outputs": [
        {
          "internalType": "uint256",
          "name": "",
          "type": "uint256"
        }
      ],
      "stateMutability": "view",
      "type": "function"
    },
    {
      "inputs": [
        {
          "internalType": "bytes32",
          "name": "kek_id",
          "type": "bytes32"
        },
        {
          "internalType": "address",
          "name": "destination_address",
          "type": "address"
        }
      ],
      "name": "withdrawLocked",
      "outputs": [
        {
          "internalType": "uint256",
          "name": "",
          "type": "uint256"
        }
      ],
      "stateMutability": "nonpayable",
      "type": "function"
    }
  ],
  "bytecode": {
    "object": "0x610100604052346200007d575b620000276200001a620003a7565b959490949391936200043a565b6040516154f562000c758239608051818181613c770152613e0c015260a05181505060c051818181610de801528181611dc30152818161265e01528181612fb901526133e0015260e05181611e5901526154f590f35b62000086600080fd5b6200000c565b600080fd5b50634e487b7160e01b600052604160045260246000fd5b90601f01601f191681019081106001600160401b03821117620000ca57604052565b620000d462000091565b604052565b90620000f0620000e860405190565b9283620000a8565b565b6001600160a01b031690565b90565b6001600160a01b0381165b036200008c57565b90505190620000f08262000101565b60209081906001600160401b0381116200013c57020190565b6200014662000091565b020190565b90929192620001646200015e8262000123565b620000d9565b9381855260208086019202830192818411620001a7575b915b8383106200018b5750505050565b602080916200019b848662000114565b8152019201916200017d565b620001b0600080fd5b6200017b565b90620000fe9181601f82011215620001d5575b6020815191016200014b565b620001de600080fd5b620001c9565b806200010c565b90505190620000f082620001e4565b909291926200020d6200015e8262000123565b938185526020808601920283019281841162000250575b915b838310620002345750505050565b60208091620002448486620001eb565b81520192019162000226565b62000259600080fd5b62000224565b90620000fe9181601f820112156200027e575b602081519101620001fa565b62000287600080fd5b62000272565b60e08183031262000398575b620002a5828262000114565b92620002c783602084015160018060401b03811162000389575b8401620001b6565b92620002e981604085015160018060401b0381116200036b575b8501620001b6565b926200030b82606083015160018060401b0381116200037a575b83016200025f565b92620000fe6200033084608085015160018060401b0381116200036b578501620001b6565b93620003528160a086015160018060401b0381116200035c575b8601620001b6565b9360c00162000114565b62000365600080fd5b6200034a565b62000374600080fd5b620002e1565b62000383600080fd5b62000303565b62000392600080fd5b620002bf565b620003a1600080fd5b62000299565b620003ca6200616a80380380620003be81620000d9565b9283398101906200028d565b90919293949596565b620000fe90620000f2906001600160a01b031682565b620000fe90620003d3565b620000fe90620003e9565b516001600160a01b031690565b90620000fe9160208183031215620001145762000427600080fd5b62000114565b506040513d6000823e3d90fd5b9162000455969593916200044f959362000945565b620003f4565b8060c05250620004906020620004776200044f60c0516001600160a01b031690565b630dfe1681906200048760405190565b93849260e01b90565b825260049082905afa9081156200050f575b600091620004da575b50620004d4620004c7620000f260a0516001600160a01b031690565b916001600160a01b031690565b1460e052565b62000500915060203d811162000507575b620004f78183620000a8565b8101906200040c565b38620004ab565b503d620004eb565b620005196200042d565b620004a2565b620000fe620000fe620000fe9290565b90600019905b9181191691161790565b9062000553620000fe6200055b926200051f565b82546200052f565b9055565b50634e487b7160e01b600052601160045260246000fd5b620000f06200055f565b9160001960089290920291821b911b62000535565b9190620005aa620000fe6200055b936200051f565b90835462000580565b620000f09160009162000595565b818110620005cd575050565b80620005dd6000600193620005b3565b01620005c1565b9091828110620005f357505050565b620000f092906200060b905b92600052602060002090565b9081019101620005c1565b90620000f0916801000000000000000082116200063a575b805490828155620005e4565b6200064462000091565b6200062e565b60016200067e620005ff6200065d855190565b94838060401b038611620006bb575b62000678868662000616565b60200190565b92049160005b838110620006925750505050565b6001906020620006ad620000fe86516001600160a01b031690565b940193818401550162000684565b620006c562000091565b6200066c565b90620000f0916200064a565b818110620006e3575050565b80620006f36000600193620005b3565b01620006d7565b90918281106200070957505050565b620000f092906200071a90620005ff565b9081019101620006d7565b90620000f09168010000000000000000821162000749575b805490828155620006fa565b6200075362000091565b6200073d565b600162000787620005ff6200076c855190565b94838060401b038611620007bb575b62000678868662000725565b92049160005b8381106200079b5750505050565b6001906020620007ad620000fe865190565b94019381840155016200078d565b620007c562000091565b6200077b565b90620000f09162000759565b6001906000198114620007e8570190565b620007f26200055f565b0190565b50634e487b7160e01b600052603260045260246000fd5b90602080916200081b845190565b8110156200082a575b02010190565b62000834620007f6565b62000824565b906200084690620003f4565b600052602052604060002090565b6200087760019162000864815490565b8410156200088057600052602060002090565b91020190600090565b6200088a620007f6565b600052602060002090565b90620008c1620000f09280549068010000000000000000821015620008c8575b60018201815562000854565b9062000595565b620008d262000091565b620008b5565b906001600160a01b039062000535565b90620008fc620000fe6200055b92620003f4565b8254620008d8565b9060ff9062000535565b9062000921620000fe6200055b92151590565b825462000904565b620000fe62093a806200051f565b919082018092116200057657565b9462000a3062000a409493956200096262000a3894999862000bcb565b6200098173c8418af6358ffdda74e09ca9cc3fe03ca6adc5b0620003f4565b60805273853d955acef822db058eb8505911ed77f175b99e60a05262000a1b671bc16d674ec80000620009b4816200051f565b620009c18160066200053f565b620009d26301e1338060076200053f565b620009e26209105060086200053f565b62000a12673782dace9d90000091620009fb836200051f565b9362000a098560096200053f565b50600a6200053f565b50600b6200053f565b62000a28896010620006cb565b6011620006cb565b6012620006cb565b6013620007cb565b600062000a4d816200051f565b925b62000a5c620000fe865190565b84101562000b035762000a8c8462000a86601462000a7f620003ff848b6200080d565b906200083a565b6200053f565b62000af0601562000aa962000aa1856200051f565b809262000895565b62000ab9620003ff87876200080d565b62000ada8162000ad4600f62000a7f620003ff8c8e6200080d565b620008e8565b5062000ae881601962000895565b601a62000895565b62000afb84620007d7565b935062000a4f565b935091505062000b158160216200090e565b5062000b394262000b288160056200053f565b62000b3262000929565b9062000937565b62000b468160046200053f565b50565b620000f2620000fe620000fe9290565b620000fe9062000b49565b1562000b6c57565b60405162461bcd60e51b815260206004820152601960248201527f4f776e657220616464726573732063616e6e6f742062652030000000000000006044820152606490fd5b6001600160a01b0391821681529116602082015260400190565b62000bd562000c5d565b60009062000be38262000b59565b9162000c046001600160a01b0384166001600160a01b038416141562000b64565b62000c11826001620008e8565b507fb532073b38c83145e3e5135377a08bf9aab55bc0fd7c1179cd4fb995d2a5159c9162000c4c62000c4260405190565b9283928362000bb1565b0390a1565b620000fe60016200051f565b62000c6762000c51565b62000b468160006200053f56fe60806040526004361015610018575b610016600080fd5b005b60003560e01c80628cc262146105535780630d7bac4f1461054a57806312edb24c146105415780631627540c1461053857806317b18c891461052f5780631c1f78eb146105265780631e090f011461051d5780631face85614610514578063231b68dc1461050b5780632521cdd81461050257806328408bab146104f95780632c0c2a0a146104f057806336f89af2146104e7578063386a9525146104de578063387edc86146104d557806341a16f3f146104cc5780634fd2b536146104c357806353a47bb7146104ba57806355189773146104b15780635bfd9258146104a857806364f2c0601461049f57806369339245146104965780636c430dbb1461048d5780636e27cef91461048457806370641a361461047b57806372f702f314610472578063774d4ae7146104695780637910d17b146104605780637970833e1461045757806379ba50971461044e5780637bb7bed1146104455780637d6ef08e1461043c5780637f472e54146104335780638980f11f1461042a5780638bad86a7146104215780638da5cb5b1461041857806391cf600a1461040f5780639637927f14610406578063a0f23476146103fd578063aa1d4fce146103f4578063b85efd06146103eb578063b94c4dcb146103e2578063c00007b0146103d9578063c3543826146103d0578063c8f33c91146103c7578063ca6df29d146103be578063cc2abd64146103b5578063cdc82e80146103ac578063d2010fb4146103a3578063d2fbdc0d1461039a578063d42fc9b414610391578063d5e1a9c614610388578063d6626e0d1461037f578063d7400d5614610376578063d9f96e8d1461036d578063de1a655114610364578063e01f62bf1461035b578063e1ba95d214610352578063e44b9fa514610349578063e7f3058214610340578063ebe2b12b14610337578063f288baf61461032e578063f2a8d34914610325578063f2caeb1e1461031c578063f77e34d114610313578063facefb641461030a5763fff6cae90361000e5761030561193c565b61000e565b50610305611915565b50610305611775565b5061030561172e565b50610305611704565b506103056116ce565b50610305611698565b50610305611665565b5061030561163a565b506103056115eb565b506103056115c1565b50610305611599565b5061030561156f565b50610305611548565b5061030561151e565b506103056114f3565b5061030561147f565b50610305611457565b5061030561142d565b506103056113f7565b506103056113c3565b5061030561135b565b50610305611331565b506103056112fb565b506103056112d1565b506103056112a7565b50610305611273565b50610305611249565b50610305611213565b506103056111e9565b5061030561119c565b50610305611172565b5061030561112d565b506103056110e7565b506103056110bd565b50610305611093565b50610305611057565b50610305610ff8565b50610305610fb7565b50610305610e6d565b50610305610e42565b50610305610dcd565b50610305610d8a565b50610305610d60565b50610305610d2a565b50610305610cee565b50610305610c97565b50610305610c6d565b50610305610c45565b50610305610bd5565b50610305610b9f565b50610305610b75565b50610305610b3c565b50610305610b12565b50610305610ac7565b50610305610a9d565b50610305610a4b565b506103056109a4565b50610305610967565b5061030561090c565b506103056108d6565b50610305610811565b506103056107e6565b50610305610789565b50610305610753565b506103056106a1565b50610305610637565b600080fd5b73ffffffffffffffffffffffffffffffffffffffff1690565b90565b73ffffffffffffffffffffffffffffffffffffffff81165b0361055c57565b905035906105a98261057d565b565b9061057a916020818303121561059c576105c3600080fd5b61059c565b9052565b0190565b906105f06105e96105df845190565b8084529260200190565b9260200190565b9060005b8181106106015750505090565b90919261061e6106176001928651815260200190565b9460200190565b9291016105f4565b602080825261057a929101906105d0565b5034610664575b61066061065461064f3660046105ab565b613a2e565b60405191829182610626565b0390f35b61066c600080fd5b61063e565b80610595565b905035906105a982610671565b9061057a91602081830312156106775761069c600080fd5b610677565b50346106ce575b6106606106be6106b9366004610684565b613be4565b6040519182918290815260200190565b6106d6600080fd5b6106a8565b60009103126106e657565b6105a9600080fd5b906106fd6105e96105df845190565b9060005b81811061070e5750505090565b90919261073a610617600192865173ffffffffffffffffffffffffffffffffffffffff16815260200190565b929101610701565b602080825261057a929101906106ee565b503461077c575b6107653660046106db565b610660610770613733565b60405191829182610742565b610784600080fd5b61075a565b50346107a8575b6107a361079e3660046105ab565b611abe565b604051005b6107b0600080fd5b610790565b919061057a906040848203126107d9575b6107d08185610677565b93602001610677565b6107e1600080fd5b6107c6565b5034610804575b6106606106be6107fe3660046107b5565b90612e2e565b61080c600080fd5b6107ed565b503461082e575b6108233660046106db565b610660610654613b2f565b610836600080fd5b610818565b805182526105a99190608090819061085860208201516020860152565b61086760408201516040860152565b61087660608201516060860152565b0151910152565b906105cc8160a09361083b565b906108996105e96105df845190565b9060005b8181106108aa5750505090565b9091926108bd610617600192865161087d565b92910161089d565b602080825261057a9291019061088a565b50346108ff575b6106606108f36108ee3660046105ab565b612392565b604051918291826108c5565b610907600080fd5b6108dd565b5034610929575b6106606106be6109243660046105ab565b613c35565b610931600080fd5b610913565b919061057a9060408482031261095a575b610951818561059c565b9360200161059c565b610962600080fd5b610947565b5034610997575b61066061098561097f366004610936565b9061361e565b60405191829182901515815260200190565b61099f600080fd5b61096e565b50346109c2575b6109b63660046106db565b6106606106be60105490565b6109ca600080fd5b6109ab565b61056161057a61057a9273ffffffffffffffffffffffffffffffffffffffff1690565b61057a906109cf565b61057a906109f2565b90610a0e906109fb565b600052602052604060002090565b61057a916008021c610561565b9061057a9154610a1c565b61057a90610a46602091600092610a04565b610a29565b5034610a90575b610660610a68610a633660046105ab565b610a34565b6040515b9182918273ffffffffffffffffffffffffffffffffffffffff909116815260200190565b610a98600080fd5b610a52565b5034610aba575b6106606106be610ab53660046105ab565b613da9565b610ac2600080fd5b610aa4565b5034610ae4575b6106606106be610adf3660046105ab565b613bcd565b610aec600080fd5b610ace565b61057a61057a61057a9290565b61057a62093a80610af1565b61057a610afe565b5034610b2f575b610b243660046106db565b6106606106be610b0a565b610b37600080fd5b610b19565b5034610b56575b6107a3610b513660046105ab565b6144ad565b610b5e600080fd5b610b43565b61057a90610a46600f91600092610a04565b5034610b92575b610660610a68610b8d3660046105ab565b610b63565b610b9a600080fd5b610b7c565b5034610bbc575b6106606106be610bb73660046105ab565b613d46565b610bc4600080fd5b610ba6565b61057a60006002610a29565b5034610bf2575b610be73660046106db565b610660610a68610bc9565b610bfa600080fd5b610bdc565b801515610595565b905035906105a982610bff565b919061057a90604084820312610c38575b610c2f818561059c565b93602001610c07565b610c40600080fd5b610c25565b5034610c60575b6107a3610c5a366004610c14565b90614215565b610c68600080fd5b610c4c565b5034610c8a575b610c7f3660046106db565b6106606106be611dbb565b610c92600080fd5b610c74565b5034610cb4575b610ca93660046106db565b6106606106be613bc3565b610cbc600080fd5b610c9e565b61057a916008021c81565b9061057a9154610cc1565b61057a90610ce9601491600092610a04565b610ccc565b5034610d0b575b6106606106be610d063660046105ab565b610cd7565b610d13600080fd5b610cf5565b61057a90610ce9601891600092610a04565b5034610d47575b6106606106be610d423660046105ab565b610d18565b610d4f600080fd5b610d31565b61057a60006008610ccc565b5034610d7d575b610d723660046106db565b6106606106be610d54565b610d85600080fd5b610d67565b5034610da7575b610d9c3660046106db565b61066061065461391c565b610daf600080fd5b610d91565b6105c8906109fb565b6020810192916105a99190610db4565b5034610e0d575b610ddf3660046106db565b604051806106607f000000000000000000000000000000000000000000000000000000000000000082610dbd565b610e15600080fd5b610dd4565b919061057a90604084820312610e35575b6107d0818561059c565b610e3d600080fd5b610e2b565b5034610e60575b6106606106be610e5a366004610e1a565b90611ff9565b610e68600080fd5b610e49565b5034610e8b575b610660610654610e85366004610c14565b90614528565b610e93600080fd5b610e74565b507f4e487b7100000000000000000000000000000000000000000000000000000000600052603260045260246000fd5b610ee8600591610ed6815490565b841015610ef157600052602060002090565b91020190600090565b610ef9610e98565b600052602060002090565b61057a9081565b61057a9054610f04565b9190610f25602293600094610a04565b8054821015610f7657610f39929350610ec8565b50610f4381610f0b565b91610f5060018301610f0b565b91610f5d60028201610f0b565b9161057a6004610f6f60038501610f0b565b9301610f0b565b8380fd5b909594926105a994610fac610fb392610fa5608096610f9e60a088019c6000890152565b6020870152565b6040850152565b6060830152565b0152565b5034610feb575b610660610fd5610fcf366004610e1a565b90610f15565b91610fe295939560405190565b95869586610f7a565b610ff3600080fd5b610fbe565b5034611012575b61100a3660046106db565b6107a3611bad565b61101a600080fd5b610fff565b610ee8600191610ed6815490565b60106000611039825490565b831015611054575061057a9161104e9161101f565b90610a29565b80fd5b5034611074575b610660610a6861106f366004610684565b61102d565b61107c600080fd5b61105e565b61057a90610ce9601f91600092610a04565b50346110b0575b6106606106be6110ab3660046105ab565b611081565b6110b8600080fd5b61109a565b50346110da575b6106606106be6110d53660046105ab565b613d68565b6110e2600080fd5b6110c4565b5034611102575b6107a36110fc366004610e1a565b90615094565b61110a600080fd5b6110ee565b9081526060810193926105a9929091604091610fb3905b6020830152565b5034611159575b61066061114a6111453660046105ab565b6121b2565b6040519193919384938461110f565b611161600080fd5b611134565b61057a60006001610a29565b503461118f575b6111843660046106db565b610660610a68611166565b611197600080fd5b611179565b50346111b6575b6107a36111b13660046105ab565b614e93565b6111be600080fd5b6111a3565b61057a916008021c5b60ff1690565b9061057a91546111c3565b61057a600060216111d2565b5034611206575b6111fb3660046106db565b6106606109856111dd565b61120e600080fd5b6111f0565b5034611230575b6106606106be61122b3660046105ab565b613c5d565b611238600080fd5b61121a565b61057a60006009610ccc565b5034611266575b61125b3660046106db565b6106606106be61123d565b61126e600080fd5b611250565b503461128e575b6107a36112883660046107b5565b906127b6565b611296600080fd5b61127a565b61057a60006007610ccc565b50346112c4575b6112b93660046106db565b6106606106be61129b565b6112cc600080fd5b6112ae565b50346112ee575b6106606106546112e93660046105ab565b6144ea565b6112f6600080fd5b6112d8565b5034611318575b610660610a686113133660046105ab565b613d80565b611320600080fd5b611302565b61057a60006005610ccc565b503461134e575b6113433660046106db565b6106606106be611325565b611356600080fd5b611338565b5034611378575b6106606106be6113733660046105ab565b6123ae565b611380600080fd5b611362565b90916060828403126113b6575b61057a61139f8484610c07565b936113ad8160208601610c07565b93604001610c07565b6113be600080fd5b611392565b50346113de575b6107a36113d8366004611385565b91614e27565b6113e6600080fd5b6113ca565b61057a60006006610ccc565b5034611414575b6114093660046106db565b6106606106be6113eb565b61141c600080fd5b6113fe565b61057a60006003610ccc565b503461144a575b61143f3660046106db565b6106606106be611421565b611452600080fd5b611434565b5034611472575b6107a361146c3660046107b5565b90612de1565b61147a600080fd5b61145e565b503461149c575b6106606106be6114973660046105ab565b613c0d565b6114a4600080fd5b611486565b6080818303126114e6575b6114be828261059c565b9261057a6114cf8460208501610677565b936114dd816040860161059c565b9360600161059c565b6114ee600080fd5b6114b4565b5034611511575b6107a36115083660046114a9565b92919091615483565b611519600080fd5b6114fa565b503461153b575b610660610a68611536366004610684565b61373d565b611543600080fd5b611525565b5034611562575b6107a361155d3660046105ab565b61415d565b61156a600080fd5b61154f565b503461158c575b6106606106be6115873660046105ab565b613bac565b611594600080fd5b611576565b50346115b4575b6107a36115ae366004610936565b906154b5565b6115bc600080fd5b6115a0565b50346115de575b6115d33660046106db565b6106606106be613ba2565b6115e6600080fd5b6115c8565b5034611605575b6115fd3660046106db565b6107a3614e5e565b61160d600080fd5b6115f2565b919061057a9060408482031261162d575b6109518185610677565b611635600080fd5b611623565b5034611658575b6106606106be611652366004611612565b90613261565b611660600080fd5b611641565b503461167f575b6107a361167a3660046105ab565b614036565b611687600080fd5b61166c565b61057a60006004610ccc565b50346116b5575b6116aa3660046106db565b6106606106be61168c565b6116bd600080fd5b61169f565b61057a6000600a610ccc565b50346116eb575b6116e03660046106db565b6106606106be6116c2565b6116f3600080fd5b6116d5565b61057a6000600b610ccc565b5034611721575b6117163660046106db565b6106606106be6116f8565b611729600080fd5b61170b565b503461174b575b6106606106be611746366004610684565b613754565b611753600080fd5b611735565b9061057a9160208183031215610c0757611770600080fd5b610c07565b503461178f575b6107a361178a366004611758565b6146d1565b611797600080fd5b61177c565b601f017fffffffffffffffffffffffffffffffffffffffffffffffffffffffffffffffe01690565b507f4e487b7100000000000000000000000000000000000000000000000000000000600052604160045260246000fd5b90601f017fffffffffffffffffffffffffffffffffffffffffffffffffffffffffffffffe016810190811067ffffffffffffffff82111761183457604052565b61183c6117c4565b604052565b906105a961184e60405190565b92836117f4565b60209067ffffffffffffffff811161186b570290565b6118736117c4565b0290565b9092919261188c61188782611855565b611841565b9360208592028301928184116118c5575b915b8383106118ac5750505050565b602080916118ba8486610677565b81520192019161189f565b6118cd600080fd5b61189d565b9061057a9181601f820112156118eb575b600690611877565b6118f3600080fd5b6118e3565b9061057a9160c081830312156118d257611910600080fd5b6118d2565b503461192f575b6107a361192a3660046118f8565b6153c6565b611937600080fd5b61191c565b5034611956575b61194e3660046106db565b6107a361487d565b61195e600080fd5b611943565b61057a90610561565b61057a9054611963565b1561197d57565b6040517f08c379a000000000000000000000000000000000000000000000000000000000815260206004820152602f60248201527f4f6e6c792074686520636f6e7472616374206f776e6572206d6179207065726660448201527f6f726d207468697320616374696f6e00000000000000000000000000000000006064820152608490fd5b0390fd5b6105a990611a3e33611a38611a1e610561600161196c565b9173ffffffffffffffffffffffffffffffffffffffff1690565b14611976565b611a80565b9073ffffffffffffffffffffffffffffffffffffffff905b9181191691161790565b90611a7561057a611a7c926109fb565b8254611a43565b9055565b611a8b816002611a65565b611ab97f906a1c6bd7e3091ea86693dd029a831c19049ce77f1dce2ce0bab1cacbabce2291610a6c60405190565b0390a1565b6105a990611a06565b15611ace57565b6040517f08c379a000000000000000000000000000000000000000000000000000000000815260206004820152603560248201527f596f75206d757374206265206e6f6d696e61746564206265666f726520796f7560448201527f2063616e20616363657074206f776e65727368697000000000000000000000006064820152608490fd5b73ffffffffffffffffffffffffffffffffffffffff90911681526040810192916105a9916020905b019073ffffffffffffffffffffffffffffffffffffffff169052565b61056161057a61057a9290565b61057a90611b97565b611bc733611bc1611a1e610561600261196c565b14611ac7565b611bd1600161196c565b611bdb600261196c565b7fb532073b38c83145e3e5135377a08bf9aab55bc0fd7c1179cd4fb995d2a5159c91611c12611c0960405190565b92839283611b53565b0390a1611c1f600261196c565b611c2a816001611a65565b50611c356000611ba4565b611c40816002611a65565b50565b6dffffffffffffffffffffffffffff8116610595565b905051906105a982611c43565b905051906105a982610671565b919060a083820312611cc0575b611c8a8184611c59565b92611c988260208301611c59565b9261057a611ca98460408501611c66565b93611cb78160608601611c59565b93608001611c59565b611cc8600080fd5b611c80565b506040513d6000823e3d90fd5b61057a61057a61057a926dffffffffffffffffffffffffffff1690565b507f4e487b7100000000000000000000000000000000000000000000000000000000600052601160045260246000fd5b9190611d32565b9290565b91808302928184041490151715611d4557565b6105a9611cf7565b9061057a9160208183031215611c6657611d65600080fd5b611c66565b507f4e487b7100000000000000000000000000000000000000000000000000000000600052601260045260246000fd5b90611da4565b9190565b908115611daf570490565b611db7611d6a565b0490565b61057a611eb07f00000000000000000000000000000000000000000000000000000000000000006020611ded826109fb565b611e9663bcaa64ea60a0611e134292611e21611e0860405190565b948593849360e01b90565b835260048301526024820190565b0381865afa8015611f4e575b6000808080809294919091611f13575b50929350611e579250611e51919050611cda565b91611cda565b7f000000000000000000000000000000000000000000000000000000000000000015611f0c57505b611e90670de0b6b3a7640000610af1565b90611d27565b92506318160ddd90611ea760405190565b94859260e01b90565b825260049082905afa918215611eff575b600092611ecf575b50611d9a565b611ef191925060203d8111611ef8575b611ee981836117f4565b810190611d4d565b9038611ec9565b503d611edf565b611f07611ccd565b611ec1565b9050611e7f565b5050505050611e57611f3e611e519260a03d8111611f47575b611f3681836117f4565b810190611c73565b92945090611e3d565b503d611f2c565b611f56611ccd565b611e2d565b61057a60a0611841565b906105a9611fcf6004611f76611f5b565b94611f87611f8382610f0b565b8752565b611f9d611f9660018301610f0b565b6020880152565b611fb3611fac60028301610f0b565b6040880152565b611fc9611fc260038301610f0b565b6060880152565b01610f0b565b6080840152565b61057a90611f65565b91908203918211611d4557565b91908201809211611d4557565b90919061201b612015600094612010846022610a04565b610ec8565b50611fd6565b9260189061203161202c8484610a04565b610f0b565b6020860190612044611da061057a845190565b10156121575751925b606086019261205a845190565b429390841061212557506120719161202c91610a04565b61207f611da061057a855190565b1015612112576120ae6120ea916120a86120a36120f09661209e875190565b611fdf565b945190565b90611fdf565b6120e46120d0846120cb6106b96120c56002610af1565b83611d9a565b611d27565b6120de836120cb6000610af1565b90611fec565b92611fec565b90611d9a565b915b608081019061210261057a835190565b841161210c575050565b50519150565b50505061211f6000610af1565b916120f2565b6106b99492506120de91509261209e61214861211f9761214d965061209e865190565b935190565b6120ea6002610af1565b5061216561202c8484610a04565b9261204d565b6001907fffffffffffffffffffffffffffffffffffffffffffffffffffffffffffffffff8114612199570190565b6105cc611cf7565b61057a670de0b6b3a7640000610af1565b600090601e906121c561202c8284610a04565b936121cf82613da9565b948594506121e161202c84601d610a04565b93836000956121f2611da088610af1565b1491826122da575b505080156122c1575b156122a1579392935b61221585610af1565b9450845b602261222f61057a61222b8784610a04565b5490565b87101561229757906120de856120de61227d6122778c612271604061226b8f612265612015826120106122859f808e9150610a04565b98611ff9565b96015190565b94611fec565b83611d27565b6120ea6121a1565b9361228f8661216b565b955093612219565b5093945094509050565b946122b89061214d906120de61202c86600c610a04565b9493929361220c565b506122d361057a61202c85600c610a04565b8611612203565b6122e9925061202c9190610a04565b6122f5611da086610af1565b1483386121fa565b6020809167ffffffffffffffff811161231557020190565b61231d6117c4565b020190565b9061232f611887836122fd565b918252565b9061233d825490565b61234681612322565b9261235a6020850191600052602060002090565b6000915b83831061236b5750505050565b6005602060019261237b85611fd6565b81520192019201919061235e565b61057a90612334565b6123a961057a916123a1606090565b506022610a04565b612389565b61222b61057a916123a1600090565b61057a6002610af1565b156123ce57565b6040517f08c379a000000000000000000000000000000000000000000000000000000000815260206004820152601f60248201527f5265656e7472616e637947756172643a207265656e7472616e742063616c6c006044820152606490fd5b907fffffffffffffffffffffffffffffffffffffffffffffffffffffffffffffffff90611a5b565b9061246561057a611a7c92610af1565b825461242d565b61057a6001610af1565b906124aa916124856000610f0b565b6124996124906123bd565b918214156123c7565b6124a4816000612455565b506124bd565b6124b261246c565b611c40816000612455565b6105a991906124cd600133614215565b612604565b156124d957565b6040517f08c379a000000000000000000000000000000000000000000000000000000000815260206004820152601060248201527f4d75737420626520706f736974697665000000000000000000000000000000006044820152606490fd5b507f4e487b7100000000000000000000000000000000000000000000000000000000600052600060045260246000fd5b9061246561057a611a7c9290565b6105a991906125a99060809060049061259781612591875190565b90612568565b6125af600182016125a9602088015190565b90612455565b6125c1600282016125a9604088015190565b6125d3600382016125a9606088015190565b0192015190565b6105a9929115612576576125ec612538565b612576565b9081526040810192916105a99160200152565b90339061275d6126596126516126f06126e86126d66126dd89612627818b612aaa565b9390611fc28c6126928d61264581612640604088015190565b611fec565b9260009d8e9d8e610af1565b8310156124d2565b6126827f00000000000000000000000000000000000000000000000000000000000000006109fb565b9061268c306109fb565b91612969565b6126cf6126a0602085015190565b6126c86126b960806126b3606089015190565b97015190565b976126c2611f5b565b9d8e0152565b60208c0152565b60408a0152565b6080860152565b612010886022610a04565b8193916125da565b5061270961270284612640601b610f0b565b601b612455565b61272461271785601d610a04565b6125a98561264083610f0b565b61272d84613d80565b61273961056183611ba4565b73ffffffffffffffffffffffffffffffffffffffff8216036127a2575b5083614215565b6127877f2640b32e7e5d0fa2a21ea06b22fbd75fda0fda384a895a5fdeef43646de47a0c926109fb565b9261279d61279460405190565b928392836125f1565b0390a2565b6127176127b091601f610a04565b38612756565b906105a991612476565b6127d36127cd61057a9290565b60e01b90565b7fffffffff000000000000000000000000000000000000000000000000000000001690565b73ffffffffffffffffffffffffffffffffffffffff90911681526060810193926105a9929091604091610fb3905b73ffffffffffffffffffffffffffffffffffffffff166020830152565b6105cc60209167ffffffffffffffff811161288057601f017fffffffffffffffffffffffffffffffffffffffffffffffffffffffffffffffe01690565b61179c6117c4565b9061232f61188783612843565b3d156128af576128a43d612888565b903d6000602084013e565b606090565b905051906105a982610bff565b9061057a91602081830312156128b4576128d9600080fd5b6128b4565b156128e557565b6040517f08c379a0000000000000000000000000000000000000000000000000000000008152602060048201526024808201527f5472616e7366657248656c7065723a205452414e534645525f46524f4d5f464160448201527f494c4544000000000000000000000000000000000000000000000000000000006064820152608490fd5b60046129b1600094936129a26105a99787966129886323b872dd6127c0565b9361299260405190565b96879560208701908152016127f8565b602082018103825203826117f4565b82602082019151925af16129c3612895565b816129cf575b506128de565b80519091506129e1611da06000610af1565b149081156129f1575b50386129c9565b612a0b91506020612a00825190565b8183010191016128c1565b386129ea565b612a19611f5b565b906000825260208080808086016000815201600081520160008152016000905250565b61057a612a11565b15612a4b57565b6040517f08c379a000000000000000000000000000000000000000000000000000000000815260206004820152600f60248201527f5374616b65206e6f7420666f756e6400000000000000000000000000000000006044820152606490fd5b91612ab3612a3c565b91600093600094612ac386610af1565b945b6022612ad761057a61222b8684610a04565b871015612b46578690612afc61057a8a612af5856120108a87610a04565b5001610f0b565b8614612b14575050612b0d8661216b565b9550612ac5565b612b409350611da09250612015611d2e926120106105a9989784612b389550610a04565b975b88015190565b14612a44565b5095612b409195506105a9939250611d2e611da091612b3a565b906124aa91612b6f6000610f0b565b612b7a6124906123bd565b612b85816000612455565b506105a99190612b96600133614215565b612c9b565b15612ba257565b6040517f08c379a000000000000000000000000000000000000000000000000000000000815260206004820152601560248201527f4d75737420626520696e207468652066757475726500000000000000000000006044820152606490fd5b15612c0857565b6040517f08c379a000000000000000000000000000000000000000000000000000000000815260206004820152601860248201527f43616e6e6f742073686f7274656e206c6f636b2074696d6500000000000000006044820152606490fd5b1561055c57565b610fb36105a994612c94606094989795612c8d608086019a6000870152565b6020850152565b6040830152565b90611da060409261279d33936126e8612d87612cb78588612aaa565b42998a9492612d7c91612d4991612ccf888a11612b9b565b612d0e6060820189612cdf825190565b600090821015612dd0575061209e612cf5925190565b612d08612d028b8d611fdf565b9e8f9290565b11612c01565b612d298c612d22611da061057a6008610f0b565b1015612c67565b612d448c612d3d611da061057a6007610f0b565b1115612c67565b015190565b612d71612d558b613be4565b91611fac612d61611f5b565b98612d6a8d8b52565b60208a0152565b6126d6876060880152565b612010896022610a04565b50612d93600086614215565b612dbd7fc2cf1aae6decacbc52f96b4e4fec96d4ebab5236e4ed987165537bc463014a43956109fb565b95612dc760405190565b94859485612c6e565b612ddc92509050610af1565b612cf5565b906105a991612b60565b90612e179291612dfb6000610f0b565b612e066124906123bd565b612e11816000612455565b50612e20565b906124b261246c565b5061057a9142913380613180565b61057a91906000612deb565b9061057a9594939291612e4e600183614215565b612f6c565b61057a9060181c6111cc565b61057a9054612e53565b15612e7057565b6040517f08c379a000000000000000000000000000000000000000000000000000000000815260206004820152600e60248201527f5374616b696e67207061757365640000000000000000000000000000000000006044820152606490fd5b6105c89073ffffffffffffffffffffffffffffffffffffffff1660601b90565b92612f0c60206105cc94612f0c601488612f0c859b9a8699612ecf565b01918252565b90612f3a6105a99280549068010000000000000000821015612f40575b600182018155610ec8565b906125da565b612f486117c4565b612f2f565b611b7b6105a994612c94606094989795612c8d608086019a6000870152565b5090929091612f7b6021612e5f565b600090612f889015612e69565b612f926008610f0b565b831015612f9e90612c67565b612fa86007610f0b565b831115612fb490612c67565b612fdd7f00000000000000000000000000000000000000000000000000000000000000006109fb565b82612fe7306109fb565b87612ff193612969565b612ffa83613be4565b601d906130078683610a04565b61301090610f0b565b6040518091602082019061302790888d8c85612eef565b90810382520361303790826117f4565b805190602001209761304a876022610a04565b916130558783611fec565b61305d611f5b565b926130688c88860152565b6020840152613078876040850152565b6060830152608082015261308b91612f12565b82613096601b610f0b565b906130a091611fec565b6130ab90601b612455565b846130b591610a04565b826130bf82610f0b565b906130c991611fec565b6130d291612455565b6130db84613d80565b906130e581611ba4565b73ffffffffffffffffffffffffffffffffffffffff1673ffffffffffffffffffffffffffffffffffffffff83161415916131259261316c575b5084614215565b6131666131527ff400e72e69ef4402819dfc57eeddc66f5eb69bf405e0e8098b1946ec1ac14a22946109fb565b948661315d60405190565b94859485612f4d565b0390a290565b61271761317a91601f610a04565b3861311e565b61057a94939291906000612e3a565b90612e17929161319f6000610f0b565b6131aa6124906123bd565b6131b5816000612455565b50613237565b61057a9060081c6111cc565b61057a90546131bb565b156131d857565b6040517f08c379a000000000000000000000000000000000000000000000000000000000815260206004820152601260248201527f5769746864726177616c732070617573656400000000000000000000000000006044820152606490fd5b5061057a9161325b61324960216131c7565b61325560005b91151590565b146131d1565b3361336a565b61057a9190600061318f565b61057a906111cc565b61057a905461326d565b91906008611a5b9102916132b37fffffffffffffffffffffffffffffffffffffffffffffffffffffffffffffffff841b90565b921b90565b91906132c761057a611a7c9390565b908354613280565b6105a9916000916132b8565b91906132c761057a611a7c93610af1565b6105a9916000916132db565b600060046105a99261330c838083016132cf565b61331983600183016132ec565b61332683600283016132ec565b61333383600383016132ec565b016132ec565b6105a991156132f85761334a612538565b6132f8565b9081526060810193926105a9929091604091611b7b90611126565b612d4492916133b1604060016133818185876146c4565b5061338c8686612aaa565b979091426133a1611da061057a606087015190565b10159081156134e1575b50612c67565b9360006133bd81610af1565b86116133cc575b505050505090565b61347961347361347f9361340989876134047f00000000000000000000000000000000000000000000000000000000000000006109fb565b613590565b61341a6127028a61209e601b610f0b565b61343561342888601d610a04565b6125a98b61209e83610f0b565b61343e87613d80565b61344a61056186611ba4565b73ffffffffffffffffffffffffffffffffffffffff8216036134cd575b50612010876022610a04565b90613339565b83614215565b6134a97f1d9308f6b22a2754a1c622bb30889e8f8f956c83e524d039e9d65d5f052eb908926109fb565b926134c06134b660405190565b928392878461334f565b0390a238808080806133c4565b6134286134db91601f610a04565b38613467565b90506134f961324f6134f36021613276565b92151590565b14386133ab565b73ffffffffffffffffffffffffffffffffffffffff90911681526040810192916105a99160200152565b1561353157565b6040517f08c379a000000000000000000000000000000000000000000000000000000000815260206004820152601f60248201527f5472616e7366657248656c7065723a205452414e534645525f4641494c4544006044820152606490fd5b6000919060046135c984936129a26105a9976135af63a9059cbb6127c0565b926135b960405190565b9586946020860190815201613500565b82602082019151925af16135db612895565b816135e7575b5061352a565b80519091506135f9611da06000610af1565b14908115613609575b50386135e1565b61361891506020612a00825190565b38613602565b9061362c610561600161196c565b73ffffffffffffffffffffffffffffffffffffffff83160361364f575050600190565b611a1e61366861366361368293600f610a04565b61196c565b9273ffffffffffffffffffffffffffffffffffffffff1690565b1461368c57600090565b600190565b906136ac6136a06105df845490565b92600052602060002090565b9060005b8181106136bd5750505090565b9091926136f76136f06001926136d28761196c565b73ffffffffffffffffffffffffffffffffffffffff16815260200190565b9460010190565b9291016136b0565b9061057a91613691565b906105a96137239261371a60405190565b938480926136ff565b03836117f4565b61057a90613709565b61057a601061372a565b61104e61057a9161374c600090565b50601061101f565b61376261104e82601161101f565b61376f6105616000611ba4565b73ffffffffffffffffffffffffffffffffffffffff82161461382d576137b961057a9260206137aa6137a5856137e796506109fb565b6109fb565b630a3be75790611ea760405190565b825260049082905afa918215613820575b6000926137f8575b506137e1611e9091601961101f565b90610ccc565b6120ea670de0b6b3a7640000610af1565b611e909192506138186137e19160203d8111611ef857611ee981836117f4565b9291506137d2565b613828611ccd565b6137ca565b506137e161057a91601361101f565b369037565b906105a961385761385184612322565b936122fd565b7fffffffffffffffffffffffffffffffffffffffffffffffffffffffffffffffe0016020840161383c565b906020809161388f845190565b81101561389d575b02010190565b6138a5610e98565b613897565b906138b96136a06105df845490565b9060005b8181106138ca5750505090565b9091926138e76136f06001926138df87610f0b565b815260200190565b9291016138bd565b9061057a916138aa565b906105a96137239261390a60405190565b938480926138ef565b61057a906138f9565b613926601b610f0b565b600090613935611da083610af1565b1480156139e8575b1561394d575061057a6015613913565b61396761396161395c60105490565b613841565b91610af1565b915b601561397661057a825490565b8410156139e25761398f6137e185836139c0945061101f565b6120de6139b6611e7f6139ad6139a3613a05565b6120a86005610f0b565b611e9089613754565b6120ea601c610f0b565b6139d1816139ce8686613882565b52565b506139db8361216b565b9250613969565b50915090565b506139f3601c610f0b565b6139ff611da083610af1565b1461393d565b61057a42613a136004610f0b565b80821015613a1f575090565b919050565b90610a0e90610af1565b90613a3761391c565b91601090613a4661395c835490565b908194601e613a5861202c8483610a04565b600090613a67611da083610af1565b11613a75575b505050505050565b80613a87919792939495969750610af1565b955b613a9461057a825490565b871015613b1d5761057a613a9491613afb613ae96137e788611e908b6120a88f80613ae4613adc8f61202c94613ad261202c8984613ad89550610a04565b99613882565b5190565b946016610a04565b613a24565b6120de61202c8c613ae48c6017610a04565b613b09816139ce8c8c613882565b50613b138961216b565b9850915050613a89565b50945050505050388080808080613a6d565b601390613b3d61395c835490565b908190613b4a6000610af1565b935b613b5761057a825490565b851015613b9b5761057a613b5791613b79613b7188613754565b611e90610afe565b613b87816139ce8a8a613882565b50613b918761216b565b9650915050613b4c565b5091509150565b61057a601b610f0b565b61202c61057a91613bbb600090565b50601d610a04565b61057a601c610f0b565b61202c61057a91613bdc600090565b50601e610a04565b61057a90613a13613c03613bf86006610f0b565b92611e906006610f0b565b6120ea6007610f0b565b61227d61057a91613c1c600090565b50611e9061202c613c2d6003610f0b565b92601d610a04565b61227d61057a91613c44600090565b50611e9061202c613c556003610f0b565b92601f610a04565b613d04613cdd602061057a93613c71600090565b50613c9b7f00000000000000000000000000000000000000000000000000000000000000006109fb565b613cb96370a08231613cac60405190565b9586948593849360e01b90565b835273ffffffffffffffffffffffffffffffffffffffff1660048301526024820190565b03915afa908115613d39575b600091613d1b575b506120cb613cfd6121a1565b8092611d27565b6120ea613d11600b610f0b565b611e906003610f0b565b613d33915060203d8111611ef857611ee981836117f4565b38613cf1565b613d41611ccd565b613ce9565b61227d613d5e61057a92613d58600090565b50613c0d565b611e90600b610f0b565b61227d613d5e61057a92613d7a600090565b50613c35565b613d93613d8e82600d610a04565b613276565b15613d9b5790565b61366361057a916020610a04565b600090600090613db882610af1565b50613dc281613d80565b613dcb83611ba4565b9173ffffffffffffffffffffffffffffffffffffffff831673ffffffffffffffffffffffffffffffffffffffff831614918215613f9757613e486020613e307f00000000000000000000000000000000000000000000000000000000000000006109fb565b6370a0823190613e3f60405190565b93849260e01b90565b825273ffffffffffffffffffffffffffffffffffffffff8616600483015260249082905afa908115613f8a575b600091613f6c575b50925b613eb6613ea3613e99613e93600a610f0b565b87611d27565b611e906009610f0b565b6120ea69d5075e88df90d8c00000610af1565b94613ec9613ec26121a1565b8097611d27565b97505015613f5c5750613edb90613d46565b925b613ee681610af1565b841115613f4a5750613f09613f1393613f048484613f049550611d27565b611d9a565b611e90600a610f0b565b80821115613f425750905b81613f2f611da061057a600a610f0b565b11613f3657565b905061057a600a610f0b565b919050613f1e565b915050613f579150610af1565b613f13565b613f669150613d68565b92613edd565b613f84915060203d8111611ef857611ee981836117f4565b38613e7d565b613f92611ccd565b613e75565b613faa69d3f851987ab37fa00000610af1565b92613e80565b15613fb757565b6040517f08c379a000000000000000000000000000000000000000000000000000000000815260206004820152600d60248201527f496e76616c69642070726f7879000000000000000000000000000000000000006044820152606490fd5b9060ff90611a5b565b9061402f61057a611a7c92151590565b8254614016565b3361404d614048613d8e83600d610a04565b613fb0565b80614084600e61407f8561406e614077614073613d8e8461406e8a89610a04565b610a04565b1590565b958694610a04565b61401f565b506020916140956136638285610a04565b6140b473ffffffffffffffffffffffffffffffffffffffff8416611a1e565b146140be57505050565b6140ed613c5561202c836125a994613bbb6105a9986140e86140e06000611ba4565b938492610a04565b611a65565b9161209e83610f0b565b156140fe57565b6040517f08c379a000000000000000000000000000000000000000000000000000000000815260206004820152601d60248201527f50726f787920686173206e6f7420616c6c6f77656420796f75207965740000006044820152606490fd5b6105a990614172614048613d8e83600d610a04565b6125a96141ed613c5561202c61418985600e610a04565b61419f61419a613d8e338094610a04565b6140f7565b6141e6866140e88360206141b66136638383610a04565b6141c36105616000611ba4565b73ffffffffffffffffffffffffffffffffffffffff8216036141f7575b50610a04565b601d610a04565b9161264083610f0b565b61420f906125a96140ed613c5561202c87601d610a04565b386141e0565b906142ee575b6142286105616000611ba4565b73ffffffffffffffffffffffffffffffffffffffff8216036142475750565b614250816121b2565b9061425a846142fb565b61426e8161426986600c610a04565b612455565b508181106142b757916142ad8261428d611c4094866142699750611fdf565b9061429c82612640601c610f0b565b6142a781601c612455565b50611fec565b928391601e610a04565b916142ad826142ce61426995611c40955082611fdf565b906142dd8261209e601c610f0b565b6142e881601c612455565b50611fdf565b6142f661487d565b61421b565b60009061430a61056183611ba4565b73ffffffffffffffffffffffffffffffffffffffff82160361432a575050565b909161433582613a2e565b9061433f84610af1565b935b61434c61057a845190565b85101561438457614360613ad88685613882565b6143738161426988613ae4896017610a04565b5061437d8561216b565b9450614341565b61439091929450610af1565b925b61439d61057a825190565b8410156143e05761057a61439d916143b96137e187601561101f565b6143cc8161426989613ae48a6016610a04565b506143d68661216b565b9550915050614392565b50915050565b6124aa906143f46000610f0b565b6143ff6124906123bd565b61440a816000612455565b5061448c565b61057a9060101c6111cc565b61057a9054614410565b1561442d57565b6040517f08c379a000000000000000000000000000000000000000000000000000000000815260206004820152601960248201527f5265776172647320636f6c6c656374696f6e20706175736564000000000000006044820152606490fd5b6105a990611c4061449d602161441c565b6144a7600061324f565b14614426565b6105a9906143e6565b90612e17916144c56000610f0b565b6144d06124906123bd565b6144db816000612455565b505061057a90600190336146c4565b61057a9060606144b6565b90612e1792916145056000610f0b565b6145106124906123bd565b61451b816000612455565b505061057a9190336146c4565b61057a919060606144f5565b9061057a939291614546600183614215565b614566565b9081526060810193926105a9929091604091611b7b90612826565b9390919293504261457c81614269856018610a04565b50614587602161441c565b60009190614598906144a78461324f565b6010916145a661395c845490565b9182906145b283610af1565b975b6145bf61057a875490565b8910156146ac57866145fe60176139ce6145ed8d6145e461202c82613ae48988610a04565b9283918c613882565b506142698c613ae46140778a610af1565b61460e61057a613ad88c89613882565b11614624575b61461d8961216b565b98506145b4565b61464861463461104e8b8961101f565b89614642613ad88d8a613882565b91613590565b614655613ad88a87613882565b61466261104e8b8961101f565b7f1d2f2ca53af5d2f333bd32fdd45f9c52ad8ebe31414f7792912077fcb3876dff9061468d8a6109fb565b926146a48c61469b60405190565b9384938461454b565b0390a2614614565b93509593509550506146bc575050565b506105a99050565b61057a9291906060614534565b6000906146dd82610af1565b925b60116146ec61057a825490565b8510156148765761104e8582614702935061101f565b61470e61056185611ba4565b73ffffffffffffffffffffffffffffffffffffffff82160361473c575b506147358461216b565b93506146df565b82831561485a575b1561472b576147d790602090614759816109fb565b614762816109fb565b91636472eee18461478e614775306109fb565b926147994261478360405190565b958694859460e01b90565b845260048401613500565b03818c885af190811561484d575b600091614830575b506147c5816147bf8c601961101f565b906132db565b50505063513872bd90613e3f60405190565b825260049082905afa908115614823575b600091614805575b50614800816147bf87601a61101f565b61472b565b61481d915060203d8111611ef857611ee981836117f4565b386147f0565b61482b611ccd565b6147e8565b6148479150853d8111611ef857611ee981836117f4565b386147af565b614855611ccd565b6147a7565b5042614870611da061057a6137e189601a61101f565b11614744565b5092505050565b61488760006146d1565b61488f611dbb565b61489a816003612455565b50426148ac611da061057a6004610f0b565b106148b9576105a96149f4565b6105a9614c59565b919061057a906040848203126148e5575b6148dc8185611c66565b93602001611c66565b6148ed600080fd5b6148d2565b906105cc61494b6014937f4e6f7420656e6f7567682072657761726420746f6b656e7320617661696c616281527f6c653a2000000000000000000000000000000000000000000000000000000000602082015260240190565b8092612ecf565b60005b8381106149655750506000910152565b8181015183820152602001614955565b61499661179c6020936105cc9361498a815190565b80835293849260200190565b95869101614952565b602080825261057a92910190614975565b156149b85750565b611a02906149c560405190565b9182917f08c379a00000000000000000000000000000000000000000000000000000000083526004830161499f565b60006149ff81610af1565b915b6012614a0e61057a825490565b841015614ae55761104e8482614a24935061101f565b614a3061056184611ba4565b73ffffffffffffffffffffffffffffffffffffffff821603614a5e575b50614a578361216b565b9250614a01565b6040614a716137a583614a9b94506109fb565b63092193ab90613cb986614a84306109fb565b93614a8e60405190565b9687958694859360e01b90565b03925af18015614ad8575b15614a4d57614acb9060403d8111614ad1575b614ac381836117f4565b8101906148c1565b50614a4d565b503d614ab9565b614ae0611ccd565b614aa6565b50909150614af7426120a86004610f0b565b91614b0d613961614b06610afe565b8095611d9a565b925b6010614b1c61057a825490565b851015614c0f5780614bd4614bac61104e88614bda95614ba4611da0614b8d6020614b716137a56137a58f8f614b6b61104e92611e90614b608e946120cb86613754565b916120de6001610af1565b9961101f565b6370a0823190613cb9614b83306109fb565b92613cac60405190565b03915afa908115614c02575b600091614bea575090565b11159461101f565b61057a614bb860405190565b8092614bc86020830191826148f2565b908103825203826117f4565b906149b0565b614be38461216b565b9350614b0f565b61057a915060203d8111611ef857611ee981836117f4565b614c0a611ccd565b614b99565b50614c329293506120de906120cb614c276004610f0b565b936120de6001610af1565b614c3d816004612455565b50614c46614c59565b614c4e611dbb565b611c40816003612455565b614c6161391c565b90614c6c6000610af1565b915b6015614c7b61057a825490565b841015614cb057614c9f84916147bf614c97613ad88587613882565b93849261101f565b50614ca98361216b565b9250614c6e565b50509050614cbc613a05565b611c40816005612455565b15614cce57565b6040517f08c379a000000000000000000000000000000000000000000000000000000000815260206004820152601560248201527f4e6f74206f776e6572206f722074696d656c6f636b00000000000000000000006044820152606490fd5b906105a99291614d6a33614d44610561600161196c565b73ffffffffffffffffffffffffffffffffffffffff821614908115614d6f575b50614cc7565b614e04565b9050614d8e738412ebf45bac1b340bbe8f318b928c466c4e39ca611a1e565b1438614d64565b9063ff0000009060181b611a5b565b90614db461057a611a7c92151590565b8254614d95565b9061ff009060081b611a5b565b90614dd861057a611a7c92151590565b8254614dbb565b9062ff00009060101b611a5b565b90614dfd61057a611a7c92151590565b8254614ddf565b614e0f816021614da4565b50614e1b816021614dc8565b50611c40816021614ded565b906105a99291614d2d565b614e4333614d44610561600161196c565b6105a9614e536140736021613276565b611c4081602161401f565b6105a9614e32565b6105a990614e7b33614d44610561600161196c565b611c40600d61407f6140e0614073613d8e8685610a04565b6105a990614e66565b15614ea357565b6040517f08c379a000000000000000000000000000000000000000000000000000000000815260206004820152601460248201527f4e6f74206f776e6572206f7220746b6e206d67720000000000000000000000006044820152606490fd5b906105a991614f403382614f19610561600161196c565b73ffffffffffffffffffffffffffffffffffffffff831614918215614f45575b5050614e9c565b614f56565b614f4f925061361e565b8238614f39565b60009291614f6384610af1565b935b6010614f7261057a825490565b8610156150895761104e8682614f88935061101f565b614fa773ffffffffffffffffffffffffffffffffffffffff8516611a1e565b14614fbc57614fb58561216b565b9450614f65565b509091925060015b8080615069575b8115615042575b5015614fe3576105a9913390613590565b6040517f08c379a000000000000000000000000000000000000000000000000000000000815260206004820152601a60248201527f4e6f2076616c696420746f6b656e7320746f207265636f7665720000000000006044820152606490fd5b15905080615051575b38614fd2565b5033615063611a1e610561600161196c565b1461504b565b905061507961366384600f610a04565b61508233611a1e565b1490614fcb565b509091929350614fc4565b906105a991614f02565b6105a9906150b333614d44610561600161196c565b615204565b9060209060068110156150ca57020190565b61231d610e98565b156150d957565b6040517f08c379a000000000000000000000000000000000000000000000000000000000815260206004820152601360248201527f4d757374206265203e3d204d554c2050524543000000000000000000000000006044820152606490fd5b1561513f57565b6040517f08c379a000000000000000000000000000000000000000000000000000000000815260206004820152600c60248201527f4d757374206265203e3d203000000000000000000000000000000000000000006044820152606490fd5b156151a557565b6040517f08c379a000000000000000000000000000000000000000000000000000000000815260206004820152600c60248201527f4d757374206265203e3d203100000000000000000000000000000000000000006044820152606490fd5b613ad861534191615325613ad86152a5600061524361522e613ad861522884610af1565b886150b8565b61523c611da061057a6121a1565b10156150d2565b6152e2613ad86152dc6001615263613ad861525d83610af1565b8b6150b8565b61526f611da087610af1565b1015806153a2575b80615373575b61528690615138565b6152cb613ad861525d6004976152c68d6152ab613ad86152a58d610af1565b836150b8565b6152b7611da089610af1565b1015908161534c575b5061519e565b610af1565b6152d6816006612455565b50610af1565b876150b8565b6152ed81600a612455565b506152fe613ad86152dc6002610af1565b61530981600b612455565b5061531a613ad86152dc6003610af1565b6152d6816009612455565b615330816007612455565b5061533b6005610af1565b906150b8565b611c40816008612455565b61535f9150613ad89061533b6005610af1565b61536b611da088610af1565b10158e6152c0565b5061528661538d613ad86153876003610af1565b8c6150b8565b615399611da088610af1565b1015905061527d565b506153b3613ad861525d6002610af1565b6153bf611da087610af1565b1015615277565b6105a99061509e565b906105a99392916153e83382614f19610561600161196c565b61542d565b91906008611a5b9102916132b373ffffffffffffffffffffffffffffffffffffffff841b90565b919061542561057a611a7c936109fb565b9083546153ed565b839161545761202c61547493611c409660139461545d816147bf60149861545761202c888c610a04565b9061101f565b5061547a81615474601161545761202c878b610a04565b90615414565b50601293610a04565b906105a99392916153cf565b906105a9916154a63382614f19610561600161196c565b816140e8611c4092600f610a04565b906105a99161548f56fea26469706673582212202157de75865c0269973b146701cca17f97bc1ddf92807aa2e723133ec3a7ae2764736f6c63430008110033",
    "linkReferences": {}
  },
  "methodIdentifiers": {
    "acceptOwnership()": "79ba5097",
    "calcCurCombinedWeight(address)": "8bad86a7",
    "calcCurrLockMultiplier(address,uint256)": "774d4ae7",
    "changeTokenManager(address,address)": "de1a6551",
    "combinedWeightOf(address)": "36f89af2",
    "earned(address)": "008cc262",
    "fraxPerLPStored()": "d2010fb4",
    "fraxPerLPToken()": "5bfd9258",
    "getAllRewardTokens()": "12edb24c",
    "getProxyFor(address)": "c3543826",
    "getReward(address)": "c00007b0",
    "getReward2(address,bool)": "7910d17b",
    "getRewardExtraLogic(address)": "387edc86",
    "getRewardForDuration()": "1c1f78eb",
    "getRewardTokenAt(uint256)": "d6626e0d",
    "getRewardTokensLength()": "2521cdd8",
    "isTokenManagerFor(address,address)": "231b68dc",
    "lastRewardClaimTime(address)": "6c430dbb",
    "lastUpdateTime()": "c8f33c91",
    "lockAdditional(bytes32,uint256)": "b85efd06",
    "lockLonger(bytes32,uint256)": "d2fbdc0d",
    "lockMultiplier(uint256)": "0d7bac4f",
    "lock_max_multiplier()": "cdc82e80",
    "lock_time_for_max_multiplier()": "b94c4dcb",
    "lock_time_min()": "6e27cef9",
    "lockedLiquidityOf(address)": "d9f96e8d",
    "lockedStakes(address,uint256)": "7970833e",
    "lockedStakesOf(address)": "1e090f01",
    "lockedStakesOfLength(address)": "ca6df29d",
    "maxLPForMaxBoost(address)": "a0f23476",
    "minVeFXSForMaxBoost(address)": "4fd2b536",
    "minVeFXSForMaxBoostProxy(address)": "7f472e54",
    "nominateNewOwner(address)": "1627540c",
    "nominatedOwner()": "53a47bb7",
    "owner()": "8da5cb5b",
    "periodFinish()": "ebe2b12b",
    "proxyStakedFrax(address)": "1face856",
    "proxyToggleStaker(address)": "e7f30582",
    "proxy_lp_balances(address)": "7d6ef08e",
    "recoverERC20(address,uint256)": "8980f11f",
    "rewardManagers(address)": "41a16f3f",
    "rewardRates(uint256)": "f2caeb1e",
    "rewardTokenAddrToIdx(address)": "69339245",
    "rewardTokens(uint256)": "7bb7bed1",
    "rewardsDuration()": "386a9525",
    "rewardsPerToken()": "70641a36",
    "setMiscVariables(uint256[6])": "facefb64",
    "setPauses(bool,bool,bool)": "cc2abd64",
    "setRewardVars(address,uint256,address,address)": "d5e1a9c6",
    "stakeLocked(uint256,uint256)": "17b18c89",
    "stakerSetVeFXSProxy(address)": "d7400d56",
    "staker_designated_proxies(address)": "28408bab",
    "stakesUnlocked()": "9637927f",
    "stakingToken()": "72f702f3",
    "sync()": "fff6cae9",
    "sync_gauge_weights(bool)": "f77e34d1",
    "toggleValidVeFXSProxy(address)": "91cf600a",
    "totalCombinedWeight()": "64f2c060",
    "totalLiquidityLocked()": "e01f62bf",
    "unlockStakes()": "e1ba95d2",
    "updateRewardAndBalance(address,bool)": "55189773",
    "userStakedFrax(address)": "d42fc9b4",
    "veFXSMultiplier(address)": "2c0c2a0a",
    "vefxs_boost_scale_factor()": "aa1d4fce",
    "vefxs_max_multiplier()": "f288baf6",
    "vefxs_per_frax_for_max_boost()": "f2a8d349",
    "withdrawLocked(bytes32,address)": "e44b9fa5"
  },
  "id": 44
}