{
  "abi": [
    {
      "inputs": [
        {
          "internalType": "uint256",
          "name": "__gauge_relative_weight_write",
          "type": "uint256"
        },
        {
          "internalType": "uint256",
          "name": "__global_emission_rate",
          "type": "uint256"
        },
        {
          "internalType": "uint256",
          "name": "__time_total",
          "type": "uint256"
        }
      ],
      "stateMutability": "nonpayable",
      "type": "constructor"
    },
    {
      "inputs": [
        {
          "internalType": "address",
          "name": "",
          "type": "address"
        },
        {
          "internalType": "uint256",
          "name": "",
          "type": "uint256"
        }
      ],
      "name": "gauge_relative_weight_write",
      "outputs": [
        {
          "internalType": "uint256",
          "name": "",
          "type": "uint256"
        }
      ],
      "stateMutability": "view",
      "type": "function"
    },
    {
      "inputs": [
        {
          "internalType": "address",
          "name": "gauge",
          "type": "address"
        }
      ],
      "name": "get_gauge_weight",
      "outputs": [
        {
          "internalType": "uint256",
          "name": "",
          "type": "uint256"
        }
      ],
      "stateMutability": "view",
      "type": "function"
    },
    {
      "inputs": [],
      "name": "global_emission_rate",
      "outputs": [
        {
          "internalType": "uint256",
          "name": "",
          "type": "uint256"
        }
      ],
      "stateMutability": "view",
      "type": "function"
    },
    {
      "inputs": [
        {
          "internalType": "address",
          "name": "gauge",
          "type": "address"
        },
        {
          "internalType": "uint256",
          "name": "gauge_weight",
          "type": "uint256"
        }
      ],
      "name": "set_gauge_weight",
      "outputs": [],
      "stateMutability": "nonpayable",
      "type": "function"
    },
    {
      "inputs": [],
      "name": "time_total",
      "outputs": [
        {
          "internalType": "uint256",
          "name": "",
          "type": "uint256"
        }
      ],
      "stateMutability": "view",
      "type": "function"
    }
  ],
  "bytecode": {
    "object": "0x60806040523461002c575b61001b6100156100db565b9161018e565b6040516103436101c2823961034390f35b610034600080fd5b61000a565b50634e487b7160e01b600052604160045260246000fd5b90601f01601f191681019081106001600160401b0382111761007157604052565b610079610039565b604052565b9061009261008b60405190565b9283610050565b565b90505190565b90916060828403126100ce575b6100cb6100b48484610094565b936100c28160208601610094565b93604001610094565b90565b6100d6600080fd5b6100a7565b6100f9610505803803806100ee8161007e565b92833981019061009a565b909192565b90600019905b9181191691161790565b6100cb6100cb6100cb9290565b9061012b6100cb6101329261010e565b82546100fe565b9055565b906001600160a01b0390610104565b6100cb90610159906001600160a01b031682565b6001600160a01b031690565b6100cb90610145565b6100cb90610165565b906101876100cb6101329261016e565b8254610136565b61019981600061011b565b506101a581600161011b565b506101b181600261011b565b50336101be816004610177565b5056fe60806040526004361015610018575b610016600080fd5b005b60003560e01c80630a3be7571461007c5780634e791a3a14610073578063513872bd1461006a5780636472eee1146100615763a82226660361000e5761005c610205565b61000e565b5061005c6101da565b5061005c61016c565b5061005c610142565b5061005c61009f565b600080fd5b600091031261009557565b61009d600080fd5b565b50346100d0575b6100b136600461008a565b6100cc6100bc6102ee565b6040519182918290815260200190565b0390f35b6100d8600080fd5b6100a6565b73ffffffffffffffffffffffffffffffffffffffff1690565b90565b73ffffffffffffffffffffffffffffffffffffffff81165b0361008557565b9050359061009d826100f9565b906100f691602081830312156101185761013d600080fd5b610118565b503461015f575b6100cc6100bc61015a366004610125565b6102c8565b610167600080fd5b610149565b5034610189575b61017e36600461008a565b6100cc6100bc6102e4565b610191600080fd5b610173565b80610111565b9050359061009d82610196565b91906100f6906040848203126101cd575b6101c48185610118565b9360200161019c565b6101d5600080fd5b6101ba565b50346101f8575b6100cc6100bc6101f23660046101a9565b906102f8565b610200600080fd5b6101e1565b5034610225575b61022061021a3660046101a9565b906102a0565b604051005b61022d600080fd5b61020c565b6100dd6100f66100f69273ffffffffffffffffffffffffffffffffffffffff1690565b6100f690610232565b6100f690610255565b906102719061025e565b600052602052604060002090565b6100f66100f66100f69290565b906100f66100f661029c9261027f565b9055565b816102af6102b4926003610267565b61028c565b50565b6100f69081565b6100f690546102b7565b6102df6100f6916102d7600090565b506003610267565b6102be565b6100f660026102be565b6100f660016102be565b5050610302600090565b506100f660006102be56fea2646970667358221220ea070e5d6e8d4d338109f28a5d940f98efa7b52e7d3501eb3936511e3ba8fe1564736f6c63430008110033",
    "linkReferences": {}
  },
  "methodIdentifiers": {
    "gauge_relative_weight_write(address,uint256)": "6472eee1",
    "get_gauge_weight(address)": "4e791a3a",
    "global_emission_rate()": "0a3be757",
    "set_gauge_weight(address,uint256)": "a8222666",
    "time_total()": "513872bd"
  },
  "id": 46
}