{
  "abi": [
    {
      "inputs": [
        {
          "internalType": "address",
          "name": "",
          "type": "address"
        },
        {
          "internalType": "address",
          "name": "",
          "type": "address"
        },
        {
          "internalType": "uint256",
          "name": "",
          "type": "uint256"
        },
        {
          "internalType": "bytes",
          "name": "",
          "type": "bytes"
        }
      ],
      "name": "beforeLockTransfer",
      "outputs": [
        {
          "internalType": "bytes4",
          "name": "",
          "type": "bytes4"
        }
      ],
      "stateMutability": "nonpayable",
      "type": "function"
    },
    {
      "inputs": [
        {
          "internalType": "address",
          "name": "to",
          "type": "address"
        },
        {
          "internalType": "address",
          "name": "",
          "type": "address"
        },
        {
          "internalType": "uint256",
          "name": "",
          "type": "uint256"
        },
        {
          "internalType": "bytes",
          "name": "",
          "type": "bytes"
        }
      ],
      "name": "onLockReceived",
      "outputs": [
        {
          "internalType": "bytes4",
          "name": "",
          "type": "bytes4"
        }
      ],
      "stateMutability": "nonpayable",
      "type": "function"
    }
  ],
  "bytecode": {
    "object": "0x60806040523461001b575b60405161062b610029823961062b90f35b610023600080fd5b61000a56fe60806040526004361015610018575b610016600080fd5b005b60003560e01c8063336d1523146100405763f1053bfb0361000e5761003b6101d0565b61000e565b5061003b61016b565b600080fd5b73ffffffffffffffffffffffffffffffffffffffff1690565b90565b73ffffffffffffffffffffffffffffffffffffffff81165b0361004957565b905035906100968261006a565b565b80610082565b9050359061009682610098565b909182601f830112156100ef575b602082359267ffffffffffffffff84116100e2575b0192828401116100da57565b610096600080fd5b6100ea600080fd5b6100ce565b6100f7600080fd5b6100b9565b60808183031261015e575b6101118282610089565b9261014d6101228460208501610089565b93610130816040860161009e565b9360608101359067ffffffffffffffff8211610151575b016100ab565b9091565b610159600080fd5b610147565b610166600080fd5b610107565b50346101c3575b6101bf61018c6101833660046100fc565b939290926105d0565b604051918291827fffffffff00000000000000000000000000000000000000000000000000000000909116815260200190565b0390f35b6101cb600080fd5b610172565b50346101f1575b6101bf61018c6101e83660046100fc565b93929092610400565b6101f9600080fd5b6101d7565b601f017fffffffffffffffffffffffffffffffffffffffffffffffffffffffffffffffe01690565b507f4e487b7100000000000000000000000000000000000000000000000000000000600052604160045260246000fd5b90601f017fffffffffffffffffffffffffffffffffffffffffffffffffffffffffffffffe016810190811067ffffffffffffffff82111761029657604052565b61029e610226565b604052565b906100966102b060405190565b9283610256565b6102f460209167ffffffffffffffff81116102f857601f017fffffffffffffffffffffffffffffffffffffffffffffffffffffffffffffffe01690565b0190565b6101fe610226565b9061031261030d836102b7565b6102a3565b918252565b6103216012610300565b7f5641554c54204f574e4552204245464f52450000000000000000000000000000602082015290565b610067610317565b61004e6100676100679273ffffffffffffffffffffffffffffffffffffffff1690565b61006790610352565b61006790610375565b6103a061039a6100679263ffffffff1690565b60e01b90565b7fffffffff000000000000000000000000000000000000000000000000000000001690565b6103cf600f610300565b7f4f574e45522052455455524e2049540000000000000000000000000000000000602082015290565b6100676103c5565b505050505061040d600090565b5073__$03410bdb5b6e31ba206af5f1ba44259eff$__61043361042e61034a565b61058b565b61045c7ff1053bfb00000000000000000000000000000000000000000000000000000000610491565b306104668161037e565b63f1053bfb9161047583610387565b9361047f85610491565b5061048b61042e6103f8565b50505090565b6104fd61050c610096926104a460405190565b9283916004602084017fe05f48d1000000000000000000000000000000000000000000000000000000008152017fffffffff00000000000000000000000000000000000000000000000000000000909116815260200190565b60208201810382520382610256565b60008091610518815190565b906020016a636f6e736f6c652e6c6f675afa50565b60005b8381106105405750506000910152565b8181015183820152602001610530565b6105716101fe6020936102f493610565815190565b80835293849260200190565b9586910161052d565b602080825261006792910190610550565b6104fd61050c6100969261059e60405190565b9283916004602084017f41304fac0000000000000000000000000000000000000000000000000000000081520161057a565b50505050506105dd600090565b506105e73061037e565b5061006763336d152361038756fea26469706673582212200569f0e4fcb56057352a36fd06707cdef7c474e2c8b3ed7ee0c985911c93726d64736f6c63430008110033",
    "linkReferences": {
      "lib/forge-std/src/console2.sol": {
        "console2": [
          {
            "start": 1081,
            "length": 20
          }
        ]
      }
    }
  },
  "methodIdentifiers": {
    "beforeLockTransfer(address,address,uint256,bytes)": "f1053bfb",
    "onLockReceived(address,address,uint256,bytes)": "336d1523"
  },
  "id": 22
}