{
  "abi": [
    {
      "inputs": [
        {
          "internalType": "address",
          "name": "",
          "type": "address"
        },
        {
          "internalType": "address",
          "name": "",
          "type": "address"
        },
        {
          "internalType": "uint256",
          "name": "",
          "type": "uint256"
        },
        {
          "internalType": "bytes",
          "name": "",
          "type": "bytes"
        }
      ],
      "name": "beforeLockTransfer",
      "outputs": [
        {
          "internalType": "bytes4",
          "name": "",
          "type": "bytes4"
        }
      ],
      "stateMutability": "nonpayable",
      "type": "function"
    },
    {
      "inputs": [
        {
          "internalType": "address",
          "name": "",
          "type": "address"
        },
        {
          "internalType": "address",
          "name": "",
          "type": "address"
        },
        {
          "internalType": "uint256",
          "name": "",
          "type": "uint256"
        },
        {
          "internalType": "bytes",
          "name": "",
          "type": "bytes"
        }
      ],
      "name": "onLockReceived",
      "outputs": [
        {
          "internalType": "bytes4",
          "name": "",
          "type": "bytes4"
        }
      ],
      "stateMutability": "nonpayable",
      "type": "function"
    }
  ],
  "bytecode": {
    "object": "0x6080806040523461001657610183908161001c8239f35b600080fdfe608080604052600436101561001357600080fd5b60003560e01c908163336d152314610077575063f1053bfb1461003557600080fd5b3461007257610043366100b2565b505050505060206040517ff1053bfb000000000000000000000000000000000000000000000000000000008152f35b600080fd5b3461007257602090610088366100b2565b50505050507f336d1523000000000000000000000000000000000000000000000000000000008152f35b60807ffffffffffffffffffffffffffffffffffffffffffffffffffffffffffffffffc8201126100725773ffffffffffffffffffffffffffffffffffffffff9160043583811681036100725792602435908116810361007257916044359160643567ffffffffffffffff928382116100725780602383011215610072578160040135938411610072576024848301011161007257602401919056fea2646970667358221220f803671fe93583b6a9c4b2f314d77acfbac5a4753b1257126c38a51e6a9328cb64736f6c63430008110033",
    "linkReferences": {}
  },
  "methodIdentifiers": {
    "beforeLockTransfer(address,address,uint256,bytes)": "f1053bfb",
    "onLockReceived(address,address,uint256,bytes)": "336d1523"
  },
  "id": 29
}