{
  "abi": [
    {
      "inputs": [
        {
          "internalType": "address",
          "name": "",
          "type": "address"
        },
        {
          "internalType": "address",
          "name": "",
          "type": "address"
        },
        {
          "internalType": "bytes32",
          "name": "",
          "type": "bytes32"
        },
        {
          "internalType": "bytes",
          "name": "",
          "type": "bytes"
        }
      ],
      "name": "beforeLockTransfer",
      "outputs": [
        {
          "internalType": "bytes4",
          "name": "",
          "type": "bytes4"
        }
      ],
      "stateMutability": "pure",
      "type": "function"
    },
    {
      "inputs": [
        {
          "internalType": "address",
          "name": "",
          "type": "address"
        },
        {
          "internalType": "address",
          "name": "",
          "type": "address"
        },
        {
          "internalType": "bytes32",
          "name": "",
          "type": "bytes32"
        },
        {
          "internalType": "bytes",
          "name": "",
          "type": "bytes"
        }
      ],
      "name": "onLockReceived",
      "outputs": [
        {
          "internalType": "bytes4",
          "name": "",
          "type": "bytes4"
        }
      ],
      "stateMutability": "pure",
      "type": "function"
    }
  ],
  "bytecode": {
    "object": "0x60806040523461001b575b6040516102f161002982396102f190f35b610023600080fd5b61000a56fe60806040526004361015610018575b610016600080fd5b005b60003560e01c80634fb07105146100405763c42d8b950361000e5761003b6101d0565b61000e565b5061003b61016b565b600080fd5b73ffffffffffffffffffffffffffffffffffffffff1690565b90565b73ffffffffffffffffffffffffffffffffffffffff81165b0361004957565b905035906100968261006a565b565b80610082565b9050359061009682610098565b909182601f830112156100ef575b602082359267ffffffffffffffff84116100e2575b0192828401116100da57565b610096600080fd5b6100ea600080fd5b6100ce565b6100f7600080fd5b6100b9565b60808183031261015e575b6101118282610089565b9261014d6101228460208501610089565b93610130816040860161009e565b9360608101359067ffffffffffffffff8211610151575b016100ab565b9091565b610159600080fd5b610147565b610166600080fd5b610107565b50346101c3575b6101bf61018c6101833660046100fc565b93929092610271565b604051918291827fffffffff00000000000000000000000000000000000000000000000000000000909116815260200190565b0390f35b6101cb600080fd5b610172565b50346101f1575b6101bf61018c6101e83660046100fc565b93929092610296565b6101f9600080fd5b6101d7565b61004e6100676100679273ffffffffffffffffffffffffffffffffffffffff1690565b610067906101fe565b61006790610221565b61024c6102466100679263ffffffff1690565b60e01b90565b7fffffffff000000000000000000000000000000000000000000000000000000001690565b505050505061027e600090565b506102883061022a565b50610067634fb07105610233565b50505050506102a3600090565b506102ad3061022a565b5061006763c42d8b9561023356fea264697066735822122091763e1f3bbb208ae2328f027cf9377ac3086068b163037aa0bb090c2d0a325c64736f6c63430008110033",
    "linkReferences": {}
  },
  "methodIdentifiers": {
    "beforeLockTransfer(address,address,bytes32,bytes)": "4fb07105",
    "onLockReceived(address,address,bytes32,bytes)": "c42d8b95"
  },
  "id": 82
}