{
  "abi": [
    {
      "inputs": [
        {
          "internalType": "address",
          "name": "_owner",
          "type": "address"
        },
        {
          "internalType": "address[]",
          "name": "_rewardTokens",
          "type": "address[]"
        },
        {
          "internalType": "address[]",
          "name": "_rewardManagers",
          "type": "address[]"
        },
        {
          "internalType": "uint256[]",
          "name": "_rewardRates",
          "type": "uint256[]"
        },
        {
          "internalType": "address[]",
          "name": "_gaugeControllers",
          "type": "address[]"
        },
        {
          "internalType": "address[]",
          "name": "_rewardDistributors",
          "type": "address[]"
        },
        {
          "internalType": "address",
          "name": "_stakingToken",
          "type": "address"
        }
      ],
      "stateMutability": "nonpayable",
      "type": "constructor"
    },
    {
      "inputs": [],
      "name": "CannotShortenLockTime",
      "type": "error"
    },
    {
      "inputs": [],
      "name": "InsufficientAllowance",
      "type": "error"
    },
    {
      "inputs": [],
      "name": "InvalidAmount",
      "type": "error"
    },
    {
      "inputs": [],
      "name": "InvalidReceiver",
      "type": "error"
    },
    {
      "inputs": [],
      "name": "MinimumStakeTimeNotMet",
      "type": "error"
    },
    {
      "inputs": [],
      "name": "MustBeInTheFuture",
      "type": "error"
    },
    {
      "inputs": [],
      "name": "MustBePositive",
      "type": "error"
    },
    {
      "inputs": [],
      "name": "StakerNotFound",
      "type": "error"
    },
    {
      "inputs": [],
      "name": "StakesUnlocked",
      "type": "error"
    },
    {
      "inputs": [],
      "name": "StakingPaused",
      "type": "error"
    },
    {
      "inputs": [
        {
          "internalType": "address",
          "name": "spender",
          "type": "address"
        },
        {
          "internalType": "bytes32",
          "name": "kek_id",
          "type": "bytes32"
        }
      ],
      "name": "TransferLockNotAllowed",
      "type": "error"
    },
    {
      "inputs": [],
      "name": "TryingToLockForTooLong",
      "type": "error"
    },
    {
      "inputs": [],
      "name": "WithdrawalsPaused",
      "type": "error"
    },
    {
      "anonymous": false,
      "inputs": [
        {
          "indexed": true,
          "internalType": "address",
          "name": "staker",
          "type": "address"
        },
        {
          "indexed": true,
          "internalType": "address",
          "name": "spender",
          "type": "address"
        },
        {
          "indexed": true,
          "internalType": "bytes32",
          "name": "kek_id",
          "type": "bytes32"
        },
        {
          "indexed": false,
          "internalType": "uint256",
          "name": "amount",
          "type": "uint256"
        }
      ],
      "name": "Approval",
      "type": "event"
    },
    {
      "anonymous": false,
      "inputs": [
        {
          "indexed": true,
          "internalType": "address",
          "name": "owner",
          "type": "address"
        },
        {
          "indexed": true,
          "internalType": "address",
          "name": "spender",
          "type": "address"
        },
        {
          "indexed": false,
          "internalType": "bool",
          "name": "approved",
          "type": "bool"
        }
      ],
      "name": "ApprovalForAll",
      "type": "event"
    },
    {
      "anonymous": false,
      "inputs": [
        {
          "indexed": true,
          "internalType": "address",
          "name": "user",
          "type": "address"
        },
        {
          "indexed": false,
          "internalType": "bytes32",
          "name": "kek_id",
          "type": "bytes32"
        },
        {
          "indexed": false,
          "internalType": "uint256",
          "name": "amount",
          "type": "uint256"
        }
      ],
      "name": "LockedAdditional",
      "type": "event"
    },
    {
      "anonymous": false,
      "inputs": [
        {
          "indexed": true,
          "internalType": "address",
          "name": "user",
          "type": "address"
        },
        {
          "indexed": false,
          "internalType": "bytes32",
          "name": "kek_id",
          "type": "bytes32"
        },
        {
          "indexed": false,
          "internalType": "uint256",
          "name": "new_secs",
          "type": "uint256"
        },
        {
          "indexed": false,
          "internalType": "uint256",
          "name": "new_start_ts",
          "type": "uint256"
        },
        {
          "indexed": false,
          "internalType": "uint256",
          "name": "new_end_ts",
          "type": "uint256"
        }
      ],
      "name": "LockedLonger",
      "type": "event"
    },
    {
      "anonymous": false,
      "inputs": [
        {
          "indexed": false,
          "internalType": "address",
          "name": "oldOwner",
          "type": "address"
        },
        {
          "indexed": false,
          "internalType": "address",
          "name": "newOwner",
          "type": "address"
        }
      ],
      "name": "OwnerChanged",
      "type": "event"
    },
    {
      "anonymous": false,
      "inputs": [
        {
          "indexed": false,
          "internalType": "address",
          "name": "newOwner",
          "type": "address"
        }
      ],
      "name": "OwnerNominated",
      "type": "event"
    },
    {
      "anonymous": false,
      "inputs": [
        {
          "indexed": true,
          "internalType": "address",
          "name": "user",
          "type": "address"
        },
        {
          "indexed": false,
          "internalType": "uint256",
          "name": "amount",
          "type": "uint256"
        },
        {
          "indexed": false,
          "internalType": "address",
          "name": "token_address",
          "type": "address"
        },
        {
          "indexed": false,
          "internalType": "address",
          "name": "destination_address",
          "type": "address"
        }
      ],
      "name": "RewardPaid",
      "type": "event"
    },
    {
      "anonymous": false,
      "inputs": [
        {
          "indexed": true,
          "internalType": "address",
          "name": "user",
          "type": "address"
        },
        {
          "indexed": false,
          "internalType": "uint256",
          "name": "amount",
          "type": "uint256"
        },
        {
          "indexed": false,
          "internalType": "uint256",
          "name": "secs",
          "type": "uint256"
        },
        {
          "indexed": false,
          "internalType": "bytes32",
          "name": "kek_id",
          "type": "bytes32"
        },
        {
          "indexed": false,
          "internalType": "address",
          "name": "source_address",
          "type": "address"
        }
      ],
      "name": "StakeLocked",
      "type": "event"
    },
    {
      "anonymous": false,
      "inputs": [
        {
          "indexed": true,
          "internalType": "address",
          "name": "staker_address",
          "type": "address"
        },
        {
          "indexed": true,
          "internalType": "address",
          "name": "destination_address",
          "type": "address"
        },
        {
          "indexed": false,
          "internalType": "uint256",
          "name": "amount_transferred",
          "type": "uint256"
        },
        {
          "indexed": false,
          "internalType": "bytes32",
          "name": "source_kek_id",
          "type": "bytes32"
        },
        {
          "indexed": false,
          "internalType": "bytes32",
          "name": "destination_kek_id",
          "type": "bytes32"
        }
      ],
      "name": "TransferLocked",
      "type": "event"
    },
    {
      "anonymous": false,
      "inputs": [
        {
          "indexed": true,
          "internalType": "address",
          "name": "user",
          "type": "address"
        },
        {
          "indexed": false,
          "internalType": "uint256",
          "name": "liquidity",
          "type": "uint256"
        },
        {
          "indexed": false,
          "internalType": "bytes32",
          "name": "kek_id",
          "type": "bytes32"
        },
        {
          "indexed": false,
          "internalType": "address",
          "name": "destination_address",
          "type": "address"
        }
      ],
      "name": "WithdrawLocked",
      "type": "event"
    },
    {
      "inputs": [],
      "name": "acceptOwnership",
      "outputs": [],
      "stateMutability": "nonpayable",
      "type": "function"
    },
    {
      "inputs": [
        {
          "internalType": "address",
          "name": "account",
          "type": "address"
        }
      ],
      "name": "calcCurCombinedWeight",
      "outputs": [
        {
          "internalType": "uint256",
          "name": "old_combined_weight",
          "type": "uint256"
        },
        {
          "internalType": "uint256",
          "name": "new_vefxs_multiplier",
          "type": "uint256"
        },
        {
          "internalType": "uint256",
          "name": "new_combined_weight",
          "type": "uint256"
        }
      ],
      "stateMutability": "view",
      "type": "function"
    },
    {
      "inputs": [
        {
          "internalType": "address",
          "name": "account",
          "type": "address"
        },
        {
          "internalType": "uint256",
          "name": "stake_idx",
          "type": "uint256"
        }
      ],
      "name": "calcCurrLockMultiplier",
      "outputs": [
        {
          "internalType": "uint256",
          "name": "midpoint_lock_multiplier",
          "type": "uint256"
        }
      ],
      "stateMutability": "view",
      "type": "function"
    },
    {
      "inputs": [
        {
          "internalType": "address",
          "name": "reward_token_address",
          "type": "address"
        },
        {
          "internalType": "address",
          "name": "new_manager_address",
          "type": "address"
        }
      ],
      "name": "changeTokenManager",
      "outputs": [],
      "stateMutability": "nonpayable",
      "type": "function"
    },
    {
      "inputs": [
        {
          "internalType": "address",
          "name": "account",
          "type": "address"
        }
      ],
      "name": "combinedWeightOf",
      "outputs": [
        {
          "internalType": "uint256",
          "name": "",
          "type": "uint256"
        }
      ],
      "stateMutability": "view",
      "type": "function"
    },
    {
      "inputs": [],
      "name": "curvePool",
      "outputs": [
        {
          "internalType": "contract I2pool",
          "name": "",
          "type": "address"
        }
      ],
      "stateMutability": "view",
      "type": "function"
    },
    {
      "inputs": [],
      "name": "curveToken",
      "outputs": [
        {
          "internalType": "contract I2poolToken",
          "name": "",
          "type": "address"
        }
      ],
      "stateMutability": "view",
      "type": "function"
    },
    {
      "inputs": [
        {
          "internalType": "address",
          "name": "account",
          "type": "address"
        }
      ],
      "name": "earned",
      "outputs": [
        {
          "internalType": "uint256[]",
          "name": "new_earned",
          "type": "uint256[]"
        }
      ],
      "stateMutability": "view",
      "type": "function"
    },
    {
      "inputs": [],
      "name": "fraxPerLPStored",
      "outputs": [
        {
          "internalType": "uint256",
          "name": "",
          "type": "uint256"
        }
      ],
      "stateMutability": "view",
      "type": "function"
    },
    {
      "inputs": [],
      "name": "fraxPerLPToken",
      "outputs": [
        {
          "internalType": "uint256",
          "name": "",
          "type": "uint256"
        }
      ],
      "stateMutability": "view",
      "type": "function"
    },
    {
      "inputs": [],
      "name": "getAllRewardTokens",
      "outputs": [
        {
          "internalType": "address[]",
          "name": "",
          "type": "address[]"
        }
      ],
      "stateMutability": "view",
      "type": "function"
    },
    {
      "inputs": [],
      "name": "getLatestETHPriceE8",
      "outputs": [
        {
          "internalType": "int256",
          "name": "",
          "type": "int256"
        }
      ],
      "stateMutability": "view",
      "type": "function"
    },
    {
      "inputs": [
        {
          "internalType": "address",
          "name": "addr",
          "type": "address"
        }
      ],
      "name": "getProxyFor",
      "outputs": [
        {
          "internalType": "address",
          "name": "",
          "type": "address"
        }
      ],
      "stateMutability": "view",
      "type": "function"
    },
    {
      "inputs": [
        {
          "internalType": "address",
          "name": "destination_address",
          "type": "address"
        }
      ],
      "name": "getReward",
      "outputs": [
        {
          "internalType": "uint256[]",
          "name": "",
          "type": "uint256[]"
        }
      ],
      "stateMutability": "nonpayable",
      "type": "function"
    },
    {
      "inputs": [
        {
          "internalType": "address",
          "name": "destination_address",
          "type": "address"
        },
        {
          "internalType": "bool",
          "name": "claim_extra_too",
          "type": "bool"
        }
      ],
      "name": "getReward2",
      "outputs": [
        {
          "internalType": "uint256[]",
          "name": "",
          "type": "uint256[]"
        }
      ],
      "stateMutability": "nonpayable",
      "type": "function"
    },
    {
      "inputs": [
        {
          "internalType": "address",
          "name": "destination_address",
          "type": "address"
        }
      ],
      "name": "getRewardExtraLogic",
      "outputs": [],
      "stateMutability": "nonpayable",
      "type": "function"
    },
    {
      "inputs": [],
      "name": "getRewardForDuration",
      "outputs": [
        {
          "internalType": "uint256[]",
          "name": "rewards_per_duration_arr",
          "type": "uint256[]"
        }
      ],
      "stateMutability": "view",
      "type": "function"
    },
    {
      "inputs": [
        {
          "internalType": "address",
          "name": "staker",
          "type": "address"
        },
        {
          "internalType": "bytes32",
          "name": "kek_id",
          "type": "bytes32"
        },
        {
          "internalType": "uint256",
          "name": "amount",
          "type": "uint256"
        }
      ],
      "name": "isApproved",
      "outputs": [
        {
          "internalType": "bool",
          "name": "",
          "type": "bool"
        }
      ],
      "stateMutability": "view",
      "type": "function"
    },
    {
      "inputs": [
        {
          "internalType": "address",
          "name": "caller_addr",
          "type": "address"
        },
        {
          "internalType": "address",
          "name": "reward_token_addr",
          "type": "address"
        }
      ],
      "name": "isTokenManagerFor",
      "outputs": [
        {
          "internalType": "bool",
          "name": "",
          "type": "bool"
        }
      ],
      "stateMutability": "view",
      "type": "function"
    },
    {
      "inputs": [
        {
          "internalType": "address",
          "name": "",
          "type": "address"
        },
        {
          "internalType": "bytes32",
          "name": "",
          "type": "bytes32"
        },
        {
          "internalType": "address",
          "name": "",
          "type": "address"
        }
      ],
      "name": "kekAllowance",
      "outputs": [
        {
          "internalType": "uint256",
          "name": "",
          "type": "uint256"
        }
      ],
      "stateMutability": "view",
      "type": "function"
    },
    {
      "inputs": [
        {
          "internalType": "address",
          "name": "",
          "type": "address"
        }
      ],
      "name": "lastRewardClaimTime",
      "outputs": [
        {
          "internalType": "uint256",
          "name": "",
          "type": "uint256"
        }
      ],
      "stateMutability": "view",
      "type": "function"
    },
    {
      "inputs": [],
      "name": "lastUpdateTime",
      "outputs": [
        {
          "internalType": "uint256",
          "name": "",
          "type": "uint256"
        }
      ],
      "stateMutability": "view",
      "type": "function"
    },
    {
      "inputs": [
        {
          "internalType": "bytes32",
          "name": "kek_id",
          "type": "bytes32"
        },
        {
          "internalType": "uint256",
          "name": "addl_liq",
          "type": "uint256"
        }
      ],
      "name": "lockAdditional",
      "outputs": [],
      "stateMutability": "nonpayable",
      "type": "function"
    },
    {
      "inputs": [
        {
          "internalType": "bytes32",
          "name": "kek_id",
          "type": "bytes32"
        },
        {
          "internalType": "uint256",
          "name": "new_ending_ts",
          "type": "uint256"
        }
      ],
      "name": "lockLonger",
      "outputs": [],
      "stateMutability": "nonpayable",
      "type": "function"
    },
    {
      "inputs": [
        {
          "internalType": "uint256",
          "name": "secs",
          "type": "uint256"
        }
      ],
      "name": "lockMultiplier",
      "outputs": [
        {
          "internalType": "uint256",
          "name": "",
          "type": "uint256"
        }
      ],
      "stateMutability": "view",
      "type": "function"
    },
    {
      "inputs": [],
      "name": "lock_max_multiplier",
      "outputs": [
        {
          "internalType": "uint256",
          "name": "",
          "type": "uint256"
        }
      ],
      "stateMutability": "view",
      "type": "function"
    },
    {
      "inputs": [],
      "name": "lock_time_for_max_multiplier",
      "outputs": [
        {
          "internalType": "uint256",
          "name": "",
          "type": "uint256"
        }
      ],
      "stateMutability": "view",
      "type": "function"
    },
    {
      "inputs": [],
      "name": "lock_time_min",
      "outputs": [
        {
          "internalType": "uint256",
          "name": "",
          "type": "uint256"
        }
      ],
      "stateMutability": "view",
      "type": "function"
    },
    {
      "inputs": [
        {
          "internalType": "address",
          "name": "account",
          "type": "address"
        }
      ],
      "name": "lockedLiquidityOf",
      "outputs": [
        {
          "internalType": "uint256",
          "name": "",
          "type": "uint256"
        }
      ],
      "stateMutability": "view",
      "type": "function"
    },
    {
      "inputs": [
        {
          "internalType": "address",
          "name": "",
          "type": "address"
        },
        {
          "internalType": "uint256",
          "name": "",
          "type": "uint256"
        }
      ],
      "name": "lockedStakes",
      "outputs": [
        {
          "internalType": "bytes32",
          "name": "kek_id",
          "type": "bytes32"
        },
        {
          "internalType": "uint256",
          "name": "start_timestamp",
          "type": "uint256"
        },
        {
          "internalType": "uint256",
          "name": "liquidity",
          "type": "uint256"
        },
        {
          "internalType": "uint256",
          "name": "ending_timestamp",
          "type": "uint256"
        },
        {
          "internalType": "uint256",
          "name": "lock_multiplier",
          "type": "uint256"
        }
      ],
      "stateMutability": "view",
      "type": "function"
    },
    {
      "inputs": [
        {
          "internalType": "address",
          "name": "account",
          "type": "address"
        }
      ],
      "name": "lockedStakesOf",
      "outputs": [
        {
          "components": [
            {
              "internalType": "bytes32",
              "name": "kek_id",
              "type": "bytes32"
            },
            {
              "internalType": "uint256",
              "name": "start_timestamp",
              "type": "uint256"
            },
            {
              "internalType": "uint256",
              "name": "liquidity",
              "type": "uint256"
            },
            {
              "internalType": "uint256",
              "name": "ending_timestamp",
              "type": "uint256"
            },
            {
              "internalType": "uint256",
              "name": "lock_multiplier",
              "type": "uint256"
            }
          ],
          "internalType": "struct FraxUnifiedFarm_ERC20.LockedStake[]",
          "name": "",
          "type": "tuple[]"
        }
      ],
      "stateMutability": "view",
      "type": "function"
    },
    {
      "inputs": [
        {
          "internalType": "address",
          "name": "account",
          "type": "address"
        }
      ],
      "name": "lockedStakesOfLength",
      "outputs": [
        {
          "internalType": "uint256",
          "name": "",
          "type": "uint256"
        }
      ],
      "stateMutability": "view",
      "type": "function"
    },
    {
      "inputs": [
        {
          "internalType": "address",
          "name": "account",
          "type": "address"
        }
      ],
      "name": "maxLPForMaxBoost",
      "outputs": [
        {
          "internalType": "uint256",
          "name": "",
          "type": "uint256"
        }
      ],
      "stateMutability": "view",
      "type": "function"
    },
    {
      "inputs": [
        {
          "internalType": "address",
          "name": "account",
          "type": "address"
        }
      ],
      "name": "minVeFXSForMaxBoost",
      "outputs": [
        {
          "internalType": "uint256",
          "name": "",
          "type": "uint256"
        }
      ],
      "stateMutability": "view",
      "type": "function"
    },
    {
      "inputs": [
        {
          "internalType": "address",
          "name": "proxy_address",
          "type": "address"
        }
      ],
      "name": "minVeFXSForMaxBoostProxy",
      "outputs": [
        {
          "internalType": "uint256",
          "name": "",
          "type": "uint256"
        }
      ],
      "stateMutability": "view",
      "type": "function"
    },
    {
      "inputs": [
        {
          "internalType": "address",
          "name": "_owner",
          "type": "address"
        }
      ],
      "name": "nominateNewOwner",
      "outputs": [],
      "stateMutability": "nonpayable",
      "type": "function"
    },
    {
      "inputs": [],
      "name": "nominatedOwner",
      "outputs": [
        {
          "internalType": "address",
          "name": "",
          "type": "address"
        }
      ],
      "stateMutability": "view",
      "type": "function"
    },
    {
      "inputs": [],
      "name": "owner",
      "outputs": [
        {
          "internalType": "address",
          "name": "",
          "type": "address"
        }
      ],
      "stateMutability": "view",
      "type": "function"
    },
    {
      "inputs": [],
      "name": "periodFinish",
      "outputs": [
        {
          "internalType": "uint256",
          "name": "",
          "type": "uint256"
        }
      ],
      "stateMutability": "view",
      "type": "function"
    },
    {
      "inputs": [
        {
          "internalType": "address",
          "name": "proxy_address",
          "type": "address"
        }
      ],
      "name": "proxyStakedFrax",
      "outputs": [
        {
          "internalType": "uint256",
          "name": "",
          "type": "uint256"
        }
      ],
      "stateMutability": "view",
      "type": "function"
    },
    {
      "inputs": [
        {
          "internalType": "address",
          "name": "staker_address",
          "type": "address"
        }
      ],
      "name": "proxyToggleStaker",
      "outputs": [],
      "stateMutability": "nonpayable",
      "type": "function"
    },
    {
      "inputs": [
        {
          "internalType": "address",
          "name": "",
          "type": "address"
        }
      ],
      "name": "proxy_lp_balances",
      "outputs": [
        {
          "internalType": "uint256",
          "name": "",
          "type": "uint256"
        }
      ],
      "stateMutability": "view",
      "type": "function"
    },
    {
      "inputs": [
        {
          "internalType": "address",
          "name": "tokenAddress",
          "type": "address"
        },
        {
          "internalType": "uint256",
          "name": "tokenAmount",
          "type": "uint256"
        }
      ],
      "name": "recoverERC20",
      "outputs": [],
      "stateMutability": "nonpayable",
      "type": "function"
    },
    {
      "inputs": [
        {
          "internalType": "address",
          "name": "spender",
          "type": "address"
        },
        {
          "internalType": "bytes32",
          "name": "kek_id",
          "type": "bytes32"
        }
      ],
      "name": "removeAllowance",
      "outputs": [],
      "stateMutability": "nonpayable",
      "type": "function"
    },
    {
      "inputs": [
        {
          "internalType": "address",
          "name": "",
          "type": "address"
        }
      ],
      "name": "rewardManagers",
      "outputs": [
        {
          "internalType": "address",
          "name": "",
          "type": "address"
        }
      ],
      "stateMutability": "view",
      "type": "function"
    },
    {
      "inputs": [
        {
          "internalType": "uint256",
          "name": "token_idx",
          "type": "uint256"
        }
      ],
      "name": "rewardRates",
      "outputs": [
        {
          "internalType": "uint256",
          "name": "rwd_rate",
          "type": "uint256"
        }
      ],
      "stateMutability": "view",
      "type": "function"
    },
    {
      "inputs": [
        {
          "internalType": "address",
          "name": "",
          "type": "address"
        }
      ],
      "name": "rewardTokenAddrToIdx",
      "outputs": [
        {
          "internalType": "uint256",
          "name": "",
          "type": "uint256"
        }
      ],
      "stateMutability": "view",
      "type": "function"
    },
    {
      "inputs": [],
      "name": "rewardsDuration",
      "outputs": [
        {
          "internalType": "uint256",
          "name": "",
          "type": "uint256"
        }
      ],
      "stateMutability": "view",
      "type": "function"
    },
    {
      "inputs": [],
      "name": "rewardsPerToken",
      "outputs": [
        {
          "internalType": "uint256[]",
          "name": "newRewardsPerTokenStored",
          "type": "uint256[]"
        }
      ],
      "stateMutability": "view",
      "type": "function"
    },
    {
      "inputs": [
        {
          "internalType": "address",
          "name": "spender",
          "type": "address"
        },
        {
          "internalType": "bytes32",
          "name": "kek_id",
          "type": "bytes32"
        },
        {
          "internalType": "uint256",
          "name": "amount",
          "type": "uint256"
        }
      ],
      "name": "setAllowance",
      "outputs": [],
      "stateMutability": "nonpayable",
      "type": "function"
    },
    {
      "inputs": [
        {
          "internalType": "address",
          "name": "spender",
          "type": "address"
        },
        {
          "internalType": "bool",
          "name": "approved",
          "type": "bool"
        }
      ],
      "name": "setApprovalForAll",
      "outputs": [],
      "stateMutability": "nonpayable",
      "type": "function"
    },
    {
      "inputs": [
        {
          "internalType": "address",
          "name": "_eth_usd_oracle_address",
          "type": "address"
        }
      ],
      "name": "setETHUSDOracle",
      "outputs": [],
      "stateMutability": "nonpayable",
      "type": "function"
    },
    {
      "inputs": [
        {
          "internalType": "uint256[6]",
          "name": "_misc_vars",
          "type": "uint256[6]"
        }
      ],
      "name": "setMiscVariables",
      "outputs": [],
      "stateMutability": "nonpayable",
      "type": "function"
    },
    {
      "inputs": [
        {
          "internalType": "bool",
          "name": "_stakingPaused",
          "type": "bool"
        },
        {
          "internalType": "bool",
          "name": "_withdrawalsPaused",
          "type": "bool"
        },
        {
          "internalType": "bool",
          "name": "_rewardsCollectionPaused",
          "type": "bool"
        }
      ],
      "name": "setPauses",
      "outputs": [],
      "stateMutability": "nonpayable",
      "type": "function"
    },
    {
      "inputs": [
        {
          "internalType": "address",
          "name": "reward_token_address",
          "type": "address"
        },
        {
          "internalType": "uint256",
          "name": "_new_rate",
          "type": "uint256"
        },
        {
          "internalType": "address",
          "name": "_gauge_controller_address",
          "type": "address"
        },
        {
          "internalType": "address",
          "name": "_rewards_distributor_address",
          "type": "address"
        }
      ],
      "name": "setRewardVars",
      "outputs": [],
      "stateMutability": "nonpayable",
      "type": "function"
    },
    {
      "inputs": [
        {
          "internalType": "address",
          "name": "",
          "type": "address"
        },
        {
          "internalType": "address",
          "name": "",
          "type": "address"
        }
      ],
      "name": "spenderApprovalForAllLocks",
      "outputs": [
        {
          "internalType": "bool",
          "name": "",
          "type": "bool"
        }
      ],
      "stateMutability": "view",
      "type": "function"
    },
    {
      "inputs": [
        {
          "internalType": "uint256",
          "name": "liquidity",
          "type": "uint256"
        },
        {
          "internalType": "uint256",
          "name": "secs",
          "type": "uint256"
        }
      ],
      "name": "stakeLocked",
      "outputs": [
        {
          "internalType": "bytes32",
          "name": "",
          "type": "bytes32"
        }
      ],
      "stateMutability": "nonpayable",
      "type": "function"
    },
    {
      "inputs": [
        {
          "internalType": "address",
          "name": "proxy_address",
          "type": "address"
        }
      ],
      "name": "stakerSetVeFXSProxy",
      "outputs": [],
      "stateMutability": "nonpayable",
      "type": "function"
    },
    {
      "inputs": [
        {
          "internalType": "address",
          "name": "",
          "type": "address"
        }
      ],
      "name": "staker_designated_proxies",
      "outputs": [
        {
          "internalType": "address",
          "name": "",
          "type": "address"
        }
      ],
      "stateMutability": "view",
      "type": "function"
    },
    {
      "inputs": [],
      "name": "stakesUnlocked",
      "outputs": [
        {
          "internalType": "bool",
          "name": "",
          "type": "bool"
        }
      ],
      "stateMutability": "view",
      "type": "function"
    },
    {
      "inputs": [],
      "name": "stakingToken",
      "outputs": [
        {
          "internalType": "contract IConvexStakingWrapperFrax",
          "name": "",
          "type": "address"
        }
      ],
      "stateMutability": "view",
      "type": "function"
    },
    {
      "inputs": [],
      "name": "sync",
      "outputs": [],
      "stateMutability": "nonpayable",
      "type": "function"
    },
    {
      "inputs": [
        {
          "internalType": "bool",
          "name": "force_update",
          "type": "bool"
        }
      ],
      "name": "sync_gauge_weights",
      "outputs": [],
      "stateMutability": "nonpayable",
      "type": "function"
    },
    {
      "inputs": [
        {
          "internalType": "address",
          "name": "_proxy_addr",
          "type": "address"
        }
      ],
      "name": "toggleValidVeFXSProxy",
      "outputs": [],
      "stateMutability": "nonpayable",
      "type": "function"
    },
    {
      "inputs": [],
      "name": "totalCombinedWeight",
      "outputs": [
        {
          "internalType": "uint256",
          "name": "",
          "type": "uint256"
        }
      ],
      "stateMutability": "view",
      "type": "function"
    },
    {
      "inputs": [],
      "name": "totalLiquidityLocked",
      "outputs": [
        {
          "internalType": "uint256",
          "name": "",
          "type": "uint256"
        }
      ],
      "stateMutability": "view",
      "type": "function"
    },
    {
      "inputs": [
        {
          "internalType": "address",
          "name": "receiver_address",
          "type": "address"
        },
        {
          "internalType": "bytes32",
          "name": "source_kek_id",
          "type": "bytes32"
        },
        {
          "internalType": "uint256",
          "name": "transfer_amount",
          "type": "uint256"
        },
        {
          "internalType": "bytes32",
          "name": "destination_kek_id",
          "type": "bytes32"
        }
      ],
      "name": "transferLocked",
      "outputs": [
        {
          "internalType": "bytes32",
          "name": "",
          "type": "bytes32"
        }
      ],
      "stateMutability": "nonpayable",
      "type": "function"
    },
    {
      "inputs": [
        {
          "internalType": "address",
          "name": "staker_address",
          "type": "address"
        },
        {
          "internalType": "address",
          "name": "receiver_address",
          "type": "address"
        },
        {
          "internalType": "bytes32",
          "name": "source_kek_id",
          "type": "bytes32"
        },
        {
          "internalType": "uint256",
          "name": "transfer_amount",
          "type": "uint256"
        },
        {
          "internalType": "bytes32",
          "name": "destination_kek_id",
          "type": "bytes32"
        }
      ],
      "name": "transferLockedFrom",
      "outputs": [
        {
          "internalType": "bytes32",
          "name": "",
          "type": "bytes32"
        }
      ],
      "stateMutability": "nonpayable",
      "type": "function"
    },
    {
      "inputs": [],
      "name": "unlockStakes",
      "outputs": [],
      "stateMutability": "nonpayable",
      "type": "function"
    },
    {
      "inputs": [
        {
          "internalType": "address",
          "name": "account",
          "type": "address"
        },
        {
          "internalType": "bool",
          "name": "sync_too",
          "type": "bool"
        }
      ],
      "name": "updateRewardAndBalance",
      "outputs": [],
      "stateMutability": "nonpayable",
      "type": "function"
    },
    {
      "inputs": [
        {
          "internalType": "address",
          "name": "account",
          "type": "address"
        }
      ],
      "name": "userStakedFrax",
      "outputs": [
        {
          "internalType": "uint256",
          "name": "",
          "type": "uint256"
        }
      ],
      "stateMutability": "view",
      "type": "function"
    },
    {
      "inputs": [
        {
          "internalType": "address",
          "name": "account",
          "type": "address"
        }
      ],
      "name": "veFXSMultiplier",
      "outputs": [
        {
          "internalType": "uint256",
          "name": "vefxs_multiplier",
          "type": "uint256"
        }
      ],
      "stateMutability": "view",
      "type": "function"
    },
    {
      "inputs": [],
      "name": "vefxs_boost_scale_factor",
      "outputs": [
        {
          "internalType": "uint256",
          "name": "",
          "type": "uint256"
        }
      ],
      "stateMutability": "view",
      "type": "function"
    },
    {
      "inputs": [],
      "name": "vefxs_max_multiplier",
      "outputs": [
        {
          "internalType": "uint256",
          "name": "",
          "type": "uint256"
        }
      ],
      "stateMutability": "view",
      "type": "function"
    },
    {
      "inputs": [],
      "name": "vefxs_per_frax_for_max_boost",
      "outputs": [
        {
          "internalType": "uint256",
          "name": "",
          "type": "uint256"
        }
      ],
      "stateMutability": "view",
      "type": "function"
    },
    {
      "inputs": [
        {
          "internalType": "bytes32",
          "name": "kek_id",
          "type": "bytes32"
        },
        {
          "internalType": "address",
          "name": "destination_address",
          "type": "address"
        }
      ],
      "name": "withdrawLocked",
      "outputs": [
        {
          "internalType": "uint256",
          "name": "",
          "type": "uint256"
        }
      ],
      "stateMutability": "nonpayable",
      "type": "function"
    }
  ],
  "bytecode": {
    "object": "0x60c0604052346200005c575b620000266200001962000386565b9594909493919362000413565b6040516162a062000b89823960805181818161252a015281816126da0152818161277501526128ea015260a0518150506162a090f35b62000065600080fd5b6200000b565b600080fd5b50634e487b7160e01b600052604160045260246000fd5b90601f01601f191681019081106001600160401b03821117620000a957604052565b620000b362000070565b604052565b90620000cf620000c760405190565b928362000087565b565b6001600160a01b031690565b90565b6001600160a01b0381165b036200006b57565b90505190620000cf82620000e0565b60209081906001600160401b0381116200011b57020190565b6200012562000070565b020190565b90929192620001436200013d8262000102565b620000b8565b938185526020808601920283019281841162000186575b915b8383106200016a5750505050565b602080916200017a8486620000f3565b8152019201916200015c565b6200018f600080fd5b6200015a565b90620000dd9181601f82011215620001b4575b6020815191016200012a565b620001bd600080fd5b620001a8565b80620000eb565b90505190620000cf82620001c3565b90929192620001ec6200013d8262000102565b93818552602080860192028301928184116200022f575b915b838310620002135750505050565b60208091620002238486620001ca565b81520192019162000205565b62000238600080fd5b62000203565b90620000dd9181601f820112156200025d575b602081519101620001d9565b62000266600080fd5b62000251565b60e08183031262000377575b620002848282620000f3565b92620002a683602084015160018060401b03811162000368575b840162000195565b92620002c881604085015160018060401b0381116200034a575b850162000195565b92620002ea82606083015160018060401b03811162000359575b83016200023e565b92620000dd6200030f84608085015160018060401b0381116200034a57850162000195565b93620003318160a086015160018060401b0381116200033b575b860162000195565b9360c001620000f3565b62000344600080fd5b62000329565b62000353600080fd5b620002c0565b62000362600080fd5b620002e2565b62000371600080fd5b6200029e565b62000380600080fd5b62000278565b620003a962006e29803803806200039d81620000b8565b9283398101906200026c565b90919293949596565b620000dd90620000d1906001600160a01b031682565b620000dd90620003b2565b620000dd90620003c8565b906001600160a01b03905b9181191691161790565b9062000407620000dd6200040f92620003d3565b8254620003de565b9055565b90620004249695949392916200044f565b620000cf62000447735f4ec3df9cbd43714fe2740f5e3616155c5b8419620003d3565b6027620003f3565b620000cf96506200084c565b620000dd620000dd620000dd9290565b9060001990620003e9565b906200048a620000dd6200040f926200045b565b82546200046b565b50634e487b7160e01b600052601160045260246000fd5b620000cf62000492565b9160001960089290920291821b911b620003e9565b9190620004dd620000dd6200040f936200045b565b908354620004b3565b620000cf91600091620004c8565b81811062000500575050565b80620005106000600193620004e6565b01620004f4565b90918281106200052657505050565b620000cf92906200053e905b92600052602060002090565b9081019101620004f4565b90620000cf916801000000000000000082116200056d575b80549082815562000517565b6200057762000070565b62000561565b6001620005b16200053262000590855190565b94838060401b038611620005ee575b620005ab868662000549565b60200190565b92049160005b838110620005c55750505050565b6001906020620005e0620000dd86516001600160a01b031690565b9401938184015501620005b7565b620005f862000070565b6200059f565b90620000cf916200057d565b81811062000616575050565b80620006266000600193620004e6565b016200060a565b90918281106200063c57505050565b620000cf92906200064d9062000532565b90810191016200060a565b90620000cf916801000000000000000082116200067c575b8054908281556200062d565b6200068662000070565b62000670565b6001620006ba620005326200069f855190565b94838060401b038611620006ee575b620005ab868662000658565b92049160005b838110620006ce5750505050565b6001906020620006e0620000dd865190565b9401938184015501620006c0565b620006f862000070565b620006ae565b90620000cf916200068c565b60019060001981146200071b570190565b6200072562000492565b0190565b50634e487b7160e01b600052603260045260246000fd5b90602080916200074e845190565b8110156200075d575b02010190565b6200076762000729565b62000757565b906200077990620003d3565b600052602052604060002090565b620007aa60019162000797815490565b841015620007b357600052602060002090565b91020190600090565b620007bd62000729565b600052602060002090565b90620007f4620000cf9280549068010000000000000000821015620007fb575b60018201815562000787565b90620004c8565b6200080562000070565b620007e8565b9060ff90620003e9565b9062000828620000dd6200040f92151590565b82546200080b565b620000dd62093a806200045b565b91908201809211620004a957565b946200093762000947949395620008696200093f94999862000a69565b6200088873c8418af6358ffdda74e09ca9cc3fe03ca6adc5b0620003d3565b60805273853d955acef822db058eb8505911ed77f175b99e60a05262000922671bc16d674ec80000620008bb816200045b565b620008c881600662000476565b620008d96301e13380600762000476565b620008e962091050600862000476565b62000919673782dace9d9000009162000902836200045b565b936200091085600962000476565b50600a62000476565b50600b62000476565b6200092f896010620005fe565b6011620005fe565b6012620005fe565b6013620006fe565b600062000954816200045b565b925b62000963620000dd865190565b84101562000a1757620009a0846200099a60146200099362000986848b62000740565b516001600160a01b031690565b906200076d565b62000476565b62000a046015620009bd620009b5856200045b565b8092620007c8565b620009cd62000986878762000740565b620009ee81620009e8600f62000993620009868c8e62000740565b620003f3565b50620009fc816019620007c8565b601a620007c8565b62000a0f846200070a565b935062000956565b935091505062000a2981602162000815565b5062000a4d4262000a3c81600562000476565b62000a4662000830565b906200083e565b62000a5a81600462000476565b50565b620000dd60016200045b565b62000a749062000b0d565b62000a7e62000a5d565b62000a5a81600262000476565b620000d1620000dd620000dd9290565b620000dd9062000a8b565b1562000aae57565b60405162461bcd60e51b815260206004820152601960248201527f4f776e657220616464726573732063616e6e6f742062652030000000000000006044820152606490fd5b6001600160a01b0391821681529116602082015260400190565b60009062000b1b8262000a9b565b9162000b3c6001600160a01b0384166001600160a01b038416141562000aa6565b62000b488282620003f3565b507fb532073b38c83145e3e5135377a08bf9aab55bc0fd7c1179cd4fb995d2a5159c9162000b8362000b7960405190565b9283928362000af3565b0390a156fe60806040526004361015610018575b610016600080fd5b005b60003560e01c80628cc26214610607578063061a7bf5146105fe5780630d7bac4f146105f557806312edb24c146105ec5780631627540c146105e357806317b18c89146105da5780631bcb7d90146105d15780631c1f78eb146105c85780631e090f01146105bf5780631face856146105b6578063218751b2146105ad578063231b68dc146105a457806328408bab1461059b5780632c0c2a0a1461059257806336f89af214610589578063386a952514610580578063387edc86146105775780633c62c44f1461056e57806341a16f3f146105655780634f39059c1461055c5780634fd2b5361461055357806353a47bb71461054a57806355189773146105415780635bfd92581461053857806364f2c0601461052f578063663b135c14610526578063693392451461051d5780636c430dbb146105145780636e27cef91461050b57806370641a361461050257806372f702f3146104f9578063741d3c18146104f0578063774d4ae7146104e75780637910d17b146104de5780637970833e146104d557806379ba5097146104cc5780637ab44e40146104c35780637d6ef08e146104ba5780637f472e54146104b15780638980f11f146104a85780638bad86a71461049f5780638da5cb5b1461049657806391cf600a1461048d5780639637927f14610484578063a0f234761461047b578063a10d3b3314610472578063a22cb46514610469578063aa1d4fce14610460578063b61aa08c14610457578063b85efd061461044e578063b94c4dcb14610445578063bdb123e31461043c578063c00007b014610433578063c35438261461042a578063c8f33c9114610421578063ca6df29d14610418578063cc2abd641461040f578063cdc82e8014610406578063d2010fb4146103fd578063d2fbdc0d146103f4578063d42fc9b4146103eb578063d5e1a9c6146103e2578063d7400d56146103d9578063d9f96e8d146103d0578063de1a6551146103c7578063e01f62bf146103be578063e1ba95d2146103b5578063e44b9fa5146103ac578063e7f30582146103a3578063ebe2b12b1461039a578063f288baf614610391578063f2a8d34914610388578063f2caeb1e1461037f578063f77e34d114610376578063facefb641461036d5763fff6cae90361000e57610368611ca5565b61000e565b50610368611c7e565b50610368611ade565b50610368611a97565b50610368611a6d565b50610368611a37565b50610368611a01565b506103686119ce565b506103686119a3565b50610368611954565b5061036861192a565b50610368611902565b506103686118d8565b506103686118b1565b50610368611886565b50610368611812565b506103686117ea565b506103686117c0565b5061036861178a565b50610368611756565b506103686116ee565b506103686116c4565b5061036861168e565b50610368611664565b5061036861163a565b50610368611610565b506103686115dc565b506103686115b4565b5061036861158a565b50610368611556565b5061036861152e565b50610368611504565b506103686114da565b506103686114a7565b5061036861147d565b50610368611438565b506103686113f2565b506103686113c8565b5061036861139e565b50610368611361565b506103686112d7565b50610368611296565b5061036861114c565b50610368611121565b506103686110d2565b506103686110a8565b50610368611072565b50610368611048565b50610368611012565b50610368610fd6565b50610368610f7b565b50610368610ef7565b50610368610ece565b50610368610ea6565b50610368610e36565b50610368610e00565b50610368610dd6565b50610368610da0565b50610368610d60565b50610368610cef565b50610368610cc5565b50610368610c7a565b50610368610c50565b50610368610bfe565b50610368610bbc565b50610368610b86565b50610368610b1f565b50610368610ae9565b50610368610a24565b506103686109f9565b50610368610917565b506103686108ba565b50610368610884565b506103686107d1565b50610368610776565b506103686106eb565b600080fd5b73ffffffffffffffffffffffffffffffffffffffff1690565b90565b73ffffffffffffffffffffffffffffffffffffffff81165b0361061057565b9050359061065d82610631565b565b9061062e916020818303121561065057610677600080fd5b610650565b9052565b0190565b906106a461069d610693845190565b8084529260200190565b9260200190565b9060005b8181106106b55750505090565b9091926106d26106cb6001928651815260200190565b9460200190565b9291016106a8565b602080825261062e92910190610684565b5034610718575b61071461070861070336600461065f565b6122c3565b604051918291826106da565b0390f35b610720600080fd5b6106f2565b80610649565b9050359061065d82610725565b9091606082840312610769575b61062e6107528484610650565b93610760816020860161072b565b9360400161072b565b610771600080fd5b610745565b50346107a7575b61071461079461078e366004610738565b91615073565b6040515b91829182901515815260200190565b6107af600080fd5b61077d565b9061062e916020818303121561072b576107cc600080fd5b61072b565b50346107ff575b6107146107ee6107e93660046107b4565b61247e565b6040515b9182918290815260200190565b610807600080fd5b6107d8565b600091031261081757565b61065d600080fd5b9061082e61069d610693845190565b9060005b81811061083f5750505090565b90919261086b6106cb600192865173ffffffffffffffffffffffffffffffffffffffff16815260200190565b929101610832565b602080825261062e9291019061081f565b50346108ad575b61089636600461080c565b6107146108a1611e0e565b60405191829182610873565b6108b5600080fd5b61088b565b50346108d9575b6108d46108cf36600461065f565b615bfe565b604051005b6108e1600080fd5b6108c1565b919061062e9060408482031261090a575b610901818561072b565b9360200161072b565b610912600080fd5b6108f7565b5034610935575b6107146107ee61092f3660046108e6565b90614a8c565b61093d600080fd5b61091e565b919061062e90604084820312610966575b61095d8185610650565b93602001610650565b61096e600080fd5b610953565b61061561062e61062e9273ffffffffffffffffffffffffffffffffffffffff1690565b61062e90610973565b61062e90610996565b906109b29061099f565b600052602052604060002090565b61062e916008021c5b60ff1690565b9061062e91546109c0565b6109f461062e926109ef6026936000946109a8565b6109a8565b6109cf565b5034610a17575b610714610794610a11366004610942565b906109da565b610a1f600080fd5b610a00565b5034610a41575b610a3636600461080c565b6107146107086123c9565b610a49600080fd5b610a2b565b8051825261065d91906080908190610a6b60208201516020860152565b610a7a60408201516040860152565b610a8960608201516060860152565b0151910152565b906106808160a093610a4e565b90610aac61069d610693845190565b9060005b818110610abd5750505090565b909192610ad06106cb6001928651610a90565b929101610ab0565b602080825261062e92910190610a9d565b5034610b12575b610714610b06610b0136600461065f565b6143fa565b60405191829182610ad8565b610b1a600080fd5b610af0565b5034610b3c575b6107146107ee610b3736600461065f565b6124e8565b610b44600080fd5b610b26565b61062e916008021c610615565b9061062e9154610b49565b61062e60006023610b56565b61067c9061099f565b60208101929161065d9190610b6d565b5034610baf575b610b9836600461080c565b610714610ba3610b61565b60405191829182610b76565b610bb7600080fd5b610b8d565b5034610bda575b610714610794610bd4366004610942565b90611cdf565b610be2600080fd5b610bc3565b61062e90610bf96020916000926109a8565b610b56565b5034610c43575b610714610c1b610c1636600461065f565b610be7565b6040515b9182918273ffffffffffffffffffffffffffffffffffffffff909116815260200190565b610c4b600080fd5b610c05565b5034610c6d575b6107146107ee610c6836600461065f565b612674565b610c75600080fd5b610c57565b5034610c97575b6107146107ee610c9236600461065f565b612467565b610c9f600080fd5b610c81565b61062e61062e61062e9290565b61062e62093a80610ca4565b61062e610cb1565b5034610ce2575b610cd736600461080c565b6107146107ee610cbd565b610cea600080fd5b610ccc565b5034610d09575b6108d4610d0436600461065f565b612f98565b610d11600080fd5b610cf6565b608081830312610d53575b610d2b8282610650565b9261062e610d3c846020850161072b565b93610d4a816040860161072b565b9360600161072b565b610d5b600080fd5b610d21565b5034610d81575b6107146107ee610d78366004610d16565b92919091615255565b610d89600080fd5b610d67565b61062e90610bf9600f916000926109a8565b5034610dbd575b610714610c1b610db836600461065f565b610d8e565b610dc5600080fd5b610da7565b61062e60006022610b56565b5034610df3575b610de836600461080c565b610714610ba3610dca565b610dfb600080fd5b610ddd565b5034610e1d575b6107146107ee610e1836600461065f565b6125fe565b610e25600080fd5b610e07565b61062e60006001610b56565b5034610e53575b610e4836600461080c565b610714610c1b610e2a565b610e5b600080fd5b610e3d565b801515610649565b9050359061065d82610e60565b919061062e90604084820312610e99575b610e908185610650565b93602001610e68565b610ea1600080fd5b610e86565b5034610ec1575b6108d4610ebb366004610e75565b90612c65565b610ec9600080fd5b610ead565b5034610eea575b610ee036600461080c565b61071460006107ee565b610ef2600080fd5b610ed5565b5034610f14575b610f0936600461080c565b6107146107ee61245d565b610f1c600080fd5b610efe565b919060a083820312610f6e575b610f388184610650565b92610f468260208301610650565b9261062e610f57846040850161072b565b93610f65816060860161072b565b9360800161072b565b610f76600080fd5b610f2e565b5034610f9c575b6107146107ee610f93366004610f21565b93929092615163565b610fa4600080fd5b610f82565b61062e916008021c81565b9061062e9154610fa9565b61062e90610fd16014916000926109a8565b610fb4565b5034610ff3575b6107146107ee610fee36600461065f565b610fbf565b610ffb600080fd5b610fdd565b61062e90610fd16018916000926109a8565b503461102f575b6107146107ee61102a36600461065f565b611000565b611037600080fd5b611019565b61062e60006008610fb4565b5034611065575b61105a36600461080c565b6107146107ee61103c565b61106d600080fd5b61104f565b503461108f575b61108436600461080c565b610714610708612194565b611097600080fd5b611079565b61062e60056021610b56565b50346110c5575b6110ba36600461080c565b610714610ba361109c565b6110cd600080fd5b6110af565b50346110ec575b6108d46110e736600461065f565b615fd1565b6110f4600080fd5b6110d9565b919061062e90604084820312611114575b6109018185610650565b61111c600080fd5b61110a565b503461113f575b6107146107ee6111393660046110f9565b90614107565b611147600080fd5b611128565b503461116a575b610714610708611164366004610e75565b90613021565b611172600080fd5b611153565b507f4e487b7100000000000000000000000000000000000000000000000000000000600052603260045260246000fd5b6111c76005916111b5815490565b8410156111d057600052602060002090565b91020190600090565b6111d8611177565b600052602060002090565b61062e9081565b61062e90546111e3565b91906112046024936000946109a8565b8054821015611255576112189293506111a7565b50611222816111ea565b9161122f600183016111ea565b9161123c600282016111ea565b9161062e600461124e600385016111ea565b93016111ea565b8380fd5b9095949261065d9461128b6112929261128460809661127d60a088019c6000890152565b6020870152565b6040850152565b6060830152565b0152565b50346112ca575b6107146112b46112ae3660046110f9565b906111f4565b916112c195939560405190565b95869586611259565b6112d2600080fd5b61129d565b50346112f1575b6112e936600461080c565b6108d4615cbf565b6112f9600080fd5b6112de565b909160608284031261132f575b61062e6113188484610650565b93611326816020860161072b565b93604001610650565b611337600080fd5b61130b565b906109b2565b9061062e926109ef610fd19261135c6025956000966109a8565b61133c565b503461137f575b6107146107ee6113793660046112fe565b91611342565b611387600080fd5b611368565b61062e90610fd1601f916000926109a8565b50346113bb575b6107146107ee6113b636600461065f565b61138c565b6113c3600080fd5b6113a5565b50346113e5575b6107146107ee6113e036600461065f565b612620565b6113ed600080fd5b6113cf565b503461140d575b6108d46114073660046110f9565b90613c58565b611415600080fd5b6113f9565b90815260608101939261065d929091604091611292905b6020830152565b5034611465575b61071461145561145036600461065f565b614258565b6040519193915b9384938461141a565b61146d600080fd5b61143f565b61062e600080610b56565b503461149a575b61148f36600461080c565b610714610c1b611472565b6114a2600080fd5b611484565b50346114c1575b6108d46114bc36600461065f565b613a50565b6114c9600080fd5b6114ae565b61062e600060216109cf565b50346114f7575b6114ec36600461080c565b6107146107946114ce565b6114ff600080fd5b6114e1565b5034611521575b6107146107ee61151c36600461065f565b612510565b611529600080fd5b61150b565b5034611549575b6108d4611543366004610738565b91614f30565b611551600080fd5b611535565b5034611571575b6108d461156b366004610e75565b9061501a565b611579600080fd5b61155d565b61062e60006009610fb4565b50346115a7575b61159c36600461080c565b6107146107ee61157e565b6115af600080fd5b611591565b50346115cf575b6108d46115c93660046110f9565b90614fad565b6115d7600080fd5b6115bb565b50346115f7575b6108d46115f13660046108e6565b906146f4565b6115ff600080fd5b6115e3565b61062e60006007610fb4565b503461162d575b61162236600461080c565b6107146107ee611604565b611635600080fd5b611617565b5034611657575b61164c36600461080c565b6107146107ee615e31565b61165f600080fd5b611641565b5034611681575b61071461070861167c36600461065f565b612fe3565b611689600080fd5b61166b565b50346116ab575b610714610c1b6116a636600461065f565b61264b565b6116b3600080fd5b611695565b61062e60006005610fb4565b50346116e1575b6116d636600461080c565b6107146107ee6116b8565b6116e9600080fd5b6116cb565b503461170b575b6107146107ee61170636600461065f565b614416565b611713600080fd5b6116f5565b9091606082840312611749575b61062e6117328484610e68565b936117408160208601610e68565b93604001610e68565b611751600080fd5b611725565b5034611771575b6108d461176b366004611718565b916139e4565b611779600080fd5b61175d565b61062e60006006610fb4565b50346117a7575b61179c36600461080c565b6107146107ee61177e565b6117af600080fd5b611791565b61062e60006003610fb4565b50346117dd575b6117d236600461080c565b6107146107ee6117b4565b6117e5600080fd5b6117c7565b5034611805575b6108d46117ff3660046108e6565b90614a4d565b61180d600080fd5b6117f1565b503461182f575b6107146107ee61182a36600461065f565b6124b8565b611837600080fd5b611819565b608081830312611879575b6118518282610650565b9261062e611862846020850161072b565b936118708160408601610650565b93606001610650565b611881600080fd5b611847565b50346118a4575b6108d461189b36600461183c565b92919091614047565b6118ac600080fd5b61188d565b50346118cb575b6108d46118c636600461065f565b612ba8565b6118d3600080fd5b6118b8565b50346118f5575b6107146107ee6118f036600461065f565b612446565b6118fd600080fd5b6118df565b503461191d575b6108d4611917366004610942565b90614079565b611925600080fd5b611909565b5034611947575b61193c36600461080c565b6107146107ee61243c565b61194f600080fd5b611931565b503461196e575b61196636600461080c565b6108d4613a1b565b611976600080fd5b61195b565b919061062e90604084820312611996575b61095d818561072b565b61199e600080fd5b61198c565b50346119c1575b6107146107ee6119bb36600461197b565b90614ced565b6119c9600080fd5b6119aa565b50346119e8575b6108d46119e336600461065f565b612a7b565b6119f0600080fd5b6119d5565b61062e60006004610fb4565b5034611a1e575b611a1336600461080c565b6107146107ee6119f5565b611a26600080fd5b611a08565b61062e6000600a610fb4565b5034611a54575b611a4936600461080c565b6107146107ee611a2b565b611a5c600080fd5b611a3e565b61062e6000600b610fb4565b5034611a8a575b611a7f36600461080c565b6107146107ee611a61565b611a92600080fd5b611a74565b5034611ab4575b6107146107ee611aaf3660046107b4565b611f1a565b611abc600080fd5b611a9e565b9061062e9160208183031215610e6857611ad9600080fd5b610e68565b5034611af8575b6108d4611af3366004611ac1565b61327a565b611b00600080fd5b611ae5565b601f017fffffffffffffffffffffffffffffffffffffffffffffffffffffffffffffffe01690565b507f4e487b7100000000000000000000000000000000000000000000000000000000600052604160045260246000fd5b90601f017fffffffffffffffffffffffffffffffffffffffffffffffffffffffffffffffe016810190811067ffffffffffffffff821117611b9d57604052565b611ba5611b2d565b604052565b9061065d611bb760405190565b9283611b5d565b60209067ffffffffffffffff8111611bd4570290565b611bdc611b2d565b0290565b90929192611bf5611bf082611bbe565b611baa565b936020859202830192818411611c2e575b915b838310611c155750505050565b60208091611c23848661072b565b815201920191611c08565b611c36600080fd5b611c06565b9061062e9181601f82011215611c54575b600690611be0565b611c5c600080fd5b611c4c565b9061062e9160c08183031215611c3b57611c79600080fd5b611c3b565b5034611c98575b6108d4611c93366004611c61565b613f8a565b611ca0600080fd5b611c85565b5034611cbf575b611cb736600461080c565b6108d4613426565b611cc7600080fd5b611cac565b61062e90610615565b61062e9054611ccc565b90611ced6106156000611cd5565b73ffffffffffffffffffffffffffffffffffffffff831603611d10575050600190565b611d43611d29611d24611d5d93600f6109a8565b611cd5565b9273ffffffffffffffffffffffffffffffffffffffff1690565b9173ffffffffffffffffffffffffffffffffffffffff1690565b14611d6757600090565b600190565b90611d87611d7b610693845490565b92600052602060002090565b9060005b818110611d985750505090565b909192611dd2611dcb600192611dad87611cd5565b73ffffffffffffffffffffffffffffffffffffffff16815260200190565b9460010190565b929101611d8b565b9061062e91611d6c565b9061065d611dfe92611df560405190565b93848092611dda565b0383611b5d565b61062e90611de4565b61062e6010611e05565b6111c76001916111b5815490565b61061561062e61062e9290565b61062e90611e26565b9050519061065d82610725565b9061062e9160208183031215611e3c57611e61600080fd5b611e3c565b506040513d6000823e3d90fd5b507f4e487b7100000000000000000000000000000000000000000000000000000000600052601160045260246000fd5b9190611eae565b9290565b91808302928184041490151715611ec157565b61065d611e73565b507f4e487b7100000000000000000000000000000000000000000000000000000000600052601260045260246000fd5b90611f03565b9190565b908115611f0e570490565b611f16611ec9565b0490565b611f2e611f28826011611e18565b90610b56565b611f3b6106156000611e33565b73ffffffffffffffffffffffffffffffffffffffff82161461201e57611f8e61062e926020611f76611f7185611fc2965061099f565b61099f565b630a3be75790611f8560405190565b94859260e01b90565b825260049082905afa918215612011575b600092611fd9575b50611fb6611fbc916019611e18565b90610fb4565b90611ea3565b611fd3670de0b6b3a7640000610ca4565b90611ef9565b611fbc919250612002611fb69160203d811161200a575b611ffa8183611b5d565b810190611e49565b929150611fa7565b503d611ff0565b612019611e66565b611f9f565b50611fb661062e916013611e18565b6020809167ffffffffffffffff811161204557020190565b61204d611b2d565b020190565b9061205f611bf08361202d565b918252565b369037565b9061065d61207f61207984612052565b9361202d565b7fffffffffffffffffffffffffffffffffffffffffffffffffffffffffffffffe00160208401612064565b6001907fffffffffffffffffffffffffffffffffffffffffffffffffffffffffffffffff81146120d8570190565b610680611e73565b91908203918211611ec157565b91908201809211611ec157565b9060208091612107845190565b811015612115575b02010190565b61211d611177565b61210f565b90612131611d7b610693845490565b9060005b8181106121425750505090565b90919261215f611dcb600192612157876111ea565b815260200190565b929101612135565b9061062e91612122565b9061065d611dfe9261218260405190565b93848092612167565b61062e90612171565b61219e601b6111ea565b6000906121ad611eff83610ca4565b14801561227d575b156121c5575061062e601561218b565b6121df6121d96121d460105490565b612069565b91610ca4565b915b60156121ee61062e825490565b84101561227757612207611fb685836122559450611e18565b61224f61224561223461222b61221b61229a565b61222560056111ea565b906120e0565b611fbc89611f1a565b611fbc670de0b6b3a7640000610ca4565b611fd3601c6111ea565b906120ed565b6122668161226386866120fa565b52565b50612270836120aa565b92506121e1565b50915090565b50612288601c6111ea565b612294611eff83610ca4565b146121b5565b61062e426122a860046111ea565b808210156122b4575090565b919050565b906109b290610ca4565b906122cc612194565b916010906122db6121d4835490565b908194601e6122f26122ed84836109a8565b6111ea565b600090612301611eff83610ca4565b1161230f575b505050505050565b80612321919792939495969750610ca4565b955b61232e61062e825490565b8710156123b75761062e61232e91612395612383611fc288611fbc8b6122258f8061237e6123768f6122ed9461236c6122ed898461237295506109a8565b996120fa565b5190565b9460166109a8565b6122b9565b61224f6122ed8c61237e8c60176109a8565b6123a3816122638c8c6120fa565b506123ad896120aa565b9850915050612323565b50945050505050388080808080612307565b6013906123d76121d4835490565b9081906123e46000610ca4565b935b6123f161062e825490565b8510156124355761062e6123f19161241361240b88611f1a565b611fbc610cb1565b612421816122638a8a6120fa565b5061242b876120aa565b96509150506123e6565b5091509150565b61062e601b6111ea565b6122ed61062e91612455600090565b50601d6109a8565b61062e601c6111ea565b6122ed61062e91612476600090565b50601e6109a8565b61062e906122a861249d61249260066111ea565b92611fbc60066111ea565b611fd360076111ea565b61062e670de0b6b3a7640000610ca4565b6124e061062e916124c7600090565b50611fbc6122ed6124d860036111ea565b92601d6109a8565b611fd36124a7565b6124e061062e916124f7600090565b50611fbc6122ed61250860036111ea565b92601f6109a8565b6125bc612590602061062e93612524600090565b5061254e7f000000000000000000000000000000000000000000000000000000000000000061099f565b61256c6370a0823161255f60405190565b9586948593849360e01b90565b835273ffffffffffffffffffffffffffffffffffffffff1660048301526024820190565b03915afa9081156125f1575b6000916125d3575b506125b76125b06124a7565b8092611ea3565b611ea3565b611fd36125c9600b6111ea565b611fbc60036111ea565b6125eb915060203d811161200a57611ffa8183611b5d565b386125a4565b6125f9611e66565b61259c565b6124e061261661062e92612610600090565b506124b8565b611fbc600b6111ea565b6124e061261661062e92612632600090565b506124e8565b61062e906109c9565b61062e9054612638565b61265e61265982600d6109a8565b612641565b156126665790565b611d2461062e9160206109a8565b6000906127b160009161268683610ca4565b506126908161264b565b9061269a84611e33565b9173ffffffffffffffffffffffffffffffffffffffff831673ffffffffffffffffffffffffffffffffffffffff82161480156128e05761271660206126fe7f000000000000000000000000000000000000000000000000000000000000000061099f565b6370a082319061270d60405190565b93849260e01b90565b825273ffffffffffffffffffffffffffffffffffffffff8716600483015260249082905afa9081156128d3575b6000916128b5575b50935b61276e61276461275e600a6111ea565b87611ea3565b611fbc60096111ea565b60206127997f000000000000000000000000000000000000000000000000000000000000000061099f565b6318160ddd906127a860405190565b998a9260e01b90565b825260049082905afa9687156128a8575b600097612884575b506127e190611fd36127da6124a7565b8099611ea3565b9750501561287457506127f3906125fe565b925b6127fe81610ca4565b841115612862575061282161282b9361281c848461281c9550611ea3565b611ef9565b611fbc600a6111ea565b8082111561285a5750905b81612847611eff61062e600a6111ea565b1161284e57565b905061062e600a6111ea565b919050612836565b91505061286f9150610ca4565b61282b565b61287e9150612620565b926127f5565b6127e19197506128a19060203d811161200a57611ffa8183611b5d565b96906127ca565b6128b0611e66565b6127c2565b6128cd915060203d811161200a57611ffa8183611b5d565b3861274b565b6128db611e66565b612743565b61290e60206126fe7f000000000000000000000000000000000000000000000000000000000000000061099f565b825273ffffffffffffffffffffffffffffffffffffffff8616600483015260249082905afa908115612968575b60009161294a575b509361274e565b612962915060203d811161200a57611ffa8183611b5d565b38612943565b612970611e66565b61293b565b1561297c57565b6040517f08c379a000000000000000000000000000000000000000000000000000000000815260206004820152600d60248201527f496e76616c69642070726f7879000000000000000000000000000000000000006044820152606490fd5b0390fd5b9060ff905b9181191691161790565b906129fe61062e612a0592151590565b82546129df565b9055565b9073ffffffffffffffffffffffffffffffffffffffff906129e4565b90612a3561062e612a059261099f565b8254612a09565b907fffffffffffffffffffffffffffffffffffffffffffffffffffffffffffffffff906129e4565b90612a7461062e612a0592610ca4565b8254612a3c565b33612a92612a8d61265983600d6109a8565b612975565b80612ac4600e612abf856109ef612ab7612ab3612659846109ef8a896109a8565b1590565b9586946109a8565b6129ee565b50602091612ad5611d2482856109a8565b612af473ffffffffffffffffffffffffffffffffffffffff8416611d43565b14612afe57505050565b612b2d6125086122ed83612b3c9461245561065d98612b28612b206000611e33565b9384926109a8565b612a25565b91612b37836111ea565b6120e0565b90612a64565b15612b4957565b6040517f08c379a000000000000000000000000000000000000000000000000000000000815260206004820152601d60248201527f50726f787920686173206e6f7420616c6c6f77656420796f75207965740000006044820152606490fd5b61065d90612bbd612a8d61265983600d6109a8565b612b3c612c386125086122ed612bd485600e6109a8565b612bea612be56126593380946109a8565b612b42565b612c3186612b28836020612c01611d2483836109a8565b612c0e6106156000611e33565b73ffffffffffffffffffffffffffffffffffffffff821603612c47575b506109a8565b601d6109a8565b91612c42836111ea565b6120ed565b612c5f90612b3c612b2d6125086122ed87601d6109a8565b38612c2b565b90612d41575b612c786106156000611e33565b73ffffffffffffffffffffffffffffffffffffffff821603612c975750565b612ca081614258565b90612caa84612d4e565b612cbe81612cb986600c6109a8565b612a64565b50818110612d0a5791612cfd82612cdd612d079486612cb997506120e0565b90612cec82612c42601c6111ea565b612cf781601c612a64565b506120ed565b928391601e6109a8565b50565b91612cfd82612d21612cb995612d079550826120e0565b90612d3082612b37601c6111ea565b612d3b81601c612a64565b506120e0565b612d49613426565b612c6b565b600090612d5d61061583611e33565b73ffffffffffffffffffffffffffffffffffffffff821603612d7d575050565b9091612d88826122c3565b90612d9284610ca4565b935b612d9f61062e845190565b851015612dd757612db361237286856120fa565b612dc681612cb98861237e8960176109a8565b50612dd0856120aa565b9450612d94565b612de391929450610ca4565b925b612df061062e825190565b841015612e335761062e612df091612e0c611fb6876015611e18565b612e1f81612cb98961237e8a60166109a8565b50612e29866120aa565b9550915050612de5565b50915050565b61062e6002610ca4565b15612e4a57565b6040517f08c379a000000000000000000000000000000000000000000000000000000000815260206004820152601f60248201527f5265656e7472616e637947756172643a207265656e7472616e742063616c6c006044820152606490fd5b61062e6001610ca4565b612ee690612ec160026111ea565b612ed5612ecc612e39565b91821415612e43565b612ee0816002612a64565b50612f75565b612eee612ea9565b612d07816002612a64565b61062e9060101c6109c9565b61062e9054612ef9565b15612f1657565b6040517f08c379a000000000000000000000000000000000000000000000000000000000815260206004820152601960248201527f5265776172647320636f6c6c656374696f6e20706175736564000000000000006044820152606490fd5b61065d90612d07612f866021612f05565b612f9260005b91151590565b14612f0f565b61065d90612eb3565b90612fcc91612fb060026111ea565b612fbb612ecc612e39565b612fc6816002612a64565b50612fd5565b90612eee612ea9565b5061062e90600190336131f2565b61062e906060612fa1565b90612fcc9291612ffe60026111ea565b613009612ecc612e39565b613014816002612a64565b505061062e9190336131f2565b61062e91906060612fee565b9061062e93929161303f600183612c65565b613094565b90815260608101939261065d929091604091613078905b73ffffffffffffffffffffffffffffffffffffffff166020830152565b019073ffffffffffffffffffffffffffffffffffffffff169052565b939091929350426130aa81612cb98560186109a8565b506130b56021612f05565b600091906130c690612f9284612f8c565b6010916130d46121d4845490565b9182906130e083610ca4565b975b6130ed61062e875490565b8910156131da578661312c601761226361311b8d6131126122ed8261237e89886109a8565b9283918c6120fa565b50612cb98c61237e612ab78a610ca4565b61313c61062e6123728c896120fa565b11613152575b61314b896120aa565b98506130e2565b613176613162611f288b89611e18565b896131706123728d8a6120fa565b91616077565b6131836123728a876120fa565b613190611f288b89611e18565b7f1d2f2ca53af5d2f333bd32fdd45f9c52ad8ebe31414f7792912077fcb3876dff906131bb8a61099f565b926131d28c6131c960405190565b93849384613044565b0390a2613142565b93509593509550506131ea575050565b5061065d9050565b61062e929190606061302d565b73ffffffffffffffffffffffffffffffffffffffff909116815260408101929161065d9160200152565b919060086129e491029161325c7fffffffffffffffffffffffffffffffffffffffffffffffffffffffffffffffff841b90565b921b90565b919061327261062e612a0593610ca4565b908354613229565b60009061328682610ca4565b925b601161329561062e825490565b85101561341f57611f2885826132ab9350611e18565b6132b761061585611e33565b73ffffffffffffffffffffffffffffffffffffffff8216036132e5575b506132de846120aa565b9350613288565b828315613403575b156132d457613380906020906133028161099f565b61330b8161099f565b91636472eee18461333761331e3061099f565b926133424261332c60405190565b958694859460e01b90565b8452600484016131ff565b03818c885af19081156133f6575b6000916133d9575b5061336e816133688c6019611e18565b90613261565b50505063513872bd9061270d60405190565b825260049082905afa9081156133cc575b6000916133ae575b506133a98161336887601a611e18565b6132d4565b6133c6915060203d811161200a57611ffa8183611b5d565b38613399565b6133d4611e66565b613391565b6133f09150853d811161200a57611ffa8183611b5d565b38613358565b6133fe611e66565b613350565b5042613419611eff61062e611fb689601a611e18565b116132ed565b5092505050565b613430600061327a565b600061343d816003612a64565b504261344f611eff61062e60046111ea565b1061345c5761065d6135b7565b61065d613816565b919061062e90604084820312613488575b61347f8185611e3c565b93602001611e3c565b613490600080fd5b613475565b61067c9073ffffffffffffffffffffffffffffffffffffffff1660601b90565b9061068061350e6014937f4e6f7420656e6f7567682072657761726420746f6b656e7320617661696c616281527f6c653a2000000000000000000000000000000000000000000000000000000000602082015260240190565b8092613495565b60005b8381106135285750506000910152565b8181015183820152602001613518565b613559611b056020936106809361354d815190565b80835293849260200190565b95869101613515565b602080825261062e92910190613538565b1561357b5750565b6129db9061358860405190565b9182917f08c379a000000000000000000000000000000000000000000000000000000000835260048301613562565b60006135c281610ca4565b915b60126135d161062e825490565b8410156136a857611f2884826135e79350611e18565b6135f361061584611e33565b73ffffffffffffffffffffffffffffffffffffffff821603613621575b5061361a836120aa565b92506135c4565b6040613634611f718361365e945061099f565b63092193ab9061256c866136473061099f565b9361365160405190565b9687958694859360e01b90565b03925af1801561369b575b156136105761368e9060403d8111613694575b6136868183611b5d565b810190613464565b50613610565b503d61367c565b6136a3611e66565b613669565b509091506136ba4261222560046111ea565b916136d06121d96136c9610cb1565b8095611ef9565b925b60106136df61062e825490565b8510156137d2578061379761376f611f288861379d95613767611eff6137506020613734611f71611f718f8f61372e611f2892611fbc6137238e946125b786611f1a565b9161224f6001610ca4565b99611e18565b6370a082319061256c6137463061099f565b9261255f60405190565b03915afa9081156137c5575b6000916137ad575090565b111594611e18565b61062e61377b60405190565b809261378b6020830191826134b5565b90810382520382611b5d565b90613573565b6137a6846120aa565b93506136d2565b61062e915060203d811161200a57611ffa8183611b5d565b6137cd611e66565b61375c565b506137f592935061224f906125b76137ea60046111ea565b9361224f6001610ca4565b613800816004612a64565b50613809613816565b6000612d07816003612a64565b61381e612194565b906138296000610ca4565b915b601561383861062e825490565b84101561386d5761385c849161336861385461237285876120fa565b938492611e18565b50613866836120aa565b925061382b565b5050905061387961229a565b612d07816005612a64565b1561388b57565b6040517f08c379a000000000000000000000000000000000000000000000000000000000815260206004820152601560248201527f4e6f74206f776e6572206f722074696d656c6f636b00000000000000000000006044820152606490fd5b9061065d9291613927336139016106156000611cd5565b73ffffffffffffffffffffffffffffffffffffffff82161490811561392c575b50613884565b6139c1565b905061394b738412ebf45bac1b340bbe8f318b928c466c4e39ca611d43565b1438613921565b9063ff0000009060181b6129e4565b9061397161062e612a0592151590565b8254613952565b9061ff009060081b6129e4565b9061399561062e612a0592151590565b8254613978565b9062ff00009060101b6129e4565b906139ba61062e612a0592151590565b825461399c565b6139cc816021613961565b506139d8816021613985565b50612d078160216139aa565b9061065d92916138ea565b613a00336139016106156000611cd5565b61065d613a10612ab36021612641565b612d078160216129ee565b61065d6139ef565b61065d90613a38336139016106156000611cd5565b612d07600d612abf612b20612ab361265986856109a8565b61065d90613a23565b15613a6057565b6040517f08c379a000000000000000000000000000000000000000000000000000000000815260206004820152601460248201527f4e6f74206f776e6572206f7220746b6e206d67720000000000000000000000006044820152606490fd5b9061065d91613afd3382613ad66106156000611cd5565b73ffffffffffffffffffffffffffffffffffffffff831614918215613b02575b5050613a59565b613b13565b613b0c9250611cdf565b8238613af6565b6000929183613b2181610ca4565b945b6010613b3061062e825490565b871015613c4d57611f288782613b469350611e18565b613b6573ffffffffffffffffffffffffffffffffffffffff8616611d43565b14613b7a57613b73866120aa565b9550613b23565b5090919293506001905b8180613c2d575b8215613c03575b505015613ba45761065d913390616077565b6040517f08c379a000000000000000000000000000000000000000000000000000000000815260206004820152601a60248201527f4e6f2076616c696420746f6b656e7320746f207265636f7665720000000000006044820152606490fd5b15915081613c14575b503880613b92565b9050613c26611d436106153393611cd5565b1438613c0c565b9150613c3d611d2485600f6109a8565b613c4633611d43565b1491613b8b565b509192939450613b84565b9061065d91613abf565b61065d90613c77336139016106156000611cd5565b613dc8565b906020906006811015613c8e57020190565b61204d611177565b15613c9d57565b6040517f08c379a000000000000000000000000000000000000000000000000000000000815260206004820152601360248201527f4d757374206265203e3d204d554c2050524543000000000000000000000000006044820152606490fd5b15613d0357565b6040517f08c379a000000000000000000000000000000000000000000000000000000000815260206004820152600c60248201527f4d757374206265203e3d203000000000000000000000000000000000000000006044820152606490fd5b15613d6957565b6040517f08c379a000000000000000000000000000000000000000000000000000000000815260206004820152600c60248201527f4d757374206265203e3d203100000000000000000000000000000000000000006044820152606490fd5b612372613f0591613ee9612372613e696000613e07613df2612372613dec84610ca4565b88613c7c565b613e00611eff61062e6124a7565b1015613c96565b613ea6612372613ea06001613e27612372613e2183610ca4565b8b613c7c565b613e33611eff87610ca4565b101580613f66575b80613f37575b613e4a90613cfc565b613e8f612372613e21600497613e8a8d613e6f612372613e698d610ca4565b83613c7c565b613e7b611eff89610ca4565b10159081613f10575b50613d62565b610ca4565b613e9a816006612a64565b50610ca4565b87613c7c565b613eb181600a612a64565b50613ec2612372613ea06002610ca4565b613ecd81600b612a64565b50613ede612372613ea06003610ca4565b613e9a816009612a64565b613ef4816007612a64565b50613eff6005610ca4565b90613c7c565b612d07816008612a64565b613f23915061237290613eff6005610ca4565b613f2f611eff88610ca4565b10158e613e84565b50613e4a613f51612372613f4b6003610ca4565b8c613c7c565b613f5d611eff88610ca4565b10159050613e41565b50613f77612372613e216002610ca4565b613f83611eff87610ca4565b1015613e3b565b61065d90613c62565b9061065d939291613fac3382613ad66106156000611cd5565b613ff1565b919060086129e491029161325c73ffffffffffffffffffffffffffffffffffffffff841b90565b9190613fe961062e612a059361099f565b908354613fb1565b839161401b6122ed61403893612d07966013946140218161336860149861401b6122ed888c6109a8565b90611e18565b5061403e81614038601161401b6122ed878b6109a8565b90613fd8565b506012936109a8565b9061065d939291613f93565b9061065d9161406a3382613ad66106156000611cd5565b81612b28612d0792600f6109a8565b9061065d91614053565b61062e60a0611baa565b9061065d6140f7600461409e614083565b946140af6140ab826111ea565b8752565b6140c56140be600183016111ea565b6020880152565b6140db6140d4600283016111ea565b6040880152565b6140f16140ea600383016111ea565b6060880152565b016111ea565b6080840152565b61062e9061408d565b90919061412961412360009461411e8460246109a8565b6111a7565b506140fe565b9260189061413a6122ed84846109a8565b602086019061414d611eff61062e845190565b10156142445751925b6060860192614163845190565b4293908410614212575061417a916122ed916109a8565b614188611eff61062e855190565b10156141ff576141ac611fd3916122256141a76141dd96612b37875190565b945190565b6141d76141c9846125b76107e96141c36002610ca4565b83611ef9565b61224f836125b76000610ca4565b926120ed565b915b60808101906141ef61062e835190565b84116141f9575050565b50519150565b50505061420c6000610ca4565b916141df565b6107e994925061224f915092612b3761423561420c9761423a9650612b37865190565b935190565b611fd36002610ca4565b506142526122ed84846109a8565b92614156565b600090601e9061426b6122ed82846109a8565b9361427582612674565b948594506142876122ed84601d6109a8565b9383600095614298611eff88610ca4565b149182614379575b5050801561435f575b1561433f579392935b6142bb85610ca4565b9450845b60246142d561062e6142d187846109a8565b5490565b871015614335579061224f8561224f6124e061431d8c61431760406143118f61430b6141238261411e6143239f808e91506109a8565b98614107565b96015190565b946120ed565b83611ea3565b9361432d866120aa565b9550936142bf565b5093945094509050565b946143569061423a9061224f6122ed86600c6109a8565b949392936142b2565b5061437161062e6122ed85600c6109a8565b8610156142a9565b61438892506122ed91906109a8565b614394611eff86610ca4565b1483386142a0565b906143a5825490565b6143ae81612052565b926143c26020850191600052602060002090565b6000915b8383106143d35750505050565b600560206001926143e3856140fe565b8152019201920191906143c6565b61062e9061439c565b61441161062e91614409606090565b5060246109a8565b6143f1565b6142d161062e91614409600090565b90612ee69161443460026111ea565b61443f612ecc612e39565b61444a816002612a64565b5061065d919061445b600133612c65565b61453c565b61062e9060281c610615565b61062e9054614460565b507f4e487b7100000000000000000000000000000000000000000000000000000000600052600060045260246000fd5b90612a7461062e612a059290565b61065d9190612b3c906080906004906144d5816144cf875190565b906144a6565b6144e760018201612b3c602088015190565b6144f960028201612b3c604088015190565b61450b60038201612b3c606088015190565b0192015190565b61065d9291156144b457614524614476565b6144b4565b90815260408101929161065d9160200152565b9033906145498383614731565b61455883612c42604085015190565b9060009161456583610ca4565b8511156146c9576145fb83926145f0896145e9614670986140ea614603976145a58d8f614595611f71602161446c565b9061459f3061099f565b916161dc565b6145e26145b3602085015190565b6145db6145cc60806145c6606089015190565b97015190565b976145d5614083565b9d8e0152565b60208c0152565b60408a0152565b6080860152565b61411e8860246109a8565b819391614512565b5061461c61461584612c42601b6111ea565b601b612a64565b61463761462a85601d6109a8565b612b3c85612c42836111ea565b6146408461264b565b61464c61061583611e33565b73ffffffffffffffffffffffffffffffffffffffff8216036146b5575b5083612c65565b61469a7f2640b32e7e5d0fa2a21ea06b22fbd75fda0fda384a895a5fdeef43646de47a0c9261099f565b926146b06146a760405190565b92839283614529565b0390a2565b61462a6146c391601f6109a8565b38614669565b6040517f063921df000000000000000000000000000000000000000000000000000000008152600490fd5b9061065d91614425565b614706614083565b906000825260208080808086016000815201600081520160008152016000905250565b61062e6146fe565b9161473a614729565b9160009360009461474a86610ca4565b945b602461475e61062e6142d186846109a8565b8710156147f557869061478361062e8a61477c8561411e8a876109a8565b50016111ea565b861461479b575050614794866120aa565b955061474c565b611eff9350611eaa92506147bb9161411e6147c3968361412394506109a8565b965b87015190565b036147ca57565b6040517fe6215fab000000000000000000000000000000000000000000000000000000008152600490fd5b5095611eff9195506147c39250611eaa906147bd565b90612ee69161481a60026111ea565b614825612ecc612e39565b614830816002612a64565b5061065d9190614841600133612c65565b614873565b61129261065d9461486c606094989795614865608086019a6000870152565b6020850152565b6040830152565b339061487f8183614731565b429491929185811115614a22576060840186614899825190565b600090821015614a105750612b376148af925190565b935b6148c26148be88846120e0565b9590565b8511156149e5576148d661062e60086111ea565b85106149ba576148e961062e60076111ea565b851161498f576149466145fb6146b09461493b61490860408c96015190565b6149306149148b61247e565b916140d4614920614083565b986149298d8b52565b60208a0152565b6145e9876060880152565b61411e8960246109a8565b50614952600086612c65565b61497c7fc2cf1aae6decacbc52f96b4e4fec96d4ebab5236e4ed987165537bc463014a439561099f565b9561498660405190565b94859485614846565b6040517f42d144ad000000000000000000000000000000000000000000000000000000008152600490fd5b6040517fda0f0f2a000000000000000000000000000000000000000000000000000000008152600490fd5b6040517fbdddfeec000000000000000000000000000000000000000000000000000000008152600490fd5b614a1c92509050610ca4565b936148b1565b6040517fa51620a7000000000000000000000000000000000000000000000000000000008152600490fd5b9061065d9161480b565b90612fcc9291614a6760026111ea565b614a72612ecc612e39565b614a7d816002612a64565b505061062e9142913380614c4d565b61062e91906000614a57565b9061062e9594939291614aac600183612c65565b614ae6565b61062e9060181c6109c9565b61062e9054614ab1565b61307861065d9461486c606094989795614865608086019a6000870152565b509193909290614af66021614abd565b614c2257614b0761062e60086111ea565b82106149ba57614b1a61062e60076111ea565b821161498f57614b5b90614b3f86614b35611f71602161446c565b8761459f3061099f565b614b488361247e565b9086614b5485836120ed565b918661592d565b93614b6d61461582612c42601b6111ea565b614b88614b7b84601d6109a8565b612b3c83612c42836111ea565b614bc7614b948461264b565b600090614ba361061583611e33565b73ffffffffffffffffffffffffffffffffffffffff821603614c0e575b5084612c65565b614c08614bf47ff400e72e69ef4402819dfc57eeddc66f5eb69bf405e0e8098b1946ec1ac14a229461099f565b9486614bff60405190565b94859485614ac7565b0390a290565b61462a614c1c91601f6109a8565b38614bc0565b6040517f26d1807b000000000000000000000000000000000000000000000000000000008152600490fd5b61062e94939291906000614a98565b90612fcc9291614c6c60026111ea565b614c77612ecc612e39565b614c82816002612a64565b50614c9e565b61062e9060081c6109c9565b61062e9054614c88565b50614ca96021614c94565b614cb36001612f8c565b14614cc25761062e9133614d92565b6040517f6022a9e7000000000000000000000000000000000000000000000000000000008152600490fd5b61062e91906000614c5c565b919061327261062e612a059390565b61065d91600091614cf9565b61065d91600091613261565b6000600461065d92614d3483808301614d08565b614d418360018301614d14565b614d4e8360028301614d14565b614d5b8360038301614d14565b01614d14565b61065d9115614d2057614d72614476565b614d20565b90815260608101939261065d92909160409161307890611431565b60019291614da18482846131f2565b50614dac8383614731565b9442614dbf611eff61062e606086015190565b1015908115614f11575b50614ee65760400151936000614dde81610ca4565b8611614ded575b505050505090565b614e7e614e78614e8493614e0e8987614e09611f71602161446c565b616077565b614e1f6146158a612b37601b6111ea565b614e3a614e2d88601d6109a8565b612b3c8b612b37836111ea565b614e438761264b565b614e4f61061586611e33565b73ffffffffffffffffffffffffffffffffffffffff821603614ed2575b5061411e8760246109a8565b90614d61565b83612c65565b614eae7f1d9308f6b22a2754a1c622bb30889e8f8f956c83e524d039e9d65d5f052eb9089261099f565b92614ec5614ebb60405190565b9283928784614d77565b0390a23880808080614de5565b614e2d614ee091601f6109a8565b38614e6c565b6040517f372a7fe5000000000000000000000000000000000000000000000000000000008152600490fd5b9050614f29612f8c614f236021612641565b92151590565b1438614dc9565b33614f4884612cb9846109ef8761135c8760256109a8565b614f8f614f85614f81614f7b7fa1376f00ce38a02643af0ff97dce59c2c81b4c8ad34c717ce9a44ed623e0718d9461099f565b9461099f565b9490565b946107f260405190565b0390a4565b61067c90610ca4565b60208101929161065d9190614f94565b90600091614fba83610ca4565b3390614fd381612cb9856109ef8861135c8860256109a8565b50614f8f615007614f81614f7b7fa1376f00ce38a02643af0ff97dce59c2c81b4c8ad34c717ce9a44ed623e0718d9461099f565b9461501160405190565b91829182614f9d565b3361502e83612abf846109ef8560266109a8565b61506e61506461505e7f17307eab39ab6107e8899845ad3d59bd9653f200f220920489ca2b5937696c319361099f565b9361099f565b9361079860405190565b0390a3565b61507e8160266109a8565b9061508d6126593380946109a8565b1561509b5750505050600190565b6122ed611eff926109ef6150b79561135c611eaa9560256109a8565b106150c157600190565b600090565b90612fcc95949392916150d960026111ea565b6150e4612ecc612e39565b6150ef816002612a64565b509593919492909594615106612ab384848a615073565b61512657866151229596975061511d848483615172565b6158bf565b5050565b50336129db61513460405190565b9283927f01aca06d000000000000000000000000000000000000000000000000000000008452600484016131ff565b61062e949392919060006150c6565b916025906151848361135c86856109a8565b906151936122ed3380946109a8565b8190036151bb5750612cb9906109ef612d079461135c6151b36000610ca4565b9788966109a8565b9291906151d36122ed826109ef8661135c8a886109a8565b8410156151f1576109ef612b3c9361135c61065d97612b2d956109a8565b6040517f13be252b000000000000000000000000000000000000000000000000000000008152600490fd5b90612fcc9493929161522e60026111ea565b615239612ecc612e39565b615244816002612a64565b5091615122939195949295336158bf565b61062e93929190600061521c565b9061527d969594939291615278600184612c65565b615281565b9091565b9061527d969594939291615296600185612c65565b6153f2565b7fffffffff000000000000000000000000000000000000000000000000000000008116610649565b9050519061065d8261529b565b9061062e91602081830312156152c3576152e8600080fd5b6152c3565b73ffffffffffffffffffffffffffffffffffffffff909116815261062e926080820192615337919061486c905b73ffffffffffffffffffffffffffffffffffffffff166020850152565b60608183039101526000815260200190565b61536261535c61062e9263ffffffff1690565b60e01b90565b7fffffffff000000000000000000000000000000000000000000000000000000001690565b1561061057565b61068060209167ffffffffffffffff81116153cb57601f017fffffffffffffffffffffffffffffffffffffffffffffffffffffffffffffffe01690565b611b05611b2d565b9061205f611bf08361538e565b61062e60006153d3565b61062e6153e0565b5093959492935091600090833b61540b611eff84610ca4565b116157d1575b61541b8585614731565b90919061542784611e33565b9073ffffffffffffffffffffffffffffffffffffffff821673ffffffffffffffffffffffffffffffffffffffff871614801561579c575b615770574291606085019561547461062e885190565b8410158015615755575b614ee65760408601928c615496611eff61062e875190565b118015615740575b615715578c8a61552a61062e615544978d61062e986154e36154d683601d6109ef6154c98b836109a8565b612b3c8d612b37836111ea565b612b3c89612c42836111ea565b6154ec8661264b565b61550b73ffffffffffffffffffffffffffffffffffffffff8316611d43565b036156f2575b615520611d43611d298461264b565b036156cd57505190565b82036156aa57614e7891509161411e613e8a9360246109a8565b82036155ee5750509161558184926155e994611eff96508961557a608061557461556f602086015190565b955190565b93015190565b928661592d565b968791905b6155956001614e7e8187612c65565b7fd8413caab9b66d88aed167bb4f6b308542a6953a6a54e22f67c5271d34ef97be6155bf8561099f565b90886155ca8561099f565b936155d88761145c60405190565b0390a36155e36153ea565b92615a16565b615387565b97848299611eff97958294956155e998506156098785614731565b6024939161563b9060609061563660026156278661411e8d8c6109a8565b5001612b3c8c612c42836111ea565b015190565b615649611eff61062e855190565b1061565a575b505050505050615586565b61411e6156896107e961569e97612b376156919688600499508c6156988c60036156918c61411e615689895190565b9687956109a8565b5001612a64565b50505190565b5081388080808061564f565b60026156c1613e8a9461411e612b3c9460246109a8565b500191612b37836111ea565b6156e5612372916156df601f9161264b565b906109a8565b612b3c87612c42836111ea565b615710615703601f6156df8961264b565b612b3c89612b37836111ea565b615511565b6040517f2c5211c6000000000000000000000000000000000000000000000000000000008152600490fd5b508c61574e611eff84610ca4565b111561549e565b506157606021612641565b61576a6001612f8c565b1461547e565b6040515b7f1e4ec46b000000000000000000000000000000000000000000000000000000008152600490fd5b5073ffffffffffffffffffffffffffffffffffffffff871673ffffffffffffffffffffffffffffffffffffffff87161461545e565b61586d856157de8661099f565b6157e78161099f565b634fb07105916020888a6158176157fd60405190565b978893849361580c8a60e01b90565b8552600485016152ed565b03818a865af19384156158b2575b600094615872575b506158679261584192615362925050615349565b917fffffffff000000000000000000000000000000000000000000000000000000001690565b14615387565b615411565b61536291945092615841926158a06158679560203d81116158ab575b6158988183611b5d565b8101906152d0565b95925092509261582d565b503d61588e565b6158ba611e66565b615825565b61527d9493929190600080615263565b926158ec6020610680946158ec6014886158ec859b9a8699613495565b01918252565b9061591a61065d9280549068010000000000000000821015615920575b6001820181556111a7565b90614512565b615928611b2d565b61590f565b94936159b2906140f761065d95615942600090565b506159ab61378b61597461595a6122ed8d601d6109a8565b8c61596460405190565b9384928c8c6020860194856158cf565b61598661597f825190565b9160200190565b20966140d461599a61062e8a9d60246109a8565b976149296159a6614083565b9a8b52565b6060860152565b6158f2565b73ffffffffffffffffffffffffffffffffffffffff909116815261062e93608082019390926159ea919061486c9061531a565b6060818403910152613538565b3d15615a1157615a063d6153d3565b903d6000602084013e565b606090565b9392909190600094600093803b615a2f611eff87610ca4565b1115615b0b57615a3e8161099f565b906020615a4a8361099f565b9363c42d8b9595615a793391615a5f60405190565b998a948594615a6e8c60e01b90565b8652600486016159b7565b038189875af160009581615aeb575b50615acd5750505050506001615a9b5750565b615aa36159f7565b90615ab8611eff615ab2845190565b92610ca4565b03615ac557604051615774565b805190602001fd5b50949550919350615ae79250615841915061536290615349565b1490565b615b0491965060203d81116158ab576158988183611b5d565b9438615a88565b506001955050505050565b15615b1d57565b6040517f08c379a000000000000000000000000000000000000000000000000000000000815260206004820152602f60248201527f4f6e6c792074686520636f6e7472616374206f776e6572206d6179207065726660448201527f6f726d207468697320616374696f6e00000000000000000000000000000000006064820152608490fd5b61065d90615bc033615bba611d436106156000611cd5565b14615b16565b615bcb816001612a25565b615bf97f906a1c6bd7e3091ea86693dd029a831c19049ce77f1dce2ce0bab1cacbabce2291610c1f60405190565b0390a1565b61065d90615ba2565b15615c0e57565b6040517f08c379a000000000000000000000000000000000000000000000000000000000815260206004820152603560248201527f596f75206d757374206265206e6f6d696e61746564206265666f726520796f7560448201527f2063616e20616363657074206f776e65727368697000000000000000000000006064820152608490fd5b73ffffffffffffffffffffffffffffffffffffffff909116815260408101929161065d91602090613078565b615cd933615cd3611d436106156001611cd5565b14615c07565b615ce36000611cd5565b615ced6001611cd5565b7fb532073b38c83145e3e5135377a08bf9aab55bc0fd7c1179cd4fb995d2a5159c91615d24615d1b60405190565b92839283615c93565b0390a1615d316001611cd5565b615d3c816000612a25565b50615d476000611e33565b612d07816001612a25565b69ffffffffffffffffffff8116610649565b9050519061065d82615d52565b919060a083820312615dbe575b615d888184615d64565b92615d968260208301611e3c565b9261062e615da78460408501611e3c565b93615db58160608601611e3c565b93608001615d64565b615dc6600080fd5b615d7e565b15615dd257565b6040517f08c379a000000000000000000000000000000000000000000000000000000000815260206004820152601760248201527f496e76616c696420636861696e6c696e6b2070726963650000000000000000006044820152606490fd5b615e5260a0615e43611f716027611cd5565b63feaf968c9061270d60405190565b825260049082905afa8015615f07575b600090819081908190615ed0575b61062e939450600092615e8284610ca4565b8612159384615eb5575b505082615e9b575b5050615dcb565b69ffffffffffffffffffff90811692501610153880615e94565b91935090615ec690611eff90610ca4565b1415913880615e8c565b50505050615ef761062e9160a03d8111615f00575b615eef8183611b5d565b810190615d71565b91509192615e70565b503d615ee5565b615f0f611e66565b615e62565b61065d90615f29336139016106156000611cd5565b615f94565b15615f3557565b6040517f08c379a000000000000000000000000000000000000000000000000000000000815260206004820152601560248201527f5a65726f206164647265737320646574656374656400000000000000000000006044820152606490fd5b615fc690611f71615fa86106156000611e33565b73ffffffffffffffffffffffffffffffffffffffff83161415615f2e565b612d07816027612a25565b61065d90615f14565b61536261535c61062e9290565b9050519061065d82610e60565b9061062e9160208183031215615fe75761600c600080fd5b615fe7565b1561601857565b6040517f08c379a000000000000000000000000000000000000000000000000000000000815260206004820152601f60248201527f5472616e7366657248656c7065723a205452414e534645525f4641494c4544006044820152606490fd5b6000919060046160bf84936160b061065d9761609663a9059cbb615fda565b926160a060405190565b95869460208601908152016131ff565b60208201810382520382611b5d565b82602082019151925af16160d16159f7565b816160dd575b50616011565b80519091506160ef611eff6000610ca4565b149081156160ff575b50386160d7565b6161199150602061610e825190565b818301019101615ff4565b386160f8565b73ffffffffffffffffffffffffffffffffffffffff909116815260608101939261065d9290916040916112929061305b565b1561615857565b6040517f08c379a0000000000000000000000000000000000000000000000000000000008152602060048201526024808201527f5472616e7366657248656c7065723a205452414e534645525f46524f4d5f464160448201527f494c4544000000000000000000000000000000000000000000000000000000006064820152608490fd5b6004616215600094936160b061065d9787966161fb6323b872dd615fda565b9361620560405190565b968795602087019081520161611f565b82602082019151925af16162276159f7565b81616233575b50616151565b8051909150616245611eff6000610ca4565b14908115616255575b503861622d565b6162649150602061610e825190565b3861624e56fea2646970667358221220e311f5995141d0ca6b75be39d0a1a020beae5740eeaae49ffa0a91b67340a7f664736f6c63430008110033",
    "linkReferences": {}
  },
  "methodIdentifiers": {
    "acceptOwnership()": "79ba5097",
    "calcCurCombinedWeight(address)": "8bad86a7",
    "calcCurrLockMultiplier(address,uint256)": "774d4ae7",
    "changeTokenManager(address,address)": "de1a6551",
    "combinedWeightOf(address)": "36f89af2",
    "curvePool()": "218751b2",
    "curveToken()": "4f39059c",
    "earned(address)": "008cc262",
    "fraxPerLPStored()": "d2010fb4",
    "fraxPerLPToken()": "5bfd9258",
    "getAllRewardTokens()": "12edb24c",
    "getLatestETHPriceE8()": "bdb123e3",
    "getProxyFor(address)": "c3543826",
    "getReward(address)": "c00007b0",
    "getReward2(address,bool)": "7910d17b",
    "getRewardExtraLogic(address)": "387edc86",
    "getRewardForDuration()": "1c1f78eb",
    "isApproved(address,bytes32,uint256)": "061a7bf5",
    "isTokenManagerFor(address,address)": "231b68dc",
    "kekAllowance(address,bytes32,address)": "7ab44e40",
    "lastRewardClaimTime(address)": "6c430dbb",
    "lastUpdateTime()": "c8f33c91",
    "lockAdditional(bytes32,uint256)": "b85efd06",
    "lockLonger(bytes32,uint256)": "d2fbdc0d",
    "lockMultiplier(uint256)": "0d7bac4f",
    "lock_max_multiplier()": "cdc82e80",
    "lock_time_for_max_multiplier()": "b94c4dcb",
    "lock_time_min()": "6e27cef9",
    "lockedLiquidityOf(address)": "d9f96e8d",
    "lockedStakes(address,uint256)": "7970833e",
    "lockedStakesOf(address)": "1e090f01",
    "lockedStakesOfLength(address)": "ca6df29d",
    "maxLPForMaxBoost(address)": "a0f23476",
    "minVeFXSForMaxBoost(address)": "4fd2b536",
    "minVeFXSForMaxBoostProxy(address)": "7f472e54",
    "nominateNewOwner(address)": "1627540c",
    "nominatedOwner()": "53a47bb7",
    "owner()": "8da5cb5b",
    "periodFinish()": "ebe2b12b",
    "proxyStakedFrax(address)": "1face856",
    "proxyToggleStaker(address)": "e7f30582",
    "proxy_lp_balances(address)": "7d6ef08e",
    "recoverERC20(address,uint256)": "8980f11f",
    "removeAllowance(address,bytes32)": "b61aa08c",
    "rewardManagers(address)": "41a16f3f",
    "rewardRates(uint256)": "f2caeb1e",
    "rewardTokenAddrToIdx(address)": "69339245",
    "rewardsDuration()": "386a9525",
    "rewardsPerToken()": "70641a36",
    "setAllowance(address,bytes32,uint256)": "a10d3b33",
    "setApprovalForAll(address,bool)": "a22cb465",
    "setETHUSDOracle(address)": "741d3c18",
    "setMiscVariables(uint256[6])": "facefb64",
    "setPauses(bool,bool,bool)": "cc2abd64",
    "setRewardVars(address,uint256,address,address)": "d5e1a9c6",
    "spenderApprovalForAllLocks(address,address)": "1bcb7d90",
    "stakeLocked(uint256,uint256)": "17b18c89",
    "stakerSetVeFXSProxy(address)": "d7400d56",
    "staker_designated_proxies(address)": "28408bab",
    "stakesUnlocked()": "9637927f",
    "stakingToken()": "72f702f3",
    "sync()": "fff6cae9",
    "sync_gauge_weights(bool)": "f77e34d1",
    "toggleValidVeFXSProxy(address)": "91cf600a",
    "totalCombinedWeight()": "64f2c060",
    "totalLiquidityLocked()": "e01f62bf",
    "transferLocked(address,bytes32,uint256,bytes32)": "3c62c44f",
    "transferLockedFrom(address,address,bytes32,uint256,bytes32)": "663b135c",
    "unlockStakes()": "e1ba95d2",
    "updateRewardAndBalance(address,bool)": "55189773",
    "userStakedFrax(address)": "d42fc9b4",
    "veFXSMultiplier(address)": "2c0c2a0a",
    "vefxs_boost_scale_factor()": "aa1d4fce",
    "vefxs_max_multiplier()": "f288baf6",
    "vefxs_per_frax_for_max_boost()": "f2a8d349",
    "withdrawLocked(bytes32,address)": "e44b9fa5"
  },
  "id": 32
}