{
  "abi": [
    {
      "inputs": [
        {
          "internalType": "address",
          "name": "_owner",
          "type": "address"
        },
        {
          "internalType": "address[]",
          "name": "_rewardTokens",
          "type": "address[]"
        },
        {
          "internalType": "address[]",
          "name": "_rewardManagers",
          "type": "address[]"
        },
        {
          "internalType": "uint256[]",
          "name": "_rewardRatesManual",
          "type": "uint256[]"
        },
        {
          "internalType": "address[]",
          "name": "_gaugeControllers",
          "type": "address[]"
        },
        {
          "internalType": "address[]",
          "name": "_rewardDistributors",
          "type": "address[]"
        }
      ],
      "stateMutability": "nonpayable",
      "type": "constructor"
    },
    {
      "anonymous": false,
      "inputs": [
        {
          "indexed": false,
          "internalType": "address",
          "name": "oldOwner",
          "type": "address"
        },
        {
          "indexed": false,
          "internalType": "address",
          "name": "newOwner",
          "type": "address"
        }
      ],
      "name": "OwnerChanged",
      "type": "event"
    },
    {
      "anonymous": false,
      "inputs": [
        {
          "indexed": false,
          "internalType": "address",
          "name": "newOwner",
          "type": "address"
        }
      ],
      "name": "OwnerNominated",
      "type": "event"
    },
    {
      "anonymous": false,
      "inputs": [
        {
          "indexed": true,
          "internalType": "address",
          "name": "user",
          "type": "address"
        },
        {
          "indexed": false,
          "internalType": "uint256",
          "name": "amount",
          "type": "uint256"
        },
        {
          "indexed": false,
          "internalType": "address",
          "name": "token_address",
          "type": "address"
        },
        {
          "indexed": false,
          "internalType": "address",
          "name": "destination_address",
          "type": "address"
        }
      ],
      "name": "RewardPaid",
      "type": "event"
    },
    {
      "inputs": [],
      "name": "acceptOwnership",
      "outputs": [],
      "stateMutability": "nonpayable",
      "type": "function"
    },
    {
      "inputs": [
        {
          "internalType": "address",
          "name": "account",
          "type": "address"
        }
      ],
      "name": "calcCurCombinedWeight",
      "outputs": [
        {
          "internalType": "uint256",
          "name": "old_combined_weight",
          "type": "uint256"
        },
        {
          "internalType": "uint256",
          "name": "new_vefxs_multiplier",
          "type": "uint256"
        },
        {
          "internalType": "uint256",
          "name": "new_combined_weight",
          "type": "uint256"
        }
      ],
      "stateMutability": "view",
      "type": "function"
    },
    {
      "inputs": [
        {
          "internalType": "address",
          "name": "reward_token_address",
          "type": "address"
        },
        {
          "internalType": "address",
          "name": "new_manager_address",
          "type": "address"
        }
      ],
      "name": "changeTokenManager",
      "outputs": [],
      "stateMutability": "nonpayable",
      "type": "function"
    },
    {
      "inputs": [
        {
          "internalType": "address",
          "name": "account",
          "type": "address"
        }
      ],
      "name": "combinedWeightOf",
      "outputs": [
        {
          "internalType": "uint256",
          "name": "",
          "type": "uint256"
        }
      ],
      "stateMutability": "view",
      "type": "function"
    },
    {
      "inputs": [
        {
          "internalType": "address",
          "name": "account",
          "type": "address"
        }
      ],
      "name": "earned",
      "outputs": [
        {
          "internalType": "uint256[]",
          "name": "new_earned",
          "type": "uint256[]"
        }
      ],
      "stateMutability": "view",
      "type": "function"
    },
    {
      "inputs": [],
      "name": "fraxPerLPStored",
      "outputs": [
        {
          "internalType": "uint256",
          "name": "",
          "type": "uint256"
        }
      ],
      "stateMutability": "view",
      "type": "function"
    },
    {
      "inputs": [],
      "name": "fraxPerLPToken",
      "outputs": [
        {
          "internalType": "uint256",
          "name": "",
          "type": "uint256"
        }
      ],
      "stateMutability": "nonpayable",
      "type": "function"
    },
    {
      "inputs": [],
      "name": "getAllRewardTokens",
      "outputs": [
        {
          "internalType": "address[]",
          "name": "",
          "type": "address[]"
        }
      ],
      "stateMutability": "view",
      "type": "function"
    },
    {
      "inputs": [
        {
          "internalType": "address",
          "name": "addr",
          "type": "address"
        }
      ],
      "name": "getProxyFor",
      "outputs": [
        {
          "internalType": "address",
          "name": "",
          "type": "address"
        }
      ],
      "stateMutability": "view",
      "type": "function"
    },
    {
      "inputs": [
        {
          "internalType": "address",
          "name": "destination_address",
          "type": "address"
        }
      ],
      "name": "getReward",
      "outputs": [
        {
          "internalType": "uint256[]",
          "name": "",
          "type": "uint256[]"
        }
      ],
      "stateMutability": "nonpayable",
      "type": "function"
    },
    {
      "inputs": [
        {
          "internalType": "address",
          "name": "destination_address",
          "type": "address"
        },
        {
          "internalType": "bool",
          "name": "claim_extra_too",
          "type": "bool"
        }
      ],
      "name": "getReward2",
      "outputs": [
        {
          "internalType": "uint256[]",
          "name": "",
          "type": "uint256[]"
        }
      ],
      "stateMutability": "nonpayable",
      "type": "function"
    },
    {
      "inputs": [
        {
          "internalType": "address",
          "name": "destination_address",
          "type": "address"
        }
      ],
      "name": "getRewardExtraLogic",
      "outputs": [],
      "stateMutability": "nonpayable",
      "type": "function"
    },
    {
      "inputs": [],
      "name": "getRewardForDuration",
      "outputs": [
        {
          "internalType": "uint256[]",
          "name": "rewards_per_duration_arr",
          "type": "uint256[]"
        }
      ],
      "stateMutability": "view",
      "type": "function"
    },
    {
      "inputs": [
        {
          "internalType": "uint256",
          "name": "i",
          "type": "uint256"
        }
      ],
      "name": "getRewardTokenAt",
      "outputs": [
        {
          "internalType": "address",
          "name": "",
          "type": "address"
        }
      ],
      "stateMutability": "view",
      "type": "function"
    },
    {
      "inputs": [],
      "name": "getRewardTokensLength",
      "outputs": [
        {
          "internalType": "uint256",
          "name": "",
          "type": "uint256"
        }
      ],
      "stateMutability": "view",
      "type": "function"
    },
    {
      "inputs": [
        {
          "internalType": "address",
          "name": "caller_addr",
          "type": "address"
        },
        {
          "internalType": "address",
          "name": "reward_token_addr",
          "type": "address"
        }
      ],
      "name": "isTokenManagerFor",
      "outputs": [
        {
          "internalType": "bool",
          "name": "",
          "type": "bool"
        }
      ],
      "stateMutability": "view",
      "type": "function"
    },
    {
      "inputs": [
        {
          "internalType": "address",
          "name": "",
          "type": "address"
        }
      ],
      "name": "lastRewardClaimTime",
      "outputs": [
        {
          "internalType": "uint256",
          "name": "",
          "type": "uint256"
        }
      ],
      "stateMutability": "view",
      "type": "function"
    },
    {
      "inputs": [],
      "name": "lastUpdateTime",
      "outputs": [
        {
          "internalType": "uint256",
          "name": "",
          "type": "uint256"
        }
      ],
      "stateMutability": "view",
      "type": "function"
    },
    {
      "inputs": [
        {
          "internalType": "uint256",
          "name": "secs",
          "type": "uint256"
        }
      ],
      "name": "lockMultiplier",
      "outputs": [
        {
          "internalType": "uint256",
          "name": "",
          "type": "uint256"
        }
      ],
      "stateMutability": "view",
      "type": "function"
    },
    {
      "inputs": [],
      "name": "lock_max_multiplier",
      "outputs": [
        {
          "internalType": "uint256",
          "name": "",
          "type": "uint256"
        }
      ],
      "stateMutability": "view",
      "type": "function"
    },
    {
      "inputs": [],
      "name": "lock_time_for_max_multiplier",
      "outputs": [
        {
          "internalType": "uint256",
          "name": "",
          "type": "uint256"
        }
      ],
      "stateMutability": "view",
      "type": "function"
    },
    {
      "inputs": [],
      "name": "lock_time_min",
      "outputs": [
        {
          "internalType": "uint256",
          "name": "",
          "type": "uint256"
        }
      ],
      "stateMutability": "view",
      "type": "function"
    },
    {
      "inputs": [
        {
          "internalType": "address",
          "name": "account",
          "type": "address"
        }
      ],
      "name": "lockedLiquidityOf",
      "outputs": [
        {
          "internalType": "uint256",
          "name": "",
          "type": "uint256"
        }
      ],
      "stateMutability": "view",
      "type": "function"
    },
    {
      "inputs": [
        {
          "internalType": "address",
          "name": "account",
          "type": "address"
        }
      ],
      "name": "maxLPForMaxBoost",
      "outputs": [
        {
          "internalType": "uint256",
          "name": "",
          "type": "uint256"
        }
      ],
      "stateMutability": "view",
      "type": "function"
    },
    {
      "inputs": [
        {
          "internalType": "address",
          "name": "account",
          "type": "address"
        }
      ],
      "name": "minVeFXSForMaxBoost",
      "outputs": [
        {
          "internalType": "uint256",
          "name": "",
          "type": "uint256"
        }
      ],
      "stateMutability": "view",
      "type": "function"
    },
    {
      "inputs": [
        {
          "internalType": "address",
          "name": "proxy_address",
          "type": "address"
        }
      ],
      "name": "minVeFXSForMaxBoostProxy",
      "outputs": [
        {
          "internalType": "uint256",
          "name": "",
          "type": "uint256"
        }
      ],
      "stateMutability": "view",
      "type": "function"
    },
    {
      "inputs": [
        {
          "internalType": "address",
          "name": "_owner",
          "type": "address"
        }
      ],
      "name": "nominateNewOwner",
      "outputs": [],
      "stateMutability": "nonpayable",
      "type": "function"
    },
    {
      "inputs": [],
      "name": "nominatedOwner",
      "outputs": [
        {
          "internalType": "address",
          "name": "",
          "type": "address"
        }
      ],
      "stateMutability": "view",
      "type": "function"
    },
    {
      "inputs": [],
      "name": "owner",
      "outputs": [
        {
          "internalType": "address",
          "name": "",
          "type": "address"
        }
      ],
      "stateMutability": "view",
      "type": "function"
    },
    {
      "inputs": [],
      "name": "periodFinish",
      "outputs": [
        {
          "internalType": "uint256",
          "name": "",
          "type": "uint256"
        }
      ],
      "stateMutability": "view",
      "type": "function"
    },
    {
      "inputs": [
        {
          "internalType": "address",
          "name": "proxy_address",
          "type": "address"
        }
      ],
      "name": "proxyStakedFrax",
      "outputs": [
        {
          "internalType": "uint256",
          "name": "",
          "type": "uint256"
        }
      ],
      "stateMutability": "view",
      "type": "function"
    },
    {
      "inputs": [
        {
          "internalType": "address",
          "name": "staker_address",
          "type": "address"
        }
      ],
      "name": "proxyToggleStaker",
      "outputs": [],
      "stateMutability": "nonpayable",
      "type": "function"
    },
    {
      "inputs": [
        {
          "internalType": "address",
          "name": "",
          "type": "address"
        }
      ],
      "name": "proxy_lp_balances",
      "outputs": [
        {
          "internalType": "uint256",
          "name": "",
          "type": "uint256"
        }
      ],
      "stateMutability": "view",
      "type": "function"
    },
    {
      "inputs": [
        {
          "internalType": "address",
          "name": "tokenAddress",
          "type": "address"
        },
        {
          "internalType": "uint256",
          "name": "tokenAmount",
          "type": "uint256"
        }
      ],
      "name": "recoverERC20",
      "outputs": [],
      "stateMutability": "nonpayable",
      "type": "function"
    },
    {
      "inputs": [
        {
          "internalType": "address",
          "name": "",
          "type": "address"
        }
      ],
      "name": "rewardManagers",
      "outputs": [
        {
          "internalType": "address",
          "name": "",
          "type": "address"
        }
      ],
      "stateMutability": "view",
      "type": "function"
    },
    {
      "inputs": [
        {
          "internalType": "uint256",
          "name": "token_idx",
          "type": "uint256"
        }
      ],
      "name": "rewardRates",
      "outputs": [
        {
          "internalType": "uint256",
          "name": "rwd_rate",
          "type": "uint256"
        }
      ],
      "stateMutability": "view",
      "type": "function"
    },
    {
      "inputs": [
        {
          "internalType": "address",
          "name": "",
          "type": "address"
        }
      ],
      "name": "rewardTokenAddrToIdx",
      "outputs": [
        {
          "internalType": "uint256",
          "name": "",
          "type": "uint256"
        }
      ],
      "stateMutability": "view",
      "type": "function"
    },
    {
      "inputs": [
        {
          "internalType": "uint256",
          "name": "",
          "type": "uint256"
        }
      ],
      "name": "rewardTokens",
      "outputs": [
        {
          "internalType": "address",
          "name": "",
          "type": "address"
        }
      ],
      "stateMutability": "view",
      "type": "function"
    },
    {
      "inputs": [],
      "name": "rewardsDuration",
      "outputs": [
        {
          "internalType": "uint256",
          "name": "",
          "type": "uint256"
        }
      ],
      "stateMutability": "view",
      "type": "function"
    },
    {
      "inputs": [],
      "name": "rewardsPerToken",
      "outputs": [
        {
          "internalType": "uint256[]",
          "name": "newRewardsPerTokenStored",
          "type": "uint256[]"
        }
      ],
      "stateMutability": "view",
      "type": "function"
    },
    {
      "inputs": [
        {
          "internalType": "uint256[6]",
          "name": "_misc_vars",
          "type": "uint256[6]"
        }
      ],
      "name": "setMiscVariables",
      "outputs": [],
      "stateMutability": "nonpayable",
      "type": "function"
    },
    {
      "inputs": [
        {
          "internalType": "bool",
          "name": "_stakingPaused",
          "type": "bool"
        },
        {
          "internalType": "bool",
          "name": "_withdrawalsPaused",
          "type": "bool"
        },
        {
          "internalType": "bool",
          "name": "_rewardsCollectionPaused",
          "type": "bool"
        }
      ],
      "name": "setPauses",
      "outputs": [],
      "stateMutability": "nonpayable",
      "type": "function"
    },
    {
      "inputs": [
        {
          "internalType": "address",
          "name": "reward_token_address",
          "type": "address"
        },
        {
          "internalType": "uint256",
          "name": "_new_rate",
          "type": "uint256"
        },
        {
          "internalType": "address",
          "name": "_gauge_controller_address",
          "type": "address"
        },
        {
          "internalType": "address",
          "name": "_rewards_distributor_address",
          "type": "address"
        }
      ],
      "name": "setRewardVars",
      "outputs": [],
      "stateMutability": "nonpayable",
      "type": "function"
    },
    {
      "inputs": [
        {
          "internalType": "address",
          "name": "proxy_address",
          "type": "address"
        }
      ],
      "name": "stakerSetVeFXSProxy",
      "outputs": [],
      "stateMutability": "nonpayable",
      "type": "function"
    },
    {
      "inputs": [
        {
          "internalType": "address",
          "name": "",
          "type": "address"
        }
      ],
      "name": "staker_designated_proxies",
      "outputs": [
        {
          "internalType": "address",
          "name": "",
          "type": "address"
        }
      ],
      "stateMutability": "view",
      "type": "function"
    },
    {
      "inputs": [],
      "name": "stakesUnlocked",
      "outputs": [
        {
          "internalType": "bool",
          "name": "",
          "type": "bool"
        }
      ],
      "stateMutability": "view",
      "type": "function"
    },
    {
      "inputs": [],
      "name": "sync",
      "outputs": [],
      "stateMutability": "nonpayable",
      "type": "function"
    },
    {
      "inputs": [
        {
          "internalType": "bool",
          "name": "force_update",
          "type": "bool"
        }
      ],
      "name": "sync_gauge_weights",
      "outputs": [],
      "stateMutability": "nonpayable",
      "type": "function"
    },
    {
      "inputs": [
        {
          "internalType": "address",
          "name": "_proxy_addr",
          "type": "address"
        }
      ],
      "name": "toggleValidVeFXSProxy",
      "outputs": [],
      "stateMutability": "nonpayable",
      "type": "function"
    },
    {
      "inputs": [],
      "name": "totalCombinedWeight",
      "outputs": [
        {
          "internalType": "uint256",
          "name": "",
          "type": "uint256"
        }
      ],
      "stateMutability": "view",
      "type": "function"
    },
    {
      "inputs": [],
      "name": "totalLiquidityLocked",
      "outputs": [
        {
          "internalType": "uint256",
          "name": "",
          "type": "uint256"
        }
      ],
      "stateMutability": "view",
      "type": "function"
    },
    {
      "inputs": [],
      "name": "unlockStakes",
      "outputs": [],
      "stateMutability": "nonpayable",
      "type": "function"
    },
    {
      "inputs": [
        {
          "internalType": "address",
          "name": "account",
          "type": "address"
        },
        {
          "internalType": "bool",
          "name": "sync_too",
          "type": "bool"
        }
      ],
      "name": "updateRewardAndBalance",
      "outputs": [],
      "stateMutability": "nonpayable",
      "type": "function"
    },
    {
      "inputs": [
        {
          "internalType": "address",
          "name": "account",
          "type": "address"
        }
      ],
      "name": "userStakedFrax",
      "outputs": [
        {
          "internalType": "uint256",
          "name": "",
          "type": "uint256"
        }
      ],
      "stateMutability": "view",
      "type": "function"
    },
    {
      "inputs": [
        {
          "internalType": "address",
          "name": "account",
          "type": "address"
        }
      ],
      "name": "veFXSMultiplier",
      "outputs": [
        {
          "internalType": "uint256",
          "name": "vefxs_multiplier",
          "type": "uint256"
        }
      ],
      "stateMutability": "view",
      "type": "function"
    },
    {
      "inputs": [],
      "name": "vefxs_boost_scale_factor",
      "outputs": [
        {
          "internalType": "uint256",
          "name": "",
          "type": "uint256"
        }
      ],
      "stateMutability": "view",
      "type": "function"
    },
    {
      "inputs": [],
      "name": "vefxs_max_multiplier",
      "outputs": [
        {
          "internalType": "uint256",
          "name": "",
          "type": "uint256"
        }
      ],
      "stateMutability": "view",
      "type": "function"
    },
    {
      "inputs": [],
      "name": "vefxs_per_frax_for_max_boost",
      "outputs": [
        {
          "internalType": "uint256",
          "name": "",
          "type": "uint256"
        }
      ],
      "stateMutability": "view",
      "type": "function"
    }
  ],
  "bytecode": {
    "object": "0x60c0604052346200004e575b62000026620000196200037c565b94939093929192620007f9565b604051613c4162000b36823960805181818161203501526121e2015260a051815050613c4190f35b62000057600080fd5b6200000b565b600080fd5b50634e487b7160e01b600052604160045260246000fd5b90601f01601f191681019081106001600160401b038211176200009b57604052565b620000a562000062565b604052565b90620000c1620000b960405190565b928362000079565b565b6001600160a01b031690565b90565b6001600160a01b0381165b036200005d57565b90505190620000c182620000d2565b60209081906001600160401b0381116200010d57020190565b6200011762000062565b020190565b90929192620001356200012f82620000f4565b620000aa565b938185526020808601920283019281841162000178575b915b8383106200015c5750505050565b602080916200016c8486620000e5565b8152019201916200014e565b62000181600080fd5b6200014c565b90620000cf9181601f82011215620001a6575b6020815191016200011c565b620001af600080fd5b6200019a565b80620000dd565b90505190620000c182620001b5565b90929192620001de6200012f82620000f4565b938185526020808601920283019281841162000221575b915b838310620002055750505050565b60208091620002158486620001bc565b815201920191620001f7565b6200022a600080fd5b620001f5565b90620000cf9181601f820112156200024f575b602081519101620001cb565b62000258600080fd5b62000243565b909160c0828403126200036d575b620002788383620000e5565b926200029a81602085015160018060401b0381116200035e575b850162000187565b92620002bc82604083015160018060401b0381116200034f575b830162000187565b92620000cf620002e284606085015160018060401b03811162000340575b850162000230565b936200030481608086015160018060401b03811162000331575b860162000187565b60a085015190946001600160401b03821162000322575b0162000187565b6200032b600080fd5b6200031b565b6200033a600080fd5b620002fc565b62000349600080fd5b620002da565b62000358600080fd5b620002b4565b62000367600080fd5b62000292565b62000376600080fd5b6200026c565b6200039f62004777803803806200039381620000aa565b9283398101906200025e565b909192939495565b620000cf90620000c3906001600160a01b031682565b620000cf90620003a7565b620000cf90620003bd565b620000cf620000cf620000cf9290565b90600019905b9181191691161790565b9062000407620000cf6200040f92620003d3565b8254620003e3565b9055565b50634e487b7160e01b600052601160045260246000fd5b620000c162000413565b9160001960089290920291821b911b620003e9565b91906200045e620000cf6200040f93620003d3565b90835462000434565b620000c19160009162000449565b81811062000481575050565b8062000491600060019362000467565b0162000475565b9091828110620004a757505050565b620000c19290620004bf905b92600052602060002090565b908101910162000475565b90620000c191680100000000000000008211620004ee575b80549082815562000498565b620004f862000062565b620004e2565b600162000532620004b362000511855190565b94838060401b0386116200056f575b6200052c8686620004ca565b60200190565b92049160005b838110620005465750505050565b600190602062000561620000cf86516001600160a01b031690565b940193818401550162000538565b6200057962000062565b62000520565b90620000c191620004fe565b81811062000597575050565b80620005a7600060019362000467565b016200058b565b9091828110620005bd57505050565b620000c19290620005ce90620004b3565b90810191016200058b565b90620000c191680100000000000000008211620005fd575b805490828155620005ae565b6200060762000062565b620005f1565b60016200063b620004b362000620855190565b94838060401b0386116200066f575b6200052c8686620005d9565b92049160005b8381106200064f5750505050565b600190602062000661620000cf865190565b940193818401550162000641565b6200067962000062565b6200062f565b90620000c1916200060d565b60019060001981146200069c570190565b620006a662000413565b0190565b50634e487b7160e01b600052603260045260246000fd5b9060208091620006cf845190565b811015620006de575b02010190565b620006e8620006aa565b620006d8565b90620006fa90620003c8565b600052602052604060002090565b6200072b60019162000718815490565b8410156200073457600052602060002090565b91020190600090565b6200073e620006aa565b600052602060002090565b9062000775620000c192805490680100000000000000008210156200077c575b60018201815562000708565b9062000449565b6200078662000062565b62000769565b906001600160a01b0390620003e9565b90620007b0620000cf6200040f92620003c8565b82546200078c565b9060ff90620003e9565b90620007d5620000cf6200040f92151590565b8254620007b8565b620000cf62093a80620003d3565b919082018092116200042a57565b94620008e4620008f494939562000816620008ec94999862000a8c565b6200083573c8418af6358ffdda74e09ca9cc3fe03ca6adc5b0620003c8565b60805273853d955acef822db058eb8505911ed77f175b99e60a052620008cf671bc16d674ec800006200086881620003d3565b62000875816006620003f3565b620008866301e133806007620003f3565b62000896620910506008620003f3565b620008c6673782dace9d90000091620008af83620003d3565b93620008bd856009620003f3565b50600a620003f3565b50600b620003f3565b620008dc8960106200057f565b60116200057f565b60126200057f565b60136200067f565b60006200090181620003d3565b925b62000910620000cf865190565b841015620009c4576200094d846200094760146200094062000933848b620006c1565b516001600160a01b031690565b90620006ee565b620003f3565b620009b160156200096a6200096285620003d3565b809262000749565b6200097a620009338787620006c1565b6200099b8162000995600f62000940620009338c8e620006c1565b6200079c565b50620009a981601962000749565b601a62000749565b620009bc846200068b565b935062000903565b9350915050620009d6816021620007c2565b50620009fa42620009e9816005620003f3565b620009f3620007dd565b90620007eb565b62000a07816004620003f3565b50565b620000c3620000cf620000cf9290565b620000cf9062000a0a565b1562000a2d57565b60405162461bcd60e51b815260206004820152601960248201527f4f776e657220616464726573732063616e6e6f742062652030000000000000006044820152606490fd5b6001600160a01b0391821681529116602082015260400190565b62000a9662000b1e565b60009062000aa48262000a1a565b9162000ac56001600160a01b0384166001600160a01b038416141562000a25565b62000ad28260016200079c565b507fb532073b38c83145e3e5135377a08bf9aab55bc0fd7c1179cd4fb995d2a5159c9162000b0d62000b0360405190565b9283928362000a72565b0390a1565b620000cf6001620003d3565b62000b2862000b12565b62000a07816000620003f356fe60806040526004361015610018575b610016600080fd5b005b60003560e01c80628cc2621461049f5780630d7bac4f1461049657806312edb24c1461048d5780631627540c146104845780631c1f78eb1461047b5780631face85614610472578063231b68dc146104695780632521cdd81461046057806328408bab146104575780632c0c2a0a1461044e57806336f89af214610445578063386a95251461043c578063387edc861461043357806341a16f3f1461042a5780634fd2b5361461042157806353a47bb714610418578063551897731461040f5780635bfd92581461040657806364f2c060146103fd57806369339245146103f45780636c430dbb146103eb5780636e27cef9146103e257806370641a36146103d95780637910d17b146103d057806379ba5097146103c75780637bb7bed1146103be5780637d6ef08e146103b55780637f472e54146103ac5780638980f11f146103a35780638bad86a71461039a5780638da5cb5b1461039157806391cf600a146103885780639637927f1461037f578063a0f2347614610376578063aa1d4fce1461036d578063b94c4dcb14610364578063c00007b01461035b578063c354382614610352578063c8f33c9114610349578063cc2abd6414610340578063cdc82e8014610337578063d2010fb41461032e578063d42fc9b414610325578063d5e1a9c61461031c578063d6626e0d14610313578063d7400d561461030a578063d9f96e8d14610301578063de1a6551146102f8578063e01f62bf146102ef578063e1ba95d2146102e6578063e7f30582146102dd578063ebe2b12b146102d4578063f288baf6146102cb578063f2a8d349146102c2578063f2caeb1e146102b9578063f77e34d1146102b0578063facefb64146102a75763fff6cae90361000e576102a261150a565b61000e565b506102a26114e3565b506102a2611343565b506102a26112fc565b506102a26112d2565b506102a261129c565b506102a2611266565b506102a2611233565b506102a261120c565b506102a26111e2565b506102a26111ba565b506102a2611190565b506102a2611169565b506102a261113f565b506102a2611114565b506102a26110a0565b506102a2611076565b506102a2611040565b506102a261100c565b506102a2610fa4565b506102a2610f6e565b506102a2610f44565b506102a2610f1a565b506102a2610ee4565b506102a2610eae565b506102a2610e84565b506102a2610e37565b506102a2610e0d565b506102a2610dc4565b506102a2610d7b565b506102a2610d20565b506102a2610cf6565b506102a2610cba565b506102a2610bfd565b506102a2610bd2565b506102a2610ba8565b506102a2610b7e565b506102a2610b48565b506102a2610b0c565b506102a2610ab5565b506102a2610a8c565b506102a2610a64565b506102a26109f4565b506102a26109be565b506102a2610994565b506102a261095b565b506102a2610931565b506102a26108e6565b506102a26108bc565b506102a261086a565b506102a26107c3565b506102a2610786565b506102a261072b565b506102a2610701565b506102a26106d5565b506102a261069f565b506102a26105ed565b506102a2610583565b600080fd5b73ffffffffffffffffffffffffffffffffffffffff1690565b90565b73ffffffffffffffffffffffffffffffffffffffff81165b036104a857565b905035906104f5826104c9565b565b906104c691602081830312156104e85761050f600080fd5b6104e8565b9052565b0190565b9061053c61053561052b845190565b8084529260200190565b9260200190565b9060005b81811061054d5750505090565b90919261056a6105636001928651815260200190565b9460200190565b929101610540565b60208082526104c69291019061051c565b50346105b0575b6105ac6105a061059b3660046104f7565b611dce565b60405191829182610572565b0390f35b6105b8600080fd5b61058a565b806104e1565b905035906104f5826105bd565b906104c691602081830312156105c3576105e8600080fd5b6105c3565b503461061a575b6105ac61060a6106053660046105d0565b611f89565b6040519182918290815260200190565b610622600080fd5b6105f4565b600091031261063257565b6104f5600080fd5b9061064961053561052b845190565b9060005b81811061065a5750505090565b909192610686610563600192865173ffffffffffffffffffffffffffffffffffffffff16815260200190565b92910161064d565b60208082526104c69291019061063a565b50346106c8575b6106b1366004610627565b6105ac6106bc611926565b6040519182918261068e565b6106d0600080fd5b6106a6565b50346106f4575b6106ef6106ea3660046104f7565b61168c565b604051005b6106fc600080fd5b6106dc565b503461071e575b610713366004610627565b6105ac6105a0611ed4565b610726600080fd5b610708565b5034610748575b6105ac61060a6107433660046104f7565b611ff3565b610750600080fd5b610732565b91906104c690604084820312610779575b61077081856104e8565b936020016104e8565b610781600080fd5b610766565b50346107b6575b6105ac6107a461079e366004610755565b90611811565b60405191829182901515815260200190565b6107be600080fd5b61078d565b50346107e1575b6107d5366004610627565b6105ac61060a60105490565b6107e9600080fd5b6107ca565b6104ad6104c66104c69273ffffffffffffffffffffffffffffffffffffffff1690565b6104c6906107ee565b6104c690610811565b9061082d9061081a565b600052602052604060002090565b6104c6916008021c6104ad565b906104c6915461083b565b6104c690610865602091600092610823565b610848565b50346108af575b6105ac6108876108823660046104f7565b610853565b6040515b9182918273ffffffffffffffffffffffffffffffffffffffff909116815260200190565b6108b7600080fd5b610871565b50346108d9575b6105ac61060a6108d43660046104f7565b61217f565b6108e1600080fd5b6108c3565b5034610903575b6105ac61060a6108fe3660046104f7565b611f72565b61090b600080fd5b6108ed565b6104c66104c66104c69290565b6104c662093a80610910565b6104c661091d565b503461094e575b610943366004610627565b6105ac61060a610929565b610956600080fd5b610938565b5034610975575b6106ef6109703660046104f7565b612964565b61097d600080fd5b610962565b6104c690610865600f91600092610823565b50346109b1575b6105ac6108876109ac3660046104f7565b610982565b6109b9600080fd5b61099b565b50346109db575b6105ac61060a6109d63660046104f7565b612109565b6109e3600080fd5b6109c5565b6104c660006002610848565b5034610a11575b610a06366004610627565b6105ac6108876109e8565b610a19600080fd5b6109fb565b8015156104e1565b905035906104f582610a1e565b91906104c690604084820312610a57575b610a4e81856104e8565b93602001610a26565b610a5f600080fd5b610a44565b5034610a7f575b6106ef610a79366004610a33565b9061263a565b610a87600080fd5b610a6b565b5034610aa8575b610a9e366004610627565b6105ac600061060a565b610ab0600080fd5b610a93565b5034610ad2575b610ac7366004610627565b6105ac61060a611f68565b610ada600080fd5b610abc565b6104c6916008021c81565b906104c69154610adf565b6104c690610b07601491600092610823565b610aea565b5034610b29575b6105ac61060a610b243660046104f7565b610af5565b610b31600080fd5b610b13565b6104c690610b07601891600092610823565b5034610b65575b6105ac61060a610b603660046104f7565b610b36565b610b6d600080fd5b610b4f565b6104c660006008610aea565b5034610b9b575b610b90366004610627565b6105ac61060a610b72565b610ba3600080fd5b610b85565b5034610bc5575b610bba366004610627565b6105ac6105a0611c9f565b610bcd600080fd5b610baf565b5034610bf0575b6105ac6105a0610bea366004610a33565b906129ed565b610bf8600080fd5b610bd9565b5034610c17575b610c0f366004610627565b6106ef61177b565b610c1f600080fd5b610c04565b507f4e487b7100000000000000000000000000000000000000000000000000000000600052603260045260246000fd5b610c74600191610c62815490565b841015610c7d57600052602060002090565b91020190600090565b610c85610c24565b600052602060002090565b60106000610c9c825490565b831015610cb757506104c691610cb191610c54565b90610848565b80fd5b5034610cd7575b6105ac610887610cd23660046105d0565b610c90565b610cdf600080fd5b610cc1565b6104c690610b07601f91600092610823565b5034610d13575b6105ac61060a610d0e3660046104f7565b610ce4565b610d1b600080fd5b610cfd565b5034610d3d575b6105ac61060a610d383660046104f7565b61212b565b610d45600080fd5b610d27565b91906104c690604084820312610d6e575b610d6581856104e8565b936020016105c3565b610d76600080fd5b610d5b565b5034610d96575b6106ef610d90366004610d4a565b906137e0565b610d9e600080fd5b610d82565b9081526060810193926104f5929091604091610dc0906020830152565b0152565b5034610df4575b6105ac610de5610ddc3660046104f7565b50600080918190565b60405191939193849384610da3565b610dfc600080fd5b610dcb565b6104c660006001610848565b5034610e2a575b610e1f366004610627565b6105ac610887610e01565b610e32600080fd5b610e14565b5034610e51575b6106ef610e4c3660046104f7565b6135df565b610e59600080fd5b610e3e565b6104c6916008021c5b60ff1690565b906104c69154610e5e565b6104c660006021610e6d565b5034610ea1575b610e96366004610627565b6105ac6107a4610e78565b610ea9600080fd5b610e8b565b5034610ecb575b6105ac61060a610ec63660046104f7565b61201b565b610ed3600080fd5b610eb5565b6104c660006009610aea565b5034610f01575b610ef6366004610627565b6105ac61060a610ed8565b610f09600080fd5b610eeb565b6104c660006007610aea565b5034610f37575b610f2c366004610627565b6105ac61060a610f0e565b610f3f600080fd5b610f21565b5034610f61575b6105ac6105a0610f5c3660046104f7565b6129af565b610f69600080fd5b610f4b565b5034610f8b575b6105ac610887610f863660046104f7565b612156565b610f93600080fd5b610f75565b6104c660006005610aea565b5034610fc1575b610fb6366004610627565b6105ac61060a610f98565b610fc9600080fd5b610fab565b9091606082840312610fff575b6104c6610fe88484610a26565b93610ff68160208601610a26565b93604001610a26565b611007600080fd5b610fdb565b5034611027575b6106ef611021366004610fce565b91613573565b61102f600080fd5b611013565b6104c660006006610aea565b503461105d575b611052366004610627565b6105ac61060a611034565b611065600080fd5b611047565b6104c660006003610aea565b5034611093575b611088366004610627565b6105ac61060a61106a565b61109b600080fd5b61107d565b50346110bd575b6105ac61060a6110b83660046104f7565b611fc3565b6110c5600080fd5b6110a7565b608081830312611107575b6110df82826104e8565b926104c66110f084602085016105c3565b936110fe81604086016104e8565b936060016104e8565b61110f600080fd5b6110d5565b5034611132575b6106ef6111293660046110ca565b92919091613bcf565b61113a600080fd5b61111b565b503461115c575b6105ac6108876111573660046105d0565b611930565b611164600080fd5b611146565b5034611183575b6106ef61117e3660046104f7565b61257d565b61118b600080fd5b611170565b50346111ad575b6105ac61060a6111a83660046104f7565b611f51565b6111b5600080fd5b611197565b50346111d5575b6106ef6111cf366004610755565b90613c01565b6111dd600080fd5b6111c1565b50346111ff575b6111f4366004610627565b6105ac61060a611f47565b611207600080fd5b6111e9565b5034611226575b61121e366004610627565b6106ef6135aa565b61122e600080fd5b611213565b503461124d575b6106ef6112483660046104f7565b61244b565b611255600080fd5b61123a565b6104c660006004610aea565b5034611283575b611278366004610627565b6105ac61060a61125a565b61128b600080fd5b61126d565b6104c66000600a610aea565b50346112b9575b6112ae366004610627565b6105ac61060a611290565b6112c1600080fd5b6112a3565b6104c66000600b610aea565b50346112ef575b6112e4366004610627565b6105ac61060a6112c6565b6112f7600080fd5b6112d9565b5034611319575b6105ac61060a6113143660046105d0565b611a1a565b611321600080fd5b611303565b906104c69160208183031215610a265761133e600080fd5b610a26565b503461135d575b6106ef611358366004611326565b612e09565b611365600080fd5b61134a565b601f017fffffffffffffffffffffffffffffffffffffffffffffffffffffffffffffffe01690565b507f4e487b7100000000000000000000000000000000000000000000000000000000600052604160045260246000fd5b90601f017fffffffffffffffffffffffffffffffffffffffffffffffffffffffffffffffe016810190811067ffffffffffffffff82111761140257604052565b61140a611392565b604052565b906104f561141c60405190565b92836113c2565b60209067ffffffffffffffff8111611439570290565b611441611392565b0290565b9092919261145a61145582611423565b61140f565b936020859202830192818411611493575b915b83831061147a5750505050565b6020809161148884866105c3565b81520192019161146d565b61149b600080fd5b61146b565b906104c69181601f820112156114b9575b600690611445565b6114c1600080fd5b6114b1565b906104c69160c081830312156114a0576114de600080fd5b6114a0565b50346114fd575b6106ef6114f83660046114c6565b613b12565b611505600080fd5b6114ea565b5034611524575b61151c366004610627565b6106ef612fb5565b61152c600080fd5b611511565b6104c6906104ad565b6104c69054611531565b1561154b57565b6040517f08c379a000000000000000000000000000000000000000000000000000000000815260206004820152602f60248201527f4f6e6c792074686520636f6e7472616374206f776e6572206d6179207065726660448201527f6f726d207468697320616374696f6e00000000000000000000000000000000006064820152608490fd5b0390fd5b6104f59061160c336116066115ec6104ad600161153a565b9173ffffffffffffffffffffffffffffffffffffffff1690565b14611544565b61164e565b9073ffffffffffffffffffffffffffffffffffffffff905b9181191691161790565b906116436104c661164a9261081a565b8254611611565b9055565b611659816002611633565b6116877f906a1c6bd7e3091ea86693dd029a831c19049ce77f1dce2ce0bab1cacbabce229161088b60405190565b0390a1565b6104f5906115d4565b1561169c57565b6040517f08c379a000000000000000000000000000000000000000000000000000000000815260206004820152603560248201527f596f75206d757374206265206e6f6d696e61746564206265666f726520796f7560448201527f2063616e20616363657074206f776e65727368697000000000000000000000006064820152608490fd5b73ffffffffffffffffffffffffffffffffffffffff90911681526040810192916104f5916020905b019073ffffffffffffffffffffffffffffffffffffffff169052565b6104ad6104c66104c69290565b6104c690611765565b6117953361178f6115ec6104ad600261153a565b14611695565b61179f600161153a565b6117a9600261153a565b7fb532073b38c83145e3e5135377a08bf9aab55bc0fd7c1179cd4fb995d2a5159c916117e06117d760405190565b92839283611721565b0390a16117ed600261153a565b6117f8816001611633565b506118036000611772565b61180e816002611633565b50565b9061181f6104ad600161153a565b73ffffffffffffffffffffffffffffffffffffffff831603611842575050600190565b6115ec61185b61185661187593600f610823565b61153a565b9273ffffffffffffffffffffffffffffffffffffffff1690565b1461187f57600090565b600190565b9061189f61189361052b845490565b92600052602060002090565b9060005b8181106118b05750505090565b9091926118ea6118e36001926118c58761153a565b73ffffffffffffffffffffffffffffffffffffffff16815260200190565b9460010190565b9291016118a3565b906104c691611884565b906104f56119169261190d60405190565b938480926118f2565b03836113c2565b6104c6906118fc565b6104c6601061191d565b610cb16104c69161193f600090565b506010610c54565b905051906104f5826105bd565b906104c691602081830312156119475761196c600080fd5b611947565b506040513d6000823e3d90fd5b507f4e487b7100000000000000000000000000000000000000000000000000000000600052601160045260246000fd5b818102929181159184041417156119c157565b6104f561197e565b507f4e487b7100000000000000000000000000000000000000000000000000000000600052601260045260246000fd5b90611a03565b9190565b908115611a0e570490565b611a166119c9565b0490565b611a28610cb1826011610c54565b611a356104ad6000611772565b73ffffffffffffffffffffffffffffffffffffffff821614611b1857611a886104c6926020611a70611a6b85611abc965061081a565b61081a565b630a3be75790611a7f60405190565b94859260e01b90565b825260049082905afa918215611b0b575b600092611ad3575b50611ab0611ab6916019610c54565b90610aea565b906119ae565b611acd670de0b6b3a7640000610910565b906119f9565b611ab6919250611afc611ab09160203d8111611b04575b611af481836113c2565b810190611954565b929150611aa1565b503d611aea565b611b13611971565b611a99565b50611ab06104c6916013610c54565b6104c69081565b6104c69054611b27565b6020809167ffffffffffffffff8111611b5057020190565b611b58611392565b020190565b90611b6a61145583611b38565b918252565b369037565b906104f5611b8a611b8484611b5d565b93611b38565b7fffffffffffffffffffffffffffffffffffffffffffffffffffffffffffffffe00160208401611b6f565b6001907fffffffffffffffffffffffffffffffffffffffffffffffffffffffffffffffff8114611be3570190565b61051861197e565b919082039182116119c157565b919082018092116119c157565b9060208091611c12845190565b811015611c20575b02010190565b611c28610c24565b611c1a565b90611c3c61189361052b845490565b9060005b818110611c4d5750505090565b909192611c6a6118e3600192611c6287611b2e565b815260200190565b929101611c40565b906104c691611c2d565b906104f561191692611c8d60405190565b93848092611c72565b6104c690611c7c565b611ca9601b611b2e565b600090611cb86119ff83610910565b148015611d88575b15611cd057506104c66015611c96565b611cea611ce4611cdf60105490565b611b74565b91610910565b915b6015611cf96104c6825490565b841015611d8257611d12611ab08583611d609450610c54565b611d5a611d50611d3f611d36611d26611da5565b611d306005611b2e565b90611beb565b611ab689611a1a565b611ab6670de0b6b3a7640000610910565b611acd601c611b2e565b90611bf8565b611d7181611d6e8686611c05565b52565b50611d7b83611bb5565b9250611cec565b50915090565b50611d93601c611b2e565b611d9f6119ff83610910565b14611cc0565b6104c642611db36004611b2e565b80821015611dbf575090565b919050565b9061082d90610910565b90611dd7611c9f565b91601090611de6611cdf835490565b908194601e611dfd611df88483610823565b611b2e565b600090611e0c6119ff83610910565b11611e1a575b505050505050565b80611e2c919792939495969750610910565b955b611e396104c6825490565b871015611ec2576104c6611e3991611ea0611e8e611abc88611ab68b611d308f80611e89611e818f611df894611e77611df88984611e7d9550610823565b99611c05565b5190565b946016610823565b611dc4565b611d5a611df88c611e898c6017610823565b611eae81611d6e8c8c611c05565b50611eb889611bb5565b9850915050611e2e565b50945050505050388080808080611e12565b601390611ee2611cdf835490565b908190611eef6000610910565b935b611efc6104c6825490565b851015611f40576104c6611efc91611f1e611f1688611a1a565b611ab661091d565b611f2c81611d6e8a8a611c05565b50611f3687611bb5565b9650915050611ef1565b5091509150565b6104c6601b611b2e565b611df86104c691611f60600090565b50601d610823565b6104c6601c611b2e565b611df86104c691611f81600090565b50601e610823565b6104c690611db3611fa8611f9d6006611b2e565b92611ab66006611b2e565b611acd6007611b2e565b6104c6670de0b6b3a7640000610910565b611feb6104c691611fd2600090565b50611ab6611df8611fe36003611b2e565b92601d610823565b611acd611fb2565b611feb6104c691612002600090565b50611ab6611df86120136003611b2e565b92601f610823565b6120c761209b60206104c69361202f600090565b506120597f000000000000000000000000000000000000000000000000000000000000000061081a565b6120776370a0823161206a60405190565b9586948593849360e01b90565b835273ffffffffffffffffffffffffffffffffffffffff1660048301526024820190565b03915afa9081156120fc575b6000916120de575b506120c26120bb611fb2565b80926119ae565b6119ae565b611acd6120d4600b611b2e565b611ab66003611b2e565b6120f6915060203d8111611b0457611af481836113c2565b386120af565b612104611971565b6120a7565b611feb6121216104c69261211b600090565b50611fc3565b611ab6600b611b2e565b611feb6121216104c69261213d600090565b50611ff3565b6104c690610e67565b6104c69054612143565b61216961216482600d610823565b61214c565b156121715790565b6118566104c6916020610823565b60009060009061218e82610910565b5061219881612156565b6121a183611772565b9173ffffffffffffffffffffffffffffffffffffffff831673ffffffffffffffffffffffffffffffffffffffff83161491821561236d5761221e60206122067f000000000000000000000000000000000000000000000000000000000000000061081a565b6370a082319061221560405190565b93849260e01b90565b825273ffffffffffffffffffffffffffffffffffffffff8616600483015260249082905afa908115612360575b600091612342575b50925b61228c61227961226f612269600a611b2e565b876119ae565b611ab66009611b2e565b611acd69d5075e88df90d8c00000610910565b9461229f612298611fb2565b80976119ae565b9750501561233257506122b190612109565b925b6122bc81610910565b84111561232057506122df6122e9936122da84846122da95506119ae565b6119f9565b611ab6600a611b2e565b808211156123185750905b816123056119ff6104c6600a611b2e565b1161230c57565b90506104c6600a611b2e565b9190506122f4565b91505061232d9150610910565b6122e9565b61233c915061212b565b926122b3565b61235a915060203d8111611b0457611af481836113c2565b38612253565b612368611971565b61224b565b61238069d3f851987ab37fa00000610910565b92612256565b1561238d57565b6040517f08c379a000000000000000000000000000000000000000000000000000000000815260206004820152600d60248201527f496e76616c69642070726f7879000000000000000000000000000000000000006044820152606490fd5b9060ff90611629565b906124056104c661164a92151590565b82546123ec565b907fffffffffffffffffffffffffffffffffffffffffffffffffffffffffffffffff90611629565b906124446104c661164a92610910565b825461240c565b3361246261245d61216483600d610823565b612386565b80612499600e6124948561248361248c612488612164846124838a89610823565b610823565b1590565b958694610823565b6123f5565b506020916124aa6118568285610823565b6124c973ffffffffffffffffffffffffffffffffffffffff84166115ec565b146124d357505050565b612502612013611df88361251194611f606104f5986124fd6124f56000611772565b938492610823565b611633565b9161250c83611b2e565b611beb565b90612434565b1561251e57565b6040517f08c379a000000000000000000000000000000000000000000000000000000000815260206004820152601d60248201527f50726f787920686173206e6f7420616c6c6f77656420796f75207965740000006044820152606490fd5b6104f59061259261245d61216483600d610823565b61251161260d612013611df86125a985600e610823565b6125bf6125ba612164338094610823565b612517565b612606866124fd8360206125d66118568383610823565b6125e36104ad6000611772565b73ffffffffffffffffffffffffffffffffffffffff82160361261c575b50610823565b601d610823565b9161261783611b2e565b611bf8565b61263490612511612502612013611df887601d610823565b38612600565b9061270d575b61264d6104ad6000611772565b73ffffffffffffffffffffffffffffffffffffffff82160361266c5750565b600080806126798461271a565b61268d8161268886600c610823565b612434565b508181106126d657916126cc826126ac61180e94866126889750611beb565b906126bb82612617601c611b2e565b6126c681601c612434565b50611bf8565b928391601e610823565b916126cc826126ed6126889561180e955082611beb565b906126fc8261250c601c611b2e565b61270781601c612434565b50611beb565b612715612fb5565b612640565b6000906127296104ad83611772565b73ffffffffffffffffffffffffffffffffffffffff821603612749575050565b909161275482611dce565b9061275e84610910565b935b61276b6104c6845190565b8510156127a35761277f611e7d8685611c05565b6127928161268888611e89896017610823565b5061279c85611bb5565b9450612760565b6127af91929450610910565b925b6127bc6104c6825190565b8410156127ff576104c66127bc916127d8611ab0876015610c54565b6127eb8161268889611e898a6016610823565b506127f586611bb5565b95509150506127b1565b50915050565b6104c66002610910565b1561281657565b6040517f08c379a000000000000000000000000000000000000000000000000000000000815260206004820152601f60248201527f5265656e7472616e637947756172643a207265656e7472616e742063616c6c006044820152606490fd5b6104c66001610910565b6128b29061288d6000611b2e565b6128a1612898612805565b9182141561280f565b6128ac816000612434565b50612941565b6128ba612875565b61180e816000612434565b6104c69060101c610e67565b6104c690546128c5565b156128e257565b6040517f08c379a000000000000000000000000000000000000000000000000000000000815260206004820152601960248201527f5265776172647320636f6c6c656374696f6e20706175736564000000000000006044820152606490fd5b6104f59061180e61295260216128d1565b61295e60005b91151590565b146128db565b6104f59061287f565b906129989161297c6000611b2e565b612987612898612805565b612992816000612434565b506129a1565b906128ba612875565b506104c69060019033612ba0565b6104c690606061296d565b9061299892916129ca6000611b2e565b6129d5612898612805565b6129e0816000612434565b50506104c6919033612ba0565b6104c6919060606129ba565b906104c6939291612a0b60018361263a565b612a42565b90815273ffffffffffffffffffffffffffffffffffffffff90911660208201526060810192916104f591604090611749565b93909192935042612a5881612688856018610823565b50612a6360216128d1565b60009190612a749061295e84612958565b601091612a82611cdf845490565b918290612a8e83610910565b975b612a9b6104c6875490565b891015612b885786612ada6017611d6e612ac98d612ac0611df882611e898988610823565b9283918c611c05565b506126888c611e8961248c8a610910565b612aea6104c6611e7d8c89611c05565b11612b00575b612af989611bb5565b9850612a90565b612b24612b10610cb18b89610c54565b89612b1e611e7d8d8a611c05565b91612d10565b612b31611e7d8a87611c05565b612b3e610cb18b89610c54565b7f1d2f2ca53af5d2f333bd32fdd45f9c52ad8ebe31414f7792912077fcb3876dff90612b698a61081a565b92612b808c612b7760405190565b93849384612a10565b0390a2612af0565b9350959350955050612b98575050565b506104f59050565b6104c692919060606129f9565b612bc0612bba6104c69290565b60e01b90565b7fffffffff000000000000000000000000000000000000000000000000000000001690565b73ffffffffffffffffffffffffffffffffffffffff90911681526040810192916104f59160200152565b61051860209167ffffffffffffffff8111612c4c57601f017fffffffffffffffffffffffffffffffffffffffffffffffffffffffffffffffe01690565b61136a611392565b90611b6a61145583612c0f565b3d15612c7b57612c703d612c54565b903d6000602084013e565b606090565b905051906104f582610a1e565b906104c69160208183031215612c8057612ca5600080fd5b612c80565b15612cb157565b6040517f08c379a000000000000000000000000000000000000000000000000000000000815260206004820152601f60248201527f5472616e7366657248656c7065723a205452414e534645525f4641494c4544006044820152606490fd5b600091906004612d588493612d496104f597612d2f63a9059cbb612bad565b92612d3960405190565b9586946020860190815201612be5565b602082018103825203826113c2565b82602082019151925af1612d6a612c61565b81612d76575b50612caa565b8051909150612d886119ff6000610910565b14908115612d98575b5038612d70565b612db291506020612da7825190565b818301019101612c8d565b38612d91565b91906008611629910291612deb7fffffffffffffffffffffffffffffffffffffffffffffffffffffffffffffffff841b90565b921b90565b9190612e016104c661164a93610910565b908354612db8565b600090612e1582610910565b925b6011612e246104c6825490565b851015612fae57610cb18582612e3a9350610c54565b612e466104ad85611772565b73ffffffffffffffffffffffffffffffffffffffff821603612e74575b50612e6d84611bb5565b9350612e17565b828315612f92575b15612e6357612f0f90602090612e918161081a565b612e9a8161081a565b91636472eee184612ec6612ead3061081a565b92612ed142612ebb60405190565b958694859460e01b90565b845260048401612be5565b03818c885af1908115612f85575b600091612f68575b50612efd81612ef78c6019610c54565b90612df0565b50505063513872bd9061221560405190565b825260049082905afa908115612f5b575b600091612f3d575b50612f3881612ef787601a610c54565b612e63565b612f55915060203d8111611b0457611af481836113c2565b38612f28565b612f63611971565b612f20565b612f7f9150853d8111611b0457611af481836113c2565b38612ee7565b612f8d611971565b612edf565b5042612fa86119ff6104c6611ab089601a610c54565b11612e7c565b5092505050565b612fbf6000612e09565b6000612fcc816003612434565b5042612fde6119ff6104c66004611b2e565b10612feb576104f5613146565b6104f56133a5565b91906104c690604084820312613017575b61300e8185611947565b93602001611947565b61301f600080fd5b613004565b6105149073ffffffffffffffffffffffffffffffffffffffff1660601b90565b9061051861309d6014937f4e6f7420656e6f7567682072657761726420746f6b656e7320617661696c616281527f6c653a2000000000000000000000000000000000000000000000000000000000602082015260240190565b8092613024565b60005b8381106130b75750506000910152565b81810151838201526020016130a7565b6130e861136a602093610518936130dc815190565b80835293849260200190565b958691016130a4565b60208082526104c6929101906130c7565b1561310a5750565b6115d09061311760405190565b9182917f08c379a0000000000000000000000000000000000000000000000000000000008352600483016130f1565b600061315181610910565b915b60126131606104c6825490565b84101561323757610cb184826131769350610c54565b6131826104ad84611772565b73ffffffffffffffffffffffffffffffffffffffff8216036131b0575b506131a983611bb5565b9250613153565b60406131c3611a6b836131ed945061081a565b63092193ab90612077866131d63061081a565b936131e060405190565b9687958694859360e01b90565b03925af1801561322a575b1561319f5761321d9060403d8111613223575b61321581836113c2565b810190612ff3565b5061319f565b503d61320b565b613232611971565b6131f8565b5090915061324942611d306004611b2e565b9161325f611ce461325861091d565b80956119f9565b925b601061326e6104c6825490565b85101561336157806133266132fe610cb18861332c956132f66119ff6132df60206132c3611a6b611a6b8f8f6132bd610cb192611ab66132b28e946120c286611a1a565b91611d5a6001610910565b99610c54565b6370a08231906120776132d53061081a565b9261206a60405190565b03915afa908115613354575b60009161333c575090565b111594610c54565b6104c661330a60405190565b809261331a602083019182613044565b908103825203826113c2565b90613102565b61333584611bb5565b9350613261565b6104c6915060203d8111611b0457611af481836113c2565b61335c611971565b6132eb565b50613384929350611d5a906120c26133796004611b2e565b93611d5a6001610910565b61338f816004612434565b506133986133a5565b600061180e816003612434565b6133ad611c9f565b906133b86000610910565b915b60156133c76104c6825490565b8410156133fc576133eb8491612ef76133e3611e7d8587611c05565b938492610c54565b506133f583611bb5565b92506133ba565b50509050613408611da5565b61180e816005612434565b1561341a57565b6040517f08c379a000000000000000000000000000000000000000000000000000000000815260206004820152601560248201527f4e6f74206f776e6572206f722074696d656c6f636b00000000000000000000006044820152606490fd5b906104f592916134b6336134906104ad600161153a565b73ffffffffffffffffffffffffffffffffffffffff8216149081156134bb575b50613413565b613550565b90506134da738412ebf45bac1b340bbe8f318b928c466c4e39ca6115ec565b14386134b0565b9063ff0000009060181b611629565b906135006104c661164a92151590565b82546134e1565b9061ff009060081b611629565b906135246104c661164a92151590565b8254613507565b9062ff00009060101b611629565b906135496104c661164a92151590565b825461352b565b61355b8160216134f0565b50613567816021613514565b5061180e816021613539565b906104f59291613479565b61358f336134906104ad600161153a565b6104f561359f612488602161214c565b61180e8160216123f5565b6104f561357e565b6104f5906135c7336134906104ad600161153a565b61180e600d6124946124f56124886121648685610823565b6104f5906135b2565b156135ef57565b6040517f08c379a000000000000000000000000000000000000000000000000000000000815260206004820152601460248201527f4e6f74206f776e6572206f7220746b6e206d67720000000000000000000000006044820152606490fd5b906104f59161368c33826136656104ad600161153a565b73ffffffffffffffffffffffffffffffffffffffff831614918215613691575b50506135e8565b6136a2565b61369b9250611811565b8238613685565b600092916136af84610910565b935b60106136be6104c6825490565b8610156137d557610cb186826136d49350610c54565b6136f373ffffffffffffffffffffffffffffffffffffffff85166115ec565b146137085761370185611bb5565b94506136b1565b509091925060015b80806137b5575b811561378e575b501561372f576104f5913390612d10565b6040517f08c379a000000000000000000000000000000000000000000000000000000000815260206004820152601a60248201527f4e6f2076616c696420746f6b656e7320746f207265636f7665720000000000006044820152606490fd5b1590508061379d575b3861371e565b50336137af6115ec6104ad600161153a565b14613797565b90506137c561185684600f610823565b6137ce336115ec565b1490613717565b509091929350613710565b906104f59161364e565b6104f5906137ff336134906104ad600161153a565b613950565b90602090600681101561381657020190565b611b58610c24565b1561382557565b6040517f08c379a000000000000000000000000000000000000000000000000000000000815260206004820152601360248201527f4d757374206265203e3d204d554c2050524543000000000000000000000000006044820152606490fd5b1561388b57565b6040517f08c379a000000000000000000000000000000000000000000000000000000000815260206004820152600c60248201527f4d757374206265203e3d203000000000000000000000000000000000000000006044820152606490fd5b156138f157565b6040517f08c379a000000000000000000000000000000000000000000000000000000000815260206004820152600c60248201527f4d757374206265203e3d203100000000000000000000000000000000000000006044820152606490fd5b611e7d613a8d91613a71611e7d6139f1600061398f61397a611e7d61397484610910565b88613804565b6139886119ff6104c6611fb2565b101561381e565b613a2e611e7d613a2860016139af611e7d6139a983610910565b8b613804565b6139bb6119ff87610910565b101580613aee575b80613abf575b6139d290613884565b613a17611e7d6139a9600497613a128d6139f7611e7d6139f18d610910565b83613804565b613a036119ff89610910565b10159081613a98575b506138ea565b610910565b613a22816006612434565b50610910565b87613804565b613a3981600a612434565b50613a4a611e7d613a286002610910565b613a5581600b612434565b50613a66611e7d613a286003610910565b613a22816009612434565b613a7c816007612434565b50613a876005610910565b90613804565b61180e816008612434565b613aab9150611e7d90613a876005610910565b613ab76119ff88610910565b10158e613a0c565b506139d2613ad9611e7d613ad36003610910565b8c613804565b613ae56119ff88610910565b101590506139c9565b50613aff611e7d6139a96002610910565b613b0b6119ff87610910565b10156139c3565b6104f5906137ea565b906104f5939291613b3433826136656104ad600161153a565b613b79565b91906008611629910291612deb73ffffffffffffffffffffffffffffffffffffffff841b90565b9190613b716104c661164a9361081a565b908354613b39565b8391613ba3611df8613bc09361180e96601394613ba981612ef7601498613ba3611df8888c610823565b90610c54565b50613bc681613bc06011613ba3611df8878b610823565b90613b60565b50601293610823565b906104f5939291613b1b565b906104f591613bf233826136656104ad600161153a565b816124fd61180e92600f610823565b906104f591613bdb56fea2646970667358221220125daa3842c9213d6b1344abe72b2a842e76f33a17b52061b0a5baf14d2df1d464736f6c63430008110033",
    "linkReferences": {}
  },
  "methodIdentifiers": {
    "acceptOwnership()": "79ba5097",
    "calcCurCombinedWeight(address)": "8bad86a7",
    "changeTokenManager(address,address)": "de1a6551",
    "combinedWeightOf(address)": "36f89af2",
    "earned(address)": "008cc262",
    "fraxPerLPStored()": "d2010fb4",
    "fraxPerLPToken()": "5bfd9258",
    "getAllRewardTokens()": "12edb24c",
    "getProxyFor(address)": "c3543826",
    "getReward(address)": "c00007b0",
    "getReward2(address,bool)": "7910d17b",
    "getRewardExtraLogic(address)": "387edc86",
    "getRewardForDuration()": "1c1f78eb",
    "getRewardTokenAt(uint256)": "d6626e0d",
    "getRewardTokensLength()": "2521cdd8",
    "isTokenManagerFor(address,address)": "231b68dc",
    "lastRewardClaimTime(address)": "6c430dbb",
    "lastUpdateTime()": "c8f33c91",
    "lockMultiplier(uint256)": "0d7bac4f",
    "lock_max_multiplier()": "cdc82e80",
    "lock_time_for_max_multiplier()": "b94c4dcb",
    "lock_time_min()": "6e27cef9",
    "lockedLiquidityOf(address)": "d9f96e8d",
    "maxLPForMaxBoost(address)": "a0f23476",
    "minVeFXSForMaxBoost(address)": "4fd2b536",
    "minVeFXSForMaxBoostProxy(address)": "7f472e54",
    "nominateNewOwner(address)": "1627540c",
    "nominatedOwner()": "53a47bb7",
    "owner()": "8da5cb5b",
    "periodFinish()": "ebe2b12b",
    "proxyStakedFrax(address)": "1face856",
    "proxyToggleStaker(address)": "e7f30582",
    "proxy_lp_balances(address)": "7d6ef08e",
    "recoverERC20(address,uint256)": "8980f11f",
    "rewardManagers(address)": "41a16f3f",
    "rewardRates(uint256)": "f2caeb1e",
    "rewardTokenAddrToIdx(address)": "69339245",
    "rewardTokens(uint256)": "7bb7bed1",
    "rewardsDuration()": "386a9525",
    "rewardsPerToken()": "70641a36",
    "setMiscVariables(uint256[6])": "facefb64",
    "setPauses(bool,bool,bool)": "cc2abd64",
    "setRewardVars(address,uint256,address,address)": "d5e1a9c6",
    "stakerSetVeFXSProxy(address)": "d7400d56",
    "staker_designated_proxies(address)": "28408bab",
    "stakesUnlocked()": "9637927f",
    "sync()": "fff6cae9",
    "sync_gauge_weights(bool)": "f77e34d1",
    "toggleValidVeFXSProxy(address)": "91cf600a",
    "totalCombinedWeight()": "64f2c060",
    "totalLiquidityLocked()": "e01f62bf",
    "unlockStakes()": "e1ba95d2",
    "updateRewardAndBalance(address,bool)": "55189773",
    "userStakedFrax(address)": "d42fc9b4",
    "veFXSMultiplier(address)": "2c0c2a0a",
    "vefxs_boost_scale_factor()": "aa1d4fce",
    "vefxs_max_multiplier()": "f288baf6",
    "vefxs_per_frax_for_max_boost()": "f2a8d349"
  },
  "id": 45
}