{
  "abi": [
    {
      "inputs": [
        {
          "internalType": "string",
          "name": "_name",
          "type": "string"
        },
        {
          "internalType": "string",
          "name": "_symbol",
          "type": "string"
        },
        {
          "internalType": "address",
          "name": "_oracle_address",
          "type": "address"
        },
        {
          "internalType": "address",
          "name": "_creator_address",
          "type": "address"
        },
        {
          "internalType": "address",
          "name": "_timelock_address",
          "type": "address"
        }
      ],
      "stateMutability": "nonpayable",
      "type": "constructor"
    },
    {
      "anonymous": false,
      "inputs": [
        {
          "indexed": true,
          "internalType": "address",
          "name": "owner",
          "type": "address"
        },
        {
          "indexed": true,
          "internalType": "address",
          "name": "spender",
          "type": "address"
        },
        {
          "indexed": false,
          "internalType": "uint256",
          "name": "value",
          "type": "uint256"
        }
      ],
      "name": "Approval",
      "type": "event"
    },
    {
      "anonymous": false,
      "inputs": [
        {
          "indexed": false,
          "internalType": "address",
          "name": "addr",
          "type": "address"
        }
      ],
      "name": "FRAXAddressSet",
      "type": "event"
    },
    {
      "anonymous": false,
      "inputs": [
        {
          "indexed": true,
          "internalType": "address",
          "name": "from",
          "type": "address"
        },
        {
          "indexed": true,
          "internalType": "address",
          "name": "to",
          "type": "address"
        },
        {
          "indexed": false,
          "internalType": "uint256",
          "name": "amount",
          "type": "uint256"
        }
      ],
      "name": "FXSBurned",
      "type": "event"
    },
    {
      "anonymous": false,
      "inputs": [
        {
          "indexed": true,
          "internalType": "address",
          "name": "from",
          "type": "address"
        },
        {
          "indexed": true,
          "internalType": "address",
          "name": "to",
          "type": "address"
        },
        {
          "indexed": false,
          "internalType": "uint256",
          "name": "amount",
          "type": "uint256"
        }
      ],
      "name": "FXSMinted",
      "type": "event"
    },
    {
      "anonymous": false,
      "inputs": [
        {
          "indexed": false,
          "internalType": "address",
          "name": "oldOwner",
          "type": "address"
        },
        {
          "indexed": false,
          "internalType": "address",
          "name": "newOwner",
          "type": "address"
        }
      ],
      "name": "OwnerChanged",
      "type": "event"
    },
    {
      "anonymous": false,
      "inputs": [
        {
          "indexed": false,
          "internalType": "address",
          "name": "newOwner",
          "type": "address"
        }
      ],
      "name": "OwnerNominated",
      "type": "event"
    },
    {
      "anonymous": false,
      "inputs": [
        {
          "indexed": true,
          "internalType": "bytes32",
          "name": "role",
          "type": "bytes32"
        },
        {
          "indexed": true,
          "internalType": "bytes32",
          "name": "previousAdminRole",
          "type": "bytes32"
        },
        {
          "indexed": true,
          "internalType": "bytes32",
          "name": "newAdminRole",
          "type": "bytes32"
        }
      ],
      "name": "RoleAdminChanged",
      "type": "event"
    },
    {
      "anonymous": false,
      "inputs": [
        {
          "indexed": true,
          "internalType": "bytes32",
          "name": "role",
          "type": "bytes32"
        },
        {
          "indexed": true,
          "internalType": "address",
          "name": "account",
          "type": "address"
        },
        {
          "indexed": true,
          "internalType": "address",
          "name": "sender",
          "type": "address"
        }
      ],
      "name": "RoleGranted",
      "type": "event"
    },
    {
      "anonymous": false,
      "inputs": [
        {
          "indexed": true,
          "internalType": "bytes32",
          "name": "role",
          "type": "bytes32"
        },
        {
          "indexed": true,
          "internalType": "address",
          "name": "account",
          "type": "address"
        },
        {
          "indexed": true,
          "internalType": "address",
          "name": "sender",
          "type": "address"
        }
      ],
      "name": "RoleRevoked",
      "type": "event"
    },
    {
      "anonymous": false,
      "inputs": [
        {
          "indexed": true,
          "internalType": "address",
          "name": "from",
          "type": "address"
        },
        {
          "indexed": true,
          "internalType": "address",
          "name": "to",
          "type": "address"
        },
        {
          "indexed": false,
          "internalType": "uint256",
          "name": "value",
          "type": "uint256"
        }
      ],
      "name": "Transfer",
      "type": "event"
    },
    {
      "anonymous": false,
      "inputs": [
        {
          "indexed": true,
          "internalType": "address",
          "name": "voter",
          "type": "address"
        },
        {
          "indexed": false,
          "internalType": "uint256",
          "name": "previousBalance",
          "type": "uint256"
        },
        {
          "indexed": false,
          "internalType": "uint256",
          "name": "newBalance",
          "type": "uint256"
        }
      ],
      "name": "VoterVotesChanged",
      "type": "event"
    },
    {
      "inputs": [],
      "name": "DEFAULT_ADMIN_ROLE",
      "outputs": [
        {
          "internalType": "bytes32",
          "name": "",
          "type": "bytes32"
        }
      ],
      "stateMutability": "view",
      "type": "function"
    },
    {
      "inputs": [],
      "name": "FRAXStablecoinAdd",
      "outputs": [
        {
          "internalType": "address",
          "name": "",
          "type": "address"
        }
      ],
      "stateMutability": "view",
      "type": "function"
    },
    {
      "inputs": [],
      "name": "acceptOwnership",
      "outputs": [],
      "stateMutability": "nonpayable",
      "type": "function"
    },
    {
      "inputs": [
        {
          "internalType": "address",
          "name": "owner",
          "type": "address"
        },
        {
          "internalType": "address",
          "name": "spender",
          "type": "address"
        }
      ],
      "name": "allowance",
      "outputs": [
        {
          "internalType": "uint256",
          "name": "",
          "type": "uint256"
        }
      ],
      "stateMutability": "view",
      "type": "function"
    },
    {
      "inputs": [
        {
          "internalType": "address",
          "name": "spender",
          "type": "address"
        },
        {
          "internalType": "uint256",
          "name": "amount",
          "type": "uint256"
        }
      ],
      "name": "approve",
      "outputs": [
        {
          "internalType": "bool",
          "name": "",
          "type": "bool"
        }
      ],
      "stateMutability": "nonpayable",
      "type": "function"
    },
    {
      "inputs": [
        {
          "internalType": "address",
          "name": "account",
          "type": "address"
        }
      ],
      "name": "balanceOf",
      "outputs": [
        {
          "internalType": "uint256",
          "name": "",
          "type": "uint256"
        }
      ],
      "stateMutability": "view",
      "type": "function"
    },
    {
      "inputs": [
        {
          "internalType": "uint256",
          "name": "amount",
          "type": "uint256"
        }
      ],
      "name": "burn",
      "outputs": [],
      "stateMutability": "nonpayable",
      "type": "function"
    },
    {
      "inputs": [
        {
          "internalType": "address",
          "name": "account",
          "type": "address"
        },
        {
          "internalType": "uint256",
          "name": "amount",
          "type": "uint256"
        }
      ],
      "name": "burnFrom",
      "outputs": [],
      "stateMutability": "nonpayable",
      "type": "function"
    },
    {
      "inputs": [
        {
          "internalType": "address",
          "name": "",
          "type": "address"
        },
        {
          "internalType": "uint32",
          "name": "",
          "type": "uint32"
        }
      ],
      "name": "checkpoints",
      "outputs": [
        {
          "internalType": "uint32",
          "name": "fromBlock",
          "type": "uint32"
        },
        {
          "internalType": "uint96",
          "name": "votes",
          "type": "uint96"
        }
      ],
      "stateMutability": "view",
      "type": "function"
    },
    {
      "inputs": [],
      "name": "decimals",
      "outputs": [
        {
          "internalType": "uint8",
          "name": "",
          "type": "uint8"
        }
      ],
      "stateMutability": "view",
      "type": "function"
    },
    {
      "inputs": [
        {
          "internalType": "address",
          "name": "spender",
          "type": "address"
        },
        {
          "internalType": "uint256",
          "name": "subtractedValue",
          "type": "uint256"
        }
      ],
      "name": "decreaseAllowance",
      "outputs": [
        {
          "internalType": "bool",
          "name": "",
          "type": "bool"
        }
      ],
      "stateMutability": "nonpayable",
      "type": "function"
    },
    {
      "inputs": [],
      "name": "genesis_supply",
      "outputs": [
        {
          "internalType": "uint256",
          "name": "",
          "type": "uint256"
        }
      ],
      "stateMutability": "view",
      "type": "function"
    },
    {
      "inputs": [
        {
          "internalType": "address",
          "name": "account",
          "type": "address"
        }
      ],
      "name": "getCurrentVotes",
      "outputs": [
        {
          "internalType": "uint96",
          "name": "",
          "type": "uint96"
        }
      ],
      "stateMutability": "view",
      "type": "function"
    },
    {
      "inputs": [
        {
          "internalType": "address",
          "name": "account",
          "type": "address"
        },
        {
          "internalType": "uint256",
          "name": "blockNumber",
          "type": "uint256"
        }
      ],
      "name": "getPriorVotes",
      "outputs": [
        {
          "internalType": "uint96",
          "name": "",
          "type": "uint96"
        }
      ],
      "stateMutability": "view",
      "type": "function"
    },
    {
      "inputs": [
        {
          "internalType": "bytes32",
          "name": "role",
          "type": "bytes32"
        }
      ],
      "name": "getRoleAdmin",
      "outputs": [
        {
          "internalType": "bytes32",
          "name": "",
          "type": "bytes32"
        }
      ],
      "stateMutability": "view",
      "type": "function"
    },
    {
      "inputs": [
        {
          "internalType": "bytes32",
          "name": "role",
          "type": "bytes32"
        },
        {
          "internalType": "uint256",
          "name": "index",
          "type": "uint256"
        }
      ],
      "name": "getRoleMember",
      "outputs": [
        {
          "internalType": "address",
          "name": "",
          "type": "address"
        }
      ],
      "stateMutability": "view",
      "type": "function"
    },
    {
      "inputs": [
        {
          "internalType": "bytes32",
          "name": "role",
          "type": "bytes32"
        }
      ],
      "name": "getRoleMemberCount",
      "outputs": [
        {
          "internalType": "uint256",
          "name": "",
          "type": "uint256"
        }
      ],
      "stateMutability": "view",
      "type": "function"
    },
    {
      "inputs": [
        {
          "internalType": "bytes32",
          "name": "role",
          "type": "bytes32"
        },
        {
          "internalType": "address",
          "name": "account",
          "type": "address"
        }
      ],
      "name": "grantRole",
      "outputs": [],
      "stateMutability": "nonpayable",
      "type": "function"
    },
    {
      "inputs": [
        {
          "internalType": "bytes32",
          "name": "role",
          "type": "bytes32"
        },
        {
          "internalType": "address",
          "name": "account",
          "type": "address"
        }
      ],
      "name": "hasRole",
      "outputs": [
        {
          "internalType": "bool",
          "name": "",
          "type": "bool"
        }
      ],
      "stateMutability": "view",
      "type": "function"
    },
    {
      "inputs": [
        {
          "internalType": "address",
          "name": "spender",
          "type": "address"
        },
        {
          "internalType": "uint256",
          "name": "addedValue",
          "type": "uint256"
        }
      ],
      "name": "increaseAllowance",
      "outputs": [
        {
          "internalType": "bool",
          "name": "",
          "type": "bool"
        }
      ],
      "stateMutability": "nonpayable",
      "type": "function"
    },
    {
      "inputs": [
        {
          "internalType": "address",
          "name": "to",
          "type": "address"
        },
        {
          "internalType": "uint256",
          "name": "amount",
          "type": "uint256"
        }
      ],
      "name": "mint",
      "outputs": [],
      "stateMutability": "nonpayable",
      "type": "function"
    },
    {
      "inputs": [],
      "name": "name",
      "outputs": [
        {
          "internalType": "string",
          "name": "",
          "type": "string"
        }
      ],
      "stateMutability": "view",
      "type": "function"
    },
    {
      "inputs": [
        {
          "internalType": "address",
          "name": "_owner",
          "type": "address"
        }
      ],
      "name": "nominateNewOwner",
      "outputs": [],
      "stateMutability": "nonpayable",
      "type": "function"
    },
    {
      "inputs": [],
      "name": "nominatedOwner",
      "outputs": [
        {
          "internalType": "address",
          "name": "",
          "type": "address"
        }
      ],
      "stateMutability": "view",
      "type": "function"
    },
    {
      "inputs": [
        {
          "internalType": "address",
          "name": "",
          "type": "address"
        }
      ],
      "name": "numCheckpoints",
      "outputs": [
        {
          "internalType": "uint32",
          "name": "",
          "type": "uint32"
        }
      ],
      "stateMutability": "view",
      "type": "function"
    },
    {
      "inputs": [],
      "name": "oracle_address",
      "outputs": [
        {
          "internalType": "address",
          "name": "",
          "type": "address"
        }
      ],
      "stateMutability": "view",
      "type": "function"
    },
    {
      "inputs": [],
      "name": "owner",
      "outputs": [
        {
          "internalType": "address",
          "name": "",
          "type": "address"
        }
      ],
      "stateMutability": "view",
      "type": "function"
    },
    {
      "inputs": [
        {
          "internalType": "address",
          "name": "b_address",
          "type": "address"
        },
        {
          "internalType": "uint256",
          "name": "b_amount",
          "type": "uint256"
        }
      ],
      "name": "pool_burn_from",
      "outputs": [],
      "stateMutability": "nonpayable",
      "type": "function"
    },
    {
      "inputs": [
        {
          "internalType": "address",
          "name": "m_address",
          "type": "address"
        },
        {
          "internalType": "uint256",
          "name": "m_amount",
          "type": "uint256"
        }
      ],
      "name": "pool_mint",
      "outputs": [],
      "stateMutability": "nonpayable",
      "type": "function"
    },
    {
      "inputs": [
        {
          "internalType": "bytes32",
          "name": "role",
          "type": "bytes32"
        },
        {
          "internalType": "address",
          "name": "account",
          "type": "address"
        }
      ],
      "name": "renounceRole",
      "outputs": [],
      "stateMutability": "nonpayable",
      "type": "function"
    },
    {
      "inputs": [
        {
          "internalType": "bytes32",
          "name": "role",
          "type": "bytes32"
        },
        {
          "internalType": "address",
          "name": "account",
          "type": "address"
        }
      ],
      "name": "revokeRole",
      "outputs": [],
      "stateMutability": "nonpayable",
      "type": "function"
    },
    {
      "inputs": [
        {
          "internalType": "address",
          "name": "frax_contract_address",
          "type": "address"
        }
      ],
      "name": "setFRAXAddress",
      "outputs": [],
      "stateMutability": "nonpayable",
      "type": "function"
    },
    {
      "inputs": [
        {
          "internalType": "address",
          "name": "new_oracle",
          "type": "address"
        }
      ],
      "name": "setOracle",
      "outputs": [],
      "stateMutability": "nonpayable",
      "type": "function"
    },
    {
      "inputs": [
        {
          "internalType": "address",
          "name": "new_timelock",
          "type": "address"
        }
      ],
      "name": "setTimelock",
      "outputs": [],
      "stateMutability": "nonpayable",
      "type": "function"
    },
    {
      "inputs": [],
      "name": "symbol",
      "outputs": [
        {
          "internalType": "string",
          "name": "",
          "type": "string"
        }
      ],
      "stateMutability": "view",
      "type": "function"
    },
    {
      "inputs": [],
      "name": "timelock_address",
      "outputs": [
        {
          "internalType": "address",
          "name": "",
          "type": "address"
        }
      ],
      "stateMutability": "view",
      "type": "function"
    },
    {
      "inputs": [],
      "name": "toggleVotes",
      "outputs": [],
      "stateMutability": "nonpayable",
      "type": "function"
    },
    {
      "inputs": [],
      "name": "totalSupply",
      "outputs": [
        {
          "internalType": "uint256",
          "name": "",
          "type": "uint256"
        }
      ],
      "stateMutability": "view",
      "type": "function"
    },
    {
      "inputs": [],
      "name": "trackingVotes",
      "outputs": [
        {
          "internalType": "bool",
          "name": "",
          "type": "bool"
        }
      ],
      "stateMutability": "view",
      "type": "function"
    },
    {
      "inputs": [
        {
          "internalType": "address",
          "name": "recipient",
          "type": "address"
        },
        {
          "internalType": "uint256",
          "name": "amount",
          "type": "uint256"
        }
      ],
      "name": "transfer",
      "outputs": [
        {
          "internalType": "bool",
          "name": "",
          "type": "bool"
        }
      ],
      "stateMutability": "nonpayable",
      "type": "function"
    },
    {
      "inputs": [
        {
          "internalType": "address",
          "name": "sender",
          "type": "address"
        },
        {
          "internalType": "address",
          "name": "recipient",
          "type": "address"
        },
        {
          "internalType": "uint256",
          "name": "amount",
          "type": "uint256"
        }
      ],
      "name": "transferFrom",
      "outputs": [
        {
          "internalType": "bool",
          "name": "",
          "type": "bool"
        }
      ],
      "stateMutability": "nonpayable",
      "type": "function"
    }
  ],
  "bytecode": {
    "object": "0x60806040523462000035575b620000236200001962000251565b93929092620005d8565b604051613a69620010748239613a6990f35b6200003e600080fd5b6200000b565b600080fd5b601f01601f191690565b50634e487b7160e01b600052604160045260246000fd5b90601f01601f191681019081106001600160401b038211176200008c57604052565b6200009662000053565b604052565b90620000b2620000aa60405190565b92836200006a565b565b602090620000d5906001600160401b038111620000d957601f01601f191690565b0190565b6200004962000053565b60005b838110620000f75750506000910152565b8181015183820152602001620000e6565b929190620000b291620001256200011f83620000b4565b6200009b565b9482865260208601918382011115620000e35762000141600080fd5b620000e3565b90620001669181601f8201121562000169575b60208151910162000108565b90565b62000172600080fd5b6200015a565b6001600160a01b031690565b6001600160a01b038116036200004457565b90505190620000b28262000184565b919060a08382031262000242575b8251620001d49082906001600160401b03811162000233575b850162000147565b92620001f682602083015160018060401b03811162000224575b830162000147565b92620001666200020a846040850162000196565b936200021a816060860162000196565b9360800162000196565b6200022d600080fd5b620001ee565b6200023c600080fd5b620001cc565b6200024b600080fd5b620001b3565b6200027462004add8038038062000268816200009b565b928339810190620001a5565b9091929394565b9060ff60a01b9060a01b5b9181191691161790565b90620002a362000166620002ab92151590565b82546200027b565b9055565b6200017862000166620001669290565b6200016690620002af565b15620002d257565b60405162461bcd60e51b815260206004820152601560248201527f5a65726f206164647265737320646574656374656400000000000000000000006044820152606490fd5b0390fd5b50634e487b7160e01b600052602260045260246000fd5b906001600283049216801562000359575b60208310146200034f57565b620000b26200031b565b91607f169162000343565b9160001960089290920291821b911b62000286565b6200016662000166620001669290565b91906200039e62000166620002ab9362000379565b90835462000364565b620000b29160009162000389565b818110620003c1575050565b80620003d16000600193620003a7565b01620003b5565b9190601f8111620003e857505050565b620003fc620000b293600052602060002090565b906020601f84018190048301931062000420575b6020601f909101040190620003b5565b909150819062000410565b9062000435815190565b906001600160401b0382116200050d575b6200045e8262000457855462000332565b85620003d8565b602090601f83116001146200049d57620002ab92916000918362000491575b5050600019600883021c1916906002021790565b0151905038806200047d565b601f19831691620004b385600052602060002090565b9260005b818110620004f457509160029391856001969410620004da575b50505002019055565b01516000196008601f8516021c19169055388080620004d1565b91936020600181928787015181550195019201620004b7565b6200051762000053565b62000446565b90620000b2916200042b565b906001600160a01b039062000286565b620001669062000178906001600160a01b031682565b620001669062000539565b62000166906200054f565b906200057962000166620002ab926200055a565b825462000529565b62000166600062000379565b620001666a52b7d2dcc80cd2e400000062000379565b620005b362000166620001669290565b6001600160601b031690565b620005cf62000166620001669290565b63ffffffff1690565b929162000648620000b29592620005ef8562000754565b620005fd6001600b62000290565b62000640600096620006386200061389620002bf565b6001600160a01b0381166001600160a01b03881614159081620006cb575b50620002ca565b60076200051d565b60066200051d565b6200065581600962000565565b506200066381600a62000565565b506200068d6200067262000581565b6200068662000680620007d0565b6200055a565b9062000e4a565b620006ad6200069b6200058d565b620006a781846200087d565b620005a3565b91620006c4620006bd82620005bf565b91620005a3565b9162000c0e565b6001600160a01b031690506001600160a01b03881614153862000631565b15620006f157565b60405162461bcd60e51b815260206004820152601960248201527f4f776e657220616464726573732063616e6e6f742062652030000000000000006044820152606490fd5b9052565b6001600160a01b0391821681529116602082015260400190565b6000906200076282620002bf565b91620007836001600160a01b0384166001600160a01b0384161415620006e9565b6200079082600462000565565b507fb532073b38c83145e3e5135377a08bf9aab55bc0fd7c1179cd4fb995d2a5159c91620007cb620007c160405190565b928392836200073a565b0390a1565b62000166336200055a565b15620007e357565b60405162461bcd60e51b815260206004820152601f60248201527f45524332303a206d696e7420746f20746865207a65726f2061646472657373006044820152606490fd5b620001669081565b62000166905462000828565b906000199062000286565b906200085b62000166620002ab9262000379565b82546200083c565b906200086f906200055a565b600052602052604060002090565b60006200088a81620002bf565b90620008ab6001600160a01b0383166001600160a01b0385161415620007db565b620008c284620008bc600262000830565b620009e2565b620008cf81600262000847565b50620008eb84620008bc620008e5868562000863565b62000830565b6200090281620008fc868562000863565b62000847565b5050620009576200093f620009387fddf252ad1be2c89b69c2b068fc378daa952ba7f163c4a11628f55a4df523b3ef936200055a565b936200055a565b936200094a60405190565b9182918290815260200190565b0390a3565b50634e487b7160e01b600052601160045260246000fd5b91906200097f565b9290565b82018092116200098b57565b620000b26200095c565b156200099d57565b60405162461bcd60e51b815260206004820152601b60248201527f536166654d6174683a206164646974696f6e206f766572666c6f7700000000006044820152606490fd5b9062000a016200097b6200016692620009f9600090565b508462000973565b82101562000995565b9062000a1a6200011f83620000b4565b918252565b62000a2b603362000a0a565b7f4658533a3a5f7772697465436865636b706f696e743a20626c6f636b206e756d60208201527f6265722065786365656473203332206269747300000000000000000000000000604082015290565b6200016662000a1f565b62000a9a9063ffffffff165b9163ffffffff1690565b90039063ffffffff82116200098b57565b620005cf62000166620001669263ffffffff1690565b906200086f9062000aab565b6200016690620005cf565b62000166905462000acd565b6200016660406200009b565b9063ffffffff9062000286565b9062000b1162000166620002ab9262000aab565b825462000af0565b90600160201b600160801b039060201b62000286565b6200016690620005b3906001600160601b031682565b9062000b5962000166620002ab9262000b2f565b825462000b19565b620000b29162000b969060209062000b8862000b81825163ffffffff1690565b8562000afd565b01516001600160601b031690565b9062000b45565b90620000b29162000b61565b62000bba9063ffffffff1662000a90565b019063ffffffff82116200098b57565b620001669081906001600160601b031681565b620007369062000bca565b916020620000b292949362000c066040820196600083019062000bdd565b019062000bdd565b9192908162000c284362000c2162000a7a565b9062000e19565b60009062000c3682620005bf565b63ffffffff8516118062000d5c575b1562000cd2575062000c8162000c889362000c7a62000c6688600c62000863565b9162000c736001620005bf565b9062000a84565b9062000ac1565b0162000b45565b62000cb47f3eaa1c4be29b4a4c60e00300b5a17a8ec6c982b5b0ad5870cc84ebdc3b24d68e926200055a565b9262000ccd62000cc360405190565b9283928362000be8565b0390a2565b62000d3d93925062000cf69062000ce862000ae4565b9283019063ffffffff169052565b6001600160601b038416602082015262000d2962000d218362000d1b88600c62000863565b62000ac1565b918262000b9d565b5062000d366001620005bf565b9062000ba9565b62000d558162000d4f85600d62000863565b62000afd565b5062000c88565b5062000d918262000d8a62000d7389600c62000863565b62000c7a62000d836001620005bf565b8962000a84565b0162000ad8565b62000da263ffffffff831662000a90565b1462000c45565b62000dce62000049602093620000d59362000dc2815190565b80835293849260200190565b95869101620000e3565b6020808252620001669291019062000da9565b1562000df45750565b620003179062000e0360405190565b62461bcd60e51b81529182916004830162000dd8565b62000e44620001669262000e2b600090565b5062000e3c64010000000062000379565b831062000deb565b620005bf565b90620000b29162000e5d565b906200086f565b9062000e7c8162000e766000620000d586600362000e56565b62000f0a565b62000e85575050565b62000e8f620007d0565b9062000ec862000ec162000ec17f2f8788117e7eff1d82e926ec794901d17c78024a50270940304540a733656f0d9590565b926200055a565b9262000ed360405190565b600090a4565b620001669062000ef2906001600160a01b031660601b90565b6001600160601b03191690565b620001669062000ed9565b9062000f3a62000f3662000f306000620001669562000f27600090565b50019362000eff565b62000ef2565b9190565b62000fed565b50634e487b7160e01b600052603260045260246000fd5b62000f7a60019162000f67815490565b84101562000f8357600052602060002090565b91020190600090565b62000f8d62000f40565b600052602060002090565b91906200039e62000166620002ab9390565b9062000fd6620000b2928054906801000000000000000082101562000fdd575b60018201815562000f57565b9062000f98565b62000fe762000053565b62000fca565b906200100262000ffe828462001041565b1590565b156200103a576001916200103491620008fc906200102a8362001026838262000faa565b5490565b9485930162000e56565b50600190565b5050600090565b6200105e916001620008e59262001056600090565b500162000e56565b6200106e62000f36600062000379565b14159056fe60806040526004361015610018575b610016600080fd5b005b60003560e01c806306fdde031461034c578063095ea7b3146103435780631627540c1461033a57806318160ddd1461033157806323b872dd14610328578063248a9ca31461031f57806328a4aeaa146103165780632f2ff15d1461030d578063313ce5671461030457806336568abe146102fb57806339509351146102f257806340c10f19146102e957806342966c68146102e057806345791d19146102d75780634b3161c2146102ce57806351e238e3146102c557806353a47bb7146102bc5780636fcfff45146102b357806370a08231146102aa578063782d6fe1146102a157806379ba50971461029857806379cc67901461028f5780637adbf973146102865780637e0c17921461027d5780638da5cb5b146102745780639010d07c1461026b57806391d148541461026257806394ac91c61461025957806395d89b4114610250578063a217fddf14610247578063a457c2d71461023e578063a8a778ae14610235578063a9059cbb1461022c578063b4b5ea5714610223578063b4f56b261461021a578063bdacb30314610211578063ca15c87314610208578063d547741f146101ff578063dc6663c7146101f6578063dd62ed3e146101ed5763f1127ed80361000e576101e86110be565b61000e565b506101e8610fc7565b506101e8610f75565b506101e8610f41565b506101e8610f17565b506101e8610ef0565b506101e8610ec8565b506101e8610e9e565b506101e8610e73565b506101e8610e4b565b506101e8610e20565b506101e8610df6565b506101e8610dba565b506101e8610d84565b506101e8610d4d565b506101e8610d22565b506101e8610cd0565b506101e8610c9a565b506101e8610c67565b506101e8610c3f565b506101e8610c18565b506101e8610bce565b506101e8610ba4565b506101e8610b63565b506101e8610a90565b506101e8610a2e565b506101e86109de565b506101e86109b7565b506101e8610990565b506101e8610968565b506101e861093d565b506101e8610915565b506101e86108d7565b506101e8610890565b506101e8610835565b506101e86107e5565b506101e861079d565b506101e8610724565b506101e86106f8565b506101e861069e565b506101e86105d7565b600080fd5b600091031261036557565b61036d600080fd5b565b507f4e487b7100000000000000000000000000000000000000000000000000000000600052600060045260246000fd5b507f4e487b7100000000000000000000000000000000000000000000000000000000600052602260045260246000fd5b90600160028304921680156103f2575b60208310146103ea57565b61036d61039f565b91607f16916103df565b8054600093929161041961040f836103cf565b8085529360200190565b916001811690811561046b575060011461043257505050565b6104459192939450600052602060002090565b916000925b8184106104575750500190565b80548484015260209093019260010161044a565b92949550505060ff1916825215156020020190565b9061048a916103fc565b90565b601f017fffffffffffffffffffffffffffffffffffffffffffffffffffffffffffffffe01690565b507f4e487b7100000000000000000000000000000000000000000000000000000000600052604160045260246000fd5b90601f017fffffffffffffffffffffffffffffffffffffffffffffffffffffffffffffffe016810190811067ffffffffffffffff82111761052557604052565b61052d6104b5565b604052565b9061036d61054c9261054360405190565b93848092610480565b03836104e5565b61048a91156105325761056461036f565b610532565b61048a60006007610553565b60005b8381106105885750506000910152565b8181015183820152602001610578565b6105b961048d6020936105c2936105ad815190565b80835293849260200190565b95869101610575565b0190565b602080825261048a92910190610598565b5034610604575b6105e936600461035a565b6106006105f4610569565b604051918291826105c6565b0390f35b61060c600080fd5b6105de565b73ffffffffffffffffffffffffffffffffffffffff1690565b73ffffffffffffffffffffffffffffffffffffffff81165b0361035557565b9050359061036d8261062a565b80610642565b9050359061036d82610656565b919061048a9060408482031261068d575b6106848185610649565b9360200161065c565b610695600080fd5b61067a565b9052565b50346106ce575b6106006106bc6106b6366004610669565b90611173565b60405191829182901515815260200190565b6106d6600080fd5b6106a5565b9061048a9160208183031215610649576106f3600080fd5b610649565b5034610717575b61071261070d3660046106db565b61344f565b604051005b61071f600080fd5b6106ff565b5034610752575b61073636600461035a565b61060061074161112d565b6040515b9182918290815260200190565b61075a600080fd5b61072b565b9091606082840312610790575b61048a6107798484610649565b936107878160208601610649565b9360400161065c565b610798600080fd5b61076c565b50346107bb575b6106006106bc6107b536600461075f565b916125a3565b6107c3600080fd5b6107a4565b9061048a916020818303121561065c576107e0600080fd5b61065c565b5034610802575b6106006107416107fd3660046107c8565b61306a565b61080a600080fd5b6107ec565b61048a916008021c5b60ff1690565b9061048a915461080f565b61048a6014600b61081e565b5034610852575b61084736600461035a565b6106006106bc610829565b61085a600080fd5b61083c565b919061048a90604084820312610883575b61087a818561065c565b93602001610649565b61088b600080fd5b610870565b50346108ab575b6107126108a536600461085f565b9061310d565b6108b3600080fd5b610897565b61081861048a61048a9290565b61048a60126108b8565b61048a6108c5565b5034610908575b6108e936600461035a565b6106006108f46108cf565b6040519182918260ff909116815260200190565b610910600080fd5b6108de565b5034610930575b61071261092a36600461085f565b9061327a565b610938600080fd5b61091c565b503461095b575b6106006106bc610955366004610669565b9061119b565b610963600080fd5b610944565b5034610983575b61071261097d366004610669565b90611dcb565b61098b600080fd5b61096f565b50346109aa575b6107126109a53660046107c8565b61141e565b6109b2600080fd5b610997565b50346109d1575b6109c936600461035a565b61071261229b565b6109d9600080fd5b6109be565b50346109f8575b6107126109f33660046106db565b611c2f565b610a00600080fd5b6109e5565b61048a61048a61048a9290565b61048a6a52b7d2dcc80cd2e4000000610a05565b61048a610a12565b5034610a4b575b610a4036600461035a565b610600610741610a26565b610a53600080fd5b610a35565b61048a916008021c73ffffffffffffffffffffffffffffffffffffffff1690565b9061048a9154610a58565b61048a60006005610a79565b5034610ad5575b610aa236600461035a565b610600610aad610a84565b6040515b9182918273ffffffffffffffffffffffffffffffffffffffff909116815260200190565b610add600080fd5b610a97565b61061161048a61048a9273ffffffffffffffffffffffffffffffffffffffff1690565b61048a90610ae2565b61048a90610b05565b90610b2190610b0e565b600052602052604060002090565b61048a916008021c5b63ffffffff1690565b9061048a9154610b2f565b61048a90610b5e600d91600092610b17565b610b41565b5034610b97575b610600610b80610b7b3660046106db565b610b4c565b6040519182918263ffffffff909116815260200190565b610b9f600080fd5b610b6a565b5034610bc1575b610600610741610bbc3660046106db565b611137565b610bc9600080fd5b610bab565b5034610c0b575b610600610bec610be6366004610669565b906127bf565b604051918291826bffffffffffffffffffffffff909116815260200190565b610c13600080fd5b610bd5565b5034610c32575b610c2a36600461035a565b61071261350b565b610c3a600080fd5b610c1f565b5034610c5a575b610712610c54366004610669565b90611493565b610c62600080fd5b610c46565b5034610c81575b610712610c7c3660046106db565b611af7565b610c89600080fd5b610c6e565b61048a60006009610a79565b5034610cb7575b610cac36600461035a565b610600610aad610c8e565b610cbf600080fd5b610ca1565b61048a60006004610a79565b5034610ced575b610ce236600461035a565b610600610aad610cc4565b610cf5600080fd5b610cd7565b919061048a90604084820312610d15575b610684818561065c565b610d1d600080fd5b610d0b565b5034610d40575b610600610aad610d3a366004610cfa565b90613050565b610d48600080fd5b610d29565b5034610d6b575b6106006106bc610d6536600461085f565b90613015565b610d73600080fd5b610d54565b61048a60006008610a79565b5034610da1575b610d9636600461035a565b610600610aad610d78565b610da9600080fd5b610d8b565b61048a60006006610553565b5034610dd7575b610dcc36600461035a565b6106006105f4610dae565b610ddf600080fd5b610dc1565b61048a6000610a05565b61048a610de4565b5034610e13575b610e0836600461035a565b610600610741610dee565b610e1b600080fd5b610dfd565b5034610e3e575b6106006106bc610e38366004610669565b90611378565b610e46600080fd5b610e27565b5034610e66575b610712610e60366004610669565b906121e6565b610e6e600080fd5b610e52565b5034610e91575b6106006106bc610e8b366004610669565b906122a3565b610e99600080fd5b610e7a565b5034610ebb575b610600610bec610eb63660046106db565b61260d565b610ec3600080fd5b610ea5565b5034610ee3575b610712610edd366004610669565b90612067565b610eeb600080fd5b610ecf565b5034610f0a575b610712610f053660046106db565b611bb9565b610f12600080fd5b610ef7565b5034610f34575b610600610741610f2f3660046107c8565b613037565b610f3c600080fd5b610f1e565b5034610f5c575b610712610f5636600461085f565b906131c9565b610f64600080fd5b610f48565b61048a6000600a610a79565b5034610f92575b610f8736600461035a565b610600610aad610f69565b610f9a600080fd5b610f7c565b919061048a90604084820312610fba575b61087a8185610649565b610fc2600080fd5b610fb0565b5034610fe5575b610600610741610fdf366004610f9f565b90611153565b610fed600080fd5b610fce565b63ffffffff8116610642565b9050359061036d82610ff2565b919061048a9060408482031261102f575b6110268185610649565b93602001610ffe565b611037600080fd5b61101c565b610b3861048a61048a9263ffffffff1690565b90610b219061103c565b61048a90610b38565b61048a9054611059565b61048a9060201c5b6bffffffffffffffffffffffff1690565b61048a905461106c565b91906110ab61048a916110a6600c95600096610b17565b61104f565b926110b7818501611062565b9301611085565b503461110f575b6110d96110d336600461100b565b9061108f565b906106006110e660405190565b63ffffffff90921682526bffffffffffffffffffffffff90921660208201529081906040820190565b611117600080fd5b6110c5565b61048a9081565b61048a905461111c565b61048a6002611123565b61114e61048a91611146600090565b506000610b17565b611123565b61048a9161116e61114e92611166600090565b506001610b17565b610b17565b61118d9190611188611183611192565b610b0e565b61184b565b600190565b61048a33610b0e565b61048a906111a7611192565b906111886111c76001956111c261114e8561116e888b610b17565b611285565b92610b0e565b507f4e487b7100000000000000000000000000000000000000000000000000000000600052601160045260246000fd5b9190611208565b9290565b820180921161121357565b61036d6111cd565b1561122257565b6040517f08c379a000000000000000000000000000000000000000000000000000000000815260206004820152601b60248201527f536166654d6174683a206164646974696f6e206f766572666c6f7700000000006044820152606490fd5b0390fd5b9061129f61120461048a92611298600090565b50846111fd565b82101561121b565b9061036d6112b460405190565b92836104e5565b6105c260209167ffffffffffffffff81116112f857601f017fffffffffffffffffffffffffffffffffffffffffffffffffffffffffffffffe01690565b61048d6104b5565b9061131261130d836112bb565b6112a7565b918252565b6113216025611300565b7f45524332303a2064656372656173656420616c6c6f77616e63652062656c6f7760208201527f207a65726f000000000000000000000000000000000000000000000000000000604082015290565b61048a611317565b61048a90611384611192565b906111886111c760019561139f61114e8561116e888b610b17565b906113a8611370565b916113ff565b156113b65750565b611281906113c360405190565b9182917f08c379a0000000000000000000000000000000000000000000000000000000008352600483016105c6565b9190820391821161121357565b61141961048a9361140e600090565b5082845b11156113ae565b6113f2565b61036d9061142d611183611192565b611616565b61143c6024611300565b7f45524332303a206275726e20616d6f756e74206578636565647320616c6c6f7760208201527f616e636500000000000000000000000000000000000000000000000000000000604082015290565b61048a611432565b9061036d9161142d6114a3611192565b6114ac81610b0e565b6114c26114b98286611153565b866113a861148b565b91508361184b565b61061161048a61048a9290565b61048a906114ca565b156114e757565b6040517f08c379a000000000000000000000000000000000000000000000000000000000815260206004820152602160248201527f45524332303a206275726e2066726f6d20746865207a65726f2061646472657360448201527f73000000000000000000000000000000000000000000000000000000000000006064820152608490fd5b6115766022611300565b7f45524332303a206275726e20616d6f756e7420657863656564732062616c616e60208201527f6365000000000000000000000000000000000000000000000000000000000000604082015290565b61048a61156c565b907fffffffffffffffffffffffffffffffffffffffffffffffffffffffffffffffff905b9181191691161790565b9061160b61048a61161292610a05565b82546115cd565b9055565b600090611622826114d7565b9161165b73ffffffffffffffffffffffffffffffffffffffff841673ffffffffffffffffffffffffffffffffffffffff841614156114e0565b61167461166b61114e8484610b17565b856113a86115c5565b611687816116828585610b17565b6115fb565b5061169b846116966002611123565b611728565b6116a68160026115fb565b50506116e86116de6116d87fddf252ad1be2c89b69c2b068fc378daa952ba7f163c4a11628f55a4df523b3ef93610b0e565b93610b0e565b9361074560405190565b0390a3565b6116f7601e611300565b7f536166654d6174683a207375627472616374696f6e206f766572666c6f770000602082015290565b61048a6116ed565b61048a916113a8611720565b1561173b57565b6040517f08c379a0000000000000000000000000000000000000000000000000000000008152602060048201526024808201527f45524332303a20617070726f76652066726f6d20746865207a65726f2061646460448201527f72657373000000000000000000000000000000000000000000000000000000006064820152608490fd5b156117c657565b6040517f08c379a000000000000000000000000000000000000000000000000000000000815260206004820152602260248201527f45524332303a20617070726f766520746f20746865207a65726f20616464726560448201527f73730000000000000000000000000000000000000000000000000000000000006064820152608490fd5b6118cd6118af600061185c816114d7565b9061189573ffffffffffffffffffffffffffffffffffffffff831673ffffffffffffffffffffffffffffffffffffffff87161415611734565b5073ffffffffffffffffffffffffffffffffffffffff1690565b73ffffffffffffffffffffffffffffffffffffffff841614156117bf565b6118e0836116828461116e856001610b17565b6116e86116de6116d87f8c5be1e5ebec7d5bd14f71427d1e84f3dd0314c0f7b2291e5b200ac8c7c3b92593610b0e565b61048a90610611565b61048a9054611910565b1561192a57565b6040517f08c379a000000000000000000000000000000000000000000000000000000000815260206004820152602f60248201527f596f7520617265206e6f7420616e206f776e6572206f722074686520676f766560448201527f726e616e63652074696d656c6f636b00000000000000000000000000000000006064820152608490fd5b61036d906119ea336119c46106116004611919565b73ffffffffffffffffffffffffffffffffffffffff8216149081156119ef575b50611923565b611abb565b9050611a1b611a01610611600a611919565b9173ffffffffffffffffffffffffffffffffffffffff1690565b14386119e4565b15611a2957565b6040517f08c379a000000000000000000000000000000000000000000000000000000000815260206004820152601560248201527f5a65726f206164647265737320646574656374656400000000000000000000006044820152606490fd5b9073ffffffffffffffffffffffffffffffffffffffff906115f1565b90611ab461048a61161292610b0e565b8254611a88565b611ae9611acb61061160006114d7565b73ffffffffffffffffffffffffffffffffffffffff83161415611a22565b611af4816009611aa4565b50565b61036d906119af565b61036d90611b15336119c46106116004611919565b611b80565b15611b2157565b6040517f08c379a000000000000000000000000000000000000000000000000000000000815260206004820152601c60248201527f54696d656c6f636b20616464726573732063616e6e6f742062652030000000006044820152606490fd5b611bae611b9061061160006114d7565b73ffffffffffffffffffffffffffffffffffffffff83161415611b1a565b611af481600a611aa4565b61036d90611b00565b61036d90611bd7336119c46106116004611919565b611be7611acb61061160006114d7565b611bf081610b0e565b611bfb81600b611aa4565b50611c2a7f9d7f371b4f9b6152ca00b1c57f64dae493904ecd303500c5d2245611178ad58f91610ab160405190565b0390a1565b61036d90611bc2565b801515610642565b9050519061036d82611c38565b9061048a9160208183031215611c4057611c65600080fd5b611c40565b506040513d6000823e3d90fd5b15611c7e57565b6040517f08c379a000000000000000000000000000000000000000000000000000000000815260206004820152602160248201527f4f6e6c79206672617820706f6f6c732063616e206d696e74206e65772046524160448201527f58000000000000000000000000000000000000000000000000000000000000006064820152608490fd5b9061036d91611d81611d626020611d1d611183600b611919565b635518948890611d3e3392611d3160405190565b9586948593849360e01b90565b835273ffffffffffffffffffffffffffffffffffffffff1660048301526024820190565b03915afa908115611db4575b600091611d86575b501515600114611c77565b611dc1565b611da7915060203d8111611dad575b611d9f81836104e5565b810190611c4d565b38611d76565b503d611d95565b611dbc611c6a565b611d6e565b9061036d91611e3b565b9061036d91611d03565b15611ddc57565b6040517f08c379a000000000000000000000000000000000000000000000000000000000815260206004820152601f60248201527f45524332303a206d696e7420746f20746865207a65726f2061646472657373006044820152606490fd5b6000611e46816114d7565b90611e7f73ffffffffffffffffffffffffffffffffffffffff831673ffffffffffffffffffffffffffffffffffffffff85161415611dd5565b611e8d846111c26002611123565b611e988160026115fb565b50611eaa846111c261114e8685610b17565b6116a6816116828685610b17565b9061036d91611ed2611d626020611d1d611183600b611919565b611f67565b61048a9060a01c610818565b61048a9054611ed7565b610b3861048a61048a9290565b61107461048a61048a9290565b611f1c9063ffffffff165b9163ffffffff1690565b90039063ffffffff821161121357565b611f36601d611300565b7f706f6f6c5f6d696e74206e657720766f746573206f766572666c6f7773000000602082015290565b61048a611f2c565b611f71600b611ee3565b611fb9575b611f808282611e3b565b611f8930610b0e565b6116e86116de6116d87fbe70a233924923d3d70cfd3c5c22c22f0a43c6df422cc029140e80684f7b70eb93610b0e565b6120533082600d611fdb611fd6611fcf85610b0e565b8093610b17565b611062565b9261204d6000611fea81611eed565b63ffffffff87161115612058576120289061202261200986600c610b17565b61201c6120166001611eed565b8a611f07565b9061104f565b01611085565b945b61203389611efa565b9561204661203f611f5f565b8883612f66565b9185612db7565b50612a78565b611f76565b61206190611efa565b9461202a565b9061036d91611eb8565b9061036d9161208b611d626020611d1d611183600b611919565b6120f1565b61209a6023611300565b7f706f6f6c5f6275726e5f66726f6d206e657720766f74657320756e646572666c60208201527f6f77730000000000000000000000000000000000000000000000000000000000604082015290565b61048a612090565b6120fb600b611ee3565b612144575b61210a82826121f0565b61211330610b0e565b906116e86116de6116d87fed0632d0be8a77d1cd861e2e5f035c6684bad17c6bd6850e2d3621c6542d140d93610b0e565b6121d13061215181610b0e565b61215a85611efa565b90612166828287612a78565b612174611fd682600d610b17565b906121ca600061218381611eed565b60009063ffffffff861611156121d657506121b9906120226121a685600c610b17565b61201c6121b36001611eed565b88611f07565b935b6121c36120e9565b9085612fd7565b9350612db7565b612100565b6121e09150611efa565b936121bb565b9061036d91612071565b9061036d916121ff8282611616565b6122296111c761220d611192565b9361222061114e8661116e876001610b17565b906113a861148b565b9061184b565b612240336119c46106116004611919565b61036d61227f565b9074ff00000000000000000000000000000000000000009060a01b6115f1565b9061227861048a61161292151590565b8254612248565b61229061228c600b611ee3565b1590565b611af481600b612268565b61036d61222f565b61118d91906122b2600b611ee3565b6122c7575b6122c2611183611192565b612462565b6122e46122d2611192565b826122df6111c786611efa565b612a78565b6122b7565b156122f057565b6040517f08c379a000000000000000000000000000000000000000000000000000000000815260206004820152602560248201527f45524332303a207472616e736665722066726f6d20746865207a65726f20616460448201527f64726573730000000000000000000000000000000000000000000000000000006064820152608490fd5b1561237c57565b6040517f08c379a000000000000000000000000000000000000000000000000000000000815260206004820152602360248201527f45524332303a207472616e7366657220746f20746865207a65726f206164647260448201527f65737300000000000000000000000000000000000000000000000000000000006064820152608490fd5b61240b6026611300565b7f45524332303a207472616e7366657220616d6f756e742065786365656473206260208201527f616c616e63650000000000000000000000000000000000000000000000000000604082015290565b61048a612401565b8161251160006124cd6124af612477836114d7565b61061173ffffffffffffffffffffffffffffffffffffffff821673ffffffffffffffffffffffffffffffffffffffff891614156122e9565b73ffffffffffffffffffffffffffffffffffffffff85161415612375565b6124e66124dd61114e8684610b17565b876113a861245a565b6124f4816116828785610b17565b50611682612509876111c261114e8786610b17565b938492610b17565b506116e86116de6116d87fddf252ad1be2c89b69c2b068fc378daa952ba7f163c4a11628f55a4df523b3ef93610b0e565b61254c6028611300565b7f45524332303a207472616e7366657220616d6f756e742065786365656473206160208201527f6c6c6f77616e6365000000000000000000000000000000000000000000000000604082015290565b61048a612542565b6125c98361048a936125b3600090565b506125be600b611ee3565b6125f5575b83612462565b6125d1611192565b906122296111c76001956125ec61114e8661116e878b610b17565b906113a861259b565b61260861260183611efa565b8286612a78565b6125c3565b61261b611fd682600d610b17565b9060009061262882611eed565b60009063ffffffff8516111561265f575061048a9261201c61264e61202293600c610b17565b916126596001611eed565b90611f07565b91505061048a9150611efa565b1561267357565b6040517f08c379a000000000000000000000000000000000000000000000000000000000815260206004820152602660248201527f4658533a3a6765745072696f72566f7465733a206e6f7420796574206465746560448201527f726d696e656400000000000000000000000000000000000000000000000000006064820152608490fd5b61048a61048a61048a9263ffffffff1690565b90610b2190611eed565b507f4e487b7100000000000000000000000000000000000000000000000000000000600052601260045260246000fd5b6127549063ffffffff16611f12565b90811561275f570490565b612767612715565b0490565b61048a60406112a7565b9061036d6127a1600061278661276b565b94612022612795838301611062565b63ffffffff1687840152565b6bffffffffffffffffffffffff166020840152565b61048a90612775565b6127ca43831061266c565b6127d8611fd682600d610b17565b906000926127e584611eed565b63ffffffff8416146129a857600c906127fe8383610b17565b9061281b8661281560019461201c61201687611eed565b01611062565b612826825b916126f8565b111561298657612843866128158161283e8888610b17565b61270b565b61284c82612820565b1161297657939493819061286c61286287611eed565b9761265984611eed565b925b612889575b505050926110a6612022928561048a9650610b17565b9193929163ffffffff871663ffffffff8616111561296d576128c76128c16128b18988611f07565b6128bb6002611eed565b90612745565b86611f07565b946128de6128d9876110a68888610b17565b6127b6565b978789016128f0815163ffffffff1690565b6128f985612820565b036129225750505050505050505060208161048a925001516bffffffffffffffffffffffff1690565b8961293b92939495969798999a50505163ffffffff1690565b61294484612820565b10156129585750825b91909296959661286e565b95612967915061265984611eed565b8261294d565b82939450612873565b50505050508061048a9150611efa565b509061048a94936126596129a2612022958461201c9550610b17565b93611eed565b5050508061048a9150611efa565b6129c06027611300565b7f4658533a3a5f6d6f7665566f7465733a20766f746520616d6f756e7420756e6460208201527f6572666c6f777300000000000000000000000000000000000000000000000000604082015290565b61048a6129b6565b612a216026611300565b7f4658533a3a5f6d6f7665566f7465733a20766f746520616d6f756e74206f766560208201527f72666c6f77730000000000000000000000000000000000000000000000000000604082015290565b61048a612a17565b9173ffffffffffffffffffffffffffffffffffffffff821673ffffffffffffffffffffffffffffffffffffffff8416141580612c1d575b612ab857505050565b612b15600093612ac7856114d7565b9073ffffffffffffffffffffffffffffffffffffffff821673ffffffffffffffffffffffffffffffffffffffff821603612bad575073ffffffffffffffffffffffffffffffffffffffff1690565b73ffffffffffffffffffffffffffffffffffffffff831603612b3657505050565b61036d92612b98612b4b611fd685600d610b17565b91612b5581611eed565b63ffffffff84161115612b9e57612b8790612022612b7487600c610b17565b61201c612b816001611eed565b87611f07565b925b612b91612a70565b9084612f66565b92612db7565b612ba790611efa565b92612b89565b80612bbf611fd6612c0893600d610b17565b612bc888611eed565b63ffffffff82161115612c0e57612bf488612022612be785600c610b17565b61201c6128c16001611eed565b905b612b98612c01612a0f565b8884612fd7565b38611895565b612c1788611efa565b90612bf6565b50612c286000611efa565b6bffffffffffffffffffffffff821611612aaf565b612c476033611300565b7f4658533a3a5f7772697465436865636b706f696e743a20626c6f636b206e756d60208201527f6265722065786365656473203332206269747300000000000000000000000000604082015290565b61048a612c3d565b9063ffffffff906115f1565b90612cba61048a6116129261103c565b8254612c9e565b906fffffffffffffffffffffffff000000009060201b6115f1565b61107461048a61048a926bffffffffffffffffffffffff1690565b90612d0761048a61161292612cdc565b8254612cc1565b61036d91612d4390602090612d30612d2a825163ffffffff1690565b85612caa565b01516bffffffffffffffffffffffff1690565b90612cf7565b9061036d91612d0e565b612d629063ffffffff16611f12565b019063ffffffff821161121357565b61048a61048a61048a926bffffffffffffffffffffffff1690565b61069a90612d71565b91602061036d929493612db060408201966000830190612d8c565b0190612d8c565b91929081612dcd43612dc7612c96565b90612f00565b600090612dd982611eed565b63ffffffff85161180612ec5575b15612e4d5750612e02612e089361201c61264e88600c610b17565b01612cf7565b612e327f3eaa1c4be29b4a4c60e00300b5a17a8ec6c982b5b0ad5870cc84ebdc3b24d68e92610b0e565b92612e48612e3f60405190565b92839283612d95565b0390a2565b612eab939250612e6d90612e5f61276b565b9283019063ffffffff169052565b6bffffffffffffffffffffffff84166020820152612e9a612e93836110a688600c610b17565b9182612d49565b50612ea56001611eed565b90612d53565b612ebf81612eba85600d610b17565b612caa565b50612e08565b50612eeb82612815612ed889600c610b17565b61201c612ee56001611eed565b89611f07565b612efa63ffffffff8316611f12565b14612de7565b612f2561048a92612f0f600090565b50612f1e640100000000610a05565b83106113ae565b611eed565b612f4f906bffffffffffffffffffffffff165b916bffffffffffffffffffffffff1690565b01906bffffffffffffffffffffffff821161121357565b91612f92612f8061048a93612f79600090565b5085612f2a565b936bffffffffffffffffffffffff1690565b6bffffffffffffffffffffffff841610156113ae565b612fbf906bffffffffffffffffffffffff16612f3d565b9003906bffffffffffffffffffffffff821161121357565b61300a61048a93612fe6600090565b506bffffffffffffffffffffffff83166bffffffffffffffffffffffff8516611412565b612fa8565b90610b21565b9061303260006105c261048a9461302a600090565b50600361300f565b61390c565b61304b60006105c261048a9361302a600090565b613929565b9061306560006105c261048a9461302a600090565b613968565b600261307b61048a9261302a600090565b01611123565b1561308857565b6040517f08c379a000000000000000000000000000000000000000000000000000000000815260206004820152602f60248201527f416363657373436f6e74726f6c3a2073656e646572206d75737420626520616e60448201527f2061646d696e20746f206772616e7400000000000000000000000000000000006064820152608490fd5b9061036d91613138613133613128600261307b85600361300f565b610d65611183611192565b613081565b6132aa565b1561314457565b6040517f08c379a000000000000000000000000000000000000000000000000000000000815260206004820152603060248201527f416363657373436f6e74726f6c3a2073656e646572206d75737420626520616e60448201527f2061646d696e20746f207265766f6b65000000000000000000000000000000006064820152608490fd5b9061036d916131e96131e4613128600261307b85600361300f565b61313d565b613313565b156131f557565b6040517f08c379a000000000000000000000000000000000000000000000000000000000815260206004820152602f60248201527f416363657373436f6e74726f6c3a2063616e206f6e6c792072656e6f756e636560448201527f20726f6c657320666f722073656c6600000000000000000000000000000000006064820152608490fd5b9061036d916131e961328d611183611192565b73ffffffffffffffffffffffffffffffffffffffff8416146131ee565b906132c4816132bf60006105c286600361300f565b6135f5565b6132cc575050565b6132d4611192565b906133036111c76111c77f2f8788117e7eff1d82e926ec794901d17c78024a50270940304540a733656f0d9590565b9261330d60405190565b600090a4565b9061332d8161332860006105c286600361300f565b61378a565b613335575050565b61333d611192565b906133036111c76111c77ff6391f5c32d9c69d2a47ea670b442974b53935d1edc7fd64eb21e047a839171b9590565b1561337357565b6040517f08c379a000000000000000000000000000000000000000000000000000000000815260206004820152602f60248201527f4f6e6c792074686520636f6e7472616374206f776e6572206d6179207065726660448201527f6f726d207468697320616374696f6e00000000000000000000000000000000006064820152608490fd5b61036d9061341633613410611a016106116004611919565b1461336c565b613421816005611aa4565b611c2a7f906a1c6bd7e3091ea86693dd029a831c19049ce77f1dce2ce0bab1cacbabce2291610ab160405190565b61036d906133f8565b1561345f57565b6040517f08c379a000000000000000000000000000000000000000000000000000000000815260206004820152603560248201527f596f75206d757374206265206e6f6d696e61746564206265666f726520796f7560448201527f2063616e20616363657074206f776e65727368697000000000000000000000006064820152608490fd5b73ffffffffffffffffffffffffffffffffffffffff91821681529116602082015260400190565b6135253361351f611a016106116005611919565b14613458565b61352f6004611919565b6135396005611919565b7fb532073b38c83145e3e5135377a08bf9aab55bc0fd7c1179cd4fb995d2a5159c9161357061356760405190565b928392836134e4565b0390a161357d6005611919565b613588816004611aa4565b5061359360006114d7565b611af4816005611aa4565b6135c76135c161048a9273ffffffffffffffffffffffffffffffffffffffff1690565b60601b90565b7fffffffffffffffffffffffffffffffffffffffff0000000000000000000000001690565b61048a9061359e565b9061361e61361a613615600061048a9561360d600090565b5001936135ec565b6135c7565b9190565b613719565b507f4e487b7100000000000000000000000000000000000000000000000000000000600052603260045260246000fd5b613673600191613661815490565b84101561367c57600052602060002090565b91020190600090565b613684613623565b600052602060002090565b919060086115f19102916136c27fffffffffffffffffffffffffffffffffffffffffffffffffffffffffffffffff841b90565b921b90565b91906136d661048a6116129390565b90835461368f565b9061370661036d928054906801000000000000000082101561370c575b600182018155613653565b906136c7565b6137146104b5565b6136fb565b9061372761228c828461375f565b156137585760019161375291611682906137498361374583826136de565b5490565b9485930161300f565b50600190565b5050600090565b61377891600161114e92613771600090565b500161300f565b61378561361a6000610a05565b141590565b906137a261361a613615600061048a9561360d600090565b61384c565b61048a916008021c81565b9061048a91546137a7565b507f4e487b7100000000000000000000000000000000000000000000000000000000600052603160045260246000fd5b61036d916000916136c7565b6001613803825490565b8015613822575b039061381f6138198383613653565b906137ed565b55565b61382a6137bd565b61380a565b91906136d661048a61161293610a05565b61036d9160009161382f565b61385c61114e836001840161300f565b9160009161386983610a05565b84146139045761048a92916138ff9161388d60019661388788610a05565b906113f2565b906138f96138f48683016138df6138c16138bb6138b58d6138876138af875490565b91610a05565b84613653565b906137b2565b956138d0876137068386613653565b6138d98c610a05565b906111fd565b6138f0816116828d8801988961300f565b5090565b6137f9565b5061300f565b613840565b509092915050565b9061392461361a613615600061048a9561360d600090565b61375f565b61393f600061048a9261393a600090565b500190565b600061048a9161394d600090565b50015490565b61048a9060601c610ae2565b61048a90613953565b61361561048a9261398060006139859461393a600090565b613a16565b61395f565b1561399157565b6040517f08c379a000000000000000000000000000000000000000000000000000000000815260206004820152602260248201527f456e756d657261626c655365743a20696e646578206f7574206f6620626f756e60448201527f64730000000000000000000000000000000000000000000000000000000000006064820152608490fd5b61048a916138bb9180548190613a2d90841061398a565b5061365356fea264697066735822122046898fbdb5d4eb6ab3d5b2e2eb2e0b48f1b33f700196b1b0c1927c40d723001064736f6c63430008110033",
    "linkReferences": {}
  },
  "methodIdentifiers": {
    "DEFAULT_ADMIN_ROLE()": "a217fddf",
    "FRAXStablecoinAdd()": "94ac91c6",
    "acceptOwnership()": "79ba5097",
    "allowance(address,address)": "dd62ed3e",
    "approve(address,uint256)": "095ea7b3",
    "balanceOf(address)": "70a08231",
    "burn(uint256)": "42966c68",
    "burnFrom(address,uint256)": "79cc6790",
    "checkpoints(address,uint32)": "f1127ed8",
    "decimals()": "313ce567",
    "decreaseAllowance(address,uint256)": "a457c2d7",
    "genesis_supply()": "51e238e3",
    "getCurrentVotes(address)": "b4b5ea57",
    "getPriorVotes(address,uint256)": "782d6fe1",
    "getRoleAdmin(bytes32)": "248a9ca3",
    "getRoleMember(bytes32,uint256)": "9010d07c",
    "getRoleMemberCount(bytes32)": "ca15c873",
    "grantRole(bytes32,address)": "2f2ff15d",
    "hasRole(bytes32,address)": "91d14854",
    "increaseAllowance(address,uint256)": "39509351",
    "mint(address,uint256)": "40c10f19",
    "name()": "06fdde03",
    "nominateNewOwner(address)": "1627540c",
    "nominatedOwner()": "53a47bb7",
    "numCheckpoints(address)": "6fcfff45",
    "oracle_address()": "7e0c1792",
    "owner()": "8da5cb5b",
    "pool_burn_from(address,uint256)": "a8a778ae",
    "pool_mint(address,uint256)": "b4f56b26",
    "renounceRole(bytes32,address)": "36568abe",
    "revokeRole(bytes32,address)": "d547741f",
    "setFRAXAddress(address)": "4b3161c2",
    "setOracle(address)": "7adbf973",
    "setTimelock(address)": "bdacb303",
    "symbol()": "95d89b41",
    "timelock_address()": "dc6663c7",
    "toggleVotes()": "45791d19",
    "totalSupply()": "18160ddd",
    "trackingVotes()": "28a4aeaa",
    "transfer(address,uint256)": "a9059cbb",
    "transferFrom(address,address,uint256)": "23b872dd"
  },
  "id": 44
}