{
  "abi": [
    {
      "inputs": [
        {
          "internalType": "string",
          "name": "_name",
          "type": "string"
        },
        {
          "internalType": "string",
          "name": "_symbol",
          "type": "string"
        },
        {
          "internalType": "address",
          "name": "_oracle_address",
          "type": "address"
        },
        {
          "internalType": "address",
          "name": "_creator_address",
          "type": "address"
        },
        {
          "internalType": "address",
          "name": "_timelock_address",
          "type": "address"
        }
      ],
      "stateMutability": "nonpayable",
      "type": "constructor"
    },
    {
      "anonymous": false,
      "inputs": [
        {
          "indexed": true,
          "internalType": "address",
          "name": "owner",
          "type": "address"
        },
        {
          "indexed": true,
          "internalType": "address",
          "name": "spender",
          "type": "address"
        },
        {
          "indexed": false,
          "internalType": "uint256",
          "name": "value",
          "type": "uint256"
        }
      ],
      "name": "Approval",
      "type": "event"
    },
    {
      "anonymous": false,
      "inputs": [
        {
          "indexed": false,
          "internalType": "address",
          "name": "addr",
          "type": "address"
        }
      ],
      "name": "FRAXAddressSet",
      "type": "event"
    },
    {
      "anonymous": false,
      "inputs": [
        {
          "indexed": true,
          "internalType": "address",
          "name": "from",
          "type": "address"
        },
        {
          "indexed": true,
          "internalType": "address",
          "name": "to",
          "type": "address"
        },
        {
          "indexed": false,
          "internalType": "uint256",
          "name": "amount",
          "type": "uint256"
        }
      ],
      "name": "FXSBurned",
      "type": "event"
    },
    {
      "anonymous": false,
      "inputs": [
        {
          "indexed": true,
          "internalType": "address",
          "name": "from",
          "type": "address"
        },
        {
          "indexed": true,
          "internalType": "address",
          "name": "to",
          "type": "address"
        },
        {
          "indexed": false,
          "internalType": "uint256",
          "name": "amount",
          "type": "uint256"
        }
      ],
      "name": "FXSMinted",
      "type": "event"
    },
    {
      "anonymous": false,
      "inputs": [
        {
          "indexed": false,
          "internalType": "address",
          "name": "oldOwner",
          "type": "address"
        },
        {
          "indexed": false,
          "internalType": "address",
          "name": "newOwner",
          "type": "address"
        }
      ],
      "name": "OwnerChanged",
      "type": "event"
    },
    {
      "anonymous": false,
      "inputs": [
        {
          "indexed": false,
          "internalType": "address",
          "name": "newOwner",
          "type": "address"
        }
      ],
      "name": "OwnerNominated",
      "type": "event"
    },
    {
      "anonymous": false,
      "inputs": [
        {
          "indexed": true,
          "internalType": "bytes32",
          "name": "role",
          "type": "bytes32"
        },
        {
          "indexed": true,
          "internalType": "bytes32",
          "name": "previousAdminRole",
          "type": "bytes32"
        },
        {
          "indexed": true,
          "internalType": "bytes32",
          "name": "newAdminRole",
          "type": "bytes32"
        }
      ],
      "name": "RoleAdminChanged",
      "type": "event"
    },
    {
      "anonymous": false,
      "inputs": [
        {
          "indexed": true,
          "internalType": "bytes32",
          "name": "role",
          "type": "bytes32"
        },
        {
          "indexed": true,
          "internalType": "address",
          "name": "account",
          "type": "address"
        },
        {
          "indexed": true,
          "internalType": "address",
          "name": "sender",
          "type": "address"
        }
      ],
      "name": "RoleGranted",
      "type": "event"
    },
    {
      "anonymous": false,
      "inputs": [
        {
          "indexed": true,
          "internalType": "bytes32",
          "name": "role",
          "type": "bytes32"
        },
        {
          "indexed": true,
          "internalType": "address",
          "name": "account",
          "type": "address"
        },
        {
          "indexed": true,
          "internalType": "address",
          "name": "sender",
          "type": "address"
        }
      ],
      "name": "RoleRevoked",
      "type": "event"
    },
    {
      "anonymous": false,
      "inputs": [
        {
          "indexed": true,
          "internalType": "address",
          "name": "from",
          "type": "address"
        },
        {
          "indexed": true,
          "internalType": "address",
          "name": "to",
          "type": "address"
        },
        {
          "indexed": false,
          "internalType": "uint256",
          "name": "value",
          "type": "uint256"
        }
      ],
      "name": "Transfer",
      "type": "event"
    },
    {
      "anonymous": false,
      "inputs": [
        {
          "indexed": true,
          "internalType": "address",
          "name": "voter",
          "type": "address"
        },
        {
          "indexed": false,
          "internalType": "uint256",
          "name": "previousBalance",
          "type": "uint256"
        },
        {
          "indexed": false,
          "internalType": "uint256",
          "name": "newBalance",
          "type": "uint256"
        }
      ],
      "name": "VoterVotesChanged",
      "type": "event"
    },
    {
      "inputs": [],
      "name": "DEFAULT_ADMIN_ROLE",
      "outputs": [
        {
          "internalType": "bytes32",
          "name": "",
          "type": "bytes32"
        }
      ],
      "stateMutability": "view",
      "type": "function"
    },
    {
      "inputs": [],
      "name": "FRAXStablecoinAdd",
      "outputs": [
        {
          "internalType": "address",
          "name": "",
          "type": "address"
        }
      ],
      "stateMutability": "view",
      "type": "function"
    },
    {
      "inputs": [],
      "name": "acceptOwnership",
      "outputs": [],
      "stateMutability": "nonpayable",
      "type": "function"
    },
    {
      "inputs": [
        {
          "internalType": "address",
          "name": "owner",
          "type": "address"
        },
        {
          "internalType": "address",
          "name": "spender",
          "type": "address"
        }
      ],
      "name": "allowance",
      "outputs": [
        {
          "internalType": "uint256",
          "name": "",
          "type": "uint256"
        }
      ],
      "stateMutability": "view",
      "type": "function"
    },
    {
      "inputs": [
        {
          "internalType": "address",
          "name": "spender",
          "type": "address"
        },
        {
          "internalType": "uint256",
          "name": "amount",
          "type": "uint256"
        }
      ],
      "name": "approve",
      "outputs": [
        {
          "internalType": "bool",
          "name": "",
          "type": "bool"
        }
      ],
      "stateMutability": "nonpayable",
      "type": "function"
    },
    {
      "inputs": [
        {
          "internalType": "address",
          "name": "account",
          "type": "address"
        }
      ],
      "name": "balanceOf",
      "outputs": [
        {
          "internalType": "uint256",
          "name": "",
          "type": "uint256"
        }
      ],
      "stateMutability": "view",
      "type": "function"
    },
    {
      "inputs": [
        {
          "internalType": "uint256",
          "name": "amount",
          "type": "uint256"
        }
      ],
      "name": "burn",
      "outputs": [],
      "stateMutability": "nonpayable",
      "type": "function"
    },
    {
      "inputs": [
        {
          "internalType": "address",
          "name": "account",
          "type": "address"
        },
        {
          "internalType": "uint256",
          "name": "amount",
          "type": "uint256"
        }
      ],
      "name": "burnFrom",
      "outputs": [],
      "stateMutability": "nonpayable",
      "type": "function"
    },
    {
      "inputs": [
        {
          "internalType": "address",
          "name": "",
          "type": "address"
        },
        {
          "internalType": "uint32",
          "name": "",
          "type": "uint32"
        }
      ],
      "name": "checkpoints",
      "outputs": [
        {
          "internalType": "uint32",
          "name": "fromBlock",
          "type": "uint32"
        },
        {
          "internalType": "uint96",
          "name": "votes",
          "type": "uint96"
        }
      ],
      "stateMutability": "view",
      "type": "function"
    },
    {
      "inputs": [],
      "name": "decimals",
      "outputs": [
        {
          "internalType": "uint8",
          "name": "",
          "type": "uint8"
        }
      ],
      "stateMutability": "view",
      "type": "function"
    },
    {
      "inputs": [
        {
          "internalType": "address",
          "name": "spender",
          "type": "address"
        },
        {
          "internalType": "uint256",
          "name": "subtractedValue",
          "type": "uint256"
        }
      ],
      "name": "decreaseAllowance",
      "outputs": [
        {
          "internalType": "bool",
          "name": "",
          "type": "bool"
        }
      ],
      "stateMutability": "nonpayable",
      "type": "function"
    },
    {
      "inputs": [],
      "name": "genesis_supply",
      "outputs": [
        {
          "internalType": "uint256",
          "name": "",
          "type": "uint256"
        }
      ],
      "stateMutability": "view",
      "type": "function"
    },
    {
      "inputs": [
        {
          "internalType": "address",
          "name": "account",
          "type": "address"
        }
      ],
      "name": "getCurrentVotes",
      "outputs": [
        {
          "internalType": "uint96",
          "name": "",
          "type": "uint96"
        }
      ],
      "stateMutability": "view",
      "type": "function"
    },
    {
      "inputs": [
        {
          "internalType": "address",
          "name": "account",
          "type": "address"
        },
        {
          "internalType": "uint256",
          "name": "blockNumber",
          "type": "uint256"
        }
      ],
      "name": "getPriorVotes",
      "outputs": [
        {
          "internalType": "uint96",
          "name": "",
          "type": "uint96"
        }
      ],
      "stateMutability": "view",
      "type": "function"
    },
    {
      "inputs": [
        {
          "internalType": "bytes32",
          "name": "role",
          "type": "bytes32"
        }
      ],
      "name": "getRoleAdmin",
      "outputs": [
        {
          "internalType": "bytes32",
          "name": "",
          "type": "bytes32"
        }
      ],
      "stateMutability": "view",
      "type": "function"
    },
    {
      "inputs": [
        {
          "internalType": "bytes32",
          "name": "role",
          "type": "bytes32"
        },
        {
          "internalType": "uint256",
          "name": "index",
          "type": "uint256"
        }
      ],
      "name": "getRoleMember",
      "outputs": [
        {
          "internalType": "address",
          "name": "",
          "type": "address"
        }
      ],
      "stateMutability": "view",
      "type": "function"
    },
    {
      "inputs": [
        {
          "internalType": "bytes32",
          "name": "role",
          "type": "bytes32"
        }
      ],
      "name": "getRoleMemberCount",
      "outputs": [
        {
          "internalType": "uint256",
          "name": "",
          "type": "uint256"
        }
      ],
      "stateMutability": "view",
      "type": "function"
    },
    {
      "inputs": [
        {
          "internalType": "bytes32",
          "name": "role",
          "type": "bytes32"
        },
        {
          "internalType": "address",
          "name": "account",
          "type": "address"
        }
      ],
      "name": "grantRole",
      "outputs": [],
      "stateMutability": "nonpayable",
      "type": "function"
    },
    {
      "inputs": [
        {
          "internalType": "bytes32",
          "name": "role",
          "type": "bytes32"
        },
        {
          "internalType": "address",
          "name": "account",
          "type": "address"
        }
      ],
      "name": "hasRole",
      "outputs": [
        {
          "internalType": "bool",
          "name": "",
          "type": "bool"
        }
      ],
      "stateMutability": "view",
      "type": "function"
    },
    {
      "inputs": [
        {
          "internalType": "address",
          "name": "spender",
          "type": "address"
        },
        {
          "internalType": "uint256",
          "name": "addedValue",
          "type": "uint256"
        }
      ],
      "name": "increaseAllowance",
      "outputs": [
        {
          "internalType": "bool",
          "name": "",
          "type": "bool"
        }
      ],
      "stateMutability": "nonpayable",
      "type": "function"
    },
    {
      "inputs": [
        {
          "internalType": "address",
          "name": "to",
          "type": "address"
        },
        {
          "internalType": "uint256",
          "name": "amount",
          "type": "uint256"
        }
      ],
      "name": "mint",
      "outputs": [],
      "stateMutability": "nonpayable",
      "type": "function"
    },
    {
      "inputs": [],
      "name": "name",
      "outputs": [
        {
          "internalType": "string",
          "name": "",
          "type": "string"
        }
      ],
      "stateMutability": "view",
      "type": "function"
    },
    {
      "inputs": [
        {
          "internalType": "address",
          "name": "_owner",
          "type": "address"
        }
      ],
      "name": "nominateNewOwner",
      "outputs": [],
      "stateMutability": "nonpayable",
      "type": "function"
    },
    {
      "inputs": [],
      "name": "nominatedOwner",
      "outputs": [
        {
          "internalType": "address",
          "name": "",
          "type": "address"
        }
      ],
      "stateMutability": "view",
      "type": "function"
    },
    {
      "inputs": [
        {
          "internalType": "address",
          "name": "",
          "type": "address"
        }
      ],
      "name": "numCheckpoints",
      "outputs": [
        {
          "internalType": "uint32",
          "name": "",
          "type": "uint32"
        }
      ],
      "stateMutability": "view",
      "type": "function"
    },
    {
      "inputs": [],
      "name": "oracle_address",
      "outputs": [
        {
          "internalType": "address",
          "name": "",
          "type": "address"
        }
      ],
      "stateMutability": "view",
      "type": "function"
    },
    {
      "inputs": [],
      "name": "owner",
      "outputs": [
        {
          "internalType": "address",
          "name": "",
          "type": "address"
        }
      ],
      "stateMutability": "view",
      "type": "function"
    },
    {
      "inputs": [
        {
          "internalType": "address",
          "name": "b_address",
          "type": "address"
        },
        {
          "internalType": "uint256",
          "name": "b_amount",
          "type": "uint256"
        }
      ],
      "name": "pool_burn_from",
      "outputs": [],
      "stateMutability": "nonpayable",
      "type": "function"
    },
    {
      "inputs": [
        {
          "internalType": "address",
          "name": "m_address",
          "type": "address"
        },
        {
          "internalType": "uint256",
          "name": "m_amount",
          "type": "uint256"
        }
      ],
      "name": "pool_mint",
      "outputs": [],
      "stateMutability": "nonpayable",
      "type": "function"
    },
    {
      "inputs": [
        {
          "internalType": "bytes32",
          "name": "role",
          "type": "bytes32"
        },
        {
          "internalType": "address",
          "name": "account",
          "type": "address"
        }
      ],
      "name": "renounceRole",
      "outputs": [],
      "stateMutability": "nonpayable",
      "type": "function"
    },
    {
      "inputs": [
        {
          "internalType": "bytes32",
          "name": "role",
          "type": "bytes32"
        },
        {
          "internalType": "address",
          "name": "account",
          "type": "address"
        }
      ],
      "name": "revokeRole",
      "outputs": [],
      "stateMutability": "nonpayable",
      "type": "function"
    },
    {
      "inputs": [
        {
          "internalType": "address",
          "name": "frax_contract_address",
          "type": "address"
        }
      ],
      "name": "setFRAXAddress",
      "outputs": [],
      "stateMutability": "nonpayable",
      "type": "function"
    },
    {
      "inputs": [
        {
          "internalType": "address",
          "name": "new_oracle",
          "type": "address"
        }
      ],
      "name": "setOracle",
      "outputs": [],
      "stateMutability": "nonpayable",
      "type": "function"
    },
    {
      "inputs": [
        {
          "internalType": "address",
          "name": "new_timelock",
          "type": "address"
        }
      ],
      "name": "setTimelock",
      "outputs": [],
      "stateMutability": "nonpayable",
      "type": "function"
    },
    {
      "inputs": [],
      "name": "symbol",
      "outputs": [
        {
          "internalType": "string",
          "name": "",
          "type": "string"
        }
      ],
      "stateMutability": "view",
      "type": "function"
    },
    {
      "inputs": [],
      "name": "timelock_address",
      "outputs": [
        {
          "internalType": "address",
          "name": "",
          "type": "address"
        }
      ],
      "stateMutability": "view",
      "type": "function"
    },
    {
      "inputs": [],
      "name": "toggleVotes",
      "outputs": [],
      "stateMutability": "nonpayable",
      "type": "function"
    },
    {
      "inputs": [],
      "name": "totalSupply",
      "outputs": [
        {
          "internalType": "uint256",
          "name": "",
          "type": "uint256"
        }
      ],
      "stateMutability": "view",
      "type": "function"
    },
    {
      "inputs": [],
      "name": "trackingVotes",
      "outputs": [
        {
          "internalType": "bool",
          "name": "",
          "type": "bool"
        }
      ],
      "stateMutability": "view",
      "type": "function"
    },
    {
      "inputs": [
        {
          "internalType": "address",
          "name": "recipient",
          "type": "address"
        },
        {
          "internalType": "uint256",
          "name": "amount",
          "type": "uint256"
        }
      ],
      "name": "transfer",
      "outputs": [
        {
          "internalType": "bool",
          "name": "",
          "type": "bool"
        }
      ],
      "stateMutability": "nonpayable",
      "type": "function"
    },
    {
      "inputs": [
        {
          "internalType": "address",
          "name": "sender",
          "type": "address"
        },
        {
          "internalType": "address",
          "name": "recipient",
          "type": "address"
        },
        {
          "internalType": "uint256",
          "name": "amount",
          "type": "uint256"
        }
      ],
      "name": "transferFrom",
      "outputs": [
        {
          "internalType": "bool",
          "name": "",
          "type": "bool"
        }
      ],
      "stateMutability": "nonpayable",
      "type": "function"
    }
  ],
  "bytecode": {
    "object": "0x60806040523462000035575b620000236200001962000251565b93929092620005d8565b604051613a6d620010748239613a6d90f35b6200003e600080fd5b6200000b565b600080fd5b601f01601f191690565b50634e487b7160e01b600052604160045260246000fd5b90601f01601f191681019081106001600160401b038211176200008c57604052565b6200009662000053565b604052565b90620000b2620000aa60405190565b92836200006a565b565b602090620000d5906001600160401b038111620000d957601f01601f191690565b0190565b6200004962000053565b60005b838110620000f75750506000910152565b8181015183820152602001620000e6565b929190620000b291620001256200011f83620000b4565b6200009b565b9482865260208601918382011115620000e35762000141600080fd5b620000e3565b90620001669181601f8201121562000169575b60208151910162000108565b90565b62000172600080fd5b6200015a565b6001600160a01b031690565b6001600160a01b038116036200004457565b90505190620000b28262000184565b919060a08382031262000242575b8251620001d49082906001600160401b03811162000233575b850162000147565b92620001f682602083015160018060401b03811162000224575b830162000147565b92620001666200020a846040850162000196565b936200021a816060860162000196565b9360800162000196565b6200022d600080fd5b620001ee565b6200023c600080fd5b620001cc565b6200024b600080fd5b620001b3565b6200027462004ae18038038062000268816200009b565b928339810190620001a5565b9091929394565b9060ff60a01b9060a01b5b9181191691161790565b90620002a362000166620002ab92151590565b82546200027b565b9055565b6200017862000166620001669290565b6200016690620002af565b15620002d257565b60405162461bcd60e51b815260206004820152601560248201527f5a65726f206164647265737320646574656374656400000000000000000000006044820152606490fd5b0390fd5b50634e487b7160e01b600052602260045260246000fd5b906001600283049216801562000359575b60208310146200034f57565b620000b26200031b565b91607f169162000343565b9160001960089290920291821b911b62000286565b6200016662000166620001669290565b91906200039e62000166620002ab9362000379565b90835462000364565b620000b29160009162000389565b818110620003c1575050565b80620003d16000600193620003a7565b01620003b5565b9190601f8111620003e857505050565b620003fc620000b293600052602060002090565b906020601f84018190048301931062000420575b6020601f909101040190620003b5565b909150819062000410565b9062000435815190565b906001600160401b0382116200050d575b6200045e8262000457855462000332565b85620003d8565b602090601f83116001146200049d57620002ab92916000918362000491575b5050600019600883021c1916906002021790565b0151905038806200047d565b601f19831691620004b385600052602060002090565b9260005b818110620004f457509160029391856001969410620004da575b50505002019055565b01516000196008601f8516021c19169055388080620004d1565b91936020600181928787015181550195019201620004b7565b6200051762000053565b62000446565b90620000b2916200042b565b906001600160a01b039062000286565b620001669062000178906001600160a01b031682565b620001669062000539565b62000166906200054f565b906200057962000166620002ab926200055a565b825462000529565b62000166600062000379565b620001666a52b7d2dcc80cd2e400000062000379565b620005b362000166620001669290565b6001600160601b031690565b620005cf62000166620001669290565b63ffffffff1690565b929162000648620000b29592620005ef8562000754565b620005fd6001600b62000290565b62000640600096620006386200061389620002bf565b6001600160a01b0381166001600160a01b03881614159081620006cb575b50620002ca565b60076200051d565b60066200051d565b6200065581600962000565565b506200066381600a62000565565b506200068d6200067262000581565b6200068662000680620007d0565b6200055a565b9062000dbd565b620006ad6200069b6200058d565b620006a781846200087d565b620005a3565b91620006c4620006bd82620005bf565b91620005a3565b9162000b81565b6001600160a01b031690506001600160a01b03881614153862000631565b15620006f157565b60405162461bcd60e51b815260206004820152601960248201527f4f776e657220616464726573732063616e6e6f742062652030000000000000006044820152606490fd5b9052565b6001600160a01b0391821681529116602082015260400190565b6000906200076282620002bf565b91620007836001600160a01b0384166001600160a01b0384161415620006e9565b6200079082600462000565565b507fb532073b38c83145e3e5135377a08bf9aab55bc0fd7c1179cd4fb995d2a5159c91620007cb620007c160405190565b928392836200073a565b0390a1565b62000166336200055a565b15620007e357565b60405162461bcd60e51b815260206004820152601f60248201527f45524332303a206d696e7420746f20746865207a65726f2061646472657373006044820152606490fd5b620001669081565b62000166905462000828565b906000199062000286565b906200085b62000166620002ab9262000379565b82546200083c565b906200086f906200055a565b600052602052604060002090565b60006200088a81620002bf565b90620008ab6001600160a01b0383166001600160a01b0385161415620007db565b620008c284620008bc600262000830565b62000eb1565b620008cf81600262000847565b50620008eb84620008bc620008e5868562000863565b62000830565b6200090281620008fc868562000863565b62000847565b5050620009576200093f620009387fddf252ad1be2c89b69c2b068fc378daa952ba7f163c4a11628f55a4df523b3ef936200055a565b936200055a565b936200094a60405190565b9182918290815260200190565b0390a3565b906200096c6200011f83620000b4565b918252565b6200097d60336200095c565b7f4658533a3a5f7772697465436865636b706f696e743a20626c6f636b206e756d60208201527f6265722065786365656473203332206269747300000000000000000000000000604082015290565b6200016662000971565b50634e487b7160e01b600052601160045260246000fd5b62000a039063ffffffff165b9163ffffffff1690565b90039063ffffffff821162000a1457565b620000b2620009d6565b620005cf62000166620001669263ffffffff1690565b906200086f9062000a1e565b6200016690620005cf565b62000166905462000a40565b6200016660406200009b565b9063ffffffff9062000286565b9062000a8462000166620002ab9262000a1e565b825462000a63565b90600160201b600160801b039060201b62000286565b6200016690620005b3906001600160601b031682565b9062000acc62000166620002ab9262000aa2565b825462000a8c565b620000b29162000b099060209062000afb62000af4825163ffffffff1690565b8562000a70565b01516001600160601b031690565b9062000ab8565b90620000b29162000ad4565b62000b2d9063ffffffff16620009f9565b019063ffffffff821162000a1457565b620001669081906001600160601b031681565b620007369062000b3d565b916020620000b292949362000b796040820196600083019062000b50565b019062000b50565b9192908162000b9b4362000b94620009cc565b9062000d8c565b60009062000ba982620005bf565b63ffffffff8516118062000ccf575b1562000c45575062000bf462000bfb9362000bed62000bd988600c62000863565b9162000be66001620005bf565b90620009ed565b9062000a34565b0162000ab8565b62000c277f3eaa1c4be29b4a4c60e00300b5a17a8ec6c982b5b0ad5870cc84ebdc3b24d68e926200055a565b9262000c4062000c3660405190565b9283928362000b5b565b0390a2565b62000cb093925062000c699062000c5b62000a57565b9283019063ffffffff169052565b6001600160601b038416602082015262000c9c62000c948362000c8e88600c62000863565b62000a34565b918262000b10565b5062000ca96001620005bf565b9062000b1c565b62000cc88162000cc285600d62000863565b62000a70565b5062000bfb565b5062000d048262000cfd62000ce689600c62000863565b62000bed62000cf66001620005bf565b89620009ed565b0162000a4b565b62000d1563ffffffff8316620009f9565b1462000bb8565b62000d4162000049602093620000d59362000d35815190565b80835293849260200190565b95869101620000e3565b6020808252620001669291019062000d1c565b1562000d675750565b620003179062000d7660405190565b62461bcd60e51b81529182916004830162000d4b565b62000db7620001669262000d9e600090565b5062000daf64010000000062000379565b831062000d5e565b620005bf565b90620000b29162000dd0565b906200086f565b9062000def8162000de96000620000d586600362000dc9565b62000f0a565b62000df8575050565b62000e02620007d0565b9062000e3b62000e3462000e347f2f8788117e7eff1d82e926ec794901d17c78024a50270940304540a733656f0d9590565b926200055a565b9262000e4660405190565b600090a4565b919062000e58565b9290565b820180921162000a1457565b1562000e6c57565b60405162461bcd60e51b815260206004820152601b60248201527f536166654d6174683a206164646974696f6e206f766572666c6f7700000000006044820152606490fd5b9062000ed062000e54620001669262000ec8600090565b508462000e4c565b82101562000e64565b620001669062000ef2906001600160a01b031660601b90565b6001600160601b03191690565b620001669062000ed9565b9062000f3a62000f3662000f306000620001669562000f27600090565b50019362000eff565b62000ef2565b9190565b62000fed565b50634e487b7160e01b600052603260045260246000fd5b62000f7a60019162000f67815490565b84101562000f8357600052602060002090565b91020190600090565b62000f8d62000f40565b600052602060002090565b91906200039e62000166620002ab9390565b9062000fd6620000b2928054906801000000000000000082101562000fdd575b60018201815562000f57565b9062000f98565b62000fe762000053565b62000fca565b906200100262000ffe828462001041565b1590565b156200103a576001916200103491620008fc906200102a8362001026838262000faa565b5490565b9485930162000dc9565b50600190565b5050600090565b6200105e916001620008e59262001056600090565b500162000dc9565b6200106e62000f36600062000379565b14159056fe60806040526004361015610018575b610016600080fd5b005b60003560e01c806306fdde031461034c578063095ea7b3146103435780631627540c1461033a57806318160ddd1461033157806323b872dd14610328578063248a9ca31461031f57806328a4aeaa146103165780632f2ff15d1461030d578063313ce5671461030457806336568abe146102fb57806339509351146102f257806340c10f19146102e957806342966c68146102e057806345791d19146102d75780634b3161c2146102ce57806351e238e3146102c557806353a47bb7146102bc5780636fcfff45146102b357806370a08231146102aa578063782d6fe1146102a157806379ba50971461029857806379cc67901461028f5780637adbf973146102865780637e0c17921461027d5780638da5cb5b146102745780639010d07c1461026b57806391d148541461026257806394ac91c61461025957806395d89b4114610250578063a217fddf14610247578063a457c2d71461023e578063a8a778ae14610235578063a9059cbb1461022c578063b4b5ea5714610223578063b4f56b261461021a578063bdacb30314610211578063ca15c87314610208578063d547741f146101ff578063dc6663c7146101f6578063dd62ed3e146101ed5763f1127ed80361000e576101e86110be565b61000e565b506101e8610fc7565b506101e8610f75565b506101e8610f41565b506101e8610f17565b506101e8610ef0565b506101e8610ec8565b506101e8610e9e565b506101e8610e73565b506101e8610e4b565b506101e8610e20565b506101e8610df6565b506101e8610dba565b506101e8610d84565b506101e8610d4d565b506101e8610d22565b506101e8610cd0565b506101e8610c9a565b506101e8610c67565b506101e8610c3f565b506101e8610c18565b506101e8610bce565b506101e8610ba4565b506101e8610b63565b506101e8610a90565b506101e8610a2e565b506101e86109de565b506101e86109b7565b506101e8610990565b506101e8610968565b506101e861093d565b506101e8610915565b506101e86108d7565b506101e8610890565b506101e8610835565b506101e86107e5565b506101e861079d565b506101e8610724565b506101e86106f8565b506101e861069e565b506101e86105d7565b600080fd5b600091031261036557565b61036d600080fd5b565b507f4e487b7100000000000000000000000000000000000000000000000000000000600052600060045260246000fd5b507f4e487b7100000000000000000000000000000000000000000000000000000000600052602260045260246000fd5b90600160028304921680156103f2575b60208310146103ea57565b61036d61039f565b91607f16916103df565b8054600093929161041961040f836103cf565b8085529360200190565b916001811690811561046b575060011461043257505050565b6104459192939450600052602060002090565b916000925b8184106104575750500190565b80548484015260209093019260010161044a565b92949550505060ff1916825215156020020190565b9061048a916103fc565b90565b601f017fffffffffffffffffffffffffffffffffffffffffffffffffffffffffffffffe01690565b507f4e487b7100000000000000000000000000000000000000000000000000000000600052604160045260246000fd5b90601f017fffffffffffffffffffffffffffffffffffffffffffffffffffffffffffffffe016810190811067ffffffffffffffff82111761052557604052565b61052d6104b5565b604052565b9061036d61054c9261054360405190565b93848092610480565b03836104e5565b61048a91156105325761056461036f565b610532565b61048a60006007610553565b60005b8381106105885750506000910152565b8181015183820152602001610578565b6105b961048d6020936105c2936105ad815190565b80835293849260200190565b95869101610575565b0190565b602080825261048a92910190610598565b5034610604575b6105e936600461035a565b6106006105f4610569565b604051918291826105c6565b0390f35b61060c600080fd5b6105de565b73ffffffffffffffffffffffffffffffffffffffff1690565b73ffffffffffffffffffffffffffffffffffffffff81165b0361035557565b9050359061036d8261062a565b80610642565b9050359061036d82610656565b919061048a9060408482031261068d575b6106848185610649565b9360200161065c565b610695600080fd5b61067a565b9052565b50346106ce575b6106006106bc6106b6366004610669565b90611173565b60405191829182901515815260200190565b6106d6600080fd5b6106a5565b9061048a9160208183031215610649576106f3600080fd5b610649565b5034610717575b61071261070d3660046106db565b613453565b604051005b61071f600080fd5b6106ff565b5034610752575b61073636600461035a565b61060061074161112d565b6040515b9182918290815260200190565b61075a600080fd5b61072b565b9091606082840312610790575b61048a6107798484610649565b936107878160208601610649565b9360400161065c565b610798600080fd5b61076c565b50346107bb575b6106006106bc6107b536600461075f565b9161244e565b6107c3600080fd5b6107a4565b9061048a916020818303121561065c576107e0600080fd5b61065c565b5034610802575b6106006107416107fd3660046107c8565b612f60565b61080a600080fd5b6107ec565b61048a916008021c5b60ff1690565b9061048a915461080f565b61048a6014600b61081e565b5034610852575b61084736600461035a565b6106006106bc610829565b61085a600080fd5b61083c565b919061048a90604084820312610883575b61087a818561065c565b93602001610649565b61088b600080fd5b610870565b50346108ab575b6107126108a536600461085f565b90613003565b6108b3600080fd5b610897565b61081861048a61048a9290565b61048a60126108b8565b61048a6108c5565b5034610908575b6108e936600461035a565b6106006108f46108cf565b6040519182918260ff909116815260200190565b610910600080fd5b6108de565b5034610930575b61071261092a36600461085f565b90613170565b610938600080fd5b61091c565b503461095b575b6106006106bc610955366004610669565b9061119b565b610963600080fd5b610944565b5034610983575b61071261097d366004610669565b90611c3e565b61098b600080fd5b61096f565b50346109aa575b6107126109a53660046107c8565b6112d4565b6109b2600080fd5b610997565b50346109d1575b6109c936600461035a565b610712612146565b6109d9600080fd5b6109be565b50346109f8575b6107126109f33660046106db565b611aa2565b610a00600080fd5b6109e5565b61048a61048a61048a9290565b61048a6a52b7d2dcc80cd2e4000000610a05565b61048a610a12565b5034610a4b575b610a4036600461035a565b610600610741610a26565b610a53600080fd5b610a35565b61048a916008021c73ffffffffffffffffffffffffffffffffffffffff1690565b9061048a9154610a58565b61048a60006005610a79565b5034610ad5575b610aa236600461035a565b610600610aad610a84565b6040515b9182918273ffffffffffffffffffffffffffffffffffffffff909116815260200190565b610add600080fd5b610a97565b61061161048a61048a9273ffffffffffffffffffffffffffffffffffffffff1690565b61048a90610ae2565b61048a90610b05565b90610b2190610b0e565b600052602052604060002090565b61048a916008021c5b63ffffffff1690565b9061048a9154610b2f565b61048a90610b5e600d91600092610b17565b610b41565b5034610b97575b610600610b80610b7b3660046106db565b610b4c565b6040519182918263ffffffff909116815260200190565b610b9f600080fd5b610b6a565b5034610bc1575b610600610741610bbc3660046106db565b611137565b610bc9600080fd5b610bab565b5034610c0b575b610600610bec610be6366004610669565b9061266a565b604051918291826bffffffffffffffffffffffff909116815260200190565b610c13600080fd5b610bd5565b5034610c32575b610c2a36600461035a565b61071261350f565b610c3a600080fd5b610c1f565b5034610c5a575b610712610c54366004610669565b90611349565b610c62600080fd5b610c46565b5034610c81575b610712610c7c3660046106db565b61196a565b610c89600080fd5b610c6e565b61048a60006009610a79565b5034610cb7575b610cac36600461035a565b610600610aad610c8e565b610cbf600080fd5b610ca1565b61048a60006004610a79565b5034610ced575b610ce236600461035a565b610600610aad610cc4565b610cf5600080fd5b610cd7565b919061048a90604084820312610d15575b610684818561065c565b610d1d600080fd5b610d0b565b5034610d40575b610600610aad610d3a366004610cfa565b90612f46565b610d48600080fd5b610d29565b5034610d6b575b6106006106bc610d6536600461085f565b90612f0b565b610d73600080fd5b610d54565b61048a60006008610a79565b5034610da1575b610d9636600461035a565b610600610aad610d78565b610da9600080fd5b610d8b565b61048a60006006610553565b5034610dd7575b610dcc36600461035a565b6106006105f4610dae565b610ddf600080fd5b610dc1565b61048a6000610a05565b61048a610de4565b5034610e13575b610e0836600461035a565b610600610741610dee565b610e1b600080fd5b610dfd565b5034610e3e575b6106006106bc610e38366004610669565b9061129e565b610e46600080fd5b610e27565b5034610e66575b610712610e60366004610669565b90612091565b610e6e600080fd5b610e52565b5034610e91575b6106006106bc610e8b366004610669565b9061214e565b610e99600080fd5b610e7a565b5034610ebb575b610600610bec610eb63660046106db565b6124b8565b610ec3600080fd5b610ea5565b5034610ee3575b610712610edd366004610669565b90611f17565b610eeb600080fd5b610ecf565b5034610f0a575b610712610f053660046106db565b611a2c565b610f12600080fd5b610ef7565b5034610f34575b610600610741610f2f3660046107c8565b612f2d565b610f3c600080fd5b610f1e565b5034610f5c575b610712610f5636600461085f565b906130bf565b610f64600080fd5b610f48565b61048a6000600a610a79565b5034610f92575b610f8736600461035a565b610600610aad610f69565b610f9a600080fd5b610f7c565b919061048a90604084820312610fba575b61087a8185610649565b610fc2600080fd5b610fb0565b5034610fe5575b610600610741610fdf366004610f9f565b90611153565b610fed600080fd5b610fce565b63ffffffff8116610642565b9050359061036d82610ff2565b919061048a9060408482031261102f575b6110268185610649565b93602001610ffe565b611037600080fd5b61101c565b610b3861048a61048a9263ffffffff1690565b90610b219061103c565b61048a90610b38565b61048a9054611059565b61048a9060201c5b6bffffffffffffffffffffffff1690565b61048a905461106c565b91906110ab61048a916110a6600c95600096610b17565b61104f565b926110b7818501611062565b9301611085565b503461110f575b6110d96110d336600461100b565b9061108f565b906106006110e660405190565b63ffffffff90921682526bffffffffffffffffffffffff90921660208201529081906040820190565b611117600080fd5b6110c5565b61048a9081565b61048a905461111c565b61048a6002611123565b61114e61048a91611146600090565b506000610b17565b611123565b61048a9161116e61114e92611166600090565b506001610b17565b610b17565b61118d9190611188611183611192565b610b0e565b6116be565b600190565b61048a33610b0e565b61048a906111a7611192565b906111886111c76001956111c261114e8561116e888b610b17565b6132de565b92610b0e565b9061036d6111da60405190565b92836104e5565b6105c260209167ffffffffffffffff811161121e57601f017fffffffffffffffffffffffffffffffffffffffffffffffffffffffffffffffe01690565b61048d6104b5565b90611238611233836111e1565b6111cd565b918252565b6112476025611226565b7f45524332303a2064656372656173656420616c6c6f77616e63652062656c6f7760208201527f207a65726f000000000000000000000000000000000000000000000000000000604082015290565b61048a61123d565b61048a906112aa611192565b906111886111c76001956112c561114e8561116e888b610b17565b906112ce611296565b91613354565b61036d906112e3611183611192565b6114d0565b6112f26024611226565b7f45524332303a206275726e20616d6f756e74206578636565647320616c6c6f7760208201527f616e636500000000000000000000000000000000000000000000000000000000604082015290565b61048a6112e8565b9061036d916112e3611359611192565b61136281610b0e565b61137861136f8286611153565b866112ce611341565b9150836116be565b61061161048a61048a9290565b61048a90611380565b1561139d57565b6040517f08c379a000000000000000000000000000000000000000000000000000000000815260206004820152602160248201527f45524332303a206275726e2066726f6d20746865207a65726f2061646472657360448201527f73000000000000000000000000000000000000000000000000000000000000006064820152608490fd5b0390fd5b6114306022611226565b7f45524332303a206275726e20616d6f756e7420657863656564732062616c616e60208201527f6365000000000000000000000000000000000000000000000000000000000000604082015290565b61048a611426565b907fffffffffffffffffffffffffffffffffffffffffffffffffffffffffffffffff905b9181191691161790565b906114c561048a6114cc92610a05565b8254611487565b9055565b6000906114dc8261138d565b9161151573ffffffffffffffffffffffffffffffffffffffff841673ffffffffffffffffffffffffffffffffffffffff84161415611396565b61152e61152561114e8484610b17565b856112ce61147f565b6115418161153c8585610b17565b6114b5565b50611555846115506002611123565b61333b565b6115608160026114b5565b50506115a26115986115927fddf252ad1be2c89b69c2b068fc378daa952ba7f163c4a11628f55a4df523b3ef93610b0e565b93610b0e565b9361074560405190565b0390a3565b156115ae57565b6040517f08c379a0000000000000000000000000000000000000000000000000000000008152602060048201526024808201527f45524332303a20617070726f76652066726f6d20746865207a65726f2061646460448201527f72657373000000000000000000000000000000000000000000000000000000006064820152608490fd5b1561163957565b6040517f08c379a000000000000000000000000000000000000000000000000000000000815260206004820152602260248201527f45524332303a20617070726f766520746f20746865207a65726f20616464726560448201527f73730000000000000000000000000000000000000000000000000000000000006064820152608490fd5b61174061172260006116cf8161138d565b9061170873ffffffffffffffffffffffffffffffffffffffff831673ffffffffffffffffffffffffffffffffffffffff871614156115a7565b5073ffffffffffffffffffffffffffffffffffffffff1690565b73ffffffffffffffffffffffffffffffffffffffff84161415611632565b6117538361153c8461116e856001610b17565b6115a26115986115927f8c5be1e5ebec7d5bd14f71427d1e84f3dd0314c0f7b2291e5b200ac8c7c3b92593610b0e565b61048a90610611565b61048a9054611783565b1561179d57565b6040517f08c379a000000000000000000000000000000000000000000000000000000000815260206004820152602f60248201527f596f7520617265206e6f7420616e206f776e6572206f722074686520676f766560448201527f726e616e63652074696d656c6f636b00000000000000000000000000000000006064820152608490fd5b61036d9061185d33611837610611600461178c565b73ffffffffffffffffffffffffffffffffffffffff821614908115611862575b50611796565b61192e565b905061188e611874610611600a61178c565b9173ffffffffffffffffffffffffffffffffffffffff1690565b1438611857565b1561189c57565b6040517f08c379a000000000000000000000000000000000000000000000000000000000815260206004820152601560248201527f5a65726f206164647265737320646574656374656400000000000000000000006044820152606490fd5b9073ffffffffffffffffffffffffffffffffffffffff906114ab565b9061192761048a6114cc92610b0e565b82546118fb565b61195c61193e610611600061138d565b73ffffffffffffffffffffffffffffffffffffffff83161415611895565b611967816009611917565b50565b61036d90611822565b61036d9061198833611837610611600461178c565b6119f3565b1561199457565b6040517f08c379a000000000000000000000000000000000000000000000000000000000815260206004820152601c60248201527f54696d656c6f636b20616464726573732063616e6e6f742062652030000000006044820152606490fd5b611a21611a03610611600061138d565b73ffffffffffffffffffffffffffffffffffffffff8316141561198d565b61196781600a611917565b61036d90611973565b61036d90611a4a33611837610611600461178c565b611a5a61193e610611600061138d565b611a6381610b0e565b611a6e81600b611917565b50611a9d7f9d7f371b4f9b6152ca00b1c57f64dae493904ecd303500c5d2245611178ad58f91610ab160405190565b0390a1565b61036d90611a35565b801515610642565b9050519061036d82611aab565b9061048a9160208183031215611ab357611ad8600080fd5b611ab3565b506040513d6000823e3d90fd5b15611af157565b6040517f08c379a000000000000000000000000000000000000000000000000000000000815260206004820152602160248201527f4f6e6c79206672617820706f6f6c732063616e206d696e74206e65772046524160448201527f58000000000000000000000000000000000000000000000000000000000000006064820152608490fd5b9061036d91611bf4611bd56020611b90611183600b61178c565b635518948890611bb13392611ba460405190565b9586948593849360e01b90565b835273ffffffffffffffffffffffffffffffffffffffff1660048301526024820190565b03915afa908115611c27575b600091611bf9575b501515600114611aea565b611c34565b611c1a915060203d8111611c20575b611c1281836104e5565b810190611ac0565b38611be9565b503d611c08565b611c2f611add565b611be1565b9061036d91611cae565b9061036d91611b76565b15611c4f57565b6040517f08c379a000000000000000000000000000000000000000000000000000000000815260206004820152601f60248201527f45524332303a206d696e7420746f20746865207a65726f2061646472657373006044820152606490fd5b6000611cb98161138d565b90611cf273ffffffffffffffffffffffffffffffffffffffff831673ffffffffffffffffffffffffffffffffffffffff85161415611c48565b611d00846111c26002611123565b611d0b8160026114b5565b50611d1d846111c261114e8685610b17565b6115608161153c8685610b17565b9061036d91611d45611bd56020611b90611183600b61178c565b611e12565b61048a9060a01c610818565b61048a9054611d4a565b610b3861048a61048a9290565b61107461048a61048a9290565b507f4e487b7100000000000000000000000000000000000000000000000000000000600052601160045260246000fd5b611dbf9063ffffffff165b9163ffffffff1690565b90039063ffffffff8211611dcf57565b61036d611d7a565b611de1601d611226565b7f706f6f6c5f6d696e74206e657720766f746573206f766572666c6f7773000000602082015290565b61048a611dd7565b611e1c600b611d56565b611e64575b611e2b8282611cae565b611e3430610b0e565b6115a26115986115927fbe70a233924923d3d70cfd3c5c22c22f0a43c6df422cc029140e80684f7b70eb93610b0e565b611f023082600d611e86611e81611e7a85610b0e565b8093610b17565b611062565b92611efc6000611e9581611d60565b60009063ffffffff88161115611f075750611ed790611ed1611eb886600c610b17565b611ecb611ec56001611d60565b8a611daa565b9061104f565b01611085565b945b611ee289611d6d565b95611ef5611eee611e0a565b8883612e59565b9185612c66565b50612923565b611e21565b611f119150611d6d565b94611ed9565b9061036d91611d2b565b9061036d91611f3b611bd56020611b90611183600b61178c565b611fa1565b611f4a6023611226565b7f706f6f6c5f6275726e5f66726f6d206e657720766f74657320756e646572666c60208201527f6f77730000000000000000000000000000000000000000000000000000000000604082015290565b61048a611f40565b611fab600b611d56565b611ff4575b611fba828261209b565b611fc330610b0e565b906115a26115986115927fed0632d0be8a77d1cd861e2e5f035c6684bad17c6bd6850e2d3621c6542d140d93610b0e565b61207d3061200181610b0e565b61200a85611d6d565b90612016828287612923565b612024611e8182600d610b17565b90612076600061203381611d60565b63ffffffff851611156120825761206590611ed161205285600c610b17565b611ecb61205f6001611d60565b88611daa565b935b61206f611f99565b9085612eca565b9350612c66565b611fb0565b61208b90611d6d565b93612067565b9061036d91611f21565b9061036d916120aa82826114d0565b6120d46111c76120b8611192565b936120cb61114e8661116e876001610b17565b906112ce611341565b906116be565b6120eb33611837610611600461178c565b61036d61212a565b9074ff00000000000000000000000000000000000000009060a01b6114ab565b9061212361048a6114cc92151590565b82546120f3565b61213b612137600b611d56565b1590565b61196781600b612113565b61036d6120da565b61118d919061215d600b611d56565b612172575b61216d611183611192565b61230d565b61218f61217d611192565b8261218a6111c786611d6d565b612923565b612162565b1561219b57565b6040517f08c379a000000000000000000000000000000000000000000000000000000000815260206004820152602560248201527f45524332303a207472616e736665722066726f6d20746865207a65726f20616460448201527f64726573730000000000000000000000000000000000000000000000000000006064820152608490fd5b1561222757565b6040517f08c379a000000000000000000000000000000000000000000000000000000000815260206004820152602360248201527f45524332303a207472616e7366657220746f20746865207a65726f206164647260448201527f65737300000000000000000000000000000000000000000000000000000000006064820152608490fd5b6122b66026611226565b7f45524332303a207472616e7366657220616d6f756e742065786365656473206260208201527f616c616e63650000000000000000000000000000000000000000000000000000604082015290565b61048a6122ac565b816123bc600061237861235a6123228361138d565b61061173ffffffffffffffffffffffffffffffffffffffff821673ffffffffffffffffffffffffffffffffffffffff89161415612194565b73ffffffffffffffffffffffffffffffffffffffff85161415612220565b61239161238861114e8684610b17565b876112ce612305565b61239f8161153c8785610b17565b5061153c6123b4876111c261114e8786610b17565b938492610b17565b506115a26115986115927fddf252ad1be2c89b69c2b068fc378daa952ba7f163c4a11628f55a4df523b3ef93610b0e565b6123f76028611226565b7f45524332303a207472616e7366657220616d6f756e742065786365656473206160208201527f6c6c6f77616e6365000000000000000000000000000000000000000000000000604082015290565b61048a6123ed565b6124748361048a9361245e600090565b50612469600b611d56565b6124a0575b8361230d565b61247c611192565b906120d46111c760019561249761114e8661116e878b610b17565b906112ce612446565b6124b36124ac83611d6d565b8286612923565b61246e565b6124c6611e8182600d610b17565b906000906124d382611d60565b60009063ffffffff8516111561250a575061048a92611ecb6124f9611ed193600c610b17565b916125046001611d60565b90611daa565b91505061048a9150611d6d565b1561251e57565b6040517f08c379a000000000000000000000000000000000000000000000000000000000815260206004820152602660248201527f4658533a3a6765745072696f72566f7465733a206e6f7420796574206465746560448201527f726d696e656400000000000000000000000000000000000000000000000000006064820152608490fd5b61048a61048a61048a9263ffffffff1690565b90610b2190611d60565b507f4e487b7100000000000000000000000000000000000000000000000000000000600052601260045260246000fd5b6125ff9063ffffffff16611db5565b90811561260a570490565b6126126125c0565b0490565b61048a60406111cd565b9061036d61264c6000612631612616565b94611ed1612640838301611062565b63ffffffff1687840152565b6bffffffffffffffffffffffff166020840152565b61048a90612620565b612675438310612517565b612683611e8182600d610b17565b9060009261269084611d60565b63ffffffff84161461285357600c906126a98383610b17565b906126c6866126c0600194611ecb611ec587611d60565b01611062565b6126d1825b916125a3565b1115612831576126ee866126c0816126e98888610b17565b6125b6565b6126f7826126cb565b1161282157939493819061271761270d87611d60565b9761250484611d60565b925b612734575b505050926110a6611ed1928561048a9650610b17565b9193929163ffffffff871663ffffffff861611156128185761277261276c61275c8988611daa565b6127666002611d60565b906125f0565b86611daa565b94612789612784876110a68888610b17565b612661565b9787890161279b815163ffffffff1690565b6127a4856126cb565b036127cd5750505050505050505060208161048a925001516bffffffffffffffffffffffff1690565b896127e692939495969798999a50505163ffffffff1690565b6127ef846126cb565b10156128035750825b919092969596612719565b95612812915061250484611d60565b826127f8565b8293945061271e565b50505050508061048a9150611d6d565b509061048a949361250461284d611ed19584611ecb9550610b17565b93611d60565b5050508061048a9150611d6d565b61286b6027611226565b7f4658533a3a5f6d6f7665566f7465733a20766f746520616d6f756e7420756e6460208201527f6572666c6f777300000000000000000000000000000000000000000000000000604082015290565b61048a612861565b6128cc6026611226565b7f4658533a3a5f6d6f7665566f7465733a20766f746520616d6f756e74206f766560208201527f72666c6f77730000000000000000000000000000000000000000000000000000604082015290565b61048a6128c2565b9173ffffffffffffffffffffffffffffffffffffffff821673ffffffffffffffffffffffffffffffffffffffff8416141580612acc575b61296357505050565b6129c06000936129728561138d565b9073ffffffffffffffffffffffffffffffffffffffff821673ffffffffffffffffffffffffffffffffffffffff821603612a58575073ffffffffffffffffffffffffffffffffffffffff1690565b73ffffffffffffffffffffffffffffffffffffffff8316036129e157505050565b61036d92612a436129f6611e8185600d610b17565b91612a0081611d60565b63ffffffff84161115612a4957612a3290611ed1612a1f87600c610b17565b611ecb612a2c6001611d60565b87611daa565b925b612a3c61291b565b9084612e59565b92612c66565b612a5290611d6d565b92612a34565b80612a6a611e81612ab793600d610b17565b612a7388611d60565b60009063ffffffff83161115612abd5750612aa388611ed1612a9685600c610b17565b611ecb61276c6001611d60565b905b612a43612ab06128ba565b8884612eca565b38611708565b612ac690611d6d565b90612aa5565b50612ad76000611d6d565b6bffffffffffffffffffffffff82161161295a565b612af66033611226565b7f4658533a3a5f7772697465436865636b706f696e743a20626c6f636b206e756d60208201527f6265722065786365656473203332206269747300000000000000000000000000604082015290565b61048a612aec565b9063ffffffff906114ab565b90612b6961048a6114cc9261103c565b8254612b4d565b906fffffffffffffffffffffffff000000009060201b6114ab565b61107461048a61048a926bffffffffffffffffffffffff1690565b90612bb661048a6114cc92612b8b565b8254612b70565b61036d91612bf290602090612bdf612bd9825163ffffffff1690565b85612b59565b01516bffffffffffffffffffffffff1690565b90612ba6565b9061036d91612bbd565b612c119063ffffffff16611db5565b019063ffffffff8211611dcf57565b61048a61048a61048a926bffffffffffffffffffffffff1690565b61069a90612c20565b91602061036d929493612c5f60408201966000830190612c3b565b0190612c3b565b91929081612c7c43612c76612b45565b90612df3565b600090612c8882611d60565b63ffffffff85161180612d74575b15612cfc5750612cb1612cb793611ecb6124f988600c610b17565b01612ba6565b612ce17f3eaa1c4be29b4a4c60e00300b5a17a8ec6c982b5b0ad5870cc84ebdc3b24d68e92610b0e565b92612cf7612cee60405190565b92839283612c44565b0390a2565b612d5a939250612d1c90612d0e612616565b9283019063ffffffff169052565b6bffffffffffffffffffffffff84166020820152612d49612d42836110a688600c610b17565b9182612bf8565b50612d546001611d60565b90612c02565b612d6e81612d6985600d610b17565b612b59565b50612cb7565b50612d9a826126c0612d8789600c610b17565b611ecb612d946001611d60565b89611daa565b612da963ffffffff8316611db5565b14612c96565b15612db75750565b61142290612dc460405190565b9182917f08c379a0000000000000000000000000000000000000000000000000000000008352600483016105c6565b612e1861048a92612e02600090565b50612e11640100000000610a05565b8310612daf565b611d60565b612e42906bffffffffffffffffffffffff165b916bffffffffffffffffffffffff1690565b01906bffffffffffffffffffffffff8211611dcf57565b91612e85612e7361048a93612e6c600090565b5085612e1d565b936bffffffffffffffffffffffff1690565b6bffffffffffffffffffffffff84161015612daf565b612eb2906bffffffffffffffffffffffff16612e30565b9003906bffffffffffffffffffffffff8211611dcf57565b612f0061048a93612ed9600090565b506bffffffffffffffffffffffff83166bffffffffffffffffffffffff85165b1115612daf565b612e9b565b90610b21565b90612f2860006105c261048a94612f20600090565b506003612f05565b613910565b612f4160006105c261048a93612f20600090565b61392d565b90612f5b60006105c261048a94612f20600090565b61396c565b6002612f7161048a92612f20600090565b01611123565b15612f7e57565b6040517f08c379a000000000000000000000000000000000000000000000000000000000815260206004820152602f60248201527f416363657373436f6e74726f6c3a2073656e646572206d75737420626520616e60448201527f2061646d696e20746f206772616e7400000000000000000000000000000000006064820152608490fd5b9061036d9161302e61302961301e6002612f71856003612f05565b610d65611183611192565b612f77565b6131a0565b1561303a57565b6040517f08c379a000000000000000000000000000000000000000000000000000000000815260206004820152603060248201527f416363657373436f6e74726f6c3a2073656e646572206d75737420626520616e60448201527f2061646d696e20746f207265766f6b65000000000000000000000000000000006064820152608490fd5b9061036d916130df6130da61301e6002612f71856003612f05565b613033565b613209565b156130eb57565b6040517f08c379a000000000000000000000000000000000000000000000000000000000815260206004820152602f60248201527f416363657373436f6e74726f6c3a2063616e206f6e6c792072656e6f756e636560448201527f20726f6c657320666f722073656c6600000000000000000000000000000000006064820152608490fd5b9061036d916130df613183611183611192565b73ffffffffffffffffffffffffffffffffffffffff8416146130e4565b906131ba816131b560006105c2866003612f05565b6135f9565b6131c2575050565b6131ca611192565b906131f96111c76111c77f2f8788117e7eff1d82e926ec794901d17c78024a50270940304540a733656f0d9590565b9261320360405190565b600090a4565b906132238161321e60006105c2866003612f05565b61378e565b61322b575050565b613233611192565b906131f96111c76111c77ff6391f5c32d9c69d2a47ea670b442974b53935d1edc7fd64eb21e047a839171b9590565b919061326d565b9290565b8201809211611dcf57565b1561327f57565b6040517f08c379a000000000000000000000000000000000000000000000000000000000815260206004820152601b60248201527f536166654d6174683a206164646974696f6e206f766572666c6f7700000000006044820152606490fd5b906132f861326961048a926132f1600090565b5084613262565b821015613278565b61330a601e611226565b7f536166654d6174683a207375627472616374696f6e206f766572666c6f770000602082015290565b61048a613300565b61048a916112ce613333565b91908203918211611dcf57565b61336b61048a93613363600090565b508284612ef9565b613347565b1561337757565b6040517f08c379a000000000000000000000000000000000000000000000000000000000815260206004820152602f60248201527f4f6e6c792074686520636f6e7472616374206f776e6572206d6179207065726660448201527f6f726d207468697320616374696f6e00000000000000000000000000000000006064820152608490fd5b61036d9061341a33613414611874610611600461178c565b14613370565b613425816005611917565b611a9d7f906a1c6bd7e3091ea86693dd029a831c19049ce77f1dce2ce0bab1cacbabce2291610ab160405190565b61036d906133fc565b1561346357565b6040517f08c379a000000000000000000000000000000000000000000000000000000000815260206004820152603560248201527f596f75206d757374206265206e6f6d696e61746564206265666f726520796f7560448201527f2063616e20616363657074206f776e65727368697000000000000000000000006064820152608490fd5b73ffffffffffffffffffffffffffffffffffffffff91821681529116602082015260400190565b61352933613523611874610611600561178c565b1461345c565b613533600461178c565b61353d600561178c565b7fb532073b38c83145e3e5135377a08bf9aab55bc0fd7c1179cd4fb995d2a5159c9161357461356b60405190565b928392836134e8565b0390a1613581600561178c565b61358c816004611917565b50613597600061138d565b611967816005611917565b6135cb6135c561048a9273ffffffffffffffffffffffffffffffffffffffff1690565b60601b90565b7fffffffffffffffffffffffffffffffffffffffff0000000000000000000000001690565b61048a906135a2565b9061362261361e613619600061048a95613611600090565b5001936135f0565b6135cb565b9190565b61371d565b507f4e487b7100000000000000000000000000000000000000000000000000000000600052603260045260246000fd5b613677600191613665815490565b84101561368057600052602060002090565b91020190600090565b613688613627565b600052602060002090565b919060086114ab9102916136c67fffffffffffffffffffffffffffffffffffffffffffffffffffffffffffffffff841b90565b921b90565b91906136da61048a6114cc9390565b908354613693565b9061370a61036d9280549068010000000000000000821015613710575b600182018155613657565b906136cb565b6137186104b5565b6136ff565b9061372b6121378284613763565b1561375c576001916137569161153c9061374d8361374983826136e2565b5490565b94859301612f05565b50600190565b5050600090565b61377c91600161114e92613775600090565b5001612f05565b61378961361e6000610a05565b141590565b906137a661361e613619600061048a95613611600090565b613850565b61048a916008021c81565b9061048a91546137ab565b507f4e487b7100000000000000000000000000000000000000000000000000000000600052603160045260246000fd5b61036d916000916136cb565b6001613807825490565b8015613826575b039061382361381d8383613657565b906137f1565b55565b61382e6137c1565b61380e565b91906136da61048a6114cc93610a05565b61036d91600091613833565b61386061114e8360018401612f05565b9160009161386d83610a05565b84146139085761048a92916139039161389160019661388b88610a05565b90613347565b906138fd6138f88683016138e36138c56138bf6138b98d61388b6138b3875490565b91610a05565b84613657565b906137b6565b956138d48761370a8386613657565b6138dd8c610a05565b90613262565b6138f48161153c8d88019889612f05565b5090565b6137fd565b50612f05565b613844565b509092915050565b9061392861361e613619600061048a95613611600090565b613763565b613943600061048a9261393e600090565b500190565b600061048a91613951600090565b50015490565b61048a9060601c610ae2565b61048a90613957565b61361961048a9261398460006139899461393e600090565b613a1a565b613963565b1561399557565b6040517f08c379a000000000000000000000000000000000000000000000000000000000815260206004820152602260248201527f456e756d657261626c655365743a20696e646578206f7574206f6620626f756e60448201527f64730000000000000000000000000000000000000000000000000000000000006064820152608490fd5b61048a916138bf9180548190613a3190841061398e565b5061365756fea264697066735822122046898fbdb5d4eb6ab3d5b2e2eb2e0b48f1b33f700196b1b0c1927c40d723001064736f6c63430008110033",
    "linkReferences": {}
  },
  "methodIdentifiers": {
    "DEFAULT_ADMIN_ROLE()": "a217fddf",
    "FRAXStablecoinAdd()": "94ac91c6",
    "acceptOwnership()": "79ba5097",
    "allowance(address,address)": "dd62ed3e",
    "approve(address,uint256)": "095ea7b3",
    "balanceOf(address)": "70a08231",
    "burn(uint256)": "42966c68",
    "burnFrom(address,uint256)": "79cc6790",
    "checkpoints(address,uint32)": "f1127ed8",
    "decimals()": "313ce567",
    "decreaseAllowance(address,uint256)": "a457c2d7",
    "genesis_supply()": "51e238e3",
    "getCurrentVotes(address)": "b4b5ea57",
    "getPriorVotes(address,uint256)": "782d6fe1",
    "getRoleAdmin(bytes32)": "248a9ca3",
    "getRoleMember(bytes32,uint256)": "9010d07c",
    "getRoleMemberCount(bytes32)": "ca15c873",
    "grantRole(bytes32,address)": "2f2ff15d",
    "hasRole(bytes32,address)": "91d14854",
    "increaseAllowance(address,uint256)": "39509351",
    "mint(address,uint256)": "40c10f19",
    "name()": "06fdde03",
    "nominateNewOwner(address)": "1627540c",
    "nominatedOwner()": "53a47bb7",
    "numCheckpoints(address)": "6fcfff45",
    "oracle_address()": "7e0c1792",
    "owner()": "8da5cb5b",
    "pool_burn_from(address,uint256)": "a8a778ae",
    "pool_mint(address,uint256)": "b4f56b26",
    "renounceRole(bytes32,address)": "36568abe",
    "revokeRole(bytes32,address)": "d547741f",
    "setFRAXAddress(address)": "4b3161c2",
    "setOracle(address)": "7adbf973",
    "setTimelock(address)": "bdacb303",
    "symbol()": "95d89b41",
    "timelock_address()": "dc6663c7",
    "toggleVotes()": "45791d19",
    "totalSupply()": "18160ddd",
    "trackingVotes()": "28a4aeaa",
    "transfer(address,uint256)": "a9059cbb",
    "transferFrom(address,address,uint256)": "23b872dd"
  },
  "id": 34
}