{
  "abi": [
    {
      "inputs": [
        {
          "internalType": "uint256",
          "name": "weeks_elapsed",
          "type": "uint256"
        },
        {
          "internalType": "uint256",
          "name": "reward_tally",
          "type": "uint256"
        }
      ],
      "stateMutability": "nonpayable",
      "type": "constructor"
    },
    {
      "inputs": [
        {
          "internalType": "address",
          "name": "gauge_address",
          "type": "address"
        }
      ],
      "name": "distributeReward",
      "outputs": [
        {
          "internalType": "uint256",
          "name": "weeks_elapsed",
          "type": "uint256"
        },
        {
          "internalType": "uint256",
          "name": "reward_tally",
          "type": "uint256"
        }
      ],
      "stateMutability": "view",
      "type": "function"
    }
  ],
  "bytecode": {
    "object": "0x60806040523461002c575b61001b6100156100c1565b90610104565b60405161011961011f823961011990f35b610034600080fd5b61000a565b50634e487b7160e01b600052604160045260246000fd5b90601f01601f191681019081106001600160401b0382111761007157604052565b610079610039565b604052565b9061009261008b60405190565b9283610050565b565b91906100b1906040848203126100b4575b83519360200190505190565b90565b6100bc600080fd5b6100a5565b6100df610238803803806100d48161007e565b928339810190610094565b9091565b6100b16100b16100b19290565b906100b16100b1610100926100e3565b9055565b61010f8160006100f0565b5061011b8160016100f0565b5056fe608060405260043610156016575b6014600080fd5b005b60003560e01c63092193ab03600d57602b608c565b600d565b600080fd5b90565b73ffffffffffffffffffffffffffffffffffffffff811603602f57565b90503590605f826037565b565b90603491602081830312156054576076600080fd5b6054565b908152604081019291605f9160200152565b503460b8575b60a1609d3660046061565b60d1565b9060b460ac60405190565b92839283607a565b0390f35b60bf600080fd5b6092565b60349081565b6034905460c3565b5060da600060c9565b906034600160c956fea264697066735822122034a99ae1f35a2e2a6e93500efbeccd00e5498de7d57876cb199dffcfcf661a0364736f6c63430008110033",
    "linkReferences": {}
  },
  "methodIdentifiers": {
    "distributeReward(address)": "092193ab"
  },
  "id": 48
}