{
  "abi": [
    {
      "inputs": [
        {
          "internalType": "address",
          "name": "_owner",
          "type": "address"
        },
        {
          "internalType": "address[]",
          "name": "_rewardTokens",
          "type": "address[]"
        },
        {
          "internalType": "address[]",
          "name": "_rewardManagers",
          "type": "address[]"
        },
        {
          "internalType": "uint256[]",
          "name": "_rewardRatesManual",
          "type": "uint256[]"
        },
        {
          "internalType": "address[]",
          "name": "_gaugeControllers",
          "type": "address[]"
        },
        {
          "internalType": "address[]",
          "name": "_rewardDistributors",
          "type": "address[]"
        },
        {
          "internalType": "address",
          "name": "_stakingToken",
          "type": "address"
        }
      ],
      "stateMutability": "nonpayable",
      "type": "constructor"
    },
    {
      "inputs": [],
      "name": "CannotShortenLockTime",
      "type": "error"
    },
    {
      "inputs": [],
      "name": "InsufficientAllowance",
      "type": "error"
    },
    {
      "inputs": [],
      "name": "InvalidAmount",
      "type": "error"
    },
    {
      "inputs": [],
      "name": "InvalidReceiver",
      "type": "error"
    },
    {
      "inputs": [],
      "name": "MinimumStakeTimeNotMet",
      "type": "error"
    },
    {
      "inputs": [],
      "name": "MustBeInTheFuture",
      "type": "error"
    },
    {
      "inputs": [],
      "name": "MustBePositive",
      "type": "error"
    },
    {
      "inputs": [],
      "name": "StakerNotFound",
      "type": "error"
    },
    {
      "inputs": [],
      "name": "StakesUnlocked",
      "type": "error"
    },
    {
      "inputs": [],
      "name": "StakingPaused",
      "type": "error"
    },
    {
      "inputs": [
        {
          "internalType": "address",
          "name": "spender",
          "type": "address"
        },
        {
          "internalType": "bytes32",
          "name": "kek_id",
          "type": "bytes32"
        }
      ],
      "name": "TransferLockNotAllowed",
      "type": "error"
    },
    {
      "inputs": [],
      "name": "TryingToLockForTooLong",
      "type": "error"
    },
    {
      "inputs": [],
      "name": "WithdrawalsPaused",
      "type": "error"
    },
    {
      "anonymous": false,
      "inputs": [
        {
          "indexed": true,
          "internalType": "address",
          "name": "staker",
          "type": "address"
        },
        {
          "indexed": true,
          "internalType": "address",
          "name": "spender",
          "type": "address"
        },
        {
          "indexed": true,
          "internalType": "bytes32",
          "name": "kek_id",
          "type": "bytes32"
        },
        {
          "indexed": false,
          "internalType": "uint256",
          "name": "amount",
          "type": "uint256"
        }
      ],
      "name": "Approval",
      "type": "event"
    },
    {
      "anonymous": false,
      "inputs": [
        {
          "indexed": true,
          "internalType": "address",
          "name": "owner",
          "type": "address"
        },
        {
          "indexed": true,
          "internalType": "address",
          "name": "spender",
          "type": "address"
        },
        {
          "indexed": false,
          "internalType": "bool",
          "name": "approved",
          "type": "bool"
        }
      ],
      "name": "ApprovalForAll",
      "type": "event"
    },
    {
      "anonymous": false,
      "inputs": [
        {
          "indexed": true,
          "internalType": "address",
          "name": "user",
          "type": "address"
        },
        {
          "indexed": false,
          "internalType": "bytes32",
          "name": "kek_id",
          "type": "bytes32"
        },
        {
          "indexed": false,
          "internalType": "uint256",
          "name": "amount",
          "type": "uint256"
        }
      ],
      "name": "LockedAdditional",
      "type": "event"
    },
    {
      "anonymous": false,
      "inputs": [
        {
          "indexed": true,
          "internalType": "address",
          "name": "user",
          "type": "address"
        },
        {
          "indexed": false,
          "internalType": "bytes32",
          "name": "kek_id",
          "type": "bytes32"
        },
        {
          "indexed": false,
          "internalType": "uint256",
          "name": "new_secs",
          "type": "uint256"
        },
        {
          "indexed": false,
          "internalType": "uint256",
          "name": "new_start_ts",
          "type": "uint256"
        },
        {
          "indexed": false,
          "internalType": "uint256",
          "name": "new_end_ts",
          "type": "uint256"
        }
      ],
      "name": "LockedLonger",
      "type": "event"
    },
    {
      "anonymous": false,
      "inputs": [
        {
          "indexed": false,
          "internalType": "address",
          "name": "oldOwner",
          "type": "address"
        },
        {
          "indexed": false,
          "internalType": "address",
          "name": "newOwner",
          "type": "address"
        }
      ],
      "name": "OwnerChanged",
      "type": "event"
    },
    {
      "anonymous": false,
      "inputs": [
        {
          "indexed": false,
          "internalType": "address",
          "name": "newOwner",
          "type": "address"
        }
      ],
      "name": "OwnerNominated",
      "type": "event"
    },
    {
      "anonymous": false,
      "inputs": [
        {
          "indexed": true,
          "internalType": "address",
          "name": "user",
          "type": "address"
        },
        {
          "indexed": false,
          "internalType": "uint256",
          "name": "amount",
          "type": "uint256"
        },
        {
          "indexed": false,
          "internalType": "address",
          "name": "token_address",
          "type": "address"
        },
        {
          "indexed": false,
          "internalType": "address",
          "name": "destination_address",
          "type": "address"
        }
      ],
      "name": "RewardPaid",
      "type": "event"
    },
    {
      "anonymous": false,
      "inputs": [
        {
          "indexed": true,
          "internalType": "address",
          "name": "user",
          "type": "address"
        },
        {
          "indexed": false,
          "internalType": "uint256",
          "name": "amount",
          "type": "uint256"
        },
        {
          "indexed": false,
          "internalType": "uint256",
          "name": "secs",
          "type": "uint256"
        },
        {
          "indexed": false,
          "internalType": "bytes32",
          "name": "kek_id",
          "type": "bytes32"
        },
        {
          "indexed": false,
          "internalType": "address",
          "name": "source_address",
          "type": "address"
        }
      ],
      "name": "StakeLocked",
      "type": "event"
    },
    {
      "anonymous": false,
      "inputs": [
        {
          "indexed": true,
          "internalType": "address",
          "name": "staker_address",
          "type": "address"
        },
        {
          "indexed": true,
          "internalType": "address",
          "name": "destination_address",
          "type": "address"
        },
        {
          "indexed": false,
          "internalType": "uint256",
          "name": "amount_transferred",
          "type": "uint256"
        },
        {
          "indexed": false,
          "internalType": "bytes32",
          "name": "source_kek_id",
          "type": "bytes32"
        },
        {
          "indexed": false,
          "internalType": "bytes32",
          "name": "destination_kek_id",
          "type": "bytes32"
        }
      ],
      "name": "TransferLocked",
      "type": "event"
    },
    {
      "anonymous": false,
      "inputs": [
        {
          "indexed": true,
          "internalType": "address",
          "name": "user",
          "type": "address"
        },
        {
          "indexed": false,
          "internalType": "uint256",
          "name": "liquidity",
          "type": "uint256"
        },
        {
          "indexed": false,
          "internalType": "bytes32",
          "name": "kek_id",
          "type": "bytes32"
        },
        {
          "indexed": false,
          "internalType": "address",
          "name": "destination_address",
          "type": "address"
        }
      ],
      "name": "WithdrawLocked",
      "type": "event"
    },
    {
      "inputs": [],
      "name": "acceptOwnership",
      "outputs": [],
      "stateMutability": "nonpayable",
      "type": "function"
    },
    {
      "inputs": [
        {
          "internalType": "address",
          "name": "account",
          "type": "address"
        }
      ],
      "name": "calcCurCombinedWeight",
      "outputs": [
        {
          "internalType": "uint256",
          "name": "old_combined_weight",
          "type": "uint256"
        },
        {
          "internalType": "uint256",
          "name": "new_vefxs_multiplier",
          "type": "uint256"
        },
        {
          "internalType": "uint256",
          "name": "new_combined_weight",
          "type": "uint256"
        }
      ],
      "stateMutability": "view",
      "type": "function"
    },
    {
      "inputs": [
        {
          "internalType": "address",
          "name": "account",
          "type": "address"
        },
        {
          "internalType": "uint256",
          "name": "stake_idx",
          "type": "uint256"
        }
      ],
      "name": "calcCurrLockMultiplier",
      "outputs": [
        {
          "internalType": "uint256",
          "name": "midpoint_lock_multiplier",
          "type": "uint256"
        }
      ],
      "stateMutability": "view",
      "type": "function"
    },
    {
      "inputs": [
        {
          "internalType": "address",
          "name": "reward_token_address",
          "type": "address"
        },
        {
          "internalType": "address",
          "name": "new_manager_address",
          "type": "address"
        }
      ],
      "name": "changeTokenManager",
      "outputs": [],
      "stateMutability": "nonpayable",
      "type": "function"
    },
    {
      "inputs": [
        {
          "internalType": "address",
          "name": "account",
          "type": "address"
        }
      ],
      "name": "combinedWeightOf",
      "outputs": [
        {
          "internalType": "uint256",
          "name": "",
          "type": "uint256"
        }
      ],
      "stateMutability": "view",
      "type": "function"
    },
    {
      "inputs": [],
      "name": "curvePool",
      "outputs": [
        {
          "internalType": "contract I2pool",
          "name": "",
          "type": "address"
        }
      ],
      "stateMutability": "view",
      "type": "function"
    },
    {
      "inputs": [],
      "name": "curveToken",
      "outputs": [
        {
          "internalType": "contract I2poolToken",
          "name": "",
          "type": "address"
        }
      ],
      "stateMutability": "view",
      "type": "function"
    },
    {
      "inputs": [
        {
          "internalType": "address",
          "name": "account",
          "type": "address"
        }
      ],
      "name": "earned",
      "outputs": [
        {
          "internalType": "uint256[]",
          "name": "new_earned",
          "type": "uint256[]"
        }
      ],
      "stateMutability": "view",
      "type": "function"
    },
    {
      "inputs": [],
      "name": "fraxPerLPStored",
      "outputs": [
        {
          "internalType": "uint256",
          "name": "",
          "type": "uint256"
        }
      ],
      "stateMutability": "view",
      "type": "function"
    },
    {
      "inputs": [],
      "name": "fraxPerLPToken",
      "outputs": [
        {
          "internalType": "uint256",
          "name": "",
          "type": "uint256"
        }
      ],
      "stateMutability": "view",
      "type": "function"
    },
    {
      "inputs": [],
      "name": "getAllRewardTokens",
      "outputs": [
        {
          "internalType": "address[]",
          "name": "",
          "type": "address[]"
        }
      ],
      "stateMutability": "view",
      "type": "function"
    },
    {
      "inputs": [
        {
          "internalType": "address",
          "name": "addr",
          "type": "address"
        }
      ],
      "name": "getProxyFor",
      "outputs": [
        {
          "internalType": "address",
          "name": "",
          "type": "address"
        }
      ],
      "stateMutability": "view",
      "type": "function"
    },
    {
      "inputs": [
        {
          "internalType": "address",
          "name": "destination_address",
          "type": "address"
        }
      ],
      "name": "getReward",
      "outputs": [
        {
          "internalType": "uint256[]",
          "name": "",
          "type": "uint256[]"
        }
      ],
      "stateMutability": "nonpayable",
      "type": "function"
    },
    {
      "inputs": [
        {
          "internalType": "address",
          "name": "destination_address",
          "type": "address"
        },
        {
          "internalType": "bool",
          "name": "claim_extra_too",
          "type": "bool"
        }
      ],
      "name": "getReward2",
      "outputs": [
        {
          "internalType": "uint256[]",
          "name": "",
          "type": "uint256[]"
        }
      ],
      "stateMutability": "nonpayable",
      "type": "function"
    },
    {
      "inputs": [
        {
          "internalType": "address",
          "name": "destination_address",
          "type": "address"
        }
      ],
      "name": "getRewardExtraLogic",
      "outputs": [],
      "stateMutability": "nonpayable",
      "type": "function"
    },
    {
      "inputs": [],
      "name": "getRewardForDuration",
      "outputs": [
        {
          "internalType": "uint256[]",
          "name": "rewards_per_duration_arr",
          "type": "uint256[]"
        }
      ],
      "stateMutability": "view",
      "type": "function"
    },
    {
      "inputs": [
        {
          "internalType": "address",
          "name": "staker",
          "type": "address"
        },
        {
          "internalType": "bytes32",
          "name": "kek_id",
          "type": "bytes32"
        },
        {
          "internalType": "uint256",
          "name": "amount",
          "type": "uint256"
        }
      ],
      "name": "isApproved",
      "outputs": [
        {
          "internalType": "bool",
          "name": "",
          "type": "bool"
        }
      ],
      "stateMutability": "view",
      "type": "function"
    },
    {
      "inputs": [
        {
          "internalType": "address",
          "name": "caller_addr",
          "type": "address"
        },
        {
          "internalType": "address",
          "name": "reward_token_addr",
          "type": "address"
        }
      ],
      "name": "isTokenManagerFor",
      "outputs": [
        {
          "internalType": "bool",
          "name": "",
          "type": "bool"
        }
      ],
      "stateMutability": "view",
      "type": "function"
    },
    {
      "inputs": [
        {
          "internalType": "address",
          "name": "",
          "type": "address"
        },
        {
          "internalType": "bytes32",
          "name": "",
          "type": "bytes32"
        },
        {
          "internalType": "address",
          "name": "",
          "type": "address"
        }
      ],
      "name": "kekAllowance",
      "outputs": [
        {
          "internalType": "uint256",
          "name": "",
          "type": "uint256"
        }
      ],
      "stateMutability": "view",
      "type": "function"
    },
    {
      "inputs": [
        {
          "internalType": "address",
          "name": "",
          "type": "address"
        }
      ],
      "name": "lastRewardClaimTime",
      "outputs": [
        {
          "internalType": "uint256",
          "name": "",
          "type": "uint256"
        }
      ],
      "stateMutability": "view",
      "type": "function"
    },
    {
      "inputs": [],
      "name": "lastUpdateTime",
      "outputs": [
        {
          "internalType": "uint256",
          "name": "",
          "type": "uint256"
        }
      ],
      "stateMutability": "view",
      "type": "function"
    },
    {
      "inputs": [
        {
          "internalType": "bytes32",
          "name": "kek_id",
          "type": "bytes32"
        },
        {
          "internalType": "uint256",
          "name": "addl_liq",
          "type": "uint256"
        }
      ],
      "name": "lockAdditional",
      "outputs": [],
      "stateMutability": "nonpayable",
      "type": "function"
    },
    {
      "inputs": [
        {
          "internalType": "bytes32",
          "name": "kek_id",
          "type": "bytes32"
        },
        {
          "internalType": "uint256",
          "name": "new_ending_ts",
          "type": "uint256"
        }
      ],
      "name": "lockLonger",
      "outputs": [],
      "stateMutability": "nonpayable",
      "type": "function"
    },
    {
      "inputs": [
        {
          "internalType": "uint256",
          "name": "secs",
          "type": "uint256"
        }
      ],
      "name": "lockMultiplier",
      "outputs": [
        {
          "internalType": "uint256",
          "name": "",
          "type": "uint256"
        }
      ],
      "stateMutability": "view",
      "type": "function"
    },
    {
      "inputs": [],
      "name": "lock_max_multiplier",
      "outputs": [
        {
          "internalType": "uint256",
          "name": "",
          "type": "uint256"
        }
      ],
      "stateMutability": "view",
      "type": "function"
    },
    {
      "inputs": [],
      "name": "lock_time_for_max_multiplier",
      "outputs": [
        {
          "internalType": "uint256",
          "name": "",
          "type": "uint256"
        }
      ],
      "stateMutability": "view",
      "type": "function"
    },
    {
      "inputs": [],
      "name": "lock_time_min",
      "outputs": [
        {
          "internalType": "uint256",
          "name": "",
          "type": "uint256"
        }
      ],
      "stateMutability": "view",
      "type": "function"
    },
    {
      "inputs": [
        {
          "internalType": "address",
          "name": "account",
          "type": "address"
        }
      ],
      "name": "lockedLiquidityOf",
      "outputs": [
        {
          "internalType": "uint256",
          "name": "",
          "type": "uint256"
        }
      ],
      "stateMutability": "view",
      "type": "function"
    },
    {
      "inputs": [
        {
          "internalType": "address",
          "name": "",
          "type": "address"
        },
        {
          "internalType": "uint256",
          "name": "",
          "type": "uint256"
        }
      ],
      "name": "lockedStakes",
      "outputs": [
        {
          "internalType": "bytes32",
          "name": "kek_id",
          "type": "bytes32"
        },
        {
          "internalType": "uint256",
          "name": "start_timestamp",
          "type": "uint256"
        },
        {
          "internalType": "uint256",
          "name": "liquidity",
          "type": "uint256"
        },
        {
          "internalType": "uint256",
          "name": "ending_timestamp",
          "type": "uint256"
        },
        {
          "internalType": "uint256",
          "name": "lock_multiplier",
          "type": "uint256"
        }
      ],
      "stateMutability": "view",
      "type": "function"
    },
    {
      "inputs": [
        {
          "internalType": "address",
          "name": "account",
          "type": "address"
        }
      ],
      "name": "lockedStakesOf",
      "outputs": [
        {
          "components": [
            {
              "internalType": "bytes32",
              "name": "kek_id",
              "type": "bytes32"
            },
            {
              "internalType": "uint256",
              "name": "start_timestamp",
              "type": "uint256"
            },
            {
              "internalType": "uint256",
              "name": "liquidity",
              "type": "uint256"
            },
            {
              "internalType": "uint256",
              "name": "ending_timestamp",
              "type": "uint256"
            },
            {
              "internalType": "uint256",
              "name": "lock_multiplier",
              "type": "uint256"
            }
          ],
          "internalType": "struct FraxUnifiedFarm_ERC20.LockedStake[]",
          "name": "",
          "type": "tuple[]"
        }
      ],
      "stateMutability": "view",
      "type": "function"
    },
    {
      "inputs": [
        {
          "internalType": "address",
          "name": "account",
          "type": "address"
        }
      ],
      "name": "lockedStakesOfLength",
      "outputs": [
        {
          "internalType": "uint256",
          "name": "",
          "type": "uint256"
        }
      ],
      "stateMutability": "view",
      "type": "function"
    },
    {
      "inputs": [
        {
          "internalType": "address",
          "name": "account",
          "type": "address"
        }
      ],
      "name": "maxLPForMaxBoost",
      "outputs": [
        {
          "internalType": "uint256",
          "name": "",
          "type": "uint256"
        }
      ],
      "stateMutability": "view",
      "type": "function"
    },
    {
      "inputs": [
        {
          "internalType": "address",
          "name": "account",
          "type": "address"
        }
      ],
      "name": "minVeFXSForMaxBoost",
      "outputs": [
        {
          "internalType": "uint256",
          "name": "",
          "type": "uint256"
        }
      ],
      "stateMutability": "view",
      "type": "function"
    },
    {
      "inputs": [
        {
          "internalType": "address",
          "name": "proxy_address",
          "type": "address"
        }
      ],
      "name": "minVeFXSForMaxBoostProxy",
      "outputs": [
        {
          "internalType": "uint256",
          "name": "",
          "type": "uint256"
        }
      ],
      "stateMutability": "view",
      "type": "function"
    },
    {
      "inputs": [
        {
          "internalType": "address",
          "name": "_owner",
          "type": "address"
        }
      ],
      "name": "nominateNewOwner",
      "outputs": [],
      "stateMutability": "nonpayable",
      "type": "function"
    },
    {
      "inputs": [],
      "name": "nominatedOwner",
      "outputs": [
        {
          "internalType": "address",
          "name": "",
          "type": "address"
        }
      ],
      "stateMutability": "view",
      "type": "function"
    },
    {
      "inputs": [],
      "name": "owner",
      "outputs": [
        {
          "internalType": "address",
          "name": "",
          "type": "address"
        }
      ],
      "stateMutability": "view",
      "type": "function"
    },
    {
      "inputs": [],
      "name": "periodFinish",
      "outputs": [
        {
          "internalType": "uint256",
          "name": "",
          "type": "uint256"
        }
      ],
      "stateMutability": "view",
      "type": "function"
    },
    {
      "inputs": [
        {
          "internalType": "address",
          "name": "proxy_address",
          "type": "address"
        }
      ],
      "name": "proxyStakedFrax",
      "outputs": [
        {
          "internalType": "uint256",
          "name": "",
          "type": "uint256"
        }
      ],
      "stateMutability": "view",
      "type": "function"
    },
    {
      "inputs": [
        {
          "internalType": "address",
          "name": "staker_address",
          "type": "address"
        }
      ],
      "name": "proxyToggleStaker",
      "outputs": [],
      "stateMutability": "nonpayable",
      "type": "function"
    },
    {
      "inputs": [
        {
          "internalType": "address",
          "name": "",
          "type": "address"
        }
      ],
      "name": "proxy_lp_balances",
      "outputs": [
        {
          "internalType": "uint256",
          "name": "",
          "type": "uint256"
        }
      ],
      "stateMutability": "view",
      "type": "function"
    },
    {
      "inputs": [
        {
          "internalType": "address",
          "name": "tokenAddress",
          "type": "address"
        },
        {
          "internalType": "uint256",
          "name": "tokenAmount",
          "type": "uint256"
        }
      ],
      "name": "recoverERC20",
      "outputs": [],
      "stateMutability": "nonpayable",
      "type": "function"
    },
    {
      "inputs": [
        {
          "internalType": "address",
          "name": "spender",
          "type": "address"
        },
        {
          "internalType": "bytes32",
          "name": "kek_id",
          "type": "bytes32"
        }
      ],
      "name": "removeAllowance",
      "outputs": [],
      "stateMutability": "nonpayable",
      "type": "function"
    },
    {
      "inputs": [
        {
          "internalType": "address",
          "name": "",
          "type": "address"
        }
      ],
      "name": "rewardManagers",
      "outputs": [
        {
          "internalType": "address",
          "name": "",
          "type": "address"
        }
      ],
      "stateMutability": "view",
      "type": "function"
    },
    {
      "inputs": [
        {
          "internalType": "uint256",
          "name": "token_idx",
          "type": "uint256"
        }
      ],
      "name": "rewardRates",
      "outputs": [
        {
          "internalType": "uint256",
          "name": "rwd_rate",
          "type": "uint256"
        }
      ],
      "stateMutability": "view",
      "type": "function"
    },
    {
      "inputs": [
        {
          "internalType": "address",
          "name": "",
          "type": "address"
        }
      ],
      "name": "rewardTokenAddrToIdx",
      "outputs": [
        {
          "internalType": "uint256",
          "name": "",
          "type": "uint256"
        }
      ],
      "stateMutability": "view",
      "type": "function"
    },
    {
      "inputs": [],
      "name": "rewardsDuration",
      "outputs": [
        {
          "internalType": "uint256",
          "name": "",
          "type": "uint256"
        }
      ],
      "stateMutability": "view",
      "type": "function"
    },
    {
      "inputs": [],
      "name": "rewardsPerToken",
      "outputs": [
        {
          "internalType": "uint256[]",
          "name": "newRewardsPerTokenStored",
          "type": "uint256[]"
        }
      ],
      "stateMutability": "view",
      "type": "function"
    },
    {
      "inputs": [
        {
          "internalType": "address",
          "name": "spender",
          "type": "address"
        },
        {
          "internalType": "bytes32",
          "name": "kek_id",
          "type": "bytes32"
        },
        {
          "internalType": "uint256",
          "name": "amount",
          "type": "uint256"
        }
      ],
      "name": "setAllowance",
      "outputs": [],
      "stateMutability": "nonpayable",
      "type": "function"
    },
    {
      "inputs": [
        {
          "internalType": "address",
          "name": "spender",
          "type": "address"
        },
        {
          "internalType": "bool",
          "name": "approved",
          "type": "bool"
        }
      ],
      "name": "setApprovalForAll",
      "outputs": [],
      "stateMutability": "nonpayable",
      "type": "function"
    },
    {
      "inputs": [
        {
          "internalType": "uint256[6]",
          "name": "_misc_vars",
          "type": "uint256[6]"
        }
      ],
      "name": "setMiscVariables",
      "outputs": [],
      "stateMutability": "nonpayable",
      "type": "function"
    },
    {
      "inputs": [
        {
          "internalType": "bool",
          "name": "_stakingPaused",
          "type": "bool"
        },
        {
          "internalType": "bool",
          "name": "_withdrawalsPaused",
          "type": "bool"
        },
        {
          "internalType": "bool",
          "name": "_rewardsCollectionPaused",
          "type": "bool"
        }
      ],
      "name": "setPauses",
      "outputs": [],
      "stateMutability": "nonpayable",
      "type": "function"
    },
    {
      "inputs": [
        {
          "internalType": "address",
          "name": "reward_token_address",
          "type": "address"
        },
        {
          "internalType": "uint256",
          "name": "_new_rate",
          "type": "uint256"
        },
        {
          "internalType": "address",
          "name": "_gauge_controller_address",
          "type": "address"
        },
        {
          "internalType": "address",
          "name": "_rewards_distributor_address",
          "type": "address"
        }
      ],
      "name": "setRewardVars",
      "outputs": [],
      "stateMutability": "nonpayable",
      "type": "function"
    },
    {
      "inputs": [
        {
          "internalType": "address",
          "name": "",
          "type": "address"
        },
        {
          "internalType": "address",
          "name": "",
          "type": "address"
        }
      ],
      "name": "spenderApprovalForAllLocks",
      "outputs": [
        {
          "internalType": "bool",
          "name": "",
          "type": "bool"
        }
      ],
      "stateMutability": "view",
      "type": "function"
    },
    {
      "inputs": [
        {
          "internalType": "uint256",
          "name": "liquidity",
          "type": "uint256"
        },
        {
          "internalType": "uint256",
          "name": "secs",
          "type": "uint256"
        }
      ],
      "name": "stakeLocked",
      "outputs": [
        {
          "internalType": "bytes32",
          "name": "",
          "type": "bytes32"
        }
      ],
      "stateMutability": "nonpayable",
      "type": "function"
    },
    {
      "inputs": [
        {
          "internalType": "address",
          "name": "proxy_address",
          "type": "address"
        }
      ],
      "name": "stakerSetVeFXSProxy",
      "outputs": [],
      "stateMutability": "nonpayable",
      "type": "function"
    },
    {
      "inputs": [
        {
          "internalType": "address",
          "name": "",
          "type": "address"
        }
      ],
      "name": "staker_designated_proxies",
      "outputs": [
        {
          "internalType": "address",
          "name": "",
          "type": "address"
        }
      ],
      "stateMutability": "view",
      "type": "function"
    },
    {
      "inputs": [],
      "name": "stakesUnlocked",
      "outputs": [
        {
          "internalType": "bool",
          "name": "",
          "type": "bool"
        }
      ],
      "stateMutability": "view",
      "type": "function"
    },
    {
      "inputs": [],
      "name": "stakingToken",
      "outputs": [
        {
          "internalType": "contract IConvexStakingWrapperFrax",
          "name": "",
          "type": "address"
        }
      ],
      "stateMutability": "view",
      "type": "function"
    },
    {
      "inputs": [],
      "name": "sync",
      "outputs": [],
      "stateMutability": "nonpayable",
      "type": "function"
    },
    {
      "inputs": [
        {
          "internalType": "bool",
          "name": "force_update",
          "type": "bool"
        }
      ],
      "name": "sync_gauge_weights",
      "outputs": [],
      "stateMutability": "nonpayable",
      "type": "function"
    },
    {
      "inputs": [
        {
          "internalType": "address",
          "name": "_proxy_addr",
          "type": "address"
        }
      ],
      "name": "toggleValidVeFXSProxy",
      "outputs": [],
      "stateMutability": "nonpayable",
      "type": "function"
    },
    {
      "inputs": [],
      "name": "totalCombinedWeight",
      "outputs": [
        {
          "internalType": "uint256",
          "name": "",
          "type": "uint256"
        }
      ],
      "stateMutability": "view",
      "type": "function"
    },
    {
      "inputs": [],
      "name": "totalLiquidityLocked",
      "outputs": [
        {
          "internalType": "uint256",
          "name": "",
          "type": "uint256"
        }
      ],
      "stateMutability": "view",
      "type": "function"
    },
    {
      "inputs": [
        {
          "internalType": "address",
          "name": "receiver_address",
          "type": "address"
        },
        {
          "internalType": "bytes32",
          "name": "source_kek_id",
          "type": "bytes32"
        },
        {
          "internalType": "uint256",
          "name": "transfer_amount",
          "type": "uint256"
        },
        {
          "internalType": "bytes32",
          "name": "destination_kek_id",
          "type": "bytes32"
        }
      ],
      "name": "transferLocked",
      "outputs": [
        {
          "internalType": "bytes32",
          "name": "",
          "type": "bytes32"
        }
      ],
      "stateMutability": "nonpayable",
      "type": "function"
    },
    {
      "inputs": [
        {
          "internalType": "address",
          "name": "staker_address",
          "type": "address"
        },
        {
          "internalType": "address",
          "name": "receiver_address",
          "type": "address"
        },
        {
          "internalType": "bytes32",
          "name": "source_kek_id",
          "type": "bytes32"
        },
        {
          "internalType": "uint256",
          "name": "transfer_amount",
          "type": "uint256"
        },
        {
          "internalType": "bytes32",
          "name": "destination_kek_id",
          "type": "bytes32"
        }
      ],
      "name": "transferLockedFrom",
      "outputs": [
        {
          "internalType": "bytes32",
          "name": "",
          "type": "bytes32"
        }
      ],
      "stateMutability": "nonpayable",
      "type": "function"
    },
    {
      "inputs": [],
      "name": "unlockStakes",
      "outputs": [],
      "stateMutability": "nonpayable",
      "type": "function"
    },
    {
      "inputs": [
        {
          "internalType": "address",
          "name": "account",
          "type": "address"
        },
        {
          "internalType": "bool",
          "name": "sync_too",
          "type": "bool"
        }
      ],
      "name": "updateRewardAndBalance",
      "outputs": [],
      "stateMutability": "nonpayable",
      "type": "function"
    },
    {
      "inputs": [
        {
          "internalType": "address",
          "name": "account",
          "type": "address"
        }
      ],
      "name": "userStakedFrax",
      "outputs": [
        {
          "internalType": "uint256",
          "name": "",
          "type": "uint256"
        }
      ],
      "stateMutability": "view",
      "type": "function"
    },
    {
      "inputs": [
        {
          "internalType": "address",
          "name": "account",
          "type": "address"
        }
      ],
      "name": "veFXSMultiplier",
      "outputs": [
        {
          "internalType": "uint256",
          "name": "vefxs_multiplier",
          "type": "uint256"
        }
      ],
      "stateMutability": "view",
      "type": "function"
    },
    {
      "inputs": [],
      "name": "vefxs_boost_scale_factor",
      "outputs": [
        {
          "internalType": "uint256",
          "name": "",
          "type": "uint256"
        }
      ],
      "stateMutability": "view",
      "type": "function"
    },
    {
      "inputs": [],
      "name": "vefxs_max_multiplier",
      "outputs": [
        {
          "internalType": "uint256",
          "name": "",
          "type": "uint256"
        }
      ],
      "stateMutability": "view",
      "type": "function"
    },
    {
      "inputs": [],
      "name": "vefxs_per_frax_for_max_boost",
      "outputs": [
        {
          "internalType": "uint256",
          "name": "",
          "type": "uint256"
        }
      ],
      "stateMutability": "view",
      "type": "function"
    },
    {
      "inputs": [
        {
          "internalType": "bytes32",
          "name": "kek_id",
          "type": "bytes32"
        },
        {
          "internalType": "address",
          "name": "destination_address",
          "type": "address"
        }
      ],
      "name": "withdrawLocked",
      "outputs": [
        {
          "internalType": "uint256",
          "name": "",
          "type": "uint256"
        }
      ],
      "stateMutability": "nonpayable",
      "type": "function"
    }
  ],
  "bytecode": {
    "object": "0x60c0604052346200005c575b620000266200001962000386565b95949094939193620003b2565b604051615f9f62000b4d82396080518181816124b101528181612661015281816126fc0152612871015260a051815050615f9f90f35b62000065600080fd5b6200000b565b600080fd5b50634e487b7160e01b600052604160045260246000fd5b90601f01601f191681019081106001600160401b03821117620000a957604052565b620000b362000070565b604052565b90620000cf620000c760405190565b928362000087565b565b6001600160a01b031690565b90565b6001600160a01b0381165b036200006b57565b90505190620000cf82620000e0565b60209081906001600160401b0381116200011b57020190565b6200012562000070565b020190565b90929192620001436200013d8262000102565b620000b8565b938185526020808601920283019281841162000186575b915b8383106200016a5750505050565b602080916200017a8486620000f3565b8152019201916200015c565b6200018f600080fd5b6200015a565b90620000dd9181601f82011215620001b4575b6020815191016200012a565b620001bd600080fd5b620001a8565b80620000eb565b90505190620000cf82620001c3565b90929192620001ec6200013d8262000102565b93818552602080860192028301928184116200022f575b915b838310620002135750505050565b60208091620002238486620001ca565b81520192019162000205565b62000238600080fd5b62000203565b90620000dd9181601f820112156200025d575b602081519101620001d9565b62000266600080fd5b62000251565b60e08183031262000377575b620002848282620000f3565b92620002a683602084015160018060401b03811162000368575b840162000195565b92620002c881604085015160018060401b0381116200034a575b850162000195565b92620002ea82606083015160018060401b03811162000359575b83016200023e565b92620000dd6200030f84608085015160018060401b0381116200034a57850162000195565b93620003318160a086015160018060401b0381116200033b575b860162000195565b9360c001620000f3565b62000344600080fd5b62000329565b62000353600080fd5b620002c0565b62000362600080fd5b620002e2565b62000371600080fd5b6200029e565b62000380600080fd5b62000278565b620003a962006aec803803806200039d81620000b8565b9283398101906200026c565b90919293949596565b620000cf965062000810565b620000dd90620000d1906001600160a01b031682565b620000dd90620003be565b620000dd90620003d4565b620000dd620000dd620000dd9290565b90600019905b9181191691161790565b906200041e620000dd6200042692620003ea565b8254620003fa565b9055565b50634e487b7160e01b600052601160045260246000fd5b620000cf6200042a565b9160001960089290920291821b911b62000400565b919062000475620000dd6200042693620003ea565b9083546200044b565b620000cf9160009162000460565b81811062000498575050565b80620004a860006001936200047e565b016200048c565b9091828110620004be57505050565b620000cf9290620004d6905b92600052602060002090565b90810191016200048c565b90620000cf9168010000000000000000821162000505575b805490828155620004af565b6200050f62000070565b620004f9565b600162000549620004ca62000528855190565b94838060401b03861162000586575b620005438686620004e1565b60200190565b92049160005b8381106200055d5750505050565b600190602062000578620000dd86516001600160a01b031690565b94019381840155016200054f565b6200059062000070565b62000537565b90620000cf9162000515565b818110620005ae575050565b80620005be60006001936200047e565b01620005a2565b9091828110620005d457505050565b620000cf9290620005e590620004ca565b9081019101620005a2565b90620000cf9168010000000000000000821162000614575b805490828155620005c5565b6200061e62000070565b62000608565b600162000652620004ca62000637855190565b94838060401b03861162000686575b620005438686620005f0565b92049160005b838110620006665750505050565b600190602062000678620000dd865190565b940193818401550162000658565b6200069062000070565b62000646565b90620000cf9162000624565b6001906000198114620006b3570190565b620006bd6200042a565b0190565b50634e487b7160e01b600052603260045260246000fd5b9060208091620006e6845190565b811015620006f5575b02010190565b620006ff620006c1565b620006ef565b906200071190620003df565b600052602052604060002090565b620007426001916200072f815490565b8410156200074b57600052602060002090565b91020190600090565b62000755620006c1565b600052602060002090565b906200078c620000cf928054906801000000000000000082101562000793575b6001820181556200071f565b9062000460565b6200079d62000070565b62000780565b906001600160a01b039062000400565b90620007c7620000dd6200042692620003df565b8254620007a3565b9060ff9062000400565b90620007ec620000dd6200042692151590565b8254620007cf565b620000dd62093a80620003ea565b919082018092116200044157565b94620008fb6200090b9493956200082d6200090394999862000a2d565b6200084c73c8418af6358ffdda74e09ca9cc3fe03ca6adc5b0620003df565b60805273853d955acef822db058eb8505911ed77f175b99e60a052620008e6671bc16d674ec800006200087f81620003ea565b6200088c8160066200040a565b6200089d6301e1338060076200040a565b620008ad6209105060086200040a565b620008dd673782dace9d90000091620008c683620003ea565b93620008d48560096200040a565b50600a6200040a565b50600b6200040a565b620008f389601062000596565b601162000596565b601262000596565b601362000696565b60006200091881620003ea565b925b62000927620000dd865190565b841015620009db5762000964846200095e6014620009576200094a848b620006d8565b516001600160a01b031690565b9062000705565b6200040a565b620009c86015620009816200097985620003ea565b809262000760565b620009916200094a8787620006d8565b620009b281620009ac600f620009576200094a8c8e620006d8565b620007b3565b50620009c081601962000760565b601a62000760565b620009d384620006a2565b93506200091a565b9350915050620009ed816021620007d9565b5062000a114262000a008160056200040a565b62000a0a620007f4565b9062000802565b62000a1e8160046200040a565b50565b620000dd6001620003ea565b62000a389062000ad1565b62000a4262000a21565b62000a1e8160026200040a565b620000d1620000dd620000dd9290565b620000dd9062000a4f565b1562000a7257565b60405162461bcd60e51b815260206004820152601960248201527f4f776e657220616464726573732063616e6e6f742062652030000000000000006044820152606490fd5b6001600160a01b0391821681529116602082015260400190565b60009062000adf8262000a5f565b9162000b006001600160a01b0384166001600160a01b038416141562000a6a565b62000b0c8282620007b3565b507fb532073b38c83145e3e5135377a08bf9aab55bc0fd7c1179cd4fb995d2a5159c9162000b4762000b3d60405190565b9283928362000ab7565b0390a156fe60806040526004361015610018575b610016600080fd5b005b60003560e01c80628cc262146105df578063061a7bf5146105d65780630d7bac4f146105cd57806312edb24c146105c45780631627540c146105bb57806317b18c89146105b25780631bcb7d90146105a95780631c1f78eb146105a05780631e090f01146105975780631face8561461058e578063218751b214610585578063231b68dc1461057c57806328408bab146105735780632c0c2a0a1461056a57806336f89af214610561578063386a952514610558578063387edc861461054f5780633c62c44f1461054657806341a16f3f1461053d5780634f39059c146105345780634fd2b5361461052b57806353a47bb71461052257806355189773146105195780635bfd92581461051057806364f2c06014610507578063663b135c146104fe57806369339245146104f55780636c430dbb146104ec5780636e27cef9146104e357806370641a36146104da57806372f702f3146104d1578063774d4ae7146104c85780637910d17b146104bf5780637970833e146104b657806379ba5097146104ad5780637ab44e40146104a45780637d6ef08e1461049b5780637f472e54146104925780638980f11f146104895780638bad86a7146104805780638da5cb5b1461047757806391cf600a1461046e5780639637927f14610465578063a0f234761461045c578063a10d3b3314610453578063a22cb4651461044a578063aa1d4fce14610441578063b61aa08c14610438578063b85efd061461042f578063b94c4dcb14610426578063c00007b01461041d578063c354382614610414578063c8f33c911461040b578063ca6df29d14610402578063cc2abd64146103f9578063cdc82e80146103f0578063d2010fb4146103e7578063d2fbdc0d146103de578063d42fc9b4146103d5578063d5e1a9c6146103cc578063d7400d56146103c3578063d9f96e8d146103ba578063de1a6551146103b1578063e01f62bf146103a8578063e1ba95d21461039f578063e44b9fa514610396578063e7f305821461038d578063ebe2b12b14610384578063f288baf61461037b578063f2a8d34914610372578063f2caeb1e14610369578063f77e34d114610360578063facefb64146103575763fff6cae90361000e57610352611c2c565b61000e565b50610352611c05565b50610352611a65565b50610352611a1e565b506103526119f4565b506103526119be565b50610352611988565b50610352611955565b5061035261192a565b506103526118db565b506103526118b1565b50610352611889565b5061035261185f565b50610352611838565b5061035261180d565b50610352611799565b50610352611771565b50610352611747565b50610352611711565b506103526116dd565b50610352611675565b5061035261164b565b50610352611615565b506103526115eb565b506103526115c1565b5061035261158d565b50610352611565565b5061035261153b565b50610352611507565b506103526114df565b506103526114b5565b5061035261148b565b50610352611458565b5061035261142e565b506103526113e9565b506103526113a3565b50610352611379565b5061035261134f565b50610352611312565b50610352611288565b50610352611247565b506103526110fd565b506103526110d2565b50610352611080565b5061035261104a565b50610352611020565b50610352610fea565b50610352610fae565b50610352610f53565b50610352610ecf565b50610352610ea6565b50610352610e7e565b50610352610e0e565b50610352610dd8565b50610352610dae565b50610352610d78565b50610352610d38565b50610352610cc7565b50610352610c9d565b50610352610c52565b50610352610c28565b50610352610bd6565b50610352610b94565b50610352610b5e565b50610352610af7565b50610352610ac1565b506103526109fc565b506103526109d1565b506103526108ef565b50610352610892565b5061035261085c565b506103526107a9565b5061035261074e565b506103526106c3565b600080fd5b73ffffffffffffffffffffffffffffffffffffffff1690565b90565b73ffffffffffffffffffffffffffffffffffffffff81165b036105e857565b9050359061063582610609565b565b9061060691602081830312156106285761064f600080fd5b610628565b9052565b0190565b9061067c61067561066b845190565b8084529260200190565b9260200190565b9060005b81811061068d5750505090565b9091926106aa6106a36001928651815260200190565b9460200190565b929101610680565b60208082526106069291019061065c565b50346106f0575b6106ec6106e06106db366004610637565b61224a565b604051918291826106b2565b0390f35b6106f8600080fd5b6106ca565b80610621565b90503590610635826106fd565b9091606082840312610741575b61060661072a8484610628565b936107388160208601610703565b93604001610703565b610749600080fd5b61071d565b503461077f575b6106ec61076c610766366004610710565b91614fff565b6040515b91829182901515815260200190565b610787600080fd5b610755565b906106069160208183031215610703576107a4600080fd5b610703565b50346107d7575b6106ec6107c66107c136600461078c565b612405565b6040515b9182918290815260200190565b6107df600080fd5b6107b0565b60009103126107ef57565b610635600080fd5b9061080661067561066b845190565b9060005b8181106108175750505090565b9091926108436106a3600192865173ffffffffffffffffffffffffffffffffffffffff16815260200190565b92910161080a565b6020808252610606929101906107f7565b5034610885575b61086e3660046107e4565b6106ec610879611d95565b6040519182918261084b565b61088d600080fd5b610863565b50346108b1575b6108ac6108a7366004610637565b615b85565b604051005b6108b9600080fd5b610899565b9190610606906040848203126108e2575b6108d98185610703565b93602001610703565b6108ea600080fd5b6108cf565b503461090d575b6106ec6107c66109073660046108be565b90614a18565b610915600080fd5b6108f6565b91906106069060408482031261093e575b6109358185610628565b93602001610628565b610946600080fd5b61092b565b6105ed6106066106069273ffffffffffffffffffffffffffffffffffffffff1690565b6106069061094b565b6106069061096e565b9061098a90610977565b600052602052604060002090565b610606916008021c5b60ff1690565b906106069154610998565b6109cc610606926109c7602693600094610980565b610980565b6109a7565b50346109ef575b6106ec61076c6109e936600461091a565b906109b2565b6109f7600080fd5b6109d8565b5034610a19575b610a0e3660046107e4565b6106ec6106e0612350565b610a21600080fd5b610a03565b8051825261063591906080908190610a4360208201516020860152565b610a5260408201516040860152565b610a6160608201516060860152565b0151910152565b906106588160a093610a26565b90610a8461067561066b845190565b9060005b818110610a955750505090565b909192610aa86106a36001928651610a68565b929101610a88565b602080825261060692910190610a75565b5034610aea575b6106ec610ade610ad9366004610637565b614386565b60405191829182610ab0565b610af2600080fd5b610ac8565b5034610b14575b6106ec6107c6610b0f366004610637565b61246f565b610b1c600080fd5b610afe565b610606916008021c6105ed565b906106069154610b21565b61060660006023610b2e565b61065490610977565b6020810192916106359190610b45565b5034610b87575b610b703660046107e4565b6106ec610b7b610b39565b60405191829182610b4e565b610b8f600080fd5b610b65565b5034610bb2575b6106ec61076c610bac36600461091a565b90611c66565b610bba600080fd5b610b9b565b61060690610bd1602091600092610980565b610b2e565b5034610c1b575b6106ec610bf3610bee366004610637565b610bbf565b6040515b9182918273ffffffffffffffffffffffffffffffffffffffff909116815260200190565b610c23600080fd5b610bdd565b5034610c45575b6106ec6107c6610c40366004610637565b6125fb565b610c4d600080fd5b610c2f565b5034610c6f575b6106ec6107c6610c6a366004610637565b6123ee565b610c77600080fd5b610c59565b6106066106066106069290565b61060662093a80610c7c565b610606610c89565b5034610cba575b610caf3660046107e4565b6106ec6107c6610c95565b610cc2600080fd5b610ca4565b5034610ce1575b6108ac610cdc366004610637565b612f1f565b610ce9600080fd5b610cce565b608081830312610d2b575b610d038282610628565b92610606610d148460208501610703565b93610d228160408601610703565b93606001610703565b610d33600080fd5b610cf9565b5034610d59575b6106ec6107c6610d50366004610cee565b929190916151dc565b610d61600080fd5b610d3f565b61060690610bd1600f91600092610980565b5034610d95575b6106ec610bf3610d90366004610637565b610d66565b610d9d600080fd5b610d7f565b61060660006022610b2e565b5034610dcb575b610dc03660046107e4565b6106ec610b7b610da2565b610dd3600080fd5b610db5565b5034610df5575b6106ec6107c6610df0366004610637565b612585565b610dfd600080fd5b610ddf565b61060660006001610b2e565b5034610e2b575b610e203660046107e4565b6106ec610bf3610e02565b610e33600080fd5b610e15565b801515610621565b9050359061063582610e38565b919061060690604084820312610e71575b610e688185610628565b93602001610e40565b610e79600080fd5b610e5e565b5034610e99575b6108ac610e93366004610e4d565b90612bec565b610ea1600080fd5b610e85565b5034610ec2575b610eb83660046107e4565b6106ec60006107c6565b610eca600080fd5b610ead565b5034610eec575b610ee13660046107e4565b6106ec6107c66123e4565b610ef4600080fd5b610ed6565b919060a083820312610f46575b610f108184610628565b92610f1e8260208301610628565b92610606610f2f8460408501610703565b93610f3d8160608601610703565b93608001610703565b610f4e600080fd5b610f06565b5034610f74575b6106ec6107c6610f6b366004610ef9565b939290926150ea565b610f7c600080fd5b610f5a565b610606916008021c81565b906106069154610f81565b61060690610fa9601491600092610980565b610f8c565b5034610fcb575b6106ec6107c6610fc6366004610637565b610f97565b610fd3600080fd5b610fb5565b61060690610fa9601891600092610980565b5034611007575b6106ec6107c6611002366004610637565b610fd8565b61100f600080fd5b610ff1565b61060660006008610f8c565b503461103d575b6110323660046107e4565b6106ec6107c6611014565b611045600080fd5b611027565b5034611067575b61105c3660046107e4565b6106ec6106e061211b565b61106f600080fd5b611051565b61060660056021610b2e565b503461109d575b6110923660046107e4565b6106ec610b7b611074565b6110a5600080fd5b611087565b9190610606906040848203126110c5575b6108d98185610628565b6110cd600080fd5b6110bb565b50346110f0575b6106ec6107c66110ea3660046110aa565b90614093565b6110f8600080fd5b6110d9565b503461111b575b6106ec6106e0611115366004610e4d565b90612fa8565b611123600080fd5b611104565b507f4e487b7100000000000000000000000000000000000000000000000000000000600052603260045260246000fd5b611178600591611166815490565b84101561118157600052602060002090565b91020190600090565b611189611128565b600052602060002090565b6106069081565b6106069054611194565b91906111b5602493600094610980565b8054821015611206576111c9929350611158565b506111d38161119b565b916111e06001830161119b565b916111ed6002820161119b565b9161060660046111ff6003850161119b565b930161119b565b8380fd5b909594926106359461123c6112439261123560809661122e60a088019c6000890152565b6020870152565b6040850152565b6060830152565b0152565b503461127b575b6106ec61126561125f3660046110aa565b906111a5565b9161127295939560405190565b9586958661120a565b611283600080fd5b61124e565b50346112a2575b61129a3660046107e4565b6108ac615c46565b6112aa600080fd5b61128f565b90916060828403126112e0575b6106066112c98484610628565b936112d78160208601610703565b93604001610628565b6112e8600080fd5b6112bc565b9061098a565b90610606926109c7610fa99261130d602595600096610980565b6112ed565b5034611330575b6106ec6107c661132a3660046112af565b916112f3565b611338600080fd5b611319565b61060690610fa9601f91600092610980565b503461136c575b6106ec6107c6611367366004610637565b61133d565b611374600080fd5b611356565b5034611396575b6106ec6107c6611391366004610637565b6125a7565b61139e600080fd5b611380565b50346113be575b6108ac6113b83660046110aa565b90613bdf565b6113c6600080fd5b6113aa565b908152606081019392610635929091604091611243905b6020830152565b5034611416575b6106ec611406611401366004610637565b6141e4565b6040519193915b938493846113cb565b61141e600080fd5b6113f0565b610606600080610b2e565b503461144b575b6114403660046107e4565b6106ec610bf3611423565b611453600080fd5b611435565b5034611472575b6108ac61146d366004610637565b6139d7565b61147a600080fd5b61145f565b610606600060216109a7565b50346114a8575b61149d3660046107e4565b6106ec61076c61147f565b6114b0600080fd5b611492565b50346114d2575b6106ec6107c66114cd366004610637565b612497565b6114da600080fd5b6114bc565b50346114fa575b6108ac6114f4366004610710565b91614ebc565b611502600080fd5b6114e6565b5034611522575b6108ac61151c366004610e4d565b90614fa6565b61152a600080fd5b61150e565b61060660006009610f8c565b5034611558575b61154d3660046107e4565b6106ec6107c661152f565b611560600080fd5b611542565b5034611580575b6108ac61157a3660046110aa565b90614f39565b611588600080fd5b61156c565b50346115a8575b6108ac6115a23660046108be565b90614680565b6115b0600080fd5b611594565b61060660006007610f8c565b50346115de575b6115d33660046107e4565b6106ec6107c66115b5565b6115e6600080fd5b6115c8565b5034611608575b6106ec6106e0611603366004610637565b612f6a565b611610600080fd5b6115f2565b5034611632575b6106ec610bf361162d366004610637565b6125d2565b61163a600080fd5b61161c565b61060660006005610f8c565b5034611668575b61165d3660046107e4565b6106ec6107c661163f565b611670600080fd5b611652565b5034611692575b6106ec6107c661168d366004610637565b6143a2565b61169a600080fd5b61167c565b90916060828403126116d0575b6106066116b98484610e40565b936116c78160208601610e40565b93604001610e40565b6116d8600080fd5b6116ac565b50346116f8575b6108ac6116f236600461169f565b9161396b565b611700600080fd5b6116e4565b61060660006006610f8c565b503461172e575b6117233660046107e4565b6106ec6107c6611705565b611736600080fd5b611718565b61060660006003610f8c565b5034611764575b6117593660046107e4565b6106ec6107c661173b565b61176c600080fd5b61174e565b503461178c575b6108ac6117863660046108be565b906149d9565b611794600080fd5b611778565b50346117b6575b6106ec6107c66117b1366004610637565b61243f565b6117be600080fd5b6117a0565b608081830312611800575b6117d88282610628565b926106066117e98460208501610703565b936117f78160408601610628565b93606001610628565b611808600080fd5b6117ce565b503461182b575b6108ac6118223660046117c3565b92919091613fce565b611833600080fd5b611814565b5034611852575b6108ac61184d366004610637565b612b2f565b61185a600080fd5b61183f565b503461187c575b6106ec6107c6611877366004610637565b6123cd565b611884600080fd5b611866565b50346118a4575b6108ac61189e36600461091a565b90614000565b6118ac600080fd5b611890565b50346118ce575b6118c33660046107e4565b6106ec6107c66123c3565b6118d6600080fd5b6118b8565b50346118f5575b6118ed3660046107e4565b6108ac6139a2565b6118fd600080fd5b6118e2565b91906106069060408482031261191d575b6109358185610703565b611925600080fd5b611913565b5034611948575b6106ec6107c6611942366004611902565b90614c79565b611950600080fd5b611931565b503461196f575b6108ac61196a366004610637565b612a02565b611977600080fd5b61195c565b61060660006004610f8c565b50346119a5575b61199a3660046107e4565b6106ec6107c661197c565b6119ad600080fd5b61198f565b6106066000600a610f8c565b50346119db575b6119d03660046107e4565b6106ec6107c66119b2565b6119e3600080fd5b6119c5565b6106066000600b610f8c565b5034611a11575b611a063660046107e4565b6106ec6107c66119e8565b611a19600080fd5b6119fb565b5034611a3b575b6106ec6107c6611a3636600461078c565b611ea1565b611a43600080fd5b611a25565b906106069160208183031215610e4057611a60600080fd5b610e40565b5034611a7f575b6108ac611a7a366004611a48565b613201565b611a87600080fd5b611a6c565b601f017fffffffffffffffffffffffffffffffffffffffffffffffffffffffffffffffe01690565b507f4e487b7100000000000000000000000000000000000000000000000000000000600052604160045260246000fd5b90601f017fffffffffffffffffffffffffffffffffffffffffffffffffffffffffffffffe016810190811067ffffffffffffffff821117611b2457604052565b611b2c611ab4565b604052565b90610635611b3e60405190565b9283611ae4565b60209067ffffffffffffffff8111611b5b570290565b611b63611ab4565b0290565b90929192611b7c611b7782611b45565b611b31565b936020859202830192818411611bb5575b915b838310611b9c5750505050565b60208091611baa8486610703565b815201920191611b8f565b611bbd600080fd5b611b8d565b906106069181601f82011215611bdb575b600690611b67565b611be3600080fd5b611bd3565b906106069160c08183031215611bc257611c00600080fd5b611bc2565b5034611c1f575b6108ac611c1a366004611be8565b613f11565b611c27600080fd5b611c0c565b5034611c46575b611c3e3660046107e4565b6108ac6133ad565b611c4e600080fd5b611c33565b610606906105ed565b6106069054611c53565b90611c746105ed6000611c5c565b73ffffffffffffffffffffffffffffffffffffffff831603611c97575050600190565b611cca611cb0611cab611ce493600f610980565b611c5c565b9273ffffffffffffffffffffffffffffffffffffffff1690565b9173ffffffffffffffffffffffffffffffffffffffff1690565b14611cee57600090565b600190565b90611d0e611d0261066b845490565b92600052602060002090565b9060005b818110611d1f5750505090565b909192611d59611d52600192611d3487611c5c565b73ffffffffffffffffffffffffffffffffffffffff16815260200190565b9460010190565b929101611d12565b9061060691611cf3565b90610635611d8592611d7c60405190565b93848092611d61565b0383611ae4565b61060690611d6b565b6106066010611d8c565b611178600191611166815490565b6105ed6106066106069290565b61060690611dad565b90505190610635826106fd565b906106069160208183031215611dc357611de8600080fd5b611dc3565b506040513d6000823e3d90fd5b507f4e487b7100000000000000000000000000000000000000000000000000000000600052601160045260246000fd5b9190611e35565b9290565b91808302928184041490151715611e4857565b610635611dfa565b507f4e487b7100000000000000000000000000000000000000000000000000000000600052601260045260246000fd5b90611e8a565b9190565b908115611e95570490565b611e9d611e50565b0490565b611eb5611eaf826011611d9f565b90610b2e565b611ec26105ed6000611dba565b73ffffffffffffffffffffffffffffffffffffffff821614611fa557611f15610606926020611efd611ef885611f499650610977565b610977565b630a3be75790611f0c60405190565b94859260e01b90565b825260049082905afa918215611f98575b600092611f60575b50611f3d611f43916019611d9f565b90610f8c565b90611e2a565b611f5a670de0b6b3a7640000610c7c565b90611e80565b611f43919250611f89611f3d9160203d8111611f91575b611f818183611ae4565b810190611dd0565b929150611f2e565b503d611f77565b611fa0611ded565b611f26565b50611f3d610606916013611d9f565b6020809167ffffffffffffffff8111611fcc57020190565b611fd4611ab4565b020190565b90611fe6611b7783611fb4565b918252565b369037565b9061063561200661200084611fd9565b93611fb4565b7fffffffffffffffffffffffffffffffffffffffffffffffffffffffffffffffe00160208401611feb565b6001907fffffffffffffffffffffffffffffffffffffffffffffffffffffffffffffffff811461205f570190565b610658611dfa565b91908203918211611e4857565b91908201809211611e4857565b906020809161208e845190565b81101561209c575b02010190565b6120a4611128565b612096565b906120b8611d0261066b845490565b9060005b8181106120c95750505090565b9091926120e6611d526001926120de8761119b565b815260200190565b9291016120bc565b90610606916120a9565b90610635611d859261210960405190565b938480926120ee565b610606906120f8565b612125601b61119b565b600090612134611e8683610c7c565b148015612204575b1561214c57506106066015612112565b61216661216061215b60105490565b611ff0565b91610c7c565b915b6015612175610606825490565b8410156121fe5761218e611f3d85836121dc9450611d9f565b6121d66121cc6121bb6121b26121a2612221565b6121ac600561119b565b90612067565b611f4389611ea1565b611f43670de0b6b3a7640000610c7c565b611f5a601c61119b565b90612074565b6121ed816121ea8686612081565b52565b506121f783612031565b9250612168565b50915090565b5061220f601c61119b565b61221b611e8683610c7c565b1461213c565b6106064261222f600461119b565b8082101561223b575090565b919050565b9061098a90610c7c565b9061225361211b565b9160109061226261215b835490565b908194601e6122796122748483610980565b61119b565b600090612288611e8683610c7c565b11612296575b505050505050565b806122a8919792939495969750610c7c565b955b6122b5610606825490565b87101561233e576106066122b59161231c61230a611f4988611f438b6121ac8f806123056122fd8f612274946122f361227489846122f99550610980565b99612081565b5190565b946016610980565b612240565b6121d66122748c6123058c6017610980565b61232a816121ea8c8c612081565b5061233489612031565b98509150506122aa565b5094505050505038808080808061228e565b60139061235e61215b835490565b90819061236b6000610c7c565b935b612378610606825490565b8510156123bc576106066123789161239a61239288611ea1565b611f43610c89565b6123a8816121ea8a8a612081565b506123b287612031565b965091505061236d565b5091509150565b610606601b61119b565b612274610606916123dc600090565b50601d610980565b610606601c61119b565b612274610606916123fd600090565b50601e610980565b6106069061222f612424612419600661119b565b92611f43600661119b565b611f5a600761119b565b610606670de0b6b3a7640000610c7c565b6124676106069161244e600090565b50611f4361227461245f600361119b565b92601d610980565b611f5a61242e565b6124676106069161247e600090565b50611f4361227461248f600361119b565b92601f610980565b6125436125176020610606936124ab600090565b506124d57f0000000000000000000000000000000000000000000000000000000000000000610977565b6124f36370a082316124e660405190565b9586948593849360e01b90565b835273ffffffffffffffffffffffffffffffffffffffff1660048301526024820190565b03915afa908115612578575b60009161255a575b5061253e61253761242e565b8092611e2a565b611e2a565b611f5a612550600b61119b565b611f43600361119b565b612572915060203d8111611f9157611f818183611ae4565b3861252b565b612580611ded565b612523565b61246761259d61060692612597600090565b5061243f565b611f43600b61119b565b61246761259d610606926125b9600090565b5061246f565b610606906109a1565b61060690546125bf565b6125e56125e082600d610980565b6125c8565b156125ed5790565b611cab610606916020610980565b60009061273860009161260d83610c7c565b50612617816125d2565b9061262184611dba565b9173ffffffffffffffffffffffffffffffffffffffff831673ffffffffffffffffffffffffffffffffffffffff82161480156128675761269d60206126857f0000000000000000000000000000000000000000000000000000000000000000610977565b6370a082319061269460405190565b93849260e01b90565b825273ffffffffffffffffffffffffffffffffffffffff8716600483015260249082905afa90811561285a575b60009161283c575b50935b6126f56126eb6126e5600a61119b565b87611e2a565b611f43600961119b565b60206127207f0000000000000000000000000000000000000000000000000000000000000000610977565b6318160ddd9061272f60405190565b998a9260e01b90565b825260049082905afa96871561282f575b60009761280b575b5061276890611f5a61276161242e565b8099611e2a565b975050156127fb575061277a90612585565b925b61278581610c7c565b8411156127e957506127a86127b2936127a384846127a39550611e2a565b611e80565b611f43600a61119b565b808211156127e15750905b816127ce611e86610606600a61119b565b116127d557565b9050610606600a61119b565b9190506127bd565b9150506127f69150610c7c565b6127b2565b61280591506125a7565b9261277c565b6127689197506128289060203d8111611f9157611f818183611ae4565b9690612751565b612837611ded565b612749565b612854915060203d8111611f9157611f818183611ae4565b386126d2565b612862611ded565b6126ca565b61289560206126857f0000000000000000000000000000000000000000000000000000000000000000610977565b825273ffffffffffffffffffffffffffffffffffffffff8616600483015260249082905afa9081156128ef575b6000916128d1575b50936126d5565b6128e9915060203d8111611f9157611f818183611ae4565b386128ca565b6128f7611ded565b6128c2565b1561290357565b6040517f08c379a000000000000000000000000000000000000000000000000000000000815260206004820152600d60248201527f496e76616c69642070726f7879000000000000000000000000000000000000006044820152606490fd5b0390fd5b9060ff905b9181191691161790565b9061298561060661298c92151590565b8254612966565b9055565b9073ffffffffffffffffffffffffffffffffffffffff9061296b565b906129bc61060661298c92610977565b8254612990565b907fffffffffffffffffffffffffffffffffffffffffffffffffffffffffffffffff9061296b565b906129fb61060661298c92610c7c565b82546129c3565b33612a19612a146125e083600d610980565b6128fc565b80612a4b600e612a46856109c7612a3e612a3a6125e0846109c78a89610980565b1590565b958694610980565b612975565b50602091612a5c611cab8285610980565b612a7b73ffffffffffffffffffffffffffffffffffffffff8416611cca565b14612a8557505050565b612ab461248f61227483612ac3946123dc61063598612aaf612aa76000611dba565b938492610980565b6129ac565b91612abe8361119b565b612067565b906129eb565b15612ad057565b6040517f08c379a000000000000000000000000000000000000000000000000000000000815260206004820152601d60248201527f50726f787920686173206e6f7420616c6c6f77656420796f75207965740000006044820152606490fd5b61063590612b44612a146125e083600d610980565b612ac3612bbf61248f612274612b5b85600e610980565b612b71612b6c6125e0338094610980565b612ac9565b612bb886612aaf836020612b88611cab8383610980565b612b956105ed6000611dba565b73ffffffffffffffffffffffffffffffffffffffff821603612bce575b50610980565b601d610980565b91612bc98361119b565b612074565b612be690612ac3612ab461248f61227487601d610980565b38612bb2565b90612cc8575b612bff6105ed6000611dba565b73ffffffffffffffffffffffffffffffffffffffff821603612c1e5750565b612c27816141e4565b90612c3184612cd5565b612c4581612c4086600c610980565b6129eb565b50818110612c915791612c8482612c64612c8e9486612c409750612067565b90612c7382612bc9601c61119b565b612c7e81601c6129eb565b50612074565b928391601e610980565b50565b91612c8482612ca8612c4095612c8e955082612067565b90612cb782612abe601c61119b565b612cc281601c6129eb565b50612067565b612cd06133ad565b612bf2565b600090612ce46105ed83611dba565b73ffffffffffffffffffffffffffffffffffffffff821603612d04575050565b9091612d0f8261224a565b90612d1984610c7c565b935b612d26610606845190565b851015612d5e57612d3a6122f98685612081565b612d4d81612c4088612305896017610980565b50612d5785612031565b9450612d1b565b612d6a91929450610c7c565b925b612d77610606825190565b841015612dba57610606612d7791612d93611f3d876015611d9f565b612da681612c40896123058a6016610980565b50612db086612031565b9550915050612d6c565b50915050565b6106066002610c7c565b15612dd157565b6040517f08c379a000000000000000000000000000000000000000000000000000000000815260206004820152601f60248201527f5265656e7472616e637947756172643a207265656e7472616e742063616c6c006044820152606490fd5b6106066001610c7c565b612e6d90612e48600261119b565b612e5c612e53612dc0565b91821415612dca565b612e678160026129eb565b50612efc565b612e75612e30565b612c8e8160026129eb565b6106069060101c6109a1565b6106069054612e80565b15612e9d57565b6040517f08c379a000000000000000000000000000000000000000000000000000000000815260206004820152601960248201527f5265776172647320636f6c6c656374696f6e20706175736564000000000000006044820152606490fd5b61063590612c8e612f0d6021612e8c565b612f1960005b91151590565b14612e96565b61063590612e3a565b90612f5391612f37600261119b565b612f42612e53612dc0565b612f4d8160026129eb565b50612f5c565b90612e75612e30565b506106069060019033613179565b610606906060612f28565b90612f539291612f85600261119b565b612f90612e53612dc0565b612f9b8160026129eb565b5050610606919033613179565b61060691906060612f75565b90610606939291612fc6600183612bec565b61301b565b908152606081019392610635929091604091612fff905b73ffffffffffffffffffffffffffffffffffffffff166020830152565b019073ffffffffffffffffffffffffffffffffffffffff169052565b9390919293504261303181612c40856018610980565b5061303c6021612e8c565b6000919061304d90612f1984612f13565b60109161305b61215b845490565b91829061306783610c7c565b975b613074610606875490565b89101561316157866130b360176121ea6130a28d613099612274826123058988610980565b9283918c612081565b50612c408c612305612a3e8a610c7c565b6130c36106066122f98c89612081565b116130d9575b6130d289612031565b9850613069565b6130fd6130e9611eaf8b89611d9f565b896130f76122f98d8a612081565b91615d76565b61310a6122f98a87612081565b613117611eaf8b89611d9f565b7f1d2f2ca53af5d2f333bd32fdd45f9c52ad8ebe31414f7792912077fcb3876dff906131428a610977565b926131598c61315060405190565b93849384612fcb565b0390a26130c9565b9350959350955050613171575050565b506106359050565b6106069291906060612fb4565b73ffffffffffffffffffffffffffffffffffffffff90911681526040810192916106359160200152565b9190600861296b9102916131e37fffffffffffffffffffffffffffffffffffffffffffffffffffffffffffffffff841b90565b921b90565b91906131f961060661298c93610c7c565b9083546131b0565b60009061320d82610c7c565b925b601161321c610606825490565b8510156133a657611eaf85826132329350611d9f565b61323e6105ed85611dba565b73ffffffffffffffffffffffffffffffffffffffff82160361326c575b5061326584612031565b935061320f565b82831561338a575b1561325b576133079060209061328981610977565b61329281610977565b91636472eee1846132be6132a530610977565b926132c9426132b360405190565b958694859460e01b90565b845260048401613186565b03818c885af190811561337d575b600091613360575b506132f5816132ef8c6019611d9f565b906131e8565b50505063513872bd9061269460405190565b825260049082905afa908115613353575b600091613335575b50613330816132ef87601a611d9f565b61325b565b61334d915060203d8111611f9157611f818183611ae4565b38613320565b61335b611ded565b613318565b6133779150853d8111611f9157611f818183611ae4565b386132df565b613385611ded565b6132d7565b50426133a0611e86610606611f3d89601a611d9f565b11613274565b5092505050565b6133b76000613201565b60006133c48160036129eb565b50426133d6611e86610606600461119b565b106133e35761063561353e565b61063561379d565b91906106069060408482031261340f575b6134068185611dc3565b93602001611dc3565b613417600080fd5b6133fc565b6106549073ffffffffffffffffffffffffffffffffffffffff1660601b90565b906106586134956014937f4e6f7420656e6f7567682072657761726420746f6b656e7320617661696c616281527f6c653a2000000000000000000000000000000000000000000000000000000000602082015260240190565b809261341c565b60005b8381106134af5750506000910152565b818101518382015260200161349f565b6134e0611a8c602093610658936134d4815190565b80835293849260200190565b9586910161349c565b6020808252610606929101906134bf565b156135025750565b6129629061350f60405190565b9182917f08c379a0000000000000000000000000000000000000000000000000000000008352600483016134e9565b600061354981610c7c565b915b6012613558610606825490565b84101561362f57611eaf848261356e9350611d9f565b61357a6105ed84611dba565b73ffffffffffffffffffffffffffffffffffffffff8216036135a8575b506135a183612031565b925061354b565b60406135bb611ef8836135e59450610977565b63092193ab906124f3866135ce30610977565b936135d860405190565b9687958694859360e01b90565b03925af18015613622575b15613597576136159060403d811161361b575b61360d8183611ae4565b8101906133eb565b50613597565b503d613603565b61362a611ded565b6135f0565b50909150613641426121ac600461119b565b91613657612160613650610c89565b8095611e80565b925b6010613666610606825490565b851015613759578061371e6136f6611eaf88613724956136ee611e866136d760206136bb611ef8611ef88f8f6136b5611eaf92611f436136aa8e9461253e86611ea1565b916121d66001610c7c565b99611d9f565b6370a08231906124f36136cd30610977565b926124e660405190565b03915afa90811561374c575b600091613734575090565b111594611d9f565b61060661370260405190565b809261371260208301918261343c565b90810382520382611ae4565b906134fa565b61372d84612031565b9350613659565b610606915060203d8111611f9157611f818183611ae4565b613754611ded565b6136e3565b5061377c9293506121d69061253e613771600461119b565b936121d66001610c7c565b6137878160046129eb565b5061379061379d565b6000612c8e8160036129eb565b6137a561211b565b906137b06000610c7c565b915b60156137bf610606825490565b8410156137f4576137e384916132ef6137db6122f98587612081565b938492611d9f565b506137ed83612031565b92506137b2565b50509050613800612221565b612c8e8160056129eb565b1561381257565b6040517f08c379a000000000000000000000000000000000000000000000000000000000815260206004820152601560248201527f4e6f74206f776e6572206f722074696d656c6f636b00000000000000000000006044820152606490fd5b9061063592916138ae336138886105ed6000611c5c565b73ffffffffffffffffffffffffffffffffffffffff8216149081156138b3575b5061380b565b613948565b90506138d2738412ebf45bac1b340bbe8f318b928c466c4e39ca611cca565b14386138a8565b9063ff0000009060181b61296b565b906138f861060661298c92151590565b82546138d9565b9061ff009060081b61296b565b9061391c61060661298c92151590565b82546138ff565b9062ff00009060101b61296b565b9061394161060661298c92151590565b8254613923565b6139538160216138e8565b5061395f81602161390c565b50612c8e816021613931565b906106359291613871565b613987336138886105ed6000611c5c565b610635613997612a3a60216125c8565b612c8e816021612975565b610635613976565b610635906139bf336138886105ed6000611c5c565b612c8e600d612a46612aa7612a3a6125e08685610980565b610635906139aa565b156139e757565b6040517f08c379a000000000000000000000000000000000000000000000000000000000815260206004820152601460248201527f4e6f74206f776e6572206f7220746b6e206d67720000000000000000000000006044820152606490fd5b9061063591613a843382613a5d6105ed6000611c5c565b73ffffffffffffffffffffffffffffffffffffffff831614918215613a89575b50506139e0565b613a9a565b613a939250611c66565b8238613a7d565b6000929183613aa881610c7c565b945b6010613ab7610606825490565b871015613bd457611eaf8782613acd9350611d9f565b613aec73ffffffffffffffffffffffffffffffffffffffff8616611cca565b14613b0157613afa86612031565b9550613aaa565b5090919293506001905b8180613bb4575b8215613b8a575b505015613b2b57610635913390615d76565b6040517f08c379a000000000000000000000000000000000000000000000000000000000815260206004820152601a60248201527f4e6f2076616c696420746f6b656e7320746f207265636f7665720000000000006044820152606490fd5b15915081613b9b575b503880613b19565b9050613bad611cca6105ed3393611c5c565b1438613b93565b9150613bc4611cab85600f610980565b613bcd33611cca565b1491613b12565b509192939450613b0b565b9061063591613a46565b61063590613bfe336138886105ed6000611c5c565b613d4f565b906020906006811015613c1557020190565b611fd4611128565b15613c2457565b6040517f08c379a000000000000000000000000000000000000000000000000000000000815260206004820152601360248201527f4d757374206265203e3d204d554c2050524543000000000000000000000000006044820152606490fd5b15613c8a57565b6040517f08c379a000000000000000000000000000000000000000000000000000000000815260206004820152600c60248201527f4d757374206265203e3d203000000000000000000000000000000000000000006044820152606490fd5b15613cf057565b6040517f08c379a000000000000000000000000000000000000000000000000000000000815260206004820152600c60248201527f4d757374206265203e3d203100000000000000000000000000000000000000006044820152606490fd5b6122f9613e8c91613e706122f9613df06000613d8e613d796122f9613d7384610c7c565b88613c03565b613d87611e8661060661242e565b1015613c1d565b613e2d6122f9613e276001613dae6122f9613da883610c7c565b8b613c03565b613dba611e8687610c7c565b101580613eed575b80613ebe575b613dd190613c83565b613e166122f9613da8600497613e118d613df66122f9613df08d610c7c565b83613c03565b613e02611e8689610c7c565b10159081613e97575b50613ce9565b610c7c565b613e218160066129eb565b50610c7c565b87613c03565b613e3881600a6129eb565b50613e496122f9613e276002610c7c565b613e5481600b6129eb565b50613e656122f9613e276003610c7c565b613e218160096129eb565b613e7b8160076129eb565b50613e866005610c7c565b90613c03565b612c8e8160086129eb565b613eaa91506122f990613e866005610c7c565b613eb6611e8688610c7c565b10158e613e0b565b50613dd1613ed86122f9613ed26003610c7c565b8c613c03565b613ee4611e8688610c7c565b10159050613dc8565b50613efe6122f9613da86002610c7c565b613f0a611e8687610c7c565b1015613dc2565b61063590613be9565b90610635939291613f333382613a5d6105ed6000611c5c565b613f78565b9190600861296b9102916131e373ffffffffffffffffffffffffffffffffffffffff841b90565b9190613f7061060661298c93610977565b908354613f38565b8391613fa2612274613fbf93612c8e96601394613fa8816132ef601498613fa2612274888c610980565b90611d9f565b50613fc581613fbf6011613fa2612274878b610980565b90613f5f565b50601293610980565b90610635939291613f1a565b9061063591613ff13382613a5d6105ed6000611c5c565b81612aaf612c8e92600f610980565b9061063591613fda565b600090565b61060660a0611b31565b90610635614083600461402a61400f565b9461403b6140378261119b565b8752565b61405161404a6001830161119b565b6020880152565b6140676140606002830161119b565b6040880152565b61407d6140766003830161119b565b6060880152565b0161119b565b6080840152565b61060690614019565b9091906140b56140af6000946140aa846024610980565b611158565b5061408a565b926018906140c66122748484610980565b60208601906140d9611e86610606845190565b10156141d05751925b60608601926140ef845190565b429390841061419e57506141069161227491610980565b614114611e86610606855190565b101561418b57614138611f5a916121ac61413361416996612abe875190565b945190565b6141636141558461253e6107c161414f6002610c7c565b83611e80565b6121d68361253e6000610c7c565b92612074565b915b608081019061417b610606835190565b8411614185575050565b50519150565b5050506141986000610c7c565b9161416b565b6107c19492506121d6915092612abe6141c1614198976141c69650612abe865190565b935190565b611f5a6002610c7c565b506141de6122748484610980565b926140e2565b600090601e906141f76122748284610980565b93614201826125fb565b9485945061421361227484601d610980565b9383600095614224611e8688610c7c565b149182614305575b505080156142eb575b156142cb579392935b61424785610c7c565b9450845b602461426161060661425d8784610980565b5490565b8710156142c157906121d6856121d66124676142a98c6142a3604061429d8f6142976140af826140aa6142af9f808e9150610980565b98614093565b96015190565b94612074565b83611e2a565b936142b986612031565b95509361424b565b5093945094509050565b946142e2906141c6906121d661227486600c610980565b9493929361423e565b506142fd61060661227485600c610980565b861015614235565b61431492506122749190610980565b614320611e8686610c7c565b14833861422c565b90614331825490565b61433a81611fd9565b9261434e6020850191600052602060002090565b6000915b83831061435f5750505050565b6005602060019261436f8561408a565b815201920192019190614352565b61060690614328565b61439d61060691614395606090565b506024610980565b61437d565b61425d61060691614395600090565b90612e6d916143c0600261119b565b6143cb612e53612dc0565b6143d68160026129eb565b5061063591906143e7600133612bec565b6144c8565b6106069060281c6105ed565b61060690546143ec565b507f4e487b7100000000000000000000000000000000000000000000000000000000600052600060045260246000fd5b906129fb61060661298c9290565b6106359190612ac3906080906004906144618161445b875190565b90614432565b61447360018201612ac3602088015190565b61448560028201612ac3604088015190565b61449760038201612ac3606088015190565b0192015190565b610635929115614440576144b0614402565b614440565b9081526040810192916106359160200152565b9033906144d583836146bd565b6144e483612bc9604085015190565b906000916144f183610c7c565b85111561465557614587839261457c896145756145fc9861407661458f976145318d8f614521611ef860216143f8565b9061452b30610977565b91615edb565b61456e61453f602085015190565b6145676145586080614552606089015190565b97015190565b9761456161400f565b9d8e0152565b60208c0152565b60408a0152565b6080860152565b6140aa886024610980565b81939161449e565b506145a86145a184612bc9601b61119b565b601b6129eb565b6145c36145b685601d610980565b612ac385612bc98361119b565b6145cc846125d2565b6145d86105ed83611dba565b73ffffffffffffffffffffffffffffffffffffffff821603614641575b5083612bec565b6146267f2640b32e7e5d0fa2a21ea06b22fbd75fda0fda384a895a5fdeef43646de47a0c92610977565b9261463c61463360405190565b928392836144b5565b0390a2565b6145b661464f91601f610980565b386145f5565b6040517f063921df000000000000000000000000000000000000000000000000000000008152600490fd5b90610635916143b1565b61469261400f565b906000825260208080808086016000815201600081520160008152016000905250565b61060661468a565b916146c66146b5565b916000936000946146d686610c7c565b945b60246146ea61060661425d8684610980565b87101561478157869061470f6106068a614708856140aa8a87610980565b500161119b565b861461472757505061472086612031565b95506146d8565b611e869350611e319250614747916140aa61474f96836140af9450610980565b965b87015190565b0361475657565b6040517fe6215fab000000000000000000000000000000000000000000000000000000008152600490fd5b5095611e8691955061474f9250611e3190614749565b90612e6d916147a6600261119b565b6147b1612e53612dc0565b6147bc8160026129eb565b5061063591906147cd600133612bec565b6147ff565b611243610635946147f86060949897956147f1608086019a6000870152565b6020850152565b6040830152565b339061480b81836146bd565b4294919291858111156149ae576060840186614825825190565b60009082101561499c5750612abe61483b925190565b935b61484e61484a8884612067565b9590565b85111561497157614862610606600861119b565b851061494657614875610606600761119b565b851161491b576148d261458761463c946148c761489460408c96015190565b6148bc6148a08b612405565b916140606148ac61400f565b986148b58d8b52565b60208a0152565b614575876060880152565b6140aa896024610980565b506148de600086612bec565b6149087fc2cf1aae6decacbc52f96b4e4fec96d4ebab5236e4ed987165537bc463014a4395610977565b9561491260405190565b948594856147d2565b6040517f42d144ad000000000000000000000000000000000000000000000000000000008152600490fd5b6040517fda0f0f2a000000000000000000000000000000000000000000000000000000008152600490fd5b6040517fbdddfeec000000000000000000000000000000000000000000000000000000008152600490fd5b6149a892509050610c7c565b9361483d565b6040517fa51620a7000000000000000000000000000000000000000000000000000000008152600490fd5b9061063591614797565b90612f5392916149f3600261119b565b6149fe612e53612dc0565b614a098160026129eb565b50506106069142913380614bd9565b610606919060006149e3565b906106069594939291614a38600183612bec565b614a72565b6106069060181c6109a1565b6106069054614a3d565b612fff610635946147f86060949897956147f1608086019a6000870152565b509193909290614a826021614a49565b614bae57614a93610606600861119b565b821061494657614aa6610606600761119b565b821161491b57614ae790614acb86614ac1611ef860216143f8565b8761452b30610977565b614ad483612405565b9086614ae08583612074565b91866158b4565b93614af96145a182612bc9601b61119b565b614b14614b0784601d610980565b612ac383612bc98361119b565b614b53614b20846125d2565b600090614b2f6105ed83611dba565b73ffffffffffffffffffffffffffffffffffffffff821603614b9a575b5084612bec565b614b94614b807ff400e72e69ef4402819dfc57eeddc66f5eb69bf405e0e8098b1946ec1ac14a2294610977565b9486614b8b60405190565b94859485614a53565b0390a290565b6145b6614ba891601f610980565b38614b4c565b6040517f26d1807b000000000000000000000000000000000000000000000000000000008152600490fd5b61060694939291906000614a24565b90612f539291614bf8600261119b565b614c03612e53612dc0565b614c0e8160026129eb565b50614c2a565b6106069060081c6109a1565b6106069054614c14565b50614c356021614c20565b614c3f6001612f13565b14614c4e576106069133614d1e565b6040517f6022a9e7000000000000000000000000000000000000000000000000000000008152600490fd5b61060691906000614be8565b91906131f961060661298c9390565b61063591600091614c85565b610635916000916131e8565b6000600461063592614cc083808301614c94565b614ccd8360018301614ca0565b614cda8360028301614ca0565b614ce78360038301614ca0565b01614ca0565b6106359115614cac57614cfe614402565b614cac565b908152606081019392610635929091604091612fff906113e2565b60019291614d2d848284613179565b50614d3883836146bd565b9442614d4b611e86610606606086015190565b1015908115614e9d575b50614e725760400151936000614d6a81610c7c565b8611614d79575b505050505090565b614e0a614e04614e1093614d9a8987614d95611ef860216143f8565b615d76565b614dab6145a18a612abe601b61119b565b614dc6614db988601d610980565b612ac38b612abe8361119b565b614dcf876125d2565b614ddb6105ed86611dba565b73ffffffffffffffffffffffffffffffffffffffff821603614e5e575b506140aa876024610980565b90614ced565b83612bec565b614e3a7f1d9308f6b22a2754a1c622bb30889e8f8f956c83e524d039e9d65d5f052eb90892610977565b92614e51614e4760405190565b9283928784614d03565b0390a23880808080614d71565b614db9614e6c91601f610980565b38614df8565b6040517f372a7fe5000000000000000000000000000000000000000000000000000000008152600490fd5b9050614eb5612f13614eaf60216125c8565b92151590565b1438614d55565b33614ed484612c40846109c78761130d876025610980565b614f1b614f11614f0d614f077fa1376f00ce38a02643af0ff97dce59c2c81b4c8ad34c717ce9a44ed623e0718d94610977565b94610977565b9490565b946107ca60405190565b0390a4565b61065490610c7c565b6020810192916106359190614f20565b90600091614f4683610c7c565b3390614f5f81612c40856109c78861130d886025610980565b50614f1b614f93614f0d614f077fa1376f00ce38a02643af0ff97dce59c2c81b4c8ad34c717ce9a44ed623e0718d94610977565b94614f9d60405190565b91829182614f29565b33614fba83612a46846109c7856026610980565b614ffa614ff0614fea7f17307eab39ab6107e8899845ad3d59bd9653f200f220920489ca2b5937696c3193610977565b93610977565b9361077060405190565b0390a3565b61500a816026610980565b906150196125e0338094610980565b156150275750505050600190565b612274611e86926109c76150439561130d611e31956025610980565b1061400a57600190565b90612f539594939291615060600261119b565b61506b612e53612dc0565b6150768160026129eb565b50959391949290959461508d612a3a84848a614fff565b6150ad57866150a9959697506150a48484836150f9565b615846565b5050565b50336129626150bb60405190565b9283927f01aca06d00000000000000000000000000000000000000000000000000000000845260048401613186565b6106069493929190600061504d565b9160259061510b8361130d8685610980565b9061511a612274338094610980565b8190036151425750612c40906109c7612c8e9461130d61513a6000610c7c565b978896610980565b92919061515a612274826109c78661130d8a88610980565b841015615178576109c7612ac39361130d61063597612ab495610980565b6040517f13be252b000000000000000000000000000000000000000000000000000000008152600490fd5b90612f53949392916151b5600261119b565b6151c0612e53612dc0565b6151cb8160026129eb565b50916150a993919594929533615846565b6106069392919060006151a3565b906152049695949392916151ff600184612bec565b615208565b9091565b9061520496959493929161521d600185612bec565b615379565b7fffffffff000000000000000000000000000000000000000000000000000000008116610621565b9050519061063582615222565b90610606916020818303121561524a5761526f600080fd5b61524a565b73ffffffffffffffffffffffffffffffffffffffff90911681526106069260808201926152be91906147f8905b73ffffffffffffffffffffffffffffffffffffffff166020850152565b60608183039101526000815260200190565b6152e96152e36106069263ffffffff1690565b60e01b90565b7fffffffff000000000000000000000000000000000000000000000000000000001690565b156105e857565b61065860209167ffffffffffffffff811161535257601f017fffffffffffffffffffffffffffffffffffffffffffffffffffffffffffffffe01690565b611a8c611ab4565b90611fe6611b7783615315565b610606600061535a565b610606615367565b5093959492935091600090833b615392611e8684610c7c565b11615758575b6153a285856146bd565b9091906153ae84611dba565b9073ffffffffffffffffffffffffffffffffffffffff821673ffffffffffffffffffffffffffffffffffffffff8716148015615723575b6156f757429160608501956153fb610606885190565b84101580156156dc575b614e725760408601928c61541d611e86610606875190565b1180156156c7575b61569c578c8a6154b16106066154cb978d6106069861546a61545d83601d6109c76154508b83610980565b612ac38d612abe8361119b565b612ac389612bc98361119b565b615473866125d2565b61549273ffffffffffffffffffffffffffffffffffffffff8316611cca565b03615679575b6154a7611cca611cb0846125d2565b0361565457505190565b820361563157614e049150916140aa613e11936024610980565b820361557557505091615508849261557094611e8696508961550160806154fb6154f6602086015190565b955190565b93015190565b92866158b4565b968791905b61551c6001614e0a8187612bec565b7fd8413caab9b66d88aed167bb4f6b308542a6953a6a54e22f67c5271d34ef97be61554685610977565b908861555185610977565b9361555f8761140d60405190565b0390a361556a615371565b9261599d565b61530e565b97848299611e869795829495615570985061559087856146bd565b602493916155c2906060906155bd60026155ae866140aa8d8c610980565b5001612ac38c612bc98361119b565b015190565b6155d0611e86610606855190565b106155e1575b50505050505061550d565b6140aa6156106107c161562597612abe6156189688600499508c61561f8c60036156188c6140aa615610895190565b968795610980565b50016129eb565b50505190565b508138808080806155d6565b6002615648613e11946140aa612ac3946024610980565b500191612abe8361119b565b61566c6122f991615666601f916125d2565b90610980565b612ac387612bc98361119b565b61569761568a601f615666896125d2565b612ac389612abe8361119b565b615498565b6040517f2c5211c6000000000000000000000000000000000000000000000000000000008152600490fd5b508c6156d5611e8684610c7c565b1115615425565b506156e760216125c8565b6156f16001612f13565b14615405565b6040515b7f1e4ec46b000000000000000000000000000000000000000000000000000000008152600490fd5b5073ffffffffffffffffffffffffffffffffffffffff871673ffffffffffffffffffffffffffffffffffffffff8716146153e5565b6157f48561576586610977565b61576e81610977565b634fb07105916020888a61579e61578460405190565b97889384936157938a60e01b90565b855260048501615274565b03818a865af1938415615839575b6000946157f9575b506157ee926157c8926152e99250506152d0565b917fffffffff000000000000000000000000000000000000000000000000000000001690565b1461530e565b615398565b6152e9919450926157c8926158276157ee9560203d8111615832575b61581f8183611ae4565b810190615257565b9592509250926157b4565b503d615815565b615841611ded565b6157ac565b61520494939291906000806151ea565b92615873602061065894615873601488615873859b9a869961341c565b01918252565b906158a161063592805490680100000000000000008210156158a7575b600182018155611158565b9061449e565b6158af611ab4565b615896565b949361593990614083610635956158c9600090565b506159326137126158fb6158e16122748d601d610980565b8c6158eb60405190565b9384928c8c602086019485615856565b61590d615906825190565b9160200190565b20966140606159216106068a9d6024610980565b976148b561592d61400f565b9a8b52565b6060860152565b615879565b73ffffffffffffffffffffffffffffffffffffffff9091168152610606936080820193909261597191906147f8906152a1565b60608184039101526134bf565b3d156159985761598d3d61535a565b903d6000602084013e565b606090565b9392909190600094600093803b6159b6611e8687610c7c565b1115615a92576159c581610977565b9060206159d183610977565b9363c42d8b9595615a0033916159e660405190565b998a9485946159f58c60e01b90565b86526004860161593e565b038189875af160009581615a72575b50615a545750505050506001615a225750565b615a2a61597e565b90615a3f611e86615a39845190565b92610c7c565b03615a4c576040516156fb565b805190602001fd5b50949550919350615a6e92506157c891506152e9906152d0565b1490565b615a8b91965060203d81116158325761581f8183611ae4565b9438615a0f565b506001955050505050565b15615aa457565b6040517f08c379a000000000000000000000000000000000000000000000000000000000815260206004820152602f60248201527f4f6e6c792074686520636f6e7472616374206f776e6572206d6179207065726660448201527f6f726d207468697320616374696f6e00000000000000000000000000000000006064820152608490fd5b61063590615b4733615b41611cca6105ed6000611c5c565b14615a9d565b615b528160016129ac565b615b807f906a1c6bd7e3091ea86693dd029a831c19049ce77f1dce2ce0bab1cacbabce2291610bf760405190565b0390a1565b61063590615b29565b15615b9557565b6040517f08c379a000000000000000000000000000000000000000000000000000000000815260206004820152603560248201527f596f75206d757374206265206e6f6d696e61746564206265666f726520796f7560448201527f2063616e20616363657074206f776e65727368697000000000000000000000006064820152608490fd5b73ffffffffffffffffffffffffffffffffffffffff909116815260408101929161063591602090612fff565b615c6033615c5a611cca6105ed6001611c5c565b14615b8e565b615c6a6000611c5c565b615c746001611c5c565b7fb532073b38c83145e3e5135377a08bf9aab55bc0fd7c1179cd4fb995d2a5159c91615cab615ca260405190565b92839283615c1a565b0390a1615cb86001611c5c565b615cc38160006129ac565b50615cce6000611dba565b612c8e8160016129ac565b6152e96152e36106069290565b9050519061063582610e38565b906106069160208183031215615ce657615d0b600080fd5b615ce6565b15615d1757565b6040517f08c379a000000000000000000000000000000000000000000000000000000000815260206004820152601f60248201527f5472616e7366657248656c7065723a205452414e534645525f4641494c4544006044820152606490fd5b600091906004615dbe8493615daf61063597615d9563a9059cbb615cd9565b92615d9f60405190565b9586946020860190815201613186565b60208201810382520382611ae4565b82602082019151925af1615dd061597e565b81615ddc575b50615d10565b8051909150615dee611e866000610c7c565b14908115615dfe575b5038615dd6565b615e1891506020615e0d825190565b818301019101615cf3565b38615df7565b73ffffffffffffffffffffffffffffffffffffffff909116815260608101939261063592909160409161124390612fe2565b15615e5757565b6040517f08c379a0000000000000000000000000000000000000000000000000000000008152602060048201526024808201527f5472616e7366657248656c7065723a205452414e534645525f46524f4d5f464160448201527f494c4544000000000000000000000000000000000000000000000000000000006064820152608490fd5b6004615f1460009493615daf610635978796615efa6323b872dd615cd9565b93615f0460405190565b9687956020870190815201615e1e565b82602082019151925af1615f2661597e565b81615f32575b50615e50565b8051909150615f44611e866000610c7c565b14908115615f54575b5038615f2c565b615f6391506020615e0d825190565b38615f4d56fea26469706673582212205167ea3051547d3d2a6b1b8fa52ddfd8ff296e2f07b6c1d35ad42f68864bb46c64736f6c63430008110033",
    "linkReferences": {}
  },
  "methodIdentifiers": {
    "acceptOwnership()": "79ba5097",
    "calcCurCombinedWeight(address)": "8bad86a7",
    "calcCurrLockMultiplier(address,uint256)": "774d4ae7",
    "changeTokenManager(address,address)": "de1a6551",
    "combinedWeightOf(address)": "36f89af2",
    "curvePool()": "218751b2",
    "curveToken()": "4f39059c",
    "earned(address)": "008cc262",
    "fraxPerLPStored()": "d2010fb4",
    "fraxPerLPToken()": "5bfd9258",
    "getAllRewardTokens()": "12edb24c",
    "getProxyFor(address)": "c3543826",
    "getReward(address)": "c00007b0",
    "getReward2(address,bool)": "7910d17b",
    "getRewardExtraLogic(address)": "387edc86",
    "getRewardForDuration()": "1c1f78eb",
    "isApproved(address,bytes32,uint256)": "061a7bf5",
    "isTokenManagerFor(address,address)": "231b68dc",
    "kekAllowance(address,bytes32,address)": "7ab44e40",
    "lastRewardClaimTime(address)": "6c430dbb",
    "lastUpdateTime()": "c8f33c91",
    "lockAdditional(bytes32,uint256)": "b85efd06",
    "lockLonger(bytes32,uint256)": "d2fbdc0d",
    "lockMultiplier(uint256)": "0d7bac4f",
    "lock_max_multiplier()": "cdc82e80",
    "lock_time_for_max_multiplier()": "b94c4dcb",
    "lock_time_min()": "6e27cef9",
    "lockedLiquidityOf(address)": "d9f96e8d",
    "lockedStakes(address,uint256)": "7970833e",
    "lockedStakesOf(address)": "1e090f01",
    "lockedStakesOfLength(address)": "ca6df29d",
    "maxLPForMaxBoost(address)": "a0f23476",
    "minVeFXSForMaxBoost(address)": "4fd2b536",
    "minVeFXSForMaxBoostProxy(address)": "7f472e54",
    "nominateNewOwner(address)": "1627540c",
    "nominatedOwner()": "53a47bb7",
    "owner()": "8da5cb5b",
    "periodFinish()": "ebe2b12b",
    "proxyStakedFrax(address)": "1face856",
    "proxyToggleStaker(address)": "e7f30582",
    "proxy_lp_balances(address)": "7d6ef08e",
    "recoverERC20(address,uint256)": "8980f11f",
    "removeAllowance(address,bytes32)": "b61aa08c",
    "rewardManagers(address)": "41a16f3f",
    "rewardRates(uint256)": "f2caeb1e",
    "rewardTokenAddrToIdx(address)": "69339245",
    "rewardsDuration()": "386a9525",
    "rewardsPerToken()": "70641a36",
    "setAllowance(address,bytes32,uint256)": "a10d3b33",
    "setApprovalForAll(address,bool)": "a22cb465",
    "setMiscVariables(uint256[6])": "facefb64",
    "setPauses(bool,bool,bool)": "cc2abd64",
    "setRewardVars(address,uint256,address,address)": "d5e1a9c6",
    "spenderApprovalForAllLocks(address,address)": "1bcb7d90",
    "stakeLocked(uint256,uint256)": "17b18c89",
    "stakerSetVeFXSProxy(address)": "d7400d56",
    "staker_designated_proxies(address)": "28408bab",
    "stakesUnlocked()": "9637927f",
    "stakingToken()": "72f702f3",
    "sync()": "fff6cae9",
    "sync_gauge_weights(bool)": "f77e34d1",
    "toggleValidVeFXSProxy(address)": "91cf600a",
    "totalCombinedWeight()": "64f2c060",
    "totalLiquidityLocked()": "e01f62bf",
    "transferLocked(address,bytes32,uint256,bytes32)": "3c62c44f",
    "transferLockedFrom(address,address,bytes32,uint256,bytes32)": "663b135c",
    "unlockStakes()": "e1ba95d2",
    "updateRewardAndBalance(address,bool)": "55189773",
    "userStakedFrax(address)": "d42fc9b4",
    "veFXSMultiplier(address)": "2c0c2a0a",
    "vefxs_boost_scale_factor()": "aa1d4fce",
    "vefxs_max_multiplier()": "f288baf6",
    "vefxs_per_frax_for_max_boost()": "f2a8d349",
    "withdrawLocked(bytes32,address)": "e44b9fa5"
  },
  "id": 30
}