{
  "abi": [
    {
      "inputs": [
        {
          "internalType": "address",
          "name": "factory",
          "type": "address"
        },
        {
          "internalType": "address",
          "name": "tokenA",
          "type": "address"
        },
        {
          "internalType": "address",
          "name": "tokenB",
          "type": "address"
        },
        {
          "internalType": "address",
          "name": "_owner_address",
          "type": "address"
        },
        {
          "internalType": "address",
          "name": "_timelock_address",
          "type": "address"
        }
      ],
      "stateMutability": "nonpayable",
      "type": "constructor"
    },
    {
      "anonymous": false,
      "inputs": [
        {
          "indexed": false,
          "internalType": "address",
          "name": "oldOwner",
          "type": "address"
        },
        {
          "indexed": false,
          "internalType": "address",
          "name": "newOwner",
          "type": "address"
        }
      ],
      "name": "OwnerChanged",
      "type": "event"
    },
    {
      "anonymous": false,
      "inputs": [
        {
          "indexed": false,
          "internalType": "address",
          "name": "newOwner",
          "type": "address"
        }
      ],
      "name": "OwnerNominated",
      "type": "event"
    },
    {
      "inputs": [],
      "name": "ALLOW_STALE_CONSULTS",
      "outputs": [
        {
          "internalType": "bool",
          "name": "",
          "type": "bool"
        }
      ],
      "stateMutability": "view",
      "type": "function"
    },
    {
      "inputs": [],
      "name": "CONSULT_LENIENCY",
      "outputs": [
        {
          "internalType": "uint256",
          "name": "",
          "type": "uint256"
        }
      ],
      "stateMutability": "view",
      "type": "function"
    },
    {
      "inputs": [],
      "name": "PERIOD",
      "outputs": [
        {
          "internalType": "uint256",
          "name": "",
          "type": "uint256"
        }
      ],
      "stateMutability": "view",
      "type": "function"
    },
    {
      "inputs": [],
      "name": "acceptOwnership",
      "outputs": [],
      "stateMutability": "nonpayable",
      "type": "function"
    },
    {
      "inputs": [],
      "name": "blockTimestampLast",
      "outputs": [
        {
          "internalType": "uint32",
          "name": "",
          "type": "uint32"
        }
      ],
      "stateMutability": "view",
      "type": "function"
    },
    {
      "inputs": [],
      "name": "canUpdate",
      "outputs": [
        {
          "internalType": "bool",
          "name": "",
          "type": "bool"
        }
      ],
      "stateMutability": "view",
      "type": "function"
    },
    {
      "inputs": [
        {
          "internalType": "address",
          "name": "token",
          "type": "address"
        },
        {
          "internalType": "uint256",
          "name": "amountIn",
          "type": "uint256"
        }
      ],
      "name": "consult",
      "outputs": [
        {
          "internalType": "uint256",
          "name": "amountOut",
          "type": "uint256"
        }
      ],
      "stateMutability": "view",
      "type": "function"
    },
    {
      "inputs": [
        {
          "internalType": "address",
          "name": "_owner",
          "type": "address"
        }
      ],
      "name": "nominateNewOwner",
      "outputs": [],
      "stateMutability": "nonpayable",
      "type": "function"
    },
    {
      "inputs": [],
      "name": "nominatedOwner",
      "outputs": [
        {
          "internalType": "address",
          "name": "",
          "type": "address"
        }
      ],
      "stateMutability": "view",
      "type": "function"
    },
    {
      "inputs": [],
      "name": "owner",
      "outputs": [
        {
          "internalType": "address",
          "name": "",
          "type": "address"
        }
      ],
      "stateMutability": "view",
      "type": "function"
    },
    {
      "inputs": [],
      "name": "pair",
      "outputs": [
        {
          "internalType": "contract IUniswapV2Pair",
          "name": "",
          "type": "address"
        }
      ],
      "stateMutability": "view",
      "type": "function"
    },
    {
      "inputs": [],
      "name": "price0Average",
      "outputs": [
        {
          "internalType": "uint224",
          "name": "_x",
          "type": "uint224"
        }
      ],
      "stateMutability": "view",
      "type": "function"
    },
    {
      "inputs": [],
      "name": "price0CumulativeLast",
      "outputs": [
        {
          "internalType": "uint256",
          "name": "",
          "type": "uint256"
        }
      ],
      "stateMutability": "view",
      "type": "function"
    },
    {
      "inputs": [],
      "name": "price1Average",
      "outputs": [
        {
          "internalType": "uint224",
          "name": "_x",
          "type": "uint224"
        }
      ],
      "stateMutability": "view",
      "type": "function"
    },
    {
      "inputs": [],
      "name": "price1CumulativeLast",
      "outputs": [
        {
          "internalType": "uint256",
          "name": "",
          "type": "uint256"
        }
      ],
      "stateMutability": "view",
      "type": "function"
    },
    {
      "inputs": [
        {
          "internalType": "bool",
          "name": "_allow_stale_consults",
          "type": "bool"
        }
      ],
      "name": "setAllowStaleConsults",
      "outputs": [],
      "stateMutability": "nonpayable",
      "type": "function"
    },
    {
      "inputs": [
        {
          "internalType": "uint256",
          "name": "_consult_leniency",
          "type": "uint256"
        }
      ],
      "name": "setConsultLeniency",
      "outputs": [],
      "stateMutability": "nonpayable",
      "type": "function"
    },
    {
      "inputs": [
        {
          "internalType": "uint256",
          "name": "_period",
          "type": "uint256"
        }
      ],
      "name": "setPeriod",
      "outputs": [],
      "stateMutability": "nonpayable",
      "type": "function"
    },
    {
      "inputs": [
        {
          "internalType": "address",
          "name": "_timelock_address",
          "type": "address"
        }
      ],
      "name": "setTimelock",
      "outputs": [],
      "stateMutability": "nonpayable",
      "type": "function"
    },
    {
      "inputs": [],
      "name": "token0",
      "outputs": [
        {
          "internalType": "address",
          "name": "",
          "type": "address"
        }
      ],
      "stateMutability": "view",
      "type": "function"
    },
    {
      "inputs": [],
      "name": "token1",
      "outputs": [
        {
          "internalType": "address",
          "name": "",
          "type": "address"
        }
      ],
      "stateMutability": "view",
      "type": "function"
    },
    {
      "inputs": [],
      "name": "update",
      "outputs": [],
      "stateMutability": "nonpayable",
      "type": "function"
    }
  ],
  "bytecode": {
    "object": "0x60e06040523462000065575b620000236200001962000172565b93929092620003f1565b604051611b8e620009e3823960805181818161073b0152610e5f015260a05181818161022a015261115c015260c05181818161084b01526111d40152611b8e90f35b6200006e600080fd5b6200000b565b600080fd5b50634e487b7160e01b600052604160045260246000fd5b90601f01601f191681019081106001600160401b03821117620000b257604052565b620000bc62000079565b604052565b90620000d8620000d060405190565b928362000090565b565b6001600160a01b031690565b90565b6001600160a01b0381165b036200007457565b90505190620000d882620000e9565b919060a08382031262000163575b620001258184620000fc565b92620001358260208301620000fc565b92620000e6620001498460408501620000fc565b93620001598160608601620000fc565b93608001620000fc565b6200016c600080fd5b62000119565b6200019562002571803803806200018981620000c1565b9283398101906200010b565b9091929394565b90600019905b9181191691161790565b620000e6620000e6620000e69290565b90620001d0620000e6620001d892620001ac565b82546200019c565b9055565b9060ff90620001a2565b90620001f9620000e6620001d892151590565b8254620001dc565b620000e690620000da906001600160a01b031682565b620000e69062000201565b620000e69062000217565b90620000e69160208183031215620000fc5762000248600080fd5b620000fc565b506040513d6000823e3d90fd5b80620000f4565b90505190620000d8826200025b565b90620000e6916020818303121562000262576200028c600080fd5b62000262565b6001600160701b038116620000f4565b90505190620000d88262000292565b63ffffffff8116620000f4565b90505190620000d882620002b1565b909160608284031262000305575b620000e6620002eb8484620002a2565b93620002fb8160208601620002a2565b93604001620002be565b6200030e600080fd5b620002db565b9063ffffffff90620001a2565b62000337620000e6620000e69263ffffffff1690565b63ffffffff1690565b9062000354620000e6620001d89262000321565b825462000314565b6200036c620000e6620000e69290565b6001600160701b031690565b156200038057565b60405162461bcd60e51b815260206004820152601e60248201527f556e6973776170506169724f7261636c653a204e4f5f524553455256455300006044820152606490fd5b906001600160a01b0390620001a2565b90620003e9620000e6620001d89262000222565b8254620003c5565b916200044a62000444606092620005639462000411620005be98620007ab565b62000420610e106003620001bc565b6200042e60786004620001bc565b6000966200043e886005620001e6565b62000826565b62000222565b80608052620004598162000222565b90630dfe1681620004746200046d60405190565b9160e01b90565b8152602081600481865afa90811562000719575b600091620006f6575b5060a05260405163d21220a790620004a9906200046d565b8152602081600481865afa908115620006e6575b600091620006b1575b5060c052604051635909c0d590620004de906200046d565b8152602081600481865afa908115620006a1575b6000916200067e575b5062000509816006620001bc565b50635a3d54936200051d6200046d60405190565b8152602081600481865afa9081156200066e575b60009162000639575b5062000548816007620001bc565b5050630902f1ac906200055a60405190565b93849260e01b90565b825260049082905afa90811562000629575b60009182918291620005eb575b506200059090600862000340565b620005ac6200059f846200035c565b916001600160701b031690565b14159182620005ce575b505062000378565b620005cb816002620003d5565b50565b909150620005e1906200059f906200035c565b14153880620005b6565b905062000590925062000619915060603d811162000621575b62000610818362000090565b810190620002cd565b909262000582565b503d62000604565b620006336200024e565b62000575565b6200065f915060203d811162000666575b62000656818362000090565b81019062000271565b386200053a565b503d6200064a565b620006786200024e565b62000531565b6200069a915060203d8111620006665762000656818362000090565b38620004fb565b620006ab6200024e565b620004f2565b620006d7915060203d8111620006de575b620006ce818362000090565b8101906200022d565b38620004c6565b503d620006c2565b620006f06200024e565b620004bd565b62000712915060203d8111620006de57620006ce818362000090565b3862000491565b620007236200024e565b62000488565b620000da620000e6620000e69290565b620000e69062000729565b156200074c57565b60405162461bcd60e51b815260206004820152601960248201527f4f776e657220616464726573732063616e6e6f742062652030000000000000006044820152606490fd5b6001600160a01b0391821681529116602082015260400190565b600090620007b98262000739565b91620007da6001600160a01b0384166001600160a01b038416141562000744565b620007e68282620003d5565b507fb532073b38c83145e3e5135377a08bf9aab55bc0fd7c1179cd4fb995d2a5159c91620008216200081760405190565b9283928362000791565b0390a1565b620008506200084762000444959460209462000840600090565b506200096d565b95909262000222565b6200087463e6a43905620008806200086760405190565b9788958694859460e01b90565b84526004840162000791565b03915afa918215620008b5575b600092620008985750565b620000e691925060203d8111620006de57620006ce818362000090565b620008bf6200024e565b6200088d565b15620008cd57565b60405162461bcd60e51b815260206004820152602560248201527f556e697377617056324c6962726172793a204944454e544943414c5f41444452604482015264455353455360d81b6064820152608490fd5b156200092857565b60405162461bcd60e51b815260206004820152601e60248201527f556e697377617056324c6962726172793a205a45524f5f4144445245535300006044820152606490fd5b909190620009906001600160a01b0384166001600160a01b0383161415620008c5565b6001600160a01b0383166001600160a01b0382161015620009dc57915b90620000d883620009d4620009c7620000da600062000739565b916001600160a01b031690565b141562000920565b620009ad56fe60806040526004361015610018575b610016600080fd5b005b60003560e01c80630dfe1681146101d05780630f3a9f65146101c75780631627540c146101be5780631ac2c825146101b55780633ddac953146101ac5780633fcb55ca146101a357806353a47bb71461019a5780635909c0d5146101915780635a3d5493146101885780635cb9a7141461017f5780635e6aaf2c1461017657806379ba50971461016d5780638da5cb5b14610164578063a17a26851461015b578063a2e6204514610152578063a6bb453914610149578063a8aa1b3114610140578063b4d1d79514610137578063bdacb3031461012e578063c5700a0214610125578063d21220a71461011c5763f1551aea0361000e576101176108ae565b61000e565b50610117610834565b506101176107f3565b506101176107a3565b50610117610779565b50610117610720565b506101176106a8565b50610117610677565b5061011761064d565b50610117610623565b506101176105f1565b50610117610598565b50610117610537565b5061011761050d565b506101176104d7565b506101176104a1565b5061011761043f565b506101176103e2565b50610117610375565b50610117610328565b506101176102b6565b50610117610213565b600080fd5b60009103126101e957565b6101f1600080fd5b565b73ffffffffffffffffffffffffffffffffffffffff1690565b90565b9052565b5034610276575b6102253660046101de565b6102727f00000000000000000000000000000000000000000000000000000000000000005b6040515b9182918273ffffffffffffffffffffffffffffffffffffffff909116815260200190565b0390f35b61027e600080fd5b61021a565b805b036101d957565b905035906101f182610283565b9061020c916020818303121561028c576102b1600080fd5b61028c565b50346102d5575b6102d06102cb366004610299565b610ab0565b604051005b6102dd600080fd5b6102bd565b73ffffffffffffffffffffffffffffffffffffffff8116610285565b905035906101f1826102e2565b9061020c91602081830312156102fe57610323600080fd5b6102fe565b5034610342575b6102d061033d36600461030b565b611319565b61034a600080fd5b61032f565b61020c916008021c5b60ff1690565b9061020c915461034f565b61020c6000600561035e565b50346103a4575b6103873660046101de565b610272610392610369565b60405191829182901515815260200190565b6103ac600080fd5b61037c565b919061020c906040848203126103d5575b6103cc81856102fe565b9360200161028c565b6103dd600080fd5b6103c2565b5034610410575b6102726104006103fa3660046103b1565b90611106565b6040519182918290815260200190565b610418600080fd5b6103e9565b61020c916008021c81565b9061020c915461041d565b61020c60006004610428565b503461045c575b6104513660046101de565b610272610400610433565b610464600080fd5b610446565b61020c916008021c73ffffffffffffffffffffffffffffffffffffffff1690565b9061020c9154610469565b61020c6000600161048a565b50346104be575b6104b33660046101de565b61027261024a610495565b6104c6600080fd5b6104a8565b61020c60006006610428565b50346104f4575b6104e93660046101de565b6102726104006104cb565b6104fc600080fd5b6104de565b61020c60006007610428565b503461052a575b61051f3660046101de565b610272610400610501565b610532600080fd5b610514565b5034610551575b6102d061054c366004610299565b610ad9565b610559600080fd5b61053e565b61020c905b7bffffffffffffffffffffffffffffffffffffffffffffffffffffffff1690565b61020c905461055e565b61020c600a610584565b50346105e4575b6105aa3660046101de565b6102726105b561058e565b604051918291827bffffffffffffffffffffffffffffffffffffffffffffffffffffffff909116815260200190565b6105ec600080fd5b61059f565b503461060b575b6106033660046101de565b6102d06113eb565b610613600080fd5b6105f8565b61020c60008061048a565b5034610640575b6106353660046101de565b61027261024a610618565b610648600080fd5b61062a565b503461066a575b61065f3660046101de565b610272610392610bb9565b610672600080fd5b610654565b5034610691575b6106893660046101de565b6102d0610e57565b610699600080fd5b61067e565b61020c6009610584565b50346106c5575b6106ba3660046101de565b6102726105b561069e565b6106cd600080fd5b6106af565b6101f361020c61020c9273ffffffffffffffffffffffffffffffffffffffff1690565b61020c906106d2565b61020c906106f5565b61020f906106fe565b6020810192916101f19190610707565b5034610760575b6107323660046101de565b604051806102727f000000000000000000000000000000000000000000000000000000000000000082610710565b610768600080fd5b610727565b61020c60006003610428565b5034610796575b61078b3660046101de565b61027261040061076d565b61079e600080fd5b610780565b50346107bd575b6102d06107b836600461030b565b610a36565b6107c5600080fd5b6107aa565b61020c916008021c5b63ffffffff1690565b9061020c91546107ca565b61020c600060086107dc565b5034610827575b6108053660046101de565b6102726108106107e7565b6040519182918263ffffffff909116815260200190565b61082f600080fd5b6107fa565b503461086f575b6108463660046101de565b6102727f000000000000000000000000000000000000000000000000000000000000000061024a565b610877600080fd5b61083b565b801515610285565b905035906101f18261087c565b9061020c9160208183031215610884576108a9600080fd5b610884565b50346108c8575b6102d06108c3366004610891565b610b27565b6108d0600080fd5b6108b5565b61020c906101f3565b61020c90546108d5565b156108ef57565b6040517f08c379a000000000000000000000000000000000000000000000000000000000815260206004820152602f60248201527f596f7520617265206e6f7420616e206f776e6572206f722074686520676f766560448201527f726e616e63652074696d656c6f636b00000000000000000000000000000000006064820152608490fd5b0390fd5b6101f1906109b33361098d6101f360006108de565b73ffffffffffffffffffffffffffffffffffffffff8216149081156109b8575b506108e8565b610a28565b90506109e46109ca6101f360026108de565b9173ffffffffffffffffffffffffffffffffffffffff1690565b14386109ad565b9073ffffffffffffffffffffffffffffffffffffffff905b9181191691161790565b90610a1d61020c610a24926106fe565b82546109eb565b9055565b610a33816002610a0d565b50565b6101f190610978565b6101f190610a543361098d6101f360006108de565b610aa5565b907fffffffffffffffffffffffffffffffffffffffffffffffffffffffffffffffff90610a03565b61020c61020c61020c9290565b90610a9e61020c610a2492610a81565b8254610a59565b610a33816003610a8e565b6101f190610a3f565b6101f190610ace3361098d6101f360006108de565b610a33816004610a8e565b6101f190610ab9565b6101f190610af73361098d6101f360006108de565b610b1c565b9060ff90610a03565b90610b1561020c610a2492151590565b8254610afc565b610a33816005610b05565b6101f190610ae2565b61020c906107d3565b61020c9054610b30565b507f4e487b7100000000000000000000000000000000000000000000000000000000600052601160045260246000fd5b63ffffffff908116911690039063ffffffff8211610b8d57565b6101f1610b43565b61020c9081565b61020c9054610b95565b61020c61020c61020c9263ffffffff1690565b610bd4610bc46116c4565b610bce6008610b39565b90610b73565b610bea610be461020c6003610b9c565b91610ba6565b101590565b15610bf657565b6040517f08c379a000000000000000000000000000000000000000000000000000000000815260206004820152602560248201527f556e6973776170506169724f7261636c653a20504552494f445f4e4f545f454c60448201527f41505345440000000000000000000000000000000000000000000000000000006064820152608490fd5b91908203918211610b8d57565b507f4e487b7100000000000000000000000000000000000000000000000000000000600052601260045260246000fd5b90610cc2565b9190565b908115610ccd570490565b610cd5610c88565b0490565b61056361020c61020c9290565b507f4e487b7100000000000000000000000000000000000000000000000000000000600052604160045260246000fd5b90601f017fffffffffffffffffffffffffffffffffffffffffffffffffffffffffffffffe016810190811067ffffffffffffffff821117610d5657604052565b610d5e610ce6565b604052565b906101f1610d7060405190565b9283610d16565b61020c6020610d63565b907bffffffffffffffffffffffffffffffffffffffffffffffffffffffff90610a03565b61056361020c61020c927bffffffffffffffffffffffffffffffffffffffffffffffffffffffff1690565b90610de061020c610a2492610da5565b8254610d81565b6101f191610e1190517bffffffffffffffffffffffffffffffffffffffffffffffffffffffff1690565b90610dd0565b906101f191610de7565b9063ffffffff90610a03565b6107d361020c61020c9263ffffffff1690565b90610e5061020c610a2492610e2d565b8254610e21565b610e88610e837f00000000000000000000000000000000000000000000000000000000000000006106fe565b611795565b91610f69610f57610f05610ea5610e9f6008610b39565b87610b73565b610ec5610eb561020c6003610b9c565b610ebe83610ba6565b1015610bef565b73__$6d2bec0e1b02c8a01bbeb7c9783ad4b0a5$__610f40610f0a610f05610ef6610ef06006610b9c565b8a610c7b565b610eff86610ba6565b90610cb8565b610cd9565b610f39610f15610d77565b7bffffffffffffffffffffffffffffffffffffffffffffffffffffffff9092168252565b6009610e17565b50610eff610be4610f516007610b9c565b88610c7b565b610f62610f15610d77565b600a610e17565b610f74816006610a8e565b50610f80816007610a8e565b50610a33816008610e40565b91908201809211610b8d57565b61020c90610358565b61020c9054610f99565b15610fb357565b6040517f08c379a000000000000000000000000000000000000000000000000000000000815260206004820152603560248201527f556e6973776170506169724f7261636c653a2050524943455f49535f5354414c60448201527f455f4e4545445f544f5f43414c4c5f55504441544500000000000000000000006064820152608490fd5b1561103f57565b6040517f08c379a000000000000000000000000000000000000000000000000000000000815280610974600482016020808252818101527f556e6973776170506169724f7261636c653a20494e56414c49445f544f4b454e604082015260600190565b906101f16110ba60006110b3610d77565b9401610584565b7bffffffffffffffffffffffffffffffffffffffffffffffffffffffff168352565b61020c906110a2565b61020c61020c61020c9271ffffffffffffffffffffffffffffffffffff1690565b611111610bc46116c4565b611134610be461020c6111246003610b9c565b61112e6004610b9c565b90610f8c565b10801561121c575b61114590610fac565b73ffffffffffffffffffffffffffffffffffffffff7f00000000000000000000000000000000000000000000000000000000000000001673ffffffffffffffffffffffffffffffffffffffff8216036111bc57506111b76111b261020c926111ad60096110dc565b61155f565b611674565b6110e5565b6111b261020c92611212836111b7945061120c6109ca7f000000000000000000000000000000000000000000000000000000000000000073ffffffffffffffffffffffffffffffffffffffff1690565b14611038565b6111ad600a6110dc565b5061114561122a6005610fa2565b905061113c565b1561123857565b6040517f08c379a000000000000000000000000000000000000000000000000000000000815260206004820152602f60248201527f4f6e6c792074686520636f6e7472616374206f776e6572206d6179207065726660448201527f6f726d207468697320616374696f6e00000000000000000000000000000000006064820152608490fd5b6101f1906112db336112d56109ca6101f360006108de565b14611231565b6112e6816001610a0d565b6113147f906a1c6bd7e3091ea86693dd029a831c19049ce77f1dce2ce0bab1cacbabce229161024e60405190565b0390a1565b6101f1906112bd565b1561132957565b6040517f08c379a000000000000000000000000000000000000000000000000000000000815260206004820152603560248201527f596f75206d757374206265206e6f6d696e61746564206265666f726520796f7560448201527f2063616e20616363657074206f776e65727368697000000000000000000000006064820152608490fd5b73ffffffffffffffffffffffffffffffffffffffff91821681529116602082015260400190565b6101f361020c61020c9290565b61020c906113d5565b611405336113ff6109ca6101f360016108de565b14611322565b61140f60006108de565b61141960016108de565b7fb532073b38c83145e3e5135377a08bf9aab55bc0fd7c1179cd4fb995d2a5159c9161145061144760405190565b928392836113ae565b0390a161145d60016108de565b611468816000610a0d565b5061147360006113e2565b610a33816001610a0d565b611486610d77565b9060008252565b61020c61147e565b61020c61020c61020c927bffffffffffffffffffffffffffffffffffffffffffffffffffffffff1690565b81810292918115918404141715610b8d57565b156114da57565b6040517f08c379a000000000000000000000000000000000000000000000000000000000815260206004820152602360248201527f4669786564506f696e743a204d554c5449504c49434154494f4e5f4f5645524660448201527f4c4f5700000000000000000000000000000000000000000000000000000000006064820152608490fd5b61020c9061156b61148d565b5060009060009361157b85610a81565b811491821561159e575b5050611590906114d3565b611598610d77565b92830152565b9092506115909150611618610cbe61020c6115e38885016115f46115ed896115e88585517bffffffffffffffffffffffffffffffffffffffffffffffffffffffff1690565b611495565b6114c0565b9889610cb8565b9550517bffffffffffffffffffffffffffffffffffffffffffffffffffffffff1690565b149038611585565b61035861020c61020c9290565b61020c6070611620565b61020c9061164b610cbe61020c9460ff1690565b901c90565b61165d61020c61020c9290565b71ffffffffffffffffffffffffffffffffffff1690565b61169c61168e600061020c93611688600090565b50015190565b61169661162d565b90611637565b611650565b81156116ab570690565b6116b3610c88565b0690565b6107d361020c61020c9290565b61020c6116df426116d9640100000000610a81565b906116a1565b6116b7565b905051906101f182610283565b9061020c91602081830312156116e457611709600080fd5b6116e4565b506040513d6000823e3d90fd5b6dffffffffffffffffffffffffffff8116610285565b905051906101f18261171b565b63ffffffff8116610285565b905051906101f18261173e565b9091606082840312611788575b61020c6117718484611731565b9361177f8160208601611731565b9360400161174a565b611790600080fd5b611764565b61179d6116c4565b9182906117a9836106fe565b6117b2816106fe565b90635909c0d5916117cc6117c560405190565b9360e01b90565b8352602083600481845afa9283156119b9575b600093611999575b508296635a3d5493916117fc6117c560405190565b8352602083600481845afa92831561198c575b600093611955575b50606090839461183c94995050630902f1ac9061183360405190565b94859260e01b90565b825260049082905afa908115611948575b600080809291949093611913575b5063ffffffff811663ffffffff831603611878575b505050505050565b61112e9495995061190796985060006118ce6118fa946118a0610be495856115e39650610b73565b9661190073__$6d2bec0e1b02c8a01bbeb7c9783ad4b0a5$__9e61112e6118f16115e3886118ce8789611acb565b01517bffffffffffffffffffffffffffffffffffffffffffffffffffffffff1690565b6118fa8c610ba6565b906114c0565b9d50611acb565b91388080808080611870565b91509250611938915060603d8111611941575b6119308183610d16565b810190611757565b9091923861185b565b503d611926565b61195061170e565b61184d565b61183c93509061197d60609260203d8111611985575b6119758183610d16565b8101906116f1565b935090611817565b503d61196b565b61199461170e565b61180f565b6119b291935060203d8111611985576119758183610d16565b91386117e7565b6119c161170e565b6117df565b6119d361020c61020c9290565b6dffffffffffffffffffffffffffff1690565b156119ed57565b6040517f08c379a000000000000000000000000000000000000000000000000000000000815260206004820152601760248201527f4669786564506f696e743a204449565f42595f5a45524f0000000000000000006044820152606490fd5b61056361020c61020c926dffffffffffffffffffffffffffff1690565b61056390611a9f611a7d61020c9460ff1690565b917bffffffffffffffffffffffffffffffffffffffffffffffffffffffff1690565b901b90565b610cc2907bffffffffffffffffffffffffffffffffffffffffffffffffffffffff16611a7d565b90611b2a61020c91611adb61148d565b50611b24611b1e611b10600096611b0b611af4896119c6565b6dffffffffffffffffffffffffffff8716116119e6565b611a4c565b611b1861162d565b90611a69565b91611a4c565b90611aa4565b611b32610d77565b928301907bffffffffffffffffffffffffffffffffffffffffffffffffffffffff16905256fea2646970667358221220486ff822bc57dc8abbcf7256311c041625314ce597ebef03b27493e60815b3d364736f6c63430008110033",
    "linkReferences": {
      "lib/frax-solidity/src/hardhat/contracts/Staking/../Math/FixedPoint.sol": {
        "FixedPoint": [
          {
            "start": 6314,
            "length": 20
          },
          {
            "start": 8841,
            "length": 20
          }
        ]
      }
    }
  },
  "methodIdentifiers": {
    "ALLOW_STALE_CONSULTS()": "1ac2c825",
    "CONSULT_LENIENCY()": "3fcb55ca",
    "PERIOD()": "b4d1d795",
    "acceptOwnership()": "79ba5097",
    "blockTimestampLast()": "c5700a02",
    "canUpdate()": "a17a2685",
    "consult(address,uint256)": "3ddac953",
    "nominateNewOwner(address)": "1627540c",
    "nominatedOwner()": "53a47bb7",
    "owner()": "8da5cb5b",
    "pair()": "a8aa1b31",
    "price0Average()": "a6bb4539",
    "price0CumulativeLast()": "5909c0d5",
    "price1Average()": "5e6aaf2c",
    "price1CumulativeLast()": "5a3d5493",
    "setAllowStaleConsults(bool)": "f1551aea",
    "setConsultLeniency(uint256)": "5cb9a714",
    "setPeriod(uint256)": "0f3a9f65",
    "setTimelock(address)": "bdacb303",
    "token0()": "0dfe1681",
    "token1()": "d21220a7",
    "update()": "a2e62045"
  },
  "id": 62
}