{
  "abi": [
    {
      "inputs": [
        {
          "internalType": "address",
          "name": "factory",
          "type": "address"
        },
        {
          "internalType": "address",
          "name": "tokenA",
          "type": "address"
        },
        {
          "internalType": "address",
          "name": "tokenB",
          "type": "address"
        },
        {
          "internalType": "address",
          "name": "_owner_address",
          "type": "address"
        },
        {
          "internalType": "address",
          "name": "_timelock_address",
          "type": "address"
        }
      ],
      "stateMutability": "nonpayable",
      "type": "constructor"
    },
    {
      "anonymous": false,
      "inputs": [
        {
          "indexed": false,
          "internalType": "address",
          "name": "oldOwner",
          "type": "address"
        },
        {
          "indexed": false,
          "internalType": "address",
          "name": "newOwner",
          "type": "address"
        }
      ],
      "name": "OwnerChanged",
      "type": "event"
    },
    {
      "anonymous": false,
      "inputs": [
        {
          "indexed": false,
          "internalType": "address",
          "name": "newOwner",
          "type": "address"
        }
      ],
      "name": "OwnerNominated",
      "type": "event"
    },
    {
      "inputs": [],
      "name": "ALLOW_STALE_CONSULTS",
      "outputs": [
        {
          "internalType": "bool",
          "name": "",
          "type": "bool"
        }
      ],
      "stateMutability": "view",
      "type": "function"
    },
    {
      "inputs": [],
      "name": "CONSULT_LENIENCY",
      "outputs": [
        {
          "internalType": "uint256",
          "name": "",
          "type": "uint256"
        }
      ],
      "stateMutability": "view",
      "type": "function"
    },
    {
      "inputs": [],
      "name": "PERIOD",
      "outputs": [
        {
          "internalType": "uint256",
          "name": "",
          "type": "uint256"
        }
      ],
      "stateMutability": "view",
      "type": "function"
    },
    {
      "inputs": [],
      "name": "acceptOwnership",
      "outputs": [],
      "stateMutability": "nonpayable",
      "type": "function"
    },
    {
      "inputs": [],
      "name": "blockTimestampLast",
      "outputs": [
        {
          "internalType": "uint32",
          "name": "",
          "type": "uint32"
        }
      ],
      "stateMutability": "view",
      "type": "function"
    },
    {
      "inputs": [],
      "name": "canUpdate",
      "outputs": [
        {
          "internalType": "bool",
          "name": "",
          "type": "bool"
        }
      ],
      "stateMutability": "view",
      "type": "function"
    },
    {
      "inputs": [
        {
          "internalType": "address",
          "name": "token",
          "type": "address"
        },
        {
          "internalType": "uint256",
          "name": "amountIn",
          "type": "uint256"
        }
      ],
      "name": "consult",
      "outputs": [
        {
          "internalType": "uint256",
          "name": "amountOut",
          "type": "uint256"
        }
      ],
      "stateMutability": "view",
      "type": "function"
    },
    {
      "inputs": [
        {
          "internalType": "address",
          "name": "_owner",
          "type": "address"
        }
      ],
      "name": "nominateNewOwner",
      "outputs": [],
      "stateMutability": "nonpayable",
      "type": "function"
    },
    {
      "inputs": [],
      "name": "nominatedOwner",
      "outputs": [
        {
          "internalType": "address",
          "name": "",
          "type": "address"
        }
      ],
      "stateMutability": "view",
      "type": "function"
    },
    {
      "inputs": [],
      "name": "owner",
      "outputs": [
        {
          "internalType": "address",
          "name": "",
          "type": "address"
        }
      ],
      "stateMutability": "view",
      "type": "function"
    },
    {
      "inputs": [],
      "name": "pair",
      "outputs": [
        {
          "internalType": "contract IUniswapV2Pair",
          "name": "",
          "type": "address"
        }
      ],
      "stateMutability": "view",
      "type": "function"
    },
    {
      "inputs": [],
      "name": "price0Average",
      "outputs": [
        {
          "internalType": "uint224",
          "name": "_x",
          "type": "uint224"
        }
      ],
      "stateMutability": "view",
      "type": "function"
    },
    {
      "inputs": [],
      "name": "price0CumulativeLast",
      "outputs": [
        {
          "internalType": "uint256",
          "name": "",
          "type": "uint256"
        }
      ],
      "stateMutability": "view",
      "type": "function"
    },
    {
      "inputs": [],
      "name": "price1Average",
      "outputs": [
        {
          "internalType": "uint224",
          "name": "_x",
          "type": "uint224"
        }
      ],
      "stateMutability": "view",
      "type": "function"
    },
    {
      "inputs": [],
      "name": "price1CumulativeLast",
      "outputs": [
        {
          "internalType": "uint256",
          "name": "",
          "type": "uint256"
        }
      ],
      "stateMutability": "view",
      "type": "function"
    },
    {
      "inputs": [
        {
          "internalType": "bool",
          "name": "_allow_stale_consults",
          "type": "bool"
        }
      ],
      "name": "setAllowStaleConsults",
      "outputs": [],
      "stateMutability": "nonpayable",
      "type": "function"
    },
    {
      "inputs": [
        {
          "internalType": "uint256",
          "name": "_consult_leniency",
          "type": "uint256"
        }
      ],
      "name": "setConsultLeniency",
      "outputs": [],
      "stateMutability": "nonpayable",
      "type": "function"
    },
    {
      "inputs": [
        {
          "internalType": "uint256",
          "name": "_period",
          "type": "uint256"
        }
      ],
      "name": "setPeriod",
      "outputs": [],
      "stateMutability": "nonpayable",
      "type": "function"
    },
    {
      "inputs": [
        {
          "internalType": "address",
          "name": "_timelock_address",
          "type": "address"
        }
      ],
      "name": "setTimelock",
      "outputs": [],
      "stateMutability": "nonpayable",
      "type": "function"
    },
    {
      "inputs": [],
      "name": "token0",
      "outputs": [
        {
          "internalType": "address",
          "name": "",
          "type": "address"
        }
      ],
      "stateMutability": "view",
      "type": "function"
    },
    {
      "inputs": [],
      "name": "token1",
      "outputs": [
        {
          "internalType": "address",
          "name": "",
          "type": "address"
        }
      ],
      "stateMutability": "view",
      "type": "function"
    },
    {
      "inputs": [],
      "name": "update",
      "outputs": [],
      "stateMutability": "nonpayable",
      "type": "function"
    }
  ],
  "bytecode": {
    "object": "0x60e060409080825234620005795760a08162001a5980380380916200002582856200057e565b83398101031262000579576200003b81620005b8565b9060206200004b818301620005b8565b62000058858401620005b8565b916200007560806200006d60608701620005b8565b9501620005b8565b6001600160a01b03949093908516908115620005355760018060a01b0319967fb532073b38c83145e3e5135377a08bf9aab55bc0fd7c1179cd4fb995d2a5159c89600094808b87541617865581519086825287820152a1610e106003556004946078865560ff1960055416600555878316888216818114620004e4578992911115620004dd575b169081156200049a5791604485928980958d51968795869463e6a4390560e01b86528c860152166024840152165afa9081156200049057908691839162000450575b501660808190528751630dfe168160e01b815283818681855afa9081156200039957839162000413575b5060a052875163d21220a760e01b815283818681855afa90811562000399578391620003d6575b5060c0528751635909c0d560e01b815283818681855afa90811562000399578391620003a3575b506006558751635a3d549360e01b815283818681855afa90811562000399579083929186949162000359575b506007558851630240bc6b60e21b81529260609184919082905afa80156200034d578180938192620002da575b505063ffffffff1663ffffffff19600854161760085560018060701b0380911615159182620002cd575b5050156200028b57505016906002541617600255516114769081620005e3823960805181818161039b0152610461015260a051818181610c550152611043015260c05181818161020b0152610cc70152f35b855162461bcd60e51b815291820152601e60248201527f556e6973776170506169724f7261636c653a204e4f5f52455345525645530000604482015260649150fd5b1615159050388062000239565b92509250506060813d821162000344575b81620002fa606093836200057e565b8101031262000340576200030e81620005cd565b886200031c858401620005cd565b9201519263ffffffff841684036200033d5750909163ffffffff386200020f565b80fd5b5080fd5b3d9150620002eb565b508751903d90823e3d90fd5b8092939450858092503d831162000391575b6200037781836200057e565b810103126200038d5751849291906060620001e2565b8280fd5b503d6200036b565b89513d85823e3d90fd5b90508381813d8311620003ce575b620003bd81836200057e565b810103126200038d575138620001b6565b503d620003b1565b90508381813d83116200040b575b620003f081836200057e565b810103126200038d576200040490620005b8565b386200018f565b503d620003e4565b90508381813d831162000448575b6200042d81836200057e565b810103126200038d576200044190620005b8565b3862000168565b503d62000421565b809250848092503d831162000488575b6200046c81836200057e565b810103126200034057620004818691620005b8565b386200013e565b503d62000460565b88513d84823e3d90fd5b895162461bcd60e51b8152808701869052601e60248201527f556e697377617056324c6962726172793a205a45524f5f4144445245535300006044820152606490fd5b92620000fc565b8b5162461bcd60e51b8152808901889052602560248201527f556e697377617056324c6962726172793a204944454e544943414c5f41444452604482015264455353455360d81b6064820152608490fd5b875162461bcd60e51b815260048101849052601960248201527f4f776e657220616464726573732063616e6e6f742062652030000000000000006044820152606490fd5b600080fd5b601f909101601f19168101906001600160401b03821190821017620005a257604052565b634e487b7160e01b600052604160045260246000fd5b51906001600160a01b03821682036200057957565b51906001600160701b0382168203620005795756fe60806040908082526004908136101561001757600080fd5b600092833560e01c9182630dfe168114610ff9575081630f3a9f6514610f965781631627540c14610e5f5781631ac2c82514610e1d5781633ddac95314610bca5781633fcb55ca14610b8d57816353a47bb714610b3a5781635909c0d514610afd5781635a3d549314610ac05781635cb9a71414610a5d5781635e6aaf2c14610a0257816379ba5097146108c45781638da5cb5b14610873578163a17a26851461081c578163a2e620451461041a578163a6bb4539146103bf578163a8aa1b3114610350578163b4d1d79514610313578163bdacb30314610272578163c5700a021461022f578163d21220a7146101c0575063f1551aea1461011857600080fd5b346101bc5760207ffffffffffffffffffffffffffffffffffffffffffffffffffffffffffffffffc3601126101bc57358015158091036101bc5761017e73ffffffffffffffffffffffffffffffffffffffff8084541633149081156101ae575b5061108f565b60ff7fffffffffffffffffffffffffffffffffffffffffffffffffffffffffffffff006005541691161760055580f35b905060025416331438610178565b5080fd5b8390346101bc57817ffffffffffffffffffffffffffffffffffffffffffffffffffffffffffffffffc3601126101bc576020905173ffffffffffffffffffffffffffffffffffffffff7f0000000000000000000000000000000000000000000000000000000000000000168152f35b8390346101bc57817ffffffffffffffffffffffffffffffffffffffffffffffffffffffffffffffffc3601126101bc5760209063ffffffff600854169051908152f35b83346103105760207ffffffffffffffffffffffffffffffffffffffffffffffffffffffffffffffffc360112610310576102aa611067565b73ffffffffffffffffffffffffffffffffffffffff908183541633148015610303575b6102d69061108f565b167fffffffffffffffffffffffff0000000000000000000000000000000000000000600254161760025580f35b50600254821633146102cd565b80fd5b8390346101bc57817ffffffffffffffffffffffffffffffffffffffffffffffffffffffffffffffffc3601126101bc576020906003549051908152f35b8390346101bc57817ffffffffffffffffffffffffffffffffffffffffffffffffffffffffffffffffc3601126101bc576020905173ffffffffffffffffffffffffffffffffffffffff7f0000000000000000000000000000000000000000000000000000000000000000168152f35b8390346101bc57817ffffffffffffffffffffffffffffffffffffffffffffffffffffffffffffffffc3601126101bc576020907bffffffffffffffffffffffffffffffffffffffffffffffffffffffff600954169051908152f35b8383346101bc57817ffffffffffffffffffffffffffffffffffffffffffffffffffffffffffffffffc3601126101bc5773ffffffffffffffffffffffffffffffffffffffff7f0000000000000000000000000000000000000000000000000000000000000000169063ffffffff91824216928551907f5909c0d500000000000000000000000000000000000000000000000000000000825260209384838281875afa9283156108125787936107df575b5087517f5a3d54930000000000000000000000000000000000000000000000000000000081528386828481895afa9182156107d557908392918a9261079f575b50606082978c51948580927f0902f1ac0000000000000000000000000000000000000000000000000000000082525afa928315610795578a938b918c91610737575b508a80888316036106c0575b5050505050506008549461056e8387168861111a565b600354931692831061063e575050957fffffffffffffffffffffffffffffffffffffffffffffffffffffffff000000009495966106287bffffffffffffffffffffffffffffffffffffffffffffffffffffffff610620816105da856105d56006548a61115f565b61116c565b16938486516105e8816111a5565b527fffffffff00000000000000000000000000000000000000000000000000000000948560095416176009556105d56007548961115f565b1692516111a5565b600a541617600a55600655600755161760085580f35b608492508851917f08c379a0000000000000000000000000000000000000000000000000000000008352820152602560248201527f556e6973776170506169724f7261636c653a20504552494f445f4e4f545f454c60448201527f41505345440000000000000000000000000000000000000000000000000000006064820152fd5b61072b969950610718949598509161071e6106e16107249361070d9561111a565b946107188a8c7bffffffffffffffffffffffffffffffffffffffffffffffffffffffff97889187611368565b51169716809761123e565b90611231565b98611368565b511661123e565b9288808080808a610558565b945050506060833d821161078d575b81610753606093836111f0565b81010312610789576107648361134d565b8b6107708a860161134d565b9401519086821682036107855793908d61054c565b8b80fd5b8980fd5b3d9150610746565b8b513d8c823e3d90fd5b88809294508193503d83116107ce575b6107b981836111f0565b810103126107ca575182918b61050a565b8880fd5b503d6107af565b8a513d8b823e3d90fd5b9092508481813d831161080b575b6107f781836111f0565b81010312610807575191886104ca565b8680fd5b503d6107ed565b88513d89823e3d90fd5b8390346101bc57817ffffffffffffffffffffffffffffffffffffffffffffffffffffffffffffffffc3601126101bc5760209063ffffffff610864816008541682421661111a565b90600354911610159051908152f35b8390346101bc57817ffffffffffffffffffffffffffffffffffffffffffffffffffffffffffffffffc3601126101bc5773ffffffffffffffffffffffffffffffffffffffff60209254169051908152f35b919050346109fe57827ffffffffffffffffffffffffffffffffffffffffffffffffffffffffffffffffc3601126109fe576001549073ffffffffffffffffffffffffffffffffffffffff928383169182330361097c57507fb532073b38c83145e3e5135377a08bf9aab55bc0fd7c1179cd4fb995d2a5159c9085549481519086168152836020820152a17fffffffffffffffffffffffff00000000000000000000000000000000000000008093161783551660015580f35b602060849251917f08c379a0000000000000000000000000000000000000000000000000000000008352820152603560248201527f596f75206d757374206265206e6f6d696e61746564206265666f726520796f7560448201527f2063616e20616363657074206f776e65727368697000000000000000000000006064820152fd5b8280fd5b8390346101bc57817ffffffffffffffffffffffffffffffffffffffffffffffffffffffffffffffffc3601126101bc576020907bffffffffffffffffffffffffffffffffffffffffffffffffffffffff600a54169051908152f35b5050346101bc5760207ffffffffffffffffffffffffffffffffffffffffffffffffffffffffffffffffc3601126101bc57610ab973ffffffffffffffffffffffffffffffffffffffff8084541633149081156101ae575061108f565b8035905580f35b8390346101bc57817ffffffffffffffffffffffffffffffffffffffffffffffffffffffffffffffffc3601126101bc576020906007549051908152f35b8390346101bc57817ffffffffffffffffffffffffffffffffffffffffffffffffffffffffffffffffc3601126101bc576020906006549051908152f35b8390346101bc57817ffffffffffffffffffffffffffffffffffffffffffffffffffffffffffffffffc3601126101bc5760209073ffffffffffffffffffffffffffffffffffffffff600154169051908152f35b919050346109fe57827ffffffffffffffffffffffffffffffffffffffffffffffffffffffffffffffffc3601126109fe5760209250549051908152f35b8383346101bc57827ffffffffffffffffffffffffffffffffffffffffffffffffffffffffffffffffc3601126101bc57610c02611067565b602435925063ffffffff610c1c816008541682421661111a565b90610c2b600354855490611231565b9116108015610e11575b15610d8e5773ffffffffffffffffffffffffffffffffffffffff908116907f000000000000000000000000000000000000000000000000000000000000000081168203610cc55750505090610cb96020928251610c91816111a5565b7bffffffffffffffffffffffffffffffffffffffffffffffffffffffff600954168152611251565b5160701c905b51908152f35b7f00000000000000000000000000000000000000000000000000000000000000001603610d31575090610d276020928251610cff816111a5565b7bffffffffffffffffffffffffffffffffffffffffffffffffffffffff600a54168152611251565b5160701c90610cbf565b60649060208451917f08c379a0000000000000000000000000000000000000000000000000000000008352820152602060248201527f556e6973776170506169724f7261636c653a20494e56414c49445f544f4b454e6044820152fd5b60848260208651917f08c379a0000000000000000000000000000000000000000000000000000000008352820152603560248201527f556e6973776170506169724f7261636c653a2050524943455f49535f5354414c60448201527f455f4e4545445f544f5f43414c4c5f55504441544500000000000000000000006064820152fd5b5060ff60055416610c35565b8390346101bc57817ffffffffffffffffffffffffffffffffffffffffffffffffffffffffffffffffc3601126101bc5760209060ff6005541690519015158152f35b8383346101bc5760207ffffffffffffffffffffffffffffffffffffffffffffffffffffffffffffffffc3601126101bc57610e98611067565b73ffffffffffffffffffffffffffffffffffffffff91828454163303610f135750837f906a1c6bd7e3091ea86693dd029a831c19049ce77f1dce2ce0bab1cacbabce22926020921690817fffffffffffffffffffffffff0000000000000000000000000000000000000000600154161760015551908152a180f35b60849060208651917f08c379a0000000000000000000000000000000000000000000000000000000008352820152602f60248201527f4f6e6c792074686520636f6e7472616374206f776e6572206d6179207065726660448201527f6f726d207468697320616374696f6e00000000000000000000000000000000006064820152fd5b5050346101bc5760207ffffffffffffffffffffffffffffffffffffffffffffffffffffffffffffffffc3601126101bc57610ff273ffffffffffffffffffffffffffffffffffffffff8084541633149081156101ae575061108f565b3560035580f35b8490346101bc57817ffffffffffffffffffffffffffffffffffffffffffffffffffffffffffffffffc3601126101bc5760209073ffffffffffffffffffffffffffffffffffffffff7f0000000000000000000000000000000000000000000000000000000000000000168152f35b6004359073ffffffffffffffffffffffffffffffffffffffff8216820361108a57565b600080fd5b1561109657565b60846040517f08c379a000000000000000000000000000000000000000000000000000000000815260206004820152602f60248201527f596f7520617265206e6f7420616e206f776e6572206f722074686520676f766560448201527f726e616e63652074696d656c6f636b00000000000000000000000000000000006064820152fd5b63ffffffff918216908216039190821161113057565b7f4e487b7100000000000000000000000000000000000000000000000000000000600052601160045260246000fd5b9190820391821161113057565b8115611176570490565b7f4e487b7100000000000000000000000000000000000000000000000000000000600052601260045260246000fd5b6020810190811067ffffffffffffffff8211176111c157604052565b7f4e487b7100000000000000000000000000000000000000000000000000000000600052604160045260246000fd5b90601f7fffffffffffffffffffffffffffffffffffffffffffffffffffffffffffffffe0910116810190811067ffffffffffffffff8211176111c157604052565b9190820180921161113057565b8181029291811591840414171561113057565b600060405161125f816111a5565b52600091801591821561130a575b5050156112865760405190611281826111a5565b815290565b60846040517f08c379a000000000000000000000000000000000000000000000000000000000815260206004820152602360248201527f4669786564506f696e743a204d554c5449504c49434154494f4e5f4f5645524660448201527f4c4f5700000000000000000000000000000000000000000000000000000000006064820152fd5b915091507bffffffffffffffffffffffffffffffffffffffffffffffffffffffff61134261133b848385511661123e565b938461116c565b91511614388061126d565b51906dffffffffffffffffffffffffffff8216820361108a57565b906dffffffffffffffffffffffffffff906000604051611387816111a5565b521680156113e2577bffffffffffffffffffffffffffffffffffffffffffffffffffffffff907bffffffffffffffffffffffffffff0000000000000000000000000000604051936113d7856111a5565b60701b160416815290565b60646040517f08c379a000000000000000000000000000000000000000000000000000000000815260206004820152601760248201527f4669786564506f696e743a204449565f42595f5a45524f0000000000000000006044820152fdfea2646970667358221220fb43d2afd10e0aacb0916e84171aa4d9e7c1e9a38cafc3e3fe6e82a539866caf64736f6c63430008110033",
    "linkReferences": {}
  },
  "methodIdentifiers": {
    "ALLOW_STALE_CONSULTS()": "1ac2c825",
    "CONSULT_LENIENCY()": "3fcb55ca",
    "PERIOD()": "b4d1d795",
    "acceptOwnership()": "79ba5097",
    "blockTimestampLast()": "c5700a02",
    "canUpdate()": "a17a2685",
    "consult(address,uint256)": "3ddac953",
    "nominateNewOwner(address)": "1627540c",
    "nominatedOwner()": "53a47bb7",
    "owner()": "8da5cb5b",
    "pair()": "a8aa1b31",
    "price0Average()": "a6bb4539",
    "price0CumulativeLast()": "5909c0d5",
    "price1Average()": "5e6aaf2c",
    "price1CumulativeLast()": "5a3d5493",
    "setAllowStaleConsults(bool)": "f1551aea",
    "setConsultLeniency(uint256)": "5cb9a714",
    "setPeriod(uint256)": "0f3a9f65",
    "setTimelock(address)": "bdacb303",
    "token0()": "0dfe1681",
    "token1()": "d21220a7",
    "update()": "a2e62045"
  },
  "id": 44
}