{
  "abi": [
    {
      "inputs": [
        {
          "internalType": "string",
          "name": "_name",
          "type": "string"
        },
        {
          "internalType": "string",
          "name": "_symbol",
          "type": "string"
        },
        {
          "internalType": "address",
          "name": "_creator_address",
          "type": "address"
        },
        {
          "internalType": "address",
          "name": "_timelock_address",
          "type": "address"
        }
      ],
      "stateMutability": "nonpayable",
      "type": "constructor"
    },
    {
      "anonymous": false,
      "inputs": [
        {
          "indexed": true,
          "internalType": "address",
          "name": "owner",
          "type": "address"
        },
        {
          "indexed": true,
          "internalType": "address",
          "name": "spender",
          "type": "address"
        },
        {
          "indexed": false,
          "internalType": "uint256",
          "name": "value",
          "type": "uint256"
        }
      ],
      "name": "Approval",
      "type": "event"
    },
    {
      "anonymous": false,
      "inputs": [
        {
          "indexed": false,
          "internalType": "uint256",
          "name": "global_collateral_ratio",
          "type": "uint256"
        }
      ],
      "name": "CollateralRatioRefreshed",
      "type": "event"
    },
    {
      "anonymous": false,
      "inputs": [
        {
          "indexed": false,
          "internalType": "bool",
          "name": "collateral_ratio_paused",
          "type": "bool"
        }
      ],
      "name": "CollateralRatioToggled",
      "type": "event"
    },
    {
      "anonymous": false,
      "inputs": [
        {
          "indexed": false,
          "internalType": "address",
          "name": "controller_address",
          "type": "address"
        }
      ],
      "name": "ControllerSet",
      "type": "event"
    },
    {
      "anonymous": false,
      "inputs": [
        {
          "indexed": false,
          "internalType": "address",
          "name": "eth_usd_consumer_address",
          "type": "address"
        }
      ],
      "name": "ETHUSDOracleSet",
      "type": "event"
    },
    {
      "anonymous": false,
      "inputs": [
        {
          "indexed": true,
          "internalType": "address",
          "name": "from",
          "type": "address"
        },
        {
          "indexed": true,
          "internalType": "address",
          "name": "to",
          "type": "address"
        },
        {
          "indexed": false,
          "internalType": "uint256",
          "name": "amount",
          "type": "uint256"
        }
      ],
      "name": "FRAXBurned",
      "type": "event"
    },
    {
      "anonymous": false,
      "inputs": [
        {
          "indexed": false,
          "internalType": "address",
          "name": "frax_oracle_addr",
          "type": "address"
        },
        {
          "indexed": false,
          "internalType": "address",
          "name": "weth_address",
          "type": "address"
        }
      ],
      "name": "FRAXETHOracleSet",
      "type": "event"
    },
    {
      "anonymous": false,
      "inputs": [
        {
          "indexed": true,
          "internalType": "address",
          "name": "from",
          "type": "address"
        },
        {
          "indexed": true,
          "internalType": "address",
          "name": "to",
          "type": "address"
        },
        {
          "indexed": false,
          "internalType": "uint256",
          "name": "amount",
          "type": "uint256"
        }
      ],
      "name": "FRAXMinted",
      "type": "event"
    },
    {
      "anonymous": false,
      "inputs": [
        {
          "indexed": false,
          "internalType": "address",
          "name": "_fxs_address",
          "type": "address"
        }
      ],
      "name": "FXSAddressSet",
      "type": "event"
    },
    {
      "anonymous": false,
      "inputs": [
        {
          "indexed": false,
          "internalType": "address",
          "name": "fxs_oracle_addr",
          "type": "address"
        },
        {
          "indexed": false,
          "internalType": "address",
          "name": "weth_address",
          "type": "address"
        }
      ],
      "name": "FXSEthOracleSet",
      "type": "event"
    },
    {
      "anonymous": false,
      "inputs": [
        {
          "indexed": false,
          "internalType": "uint256",
          "name": "new_step",
          "type": "uint256"
        }
      ],
      "name": "FraxStepSet",
      "type": "event"
    },
    {
      "anonymous": false,
      "inputs": [
        {
          "indexed": false,
          "internalType": "uint256",
          "name": "min_fee",
          "type": "uint256"
        }
      ],
      "name": "MintingFeeSet",
      "type": "event"
    },
    {
      "anonymous": false,
      "inputs": [
        {
          "indexed": false,
          "internalType": "address",
          "name": "oldOwner",
          "type": "address"
        },
        {
          "indexed": false,
          "internalType": "address",
          "name": "newOwner",
          "type": "address"
        }
      ],
      "name": "OwnerChanged",
      "type": "event"
    },
    {
      "anonymous": false,
      "inputs": [
        {
          "indexed": false,
          "internalType": "address",
          "name": "newOwner",
          "type": "address"
        }
      ],
      "name": "OwnerNominated",
      "type": "event"
    },
    {
      "anonymous": false,
      "inputs": [
        {
          "indexed": false,
          "internalType": "address",
          "name": "pool_address",
          "type": "address"
        }
      ],
      "name": "PoolAdded",
      "type": "event"
    },
    {
      "anonymous": false,
      "inputs": [
        {
          "indexed": false,
          "internalType": "address",
          "name": "pool_address",
          "type": "address"
        }
      ],
      "name": "PoolRemoved",
      "type": "event"
    },
    {
      "anonymous": false,
      "inputs": [
        {
          "indexed": false,
          "internalType": "uint256",
          "name": "price_band",
          "type": "uint256"
        }
      ],
      "name": "PriceBandSet",
      "type": "event"
    },
    {
      "anonymous": false,
      "inputs": [
        {
          "indexed": false,
          "internalType": "uint256",
          "name": "new_price_target",
          "type": "uint256"
        }
      ],
      "name": "PriceTargetSet",
      "type": "event"
    },
    {
      "anonymous": false,
      "inputs": [
        {
          "indexed": false,
          "internalType": "uint256",
          "name": "red_fee",
          "type": "uint256"
        }
      ],
      "name": "RedemptionFeeSet",
      "type": "event"
    },
    {
      "anonymous": false,
      "inputs": [
        {
          "indexed": false,
          "internalType": "uint256",
          "name": "new_cooldown",
          "type": "uint256"
        }
      ],
      "name": "RefreshCooldownSet",
      "type": "event"
    },
    {
      "anonymous": false,
      "inputs": [
        {
          "indexed": true,
          "internalType": "bytes32",
          "name": "role",
          "type": "bytes32"
        },
        {
          "indexed": true,
          "internalType": "bytes32",
          "name": "previousAdminRole",
          "type": "bytes32"
        },
        {
          "indexed": true,
          "internalType": "bytes32",
          "name": "newAdminRole",
          "type": "bytes32"
        }
      ],
      "name": "RoleAdminChanged",
      "type": "event"
    },
    {
      "anonymous": false,
      "inputs": [
        {
          "indexed": true,
          "internalType": "bytes32",
          "name": "role",
          "type": "bytes32"
        },
        {
          "indexed": true,
          "internalType": "address",
          "name": "account",
          "type": "address"
        },
        {
          "indexed": true,
          "internalType": "address",
          "name": "sender",
          "type": "address"
        }
      ],
      "name": "RoleGranted",
      "type": "event"
    },
    {
      "anonymous": false,
      "inputs": [
        {
          "indexed": true,
          "internalType": "bytes32",
          "name": "role",
          "type": "bytes32"
        },
        {
          "indexed": true,
          "internalType": "address",
          "name": "account",
          "type": "address"
        },
        {
          "indexed": true,
          "internalType": "address",
          "name": "sender",
          "type": "address"
        }
      ],
      "name": "RoleRevoked",
      "type": "event"
    },
    {
      "anonymous": false,
      "inputs": [
        {
          "indexed": false,
          "internalType": "address",
          "name": "new_timelock",
          "type": "address"
        }
      ],
      "name": "TimelockSet",
      "type": "event"
    },
    {
      "anonymous": false,
      "inputs": [
        {
          "indexed": true,
          "internalType": "address",
          "name": "from",
          "type": "address"
        },
        {
          "indexed": true,
          "internalType": "address",
          "name": "to",
          "type": "address"
        },
        {
          "indexed": false,
          "internalType": "uint256",
          "name": "value",
          "type": "uint256"
        }
      ],
      "name": "Transfer",
      "type": "event"
    },
    {
      "inputs": [],
      "name": "COLLATERAL_RATIO_PAUSER",
      "outputs": [
        {
          "internalType": "bytes32",
          "name": "",
          "type": "bytes32"
        }
      ],
      "stateMutability": "view",
      "type": "function"
    },
    {
      "inputs": [],
      "name": "DEFAULT_ADMIN_ADDRESS",
      "outputs": [
        {
          "internalType": "address",
          "name": "",
          "type": "address"
        }
      ],
      "stateMutability": "view",
      "type": "function"
    },
    {
      "inputs": [],
      "name": "DEFAULT_ADMIN_ROLE",
      "outputs": [
        {
          "internalType": "bytes32",
          "name": "",
          "type": "bytes32"
        }
      ],
      "stateMutability": "view",
      "type": "function"
    },
    {
      "inputs": [],
      "name": "acceptOwnership",
      "outputs": [],
      "stateMutability": "nonpayable",
      "type": "function"
    },
    {
      "inputs": [
        {
          "internalType": "address",
          "name": "pool_address",
          "type": "address"
        }
      ],
      "name": "addPool",
      "outputs": [],
      "stateMutability": "nonpayable",
      "type": "function"
    },
    {
      "inputs": [
        {
          "internalType": "address",
          "name": "owner",
          "type": "address"
        },
        {
          "internalType": "address",
          "name": "spender",
          "type": "address"
        }
      ],
      "name": "allowance",
      "outputs": [
        {
          "internalType": "uint256",
          "name": "",
          "type": "uint256"
        }
      ],
      "stateMutability": "view",
      "type": "function"
    },
    {
      "inputs": [
        {
          "internalType": "address",
          "name": "spender",
          "type": "address"
        },
        {
          "internalType": "uint256",
          "name": "amount",
          "type": "uint256"
        }
      ],
      "name": "approve",
      "outputs": [
        {
          "internalType": "bool",
          "name": "",
          "type": "bool"
        }
      ],
      "stateMutability": "nonpayable",
      "type": "function"
    },
    {
      "inputs": [
        {
          "internalType": "address",
          "name": "account",
          "type": "address"
        }
      ],
      "name": "balanceOf",
      "outputs": [
        {
          "internalType": "uint256",
          "name": "",
          "type": "uint256"
        }
      ],
      "stateMutability": "view",
      "type": "function"
    },
    {
      "inputs": [
        {
          "internalType": "uint256",
          "name": "amount",
          "type": "uint256"
        }
      ],
      "name": "burn",
      "outputs": [],
      "stateMutability": "nonpayable",
      "type": "function"
    },
    {
      "inputs": [
        {
          "internalType": "address",
          "name": "account",
          "type": "address"
        },
        {
          "internalType": "uint256",
          "name": "amount",
          "type": "uint256"
        }
      ],
      "name": "burnFrom",
      "outputs": [],
      "stateMutability": "nonpayable",
      "type": "function"
    },
    {
      "inputs": [],
      "name": "collateral_ratio_paused",
      "outputs": [
        {
          "internalType": "bool",
          "name": "",
          "type": "bool"
        }
      ],
      "stateMutability": "view",
      "type": "function"
    },
    {
      "inputs": [],
      "name": "controller_address",
      "outputs": [
        {
          "internalType": "address",
          "name": "",
          "type": "address"
        }
      ],
      "stateMutability": "view",
      "type": "function"
    },
    {
      "inputs": [],
      "name": "creator_address",
      "outputs": [
        {
          "internalType": "address",
          "name": "",
          "type": "address"
        }
      ],
      "stateMutability": "view",
      "type": "function"
    },
    {
      "inputs": [],
      "name": "decimals",
      "outputs": [
        {
          "internalType": "uint8",
          "name": "",
          "type": "uint8"
        }
      ],
      "stateMutability": "view",
      "type": "function"
    },
    {
      "inputs": [
        {
          "internalType": "address",
          "name": "spender",
          "type": "address"
        },
        {
          "internalType": "uint256",
          "name": "subtractedValue",
          "type": "uint256"
        }
      ],
      "name": "decreaseAllowance",
      "outputs": [
        {
          "internalType": "bool",
          "name": "",
          "type": "bool"
        }
      ],
      "stateMutability": "nonpayable",
      "type": "function"
    },
    {
      "inputs": [],
      "name": "eth_usd_consumer_address",
      "outputs": [
        {
          "internalType": "address",
          "name": "",
          "type": "address"
        }
      ],
      "stateMutability": "view",
      "type": "function"
    },
    {
      "inputs": [],
      "name": "eth_usd_price",
      "outputs": [
        {
          "internalType": "uint256",
          "name": "",
          "type": "uint256"
        }
      ],
      "stateMutability": "view",
      "type": "function"
    },
    {
      "inputs": [],
      "name": "frax_eth_oracle_address",
      "outputs": [
        {
          "internalType": "address",
          "name": "",
          "type": "address"
        }
      ],
      "stateMutability": "view",
      "type": "function"
    },
    {
      "inputs": [],
      "name": "frax_info",
      "outputs": [
        {
          "internalType": "uint256",
          "name": "",
          "type": "uint256"
        },
        {
          "internalType": "uint256",
          "name": "",
          "type": "uint256"
        },
        {
          "internalType": "uint256",
          "name": "",
          "type": "uint256"
        },
        {
          "internalType": "uint256",
          "name": "",
          "type": "uint256"
        },
        {
          "internalType": "uint256",
          "name": "",
          "type": "uint256"
        },
        {
          "internalType": "uint256",
          "name": "",
          "type": "uint256"
        },
        {
          "internalType": "uint256",
          "name": "",
          "type": "uint256"
        },
        {
          "internalType": "uint256",
          "name": "",
          "type": "uint256"
        }
      ],
      "stateMutability": "view",
      "type": "function"
    },
    {
      "inputs": [
        {
          "internalType": "address",
          "name": "",
          "type": "address"
        }
      ],
      "name": "frax_pools",
      "outputs": [
        {
          "internalType": "bool",
          "name": "",
          "type": "bool"
        }
      ],
      "stateMutability": "view",
      "type": "function"
    },
    {
      "inputs": [
        {
          "internalType": "uint256",
          "name": "",
          "type": "uint256"
        }
      ],
      "name": "frax_pools_array",
      "outputs": [
        {
          "internalType": "address",
          "name": "",
          "type": "address"
        }
      ],
      "stateMutability": "view",
      "type": "function"
    },
    {
      "inputs": [],
      "name": "frax_price",
      "outputs": [
        {
          "internalType": "uint256",
          "name": "",
          "type": "uint256"
        }
      ],
      "stateMutability": "view",
      "type": "function"
    },
    {
      "inputs": [],
      "name": "frax_step",
      "outputs": [
        {
          "internalType": "uint256",
          "name": "",
          "type": "uint256"
        }
      ],
      "stateMutability": "view",
      "type": "function"
    },
    {
      "inputs": [],
      "name": "fxs_address",
      "outputs": [
        {
          "internalType": "address",
          "name": "",
          "type": "address"
        }
      ],
      "stateMutability": "view",
      "type": "function"
    },
    {
      "inputs": [],
      "name": "fxs_eth_oracle_address",
      "outputs": [
        {
          "internalType": "address",
          "name": "",
          "type": "address"
        }
      ],
      "stateMutability": "view",
      "type": "function"
    },
    {
      "inputs": [],
      "name": "fxs_price",
      "outputs": [
        {
          "internalType": "uint256",
          "name": "",
          "type": "uint256"
        }
      ],
      "stateMutability": "view",
      "type": "function"
    },
    {
      "inputs": [],
      "name": "genesis_supply",
      "outputs": [
        {
          "internalType": "uint256",
          "name": "",
          "type": "uint256"
        }
      ],
      "stateMutability": "view",
      "type": "function"
    },
    {
      "inputs": [
        {
          "internalType": "bytes32",
          "name": "role",
          "type": "bytes32"
        }
      ],
      "name": "getRoleAdmin",
      "outputs": [
        {
          "internalType": "bytes32",
          "name": "",
          "type": "bytes32"
        }
      ],
      "stateMutability": "view",
      "type": "function"
    },
    {
      "inputs": [
        {
          "internalType": "bytes32",
          "name": "role",
          "type": "bytes32"
        },
        {
          "internalType": "uint256",
          "name": "index",
          "type": "uint256"
        }
      ],
      "name": "getRoleMember",
      "outputs": [
        {
          "internalType": "address",
          "name": "",
          "type": "address"
        }
      ],
      "stateMutability": "view",
      "type": "function"
    },
    {
      "inputs": [
        {
          "internalType": "bytes32",
          "name": "role",
          "type": "bytes32"
        }
      ],
      "name": "getRoleMemberCount",
      "outputs": [
        {
          "internalType": "uint256",
          "name": "",
          "type": "uint256"
        }
      ],
      "stateMutability": "view",
      "type": "function"
    },
    {
      "inputs": [],
      "name": "globalCollateralValue",
      "outputs": [
        {
          "internalType": "uint256",
          "name": "",
          "type": "uint256"
        }
      ],
      "stateMutability": "view",
      "type": "function"
    },
    {
      "inputs": [],
      "name": "global_collateral_ratio",
      "outputs": [
        {
          "internalType": "uint256",
          "name": "",
          "type": "uint256"
        }
      ],
      "stateMutability": "view",
      "type": "function"
    },
    {
      "inputs": [
        {
          "internalType": "bytes32",
          "name": "role",
          "type": "bytes32"
        },
        {
          "internalType": "address",
          "name": "account",
          "type": "address"
        }
      ],
      "name": "grantRole",
      "outputs": [],
      "stateMutability": "nonpayable",
      "type": "function"
    },
    {
      "inputs": [
        {
          "internalType": "bytes32",
          "name": "role",
          "type": "bytes32"
        },
        {
          "internalType": "address",
          "name": "account",
          "type": "address"
        }
      ],
      "name": "hasRole",
      "outputs": [
        {
          "internalType": "bool",
          "name": "",
          "type": "bool"
        }
      ],
      "stateMutability": "view",
      "type": "function"
    },
    {
      "inputs": [
        {
          "internalType": "address",
          "name": "spender",
          "type": "address"
        },
        {
          "internalType": "uint256",
          "name": "addedValue",
          "type": "uint256"
        }
      ],
      "name": "increaseAllowance",
      "outputs": [
        {
          "internalType": "bool",
          "name": "",
          "type": "bool"
        }
      ],
      "stateMutability": "nonpayable",
      "type": "function"
    },
    {
      "inputs": [],
      "name": "last_call_time",
      "outputs": [
        {
          "internalType": "uint256",
          "name": "",
          "type": "uint256"
        }
      ],
      "stateMutability": "view",
      "type": "function"
    },
    {
      "inputs": [],
      "name": "minting_fee",
      "outputs": [
        {
          "internalType": "uint256",
          "name": "",
          "type": "uint256"
        }
      ],
      "stateMutability": "view",
      "type": "function"
    },
    {
      "inputs": [],
      "name": "name",
      "outputs": [
        {
          "internalType": "string",
          "name": "",
          "type": "string"
        }
      ],
      "stateMutability": "view",
      "type": "function"
    },
    {
      "inputs": [
        {
          "internalType": "address",
          "name": "_owner",
          "type": "address"
        }
      ],
      "name": "nominateNewOwner",
      "outputs": [],
      "stateMutability": "nonpayable",
      "type": "function"
    },
    {
      "inputs": [],
      "name": "nominatedOwner",
      "outputs": [
        {
          "internalType": "address",
          "name": "",
          "type": "address"
        }
      ],
      "stateMutability": "view",
      "type": "function"
    },
    {
      "inputs": [],
      "name": "owner",
      "outputs": [
        {
          "internalType": "address",
          "name": "",
          "type": "address"
        }
      ],
      "stateMutability": "view",
      "type": "function"
    },
    {
      "inputs": [
        {
          "internalType": "address",
          "name": "b_address",
          "type": "address"
        },
        {
          "internalType": "uint256",
          "name": "b_amount",
          "type": "uint256"
        }
      ],
      "name": "pool_burn_from",
      "outputs": [],
      "stateMutability": "nonpayable",
      "type": "function"
    },
    {
      "inputs": [
        {
          "internalType": "address",
          "name": "m_address",
          "type": "address"
        },
        {
          "internalType": "uint256",
          "name": "m_amount",
          "type": "uint256"
        }
      ],
      "name": "pool_mint",
      "outputs": [],
      "stateMutability": "nonpayable",
      "type": "function"
    },
    {
      "inputs": [],
      "name": "price_band",
      "outputs": [
        {
          "internalType": "uint256",
          "name": "",
          "type": "uint256"
        }
      ],
      "stateMutability": "view",
      "type": "function"
    },
    {
      "inputs": [],
      "name": "price_target",
      "outputs": [
        {
          "internalType": "uint256",
          "name": "",
          "type": "uint256"
        }
      ],
      "stateMutability": "view",
      "type": "function"
    },
    {
      "inputs": [],
      "name": "redemption_fee",
      "outputs": [
        {
          "internalType": "uint256",
          "name": "",
          "type": "uint256"
        }
      ],
      "stateMutability": "view",
      "type": "function"
    },
    {
      "inputs": [],
      "name": "refreshCollateralRatio",
      "outputs": [],
      "stateMutability": "nonpayable",
      "type": "function"
    },
    {
      "inputs": [],
      "name": "refresh_cooldown",
      "outputs": [
        {
          "internalType": "uint256",
          "name": "",
          "type": "uint256"
        }
      ],
      "stateMutability": "view",
      "type": "function"
    },
    {
      "inputs": [
        {
          "internalType": "address",
          "name": "pool_address",
          "type": "address"
        }
      ],
      "name": "removePool",
      "outputs": [],
      "stateMutability": "nonpayable",
      "type": "function"
    },
    {
      "inputs": [
        {
          "internalType": "bytes32",
          "name": "role",
          "type": "bytes32"
        },
        {
          "internalType": "address",
          "name": "account",
          "type": "address"
        }
      ],
      "name": "renounceRole",
      "outputs": [],
      "stateMutability": "nonpayable",
      "type": "function"
    },
    {
      "inputs": [
        {
          "internalType": "bytes32",
          "name": "role",
          "type": "bytes32"
        },
        {
          "internalType": "address",
          "name": "account",
          "type": "address"
        }
      ],
      "name": "revokeRole",
      "outputs": [],
      "stateMutability": "nonpayable",
      "type": "function"
    },
    {
      "inputs": [
        {
          "internalType": "address",
          "name": "_controller_address",
          "type": "address"
        }
      ],
      "name": "setController",
      "outputs": [],
      "stateMutability": "nonpayable",
      "type": "function"
    },
    {
      "inputs": [
        {
          "internalType": "address",
          "name": "_eth_usd_consumer_address",
          "type": "address"
        }
      ],
      "name": "setETHUSDOracle",
      "outputs": [],
      "stateMutability": "nonpayable",
      "type": "function"
    },
    {
      "inputs": [
        {
          "internalType": "address",
          "name": "_frax_oracle_addr",
          "type": "address"
        },
        {
          "internalType": "address",
          "name": "_weth_address",
          "type": "address"
        }
      ],
      "name": "setFRAXEthOracle",
      "outputs": [],
      "stateMutability": "nonpayable",
      "type": "function"
    },
    {
      "inputs": [
        {
          "internalType": "address",
          "name": "_fxs_address",
          "type": "address"
        }
      ],
      "name": "setFXSAddress",
      "outputs": [],
      "stateMutability": "nonpayable",
      "type": "function"
    },
    {
      "inputs": [
        {
          "internalType": "address",
          "name": "_fxs_oracle_addr",
          "type": "address"
        },
        {
          "internalType": "address",
          "name": "_weth_address",
          "type": "address"
        }
      ],
      "name": "setFXSEthOracle",
      "outputs": [],
      "stateMutability": "nonpayable",
      "type": "function"
    },
    {
      "inputs": [
        {
          "internalType": "uint256",
          "name": "_new_step",
          "type": "uint256"
        }
      ],
      "name": "setFraxStep",
      "outputs": [],
      "stateMutability": "nonpayable",
      "type": "function"
    },
    {
      "inputs": [
        {
          "internalType": "uint256",
          "name": "min_fee",
          "type": "uint256"
        }
      ],
      "name": "setMintingFee",
      "outputs": [],
      "stateMutability": "nonpayable",
      "type": "function"
    },
    {
      "inputs": [
        {
          "internalType": "uint256",
          "name": "_price_band",
          "type": "uint256"
        }
      ],
      "name": "setPriceBand",
      "outputs": [],
      "stateMutability": "nonpayable",
      "type": "function"
    },
    {
      "inputs": [
        {
          "internalType": "uint256",
          "name": "_new_price_target",
          "type": "uint256"
        }
      ],
      "name": "setPriceTarget",
      "outputs": [],
      "stateMutability": "nonpayable",
      "type": "function"
    },
    {
      "inputs": [
        {
          "internalType": "uint256",
          "name": "red_fee",
          "type": "uint256"
        }
      ],
      "name": "setRedemptionFee",
      "outputs": [],
      "stateMutability": "nonpayable",
      "type": "function"
    },
    {
      "inputs": [
        {
          "internalType": "uint256",
          "name": "_new_cooldown",
          "type": "uint256"
        }
      ],
      "name": "setRefreshCooldown",
      "outputs": [],
      "stateMutability": "nonpayable",
      "type": "function"
    },
    {
      "inputs": [
        {
          "internalType": "address",
          "name": "new_timelock",
          "type": "address"
        }
      ],
      "name": "setTimelock",
      "outputs": [],
      "stateMutability": "nonpayable",
      "type": "function"
    },
    {
      "inputs": [],
      "name": "symbol",
      "outputs": [
        {
          "internalType": "string",
          "name": "",
          "type": "string"
        }
      ],
      "stateMutability": "view",
      "type": "function"
    },
    {
      "inputs": [],
      "name": "timelock_address",
      "outputs": [
        {
          "internalType": "address",
          "name": "",
          "type": "address"
        }
      ],
      "stateMutability": "view",
      "type": "function"
    },
    {
      "inputs": [],
      "name": "toggleCollateralRatio",
      "outputs": [],
      "stateMutability": "nonpayable",
      "type": "function"
    },
    {
      "inputs": [],
      "name": "totalSupply",
      "outputs": [
        {
          "internalType": "uint256",
          "name": "",
          "type": "uint256"
        }
      ],
      "stateMutability": "view",
      "type": "function"
    },
    {
      "inputs": [
        {
          "internalType": "address",
          "name": "recipient",
          "type": "address"
        },
        {
          "internalType": "uint256",
          "name": "amount",
          "type": "uint256"
        }
      ],
      "name": "transfer",
      "outputs": [
        {
          "internalType": "bool",
          "name": "",
          "type": "bool"
        }
      ],
      "stateMutability": "nonpayable",
      "type": "function"
    },
    {
      "inputs": [
        {
          "internalType": "address",
          "name": "sender",
          "type": "address"
        },
        {
          "internalType": "address",
          "name": "recipient",
          "type": "address"
        },
        {
          "internalType": "uint256",
          "name": "amount",
          "type": "uint256"
        }
      ],
      "name": "transferFrom",
      "outputs": [
        {
          "internalType": "bool",
          "name": "",
          "type": "bool"
        }
      ],
      "stateMutability": "nonpayable",
      "type": "function"
    },
    {
      "inputs": [],
      "name": "weth_address",
      "outputs": [
        {
          "internalType": "address",
          "name": "",
          "type": "address"
        }
      ],
      "stateMutability": "view",
      "type": "function"
    }
  ],
  "bytecode": {
    "object": "0x604060a08152346200058e576200424690813803806200001f8162000593565b93843982019160809283828203126200058e5781516001600160401b0391908281116200058e578162000054918501620005cf565b90602086526020840151908382116200058e5762000074918501620005cf565b906200009060606200008887870162000641565b950162000641565b6001600160a01b0394909390851680156200054a57908793929160018060a01b0319928760049783868a54161789557fb532073b38c83145e3e5135377a08bf9aab55bc0fd7c1179cd4fb995d2a5159c8b80518660009b8c835251820152a1601c805460ff60a01b191690551692831562000507578151958187116200040957600a54968c600194858a811c9a16918215620004fc575b5191828b1014620004e957908291601f9a8b811162000493575b50818b84116001146200042857508b926200041c575b5050600019600383901b1c191690841b17600a555b805191821162000409576009548381169190841c821562000400575b8d519283821014620003ed57888111620003a4575b50818884116001146200033a57509282939183928a946200032e575b50501b916000199060031b1c1916176009555b82600b541617600b5581600c541617600c5582805260038751526200020186842060018060601b03193360601b1690620007f1565b62000312575b3390601c541617601c5583600b5416928315620002cf5750507fddf252ad1be2c89b69c2b068fc378daa952ba7f163c4a11628f55a4df523b3ef620002a494956200025460025462000775565b600255838352828151526200026c8784205462000775565b84845283825152878420558651906a01a784379d99db4200000082525190a36200029a81600b541662000656565b600c541662000656565b6109c4601855620f424080601555610e10601955601a55611388601b55516139b990816200086d8239f35b606491879187519262461bcd60e51b8452519083015260248201527f45524332303a206d696e7420746f20746865207a65726f2061646472657373006044820152fd5b333384600080516020620042268339815191528180a462000207565b015192503880620001b9565b919083601f19811660098c52848c20948c905b888383106200038957505050106200036f575b505050811b01600955620001cc565b015160001960f88460031b161c1916905538808062000360565b8587015188559096019594850194879350908101906200034d565b60098a52828a208980860160051c820192858710620003e3575b0160051c019085905b828110620003d75750506200019d565b8b8155018590620003c7565b92508192620003be565b634e487b7160e01b8a5260228b5260248afd5b607f1662000188565b634e487b7160e01b885260418952602488fd5b01519050388062000157565b600a8d52808d20889550929190601f198516908e905b8282106200047957505084116200045f575b505050811b01600a556200016c565b015160001960f88460031b161c1916905538808062000450565b8484015186558a979095019493840193908101906200043e565b90919250600a8c52828c208b80860160051c820192858710620004df575b91899187969594930160051c01915b828110620004d057505062000141565b8e8155869550899101620004c0565b92508192620004b1565b634e487b7160e01b8b5260228c5260248bfd5b99607f169962000127565b895162461bcd60e51b81528b51818a0152601560248201527f5a65726f206164647265737320646574656374656400000000000000000000006044820152606490fd5b865162461bcd60e51b815288516004820152601960248201527f4f776e657220616464726573732063616e6e6f742062652030000000000000006044820152606490fd5b600080fd5b6040519190601f01601f191682016001600160401b03811183821017620005b957604052565b634e487b7160e01b600052604160045260246000fd5b919080601f840112156200058e5782516001600160401b038111620005b95760209062000605601f8201601f1916830162000593565b928184528282870101116200058e5760005b8181106200062d57508260009394955001015290565b858101830151848201840152820162000617565b51906001600160a01b03821682036200058e57565b600360209081527fa8ca905b0ef1303341d52b1b48422cb82b6ae2b271767ba8b1052b1acfbc65f554600090815260408082206001600160601b03193360601b81168452600190910190935281205490917fb25402418ad555013210365a422f9f1206b2dd00719998db06f8a1fbe014641b91156200071857620006ed90828452600360205260408420908560601b1690620007f1565b620006f757505050565b33926001600160a01b031691600080516020620042268339815191529080a4565b60405162461bcd60e51b815260206004820152602f60248201527f416363657373436f6e74726f6c3a2073656e646572206d75737420626520616e60448201526e0818591b5a5b881d1bc819dc985b9d608a1b6064820152608490fd5b6a01a784379d99db42000000810190818111620007db578110620007965790565b60405162461bcd60e51b815260206004820152601b60248201527f536166654d6174683a206164646974696f6e206f766572666c6f7700000000006044820152606490fd5b634e487b7160e01b600052601160045260246000fd5b6000828152600182016020526040902054620008655780549068010000000000000000821015620005b957600182018082558210156200084f5782600192826000526020600020015580549260005201602052604060002055600190565b634e487b7160e01b600052603260045260246000fd5b505060009056fe608060408181526004918236101561001657600080fd5b600092833560e01c91826306fdde031461276b57508163095ea7b3146127415781630f9d2001146126dc5781631627540c146125c257816318160ddd146125a35781631c5df1e51461252a5781632258750a1461250b578163238a47091461249257816323b872dd146123c9578163246126bd14612394578163248a9ca3146123695781632853fb101461234a5781632cb4f63e1461232b5781632eb9771b1461230c5781632f2ff15d146121ab578163313ce5671461218f578163345ba24b146120dd57816335467d5d146120a857816336568abe14611fe15781633950935114611f8c5781633b7d094614611db95781634013124a14611be9578163408ab10f14611b7057816342966c6814611b525781634bd0be2314611b1d57816351e238e314611af757816353a47bb714611ac25781635450551714611a875781635518948814611a3e5781636140133b146119c557816367feda3e1461199057816370a082311461194d57816372b3cded14611918578163741d3c181461177557816379ba50971461164057816379cc6790146115d65781637bac07c7146115b75781637dbc1df01461153e57816387a140c3146115175781638da5cb5b146114e35781639010d07c1461141657816391d14854146113a657816392eefe9b146112db57816395d89b41146111a1578163a217fddf14611186578163a457c2d7146110ca578163a8a778ae14611004578163a9059cbb14610fd3578163ad9f6eec14610f3b578163afe92c1a14610e14578163b0fc69ce14610ddf578163b4db098014610dc2578163b4f56b2614610c89578163bdacb30314610bbe578163bef40ec814610abc578163c03f7be314610a9d578163c3355b8d14610a7e578163c3bc8910146109b3578163c8fae1a51461097e578163ca15c87314610956578163ca65be0b14610921578163cb73999f14610902578163d2d97b06146108e5578163d547741f146107de578163d914cd4b1461062e578163dc6663c7146105f9578163dd62ed3e146105a3578163df56e1681461047e578163e223e9a91461034d575063e7dced671461032757600080fd5b34610349578160031936011261034957602090610342613149565b9051908152f35b5080fd5b90503461047a578160031936011261047a577fb21874967eedf8b74dfe7dcc8d6097f77276866e02302f325c825e1502fe22289161044f61038c612934565b9161039561295c565b9373ffffffffffffffffffffffffffffffffffffffff809154163314801561046d575b8015610460575b6103c890613407565b8084169081151580610455575b6103de90613492565b7fffffffffffffffffffffffff0000000000000000000000000000000000000000918083600f541617600f558260075416176007558516906011541617601155519283928390602090939293604083019473ffffffffffffffffffffffffffffffffffffffff809216845216910152565b0390a180f35b5085811615156103d5565b50600d54811633146103bf565b5080600c541633146103b8565b8280fd5b838334610349578160031936011261034957610498613000565b916104a1613149565b916002546015546104b0613277565b91601754936016549573ffffffffffffffffffffffffffffffffffffffff6020600654809c8551809481937f8e15f473000000000000000000000000000000000000000000000000000000008352165afa91821561059857809261055f575b50506101009961053060ff610526610536946136ac565b9260a01c16612f26565b9061375f565b96815198895260208901528701526060860152608085015260a084015260c083015260e0820152f35b9091506020823d8211610590575b8161057a6020938361288d565b8101031261058d5750518961053061050f565b80fd5b3d915061056d565b8351903d90823e3d90fd5b505034610349578060031936011261034957806020926105c1612934565b6105c961295c565b73ffffffffffffffffffffffffffffffffffffffff91821683526001865283832091168252845220549051908152f35b50503461034957816003193601126103495760209073ffffffffffffffffffffffffffffffffffffffff600c54169051908152f35b83833461034957602060031936011261034957610649612934565b9073ffffffffffffffffffffffffffffffffffffffff809281865416331480156107d1575b80156107c4575b61067e90613407565b169161068b831515613492565b828452601460205260ff828520541661076757828452601460205281842060017fffffffffffffffffffffffffffffffffffffffffffffffffffffffffffffff008254161790556013546801000000000000000081101561073b579183917f73cca62ab1b520c9715bf4e6c71e3e518c754e7148f65102f43289a7df0efea69461071d8560016020970160135561297f565b909283549160031b90811b9283911b1691191617905551908152a180f35b6024856041887f4e487b7100000000000000000000000000000000000000000000000000000000835252fd5b60648560208451917f08c379a0000000000000000000000000000000000000000000000000000000008352820152601660248201527f4164647265737320616c726561647920657869737473000000000000000000006044820152fd5b50600d5482163314610675565b5081600c5416331461066e565b8391503461034957826003193601126103495780356107fb61295c565b91818452600360205260028585200154845261084f8585207fffffffffffffffffffffffffffffffffffffffff0000000000000000000000003360601b169060019160005201602052604060002054151590565b1561086257509061085f916134f7565b80f35b60849060208651917f08c379a0000000000000000000000000000000000000000000000000000000008352820152603060248201527f416363657373436f6e74726f6c3a2073656e646572206d75737420626520616e60448201527f2061646d696e20746f207265766f6b65000000000000000000000000000000006064820152fd5b505034610349578160031936011261034957602090610342613277565b5050346103495781600319360112610349576020906016549051908152f35b50503461034957816003193601126103495760209073ffffffffffffffffffffffffffffffffffffffff601054169051908152f35b90503461047a57602060031936011261047a5760209282913581526003845220549051908152f35b50503461034957816003193601126103495760209073ffffffffffffffffffffffffffffffffffffffff600e54169051908152f35b90503461047a57602060031936011261047a577f109c7f139fe60a7cef65008440d643868c0247c49148cbab1281e51ee6108c61916020916109f3612934565b73ffffffffffffffffffffffffffffffffffffffff8092541633148015610a71575b8015610a64575b610a2590613407565b1690610a32821515613492565b817fffffffffffffffffffffffff0000000000000000000000000000000000000000600e541617600e5551908152a180f35b50600d5482163314610a1c565b5081600c54163314610a15565b5050346103495781600319360112610349576020906017549051908152f35b5050346103495781600319360112610349576020906019549051908152f35b5050346103495781600319360112610349577fb25402418ad555013210365a422f9f1206b2dd00719998db06f8a1fbe014641b82526003602052610b388183207fffffffffffffffffffffffffffffffffffffffff0000000000000000000000003360601b169060019160005201602052604060002054151590565b156103495760207f209068f7bed5a02fb7695c3e3b61bb8324d1facb25523c6422bfd2105ec44d929160ff601c547fffffffffffffffffffffff00ffffffffffffffffffffffffffffffffffffffff74ff0000000000000000000000000000000000000000838360a01c161560a01b169116179182601c55519160a01c1615158152a180f35b90503461047a57602060031936011261047a577f7e7ee4175d63f671fac3401d5f401ed18d1f48a586e756f404d5696fc77a705891602091610bfe612934565b73ffffffffffffffffffffffffffffffffffffffff8092541633148015610c7c575b8015610c6f575b610c3090613407565b1690610c3d821515613492565b817fffffffffffffffffffffffff0000000000000000000000000000000000000000600c541617600c5551908152a180f35b50600d5482163314610c27565b5081600c54163314610c20565b9190503461047a578060031936011261047a57610ca4612934565b6024359133855273ffffffffffffffffffffffffffffffffffffffff60209260148452610cdb600160ff858a20541615151461337c565b16938415610d675750907f1c0ed02ca521f3f5782d6c218460a4d053afba959cf41837f405d16e201e31c591610d138460025461357c565b600255848652858252610d29848288205461357c565b8587528683528187205584867fddf252ad1be2c89b69c2b068fc378daa952ba7f163c4a11628f55a4df523b3ef848451888152a3519283523392a380f35b8260649251917f08c379a0000000000000000000000000000000000000000000000000000000008352820152601f60248201527f45524332303a206d696e7420746f20746865207a65726f2061646472657373006044820152fd5b505034610349578160031936011261034957602090610342613000565b50503461034957816003193601126103495760209073ffffffffffffffffffffffffffffffffffffffff601254169051908152f35b90503461047a578160031936011261047a577f92fe580f348e919356977135b3a173366b1ae5e3eb000d0db90031d13197fdab9161044f610e53612934565b91610e5c61295c565b9373ffffffffffffffffffffffffffffffffffffffff8091541633148015610f2e575b8015610f21575b610e8f90613407565b8084169081151580610f16575b610ea590613492565b7fffffffffffffffffffffffff000000000000000000000000000000000000000091808360105416176010558260085416176008558516906011541617601155519283928390602090939293604083019473ffffffffffffffffffffffffffffffffffffffff809216845216910152565b508581161515610e9c565b50600d5481163314610e86565b5080600c54163314610e7f565b9190503461047a57602060031936011261047a5781602091610faa7ff63dc397cac6cb5b9f2e168b247e8aeebbde7ef8179a06750f44329f12cdbf4b94359273ffffffffffffffffffffffffffffffffffffffff809154163314908115610fc4575b8115610fb6575b50613407565b8160185551908152a180f35b9050600d5416331438610fa4565b809150600c5416331490610f9d565b505034610349578060031936011261034957602090610ffd610ff3612934565b60243590336129fd565b5160018152f35b50503461034957806003193601126103495761101e612934565b60243591338452601460205261103e600160ff838720541615151461337c565b6110488383612c52565b61109d73ffffffffffffffffffffffffffffffffffffffff83169283865260016020528286203387526020526110958584882054611090611087612bf3565b82841115613631565b61336f565b903390612db1565b519182527ffead881ad94a58eeaebfdbce8eeb9906a0f42f0c896bab64a6ad08371608131a60203393a380f35b505034610349578060031936011261034957610ffd60209261117f6110ed612934565b9184602435913381526001885281812073ffffffffffffffffffffffffffffffffffffffff8616825288522054611090865161112881612826565b602581527f45524332303a2064656372656173656420616c6c6f77616e63652062656c6f77898201527f207a65726f0000000000000000000000000000000000000000000000000000008882015282841115613631565b9033612db1565b50503461034957816003193601126103495751908152602090f35b9190503461047a578260031936011261047a57805191836009549060019082821c9282811680156112d1575b60209586861082146112a55750848852908115611265575060011461120c575b61120886866111fe828b038361288d565b51918291826128ce565b0390f35b929550600983527f6e1540171b6c0c960b71a7020d9f60077f6af931a8bbf590da0223dacf75c7af5b8284106112525750505082611208946111fe9282010194386111ed565b8054868501880152928601928101611235565b7fffffffffffffffffffffffffffffffffffffffffffffffffffffffffffffff001687860152505050151560051b83010192506111fe82611208386111ed565b8360226024927f4e487b7100000000000000000000000000000000000000000000000000000000835252fd5b93607f16936111cd565b90503461047a57602060031936011261047a577f79f74fd5964b6943d8a1865abfb7f668c92fa3f32c0a2e3195da7d0946703ad79160209161131b612934565b73ffffffffffffffffffffffffffffffffffffffff8092541633148015611399575b801561138c575b61134d90613407565b169061135a821515613492565b817fffffffffffffffffffffffff0000000000000000000000000000000000000000600d541617600d5551908152a180f35b50600d5482163314611344565b5081600c5416331461133d565b90503461047a578160031936011261047a5761140d907fffffffffffffffffffffffffffffffffffffffff000000000000000000000000836020956113e961295c565b9335815260038752209160601b169060019160005201602052604060002054151590565b90519015158152f35b839150346103495782600319360112610349578260243592823581526003602052209082825411156114605760208461144f85856129e5565b90549060031b1c60601c9051908152f35b60849060208551917f08c379a0000000000000000000000000000000000000000000000000000000008352820152602260248201527f456e756d657261626c655365743a20696e646578206f7574206f6620626f756e60448201527f64730000000000000000000000000000000000000000000000000000000000006064820152fd5b82843461058d578060031936011261058d575073ffffffffffffffffffffffffffffffffffffffff60209254169051908152f35b50503461034957816003193601126103495760209060ff601c5460a01c1690519015158152f35b9190503461047a57602060031936011261047a57816020916115ab7f91cc643d187eb250905520d3dae0b1017edd16961d27ab9a4a61fea5e38f717d94359273ffffffffffffffffffffffffffffffffffffffff809154163314908115610fc4578115610fb65750613407565b8160165551908152a180f35b5050346103495781600319360112610349576020906018549051908152f35b50503461034957806003193601126103495761085f906115f4612934565b61163b611634602435809473ffffffffffffffffffffffffffffffffffffffff851688526001602052808820338952602052872054611090611087612bf3565b3383612db1565b612c52565b90503461047a578260031936011261047a576005549073ffffffffffffffffffffffffffffffffffffffff808316908133036116f2578254945190851673ffffffffffffffffffffffffffffffffffffffff9081168252821660208201527fb532073b38c83145e3e5135377a08bf9aab55bc0fd7c1179cd4fb995d2a5159c90604090a17fffffffffffffffffffffffff00000000000000000000000000000000000000008094161790551660055580f35b60848360208751917f08c379a0000000000000000000000000000000000000000000000000000000008352820152603560248201527f596f75206d757374206265206e6f6d696e61746564206265666f726520796f7560448201527f2063616e20616363657074206f776e65727368697000000000000000000000006064820152fd5b9190503461047a576020908160031936011261191457611793612934565b73ffffffffffffffffffffffffffffffffffffffff908185541633148015611907575b80156118fa575b6117c690613407565b16906117d3821515613492565b7fffffffffffffffffffffffff00000000000000000000000000000000000000009382856012541617601255826006549586161760065583825180927ff0141d8400000000000000000000000000000000000000000000000000000000825281865afa9081156118f05786916118b3575b5093827fffffffffffffffffffffff00000000000000000000000000000000000000000074ff00000000000000000000000000000000000000007f4e76cd2b10c38c98ffe935e9b3e851cf6d1078a0a6f487a0636af025eded51589760a01b169216171760065551908152a180f35b90508381813d83116118e9575b6118ca818361288d565b810103126118e557519360ff851685036118e5579382611844565b8580fd5b503d6118c0565b82513d88823e3d90fd5b50600d54821633146117bd565b5081600c541633146117b6565b8380fd5b50503461034957816003193601126103495760209073ffffffffffffffffffffffffffffffffffffffff600f54169051908152f35b505034610349576020600319360112610349578060209273ffffffffffffffffffffffffffffffffffffffff611981612934565b16815280845220549051908152f35b50503461034957816003193601126103495760209073ffffffffffffffffffffffffffffffffffffffff600d54169051908152f35b9190503461047a57602060031936011261047a5781602091611a327fe9febe6aec89ff2870eeab6d13333c59cbed275b1d9a95f527c853d99ddb7cf494359273ffffffffffffffffffffffffffffffffffffffff809154163314908115610fc4578115610fb65750613407565b81601b5551908152a180f35b5050346103495760206003193601126103495760ff8160209373ffffffffffffffffffffffffffffffffffffffff611a74612934565b1681526014855220541690519015158152f35b505034610349578160031936011261034957602090517fb25402418ad555013210365a422f9f1206b2dd00719998db06f8a1fbe014641b8152f35b50503461034957816003193601126103495760209073ffffffffffffffffffffffffffffffffffffffff600554169051908152f35b505034610349578160031936011261034957602090516a01a784379d99db420000008152f35b50503461034957816003193601126103495760209073ffffffffffffffffffffffffffffffffffffffff600b54169051908152f35b8390346103495760206003193601126103495761085f903533612c52565b9190503461047a57602060031936011261047a5781602091611bdd7f898a2c9df7982133daaa8cfd78b8c49c520cba03205eec6480552c19059f6e3a94359273ffffffffffffffffffffffffffffffffffffffff809154163314908115610fc4578115610fb65750613407565b81601a5551908152a180f35b90503461047a578260031936011261047a5760ff601c5460a01c16611d5d57611c10613000565b90611c1d601d544261336f565b60195411611cda57507fb1200af9b3ac4dec88c9d01e1fb7cc7fa1f0fe55bf4afac1f30cc4fc2b2d1dd291602091601a54601b54611c5b818361357c565b831115611c9c575050601554601854909150808211611c8b575050836015555b42601d556015549051908152a180f35b611c94916135ee565b601555611c7b565b611ca5916135ee565b1115611c7b57601554601854620f42409182611cc1838361357c565b10611cd0575050601555611c7b565b611c94925061357c565b60849060208451917f08c379a0000000000000000000000000000000000000000000000000000000008352820152603560248201527f4d757374207761697420666f7220746865207265667265736820636f6f6c646f60448201527f776e2073696e6365206c617374207265667265736800000000000000000000006064820152fd5b602060649251917f08c379a0000000000000000000000000000000000000000000000000000000008352820152602060248201527f436f6c6c61746572616c20526174696f20686173206265656e207061757365646044820152fd5b9190503461047a57602060031936011261047a57611dd5612934565b73ffffffffffffffffffffffffffffffffffffffff80918185541633148015611f7f575b8015611f72575b611e0990613407565b1692611e16841515613492565b83855260146020526001908160ff8588205416151503611f155750838552601460205282852080547fffffffffffffffffffffffffffffffffffffffffffffffffffffffffffffff0016905584815b611e98575b857f4106dfdaa577573db51c0ca93f766dbedfa0758faa2e7f5bcdb7c142be803c3f6020878751908152a180f35b601354811015611f10578285611ead8361297f565b929054600393841b1c1614611ecc5750611ec69061324a565b81611e65565b6020949250611efd7f4106dfdaa577573db51c0ca93f766dbedfa0758faa2e7f5bcdb7c142be803c3f96949261297f565b81939154921b1b19169055918193611e6a565b611e6a565b60649060208551917f08c379a0000000000000000000000000000000000000000000000000000000008352820152601360248201527f41646472657373206e6f6e6578697374616e74000000000000000000000000006044820152fd5b50600d5482163314611e00565b5081600c54163314611df9565b505034610349578060031936011261034957610ffd60209261117f611faf612934565b913381526001865284812073ffffffffffffffffffffffffffffffffffffffff8416825286528460243591205461357c565b83915034610349578260031936011261034957611ffc61295c565b903373ffffffffffffffffffffffffffffffffffffffff831603612025579061085f91356134f7565b60849060208551917f08c379a0000000000000000000000000000000000000000000000000000000008352820152602f60248201527f416363657373436f6e74726f6c3a2063616e206f6e6c792072656e6f756e636560448201527f20726f6c657320666f722073656c6600000000000000000000000000000000006064820152fd5b50503461034957816003193601126103495760209073ffffffffffffffffffffffffffffffffffffffff601c54169051908152f35b82843461058d578060031936011261058d57600654926020835180927f8e15f4730000000000000000000000000000000000000000000000000000000082528173ffffffffffffffffffffffffffffffffffffffff88165afa918215610598578092612159575b6020846103428761053060ff610526896136ac565b9091506020823d8211612187575b816121746020938361288d565b8101031261058d57505182610530612144565b3d9150612167565b5050346103495781600319360112610349576020905160128152f35b90503461047a578160031936011261047a578035906121c861295c565b9282855260036020526002818620015485528085209161221f7fffffffffffffffffffffffffffffffffffffffff00000000000000000000000093843360601b169060019160005201602052604060002054151590565b1561228a57508285526003602052842061223f91606085901b16906137aa565b612247578280f35b73ffffffffffffffffffffffffffffffffffffffff339216907f2f8788117e7eff1d82e926ec794901d17c78024a50270940304540a733656f0d8480a438808280f35b602060849251917f08c379a0000000000000000000000000000000000000000000000000000000008352820152602f60248201527f416363657373436f6e74726f6c3a2073656e646572206d75737420626520616e60448201527f2061646d696e20746f206772616e7400000000000000000000000000000000006064820152fd5b5050346103495781600319360112610349576020906015549051908152f35b505034610349578160031936011261034957602090601a549051908152f35b505034610349578160031936011261034957602090601b549051908152f35b90503461047a57602060031936011261047a5781602093600292358152600385522001549051908152f35b50503461034957816003193601126103495760209073ffffffffffffffffffffffffffffffffffffffff601154169051908152f35b50503461034957606060031936011261034957610ffd6020926110956123ed612934565b91846123f761295c565b916124066044358094876129fd565b73ffffffffffffffffffffffffffffffffffffffff851681526001885281812033825288522054611090865161243b81612826565b602881527f45524332303a207472616e7366657220616d6f756e7420657863656564732061898201527f6c6c6f77616e63650000000000000000000000000000000000000000000000008882015282841115613631565b9190503461047a57602060031936011261047a57816020916124ff7f07aefbcc0d8cdf34e241279c78d93d1df9540b5a60d320437958df12ef59e46394359273ffffffffffffffffffffffffffffffffffffffff809154163314908115610fc4578115610fb65750613407565b8160175551908152a180f35b505034610349578160031936011261034957602090601d549051908152f35b9190503461047a57602060031936011261047a57816020916125977fc7443059c2ed485e2c9efe4e766bef9432a6f0ed6695741ab4afdffab3b9215794359273ffffffffffffffffffffffffffffffffffffffff809154163314908115610fc4578115610fb65750613407565b8160195551908152a180f35b5050346103495781600319360112610349576020906002549051908152f35b83915034610349576020600319360112610349576125de612934565b73ffffffffffffffffffffffffffffffffffffffff918281541633036126595750837f906a1c6bd7e3091ea86693dd029a831c19049ce77f1dce2ce0bab1cacbabce22926020921690817fffffffffffffffffffffffff0000000000000000000000000000000000000000600554161760055551908152a180f35b60849060208651917f08c379a0000000000000000000000000000000000000000000000000000000008352820152602f60248201527f4f6e6c792074686520636f6e7472616374206f776e6572206d6179207065726660448201527f6f726d207468697320616374696f6e00000000000000000000000000000000006064820152fd5b90503461047a57602060031936011261047a573560135481101561047a5773ffffffffffffffffffffffffffffffffffffffff906013602094527f66de8ffda797e3de9c05e8fc57b3bf0ec28a930d40b0d285d93c06501cf6a0900154169051908152f35b505034610349578060031936011261034957602090610ffd612761612934565b6024359033612db1565b92915034611914578360031936011261191457600a54600181811c918690828116801561281c575b60209586861082146112a5575084885290811561126557506001146127c35761120886866111fe828b038361288d565b929550600a83527fc65a7bb8d6351c1cf70c95a316cc6a92839c986682d98bc35f958f4883f9d2a85b8284106128095750505082611208946111fe9282010194386111ed565b80548685018801529286019281016127ec565b93607f1693612793565b6060810190811067ffffffffffffffff82111761284257604052565b7f4e487b7100000000000000000000000000000000000000000000000000000000600052604160045260246000fd5b6040810190811067ffffffffffffffff82111761284257604052565b90601f7fffffffffffffffffffffffffffffffffffffffffffffffffffffffffffffffe0910116810190811067ffffffffffffffff82111761284257604052565b60208082528251818301819052939260005b858110612920575050507fffffffffffffffffffffffffffffffffffffffffffffffffffffffffffffffe0601f8460006040809697860101520116010190565b8181018301518482016040015282016128e0565b6004359073ffffffffffffffffffffffffffffffffffffffff8216820361295757565b600080fd5b6024359073ffffffffffffffffffffffffffffffffffffffff8216820361295757565b6013548110156129b65760136000527f66de8ffda797e3de9c05e8fc57b3bf0ec28a930d40b0d285d93c06501cf6a0900190600090565b7f4e487b7100000000000000000000000000000000000000000000000000000000600052603260045260246000fd5b80548210156129b65760005260206000200190600090565b73ffffffffffffffffffffffffffffffffffffffff809116918215612b6f5716918215612aeb5760207fddf252ad1be2c89b69c2b068fc378daa952ba7f163c4a11628f55a4df523b3ef916000848152808352604090612ac083838320546110908551612a6981612826565b602681527f45524332303a207472616e7366657220616d6f756e7420657863656564732062898201527f616c616e636500000000000000000000000000000000000000000000000000008782015282841115613631565b8682528185528282205586815281612adb848284205461357c565b91888152808652205551908152a3565b60846040517f08c379a000000000000000000000000000000000000000000000000000000000815260206004820152602360248201527f45524332303a207472616e7366657220746f20746865207a65726f206164647260448201527f65737300000000000000000000000000000000000000000000000000000000006064820152fd5b60846040517f08c379a000000000000000000000000000000000000000000000000000000000815260206004820152602560248201527f45524332303a207472616e736665722066726f6d20746865207a65726f20616460448201527f64726573730000000000000000000000000000000000000000000000000000006064820152fd5b60405190612c0082612826565b602482527f616e6365000000000000000000000000000000000000000000000000000000006040837f45524332303a206275726e20616d6f756e74206578636565647320616c6c6f7760208201520152565b73ffffffffffffffffffffffffffffffffffffffff168015612d2d577fddf252ad1be2c89b69c2b068fc378daa952ba7f163c4a11628f55a4df523b3ef6020600093838552848252612d0a816040872054611090604051612cb281612826565b602281527f45524332303a206275726e20616d6f756e7420657863656564732062616c616e878201527f6365000000000000000000000000000000000000000000000000000000000000604082015282841115613631565b8486528583526040862055612d21816002546135ee565b600255604051908152a3565b60846040517f08c379a000000000000000000000000000000000000000000000000000000000815260206004820152602160248201527f45524332303a206275726e2066726f6d20746865207a65726f2061646472657360448201527f73000000000000000000000000000000000000000000000000000000000000006064820152fd5b73ffffffffffffffffffffffffffffffffffffffff809116918215612ea35716918215612e1f5760207f8c5be1e5ebec7d5bd14f71427d1e84f3dd0314c0f7b2291e5b200ac8c7c3b925918360005260018252604060002085600052825280604060002055604051908152a3565b60846040517f08c379a000000000000000000000000000000000000000000000000000000000815260206004820152602260248201527f45524332303a20617070726f766520746f20746865207a65726f20616464726560448201527f73730000000000000000000000000000000000000000000000000000000000006064820152fd5b60846040517f08c379a0000000000000000000000000000000000000000000000000000000008152602060048201526024808201527f45524332303a20617070726f76652066726f6d20746865207a65726f2061646460448201527f72657373000000000000000000000000000000000000000000000000000000006064820152fd5b8015612ffa57600190602081108216604e8210831617612ff2578190600a925b808211612fab575050817fffffffffffffffffffffffffffffffffffffffffffffffffffffffffffffffff048111612f7c570290565b7f4e487b7100000000000000000000000000000000000000000000000000000000600052601160045260246000fd5b9092807fffffffffffffffffffffffffffffffffffffffffffffffffffffffffffffffff048111612f7c57818416612fe9575b800292811c90612f46565b80920291612fde565b9050600a0a90565b50600190565b6006546040517f8e15f47300000000000000000000000000000000000000000000000000000000815273ffffffffffffffffffffffffffffffffffffffff9160209182816004818786165afa90811561310e5760009161311a575b509061053060ff61052661306e946136ac565b9181816007541691601154166044604051809481937f3ddac9530000000000000000000000000000000000000000000000000000000083526004830152620f424060248301525afa91821561310e576000926130db575b50506130d36130d8926136ac565b61375f565b90565b81819392933d8311613107575b6130f2818361288d565b8101031261058d5750516130d36130d86130c5565b503d6130e8565b6040513d6000823e3d90fd5b908382813d8311613142575b613130818361288d565b8101031261058d57505161053061305b565b503d613126565b6006546040517f8e15f47300000000000000000000000000000000000000000000000000000000815273ffffffffffffffffffffffffffffffffffffffff9160209182816004818786165afa90811561310e5760009161321b575b509061053060ff6105266131b7946136ac565b9181816008541691601154166044604051809481937f3ddac9530000000000000000000000000000000000000000000000000000000083526004830152620f424060248301525afa91821561310e576000926130db5750506130d36130d8926136ac565b908382813d8311613243575b613231818361288d565b8101031261058d5750516105306131a4565b503d613227565b7fffffffffffffffffffffffffffffffffffffffffffffffffffffffffffffffff8114612f7c5760010190565b600080601354905b81811061328b57505090565b6132948161297f565b73ffffffffffffffffffffffffffffffffffffffff809254600392831b1c166132c8575b50506132c39061324a565b61327f565b6132d383959361297f565b9054911b1c16604090815180917f17284c9400000000000000000000000000000000000000000000000000000000825281600460209384935afa9283156133655750600092613334575b505061332c906132c39261357c565b9290386132b8565b81819392933d831161335e575b61334b818361288d565b8101031261058d5750518161332c61331d565b503d613341565b513d6000823e3d90fd5b91908203918211612f7c57565b1561338357565b60846040517f08c379a000000000000000000000000000000000000000000000000000000000815260206004820152602660248201527f4f6e6c79206672617820706f6f6c732063616e2063616c6c207468697320667560448201527f6e6374696f6e00000000000000000000000000000000000000000000000000006064820152fd5b1561340e57565b60846040517f08c379a000000000000000000000000000000000000000000000000000000000815260206004820152603560248201527f4e6f7420746865206f776e65722c20636f6e74726f6c6c65722c206f7220746860448201527f6520676f7665726e616e63652074696d656c6f636b00000000000000000000006064820152fd5b1561349957565b60646040517f08c379a000000000000000000000000000000000000000000000000000000000815260206004820152601560248201527f5a65726f206164647265737320646574656374656400000000000000000000006044820152fd5b80600052600360205261353460406000207fffffffffffffffffffffffffffffffffffffffff0000000000000000000000008460601b169061383d565b61353c575050565b73ffffffffffffffffffffffffffffffffffffffff339216907ff6391f5c32d9c69d2a47ea670b442974b53935d1edc7fd64eb21e047a839171b600080a4565b90810190818111612f7c5781106135905790565b60646040517f08c379a000000000000000000000000000000000000000000000000000000000815260206004820152601b60248201527f536166654d6174683a206164646974696f6e206f766572666c6f7700000000006044820152fd5b906130d89161109060405161360281612871565b601e81527f536166654d6174683a207375627472616374696f6e206f766572666c6f7700006020820152828411155b156136395750565b61366f906040519182917f08c379a0000000000000000000000000000000000000000000000000000000008352600483016128ce565b0390fd5b811561367d570490565b7f4e487b7100000000000000000000000000000000000000000000000000000000600052601260045260246000fd5b801561375957620f4240808202918083048203612f7c576136cd9083613673565b036136d55790565b60846040517f08c379a000000000000000000000000000000000000000000000000000000000815260206004820152602160248201527f536166654d6174683a206d756c7469706c69636174696f6e206f766572666c6f60448201527f77000000000000000000000000000000000000000000000000000000000000006064820152fd5b50600090565b906130d8916137a560405161377381612871565b601a81527f536166654d6174683a206469766973696f6e206279207a65726f0000000000006020820152831515613631565b613673565b60008281526001820160205260409020546138365780549068010000000000000000821015612842578261381f6137e88460018096018555846129e5565b819391549060031b7fffffffffffffffffffffffffffffffffffffffffffffffffffffffffffffffff811b9283911b169119161790565b905580549260005201602052604060002055600190565b5050600090565b9060018201906000928184528260205260408420549081151560001461397c577fffffffffffffffffffffffffffffffffffffffffffffffffffffffffffffffff9182810181811161394f57825484810190811161392257906138b66138a66137e893866129e5565b90549060031b1c928392866129e5565b90558652846020526040862055805480156138f5578201916138d883836129e5565b909182549160031b1b191690555582526020526040812055600190565b6024867f4e487b710000000000000000000000000000000000000000000000000000000081526031600452fd5b6024887f4e487b710000000000000000000000000000000000000000000000000000000081526011600452fd5b6024877f4e487b710000000000000000000000000000000000000000000000000000000081526011600452fd5b505050509056fea2646970667358221220b200e23317a7cd5d3643dd990e50b9767e589faefac1960c7a804da52b340f9364736f6c634300081100332f8788117e7eff1d82e926ec794901d17c78024a50270940304540a733656f0d",
    "linkReferences": {}
  },
  "methodIdentifiers": {
    "COLLATERAL_RATIO_PAUSER()": "54505517",
    "DEFAULT_ADMIN_ADDRESS()": "35467d5d",
    "DEFAULT_ADMIN_ROLE()": "a217fddf",
    "acceptOwnership()": "79ba5097",
    "addPool(address)": "d914cd4b",
    "allowance(address,address)": "dd62ed3e",
    "approve(address,uint256)": "095ea7b3",
    "balanceOf(address)": "70a08231",
    "burn(uint256)": "42966c68",
    "burnFrom(address,uint256)": "79cc6790",
    "collateral_ratio_paused()": "87a140c3",
    "controller_address()": "67feda3e",
    "creator_address()": "4bd0be23",
    "decimals()": "313ce567",
    "decreaseAllowance(address,uint256)": "a457c2d7",
    "eth_usd_consumer_address()": "b0fc69ce",
    "eth_usd_price()": "345ba24b",
    "frax_eth_oracle_address()": "72b3cded",
    "frax_info()": "df56e168",
    "frax_pools(address)": "55189488",
    "frax_pools_array(uint256)": "0f9d2001",
    "frax_price()": "b4db0980",
    "frax_step()": "7bac07c7",
    "fxs_address()": "c8fae1a5",
    "fxs_eth_oracle_address()": "ca65be0b",
    "fxs_price()": "e7dced67",
    "genesis_supply()": "51e238e3",
    "getRoleAdmin(bytes32)": "248a9ca3",
    "getRoleMember(bytes32,uint256)": "9010d07c",
    "getRoleMemberCount(bytes32)": "ca15c873",
    "globalCollateralValue()": "d2d97b06",
    "global_collateral_ratio()": "2eb9771b",
    "grantRole(bytes32,address)": "2f2ff15d",
    "hasRole(bytes32,address)": "91d14854",
    "increaseAllowance(address,uint256)": "39509351",
    "last_call_time()": "2258750a",
    "minting_fee()": "c3355b8d",
    "name()": "06fdde03",
    "nominateNewOwner(address)": "1627540c",
    "nominatedOwner()": "53a47bb7",
    "owner()": "8da5cb5b",
    "pool_burn_from(address,uint256)": "a8a778ae",
    "pool_mint(address,uint256)": "b4f56b26",
    "price_band()": "2853fb10",
    "price_target()": "2cb4f63e",
    "redemption_fee()": "cb73999f",
    "refreshCollateralRatio()": "4013124a",
    "refresh_cooldown()": "c03f7be3",
    "removePool(address)": "3b7d0946",
    "renounceRole(bytes32,address)": "36568abe",
    "revokeRole(bytes32,address)": "d547741f",
    "setController(address)": "92eefe9b",
    "setETHUSDOracle(address)": "741d3c18",
    "setFRAXEthOracle(address,address)": "e223e9a9",
    "setFXSAddress(address)": "c3bc8910",
    "setFXSEthOracle(address,address)": "afe92c1a",
    "setFraxStep(uint256)": "ad9f6eec",
    "setMintingFee(uint256)": "238a4709",
    "setPriceBand(uint256)": "6140133b",
    "setPriceTarget(uint256)": "408ab10f",
    "setRedemptionFee(uint256)": "7dbc1df0",
    "setRefreshCooldown(uint256)": "1c5df1e5",
    "setTimelock(address)": "bdacb303",
    "symbol()": "95d89b41",
    "timelock_address()": "dc6663c7",
    "toggleCollateralRatio()": "bef40ec8",
    "totalSupply()": "18160ddd",
    "transfer(address,uint256)": "a9059cbb",
    "transferFrom(address,address,uint256)": "23b872dd",
    "weth_address()": "246126bd"
  },
  "id": 20
}