{
  "abi": [
    {
      "inputs": [
        {
          "internalType": "string",
          "name": "_name",
          "type": "string"
        },
        {
          "internalType": "string",
          "name": "_symbol",
          "type": "string"
        },
        {
          "internalType": "address",
          "name": "_creator_address",
          "type": "address"
        },
        {
          "internalType": "address",
          "name": "_timelock_address",
          "type": "address"
        }
      ],
      "stateMutability": "nonpayable",
      "type": "constructor"
    },
    {
      "anonymous": false,
      "inputs": [
        {
          "indexed": true,
          "internalType": "address",
          "name": "owner",
          "type": "address"
        },
        {
          "indexed": true,
          "internalType": "address",
          "name": "spender",
          "type": "address"
        },
        {
          "indexed": false,
          "internalType": "uint256",
          "name": "value",
          "type": "uint256"
        }
      ],
      "name": "Approval",
      "type": "event"
    },
    {
      "anonymous": false,
      "inputs": [
        {
          "indexed": false,
          "internalType": "uint256",
          "name": "global_collateral_ratio",
          "type": "uint256"
        }
      ],
      "name": "CollateralRatioRefreshed",
      "type": "event"
    },
    {
      "anonymous": false,
      "inputs": [
        {
          "indexed": false,
          "internalType": "bool",
          "name": "collateral_ratio_paused",
          "type": "bool"
        }
      ],
      "name": "CollateralRatioToggled",
      "type": "event"
    },
    {
      "anonymous": false,
      "inputs": [
        {
          "indexed": false,
          "internalType": "address",
          "name": "controller_address",
          "type": "address"
        }
      ],
      "name": "ControllerSet",
      "type": "event"
    },
    {
      "anonymous": false,
      "inputs": [
        {
          "indexed": false,
          "internalType": "address",
          "name": "eth_usd_consumer_address",
          "type": "address"
        }
      ],
      "name": "ETHUSDOracleSet",
      "type": "event"
    },
    {
      "anonymous": false,
      "inputs": [
        {
          "indexed": true,
          "internalType": "address",
          "name": "from",
          "type": "address"
        },
        {
          "indexed": true,
          "internalType": "address",
          "name": "to",
          "type": "address"
        },
        {
          "indexed": false,
          "internalType": "uint256",
          "name": "amount",
          "type": "uint256"
        }
      ],
      "name": "FRAXBurned",
      "type": "event"
    },
    {
      "anonymous": false,
      "inputs": [
        {
          "indexed": false,
          "internalType": "address",
          "name": "frax_oracle_addr",
          "type": "address"
        },
        {
          "indexed": false,
          "internalType": "address",
          "name": "weth_address",
          "type": "address"
        }
      ],
      "name": "FRAXETHOracleSet",
      "type": "event"
    },
    {
      "anonymous": false,
      "inputs": [
        {
          "indexed": true,
          "internalType": "address",
          "name": "from",
          "type": "address"
        },
        {
          "indexed": true,
          "internalType": "address",
          "name": "to",
          "type": "address"
        },
        {
          "indexed": false,
          "internalType": "uint256",
          "name": "amount",
          "type": "uint256"
        }
      ],
      "name": "FRAXMinted",
      "type": "event"
    },
    {
      "anonymous": false,
      "inputs": [
        {
          "indexed": false,
          "internalType": "address",
          "name": "_fxs_address",
          "type": "address"
        }
      ],
      "name": "FXSAddressSet",
      "type": "event"
    },
    {
      "anonymous": false,
      "inputs": [
        {
          "indexed": false,
          "internalType": "address",
          "name": "fxs_oracle_addr",
          "type": "address"
        },
        {
          "indexed": false,
          "internalType": "address",
          "name": "weth_address",
          "type": "address"
        }
      ],
      "name": "FXSEthOracleSet",
      "type": "event"
    },
    {
      "anonymous": false,
      "inputs": [
        {
          "indexed": false,
          "internalType": "uint256",
          "name": "new_step",
          "type": "uint256"
        }
      ],
      "name": "FraxStepSet",
      "type": "event"
    },
    {
      "anonymous": false,
      "inputs": [
        {
          "indexed": false,
          "internalType": "uint256",
          "name": "min_fee",
          "type": "uint256"
        }
      ],
      "name": "MintingFeeSet",
      "type": "event"
    },
    {
      "anonymous": false,
      "inputs": [
        {
          "indexed": false,
          "internalType": "address",
          "name": "oldOwner",
          "type": "address"
        },
        {
          "indexed": false,
          "internalType": "address",
          "name": "newOwner",
          "type": "address"
        }
      ],
      "name": "OwnerChanged",
      "type": "event"
    },
    {
      "anonymous": false,
      "inputs": [
        {
          "indexed": false,
          "internalType": "address",
          "name": "newOwner",
          "type": "address"
        }
      ],
      "name": "OwnerNominated",
      "type": "event"
    },
    {
      "anonymous": false,
      "inputs": [
        {
          "indexed": false,
          "internalType": "address",
          "name": "pool_address",
          "type": "address"
        }
      ],
      "name": "PoolAdded",
      "type": "event"
    },
    {
      "anonymous": false,
      "inputs": [
        {
          "indexed": false,
          "internalType": "address",
          "name": "pool_address",
          "type": "address"
        }
      ],
      "name": "PoolRemoved",
      "type": "event"
    },
    {
      "anonymous": false,
      "inputs": [
        {
          "indexed": false,
          "internalType": "uint256",
          "name": "price_band",
          "type": "uint256"
        }
      ],
      "name": "PriceBandSet",
      "type": "event"
    },
    {
      "anonymous": false,
      "inputs": [
        {
          "indexed": false,
          "internalType": "uint256",
          "name": "new_price_target",
          "type": "uint256"
        }
      ],
      "name": "PriceTargetSet",
      "type": "event"
    },
    {
      "anonymous": false,
      "inputs": [
        {
          "indexed": false,
          "internalType": "uint256",
          "name": "red_fee",
          "type": "uint256"
        }
      ],
      "name": "RedemptionFeeSet",
      "type": "event"
    },
    {
      "anonymous": false,
      "inputs": [
        {
          "indexed": false,
          "internalType": "uint256",
          "name": "new_cooldown",
          "type": "uint256"
        }
      ],
      "name": "RefreshCooldownSet",
      "type": "event"
    },
    {
      "anonymous": false,
      "inputs": [
        {
          "indexed": true,
          "internalType": "bytes32",
          "name": "role",
          "type": "bytes32"
        },
        {
          "indexed": true,
          "internalType": "bytes32",
          "name": "previousAdminRole",
          "type": "bytes32"
        },
        {
          "indexed": true,
          "internalType": "bytes32",
          "name": "newAdminRole",
          "type": "bytes32"
        }
      ],
      "name": "RoleAdminChanged",
      "type": "event"
    },
    {
      "anonymous": false,
      "inputs": [
        {
          "indexed": true,
          "internalType": "bytes32",
          "name": "role",
          "type": "bytes32"
        },
        {
          "indexed": true,
          "internalType": "address",
          "name": "account",
          "type": "address"
        },
        {
          "indexed": true,
          "internalType": "address",
          "name": "sender",
          "type": "address"
        }
      ],
      "name": "RoleGranted",
      "type": "event"
    },
    {
      "anonymous": false,
      "inputs": [
        {
          "indexed": true,
          "internalType": "bytes32",
          "name": "role",
          "type": "bytes32"
        },
        {
          "indexed": true,
          "internalType": "address",
          "name": "account",
          "type": "address"
        },
        {
          "indexed": true,
          "internalType": "address",
          "name": "sender",
          "type": "address"
        }
      ],
      "name": "RoleRevoked",
      "type": "event"
    },
    {
      "anonymous": false,
      "inputs": [
        {
          "indexed": false,
          "internalType": "address",
          "name": "new_timelock",
          "type": "address"
        }
      ],
      "name": "TimelockSet",
      "type": "event"
    },
    {
      "anonymous": false,
      "inputs": [
        {
          "indexed": true,
          "internalType": "address",
          "name": "from",
          "type": "address"
        },
        {
          "indexed": true,
          "internalType": "address",
          "name": "to",
          "type": "address"
        },
        {
          "indexed": false,
          "internalType": "uint256",
          "name": "value",
          "type": "uint256"
        }
      ],
      "name": "Transfer",
      "type": "event"
    },
    {
      "inputs": [],
      "name": "COLLATERAL_RATIO_PAUSER",
      "outputs": [
        {
          "internalType": "bytes32",
          "name": "",
          "type": "bytes32"
        }
      ],
      "stateMutability": "view",
      "type": "function"
    },
    {
      "inputs": [],
      "name": "DEFAULT_ADMIN_ADDRESS",
      "outputs": [
        {
          "internalType": "address",
          "name": "",
          "type": "address"
        }
      ],
      "stateMutability": "view",
      "type": "function"
    },
    {
      "inputs": [],
      "name": "DEFAULT_ADMIN_ROLE",
      "outputs": [
        {
          "internalType": "bytes32",
          "name": "",
          "type": "bytes32"
        }
      ],
      "stateMutability": "view",
      "type": "function"
    },
    {
      "inputs": [],
      "name": "acceptOwnership",
      "outputs": [],
      "stateMutability": "nonpayable",
      "type": "function"
    },
    {
      "inputs": [
        {
          "internalType": "address",
          "name": "pool_address",
          "type": "address"
        }
      ],
      "name": "addPool",
      "outputs": [],
      "stateMutability": "nonpayable",
      "type": "function"
    },
    {
      "inputs": [
        {
          "internalType": "address",
          "name": "owner",
          "type": "address"
        },
        {
          "internalType": "address",
          "name": "spender",
          "type": "address"
        }
      ],
      "name": "allowance",
      "outputs": [
        {
          "internalType": "uint256",
          "name": "",
          "type": "uint256"
        }
      ],
      "stateMutability": "view",
      "type": "function"
    },
    {
      "inputs": [
        {
          "internalType": "address",
          "name": "spender",
          "type": "address"
        },
        {
          "internalType": "uint256",
          "name": "amount",
          "type": "uint256"
        }
      ],
      "name": "approve",
      "outputs": [
        {
          "internalType": "bool",
          "name": "",
          "type": "bool"
        }
      ],
      "stateMutability": "nonpayable",
      "type": "function"
    },
    {
      "inputs": [
        {
          "internalType": "address",
          "name": "account",
          "type": "address"
        }
      ],
      "name": "balanceOf",
      "outputs": [
        {
          "internalType": "uint256",
          "name": "",
          "type": "uint256"
        }
      ],
      "stateMutability": "view",
      "type": "function"
    },
    {
      "inputs": [
        {
          "internalType": "uint256",
          "name": "amount",
          "type": "uint256"
        }
      ],
      "name": "burn",
      "outputs": [],
      "stateMutability": "nonpayable",
      "type": "function"
    },
    {
      "inputs": [
        {
          "internalType": "address",
          "name": "account",
          "type": "address"
        },
        {
          "internalType": "uint256",
          "name": "amount",
          "type": "uint256"
        }
      ],
      "name": "burnFrom",
      "outputs": [],
      "stateMutability": "nonpayable",
      "type": "function"
    },
    {
      "inputs": [],
      "name": "collateral_ratio_paused",
      "outputs": [
        {
          "internalType": "bool",
          "name": "",
          "type": "bool"
        }
      ],
      "stateMutability": "view",
      "type": "function"
    },
    {
      "inputs": [],
      "name": "controller_address",
      "outputs": [
        {
          "internalType": "address",
          "name": "",
          "type": "address"
        }
      ],
      "stateMutability": "view",
      "type": "function"
    },
    {
      "inputs": [],
      "name": "creator_address",
      "outputs": [
        {
          "internalType": "address",
          "name": "",
          "type": "address"
        }
      ],
      "stateMutability": "view",
      "type": "function"
    },
    {
      "inputs": [],
      "name": "decimals",
      "outputs": [
        {
          "internalType": "uint8",
          "name": "",
          "type": "uint8"
        }
      ],
      "stateMutability": "view",
      "type": "function"
    },
    {
      "inputs": [
        {
          "internalType": "address",
          "name": "spender",
          "type": "address"
        },
        {
          "internalType": "uint256",
          "name": "subtractedValue",
          "type": "uint256"
        }
      ],
      "name": "decreaseAllowance",
      "outputs": [
        {
          "internalType": "bool",
          "name": "",
          "type": "bool"
        }
      ],
      "stateMutability": "nonpayable",
      "type": "function"
    },
    {
      "inputs": [],
      "name": "eth_usd_consumer_address",
      "outputs": [
        {
          "internalType": "address",
          "name": "",
          "type": "address"
        }
      ],
      "stateMutability": "view",
      "type": "function"
    },
    {
      "inputs": [],
      "name": "eth_usd_price",
      "outputs": [
        {
          "internalType": "uint256",
          "name": "",
          "type": "uint256"
        }
      ],
      "stateMutability": "view",
      "type": "function"
    },
    {
      "inputs": [],
      "name": "frax_eth_oracle_address",
      "outputs": [
        {
          "internalType": "address",
          "name": "",
          "type": "address"
        }
      ],
      "stateMutability": "view",
      "type": "function"
    },
    {
      "inputs": [],
      "name": "frax_info",
      "outputs": [
        {
          "internalType": "uint256",
          "name": "",
          "type": "uint256"
        },
        {
          "internalType": "uint256",
          "name": "",
          "type": "uint256"
        },
        {
          "internalType": "uint256",
          "name": "",
          "type": "uint256"
        },
        {
          "internalType": "uint256",
          "name": "",
          "type": "uint256"
        },
        {
          "internalType": "uint256",
          "name": "",
          "type": "uint256"
        },
        {
          "internalType": "uint256",
          "name": "",
          "type": "uint256"
        },
        {
          "internalType": "uint256",
          "name": "",
          "type": "uint256"
        },
        {
          "internalType": "uint256",
          "name": "",
          "type": "uint256"
        }
      ],
      "stateMutability": "view",
      "type": "function"
    },
    {
      "inputs": [
        {
          "internalType": "address",
          "name": "",
          "type": "address"
        }
      ],
      "name": "frax_pools",
      "outputs": [
        {
          "internalType": "bool",
          "name": "",
          "type": "bool"
        }
      ],
      "stateMutability": "view",
      "type": "function"
    },
    {
      "inputs": [
        {
          "internalType": "uint256",
          "name": "",
          "type": "uint256"
        }
      ],
      "name": "frax_pools_array",
      "outputs": [
        {
          "internalType": "address",
          "name": "",
          "type": "address"
        }
      ],
      "stateMutability": "view",
      "type": "function"
    },
    {
      "inputs": [],
      "name": "frax_price",
      "outputs": [
        {
          "internalType": "uint256",
          "name": "",
          "type": "uint256"
        }
      ],
      "stateMutability": "view",
      "type": "function"
    },
    {
      "inputs": [],
      "name": "frax_step",
      "outputs": [
        {
          "internalType": "uint256",
          "name": "",
          "type": "uint256"
        }
      ],
      "stateMutability": "view",
      "type": "function"
    },
    {
      "inputs": [],
      "name": "fxs_address",
      "outputs": [
        {
          "internalType": "address",
          "name": "",
          "type": "address"
        }
      ],
      "stateMutability": "view",
      "type": "function"
    },
    {
      "inputs": [],
      "name": "fxs_eth_oracle_address",
      "outputs": [
        {
          "internalType": "address",
          "name": "",
          "type": "address"
        }
      ],
      "stateMutability": "view",
      "type": "function"
    },
    {
      "inputs": [],
      "name": "fxs_price",
      "outputs": [
        {
          "internalType": "uint256",
          "name": "",
          "type": "uint256"
        }
      ],
      "stateMutability": "view",
      "type": "function"
    },
    {
      "inputs": [],
      "name": "genesis_supply",
      "outputs": [
        {
          "internalType": "uint256",
          "name": "",
          "type": "uint256"
        }
      ],
      "stateMutability": "view",
      "type": "function"
    },
    {
      "inputs": [
        {
          "internalType": "bytes32",
          "name": "role",
          "type": "bytes32"
        }
      ],
      "name": "getRoleAdmin",
      "outputs": [
        {
          "internalType": "bytes32",
          "name": "",
          "type": "bytes32"
        }
      ],
      "stateMutability": "view",
      "type": "function"
    },
    {
      "inputs": [
        {
          "internalType": "bytes32",
          "name": "role",
          "type": "bytes32"
        },
        {
          "internalType": "uint256",
          "name": "index",
          "type": "uint256"
        }
      ],
      "name": "getRoleMember",
      "outputs": [
        {
          "internalType": "address",
          "name": "",
          "type": "address"
        }
      ],
      "stateMutability": "view",
      "type": "function"
    },
    {
      "inputs": [
        {
          "internalType": "bytes32",
          "name": "role",
          "type": "bytes32"
        }
      ],
      "name": "getRoleMemberCount",
      "outputs": [
        {
          "internalType": "uint256",
          "name": "",
          "type": "uint256"
        }
      ],
      "stateMutability": "view",
      "type": "function"
    },
    {
      "inputs": [],
      "name": "globalCollateralValue",
      "outputs": [
        {
          "internalType": "uint256",
          "name": "",
          "type": "uint256"
        }
      ],
      "stateMutability": "view",
      "type": "function"
    },
    {
      "inputs": [],
      "name": "global_collateral_ratio",
      "outputs": [
        {
          "internalType": "uint256",
          "name": "",
          "type": "uint256"
        }
      ],
      "stateMutability": "view",
      "type": "function"
    },
    {
      "inputs": [
        {
          "internalType": "bytes32",
          "name": "role",
          "type": "bytes32"
        },
        {
          "internalType": "address",
          "name": "account",
          "type": "address"
        }
      ],
      "name": "grantRole",
      "outputs": [],
      "stateMutability": "nonpayable",
      "type": "function"
    },
    {
      "inputs": [
        {
          "internalType": "bytes32",
          "name": "role",
          "type": "bytes32"
        },
        {
          "internalType": "address",
          "name": "account",
          "type": "address"
        }
      ],
      "name": "hasRole",
      "outputs": [
        {
          "internalType": "bool",
          "name": "",
          "type": "bool"
        }
      ],
      "stateMutability": "view",
      "type": "function"
    },
    {
      "inputs": [
        {
          "internalType": "address",
          "name": "spender",
          "type": "address"
        },
        {
          "internalType": "uint256",
          "name": "addedValue",
          "type": "uint256"
        }
      ],
      "name": "increaseAllowance",
      "outputs": [
        {
          "internalType": "bool",
          "name": "",
          "type": "bool"
        }
      ],
      "stateMutability": "nonpayable",
      "type": "function"
    },
    {
      "inputs": [],
      "name": "last_call_time",
      "outputs": [
        {
          "internalType": "uint256",
          "name": "",
          "type": "uint256"
        }
      ],
      "stateMutability": "view",
      "type": "function"
    },
    {
      "inputs": [],
      "name": "minting_fee",
      "outputs": [
        {
          "internalType": "uint256",
          "name": "",
          "type": "uint256"
        }
      ],
      "stateMutability": "view",
      "type": "function"
    },
    {
      "inputs": [],
      "name": "name",
      "outputs": [
        {
          "internalType": "string",
          "name": "",
          "type": "string"
        }
      ],
      "stateMutability": "view",
      "type": "function"
    },
    {
      "inputs": [
        {
          "internalType": "address",
          "name": "_owner",
          "type": "address"
        }
      ],
      "name": "nominateNewOwner",
      "outputs": [],
      "stateMutability": "nonpayable",
      "type": "function"
    },
    {
      "inputs": [],
      "name": "nominatedOwner",
      "outputs": [
        {
          "internalType": "address",
          "name": "",
          "type": "address"
        }
      ],
      "stateMutability": "view",
      "type": "function"
    },
    {
      "inputs": [],
      "name": "owner",
      "outputs": [
        {
          "internalType": "address",
          "name": "",
          "type": "address"
        }
      ],
      "stateMutability": "view",
      "type": "function"
    },
    {
      "inputs": [
        {
          "internalType": "address",
          "name": "b_address",
          "type": "address"
        },
        {
          "internalType": "uint256",
          "name": "b_amount",
          "type": "uint256"
        }
      ],
      "name": "pool_burn_from",
      "outputs": [],
      "stateMutability": "nonpayable",
      "type": "function"
    },
    {
      "inputs": [
        {
          "internalType": "address",
          "name": "m_address",
          "type": "address"
        },
        {
          "internalType": "uint256",
          "name": "m_amount",
          "type": "uint256"
        }
      ],
      "name": "pool_mint",
      "outputs": [],
      "stateMutability": "nonpayable",
      "type": "function"
    },
    {
      "inputs": [],
      "name": "price_band",
      "outputs": [
        {
          "internalType": "uint256",
          "name": "",
          "type": "uint256"
        }
      ],
      "stateMutability": "view",
      "type": "function"
    },
    {
      "inputs": [],
      "name": "price_target",
      "outputs": [
        {
          "internalType": "uint256",
          "name": "",
          "type": "uint256"
        }
      ],
      "stateMutability": "view",
      "type": "function"
    },
    {
      "inputs": [],
      "name": "redemption_fee",
      "outputs": [
        {
          "internalType": "uint256",
          "name": "",
          "type": "uint256"
        }
      ],
      "stateMutability": "view",
      "type": "function"
    },
    {
      "inputs": [],
      "name": "refreshCollateralRatio",
      "outputs": [],
      "stateMutability": "nonpayable",
      "type": "function"
    },
    {
      "inputs": [],
      "name": "refresh_cooldown",
      "outputs": [
        {
          "internalType": "uint256",
          "name": "",
          "type": "uint256"
        }
      ],
      "stateMutability": "view",
      "type": "function"
    },
    {
      "inputs": [
        {
          "internalType": "address",
          "name": "pool_address",
          "type": "address"
        }
      ],
      "name": "removePool",
      "outputs": [],
      "stateMutability": "nonpayable",
      "type": "function"
    },
    {
      "inputs": [
        {
          "internalType": "bytes32",
          "name": "role",
          "type": "bytes32"
        },
        {
          "internalType": "address",
          "name": "account",
          "type": "address"
        }
      ],
      "name": "renounceRole",
      "outputs": [],
      "stateMutability": "nonpayable",
      "type": "function"
    },
    {
      "inputs": [
        {
          "internalType": "bytes32",
          "name": "role",
          "type": "bytes32"
        },
        {
          "internalType": "address",
          "name": "account",
          "type": "address"
        }
      ],
      "name": "revokeRole",
      "outputs": [],
      "stateMutability": "nonpayable",
      "type": "function"
    },
    {
      "inputs": [
        {
          "internalType": "address",
          "name": "_controller_address",
          "type": "address"
        }
      ],
      "name": "setController",
      "outputs": [],
      "stateMutability": "nonpayable",
      "type": "function"
    },
    {
      "inputs": [
        {
          "internalType": "address",
          "name": "_eth_usd_consumer_address",
          "type": "address"
        }
      ],
      "name": "setETHUSDOracle",
      "outputs": [],
      "stateMutability": "nonpayable",
      "type": "function"
    },
    {
      "inputs": [
        {
          "internalType": "address",
          "name": "_frax_oracle_addr",
          "type": "address"
        },
        {
          "internalType": "address",
          "name": "_weth_address",
          "type": "address"
        }
      ],
      "name": "setFRAXEthOracle",
      "outputs": [],
      "stateMutability": "nonpayable",
      "type": "function"
    },
    {
      "inputs": [
        {
          "internalType": "address",
          "name": "_fxs_address",
          "type": "address"
        }
      ],
      "name": "setFXSAddress",
      "outputs": [],
      "stateMutability": "nonpayable",
      "type": "function"
    },
    {
      "inputs": [
        {
          "internalType": "address",
          "name": "_fxs_oracle_addr",
          "type": "address"
        },
        {
          "internalType": "address",
          "name": "_weth_address",
          "type": "address"
        }
      ],
      "name": "setFXSEthOracle",
      "outputs": [],
      "stateMutability": "nonpayable",
      "type": "function"
    },
    {
      "inputs": [
        {
          "internalType": "uint256",
          "name": "_new_step",
          "type": "uint256"
        }
      ],
      "name": "setFraxStep",
      "outputs": [],
      "stateMutability": "nonpayable",
      "type": "function"
    },
    {
      "inputs": [
        {
          "internalType": "uint256",
          "name": "min_fee",
          "type": "uint256"
        }
      ],
      "name": "setMintingFee",
      "outputs": [],
      "stateMutability": "nonpayable",
      "type": "function"
    },
    {
      "inputs": [
        {
          "internalType": "uint256",
          "name": "_price_band",
          "type": "uint256"
        }
      ],
      "name": "setPriceBand",
      "outputs": [],
      "stateMutability": "nonpayable",
      "type": "function"
    },
    {
      "inputs": [
        {
          "internalType": "uint256",
          "name": "_new_price_target",
          "type": "uint256"
        }
      ],
      "name": "setPriceTarget",
      "outputs": [],
      "stateMutability": "nonpayable",
      "type": "function"
    },
    {
      "inputs": [
        {
          "internalType": "uint256",
          "name": "red_fee",
          "type": "uint256"
        }
      ],
      "name": "setRedemptionFee",
      "outputs": [],
      "stateMutability": "nonpayable",
      "type": "function"
    },
    {
      "inputs": [
        {
          "internalType": "uint256",
          "name": "_new_cooldown",
          "type": "uint256"
        }
      ],
      "name": "setRefreshCooldown",
      "outputs": [],
      "stateMutability": "nonpayable",
      "type": "function"
    },
    {
      "inputs": [
        {
          "internalType": "address",
          "name": "new_timelock",
          "type": "address"
        }
      ],
      "name": "setTimelock",
      "outputs": [],
      "stateMutability": "nonpayable",
      "type": "function"
    },
    {
      "inputs": [],
      "name": "symbol",
      "outputs": [
        {
          "internalType": "string",
          "name": "",
          "type": "string"
        }
      ],
      "stateMutability": "view",
      "type": "function"
    },
    {
      "inputs": [],
      "name": "timelock_address",
      "outputs": [
        {
          "internalType": "address",
          "name": "",
          "type": "address"
        }
      ],
      "stateMutability": "view",
      "type": "function"
    },
    {
      "inputs": [],
      "name": "toggleCollateralRatio",
      "outputs": [],
      "stateMutability": "nonpayable",
      "type": "function"
    },
    {
      "inputs": [],
      "name": "totalSupply",
      "outputs": [
        {
          "internalType": "uint256",
          "name": "",
          "type": "uint256"
        }
      ],
      "stateMutability": "view",
      "type": "function"
    },
    {
      "inputs": [
        {
          "internalType": "address",
          "name": "recipient",
          "type": "address"
        },
        {
          "internalType": "uint256",
          "name": "amount",
          "type": "uint256"
        }
      ],
      "name": "transfer",
      "outputs": [
        {
          "internalType": "bool",
          "name": "",
          "type": "bool"
        }
      ],
      "stateMutability": "nonpayable",
      "type": "function"
    },
    {
      "inputs": [
        {
          "internalType": "address",
          "name": "sender",
          "type": "address"
        },
        {
          "internalType": "address",
          "name": "recipient",
          "type": "address"
        },
        {
          "internalType": "uint256",
          "name": "amount",
          "type": "uint256"
        }
      ],
      "name": "transferFrom",
      "outputs": [
        {
          "internalType": "bool",
          "name": "",
          "type": "bool"
        }
      ],
      "stateMutability": "nonpayable",
      "type": "function"
    },
    {
      "inputs": [],
      "name": "weth_address",
      "outputs": [
        {
          "internalType": "address",
          "name": "",
          "type": "address"
        }
      ],
      "stateMutability": "view",
      "type": "function"
    }
  ],
  "bytecode": {
    "object": "0x60806040523462000035575b62000023620000196200023f565b92919091620005ca565b60405161469362000d81823961469390f35b6200003e600080fd5b6200000b565b600080fd5b50634e487b7160e01b600052604160045260246000fd5b90601f01601f191681019081106001600160401b038211176200008257604052565b6200008c62000049565b604052565b90620000a8620000a060405190565b928362000060565b565b602090620000cb906001600160401b038111620000cf57601f01601f191690565b0190565b620000d962000049565b601f01601f191690565b60005b838110620000f75750506000910152565b8181015183820152602001620000e6565b929190620000a891620001256200011f83620000aa565b62000091565b9482865260208601918382011115620000e35762000141600080fd5b620000e3565b90620001669181601f8201121562000169575b60208151910162000108565b90565b62000172600080fd5b6200015a565b6001600160a01b031690565b6001600160a01b038116036200004457565b90505190620000a88262000184565b60808183031262000230575b8051620001d29083906001600160401b03811162000221575b830162000147565b9262000166620001f884602085015160018060401b03811162000212575b850162000147565b9362000208816040860162000196565b9360600162000196565b6200021b600080fd5b620001f0565b6200022a600080fd5b620001ca565b62000239600080fd5b620001b1565b620002626200541480380380620002568162000091565b928339810190620001a5565b90919293565b9060ff60a01b9060a01b5b9181191691161790565b9062000290620001666200029892151590565b825462000268565b9055565b6200017862000166620001669290565b62000166906200029c565b15620002bf57565b60405162461bcd60e51b815260206004820152601560248201527f5a65726f206164647265737320646574656374656400000000000000000000006044820152606490fd5b50634e487b7160e01b600052602260045260246000fd5b906001600283049216801562000342575b60208310146200033857565b620000a862000304565b91607f16916200032c565b9160001960089290920291821b911b62000273565b6200016662000166620001669290565b91906200038762000166620002989362000362565b9083546200034d565b620000a89160009162000372565b818110620003aa575050565b80620003ba600060019362000390565b016200039e565b9190601f8111620003d157505050565b620003e5620000a893600052602060002090565b906020601f84018190048301931062000409575b6020601f9091010401906200039e565b9091508190620003f9565b906200041e815190565b906001600160401b038211620004f6575b62000447826200044085546200031b565b85620003c1565b602090601f83116001146200048657620002989291600091836200047a575b5050600019600883021c1916906002021790565b01519050388062000466565b601f198316916200049c85600052602060002090565b9260005b818110620004dd57509160029391856001969410620004c3575b50505002019055565b01516000196008601f8516021c19169055388080620004ba565b91936020600181928787015181550195019201620004a0565b6200050062000049565b6200042f565b90620000a89162000414565b906001600160a01b039062000273565b620001669062000178906001600160a01b031682565b620001669062000522565b620001669062000538565b906200056262000166620002989262000543565b825462000512565b62000166600062000362565b620001669062000178565b62000166905462000576565b620001666a01a784379d99db4200000062000362565b906000199062000273565b90620005c262000166620002989262000362565b8254620005a3565b906200061a6200062292620005df85620007ce565b6200061262000600620001786000620005fa81601c6200027d565b620002ac565b6001600160a01b0388161415620002b7565b600a62000506565b600962000506565b6200062f81600b6200054e565b506200063d81600c6200054e565b50620006486200056a565b620006526200084a565b62000669620006618262000543565b809362000a92565b506200067781601c6200054e565b506200069962000688600b62000581565b620006926200058d565b90620008d0565b620006e87fb25402418ad555013210365a422f9f1206b2dd00719998db06f8a1fbe014641b620006d5620006ce600b62000581565b8262000a1b565b620006e1600c62000581565b9062000a1b565b620006f56109c462000362565b62000702816018620005ae565b50620f4240620007128162000362565b9062000720826015620005ae565b6200072d610e1062000362565b6200073a816019620005ae565b50506200074981601a620005ae565b506200075761138862000362565b6200076481601b620005ae565b50565b156200076f57565b60405162461bcd60e51b815260206004820152601960248201527f4f776e657220616464726573732063616e6e6f742062652030000000000000006044820152606490fd5b6001600160a01b0391821681529116602082015260400190565b600090620007dc82620002ac565b91620007fd6001600160a01b0384166001600160a01b038416141562000767565b6200080a8260046200054e565b507fb532073b38c83145e3e5135377a08bf9aab55bc0fd7c1179cd4fb995d2a5159c91620008456200083b60405190565b92839283620007b4565b0390a1565b620001663362000543565b156200085d57565b60405162461bcd60e51b815260206004820152601f60248201527f45524332303a206d696e7420746f20746865207a65726f2061646472657373006044820152606490fd5b620001669081565b620001669054620008a2565b90620008c29062000543565b600052602052604060002090565b6000620008dd81620002ac565b90620008fe6001600160a01b0383166001600160a01b038516141562000855565b62000915846200090f6002620008aa565b62000b9b565b62000922816002620005ae565b506200093e846200090f620009388685620008b6565b620008aa565b62000955816200094f8685620008b6565b620005ae565b5050620009aa620009926200098b7fddf252ad1be2c89b69c2b068fc378daa952ba7f163c4a11628f55a4df523b3ef9362000543565b9362000543565b936200099d60405190565b9182918290815260200190565b0390a3565b90620008c2565b15620009be57565b60405162461bcd60e51b815260206004820152602f60248201527f416363657373436f6e74726f6c3a2073656e646572206d75737420626520616e60448201526e0818591b5a5b881d1bc819dc985b9d608a1b6064820152608490fd5b90620000a89162000a6462000a5e62000a43600262000a3c856003620009af565b01620008aa565b62000a5762000a516200084a565b62000543565b9062000a6a565b620009b6565b62000a99565b9062000a8c6000620000cb620001669462000a83600090565b506003620009af565b62000d5d565b90620000a8915b9062000ab88162000ab26000620000cb866003620009af565b62000bf4565b62000ac1575050565b62000acb6200084a565b9062000b0462000afd62000afd7f2f8788117e7eff1d82e926ec794901d17c78024a50270940304540a733656f0d9590565b9262000543565b9262000b0f60405190565b600090a4565b50634e487b7160e01b600052601160045260246000fd5b919062000b38565b9290565b820180921162000b4457565b620000a862000b15565b1562000b5657565b60405162461bcd60e51b815260206004820152601b60248201527f536166654d6174683a206164646974696f6e206f766572666c6f7700000000006044820152606490fd5b9062000bba62000b34620001669262000bb2600090565b508462000b2c565b82101562000b4e565b620001669062000bdc906001600160a01b031660601b90565b6001600160601b03191690565b620001669062000bc3565b9062000c2462000c2062000c1a6000620001669562000c11600090565b50019362000be9565b62000bdc565b9190565b62000cd7565b50634e487b7160e01b600052603260045260246000fd5b62000c6460019162000c51815490565b84101562000c6d57600052602060002090565b91020190600090565b62000c7762000c2a565b600052602060002090565b91906200038762000166620002989390565b9062000cc0620000a8928054906801000000000000000082101562000cc7575b60018201815562000c41565b9062000c82565b62000cd162000049565b62000cb4565b9062000cec62000ce8828462000d2b565b1590565b1562000d245760019162000d1e916200094f9062000d148362000d10838262000c94565b5490565b94859301620009af565b50600190565b5050600090565b62000d48916001620009389262000d40600090565b5001620009af565b62000d5862000c20600062000362565b141590565b9062000d7a62000c2062000c1a6000620001669562000c11600090565b62000d2b56fe60806040526004361015610018575b610016600080fd5b005b60003560e01c806306fdde0314610590578063095ea7b3146105875780630f9d20011461057e5780631627540c1461057557806318160ddd1461056c5780631c5df1e5146105635780632258750a1461055a578063238a47091461055157806323b872dd14610548578063246126bd1461053f578063248a9ca3146105365780632853fb101461052d5780632cb4f63e146105245780632eb9771b1461051b5780632f2ff15d14610512578063313ce56714610509578063345ba24b1461050057806335467d5d146104f757806336568abe146104ee57806339509351146104e55780633b7d0946146104dc5780634013124a146104d3578063408ab10f146104ca57806342966c68146104c15780634bd0be23146104b857806351e238e3146104af57806353a47bb7146104a6578063545055171461049d57806355189488146104945780636140133b1461048b57806367feda3e1461048257806370a082311461047957806372b3cded14610470578063741d3c181461046757806379ba50971461045e57806379cc6790146104555780637bac07c71461044c5780637dbc1df01461044357806387a140c31461043a5780638da5cb5b146104315780639010d07c1461042857806391d148541461041f57806392eefe9b1461041657806395d89b411461040d578063a217fddf14610404578063a457c2d7146103fb578063a8a778ae146103f2578063a9059cbb146103e9578063ad9f6eec146103e0578063afe92c1a146103d7578063b0fc69ce146103ce578063b4db0980146103c5578063b4f56b26146103bc578063bdacb303146103b3578063bef40ec8146103aa578063c03f7be3146103a1578063c3355b8d14610398578063c3bc89101461038f578063c8fae1a514610386578063ca15c8731461037d578063ca65be0b14610374578063cb73999f1461036b578063d2d97b0614610362578063d547741f14610359578063d914cd4b14610350578063dc6663c714610347578063dd62ed3e1461033e578063df56e16814610335578063e223e9a91461032c5763e7dced670361000e57610327611847565b61000e565b5061032761181f565b506103276117a5565b5061032761177a565b50610327611750565b5061032761171d565b506103276116f5565b506103276116cb565b506103276116a1565b5061032761166b565b50610327611635565b5061032761160b565b506103276115d8565b506103276115ae565b50610327611578565b50610327611545565b5061032761151e565b506103276114f6565b506103276114cc565b506103276114a2565b5061032761146e565b5061032761141f565b506103276113f4565b506103276113cc565b506103276113a1565b50610327611377565b5061032761133b565b50610327611308565b506103276112dd565b506103276112b2565b50610327611260565b5061032761122a565b506103276111f7565b506103276111cd565b50610327611199565b50610327611172565b5061032761114b565b50610327611121565b506103276110eb565b506103276110c1565b5061032761108e565b50610327611064565b50610327610fa0565b50610327610f76565b50610327610f40565b50610327610eed565b50610327610eba565b50610327610e93565b50610327610e6c565b50610327610e45565b50610327610e1a565b50610327610df2565b50610327610dc8565b50610327610d92565b50610327610d54565b50610327610d07565b50610327610cac565b50610327610c76565b50610327610c40565b50610327610c0a565b50610327610be0565b50610327610ba9565b50610327610b44565b50610327610b1a565b50610327610ad1565b50610327610a96565b50610327610a6a565b506103276109fb565b506103276108de565b5061032761081b565b600080fd5b60009103126105a957565b6105b1600080fd5b565b507f4e487b7100000000000000000000000000000000000000000000000000000000600052600060045260246000fd5b507f4e487b7100000000000000000000000000000000000000000000000000000000600052602260045260246000fd5b9060016002830492168015610636575b602083101461062e57565b6105b16105e3565b91607f1691610623565b8054600093929161065d61065383610613565b8085529360200190565b91600181169081156106af575060011461067657505050565b6106899192939450600052602060002090565b916000925b81841061069b5750500190565b80548484015260209093019260010161068e565b92949550505060ff1916825215156020020190565b906106ce91610640565b90565b601f017fffffffffffffffffffffffffffffffffffffffffffffffffffffffffffffffe01690565b507f4e487b7100000000000000000000000000000000000000000000000000000000600052604160045260246000fd5b90601f017fffffffffffffffffffffffffffffffffffffffffffffffffffffffffffffffe016810190811067ffffffffffffffff82111761076957604052565b6107716106f9565b604052565b906105b16107909261078760405190565b938480926106c4565b0383610729565b6106ce9115610776576107a86105b3565b610776565b6106ce6000600a610797565b60005b8381106107cc5750506000910152565b81810151838201526020016107bc565b6107fd6106d1602093610806936107f1815190565b80835293849260200190565b958691016107b9565b0190565b60208082526106ce929101906107dc565b5034610848575b61082d36600461059e565b6108446108386107ad565b6040519182918261080a565b0390f35b610850600080fd5b610822565b73ffffffffffffffffffffffffffffffffffffffff1690565b73ffffffffffffffffffffffffffffffffffffffff81165b0361059957565b905035906105b18261086e565b80610886565b905035906105b18261089a565b91906106ce906040848203126108d1575b6108c8818561088d565b936020016108a0565b6108d9600080fd5b6108be565b503461090f575b6108446108fc6108f63660046108ad565b906118f0565b6040515b91829182901515815260200190565b610917600080fd5b6108e5565b906106ce91602081830312156108a057610934600080fd5b6108a0565b507f4e487b7100000000000000000000000000000000000000000000000000000000600052603260045260246000fd5b610989600191610977815490565b84101561099257600052602060002090565b91020190600090565b61099a610939565b600052602060002090565b6106ce916008021c73ffffffffffffffffffffffffffffffffffffffff1690565b906106ce91546109a5565b601360006109dd825490565b8310156109f857506106ce916109f291610969565b906109c6565b80fd5b5034610a40575b610844610a18610a1336600461091c565b6109d1565b6040515b9182918273ffffffffffffffffffffffffffffffffffffffff909116815260200190565b610a48600080fd5b610a02565b906106ce916020818303121561088d57610a65600080fd5b61088d565b5034610a89575b610a84610a7f366004610a4d565b61413f565b604051005b610a91600080fd5b610a71565b5034610ac4575b610aa836600461059e565b610844610ab3611882565b6040515b9182918290815260200190565b610acc600080fd5b610a9d565b5034610aeb575b610a84610ae636600461091c565b613457565b610af3600080fd5b610ad8565b6106ce916008021c81565b906106ce9154610af8565b6106ce6000601d610b03565b5034610b37575b610b2c36600461059e565b610844610ab3610b0e565b610b3f600080fd5b610b21565b5034610b5e575b610a84610b5936600461091c565b613352565b610b66600080fd5b610b4b565b9091606082840312610b9c575b6106ce610b85848461088d565b93610b93816020860161088d565b936040016108a0565b610ba4600080fd5b610b78565b5034610bc7575b6108446108fc610bc1366004610b6b565b916119d6565b610bcf600080fd5b610bb0565b6106ce600060116109c6565b5034610bfd575b610bf236600461059e565b610844610a18610bd4565b610c05600080fd5b610be7565b5034610c27575b610844610ab3610c2236600461091c565b613a86565b610c2f600080fd5b610c11565b6106ce6000601b610b03565b5034610c5d575b610c5236600461059e565b610844610ab3610c34565b610c65600080fd5b610c47565b6106ce6000601a610b03565b5034610c93575b610c8836600461059e565b610844610ab3610c6a565b610c9b600080fd5b610c7d565b6106ce60006015610b03565b5034610cc9575b610cbe36600461059e565b610844610ab3610ca0565b610cd1600080fd5b610cb3565b91906106ce90604084820312610cfa575b610cf181856108a0565b9360200161088d565b610d02600080fd5b610ce7565b5034610d22575b610a84610d1c366004610cd6565b90613b29565b610d2a600080fd5b610d0e565b610d3c6106ce6106ce9290565b60ff1690565b6106ce6012610d2f565b6106ce610d42565b5034610d85575b610d6636600461059e565b610844610d71610d4c565b6040519182918260ff909116815260200190565b610d8d600080fd5b610d5b565b5034610daf575b610da436600461059e565b610844610ab361267d565b610db7600080fd5b610d99565b6106ce6000601c6109c6565b5034610de5575b610dda36600461059e565b610844610a18610dbc565b610ded600080fd5b610dcf565b5034610e0d575b610a84610e07366004610cd6565b90613c96565b610e15600080fd5b610df9565b5034610e38575b6108446108fc610e323660046108ad565b90611a2b565b610e40600080fd5b610e21565b5034610e5f575b610a84610e5a366004610a4d565b6132a4565b610e67600080fd5b610e4c565b5034610e86575b610e7e36600461059e565b610a8461295a565b610e8e600080fd5b610e73565b5034610ead575b610a84610ea836600461091c565b613400565b610eb5600080fd5b610e9a565b5034610ed4575b610a84610ecf36600461091c565b611dbe565b610edc600080fd5b610ec1565b6106ce6000600b6109c6565b5034610f0a575b610eff36600461059e565b610844610a18610ee1565b610f12600080fd5b610ef4565b6106ce6106ce6106ce9290565b6106ce6a01a784379d99db42000000610f17565b6106ce610f24565b5034610f5d575b610f5236600461059e565b610844610ab3610f38565b610f65600080fd5b610f47565b6106ce600060056109c6565b5034610f93575b610f8836600461059e565b610844610a18610f6a565b610f9b600080fd5b610f7d565b5034610fdb575b610fb236600461059e565b6108447fb25402418ad555013210365a422f9f1206b2dd00719998db06f8a1fbe014641b610ab3565b610fe3600080fd5b610fa7565b6108556106ce6106ce9273ffffffffffffffffffffffffffffffffffffffff1690565b6106ce90610fe8565b6106ce9061100b565b9061102790611014565b600052602052604060002090565b6106ce916008021c610d3c565b906106ce9154611035565b6106ce9061105f60149160009261101d565b611042565b5034611081575b6108446108fc61107c366004610a4d565b61104d565b611089600080fd5b61106b565b50346110a8575b610a846110a336600461091c565b6137b8565b6110b0600080fd5b611095565b6106ce6000600d6109c6565b50346110de575b6110d336600461059e565b610844610a186110b5565b6110e6600080fd5b6110c8565b5034611108575b610844610ab3611103366004610a4d565b61188c565b611110600080fd5b6110f2565b6106ce6000600f6109c6565b503461113e575b61113336600461059e565b610844610a18611115565b611146600080fd5b611128565b5034611165575b610a84611160366004610a4d565b613693565b61116d600080fd5b611152565b503461118c575b61118436600461059e565b610a846141d4565b611194600080fd5b611179565b50346111b4575b610a846111ae3660046108ad565b90611e33565b6111bc600080fd5b6111a0565b6106ce60006018610b03565b50346111ea575b6111df36600461059e565b610844610ab36111c1565b6111f2600080fd5b6111d4565b5034611211575b610a8461120c36600461091c565b6132fb565b611219600080fd5b6111fe565b6106ce6014601c611042565b5034611247575b61123c36600461059e565b6108446108fc61121e565b61124f600080fd5b611231565b6106ce600060046109c6565b503461127d575b61127236600461059e565b610844610a18611254565b611285600080fd5b611267565b91906106ce906040848203126112a5575b6108c881856108a0565b6112ad600080fd5b61129b565b50346112d0575b610844610a186112ca36600461128a565b90613a6c565b6112d8600080fd5b6112b9565b50346112fb575b6108446108fc6112f5366004610cd6565b90613a31565b611303600080fd5b6112e4565b5034611322575b610a8461131d366004610a4d565b613761565b61132a600080fd5b61130f565b6106ce60006009610797565b5034611358575b61134d36600461059e565b61084461083861132f565b611360600080fd5b611342565b6106ce6000610f17565b6106ce611365565b5034611394575b61138936600461059e565b610844610ab361136f565b61139c600080fd5b61137e565b50346113bf575b6108446108fc6113b93660046108ad565b90611ab8565b6113c7600080fd5b6113a8565b50346113e7575b610a846113e13660046108ad565b90612bfc565b6113ef600080fd5b6113d3565b5034611412575b6108446108fc61140c3660046108ad565b906118a8565b61141a600080fd5b6113fb565b5034611439575b610a8461143436600461091c565b6133a9565b611441600080fd5b611426565b91906106ce90604084820312611461575b610cf1818561088d565b611469600080fd5b611457565b5034611489575b610a84611483366004611446565b90613973565b611491600080fd5b611475565b6106ce600060126109c6565b50346114bf575b6114b436600461059e565b610844610a18611496565b6114c7600080fd5b6114a9565b50346114e9575b6114de36600461059e565b610844610ab36121f0565b6114f1600080fd5b6114d3565b5034611511575b610a8461150b3660046108ad565b90612c8f565b611519600080fd5b6114fd565b5034611538575b610a84611533366004610a4d565b6136fa565b611540600080fd5b611525565b503461155f575b61155736600461059e565b610a84613a23565b611567600080fd5b61154c565b6106ce60006019610b03565b5034611595575b61158a36600461059e565b610844610ab361156c565b61159d600080fd5b61157f565b6106ce60006017610b03565b50346115cb575b6115c036600461059e565b610844610ab36115a2565b6115d3600080fd5b6115b5565b50346115f2575b610a846115ed366004610a4d565b613512565b6115fa600080fd5b6115df565b6106ce6000600e6109c6565b5034611628575b61161d36600461059e565b610844610a186115ff565b611630600080fd5b611612565b5034611652575b610844610ab361164d36600461091c565b613a53565b61165a600080fd5b61163c565b6106ce600060106109c6565b5034611688575b61167d36600461059e565b610844610a1861165f565b611690600080fd5b611672565b6106ce60006016610b03565b50346116be575b6116b336600461059e565b610844610ab3611695565b6116c6600080fd5b6116a8565b50346116e8575b6116dd36600461059e565b610844610ab361274b565b6116f0600080fd5b6116d2565b5034611710575b610a8461170a366004610cd6565b90613be5565b611718600080fd5b6116fc565b5034611737575b610a84611732366004610a4d565b6130a8565b61173f600080fd5b611724565b6106ce6000600c6109c6565b503461176d575b61176236600461059e565b610844610a18611744565b611775600080fd5b611757565b5034611798575b610844610ab3611792366004611446565b906118d0565b6117a0600080fd5b611781565b5034611812575b6117b736600461059e565b6108446117c26126a6565b946117d598969894919493929360405190565b98899889908152610100810198979690959094909390929091602087015260408601526060850152608084015260a083015260c082015260e00152565b61181a600080fd5b6117ac565b503461183a575b610a84611834366004611446565b906138eb565b611842600080fd5b611826565b5034611864575b61185936600461059e565b610844610ab3612673565b61186c600080fd5b61184e565b6106ce9081565b6106ce9054611871565b6106ce6002611878565b6118a36106ce9161189b600090565b50600061101d565b611878565b6118c291906118bd6118b86118c7565b611014565b611cc4565b600190565b6106ce33611014565b6106ce916118eb6118a3926118e3600090565b50600161101d565b61101d565b6118c291906119006118b86118c7565b61212b565b906105b161191260405190565b9283610729565b61080660209167ffffffffffffffff811161195657601f017fffffffffffffffffffffffffffffffffffffffffffffffffffffffffffffffe01690565b6106d16106f9565b9061197061196b83611919565b611905565b918252565b61197f602861195e565b7f45524332303a207472616e7366657220616d6f756e742065786365656473206160208201527f6c6c6f77616e6365000000000000000000000000000000000000000000000000604082015290565b6106ce611975565b6119ed836106ce936119e6600090565b5083611cc4565b6119f56118c7565b90611a25611a1f600195611a106118a3866118eb878b61101d565b90611a196119ce565b91613ea8565b92611014565b9061212b565b6106ce90611a376118c7565b90611900611a1f600195611a526118a3856118eb888b61101d565b613dfb565b611a61602561195e565b7f45524332303a2064656372656173656420616c6c6f77616e63652062656c6f7760208201527f207a65726f000000000000000000000000000000000000000000000000000000604082015290565b6106ce611a57565b6106ce90611ac46118c7565b90611900611a1f600195611adf6118a3856118eb888b61101d565b90611a19611ab0565b6108556106ce6106ce9290565b6106ce90611ae8565b15611b0557565b6040517f08c379a000000000000000000000000000000000000000000000000000000000815260206004820152602560248201527f45524332303a207472616e736665722066726f6d20746865207a65726f20616460448201527f64726573730000000000000000000000000000000000000000000000000000006064820152608490fd5b0390fd5b15611b9557565b6040517f08c379a000000000000000000000000000000000000000000000000000000000815260206004820152602360248201527f45524332303a207472616e7366657220746f20746865207a65726f206164647260448201527f65737300000000000000000000000000000000000000000000000000000000006064820152608490fd5b611c24602661195e565b7f45524332303a207472616e7366657220616d6f756e742065786365656473206260208201527f616c616e63650000000000000000000000000000000000000000000000000000604082015290565b6106ce611c1a565b907fffffffffffffffffffffffffffffffffffffffffffffffffffffffffffffffff905b9181191691161790565b90611cb96106ce611cc092610f17565b8254611c7b565b9055565b81611d786000611d2f611d11611cd983611af5565b61085573ffffffffffffffffffffffffffffffffffffffff821673ffffffffffffffffffffffffffffffffffffffff89161415611afe565b73ffffffffffffffffffffffffffffffffffffffff85161415611b8e565b611d48611d3f6118a3868461101d565b87611a19611c73565b611d5b81611d56878561101d565b611ca9565b50611d56611d7087611a526118a3878661101d565b93849261101d565b50611db9611daf611da97fddf252ad1be2c89b69c2b068fc378daa952ba7f163c4a11628f55a4df523b3ef93611014565b93611014565b93610ab760405190565b0390a3565b6105b190611dcd6118b86118c7565b611f57565b611ddc602461195e565b7f45524332303a206275726e20616d6f756e74206578636565647320616c6c6f7760208201527f616e636500000000000000000000000000000000000000000000000000000000604082015290565b6106ce611dd2565b906105b191611dcd611e436118c7565b611e4c81611014565b611e62611e5982866118d0565b86611a19611e2b565b91508361212b565b15611e7157565b6040517f08c379a000000000000000000000000000000000000000000000000000000000815260206004820152602160248201527f45524332303a206275726e2066726f6d20746865207a65726f2061646472657360448201527f73000000000000000000000000000000000000000000000000000000000000006064820152608490fd5b611f00602261195e565b7f45524332303a206275726e20616d6f756e7420657863656564732062616c616e60208201527f6365000000000000000000000000000000000000000000000000000000000000604082015290565b6106ce611ef6565b600090611f6382611af5565b91611f9c73ffffffffffffffffffffffffffffffffffffffff841673ffffffffffffffffffffffffffffffffffffffff84161415611e6a565b611fb5611fac6118a3848461101d565b85611a19611f4f565b611fc381611d56858561101d565b50611fd784611fd26002611878565b613e58565b611fe2816002611ca9565b5050611db9611daf611da97fddf252ad1be2c89b69c2b068fc378daa952ba7f163c4a11628f55a4df523b3ef93611014565b1561201b57565b6040517f08c379a0000000000000000000000000000000000000000000000000000000008152602060048201526024808201527f45524332303a20617070726f76652066726f6d20746865207a65726f2061646460448201527f72657373000000000000000000000000000000000000000000000000000000006064820152608490fd5b156120a657565b6040517f08c379a000000000000000000000000000000000000000000000000000000000815260206004820152602260248201527f45524332303a20617070726f766520746f20746865207a65726f20616464726560448201527f73730000000000000000000000000000000000000000000000000000000000006064820152608490fd5b6121ad61218f600061213c81611af5565b9061217573ffffffffffffffffffffffffffffffffffffffff831673ffffffffffffffffffffffffffffffffffffffff87161415612014565b5073ffffffffffffffffffffffffffffffffffffffff1690565b73ffffffffffffffffffffffffffffffffffffffff8416141561209f565b6121c083611d56846118eb85600161101d565b611db9611daf611da97f8c5be1e5ebec7d5bd14f71427d1e84f3dd0314c0f7b2291e5b200ac8c7c3b92593611014565b6106ce600061243d565b6106ce90610855565b6106ce90546121fa565b905051906105b18261089a565b906106ce916020818303121561220d57612232600080fd5b61220d565b506040513d6000823e3d90fd5b6106ce620f4240610f17565b6106ce9060a01c610d3c565b6106ce9054612250565b507f4e487b7100000000000000000000000000000000000000000000000000000000600052601160045260246000fd5b939190925b600182116122a7575050565b909280820481116122d1575b600184166122c8575b80029260011c9061229b565b938402936122bc565b6122d9612266565b6122b3565b929192811561238357801561237b5780806001146123725760021461234f5760208210610133821016604e8310600b8310161761233d5792612324918193946001612296565b8092048111612331570290565b612339612266565b0290565b0a91821161234757565b6105b1612266565b5060ff8111612365575b60020a91821161234757565b61236d612266565b612359565b50600193505050565b506000925050565b506001925050565b6106ce916123c16123ba7fffffffffffffffffffffffffffffffffffffffffffffffffffffffffffffffff9390565b9160ff1690565b906122de565b507f4e487b7100000000000000000000000000000000000000000000000000000000600052602160045260246000fd5b6002111561240157565b6105b16123c7565b906105b1826123f7565b73ffffffffffffffffffffffffffffffffffffffff90911681526040810192916105b19160200152565b61248961246a60206124526118b86006612203565b638e15f4739061246160405190565b93849260e01b90565b825260049082905afa908115612666575b600091612648575b50610f17565b906124c261249f612498612244565b8094613fab565b6124bc6124ac600a610f17565b6124b6600661225c565b9061238b565b90614029565b906124d760006124d181610f17565b50612409565b6124e082612409565b036125975750816106ce9260206124fa6118b86007612203565b633ddac9539061252761250d6011612203565b9261253261251a60405190565b9788958694859460e01b90565b845260048401612413565b03915afa91821561258a575b600092612558575b5081926125539250613fab565b614029565b612553925061257d9060203d8111612583575b6125758183610729565b81019061221a565b91612546565b503d61256b565b612592612237565b61253e565b6125aa6125a46001612409565b91612409565b036125c357816106ce9260206124fa6118b86008612203565b6040517f08c379a000000000000000000000000000000000000000000000000000000000815260206004820152603c60248201527f494e56414c49442050524943452043484f4943452e204e6565647320746f206260448201527f6520656974686572203020284652415829206f722031202846585329000000006064820152608490fd5b612660915060203d8111612583576125758183610729565b38612483565b61266e612237565b61247b565b6106ce600161243d565b6106ce61249f61269861246a60206124526118b86006612203565b6126a0612244565b90613fab565b6126b0600061243d565b906126bb600161243d565b916126c4611882565b916126cf6015611878565b916126d861274b565b916126e36017611878565b916126ee6016611878565b9161270a61249f61269861246a60206124526118b86006612203565b919796959493929190565b6001907fffffffffffffffffffffffffffffffffffffffffffffffffffffffffffffffff8114612743570190565b610806612266565b60009061275782610f17565b80925b60136127676106ce825490565b85101561284757849061277d6109f28383610969565b6127a661278c61085586611af5565b9173ffffffffffffffffffffffffffffffffffffffff1690565b036127be575b50506127b784612715565b935061275a565b9260206127db6118b86118b86109f26127f3966128129899610969565b6317284c94906127ea60405190565b94859260e01b90565b825260049082905afa91821561283a575b60009261281a575b50613dfb565b9083386127ac565b61283391925060203d8111612583576125758183610729565b903861280c565b612842612237565b612804565b5090925050565b1561285557565b6040517f08c379a000000000000000000000000000000000000000000000000000000000815280611b8a600482016020808252818101527f436f6c6c61746572616c20526174696f20686173206265656e20706175736564604082015260600190565b91906128c3565b9290565b820391821161234757565b156128d557565b6040517f08c379a000000000000000000000000000000000000000000000000000000000815260206004820152603560248201527f4d757374207761697420666f7220746865207265667265736820636f6f6c646f60448201527f776e2073696e6365206c617374207265667265736800000000000000000000006064820152608490fd5b612964601c61225c565b60009061297c90612976835b91151590565b1461284e565b6129846121f0565b9042916129b861299d612997601d611878565b856128b8565b6129b16129ad6106ce6019611878565b9190565b10156128ce565b6129d86106ce6129c8601a611878565b6129d2601b611878565b90613dfb565b811115612a8d57506129ea6015611878565b6129fa6129ad6106ce6018611878565b11612a5e57612a0890610f17565b612a13816015611ca9565b505b612a2081601d611ca9565b50612a2b6015611878565b612a597fb1200af9b3ac4dec88c9d01e1fb7cc7fa1f0fe55bf4afac1f30cc4fc2b2d1dd291610ab760405190565b0390a1565b50612a7c612a6c6015611878565b612a766018611878565b90613e58565b612a87816015611ca9565b50612a15565b9050612aac6129ad6106ce612aa2601a611878565b612a76601b611878565b1015612a1557612ac9612abf6015611878565b6129d26018611878565b620f424090612ada6129ad83610f17565b10612ae857612a7c90610f17565b50612a7c612abf6015611878565b6106ce90610d3c565b6106ce9054612af6565b15612b1057565b6040517f08c379a000000000000000000000000000000000000000000000000000000000815260206004820152602660248201527f4f6e6c79206672617820706f6f6c732063616e2063616c6c207468697320667560448201527f6e6374696f6e00000000000000000000000000000000000000000000000000006064820152608490fd5b6105b19190612bc0612bb0612bab33601461101d565b612aff565b612bba6001612970565b14612b09565b612bca8282612c06565b3390611db9611daf611da97ffead881ad94a58eeaebfdbce8eeb9906a0f42f0c896bab64a6ad08371608131a93611014565b906105b191612b95565b906105b191612c158282611f57565b611a25611a1f612c236118c7565b93612c366118a3866118eb87600161101d565b90611a19611e2b565b6105b19190612c55612bb0612bab33601461101d565b612c5f8282612cff565b7f1c0ed02ca521f3f5782d6c218460a4d053afba959cf41837f405d16e201e31c5611db9611daf611da933611014565b906105b191612c3f565b15612ca057565b6040517f08c379a000000000000000000000000000000000000000000000000000000000815260206004820152601f60248201527f45524332303a206d696e7420746f20746865207a65726f2061646472657373006044820152606490fd5b6000612d0a81611af5565b90612d4373ffffffffffffffffffffffffffffffffffffffff831673ffffffffffffffffffffffffffffffffffffffff85161415612c99565b612d5184611a526002611878565b612d5c816002611ca9565b50612d6e84611a526118a3868561101d565b611fe281611d56868561101d565b15612d8357565b6040517f08c379a000000000000000000000000000000000000000000000000000000000815260206004820152603560248201527f4e6f7420746865206f776e65722c20636f6e74726f6c6c65722c206f7220746860448201527f6520676f7665726e616e63652074696d656c6f636b00000000000000000000006064820152608490fd5b6105b190612e4a33612e1d6108556004612203565b73ffffffffffffffffffffffffffffffffffffffff821614908115612e68575b8115612e4f575b50612d7c565b613001565b9050612e6161278c610855600d612203565b1438612e44565b9050612e77610855600c612203565b73ffffffffffffffffffffffffffffffffffffffff82161490612e3d565b15612e9c57565b6040517f08c379a000000000000000000000000000000000000000000000000000000000815260206004820152601560248201527f5a65726f206164647265737320646574656374656400000000000000000000006044820152606490fd5b15612f0257565b6040517f08c379a000000000000000000000000000000000000000000000000000000000815260206004820152601660248201527f4164647265737320616c726561647920657869737473000000000000000000006044820152606490fd5b9060ff90611c9f565b90612f7a6106ce611cc092151590565b8254612f61565b91906008611c9f910291612fa873ffffffffffffffffffffffffffffffffffffffff841b90565b921b90565b9190612fbe6106ce611cc093611014565b908354612f81565b90612fee6105b19280549068010000000000000000821015612ff4575b600182018155610969565b90612fad565b612ffc6106f9565b612fe3565b8061306e600061303561301661085583611af5565b73ffffffffffffffffffffffffffffffffffffffff85165b1415612e95565b61305a60149161305461297061304e612bab888761101d565b92151590565b14612efb565b6130696001938285935061101d565b612f6a565b5061307a816013612fc6565b612a597f73cca62ab1b520c9715bf4e6c71e3e518c754e7148f65102f43289a7df0efea691610a1c60405190565b6105b190612e08565b6105b1906130c633612e1d6108556004612203565b61316a565b156130d257565b6040517f08c379a000000000000000000000000000000000000000000000000000000000815260206004820152601360248201527f41646472657373206e6f6e6578697374616e74000000000000000000000000006044820152606490fd5b91906008611c9f910291612fa860ff841b90565b91906131566106ce611cc093151590565b908354613131565b6105b191600091613145565b9060009161317783611af5565b6131ad73ffffffffffffffffffffffffffffffffffffffff821673ffffffffffffffffffffffffffffffffffffffff841661302e565b6014936131e1816131dc856131c5612bab828b61101d565b600199906118eb906131d68c612970565b146130cb565b61315e565b846131eb82610f17565b955b613227575b50506040519293507f4106dfdaa577573db51c0ca93f766dbedfa0758faa2e7f5bcdb7c142be803c3f92612a59929150610a1c565b60136132346106ce825490565b87101561329e576132486109f28883610969565b61326773ffffffffffffffffffffffffffffffffffffffff871661278c565b1461327e575061327686612715565b9550806131ed565b612fee91509583949596613293949350610969565b5081903880806131f2565b506131f2565b6105b1906130b1565b6105b1906132c233612e1d6108556004612203565b6132cd816016611ca9565b612a597f91cc643d187eb250905520d3dae0b1017edd16961d27ab9a4a61fea5e38f717d91610ab760405190565b6105b1906132ad565b6105b19061331933612e1d6108556004612203565b613324816017611ca9565b612a597f07aefbcc0d8cdf34e241279c78d93d1df9540b5a60d320437958df12ef59e46391610ab760405190565b6105b190613304565b6105b19061337033612e1d6108556004612203565b61337b816018611ca9565b612a597ff63dc397cac6cb5b9f2e168b247e8aeebbde7ef8179a06750f44329f12cdbf4b91610ab760405190565b6105b19061335b565b6105b1906133c733612e1d6108556004612203565b6133d281601a611ca9565b612a597f898a2c9df7982133daaa8cfd78b8c49c520cba03205eec6480552c19059f6e3a91610ab760405190565b6105b1906133b2565b6105b19061341e33612e1d6108556004612203565b613429816019611ca9565b612a597fc7443059c2ed485e2c9efe4e766bef9432a6f0ed6695741ab4afdffab3b9215791610ab760405190565b6105b190613409565b6105b19061347533612e1d6108556004612203565b6134ad565b9073ffffffffffffffffffffffffffffffffffffffff90611c9f565b906134a66106ce611cc092611014565b825461347a565b6134d96134bd6108556000611af5565b73ffffffffffffffffffffffffffffffffffffffff831661302e565b6134e481600e613496565b612a597f109c7f139fe60a7cef65008440d643868c0247c49148cbab1281e51ee6108c6191610a1c60405190565b6105b190613460565b6105b19061353033612e1d6108556004612203565b6135af565b60ff8116610886565b905051906105b182613535565b906106ce916020818303121561353e57613563600080fd5b61353e565b9074ff00000000000000000000000000000000000000009060a01b611c9f565b610d3c6106ce6106ce9260ff1690565b906135a86106ce611cc092613588565b8254613568565b6135bf6134bd6108556000611af5565b6135ca816012613496565b6135d76118b86012612203565b6135e2816006613496565b5061360460206135f56118b86006612203565b63f0141d849061246160405190565b825260049082905afa908115613686575b600091613658575b50613629816006613598565b50612a597f4e76cd2b10c38c98ffe935e9b3e851cf6d1078a0a6f487a0636af025eded515891610a1c60405190565b613679915060203d811161367f575b6136718183610729565b81019061354b565b3861361d565b503d613667565b61368e612237565b613615565b6105b19061351b565b6105b1906136b133612e1d6108556004612203565b6136c16134bd6108556000611af5565b6136cc81600c613496565b612a597f7e7ee4175d63f671fac3401d5f401ed18d1f48a586e756f404d5696fc77a705891610a1c60405190565b6105b19061369c565b6105b19061371833612e1d6108556004612203565b6137286134bd6108556000611af5565b61373381600d613496565b612a597f79f74fd5964b6943d8a1865abfb7f668c92fa3f32c0a2e3195da7d0946703ad791610a1c60405190565b6105b190613703565b6105b19061377f33612e1d6108556004612203565b61378a81601b611ca9565b612a597fe9febe6aec89ff2870eeab6d13333c59cbed275b1d9a95f527c853d99ddb7cf491610ab760405190565b6105b19061376a565b906105b1916137d733612e1d6108556004612203565b613803565b73ffffffffffffffffffffffffffffffffffffffff91821681529116602082015260400190565b90613850600061381281611af5565b73ffffffffffffffffffffffffffffffffffffffff811673ffffffffffffffffffffffffffffffffffffffff8616141591826138b2575b5050612e95565b61385b82600f613496565b61386482611014565b61386f816007613496565b5061387b816011613496565b7fb21874967eedf8b74dfe7dcc8d6097f77276866e02302f325c825e1502fe222891612a596138a960405190565b928392836137dc565b5073ffffffffffffffffffffffffffffffffffffffff16905073ffffffffffffffffffffffffffffffffffffffff831614153880613849565b906105b1916137c1565b906105b19161390b33612e1d6108556004612203565b9061391a600061381281611af5565b613925826010613496565b61392e82611014565b613939816008613496565b50613945816011613496565b7f92fe580f348e919356977135b3a173366b1ae5e3eb000d0db90031d13197fdab91612a596138a960405190565b906105b1916138f5565b1561059957565b6139b66139b1337fb25402418ad555013210365a422f9f1206b2dd00719998db06f8a1fbe014641b613a31565b61397d565b6105b16139ce565b906135a86106ce611cc092151590565b6139df6139db601c61225c565b1590565b6139ea81601c6139be565b506139f5601c61225c565b612a597f209068f7bed5a02fb7695c3e3b61bb8324d1facb25523c6422bfd2105ec44d929161090060405190565b6105b1613984565b90611027565b90613a4e60006108066106ce94613a46600090565b506003613a2b565b614536565b613a6760006108066106ce93613a46600090565b614553565b90613a8160006108066106ce94613a46600090565b614592565b6002613a976106ce92613a46600090565b01611878565b15613aa457565b6040517f08c379a000000000000000000000000000000000000000000000000000000000815260206004820152602f60248201527f416363657373436f6e74726f6c3a2073656e646572206d75737420626520616e60448201527f2061646d696e20746f206772616e7400000000000000000000000000000000006064820152608490fd5b906105b191613b54613b4f613b446002613a97856003613a2b565b6112f56118b86118c7565b613a9d565b613cc6565b15613b6057565b6040517f08c379a000000000000000000000000000000000000000000000000000000000815260206004820152603060248201527f416363657373436f6e74726f6c3a2073656e646572206d75737420626520616e60448201527f2061646d696e20746f207265766f6b65000000000000000000000000000000006064820152608490fd5b906105b191613c05613c00613b446002613a97856003613a2b565b613b59565b613d2f565b15613c1157565b6040517f08c379a000000000000000000000000000000000000000000000000000000000815260206004820152602f60248201527f416363657373436f6e74726f6c3a2063616e206f6e6c792072656e6f756e636560448201527f20726f6c657320666f722073656c6600000000000000000000000000000000006064820152608490fd5b906105b191613c05613ca96118b86118c7565b73ffffffffffffffffffffffffffffffffffffffff841614613c0a565b90613ce081613cdb6000610806866003613a2b565b6142b8565b613ce8575050565b613cf06118c7565b90613d1f611a1f611a1f7f2f8788117e7eff1d82e926ec794901d17c78024a50270940304540a733656f0d9590565b92613d2960405190565b600090a4565b90613d4981613d446000610806866003613a2b565b6143ca565b613d51575050565b613d596118c7565b90613d1f611a1f611a1f7ff6391f5c32d9c69d2a47ea670b442974b53935d1edc7fd64eb21e047a839171b9590565b9190820180921161234757565b15613d9c57565b6040517f08c379a000000000000000000000000000000000000000000000000000000000815260206004820152601b60248201527f536166654d6174683a206164646974696f6e206f766572666c6f7700000000006044820152606490fd5b90613e156128bf6106ce92613e0e600090565b5084613d88565b821015613d95565b613e27601e61195e565b7f536166654d6174683a207375627472616374696f6e206f766572666c6f770000602082015290565b6106ce613e1d565b6106ce91611a19613e50565b15613e6c5750565b611b8a90613e7960405190565b9182917f08c379a00000000000000000000000000000000000000000000000000000000083526004830161080a565b613ec16106ce93613eb7600090565b5082841115613e64565b6128b8565b8181029291811591840414171561234757565b507f4e487b7100000000000000000000000000000000000000000000000000000000600052601260045260246000fd5b8115613f13570490565b613f1b613ed9565b0490565b15613f2657565b6040517f08c379a000000000000000000000000000000000000000000000000000000000815260206004820152602160248201527f536166654d6174683a206d756c7469706c69636174696f6e206f766572666c6f60448201527f77000000000000000000000000000000000000000000000000000000000000006064820152608490fd5b906000613fb781610f17565b8314613fe257506106ce90613fdc6129ad6128bf613fd58487613ec6565b9586613f09565b14613f1f565b6106ce92509050610f17565b613ff8601a61195e565b7f536166654d6174683a206469766973696f6e206279207a65726f000000000000602082015290565b6106ce613fee565b6106ce91614035614021565b916140576106ce93614045600090565b506140506000610f17565b8411613e64565b613f09565b1561406357565b6040517f08c379a000000000000000000000000000000000000000000000000000000000815260206004820152602f60248201527f4f6e6c792074686520636f6e7472616374206f776e6572206d6179207065726660448201527f6f726d207468697320616374696f6e00000000000000000000000000000000006064820152608490fd5b6105b1906141063361410061278c6108556004612203565b1461405c565b614111816005613496565b612a597f906a1c6bd7e3091ea86693dd029a831c19049ce77f1dce2ce0bab1cacbabce2291610a1c60405190565b6105b1906140e8565b1561414f57565b6040517f08c379a000000000000000000000000000000000000000000000000000000000815260206004820152603560248201527f596f75206d757374206265206e6f6d696e61746564206265666f726520796f7560448201527f2063616e20616363657074206f776e65727368697000000000000000000000006064820152608490fd5b6141ee336141e861278c6108556005612203565b14614148565b6141f86004612203565b6142026005612203565b7fb532073b38c83145e3e5135377a08bf9aab55bc0fd7c1179cd4fb995d2a5159c916142306138a960405190565b0390a161423d6005612203565b614248816004613496565b506142536000611af5565b61425e816005613496565b50565b61428a6142846106ce9273ffffffffffffffffffffffffffffffffffffffff1690565b60601b90565b7fffffffffffffffffffffffffffffffffffffffff0000000000000000000000001690565b6106ce90614261565b906142dd6129ad6142d860006106ce956142d0600090565b5001936142af565b61428a565b614359565b91906008611c9f910291612fa87fffffffffffffffffffffffffffffffffffffffffffffffffffffffffffffffff841b90565b91906143246106ce611cc09390565b9083546142e2565b906143536105b19280549068010000000000000000821015612ff457600182018155610969565b90614315565b906143676139db828461439f565b156143985760019161439291611d569061438983614385838261432c565b5490565b94859301613a2b565b50600190565b5050600090565b6143b89160016118a3926143b1600090565b5001613a2b565b6143c56129ad6000610f17565b141590565b906143e26129ad6142d860006106ce956142d0600090565b614476565b507f4e487b7100000000000000000000000000000000000000000000000000000000600052603160045260246000fd5b6105b191600091614315565b600161442d825490565b801561444c575b03906144496144438383610969565b90614417565b55565b6144546143e7565b614434565b91906143246106ce611cc093610f17565b6105b191600091614459565b6144866118a38360018401613a2b565b9160009161449383610f17565b841461452e576106ce9291614529916144b76001966144b188610f17565b906128b8565b9061452361451e8683016145096144eb6144e56144df8d6144b16144d9875490565b91610f17565b84610969565b90610b03565b956144fa876143538386610969565b6145038c610f17565b90613d88565b61451a81611d568d88019889613a2b565b5090565b614423565b50613a2b565b61446a565b509092915050565b9061454e6129ad6142d860006106ce956142d0600090565b61439f565b61456960006106ce92614564600090565b500190565b60006106ce91614577600090565b50015490565b6106ce9060601c610fe8565b6106ce9061457d565b6142d86106ce926145aa60006145af94614564600090565b614640565b614589565b156145bb57565b6040517f08c379a000000000000000000000000000000000000000000000000000000000815260206004820152602260248201527f456e756d657261626c655365743a20696e646578206f7574206f6620626f756e60448201527f64730000000000000000000000000000000000000000000000000000000000006064820152608490fd5b6106ce916144e591805481906146579084106145b4565b5061096956fea26469706673582212202ae1771b29abb3e640c061a2d33d0eb742b9ca742e26e22a487cd957b6d37afe64736f6c63430008110033",
    "linkReferences": {}
  },
  "methodIdentifiers": {
    "COLLATERAL_RATIO_PAUSER()": "54505517",
    "DEFAULT_ADMIN_ADDRESS()": "35467d5d",
    "DEFAULT_ADMIN_ROLE()": "a217fddf",
    "acceptOwnership()": "79ba5097",
    "addPool(address)": "d914cd4b",
    "allowance(address,address)": "dd62ed3e",
    "approve(address,uint256)": "095ea7b3",
    "balanceOf(address)": "70a08231",
    "burn(uint256)": "42966c68",
    "burnFrom(address,uint256)": "79cc6790",
    "collateral_ratio_paused()": "87a140c3",
    "controller_address()": "67feda3e",
    "creator_address()": "4bd0be23",
    "decimals()": "313ce567",
    "decreaseAllowance(address,uint256)": "a457c2d7",
    "eth_usd_consumer_address()": "b0fc69ce",
    "eth_usd_price()": "345ba24b",
    "frax_eth_oracle_address()": "72b3cded",
    "frax_info()": "df56e168",
    "frax_pools(address)": "55189488",
    "frax_pools_array(uint256)": "0f9d2001",
    "frax_price()": "b4db0980",
    "frax_step()": "7bac07c7",
    "fxs_address()": "c8fae1a5",
    "fxs_eth_oracle_address()": "ca65be0b",
    "fxs_price()": "e7dced67",
    "genesis_supply()": "51e238e3",
    "getRoleAdmin(bytes32)": "248a9ca3",
    "getRoleMember(bytes32,uint256)": "9010d07c",
    "getRoleMemberCount(bytes32)": "ca15c873",
    "globalCollateralValue()": "d2d97b06",
    "global_collateral_ratio()": "2eb9771b",
    "grantRole(bytes32,address)": "2f2ff15d",
    "hasRole(bytes32,address)": "91d14854",
    "increaseAllowance(address,uint256)": "39509351",
    "last_call_time()": "2258750a",
    "minting_fee()": "c3355b8d",
    "name()": "06fdde03",
    "nominateNewOwner(address)": "1627540c",
    "nominatedOwner()": "53a47bb7",
    "owner()": "8da5cb5b",
    "pool_burn_from(address,uint256)": "a8a778ae",
    "pool_mint(address,uint256)": "b4f56b26",
    "price_band()": "2853fb10",
    "price_target()": "2cb4f63e",
    "redemption_fee()": "cb73999f",
    "refreshCollateralRatio()": "4013124a",
    "refresh_cooldown()": "c03f7be3",
    "removePool(address)": "3b7d0946",
    "renounceRole(bytes32,address)": "36568abe",
    "revokeRole(bytes32,address)": "d547741f",
    "setController(address)": "92eefe9b",
    "setETHUSDOracle(address)": "741d3c18",
    "setFRAXEthOracle(address,address)": "e223e9a9",
    "setFXSAddress(address)": "c3bc8910",
    "setFXSEthOracle(address,address)": "afe92c1a",
    "setFraxStep(uint256)": "ad9f6eec",
    "setMintingFee(uint256)": "238a4709",
    "setPriceBand(uint256)": "6140133b",
    "setPriceTarget(uint256)": "408ab10f",
    "setRedemptionFee(uint256)": "7dbc1df0",
    "setRefreshCooldown(uint256)": "1c5df1e5",
    "setTimelock(address)": "bdacb303",
    "symbol()": "95d89b41",
    "timelock_address()": "dc6663c7",
    "toggleCollateralRatio()": "bef40ec8",
    "totalSupply()": "18160ddd",
    "transfer(address,uint256)": "a9059cbb",
    "transferFrom(address,address,uint256)": "23b872dd",
    "weth_address()": "246126bd"
  },
  "id": 23
}