{
  "abi": [
    {
      "inputs": [
        {
          "internalType": "address",
          "name": "_frax_contract_address",
          "type": "address"
        },
        {
          "internalType": "address",
          "name": "_fxs_contract_address",
          "type": "address"
        },
        {
          "internalType": "address",
          "name": "_collateral_address",
          "type": "address"
        },
        {
          "internalType": "address",
          "name": "_creator_address",
          "type": "address"
        },
        {
          "internalType": "address",
          "name": "_timelock_address",
          "type": "address"
        },
        {
          "internalType": "uint256",
          "name": "_pool_ceiling",
          "type": "uint256"
        }
      ],
      "stateMutability": "nonpayable",
      "type": "constructor"
    },
    {
      "anonymous": false,
      "inputs": [
        {
          "indexed": false,
          "internalType": "bool",
          "name": "toggled",
          "type": "bool"
        }
      ],
      "name": "BuybackToggled",
      "type": "event"
    },
    {
      "anonymous": false,
      "inputs": [
        {
          "indexed": false,
          "internalType": "bool",
          "name": "toggled",
          "type": "bool"
        }
      ],
      "name": "CollateralPriceToggled",
      "type": "event"
    },
    {
      "anonymous": false,
      "inputs": [
        {
          "indexed": false,
          "internalType": "bool",
          "name": "toggled",
          "type": "bool"
        }
      ],
      "name": "MintingToggled",
      "type": "event"
    },
    {
      "anonymous": false,
      "inputs": [
        {
          "indexed": false,
          "internalType": "address",
          "name": "oldOwner",
          "type": "address"
        },
        {
          "indexed": false,
          "internalType": "address",
          "name": "newOwner",
          "type": "address"
        }
      ],
      "name": "OwnerChanged",
      "type": "event"
    },
    {
      "anonymous": false,
      "inputs": [
        {
          "indexed": false,
          "internalType": "address",
          "name": "newOwner",
          "type": "address"
        }
      ],
      "name": "OwnerNominated",
      "type": "event"
    },
    {
      "anonymous": false,
      "inputs": [
        {
          "indexed": false,
          "internalType": "uint256",
          "name": "new_ceiling",
          "type": "uint256"
        },
        {
          "indexed": false,
          "internalType": "uint256",
          "name": "new_bonus_rate",
          "type": "uint256"
        },
        {
          "indexed": false,
          "internalType": "uint256",
          "name": "new_redemption_delay",
          "type": "uint256"
        },
        {
          "indexed": false,
          "internalType": "uint256",
          "name": "new_mint_fee",
          "type": "uint256"
        },
        {
          "indexed": false,
          "internalType": "uint256",
          "name": "new_redeem_fee",
          "type": "uint256"
        },
        {
          "indexed": false,
          "internalType": "uint256",
          "name": "new_buyback_fee",
          "type": "uint256"
        },
        {
          "indexed": false,
          "internalType": "uint256",
          "name": "new_recollat_fee",
          "type": "uint256"
        }
      ],
      "name": "PoolParametersSet",
      "type": "event"
    },
    {
      "anonymous": false,
      "inputs": [
        {
          "indexed": false,
          "internalType": "bool",
          "name": "toggled",
          "type": "bool"
        }
      ],
      "name": "RecollateralizeToggled",
      "type": "event"
    },
    {
      "anonymous": false,
      "inputs": [
        {
          "indexed": false,
          "internalType": "bool",
          "name": "toggled",
          "type": "bool"
        }
      ],
      "name": "RedeemingToggled",
      "type": "event"
    },
    {
      "anonymous": false,
      "inputs": [
        {
          "indexed": true,
          "internalType": "bytes32",
          "name": "role",
          "type": "bytes32"
        },
        {
          "indexed": true,
          "internalType": "bytes32",
          "name": "previousAdminRole",
          "type": "bytes32"
        },
        {
          "indexed": true,
          "internalType": "bytes32",
          "name": "newAdminRole",
          "type": "bytes32"
        }
      ],
      "name": "RoleAdminChanged",
      "type": "event"
    },
    {
      "anonymous": false,
      "inputs": [
        {
          "indexed": true,
          "internalType": "bytes32",
          "name": "role",
          "type": "bytes32"
        },
        {
          "indexed": true,
          "internalType": "address",
          "name": "account",
          "type": "address"
        },
        {
          "indexed": true,
          "internalType": "address",
          "name": "sender",
          "type": "address"
        }
      ],
      "name": "RoleGranted",
      "type": "event"
    },
    {
      "anonymous": false,
      "inputs": [
        {
          "indexed": true,
          "internalType": "bytes32",
          "name": "role",
          "type": "bytes32"
        },
        {
          "indexed": true,
          "internalType": "address",
          "name": "account",
          "type": "address"
        },
        {
          "indexed": true,
          "internalType": "address",
          "name": "sender",
          "type": "address"
        }
      ],
      "name": "RoleRevoked",
      "type": "event"
    },
    {
      "anonymous": false,
      "inputs": [
        {
          "indexed": false,
          "internalType": "address",
          "name": "new_timelock",
          "type": "address"
        }
      ],
      "name": "TimelockSet",
      "type": "event"
    },
    {
      "inputs": [],
      "name": "DEFAULT_ADMIN_ROLE",
      "outputs": [
        {
          "internalType": "bytes32",
          "name": "",
          "type": "bytes32"
        }
      ],
      "stateMutability": "view",
      "type": "function"
    },
    {
      "inputs": [],
      "name": "acceptOwnership",
      "outputs": [],
      "stateMutability": "nonpayable",
      "type": "function"
    },
    {
      "inputs": [],
      "name": "availableExcessCollatDV",
      "outputs": [
        {
          "internalType": "uint256",
          "name": "",
          "type": "uint256"
        }
      ],
      "stateMutability": "view",
      "type": "function"
    },
    {
      "inputs": [],
      "name": "bonus_rate",
      "outputs": [
        {
          "internalType": "uint256",
          "name": "",
          "type": "uint256"
        }
      ],
      "stateMutability": "view",
      "type": "function"
    },
    {
      "inputs": [
        {
          "internalType": "uint256",
          "name": "FXS_amount",
          "type": "uint256"
        },
        {
          "internalType": "uint256",
          "name": "COLLATERAL_out_min",
          "type": "uint256"
        }
      ],
      "name": "buyBackFXS",
      "outputs": [],
      "stateMutability": "nonpayable",
      "type": "function"
    },
    {
      "inputs": [],
      "name": "buyBackPaused",
      "outputs": [
        {
          "internalType": "bool",
          "name": "",
          "type": "bool"
        }
      ],
      "stateMutability": "view",
      "type": "function"
    },
    {
      "inputs": [],
      "name": "buyback_fee",
      "outputs": [
        {
          "internalType": "uint256",
          "name": "",
          "type": "uint256"
        }
      ],
      "stateMutability": "view",
      "type": "function"
    },
    {
      "inputs": [],
      "name": "collatDollarBalance",
      "outputs": [
        {
          "internalType": "uint256",
          "name": "",
          "type": "uint256"
        }
      ],
      "stateMutability": "view",
      "type": "function"
    },
    {
      "inputs": [],
      "name": "collat_eth_oracle_address",
      "outputs": [
        {
          "internalType": "address",
          "name": "",
          "type": "address"
        }
      ],
      "stateMutability": "view",
      "type": "function"
    },
    {
      "inputs": [],
      "name": "collateralPricePaused",
      "outputs": [
        {
          "internalType": "bool",
          "name": "",
          "type": "bool"
        }
      ],
      "stateMutability": "view",
      "type": "function"
    },
    {
      "inputs": [],
      "name": "collectRedemption",
      "outputs": [],
      "stateMutability": "nonpayable",
      "type": "function"
    },
    {
      "inputs": [],
      "name": "getCollateralPrice",
      "outputs": [
        {
          "internalType": "uint256",
          "name": "",
          "type": "uint256"
        }
      ],
      "stateMutability": "view",
      "type": "function"
    },
    {
      "inputs": [
        {
          "internalType": "bytes32",
          "name": "role",
          "type": "bytes32"
        }
      ],
      "name": "getRoleAdmin",
      "outputs": [
        {
          "internalType": "bytes32",
          "name": "",
          "type": "bytes32"
        }
      ],
      "stateMutability": "view",
      "type": "function"
    },
    {
      "inputs": [
        {
          "internalType": "bytes32",
          "name": "role",
          "type": "bytes32"
        },
        {
          "internalType": "uint256",
          "name": "index",
          "type": "uint256"
        }
      ],
      "name": "getRoleMember",
      "outputs": [
        {
          "internalType": "address",
          "name": "",
          "type": "address"
        }
      ],
      "stateMutability": "view",
      "type": "function"
    },
    {
      "inputs": [
        {
          "internalType": "bytes32",
          "name": "role",
          "type": "bytes32"
        }
      ],
      "name": "getRoleMemberCount",
      "outputs": [
        {
          "internalType": "uint256",
          "name": "",
          "type": "uint256"
        }
      ],
      "stateMutability": "view",
      "type": "function"
    },
    {
      "inputs": [
        {
          "internalType": "bytes32",
          "name": "role",
          "type": "bytes32"
        },
        {
          "internalType": "address",
          "name": "account",
          "type": "address"
        }
      ],
      "name": "grantRole",
      "outputs": [],
      "stateMutability": "nonpayable",
      "type": "function"
    },
    {
      "inputs": [
        {
          "internalType": "bytes32",
          "name": "role",
          "type": "bytes32"
        },
        {
          "internalType": "address",
          "name": "account",
          "type": "address"
        }
      ],
      "name": "hasRole",
      "outputs": [
        {
          "internalType": "bool",
          "name": "",
          "type": "bool"
        }
      ],
      "stateMutability": "view",
      "type": "function"
    },
    {
      "inputs": [
        {
          "internalType": "address",
          "name": "",
          "type": "address"
        }
      ],
      "name": "lastRedeemed",
      "outputs": [
        {
          "internalType": "uint256",
          "name": "",
          "type": "uint256"
        }
      ],
      "stateMutability": "view",
      "type": "function"
    },
    {
      "inputs": [
        {
          "internalType": "uint256",
          "name": "collateral_amount",
          "type": "uint256"
        },
        {
          "internalType": "uint256",
          "name": "FRAX_out_min",
          "type": "uint256"
        }
      ],
      "name": "mint1t1FRAX",
      "outputs": [],
      "stateMutability": "nonpayable",
      "type": "function"
    },
    {
      "inputs": [
        {
          "internalType": "uint256",
          "name": "fxs_amount_d18",
          "type": "uint256"
        },
        {
          "internalType": "uint256",
          "name": "FRAX_out_min",
          "type": "uint256"
        }
      ],
      "name": "mintAlgorithmicFRAX",
      "outputs": [],
      "stateMutability": "nonpayable",
      "type": "function"
    },
    {
      "inputs": [
        {
          "internalType": "uint256",
          "name": "collateral_amount",
          "type": "uint256"
        },
        {
          "internalType": "uint256",
          "name": "fxs_amount",
          "type": "uint256"
        },
        {
          "internalType": "uint256",
          "name": "FRAX_out_min",
          "type": "uint256"
        }
      ],
      "name": "mintFractionalFRAX",
      "outputs": [],
      "stateMutability": "nonpayable",
      "type": "function"
    },
    {
      "inputs": [],
      "name": "mintPaused",
      "outputs": [
        {
          "internalType": "bool",
          "name": "",
          "type": "bool"
        }
      ],
      "stateMutability": "view",
      "type": "function"
    },
    {
      "inputs": [],
      "name": "minting_fee",
      "outputs": [
        {
          "internalType": "uint256",
          "name": "",
          "type": "uint256"
        }
      ],
      "stateMutability": "view",
      "type": "function"
    },
    {
      "inputs": [
        {
          "internalType": "address",
          "name": "_owner",
          "type": "address"
        }
      ],
      "name": "nominateNewOwner",
      "outputs": [],
      "stateMutability": "nonpayable",
      "type": "function"
    },
    {
      "inputs": [],
      "name": "nominatedOwner",
      "outputs": [
        {
          "internalType": "address",
          "name": "",
          "type": "address"
        }
      ],
      "stateMutability": "view",
      "type": "function"
    },
    {
      "inputs": [],
      "name": "owner",
      "outputs": [
        {
          "internalType": "address",
          "name": "",
          "type": "address"
        }
      ],
      "stateMutability": "view",
      "type": "function"
    },
    {
      "inputs": [],
      "name": "pausedPrice",
      "outputs": [
        {
          "internalType": "uint256",
          "name": "",
          "type": "uint256"
        }
      ],
      "stateMutability": "view",
      "type": "function"
    },
    {
      "inputs": [],
      "name": "pool_ceiling",
      "outputs": [
        {
          "internalType": "uint256",
          "name": "",
          "type": "uint256"
        }
      ],
      "stateMutability": "view",
      "type": "function"
    },
    {
      "inputs": [],
      "name": "recollat_fee",
      "outputs": [
        {
          "internalType": "uint256",
          "name": "",
          "type": "uint256"
        }
      ],
      "stateMutability": "view",
      "type": "function"
    },
    {
      "inputs": [
        {
          "internalType": "uint256",
          "name": "collateral_amount",
          "type": "uint256"
        },
        {
          "internalType": "uint256",
          "name": "FXS_out_min",
          "type": "uint256"
        }
      ],
      "name": "recollateralizeFRAX",
      "outputs": [],
      "stateMutability": "nonpayable",
      "type": "function"
    },
    {
      "inputs": [],
      "name": "recollateralizePaused",
      "outputs": [
        {
          "internalType": "bool",
          "name": "",
          "type": "bool"
        }
      ],
      "stateMutability": "view",
      "type": "function"
    },
    {
      "inputs": [
        {
          "internalType": "uint256",
          "name": "FRAX_amount",
          "type": "uint256"
        },
        {
          "internalType": "uint256",
          "name": "COLLATERAL_out_min",
          "type": "uint256"
        }
      ],
      "name": "redeem1t1FRAX",
      "outputs": [],
      "stateMutability": "nonpayable",
      "type": "function"
    },
    {
      "inputs": [
        {
          "internalType": "uint256",
          "name": "FRAX_amount",
          "type": "uint256"
        },
        {
          "internalType": "uint256",
          "name": "FXS_out_min",
          "type": "uint256"
        }
      ],
      "name": "redeemAlgorithmicFRAX",
      "outputs": [],
      "stateMutability": "nonpayable",
      "type": "function"
    },
    {
      "inputs": [
        {
          "internalType": "address",
          "name": "",
          "type": "address"
        }
      ],
      "name": "redeemCollateralBalances",
      "outputs": [
        {
          "internalType": "uint256",
          "name": "",
          "type": "uint256"
        }
      ],
      "stateMutability": "view",
      "type": "function"
    },
    {
      "inputs": [
        {
          "internalType": "address",
          "name": "",
          "type": "address"
        }
      ],
      "name": "redeemFXSBalances",
      "outputs": [
        {
          "internalType": "uint256",
          "name": "",
          "type": "uint256"
        }
      ],
      "stateMutability": "view",
      "type": "function"
    },
    {
      "inputs": [
        {
          "internalType": "uint256",
          "name": "FRAX_amount",
          "type": "uint256"
        },
        {
          "internalType": "uint256",
          "name": "FXS_out_min",
          "type": "uint256"
        },
        {
          "internalType": "uint256",
          "name": "COLLATERAL_out_min",
          "type": "uint256"
        }
      ],
      "name": "redeemFractionalFRAX",
      "outputs": [],
      "stateMutability": "nonpayable",
      "type": "function"
    },
    {
      "inputs": [],
      "name": "redeemPaused",
      "outputs": [
        {
          "internalType": "bool",
          "name": "",
          "type": "bool"
        }
      ],
      "stateMutability": "view",
      "type": "function"
    },
    {
      "inputs": [],
      "name": "redemption_delay",
      "outputs": [
        {
          "internalType": "uint256",
          "name": "",
          "type": "uint256"
        }
      ],
      "stateMutability": "view",
      "type": "function"
    },
    {
      "inputs": [],
      "name": "redemption_fee",
      "outputs": [
        {
          "internalType": "uint256",
          "name": "",
          "type": "uint256"
        }
      ],
      "stateMutability": "view",
      "type": "function"
    },
    {
      "inputs": [
        {
          "internalType": "bytes32",
          "name": "role",
          "type": "bytes32"
        },
        {
          "internalType": "address",
          "name": "account",
          "type": "address"
        }
      ],
      "name": "renounceRole",
      "outputs": [],
      "stateMutability": "nonpayable",
      "type": "function"
    },
    {
      "inputs": [
        {
          "internalType": "bytes32",
          "name": "role",
          "type": "bytes32"
        },
        {
          "internalType": "address",
          "name": "account",
          "type": "address"
        }
      ],
      "name": "revokeRole",
      "outputs": [],
      "stateMutability": "nonpayable",
      "type": "function"
    },
    {
      "inputs": [
        {
          "internalType": "address",
          "name": "_collateral_weth_oracle_address",
          "type": "address"
        },
        {
          "internalType": "address",
          "name": "_weth_address",
          "type": "address"
        }
      ],
      "name": "setCollatETHOracle",
      "outputs": [],
      "stateMutability": "nonpayable",
      "type": "function"
    },
    {
      "inputs": [
        {
          "internalType": "uint256",
          "name": "new_ceiling",
          "type": "uint256"
        },
        {
          "internalType": "uint256",
          "name": "new_bonus_rate",
          "type": "uint256"
        },
        {
          "internalType": "uint256",
          "name": "new_redemption_delay",
          "type": "uint256"
        },
        {
          "internalType": "uint256",
          "name": "new_mint_fee",
          "type": "uint256"
        },
        {
          "internalType": "uint256",
          "name": "new_redeem_fee",
          "type": "uint256"
        },
        {
          "internalType": "uint256",
          "name": "new_buyback_fee",
          "type": "uint256"
        },
        {
          "internalType": "uint256",
          "name": "new_recollat_fee",
          "type": "uint256"
        }
      ],
      "name": "setPoolParameters",
      "outputs": [],
      "stateMutability": "nonpayable",
      "type": "function"
    },
    {
      "inputs": [
        {
          "internalType": "address",
          "name": "new_timelock",
          "type": "address"
        }
      ],
      "name": "setTimelock",
      "outputs": [],
      "stateMutability": "nonpayable",
      "type": "function"
    },
    {
      "inputs": [],
      "name": "toggleBuyBack",
      "outputs": [],
      "stateMutability": "nonpayable",
      "type": "function"
    },
    {
      "inputs": [
        {
          "internalType": "uint256",
          "name": "_new_price",
          "type": "uint256"
        }
      ],
      "name": "toggleCollateralPrice",
      "outputs": [],
      "stateMutability": "nonpayable",
      "type": "function"
    },
    {
      "inputs": [],
      "name": "toggleMinting",
      "outputs": [],
      "stateMutability": "nonpayable",
      "type": "function"
    },
    {
      "inputs": [],
      "name": "toggleRecollateralize",
      "outputs": [],
      "stateMutability": "nonpayable",
      "type": "function"
    },
    {
      "inputs": [],
      "name": "toggleRedeeming",
      "outputs": [],
      "stateMutability": "nonpayable",
      "type": "function"
    },
    {
      "inputs": [],
      "name": "unclaimedPoolCollateral",
      "outputs": [
        {
          "internalType": "uint256",
          "name": "",
          "type": "uint256"
        }
      ],
      "stateMutability": "view",
      "type": "function"
    },
    {
      "inputs": [],
      "name": "unclaimedPoolFXS",
      "outputs": [
        {
          "internalType": "uint256",
          "name": "",
          "type": "uint256"
        }
      ],
      "stateMutability": "view",
      "type": "function"
    }
  ],
  "bytecode": {
    "object": "0x60a06040523462000079575b6200002662000019620001b6565b9493909392919262000435565b604051614f7462000db582396080518181816112cb015281816113d301528181611a1301528181611e130152818161290b01528181612cbe0152818161309a015281816139540152613d6d0152614f7490f35b62000082600080fd5b6200000b565b600080fd5b601f01601f191690565b50634e487b7160e01b600052604160045260246000fd5b90601f01601f191681019081106001600160401b03821117620000d057604052565b620000da62000097565b604052565b90620000f6620000ee60405190565b9283620000ae565b565b6001600160a01b031690565b90565b6001600160a01b0381165b036200008857565b90505190620000f68262000107565b8062000112565b90505190620000f68262000129565b909160c082840312620001a7575b6200015983836200011a565b926200016981602085016200011a565b926200017982604083016200011a565b92620001046200018d84606085016200011a565b936200019d81608086016200011a565b9360a00162000130565b620001b0600080fd5b6200014d565b620001d962005d2980380380620001cd81620000df565b9283398101906200013f565b909192939495565b90600019905b9181191691161790565b6200010462000104620001049290565b9062000215620001046200021d92620001f1565b8254620001e1565b9055565b9060ff90620001e7565b906200023e620001046200021d92151590565b825462000221565b9061ff009060081b620001e7565b9062000267620001046200021d92151590565b825462000246565b9062ff00009060101b620001e7565b9062000291620001046200021d92151590565b82546200026f565b9063ff0000009060181b620001e7565b90620002bc620001046200021d92151590565b825462000299565b9064ff000000009060201b620001e7565b90620002e8620001046200021d92151590565b8254620002c4565b620000f862000104620001049290565b6200010490620002f0565b0190565b156200031757565b60405162461bcd60e51b815260206004820152601560248201527f5a65726f206164647265737320646574656374656400000000000000000000006044820152606490fd5b0390fd5b6200010490620000f8906001600160a01b031682565b620001049062000360565b620001049062000376565b906001600160a01b0390620001e7565b90620003b0620001046200021d9262000381565b82546200038c565b6200010490620000f8565b620001049054620003b8565b60ff811662000112565b90505190620000f682620003cf565b90620001049160208183031215620003d95762000403600080fd5b620003d9565b506040513d6000823e3d90fd5b6200010462000104620001049260ff1690565b620001046000620001f1565b6200050d6200057c9593946200044b816200081d565b60006200045a81601662000201565b6200046781601762000201565b62000476611d4c601862000201565b620004846001601962000201565b6200049181601a6200022b565b6200049e81601a62000254565b620004ab81601a6200027e565b620004b881601a620002a9565b620004c581601a620002d5565b620004d08162000300565b906001600160a01b0382166001600160a01b03861614159283620007b1575b8362000792575b836200077a575b50826200075a575b50506200030f565b620005188162000381565b620005258160096200039c565b50620005318262000381565b6200053e8160086200039c565b506200054c8160056200039c565b506200055a8160066200039c565b50620005688260046200039c565b620005758160076200039c565b5062000381565b620005898160036200039c565b506200059781601662000201565b506200060a620005a86012620001f1565b62000603620005e16020620005c8620005c26003620003c3565b62000381565b63313ce56790620005d860405190565b93849260e01b90565b825260049082905afa9081156200074a575b60009162000715575b5062000416565b906200093d565b608052620006306200061b62000429565b62000629620005c2620008ad565b9062000b30565b620006697fc65532185ed70b2e999433e2e9fac124e083acb13ec183a4e05944da0792337b5b620006626007620003c3565b9062000ab3565b620006947fa84a5389ad41f9aab0831b01e5384cae76e7a7fd09131c206ff7927c201c385762000656565b620006bf7f8118eeb5231a5fe4008a55b62860f6a0db4f6c3ac04f8141927a9b3fedd86d2f62000656565b620006ea7f103da79ff3755ff7a17a557d28b73d37cb4de0b3c3cc02fa6c48df0f35071fbf62000656565b620000f67fbb2c68b8dc5bccdd2536307080a7865a7e133bf54e31d4d463b1b749b4bcf26d62000656565b6200073b915060203d811162000742575b620007328183620000ae565b810190620003e8565b38620005fc565b503d62000726565b6200075462000409565b620005f3565b506001600160a01b031690506001600160a01b0385161415388062000505565b6001600160a01b0383811691161415925038620004fd565b92506001600160a01b0382166001600160a01b038916141592620004f6565b92506001600160a01b0382166001600160a01b038716141592620004ef565b15620007d857565b60405162461bcd60e51b815260206004820152601960248201527f4f776e657220616464726573732063616e6e6f742062652030000000000000006044820152606490fd5b6000906200082b8262000300565b916200084c6001600160a01b0384166001600160a01b0384161415620007d0565b620008598260016200039c565b507fb532073b38c83145e3e5135377a08bf9aab55bc0fd7c1179cd4fb995d2a5159c91620008a86200088a60405190565b928392836001600160a01b0391821681529116602082015260400190565b0390a1565b620001043362000381565b6020906200030b906001600160401b038111620008d957601f01601f191690565b6200008d62000097565b90620008f9620008f383620008b8565b620000df565b918252565b6200090a601e620008e3565b7f536166654d6174683a207375627472616374696f6e206f766572666c6f770000602082015290565b62000104620008fe565b62000104916200094c62000933565b9162000a17565b60005b838110620009675750506000910152565b818101518382015260200162000956565b6200099d6200008d6020936200030b9362000991815190565b80835293849260200190565b9586910162000953565b6020808252620001049291019062000978565b15620009c35750565b6200035c90620009d260405190565b62461bcd60e51b815291829160048301620009a7565b50634e487b7160e01b600052601160045260246000fd5b9190820391821162000a0d57565b620000f6620009e8565b62000a34620001049362000a29600090565b5082841115620009ba565b620009ff565b620001049081565b62000104905462000a3a565b1562000a5657565b60405162461bcd60e51b815260206004820152602f60248201527f416363657373436f6e74726f6c3a2073656e646572206d75737420626520616e60448201526e0818591b5a5b881d1bc819dc985b9d608a1b6064820152608490fd5b90620000f69162000aff62000af962000ae4600262000add85600090600052602052604060002090565b0162000a42565b62000af2620005c2620008ad565b9062000b05565b62000a4e565b62000b37565b9062000b2a620001049262000b18600090565b50600090815260208190526040902090565b62000d91565b90620000f6915b9062000b5e8162000b5860006200030b868290600052602052604060002090565b62000bec565b62000b67575050565b62000b71620008ad565b9062000baa62000ba362000ba37f2f8788117e7eff1d82e926ec794901d17c78024a50270940304540a733656f0d9590565b9262000381565b9262000bb560405190565b600090a4565b620001049062000bd4906001600160a01b031660601b90565b6001600160601b03191690565b620001049062000bbb565b9062000c1c62000c1862000c126000620001049562000c09600090565b50019362000be1565b62000bd4565b9190565b62000ced565b50634e487b7160e01b600052603260045260246000fd5b62000c5c60019162000c49815490565b84101562000c6557600052602060002090565b91020190600090565b62000c6f62000c22565b600052602060002090565b9160001960089290920291821b911b620001e7565b919062000ca1620001046200021d9390565b90835462000c7a565b9062000cd6620000f6928054906801000000000000000082101562000cdd575b60018201815562000c39565b9062000c8f565b62000ce762000097565b62000cca565b9062000d0262000cfe828462000d50565b1590565b1562000d495760019162000d439162000d3d9062000d2a8362000d26838262000caa565b5490565b9485930190600052602052604060002090565b62000201565b50600190565b5050600090565b62000d7c91600162000d769262000d65600090565b500190600052602052604060002090565b62000a42565b62000d8c62000c186000620001f1565b141590565b9062000dae62000c1862000c126000620001049562000c09600090565b62000d5056fe60806040526004361015610018575b610016600080fd5b005b60003560e01c806308a7493d14610414578063101197c71461040b57806312ace5a21461040257806315128425146103f95780631627540c146103f057806317284c94146103e7578063248a9ca3146103de5780632f2ff15d146103d557806336568abe146103cc57806342d15aec146103c35780634c26203c146103ba5780634c634934146103b15780634ebbe762146103a857806350c9ecd91461039f57806353a47bb7146103965780635bb87b421461038d5780635bd8266314610384578063645af53c1461037b5780636526a12a14610372578063658445a8146103695780636d2c5615146103605780636f5db87f1461035757806379ba50971461034e5780637ad1f61b146103455780637b0461e91461033c5780637d55094d146103335780637e108af91461032a5780637e4831d3146103215780637f877f851461031857806383c7ded71461030f57806388d42cf2146103065780638baa4b9f146102fd5780638d2ac7a4146102f45780638da5cb5b146102eb5780639010d07c146102e257806391d14854146102d9578063a217fddf146102d0578063abae2c4c146102c7578063b235d468146102be578063bdacb303146102b5578063bdb345cb146102ac578063c3355b8d146102a3578063c74ec56a1461029a578063c76417d714610291578063ca15c87314610288578063cb73999f1461027f578063d547741f14610276578063daa504851461026d578063f61adab214610264578063f7683bbc1461025b5763fede5c9c0361000e5761025661102a565b61000e565b50610256610ff4565b50610256610fca565b50610256610fa3565b50610256610f7b565b50610256610f51565b50610256610f1b565b50610256610ef1565b50610256610eb5565b50610256610e7f565b50610256610e4b565b50610256610e24565b50610256610dfa565b50610256610dc4565b50610256610d88565b50610256610d3e565b50610256610d13565b50610256610ce9565b50610256610cb3565b50610256610c7d565b50610256610c49565b50610256610bf9565b50610256610bcf565b50610256610b99565b50610256610b65565b50610256610b3e565b50610256610b14565b50610256610ae1565b50610256610aba565b50610256610a92565b50610256610a55565b50610256610a07565b506102566109dd565b506102566109a9565b50610256610981565b50610256610928565b50610256610898565b5061025661084d565b5061025661081f565b50610256610781565b5061025661074b565b50610256610718565b506102566106f0565b506102566106c8565b5061025661066d565b50610256610613565b506102566105ec565b506102566105c2565b5061025661058a565b50610256610560565b50610256610503565b600080fd5b73ffffffffffffffffffffffffffffffffffffffff1690565b90565b73ffffffffffffffffffffffffffffffffffffffff81165b0361041d57565b9050359061046a8261043e565b565b9061043b916020818303121561045d57610484600080fd5b61045d565b61042261043b61043b9273ffffffffffffffffffffffffffffffffffffffff1690565b61043b90610489565b61043b906104ac565b906104c8906104b5565b600052602052604060002090565b61043b916008021c81565b9061043b91546104d6565b61043b906104fe6012916000926104be565b6104e1565b5034610534575b61053061052061051b36600461046c565b6104ec565b6040519182918290815260200190565b0390f35b61053c600080fd5b61050a565b600091031261054c57565b61046a600080fd5b61043b6000600f6104e1565b503461057d575b610572366004610541565b610530610520610554565b610585600080fd5b610567565b50346105a9575b61059c366004610541565b6105a4613600565b604051005b6105b1600080fd5b610591565b61043b600060196104e1565b50346105df575b6105d4366004610541565b6105306105206105b6565b6105e7600080fd5b6105c9565b5034610606575b6105a461060136600461046c565b61473d565b61060e600080fd5b6105f3565b5034610630575b610625366004610541565b610530610520611216565b610638600080fd5b61061a565b80610456565b9050359061046a8261063d565b9061043b916020818303121561064357610668600080fd5b610643565b503461068a575b610530610520610685366004610650565b614343565b610692600080fd5b610674565b919061043b906040848203126106bb575b6106b28185610643565b9360200161045d565b6106c3600080fd5b6106a8565b50346106e3575b6105a46106dd366004610697565b906143ee565b6106eb600080fd5b6106cf565b503461070b575b6105a4610705366004610697565b90614564565b610713600080fd5b6106f7565b5034610732575b61072a366004610541565b6105a4613fb1565b61073a600080fd5b61071f565b61043b600060146104e1565b5034610768575b61075d366004610541565b61053061052061073f565b610770600080fd5b610752565b61043b600060186104e1565b503461079e575b610793366004610541565b610530610520610775565b6107a6600080fd5b610788565b60e081830312610812575b6107c08282610643565b926107ce8360208401610643565b926107dc8160408501610643565b926107ea8260608301610643565b9261043b6107fb8460808501610643565b936108098160a08601610643565b9360c001610643565b61081a600080fd5b6107b6565b5034610840575b6105a46108343660046107ab565b9594909493919361428c565b610848600080fd5b610826565b5034610867575b61085f366004610541565b6105a4614054565b61086f600080fd5b610854565b61043b916008021c610422565b9061043b9154610874565b61043b60006002610881565b50346108dd575b6108aa366004610541565b6105306108b561088c565b6040515b9182918273ffffffffffffffffffffffffffffffffffffffff909116815260200190565b6108e5600080fd5b61089f565b909160608284031261091b575b61043b6109048484610643565b936109128160208601610643565b93604001610643565b610923600080fd5b6108f7565b5034610943575b6105a461093d3660046108ea565b91612aab565b61094b600080fd5b61092f565b919061043b90604084820312610974575b61096b8185610643565b93602001610643565b61097c600080fd5b610961565b503461099c575b6105a4610996366004610950565b90612083565b6109a4600080fd5b610988565b50346109c4575b6105a46109be366004610950565b90612e7c565b6109cc600080fd5b6109b0565b61043b600060166104e1565b50346109fa575b6109ef366004610541565b6105306105206109d1565b610a02600080fd5b6109e4565b5034610a22575b6105a4610a1c366004610950565b90613c8f565b610a2a600080fd5b610a0e565b61043b916008021c5b60ff1690565b9061043b9154610a2f565b61043b6002601a610a3e565b5034610a85575b610a67366004610541565b610530610a72610a49565b6040515b91829182901515815260200190565b610a8d600080fd5b610a5c565b5034610aad575b6105a4610aa7366004610950565b90613544565b610ab5600080fd5b610a99565b5034610ad4575b610acc366004610541565b6105a46147e8565b610adc600080fd5b610ac1565b5034610afb575b6105a4610af6366004610650565b6140f8565b610b03600080fd5b610ae8565b61043b600060136104e1565b5034610b31575b610b26366004610541565b610530610520610b08565b610b39600080fd5b610b1b565b5034610b58575b610b50366004610541565b6105a4613e5d565b610b60600080fd5b610b45565b5034610b80575b6105a4610b7a3660046108ea565b91613311565b610b88600080fd5b610b6c565b61043b6000601a610a3e565b5034610bb6575b610bab366004610541565b610530610a72610b8d565b610bbe600080fd5b610ba0565b61043b6003601a610a3e565b5034610bec575b610be1366004610541565b610530610a72610bc3565b610bf4600080fd5b610bd6565b5034610c14575b6105a4610c0e366004610950565b90613925565b610c1c600080fd5b610c00565b919061043b90604084820312610c3c575b6106b2818561045d565b610c44600080fd5b610c32565b5034610c64575b6105a4610c5e366004610c21565b90611c01565b610c6c600080fd5b610c50565b61043b6000600b610881565b5034610c9a575b610c8f366004610541565b6105306108b5610c71565b610ca2600080fd5b610c84565b61043b6004601a610a3e565b5034610cd0575b610cc5366004610541565b610530610a72610ca7565b610cd8600080fd5b610cba565b61043b60006001610881565b5034610d06575b610cfb366004610541565b6105306108b5610cdd565b610d0e600080fd5b610cf0565b5034610d31575b6105306108b5610d2b366004610950565b9061432e565b610d39600080fd5b610d1a565b5034610d5c575b610530610a72610d56366004610697565b906142f8565b610d64600080fd5b610d45565b61043b61043b61043b9290565b61043b6000610d69565b61043b610d76565b5034610da5575b610d9a366004610541565b610530610520610d80565b610dad600080fd5b610d8f565b61043b906104fe6015916000926104be565b5034610de1575b610530610520610ddc36600461046c565b610db2565b610de9600080fd5b610dcb565b61043b6001601a610a3e565b5034610e17575b610e0c366004610541565b610530610a72610dee565b610e1f600080fd5b610e01565b5034610e3e575b6105a4610e3936600461046c565b6142e9565b610e46600080fd5b610e2b565b5034610e66575b6105a4610e60366004610950565b906125e4565b610e6e600080fd5b610e52565b61043b6000600d6104e1565b5034610e9c575b610e91366004610541565b610530610520610e73565b610ea4600080fd5b610e86565b61043b600060176104e1565b5034610ed2575b610ec7366004610541565b610530610520610ea9565b610eda600080fd5b610ebc565b61043b906104fe6011916000926104be565b5034610f0e575b610530610520610f0936600461046c565b610edf565b610f16600080fd5b610ef8565b5034610f38575b610530610520610f33366004610650565b61431a565b610f40600080fd5b610f22565b61043b6000600e6104e1565b5034610f6e575b610f63366004610541565b610530610520610f45565b610f76600080fd5b610f58565b5034610f96575b6105a4610f90366004610697565b906144b3565b610f9e600080fd5b610f82565b5034610fbd575b610fb5366004610541565b6105a4613f0f565b610fc5600080fd5b610faa565b5034610fe7575b610fdc366004610541565b6105306105206117fa565b610fef600080fd5b610fd1565b5034611011575b611006366004610541565b610530610520611983565b611019600080fd5b610ffb565b61043b600060106104e1565b5034611047575b61103c366004610541565b61053061052061101e565b61104f600080fd5b611031565b61043b9060201c610a38565b61043b9054611054565b61043b90610422565b61043b905461106a565b601f017fffffffffffffffffffffffffffffffffffffffffffffffffffffffffffffffe01690565b507f4e487b7100000000000000000000000000000000000000000000000000000000600052604160045260246000fd5b90601f017fffffffffffffffffffffffffffffffffffffffffffffffffffffffffffffffe016810190811067ffffffffffffffff82111761111557604052565b61111d6110a5565b604052565b9050519061046a8261063d565b9061043b916020818303121561112257611147600080fd5b611122565b506040513d6000823e3d90fd5b61043b620f4240610d69565b507f4e487b7100000000000000000000000000000000000000000000000000000000600052601160045260246000fd5b604d81116111a4575b600a0a90565b6111ac611165565b61119e565b91906111bc565b9290565b918083029281840414901517156111cf57565b61046a611165565b73ffffffffffffffffffffffffffffffffffffffff909116815260408101929161046a9160200152565b0152565b61043b9081565b61043b9054611205565b611220601a611060565b61122c60015b91151590565b036113535761043b61130a6113006112c66112a1602061125461124f6003611073565b6104b5565b6370a082319061127d611266306104b5565b9261127060405190565b9586948593849360e01b90565b835273ffffffffffffffffffffffffffffffffffffffff1660048301526024820190565b03915afa908115611346575b600091611318575b506112c0601361120c565b90611589565b6112fa7f00000000000000000000000000000000000000000000000000000000000000006112f4600a610d69565b50611195565b90611749565b6112fa601761120c565b611312611159565b906117c7565b611339915060203d811161133f575b61133181836110d5565b81019061112f565b386112b5565b503d611327565b61134e61114c565b6112ad565b61043b611380602061136861124f6009611073565b63345ba24b9061137760405190565b93849260e01b90565b825260049082905afa9081156114cd575b6000916114af575b506114586113aa61124f600a611073565b61147b633ddac9536112fa6113bf600c611073565b61145d6113ca611159565b97600a948960207f0000000000000000000000000000000000000000000000000000000000000000956113fc89610d69565b9a61142c61141261140c8a611195565b866111b1565b9561143761141f60405190565b9788958694859460e01b90565b8452600484016111d7565b03915afa9182156114a2575b600092611480575b5081926114589250611749565b6117c7565b946114736112a1602061125461124f6003611073565b935050611195565b611749565b611458925061149c9060203d811161133f5761133181836110d5565b9161144b565b6114aa61114c565b611443565b6114c7915060203d811161133f5761133181836110d5565b38611399565b6114d561114c565b611391565b9061046a6114e760405190565b92836110d5565b61152b60209167ffffffffffffffff811161152f57601f017fffffffffffffffffffffffffffffffffffffffffffffffffffffffffffffffe01690565b0190565b61107d6110a5565b90611549611544836114ee565b6114da565b918252565b611558601e611537565b7f536166654d6174683a207375627472616374696f6e206f766572666c6f770000602082015290565b61043b61154e565b61043b91611595611581565b9161164e565b60005b8381106115ae5750506000910152565b818101518382015260200161159e565b6115df61107d60209361152b936115d3815190565b80835293849260200190565b9586910161159b565b602080825261043b929101906115be565b156116015750565b61163d9061160e60405190565b9182917f08c379a0000000000000000000000000000000000000000000000000000000008352600483016115e8565b0390fd5b919082039182116111cf57565b61166761043b9361165d600090565b50828411156115f9565b611641565b507f4e487b7100000000000000000000000000000000000000000000000000000000600052601260045260246000fd5b906116a6565b9190565b9081156116b1570490565b6116b961166c565b0490565b156116c457565b6040517f08c379a000000000000000000000000000000000000000000000000000000000815260206004820152602160248201527f536166654d6174683a206d756c7469706c69636174696f6e206f766572666c6f60448201527f77000000000000000000000000000000000000000000000000000000000000006064820152608490fd5b90600061175581610d69565b8314611780575061043b9061177a6116a26111b861177384876111b1565b958661169c565b146116bd565b61043b92509050610d69565b611796601a611537565b7f536166654d6174683a206469766973696f6e206279207a65726f000000000000602082015290565b61043b61178c565b61043b916117d36117bf565b916117f561043b936117e3600090565b506117ee6000610d69565b84116115f9565b61169c565b61181b602061180c61124f6009611073565b6318160ddd9061137760405190565b825260049082905afa908115611976575b600091611958575b5061189b611859602061184a61124f6009611073565b632eb9771b9061137760405190565b825260049082905afa90811561194b575b60009161192d575b5080602061188361124f6009611073565b63d2d97b069061189260405190565b95869260e01b90565b825260049082905afa928315611920575b6000936118f8575b5091926118d392611458916118c7611159565b9384106118f057611749565b808211156118e45761043b91611589565b505061043b6000610d69565b839150611749565b6118d39350906119186114589260203d811161133f5761133181836110d5565b9350906118b4565b61192861114c565b6118ac565b611945915060203d811161133f5761133181836110d5565b38611872565b61195361114c565b61186a565b611970915060203d811161133f5761133181836110d5565b38611834565b61197e61114c565b61182c565b61198d601a611060565b6119976001611226565b036119a65761043b601761120c565b61043b6119bb602061136861124f6009611073565b825260049082905afa908115611ab4575b600091611a96575b506119e76119e0611159565b8092611749565b60206119f661124f600a611073565b92633ddac9539361142c611a42611a0d600c611073565b93611a3c7f00000000000000000000000000000000000000000000000000000000000000006112f4600a610d69565b906111b1565b95611a4f61141f60405190565b03915afa918215611a89575b600092611a69575b506117c7565b611a8291925060203d811161133f5761133181836110d5565b9038611a63565b611a9161114c565b611a5b565b611aae915060203d811161133f5761133181836110d5565b386119d4565b611abc61114c565b6119cc565b15611ac857565b6040517f08c379a000000000000000000000000000000000000000000000000000000000815260206004820152601560248201527f4e6f74206f776e6572206f722074696d656c6f636b00000000000000000000006044820152606490fd5b9061046a91611b6333611b3d6104226007611073565b73ffffffffffffffffffffffffffffffffffffffff821614908115611b68575b50611ac1565b611bd8565b9050611b94611b7a6104226001611073565b9173ffffffffffffffffffffffffffffffffffffffff1690565b1438611b5d565b9073ffffffffffffffffffffffffffffffffffffffff905b9181191691161790565b90611bcd61043b611bd4926104b5565b8254611b9b565b9055565b611be79061124f81600b611bbd565b611bf281600a611bbd565b50611bfe81600c611bbd565b50565b9061046a91611b27565b61043b90610a38565b61043b9054611c0b565b15611c2557565b6040517f08c379a000000000000000000000000000000000000000000000000000000000815260206004820152601160248201527f4d696e74696e67206973207061757365640000000000000000000000000000006044820152606490fd5b9061046a91611ca6611c96601a611c14565b611ca06000611226565b14611c1e565b611df4565b15611cb257565b6040517f08c379a000000000000000000000000000000000000000000000000000000000815260206004820152601d60248201527f436f6c6c61746572616c20726174696f206d757374206265203e3d20310000006044820152606490fd5b15611d1857565b6040517f08c379a00000000000000000000000000000000000000000000000000000000081528061163d600482016020808252818101527f5b506f6f6c277320436c6f7365645d3a204365696c696e672072656163686564604082015260600190565b90815260408101929161046a9160200152565b15611d9557565b6040517f08c379a000000000000000000000000000000000000000000000000000000000815260206004820152601660248201527f536c697070616765206c696d69742072656163686564000000000000000000006044820152606490fd5b611eab611f9d60009261127d611f86611f7b611e3e611e38600a6112f47f000000000000000000000000000000000000000000000000000000000000000091610d69565b856111b1565b611e81611e53602061184a61124f6009611073565b825260049082905afa908115612076575b8a91612058575b50611e7a6116a261043b611159565b1015611cab565b611ef0611ed986611ed4611eb76020611e9d61124f6003611073565b6370a0823190309e8f6104b5565b9b8c9261127060405190565b03915afa90811561204b575b8d9161131857506112c0601361120c565b6122ed565b611ee96116a261043b601661120c565b1115611d11565b6020635413e19273__$571716a5d01ec01c99bbe93c2658918371$__611f31611f17611983565b92611f3c611f2460405190565b9687958694859460e01b90565b845260048401611d7b565b03915af490811561203e575b8891612020575b50620f4240611f74611f6082610d69565b926112fa611f6e600d61120c565b85611589565b90506117c7565b9687905b1115611d8e565b611f9361124f6003611073565b33945084906121d2565b611faa61124f6009611073565b61142c8363b4f56b26833b15612013575b611fd4611fc760405190565b9788968795869460e01b90565b03925af18015612006575b611fe65750565b61046a9060005b611ff781836110d5565b810190610541565b503d611fed565b61200e61114c565b611fdf565b61201b600080fd5b611fbb565b612038915060203d811161133f5761133181836110d5565b38611f4f565b61204661114c565b611f48565b61205361114c565b611ec3565b612070915060203d811161133f5761133181836110d5565b38611e6b565b61207e61114c565b611e64565b9061046a91611c84565b6120a061209a61043b9290565b60e01b90565b7fffffffff000000000000000000000000000000000000000000000000000000001690565b73ffffffffffffffffffffffffffffffffffffffff91821681529116602082015260608101929161046a9160400152565b3d15612110576121053d611537565b903d6000602084013e565b606090565b801515610456565b9050519061046a82612115565b9061043b916020818303121561211d57612142600080fd5b61211d565b1561214e57565b6040517f08c379a0000000000000000000000000000000000000000000000000000000008152602060048201526024808201527f5472616e7366657248656c7065723a205452414e534645525f46524f4d5f464160448201527f494c4544000000000000000000000000000000000000000000000000000000006064820152608490fd5b600461221a6000949361220b61046a9787966121f16323b872dd61208d565b936121fb60405190565b96879560208701908152016120c5565b602082018103825203826110d5565b82602082019151925af161222c6120f6565b81612238575b50612147565b805190915061224a6116a26000610d69565b1490811561225a575b5038612232565b61227491506020612269825190565b81830101910161212a565b38612253565b919082018092116111cf57565b1561228e57565b6040517f08c379a000000000000000000000000000000000000000000000000000000000815260206004820152601b60248201527f536166654d6174683a206164646974696f6e206f766572666c6f7700000000006044820152606490fd5b906123076111b861043b92612300600090565b508461227a565b821015612287565b9061046a91612321611c96601a611c14565b61238c565b1561232d57565b6040517f08c379a000000000000000000000000000000000000000000000000000000000815260206004820152601a60248201527f436f6c6c61746572616c20726174696f206d75737420626520300000000000006044820152606490fd5b906123ed612428926123b560206123a661124f6009611073565b63e7dced679061137760405190565b825260049082905afa9081156125d7575b6000916125b9575b5060206123de61124f6009611073565b632eb9771b9061189260405190565b825260049082905afa9283156125ac575b600093612580575b5061247582602061247d9360009889976124226116a28a610d69565b14612326565b73__$571716a5d01ec01c99bbe93c2658918371$__611f3163ce032cc1612451611f2460405190565b03915af4908115612573575b6000916120205750620f4240611f74611f6082610d69565b938490611f7f565b6124bf8261248e61124f6008611073565b3393906124b38363a8a778ae833b15612566575b6040515b9687958694859360e01b90565b835289600484016111d7565b03925af18015612559575b61253d575b506124dd61124f6009611073565b61142c8363b4f56b26833b15612530575b6124fa611fc760405190565b03925af18015612523575b61250d575050565b8161046a92903d10611fff57611ff781836110d5565b61252b61114c565b612505565b612538600080fd5b6124ee565b61255390833d8511611fff57611ff781836110d5565b386124cf565b61256161114c565b6124ca565b61256e600080fd5b6124a2565b61257b61114c565b61245d565b61247d9193508260206125a261247593823d811161133f5761133181836110d5565b9593505050612406565b6125b461114c565b6123fe565b6125d1915060203d811161133f5761133181836110d5565b386123ce565b6125df61114c565b6123c6565b9061046a9161230f565b9061046a9291612601611c96601a611c14565b6127b4565b1561260d57565b6040517f08c379a000000000000000000000000000000000000000000000000000000000815260206004820152603860248201527f436f6c6c61746572616c20726174696f206e6565647320746f2062652062657460448201527f7765656e202e30303030303120616e64202e39393939393900000000000000006064820152608490fd5b1561269957565b6040517f08c379a000000000000000000000000000000000000000000000000000000000815260206004820152604560248201527f506f6f6c206365696c696e6720726561636865642c206e6f206d6f726520465260448201527f41582063616e206265206d696e7465642077697468207468697320636f6c6c6160648201527f746572616c000000000000000000000000000000000000000000000000000000608482015260a490fd5b61043b60a06114da565b1561275557565b6040517f08c379a000000000000000000000000000000000000000000000000000000000815260206004820152601760248201527f4e6f7420656e6f7567682046585320696e7075747465640000000000000000006044820152606490fd5b6127df9060206127c761124f6009611073565b63e7dced67906127d660405190565b94859260e01b90565b825260049082905afa918215612a9e575b600092612a7c575b50819261280f925060206123de61124f6009611073565b825260049082905afa928315612a6f575b600093612a4d575b50819061283661043b611159565b841080612a36575b61284790612606565b816128526003611073565b61285b906104b5565b9130906370a0823161286c836104b5565b9461287660405190565b60e09290921b825273ffffffffffffffffffffffffffffffffffffffff86166004830152816024815a93602094fa9182156116a29b611f7f61298f60009d8e9d612989612934611f9d9f6129066128ef6129a19f611ed46129ae9f6129a69f61043b9e6113465760009161131857506112c0601361120c565b6128ff6116a261043b601661120c565b1115612692565b611a3c7f00000000000000000000000000000000000000000000000000000000000000006112f4600a610d69565b9161298273__$571716a5d01ec01c99bbe93c2658918371$__93612970612959611983565b612969612964612744565b988952565b6020880152565b61297b8b6040880152565b6060860152565b6080840152565b5061489d565b9890620f4240611f74611f6082610d69565b9d8e90565b83111561274e565b6129e8866129bf61124f6008611073565b9363a8a778ae946129dc339a8b97833b15612566576040516124a6565b83528a600484016111d7565b03925af18015612a29575b612a0d575b50612a0661124f6003611073565b90506121d2565b612a2390883d8111611fff57611ff781836110d5565b386129f8565b612a3161114c565b6129f3565b50612847612a446000610d69565b8511905061283e565b82919350612a689060203d811161133f5761133181836110d5565b9290612828565b612a7761114c565b612820565b61280f9250612a989060203d811161133f5761133181836110d5565b916127f8565b612aa661114c565b6127f0565b9061046a92916125ee565b61043b9060081c610a38565b61043b9054612ab6565b15612ad357565b6040517f08c379a000000000000000000000000000000000000000000000000000000000815260206004820152601360248201527f52656465656d696e6720697320706175736564000000000000000000000000006044820152606490fd5b9061046a91612b54612b44601a612ac2565b612b4e6000611226565b14612acc565b612c64565b15612b6057565b6040517f08c379a000000000000000000000000000000000000000000000000000000000815260206004820152601d60248201527f436f6c6c61746572616c20726174696f206d757374206265203d3d20310000006044820152606490fd5b15612bc657565b6040517f08c379a000000000000000000000000000000000000000000000000000000000815260206004820152601d60248201527f4e6f7420656e6f75676820636f6c6c61746572616c20696e20706f6f6c0000006044820152606490fd5b907fffffffffffffffffffffffffffffffffffffffffffffffffffffffffffffffff90611bb3565b90612c5d61043b611bd492610d69565b8254612c25565b90612dc8612dd3600092612cb0612c83602061184a61124f6009611073565b825260049082905afa908115612e6f575b8691612e51575b50612caa6116a261043b611159565b14612b59565b612d9c612d53612ced612ce77f00000000000000000000000000000000000000000000000000000000000000006112f4600a610d69565b886117c7565b6020630f41b45273__$571716a5d01ec01c99bbe93c2658918371$__611f31612d14611983565b92612d21611f2460405190565b03915af4908115612e44575b8791612e26575b50620f4240611f74612d4582610d69565b926112fa611f6e600e61120c565b91612d95612d8c61043b612d6f602061125461124f6003611073565b03915afa908115612e19575b8a9161131857506112c0601361120c565b845b1115612bbf565b8290611f7f565b6012339381612dc3612dbb85611ed4612db68a80986104be565b61120c565b9384926104be565b612c4d565b50611ed4601361120c565b612dde816013612c4d565b5043612def81612dc38460156104be565b50612dfd61124f6009611073565b61142c8363a8a778ae833b1561201357611fd4611fc760405190565b612e2161114c565b612d7b565b612e3e915060203d811161133f5761133181836110d5565b38612d34565b612e4c61114c565b612d2d565b612e69915060203d811161133f5761133181836110d5565b38612c9b565b612e7761114c565b612c94565b9061046a91612b32565b9061046a9291612e99612b44601a612ac2565b612f90565b15612ea557565b6040517f08c379a000000000000000000000000000000000000000000000000000000000815260206004820152602360248201527f536c697070616765206c696d69742072656163686564205b636f6c6c6174657260448201527f616c5d00000000000000000000000000000000000000000000000000000000006064820152608490fd5b15612f3157565b6040517f08c379a000000000000000000000000000000000000000000000000000000000815260206004820152601c60248201527f536c697070616765206c696d69742072656163686564205b4658535d000000006044820152606490fd5b91612fbc926020612fa461124f6009611073565b63e7dced6790612fb360405190565b96879260e01b90565b825260049082905afa938415613304575b6000946132e4575b50612fe8602061184a61124f6009611073565b825260049082905afa9081156132d7575b6000916132b9575b5061300d61043b611159565b8110806132a2575b61301e90612606565b613026611983565b90613033620f4240610d69565b61303d600e61120c565b61304691611589565b6130509084611749565b90613059611159565b9182613064916117c7565b9661306f8289611749565b83613079916117c7565b6130839089611589565b8361308d91611749565b90613097916117c7565b967f00000000000000000000000000000000000000000000000000000000000000006130c3600a610d69565b506130cd90611195565b6130d6916117c7565b906130e091611749565b816130ea916117c7565b906130f491611749565b906130fe916117c7565b906131096003611073565b613112906104b5565b9230926370a08231613123856104b5565b9561312d60405190565b60e09290921b825273ffffffffffffffffffffffffffffffffffffffff87166004830152816024815a93602094fa91821560009861319f8a9661319761319161043b612dc8996131a799612d9c98613295575b8c9161131857506112c0601361120c565b86612d8e565b841015612e9e565b8a1015612f2a565b6131b2816013612c4d565b50806131cd6011612dc3612dbb8b611ed4612db687866104be565b506131dc87611ed4601461120c565b6131e7816014612c4d565b50436131f881612dc38460156104be565b5061320661124f6009611073565b61142c8363a8a778ae833b15613288575b613223611fc760405190565b03925af1801561327b575b61325f575b5061142c8361324561124f6008611073565b925063b4f56b26833b1561201357611fd4611fc760405190565b61327590843d8111611fff57611ff781836110d5565b38613233565b61328361114c565b61322e565b613290600080fd5b613217565b61329d61114c565b613180565b5061301e6132b06000610d69565b82119050613015565b6132d1915060203d811161133f5761133181836110d5565b38613001565b6132df61114c565b612ff9565b6132fd91945060203d811161133f5761133181836110d5565b9238612fd5565b61330c61114c565b612fcd565b9061046a9291612e86565b9061046a9161332e612b44601a612ac2565b906133b59161338061334860206123a661124f6009611073565b825260049082905afa908115613537575b600091613519575b50602061337161124f6009611073565b632eb9771b906127d660405190565b825260049082905afa91821561350c575b6000926134e0575b5061343a6133ec6134079260009788956124226116a288610d69565b6114586133da6133d46133ca620f4240610d69565b6112c0600e61120c565b88611749565b61147b6133e5611159565b80926117c7565b946011339381612dc3612dbb8a611ed4612db68a80986104be565b5061341686611ed4601461120c565b613421816014612c4d565b504361343281612dc38660156104be565b508590611f7f565b61344761124f6009611073565b61142c8363a8a778ae833b156134d3575b613464611fc760405190565b03925af180156134c6575b6134aa575b508161348361124f6008611073565b63b4f56b269061142c83613496306104b5565b93833b15612530576124fa611fc760405190565b6134c090833d8511611fff57611ff781836110d5565b38613474565b6134ce61114c565b61346f565b6134db600080fd5b613458565b6134079192506133ec61350361343a9260203d811161133f5761133181836110d5565b93925050613399565b61351461114c565b613391565b613531915060203d811161133f5761133181836110d5565b38613361565b61353f61114c565b613359565b9061046a9161331c565b1561355557565b6040517f08c379a000000000000000000000000000000000000000000000000000000000815260206004820152604260248201527f4d757374207761697420666f7220726564656d7074696f6e5f64656c6179206260448201527f6c6f636b73206265666f726520636f6c6c656374696e6720726564656d70746960648201527f6f6e000000000000000000000000000000000000000000000000000000000000608482015260a490fd5b3361362d613625613615612db68460156104be565b61361f601961120c565b906122ed565b43101561354e565b6000808061363a81610d69565b90819360118361365061043b612db68a856104be565b11613705575b506012613666612db688836104be565b6136726116a284610d69565b116136b6575b505061369e575b50613688575050565b61046a9161369961124f6003611073565b6137b1565b6136b0908461369961124f6008611073565b3861367f565b9094509092506136ef90856136df6136d1612db683856104be565b92612dc3612dbb8599610d69565b506136ea601361120c565b611589565b6136fa816013612c4d565b506001918238613678565b92509050613736613719612db687856104be565b8661372b8295612dc3612dbb87610d69565b506136ea601461120c565b613741816014612c4d565b5060019081613656565b1561375257565b6040517f08c379a000000000000000000000000000000000000000000000000000000000815260206004820152601f60248201527f5472616e7366657248656c7065723a205452414e534645525f4641494c4544006044820152606490fd5b6000919060046137ea849361220b61046a976137d063a9059cbb61208d565b926137da60405190565b95869460208601908152016111d7565b82602082019151925af16137fc6120f6565b81613808575b5061374b565b805190915061381a6116a26000610d69565b1490811561382a575b5038613802565b61383991506020612269825190565b38613823565b61043b9060101c610a38565b61043b905461383f565b1561385c57565b6040517f08c379a000000000000000000000000000000000000000000000000000000000815260206004820152601960248201527f5265636f6c6c61746572616c697a6520697320706175736564000000000000006044820152606490fd5b919061043b906040848203126138df575b6138d68185611122565b93602001611122565b6138e7600080fd5b6138cc565b9095949261046a9461391e6112019261391760809661391060a088019c6000890152565b6020870152565b6040850152565b6060830152565b9061394f91613a216139b161393a601a61384b565b60009586949161394986611226565b14613855565b600a907f00000000000000000000000000000000000000000000000000000000000000009061398a61398084610d69565b91611a3c84611195565b602061399961124f6009611073565b63e7dced67906139a860405190565b97889260e01b90565b825260049082905afa948515613bfc575b600095613bdc575b506139e0613348602061180c61124f6009611073565b825260049082905afa918215613bcf575b600092613baf575b506020613a0961124f6009611073565b63d2d97b0690613a1860405190565b9a8b9260e01b90565b825260049082905afa978815613ba2575b600098613b77575b5090613a8760409392613a92613a6173__$571716a5d01ec01c99bbe93c2658918371$__90565b936306058f4a92613a70611983565b9c613a7a60405190565b9d8e988997889760e01b90565b8752600487016138ec565b03915af4928315613b6a575b6000958694613b1d575b5083611312613aed969461145894613ac69461247598505050611195565b946112fa613ae3613ad9620f4240610d69565b61361f601861120c565b6112c0601061120c565b613b10613afd61124f6003611073565b91339283613b0a306104b5565b916121d2565b6124dd61124f6008611073565b611458929650612475945090611312613aed9694613b54613ac69460403d8111613b63575b613b4c81836110d5565b8101906138bb565b99955096509496505090613aa8565b503d613b42565b613b7261114c565b613a9e565b60409392919850613b98613a879160203d811161133f5761133181836110d5565b9891929350613a3a565b613baa61114c565b613a32565b613bc891925060203d811161133f5761133181836110d5565b90386139f9565b613bd761114c565b6139f1565b613bf591955060203d811161133f5761133181836110d5565b93386139ca565b613c0461114c565b6139c2565b61043b9060181c610a38565b61043b9054613c09565b15613c2657565b6040517f08c379a000000000000000000000000000000000000000000000000000000000815260206004820152601160248201527f4275796261636b206973207061757365640000000000000000000000000000006044820152606490fd5b61043b60806114da565b9061046a91613c9e601a613c15565b600090613cb490613cae83611226565b14613c1f565b613d96612475613d68613d4a613cd260206123a661124f6009611073565b825260049082905afa908115613e29575b600091613e0b575b5073__$571716a5d01ec01c99bbe93c2658918371$__613d39613d0c6117fa565b92613d32613d18611983565b91613d2b613d24613c85565b968c880152565b6020860152565b6040840152565b613d44886060840152565b50614a43565b620f4240611f74613d5a82610d69565b926112fa611f6e600f61120c565b6113127f00000000000000000000000000000000000000000000000000000000000000006112f4600a610d69565b613dc281613da761124f6008611073565b3394906129dc8363a8a778ae833b15612566576040516124a6565b03925af18015613dfe575b613de1575b505061369961124f6003611073565b81613df792903d10611fff57611ff781836110d5565b3880613dd2565b613e0661114c565b613dcd565b613e23915060203d811161133f5761133181836110d5565b38613ceb565b613e3161114c565b613ce3565b1561041d57565b9060ff90611bb3565b90613e5661043b611bd492151590565b8254613e3d565b613e91613e8c7fc65532185ed70b2e999433e2e9fac124e083acb13ec183a4e05944da0792337b5b33906142f8565b613e36565b613ea2613e9e601a611c14565b1590565b613ead81601a613e46565b50613eb8601a611c14565b613ee67f6bdfe227d5db299c59aa56d5f846f40dbd73b271aaa78e18ed74fc3e00b8aa6b91610a7660405190565b0390a1565b9061ff009060081b611bb3565b90613f0861043b611bd492151590565b8254613eeb565b613f3b613e8c7fa84a5389ad41f9aab0831b01e5384cae76e7a7fd09131c206ff7927c201c3857613e85565b613f48613e9e601a612ac2565b613f5381601a613ef8565b50613f5e601a612ac2565b613ee67f5860c5063a65e23cea4e2e2925f1a841bb6d1bc9615bd425f8dd084980b0514191610a7660405190565b9062ff00009060101b611bb3565b90613faa61043b611bd492151590565b8254613f8c565b613fdd613e8c7f8118eeb5231a5fe4008a55b62860f6a0db4f6c3ac04f8141927a9b3fedd86d2f613e85565b613fea613e9e601a61384b565b613ff581601a613f9a565b50614000601a61384b565b613ee67f2fda313d9b5bb0b73bd003153f2fccbc0dca49791fdd1184dfad82b44f54bd2e91610a7660405190565b9063ff0000009060181b611bb3565b9061404d61043b611bd492151590565b825461402e565b614080613e8c7f103da79ff3755ff7a17a557d28b73d37cb4de0b3c3cc02fa6c48df0f35071fbf613e85565b61408d613e9e601a613c15565b61409881601a61403d565b506140a3601a613c15565b613ee67f4f40fd1c59f78d7a2220da638cd9400daba01e57c7965702f390bf13133cc31f91610a7660405190565b9064ff000000009060201b611bb3565b906140f161043b611bd492151590565b82546140d1565b614124613e8c7fbb2c68b8dc5bccdd2536307080a7865a7e133bf54e31d4d463b1b749b4bcf26d613e85565b61412e601a611060565b60009061413a82611226565b0361419e575061414b816017612c4d565b505b61415a613e9e601a611060565b61416581601a6140e1565b50614170601a611060565b613ee67fbf1f9e6d8d67bb57a141c627f40368ec23ed7603249f0c3518c16eafbf9c4f6f91610a7660405190565b6141a89150610d69565b6141b3816017612c4d565b5061414d565b9061046a9695949392916141d433611b3d6104226007611073565b93613ee6939692969591956141ea866016612c4d565b6141f5876018612c4d565b614200886019612c4d565b61420b81600d612c4d565b61421682600e612c4d565b61422183600f612c4d565b61422c846010612c4d565b7f17fe98b66d27bd793ea01bd8a23a54acab8eeb167d9eb016a0c7cd71c573920c9761425760405190565b9788978890815260e081019796959094909390929091602086015260408501526060840152608083015260a082015260c00152565b9061046a9695949392916141b9565b61046a906142b033611b3d6104226007611073565b6142bb816007611bbd565b613ee67f7e7ee4175d63f671fac3401d5f401ed18d1f48a586e756f404d5696fc77a7058916108b960405190565b61046a9061429b565b906104c8565b9061431561043b92614308600090565b5061152b600091826142f2565b614e17565b61432961043b91614308600090565b614e34565b9061433e61043b92614308600090565b614e73565b600261435c61043b92614354600090565b5060006142f2565b0161120c565b1561436957565b6040517f08c379a000000000000000000000000000000000000000000000000000000000815260206004820152602f60248201527f416363657373436f6e74726f6c3a2073656e646572206d75737420626520616e60448201527f2061646d696e20746f206772616e7400000000000000000000000000000000006064820152608490fd5b9061046a91614419614414614409600261435c8560006142f2565b610d5661124f61441e565b614362565b614594565b61043b336104b5565b1561442e57565b6040517f08c379a000000000000000000000000000000000000000000000000000000000815260206004820152603060248201527f416363657373436f6e74726f6c3a2073656e646572206d75737420626520616e60448201527f2061646d696e20746f207265766f6b65000000000000000000000000000000006064820152608490fd5b9061046a916144d36144ce614409600261435c8560006142f2565b614427565b614602565b156144df57565b6040517f08c379a000000000000000000000000000000000000000000000000000000000815260206004820152602f60248201527f416363657373436f6e74726f6c3a2063616e206f6e6c792072656e6f756e636560448201527f20726f6c657320666f722073656c6600000000000000000000000000000000006064820152608490fd5b9061046a916144d361457761124f61441e565b73ffffffffffffffffffffffffffffffffffffffff8416146144d8565b906145ad816145a8600061152b86826142f2565b614b1a565b6145b5575050565b6145bd61441e565b906145f26145ec6145ec7f2f8788117e7eff1d82e926ec794901d17c78024a50270940304540a733656f0d9590565b926104b5565b926145fc60405190565b600090a4565b9061461b81614616600061152b86826142f2565b614cab565b614623575050565b61462b61441e565b906145f26145ec6145ec7ff6391f5c32d9c69d2a47ea670b442974b53935d1edc7fd64eb21e047a839171b9590565b1561466157565b6040517f08c379a000000000000000000000000000000000000000000000000000000000815260206004820152602f60248201527f4f6e6c792074686520636f6e7472616374206f776e6572206d6179207065726660448201527f6f726d207468697320616374696f6e00000000000000000000000000000000006064820152608490fd5b61046a90614704336146fe611b7a6104226001611073565b1461465a565b61470f816002611bbd565b613ee67f906a1c6bd7e3091ea86693dd029a831c19049ce77f1dce2ce0bab1cacbabce22916108b960405190565b61046a906146e6565b1561474d57565b6040517f08c379a000000000000000000000000000000000000000000000000000000000815260206004820152603560248201527f596f75206d757374206265206e6f6d696e61746564206265666f726520796f7560448201527f2063616e20616363657074206f776e65727368697000000000000000000000006064820152608490fd5b61042261043b61043b9290565b61043b906147d2565b614802336147fc611b7a6104226002611073565b14614746565b61480c6001611073565b6148166002611073565b7fb532073b38c83145e3e5135377a08bf9aab55bc0fd7c1179cd4fb995d2a5159c9161486f61484460405190565b9283928373ffffffffffffffffffffffffffffffffffffffff91821681529116602082015260400190565b0390a161487c6002611073565b614887816001611bbd565b5061489260006147df565b611bfe816002611bbd565b906116a26148ac604084015190565b6149256148bf60008601926112fa845190565b94611312620f4240936148db6148d486610d69565b80996117c7565b5061491f6148fb896114586148f1606088015190565b60208801516112fa565b986149178a6136ea61490d8483611749565b6080890151611312565b965086611749565b92505190565b936122ed565b1561493257565b6040517f08c379a000000000000000000000000000000000000000000000000000000000815260206004820152602160248201527f4e6f2065786365737320636f6c6c61746572616c20746f20627579206261636b60448201527f21000000000000000000000000000000000000000000000000000000000000006064820152608490fd5b156149be57565b6040517f08c379a000000000000000000000000000000000000000000000000000000000815260206004820152603060248201527f596f752061726520747279696e6720746f20627579206261636b206d6f72652060448201527f7468616e207468652065786365737321000000000000000000000000000000006064820152608490fd5b61043b906113126040614abd614a57845190565b614a6f600091614a696116a284610d69565b1161492b565b614a87614a7d606087015190565b60208701516112fa565b90620f4240614ab7614aaf61043b614aa8614aa185610d69565b80976117c7565b948a015190565b8311156149b7565b50611749565b92015190565b614aec614ae661043b9273ffffffffffffffffffffffffffffffffffffffff1690565b60601b90565b7fffffffffffffffffffffffffffffffffffffffff0000000000000000000000001690565b61043b90614ac3565b90614b3f6116a2614b3a600061043b95614b32600090565b500193614b11565b614aec565b614c3a565b507f4e487b7100000000000000000000000000000000000000000000000000000000600052603260045260246000fd5b614b94600191614b82815490565b841015614b9d57600052602060002090565b91020190600090565b614ba5614b44565b600052602060002090565b91906008611bb3910291614be37fffffffffffffffffffffffffffffffffffffffffffffffffffffffffffffffff841b90565b921b90565b9190614bf761043b611bd49390565b908354614bb0565b90614c2761046a9280549068010000000000000000821015614c2d575b600182018155614b74565b90614be8565b614c356110a5565b614c1c565b90614c48613e9e8284614c80565b15614c7957600191614c7391612dc390614c6a83614c668382614bff565b5490565b948593016142f2565b50600190565b5050600090565b614c99916001612db692614c92600090565b50016142f2565b614ca66116a26000610d69565b141590565b90614cc36116a2614b3a600061043b95614b32600090565b614d57565b507f4e487b7100000000000000000000000000000000000000000000000000000000600052603160045260246000fd5b61046a91600091614be8565b6001614d0e825490565b8015614d2d575b0390614d2a614d248383614b74565b90614cf8565b55565b614d35614cc8565b614d15565b9190614bf761043b611bd493610d69565b61046a91600091614d3a565b614d67612db683600184016142f2565b91600091614d7483610d69565b8414614e0f5761043b9291614e0a91614d98600196614d9288610d69565b90611641565b90614e04614dff868301614dea614dcc614dc6614dc08d614d92614dba875490565b91610d69565b84614b74565b906104e1565b95614ddb87614c278386614b74565b614de48c610d69565b9061227a565b614dfb81612dc38d880198896142f2565b5090565b614d04565b506142f2565b614d4b565b509092915050565b90614e2f6116a2614b3a600061043b95614b32600090565b614c80565b614e4a600061043b92614e45600090565b500190565b600061043b91614e58600090565b50015490565b61043b9060601c610489565b61043b90614e5e565b614b3a61043b92614e8b6000614e9094614e45600090565b614f21565b614e6a565b15614e9c57565b6040517f08c379a000000000000000000000000000000000000000000000000000000000815260206004820152602260248201527f456e756d657261626c655365743a20696e646578206f7574206f6620626f756e60448201527f64730000000000000000000000000000000000000000000000000000000000006064820152608490fd5b61043b91614dc69180548190614f38908410614e95565b50614b7456fea2646970667358221220ff870e4b1008e59dffcaeaacb773ba0b864b61d4f42cbeaafac34d19fee3ec1064736f6c63430008110033",
    "linkReferences": {
      "lib/frax-solidity/src/hardhat/contracts/Staking/../Frax/Pools/FraxPoolLibrary.sol": {
        "FraxPoolLibrary": [
          {
            "start": 11438,
            "length": 20
          },
          {
            "start": 12767,
            "length": 20
          },
          {
            "start": 14063,
            "length": 20
          },
          {
            "start": 15019,
            "length": 20
          },
          {
            "start": 18432,
            "length": 20
          },
          {
            "start": 19107,
            "length": 20
          }
        ]
      }
    }
  },
  "methodIdentifiers": {
    "DEFAULT_ADMIN_ROLE()": "a217fddf",
    "acceptOwnership()": "79ba5097",
    "availableExcessCollatDV()": "f61adab2",
    "bonus_rate()": "4c634934",
    "buyBackFXS(uint256,uint256)": "658445a8",
    "buyBackPaused()": "7f877f85",
    "buyback_fee()": "101197c7",
    "collatDollarBalance()": "17284c94",
    "collat_eth_oracle_address()": "8baa4b9f",
    "collateralPricePaused()": "8d2ac7a4",
    "collectRedemption()": "12ace5a2",
    "getCollateralPrice()": "f7683bbc",
    "getRoleAdmin(bytes32)": "248a9ca3",
    "getRoleMember(bytes32,uint256)": "9010d07c",
    "getRoleMemberCount(bytes32)": "ca15c873",
    "grantRole(bytes32,address)": "2f2ff15d",
    "hasRole(bytes32,address)": "91d14854",
    "lastRedeemed(address)": "abae2c4c",
    "mint1t1FRAX(uint256,uint256)": "5bd82663",
    "mintAlgorithmicFRAX(uint256,uint256)": "bdb345cb",
    "mintFractionalFRAX(uint256,uint256,uint256)": "5bb87b42",
    "mintPaused()": "7e4831d3",
    "minting_fee()": "c3355b8d",
    "nominateNewOwner(address)": "1627540c",
    "nominatedOwner()": "53a47bb7",
    "owner()": "8da5cb5b",
    "pausedPrice()": "c74ec56a",
    "pool_ceiling()": "6526a12a",
    "recollat_fee()": "fede5c9c",
    "recollateralizeFRAX(uint256,uint256)": "83c7ded7",
    "recollateralizePaused()": "6d2c5615",
    "redeem1t1FRAX(uint256,uint256)": "645af53c",
    "redeemAlgorithmicFRAX(uint256,uint256)": "6f5db87f",
    "redeemCollateralBalances(address)": "08a7493d",
    "redeemFXSBalances(address)": "c76417d7",
    "redeemFractionalFRAX(uint256,uint256,uint256)": "7e108af9",
    "redeemPaused()": "b235d468",
    "redemption_delay()": "15128425",
    "redemption_fee()": "cb73999f",
    "renounceRole(bytes32,address)": "36568abe",
    "revokeRole(bytes32,address)": "d547741f",
    "setCollatETHOracle(address,address)": "88d42cf2",
    "setPoolParameters(uint256,uint256,uint256,uint256,uint256,uint256,uint256)": "4ebbe762",
    "setTimelock(address)": "bdacb303",
    "toggleBuyBack()": "50c9ecd9",
    "toggleCollateralPrice(uint256)": "7ad1f61b",
    "toggleMinting()": "7d55094d",
    "toggleRecollateralize()": "42d15aec",
    "toggleRedeeming()": "daa50485",
    "unclaimedPoolCollateral()": "7b0461e9",
    "unclaimedPoolFXS()": "4c26203c"
  },
  "id": 46
}