{
  "abi": [
    {
      "inputs": [
        {
          "internalType": "address",
          "name": "_frax_contract_address",
          "type": "address"
        },
        {
          "internalType": "address",
          "name": "_fxs_contract_address",
          "type": "address"
        },
        {
          "internalType": "address",
          "name": "_collateral_address",
          "type": "address"
        },
        {
          "internalType": "address",
          "name": "_creator_address",
          "type": "address"
        },
        {
          "internalType": "address",
          "name": "_timelock_address",
          "type": "address"
        },
        {
          "internalType": "uint256",
          "name": "_pool_ceiling",
          "type": "uint256"
        }
      ],
      "stateMutability": "nonpayable",
      "type": "constructor"
    },
    {
      "anonymous": false,
      "inputs": [
        {
          "indexed": false,
          "internalType": "bool",
          "name": "toggled",
          "type": "bool"
        }
      ],
      "name": "BuybackToggled",
      "type": "event"
    },
    {
      "anonymous": false,
      "inputs": [
        {
          "indexed": false,
          "internalType": "bool",
          "name": "toggled",
          "type": "bool"
        }
      ],
      "name": "CollateralPriceToggled",
      "type": "event"
    },
    {
      "anonymous": false,
      "inputs": [
        {
          "indexed": false,
          "internalType": "bool",
          "name": "toggled",
          "type": "bool"
        }
      ],
      "name": "MintingToggled",
      "type": "event"
    },
    {
      "anonymous": false,
      "inputs": [
        {
          "indexed": false,
          "internalType": "address",
          "name": "oldOwner",
          "type": "address"
        },
        {
          "indexed": false,
          "internalType": "address",
          "name": "newOwner",
          "type": "address"
        }
      ],
      "name": "OwnerChanged",
      "type": "event"
    },
    {
      "anonymous": false,
      "inputs": [
        {
          "indexed": false,
          "internalType": "address",
          "name": "newOwner",
          "type": "address"
        }
      ],
      "name": "OwnerNominated",
      "type": "event"
    },
    {
      "anonymous": false,
      "inputs": [
        {
          "indexed": false,
          "internalType": "uint256",
          "name": "new_ceiling",
          "type": "uint256"
        },
        {
          "indexed": false,
          "internalType": "uint256",
          "name": "new_bonus_rate",
          "type": "uint256"
        },
        {
          "indexed": false,
          "internalType": "uint256",
          "name": "new_redemption_delay",
          "type": "uint256"
        },
        {
          "indexed": false,
          "internalType": "uint256",
          "name": "new_mint_fee",
          "type": "uint256"
        },
        {
          "indexed": false,
          "internalType": "uint256",
          "name": "new_redeem_fee",
          "type": "uint256"
        },
        {
          "indexed": false,
          "internalType": "uint256",
          "name": "new_buyback_fee",
          "type": "uint256"
        },
        {
          "indexed": false,
          "internalType": "uint256",
          "name": "new_recollat_fee",
          "type": "uint256"
        }
      ],
      "name": "PoolParametersSet",
      "type": "event"
    },
    {
      "anonymous": false,
      "inputs": [
        {
          "indexed": false,
          "internalType": "bool",
          "name": "toggled",
          "type": "bool"
        }
      ],
      "name": "RecollateralizeToggled",
      "type": "event"
    },
    {
      "anonymous": false,
      "inputs": [
        {
          "indexed": false,
          "internalType": "bool",
          "name": "toggled",
          "type": "bool"
        }
      ],
      "name": "RedeemingToggled",
      "type": "event"
    },
    {
      "anonymous": false,
      "inputs": [
        {
          "indexed": true,
          "internalType": "bytes32",
          "name": "role",
          "type": "bytes32"
        },
        {
          "indexed": true,
          "internalType": "bytes32",
          "name": "previousAdminRole",
          "type": "bytes32"
        },
        {
          "indexed": true,
          "internalType": "bytes32",
          "name": "newAdminRole",
          "type": "bytes32"
        }
      ],
      "name": "RoleAdminChanged",
      "type": "event"
    },
    {
      "anonymous": false,
      "inputs": [
        {
          "indexed": true,
          "internalType": "bytes32",
          "name": "role",
          "type": "bytes32"
        },
        {
          "indexed": true,
          "internalType": "address",
          "name": "account",
          "type": "address"
        },
        {
          "indexed": true,
          "internalType": "address",
          "name": "sender",
          "type": "address"
        }
      ],
      "name": "RoleGranted",
      "type": "event"
    },
    {
      "anonymous": false,
      "inputs": [
        {
          "indexed": true,
          "internalType": "bytes32",
          "name": "role",
          "type": "bytes32"
        },
        {
          "indexed": true,
          "internalType": "address",
          "name": "account",
          "type": "address"
        },
        {
          "indexed": true,
          "internalType": "address",
          "name": "sender",
          "type": "address"
        }
      ],
      "name": "RoleRevoked",
      "type": "event"
    },
    {
      "anonymous": false,
      "inputs": [
        {
          "indexed": false,
          "internalType": "address",
          "name": "new_timelock",
          "type": "address"
        }
      ],
      "name": "TimelockSet",
      "type": "event"
    },
    {
      "inputs": [],
      "name": "DEFAULT_ADMIN_ROLE",
      "outputs": [
        {
          "internalType": "bytes32",
          "name": "",
          "type": "bytes32"
        }
      ],
      "stateMutability": "view",
      "type": "function"
    },
    {
      "inputs": [],
      "name": "acceptOwnership",
      "outputs": [],
      "stateMutability": "nonpayable",
      "type": "function"
    },
    {
      "inputs": [],
      "name": "availableExcessCollatDV",
      "outputs": [
        {
          "internalType": "uint256",
          "name": "",
          "type": "uint256"
        }
      ],
      "stateMutability": "view",
      "type": "function"
    },
    {
      "inputs": [],
      "name": "bonus_rate",
      "outputs": [
        {
          "internalType": "uint256",
          "name": "",
          "type": "uint256"
        }
      ],
      "stateMutability": "view",
      "type": "function"
    },
    {
      "inputs": [
        {
          "internalType": "uint256",
          "name": "FXS_amount",
          "type": "uint256"
        },
        {
          "internalType": "uint256",
          "name": "COLLATERAL_out_min",
          "type": "uint256"
        }
      ],
      "name": "buyBackFXS",
      "outputs": [],
      "stateMutability": "nonpayable",
      "type": "function"
    },
    {
      "inputs": [],
      "name": "buyBackPaused",
      "outputs": [
        {
          "internalType": "bool",
          "name": "",
          "type": "bool"
        }
      ],
      "stateMutability": "view",
      "type": "function"
    },
    {
      "inputs": [],
      "name": "buyback_fee",
      "outputs": [
        {
          "internalType": "uint256",
          "name": "",
          "type": "uint256"
        }
      ],
      "stateMutability": "view",
      "type": "function"
    },
    {
      "inputs": [],
      "name": "collatDollarBalance",
      "outputs": [
        {
          "internalType": "uint256",
          "name": "",
          "type": "uint256"
        }
      ],
      "stateMutability": "view",
      "type": "function"
    },
    {
      "inputs": [],
      "name": "collat_eth_oracle_address",
      "outputs": [
        {
          "internalType": "address",
          "name": "",
          "type": "address"
        }
      ],
      "stateMutability": "view",
      "type": "function"
    },
    {
      "inputs": [],
      "name": "collateralPricePaused",
      "outputs": [
        {
          "internalType": "bool",
          "name": "",
          "type": "bool"
        }
      ],
      "stateMutability": "view",
      "type": "function"
    },
    {
      "inputs": [],
      "name": "collectRedemption",
      "outputs": [],
      "stateMutability": "nonpayable",
      "type": "function"
    },
    {
      "inputs": [],
      "name": "getCollateralPrice",
      "outputs": [
        {
          "internalType": "uint256",
          "name": "",
          "type": "uint256"
        }
      ],
      "stateMutability": "view",
      "type": "function"
    },
    {
      "inputs": [
        {
          "internalType": "bytes32",
          "name": "role",
          "type": "bytes32"
        }
      ],
      "name": "getRoleAdmin",
      "outputs": [
        {
          "internalType": "bytes32",
          "name": "",
          "type": "bytes32"
        }
      ],
      "stateMutability": "view",
      "type": "function"
    },
    {
      "inputs": [
        {
          "internalType": "bytes32",
          "name": "role",
          "type": "bytes32"
        },
        {
          "internalType": "uint256",
          "name": "index",
          "type": "uint256"
        }
      ],
      "name": "getRoleMember",
      "outputs": [
        {
          "internalType": "address",
          "name": "",
          "type": "address"
        }
      ],
      "stateMutability": "view",
      "type": "function"
    },
    {
      "inputs": [
        {
          "internalType": "bytes32",
          "name": "role",
          "type": "bytes32"
        }
      ],
      "name": "getRoleMemberCount",
      "outputs": [
        {
          "internalType": "uint256",
          "name": "",
          "type": "uint256"
        }
      ],
      "stateMutability": "view",
      "type": "function"
    },
    {
      "inputs": [
        {
          "internalType": "bytes32",
          "name": "role",
          "type": "bytes32"
        },
        {
          "internalType": "address",
          "name": "account",
          "type": "address"
        }
      ],
      "name": "grantRole",
      "outputs": [],
      "stateMutability": "nonpayable",
      "type": "function"
    },
    {
      "inputs": [
        {
          "internalType": "bytes32",
          "name": "role",
          "type": "bytes32"
        },
        {
          "internalType": "address",
          "name": "account",
          "type": "address"
        }
      ],
      "name": "hasRole",
      "outputs": [
        {
          "internalType": "bool",
          "name": "",
          "type": "bool"
        }
      ],
      "stateMutability": "view",
      "type": "function"
    },
    {
      "inputs": [
        {
          "internalType": "address",
          "name": "",
          "type": "address"
        }
      ],
      "name": "lastRedeemed",
      "outputs": [
        {
          "internalType": "uint256",
          "name": "",
          "type": "uint256"
        }
      ],
      "stateMutability": "view",
      "type": "function"
    },
    {
      "inputs": [
        {
          "internalType": "uint256",
          "name": "collateral_amount",
          "type": "uint256"
        },
        {
          "internalType": "uint256",
          "name": "FRAX_out_min",
          "type": "uint256"
        }
      ],
      "name": "mint1t1FRAX",
      "outputs": [],
      "stateMutability": "nonpayable",
      "type": "function"
    },
    {
      "inputs": [
        {
          "internalType": "uint256",
          "name": "fxs_amount_d18",
          "type": "uint256"
        },
        {
          "internalType": "uint256",
          "name": "FRAX_out_min",
          "type": "uint256"
        }
      ],
      "name": "mintAlgorithmicFRAX",
      "outputs": [],
      "stateMutability": "nonpayable",
      "type": "function"
    },
    {
      "inputs": [
        {
          "internalType": "uint256",
          "name": "collateral_amount",
          "type": "uint256"
        },
        {
          "internalType": "uint256",
          "name": "fxs_amount",
          "type": "uint256"
        },
        {
          "internalType": "uint256",
          "name": "FRAX_out_min",
          "type": "uint256"
        }
      ],
      "name": "mintFractionalFRAX",
      "outputs": [],
      "stateMutability": "nonpayable",
      "type": "function"
    },
    {
      "inputs": [],
      "name": "mintPaused",
      "outputs": [
        {
          "internalType": "bool",
          "name": "",
          "type": "bool"
        }
      ],
      "stateMutability": "view",
      "type": "function"
    },
    {
      "inputs": [],
      "name": "minting_fee",
      "outputs": [
        {
          "internalType": "uint256",
          "name": "",
          "type": "uint256"
        }
      ],
      "stateMutability": "view",
      "type": "function"
    },
    {
      "inputs": [
        {
          "internalType": "address",
          "name": "_owner",
          "type": "address"
        }
      ],
      "name": "nominateNewOwner",
      "outputs": [],
      "stateMutability": "nonpayable",
      "type": "function"
    },
    {
      "inputs": [],
      "name": "nominatedOwner",
      "outputs": [
        {
          "internalType": "address",
          "name": "",
          "type": "address"
        }
      ],
      "stateMutability": "view",
      "type": "function"
    },
    {
      "inputs": [],
      "name": "owner",
      "outputs": [
        {
          "internalType": "address",
          "name": "",
          "type": "address"
        }
      ],
      "stateMutability": "view",
      "type": "function"
    },
    {
      "inputs": [],
      "name": "pausedPrice",
      "outputs": [
        {
          "internalType": "uint256",
          "name": "",
          "type": "uint256"
        }
      ],
      "stateMutability": "view",
      "type": "function"
    },
    {
      "inputs": [],
      "name": "pool_ceiling",
      "outputs": [
        {
          "internalType": "uint256",
          "name": "",
          "type": "uint256"
        }
      ],
      "stateMutability": "view",
      "type": "function"
    },
    {
      "inputs": [],
      "name": "recollat_fee",
      "outputs": [
        {
          "internalType": "uint256",
          "name": "",
          "type": "uint256"
        }
      ],
      "stateMutability": "view",
      "type": "function"
    },
    {
      "inputs": [
        {
          "internalType": "uint256",
          "name": "collateral_amount",
          "type": "uint256"
        },
        {
          "internalType": "uint256",
          "name": "FXS_out_min",
          "type": "uint256"
        }
      ],
      "name": "recollateralizeFRAX",
      "outputs": [],
      "stateMutability": "nonpayable",
      "type": "function"
    },
    {
      "inputs": [],
      "name": "recollateralizePaused",
      "outputs": [
        {
          "internalType": "bool",
          "name": "",
          "type": "bool"
        }
      ],
      "stateMutability": "view",
      "type": "function"
    },
    {
      "inputs": [
        {
          "internalType": "uint256",
          "name": "FRAX_amount",
          "type": "uint256"
        },
        {
          "internalType": "uint256",
          "name": "COLLATERAL_out_min",
          "type": "uint256"
        }
      ],
      "name": "redeem1t1FRAX",
      "outputs": [],
      "stateMutability": "nonpayable",
      "type": "function"
    },
    {
      "inputs": [
        {
          "internalType": "uint256",
          "name": "FRAX_amount",
          "type": "uint256"
        },
        {
          "internalType": "uint256",
          "name": "FXS_out_min",
          "type": "uint256"
        }
      ],
      "name": "redeemAlgorithmicFRAX",
      "outputs": [],
      "stateMutability": "nonpayable",
      "type": "function"
    },
    {
      "inputs": [
        {
          "internalType": "address",
          "name": "",
          "type": "address"
        }
      ],
      "name": "redeemCollateralBalances",
      "outputs": [
        {
          "internalType": "uint256",
          "name": "",
          "type": "uint256"
        }
      ],
      "stateMutability": "view",
      "type": "function"
    },
    {
      "inputs": [
        {
          "internalType": "address",
          "name": "",
          "type": "address"
        }
      ],
      "name": "redeemFXSBalances",
      "outputs": [
        {
          "internalType": "uint256",
          "name": "",
          "type": "uint256"
        }
      ],
      "stateMutability": "view",
      "type": "function"
    },
    {
      "inputs": [
        {
          "internalType": "uint256",
          "name": "FRAX_amount",
          "type": "uint256"
        },
        {
          "internalType": "uint256",
          "name": "FXS_out_min",
          "type": "uint256"
        },
        {
          "internalType": "uint256",
          "name": "COLLATERAL_out_min",
          "type": "uint256"
        }
      ],
      "name": "redeemFractionalFRAX",
      "outputs": [],
      "stateMutability": "nonpayable",
      "type": "function"
    },
    {
      "inputs": [],
      "name": "redeemPaused",
      "outputs": [
        {
          "internalType": "bool",
          "name": "",
          "type": "bool"
        }
      ],
      "stateMutability": "view",
      "type": "function"
    },
    {
      "inputs": [],
      "name": "redemption_delay",
      "outputs": [
        {
          "internalType": "uint256",
          "name": "",
          "type": "uint256"
        }
      ],
      "stateMutability": "view",
      "type": "function"
    },
    {
      "inputs": [],
      "name": "redemption_fee",
      "outputs": [
        {
          "internalType": "uint256",
          "name": "",
          "type": "uint256"
        }
      ],
      "stateMutability": "view",
      "type": "function"
    },
    {
      "inputs": [
        {
          "internalType": "bytes32",
          "name": "role",
          "type": "bytes32"
        },
        {
          "internalType": "address",
          "name": "account",
          "type": "address"
        }
      ],
      "name": "renounceRole",
      "outputs": [],
      "stateMutability": "nonpayable",
      "type": "function"
    },
    {
      "inputs": [
        {
          "internalType": "bytes32",
          "name": "role",
          "type": "bytes32"
        },
        {
          "internalType": "address",
          "name": "account",
          "type": "address"
        }
      ],
      "name": "revokeRole",
      "outputs": [],
      "stateMutability": "nonpayable",
      "type": "function"
    },
    {
      "inputs": [
        {
          "internalType": "address",
          "name": "_collateral_weth_oracle_address",
          "type": "address"
        },
        {
          "internalType": "address",
          "name": "_weth_address",
          "type": "address"
        }
      ],
      "name": "setCollatETHOracle",
      "outputs": [],
      "stateMutability": "nonpayable",
      "type": "function"
    },
    {
      "inputs": [
        {
          "internalType": "uint256",
          "name": "new_ceiling",
          "type": "uint256"
        },
        {
          "internalType": "uint256",
          "name": "new_bonus_rate",
          "type": "uint256"
        },
        {
          "internalType": "uint256",
          "name": "new_redemption_delay",
          "type": "uint256"
        },
        {
          "internalType": "uint256",
          "name": "new_mint_fee",
          "type": "uint256"
        },
        {
          "internalType": "uint256",
          "name": "new_redeem_fee",
          "type": "uint256"
        },
        {
          "internalType": "uint256",
          "name": "new_buyback_fee",
          "type": "uint256"
        },
        {
          "internalType": "uint256",
          "name": "new_recollat_fee",
          "type": "uint256"
        }
      ],
      "name": "setPoolParameters",
      "outputs": [],
      "stateMutability": "nonpayable",
      "type": "function"
    },
    {
      "inputs": [
        {
          "internalType": "address",
          "name": "new_timelock",
          "type": "address"
        }
      ],
      "name": "setTimelock",
      "outputs": [],
      "stateMutability": "nonpayable",
      "type": "function"
    },
    {
      "inputs": [],
      "name": "toggleBuyBack",
      "outputs": [],
      "stateMutability": "nonpayable",
      "type": "function"
    },
    {
      "inputs": [
        {
          "internalType": "uint256",
          "name": "_new_price",
          "type": "uint256"
        }
      ],
      "name": "toggleCollateralPrice",
      "outputs": [],
      "stateMutability": "nonpayable",
      "type": "function"
    },
    {
      "inputs": [],
      "name": "toggleMinting",
      "outputs": [],
      "stateMutability": "nonpayable",
      "type": "function"
    },
    {
      "inputs": [],
      "name": "toggleRecollateralize",
      "outputs": [],
      "stateMutability": "nonpayable",
      "type": "function"
    },
    {
      "inputs": [],
      "name": "toggleRedeeming",
      "outputs": [],
      "stateMutability": "nonpayable",
      "type": "function"
    },
    {
      "inputs": [],
      "name": "unclaimedPoolCollateral",
      "outputs": [
        {
          "internalType": "uint256",
          "name": "",
          "type": "uint256"
        }
      ],
      "stateMutability": "view",
      "type": "function"
    },
    {
      "inputs": [],
      "name": "unclaimedPoolFXS",
      "outputs": [
        {
          "internalType": "uint256",
          "name": "",
          "type": "uint256"
        }
      ],
      "stateMutability": "view",
      "type": "function"
    }
  ],
  "bytecode": {
    "object": "0x60a06040523462000079575b6200002662000019620001b6565b9493909392919262000435565b604051614f7362000db582396080518181816112cb015281816113d3015281816116fd01528181611b050152818161238f0152818161274201528181612b1e015281816132e401526136fd0152614f7390f35b62000082600080fd5b6200000b565b600080fd5b601f01601f191690565b50634e487b7160e01b600052604160045260246000fd5b90601f01601f191681019081106001600160401b03821117620000d057604052565b620000da62000097565b604052565b90620000f6620000ee60405190565b9283620000ae565b565b6001600160a01b031690565b90565b6001600160a01b0381165b036200008857565b90505190620000f68262000107565b8062000112565b90505190620000f68262000129565b909160c082840312620001a7575b6200015983836200011a565b926200016981602085016200011a565b926200017982604083016200011a565b92620001046200018d84606085016200011a565b936200019d81608086016200011a565b9360a00162000130565b620001b0600080fd5b6200014d565b620001d962005d2880380380620001cd81620000df565b9283398101906200013f565b909192939495565b90600019905b9181191691161790565b6200010462000104620001049290565b9062000215620001046200021d92620001f1565b8254620001e1565b9055565b9060ff90620001e7565b906200023e620001046200021d92151590565b825462000221565b9061ff009060081b620001e7565b9062000267620001046200021d92151590565b825462000246565b9062ff00009060101b620001e7565b9062000291620001046200021d92151590565b82546200026f565b9063ff0000009060181b620001e7565b90620002bc620001046200021d92151590565b825462000299565b9064ff000000009060201b620001e7565b90620002e8620001046200021d92151590565b8254620002c4565b620000f862000104620001049290565b6200010490620002f0565b0190565b156200031757565b60405162461bcd60e51b815260206004820152601560248201527f5a65726f206164647265737320646574656374656400000000000000000000006044820152606490fd5b0390fd5b6200010490620000f8906001600160a01b031682565b620001049062000360565b620001049062000376565b906001600160a01b0390620001e7565b90620003b0620001046200021d9262000381565b82546200038c565b6200010490620000f8565b620001049054620003b8565b60ff811662000112565b90505190620000f682620003cf565b90620001049160208183031215620003d95762000403600080fd5b620003d9565b506040513d6000823e3d90fd5b6200010462000104620001049260ff1690565b620001046000620001f1565b6200050d6200057c9593946200044b816200081d565b60006200045a81601662000201565b6200046781601762000201565b62000476611d4c601862000201565b620004846001601962000201565b6200049181601a6200022b565b6200049e81601a62000254565b620004ab81601a6200027e565b620004b881601a620002a9565b620004c581601a620002d5565b620004d08162000300565b906001600160a01b0382166001600160a01b03861614159283620007b1575b8362000792575b836200077a575b50826200075a575b50506200030f565b620005188162000381565b620005258160096200039c565b50620005318262000381565b6200053e8160086200039c565b506200054c8160056200039c565b506200055a8160066200039c565b50620005688260046200039c565b620005758160076200039c565b5062000381565b620005898160036200039c565b506200059781601662000201565b506200060a620005a86012620001f1565b62000603620005e16020620005c8620005c26003620003c3565b62000381565b63313ce56790620005d860405190565b93849260e01b90565b825260049082905afa9081156200074a575b60009162000715575b5062000416565b9062000abe565b608052620006306200061b62000429565b62000629620005c2620008ad565b90620009ae565b620006697fc65532185ed70b2e999433e2e9fac124e083acb13ec183a4e05944da0792337b5b620006626007620003c3565b9062000931565b620006947fa84a5389ad41f9aab0831b01e5384cae76e7a7fd09131c206ff7927c201c385762000656565b620006bf7f8118eeb5231a5fe4008a55b62860f6a0db4f6c3ac04f8141927a9b3fedd86d2f62000656565b620006ea7f103da79ff3755ff7a17a557d28b73d37cb4de0b3c3cc02fa6c48df0f35071fbf62000656565b620000f67fbb2c68b8dc5bccdd2536307080a7865a7e133bf54e31d4d463b1b749b4bcf26d62000656565b6200073b915060203d811162000742575b620007328183620000ae565b810190620003e8565b38620005fc565b503d62000726565b6200075462000409565b620005f3565b506001600160a01b031690506001600160a01b0385161415388062000505565b6001600160a01b0383811691161415925038620004fd565b92506001600160a01b0382166001600160a01b038916141592620004f6565b92506001600160a01b0382166001600160a01b038716141592620004ef565b15620007d857565b60405162461bcd60e51b815260206004820152601960248201527f4f776e657220616464726573732063616e6e6f742062652030000000000000006044820152606490fd5b6000906200082b8262000300565b916200084c6001600160a01b0384166001600160a01b0384161415620007d0565b620008598260016200039c565b507fb532073b38c83145e3e5135377a08bf9aab55bc0fd7c1179cd4fb995d2a5159c91620008a86200088a60405190565b928392836001600160a01b0391821681529116602082015260400190565b0390a1565b620001043362000381565b620001049081565b620001049054620008b8565b15620008d457565b60405162461bcd60e51b815260206004820152602f60248201527f416363657373436f6e74726f6c3a2073656e646572206d75737420626520616e60448201526e0818591b5a5b881d1bc819dc985b9d608a1b6064820152608490fd5b90620000f6916200097d620009776200096260026200095b85600090600052602052604060002090565b01620008c0565b62000970620005c2620008ad565b9062000983565b620008cc565b620009b5565b90620009a8620001049262000996600090565b50600090815260208190526040902090565b62000d91565b90620000f6915b90620009dc81620009d660006200030b868290600052602052604060002090565b62000bec565b620009e5575050565b620009ef620008ad565b9062000a2862000a2162000a217f2f8788117e7eff1d82e926ec794901d17c78024a50270940304540a733656f0d9590565b9262000381565b9262000a3360405190565b600090a4565b6020906200030b906001600160401b03811162000a5a57601f01601f191690565b6200008d62000097565b9062000a7a62000a748362000a39565b620000df565b918252565b62000a8b601e62000a64565b7f536166654d6174683a207375627472616374696f6e206f766572666c6f770000602082015290565b6200010462000a7f565b620001049162000acd62000ab4565b9162000b98565b60005b83811062000ae85750506000910152565b818101518382015260200162000ad7565b62000b1e6200008d6020936200030b9362000b12815190565b80835293849260200190565b9586910162000ad4565b6020808252620001049291019062000af9565b1562000b445750565b6200035c9062000b5360405190565b62461bcd60e51b81529182916004830162000b28565b50634e487b7160e01b600052601160045260246000fd5b9190820391821162000b8e57565b620000f662000b69565b62000bb5620001049362000baa600090565b508284111562000b3b565b62000b80565b620001049062000bd4906001600160a01b031660601b90565b6001600160601b03191690565b620001049062000bbb565b9062000c1c62000c1862000c126000620001049562000c09600090565b50019362000be1565b62000bd4565b9190565b62000ced565b50634e487b7160e01b600052603260045260246000fd5b62000c5c60019162000c49815490565b84101562000c6557600052602060002090565b91020190600090565b62000c6f62000c22565b600052602060002090565b9160001960089290920291821b911b620001e7565b919062000ca1620001046200021d9390565b90835462000c7a565b9062000cd6620000f6928054906801000000000000000082101562000cdd575b60018201815562000c39565b9062000c8f565b62000ce762000097565b62000cca565b9062000d0262000cfe828462000d50565b1590565b1562000d495760019162000d439162000d3d9062000d2a8362000d26838262000caa565b5490565b9485930190600052602052604060002090565b62000201565b50600190565b5050600090565b62000d7c91600162000d769262000d65600090565b500190600052602052604060002090565b620008c0565b62000d8c62000c186000620001f1565b141590565b9062000dae62000c1862000c126000620001049562000c09600090565b62000d5056fe60806040526004361015610018575b610016600080fd5b005b60003560e01c806308a7493d14610414578063101197c71461040b57806312ace5a21461040257806315128425146103f95780631627540c146103f057806317284c94146103e7578063248a9ca3146103de5780632f2ff15d146103d557806336568abe146103cc57806342d15aec146103c35780634c26203c146103ba5780634c634934146103b15780634ebbe762146103a857806350c9ecd91461039f57806353a47bb7146103965780635bb87b421461038d5780635bd8266314610384578063645af53c1461037b5780636526a12a14610372578063658445a8146103695780636d2c5615146103605780636f5db87f1461035757806379ba50971461034e5780637ad1f61b146103455780637b0461e91461033c5780637d55094d146103335780637e108af91461032a5780637e4831d3146103215780637f877f851461031857806383c7ded71461030f57806388d42cf2146103065780638baa4b9f146102fd5780638d2ac7a4146102f45780638da5cb5b146102eb5780639010d07c146102e257806391d14854146102d9578063a217fddf146102d0578063abae2c4c146102c7578063b235d468146102be578063bdacb303146102b5578063bdb345cb146102ac578063c3355b8d146102a3578063c74ec56a1461029a578063c76417d714610291578063ca15c87314610288578063cb73999f1461027f578063d547741f14610276578063daa504851461026d578063f61adab214610264578063f7683bbc1461025b5763fede5c9c0361000e5761025661102a565b61000e565b50610256610ff4565b50610256610fca565b50610256610fa3565b50610256610f7b565b50610256610f51565b50610256610f1b565b50610256610ef1565b50610256610eb5565b50610256610e7f565b50610256610e4b565b50610256610e24565b50610256610dfa565b50610256610dc4565b50610256610d88565b50610256610d3e565b50610256610d13565b50610256610ce9565b50610256610cb3565b50610256610c7d565b50610256610c49565b50610256610bf9565b50610256610bcf565b50610256610b99565b50610256610b65565b50610256610b3e565b50610256610b14565b50610256610ae1565b50610256610aba565b50610256610a92565b50610256610a55565b50610256610a07565b506102566109dd565b506102566109a9565b50610256610981565b50610256610928565b50610256610898565b5061025661084d565b5061025661081f565b50610256610781565b5061025661074b565b50610256610718565b506102566106f0565b506102566106c8565b5061025661066d565b50610256610613565b506102566105ec565b506102566105c2565b5061025661058a565b50610256610560565b50610256610503565b600080fd5b73ffffffffffffffffffffffffffffffffffffffff1690565b90565b73ffffffffffffffffffffffffffffffffffffffff81165b0361041d57565b9050359061046a8261043e565b565b9061043b916020818303121561045d57610484600080fd5b61045d565b61042261043b61043b9273ffffffffffffffffffffffffffffffffffffffff1690565b61043b90610489565b61043b906104ac565b906104c8906104b5565b600052602052604060002090565b61043b916008021c81565b9061043b91546104d6565b61043b906104fe6012916000926104be565b6104e1565b5034610534575b61053061052061051b36600461046c565b6104ec565b6040519182918290815260200190565b0390f35b61053c600080fd5b61050a565b600091031261054c57565b61046a600080fd5b61043b6000600f6104e1565b503461057d575b610572366004610541565b610530610520610554565b610585600080fd5b610567565b50346105a9575b61059c366004610541565b6105a4613084565b604051005b6105b1600080fd5b610591565b61043b600060196104e1565b50346105df575b6105d4366004610541565b6105306105206105b6565b6105e7600080fd5b6105c9565b5034610606575b6105a461060136600461046c565b614681565b61060e600080fd5b6105f3565b5034610630575b610625366004610541565b610530610520611216565b610638600080fd5b61061a565b80610456565b9050359061046a8261063d565b9061043b916020818303121561064357610668600080fd5b610643565b503461068a575b610530610520610685366004610650565b613ef9565b610692600080fd5b610674565b919061043b906040848203126106bb575b6106b28185610643565b9360200161045d565b6106c3600080fd5b6106a8565b50346106e3575b6105a46106dd366004610697565b90613fa4565b6106eb600080fd5b6106cf565b503461070b575b6105a4610705366004610697565b9061411a565b610713600080fd5b6106f7565b5034610732575b61072a366004610541565b6105a4613941565b61073a600080fd5b61071f565b61043b600060146104e1565b5034610768575b61075d366004610541565b61053061052061073f565b610770600080fd5b610752565b61043b600060186104e1565b503461079e575b610793366004610541565b610530610520610775565b6107a6600080fd5b610788565b60e081830312610812575b6107c08282610643565b926107ce8360208401610643565b926107dc8160408501610643565b926107ea8260608301610643565b9261043b6107fb8460808501610643565b936108098160a08601610643565b9360c001610643565b61081a600080fd5b6107b6565b5034610840575b6105a46108343660046107ab565b95949094939193613c1c565b610848600080fd5b610826565b5034610867575b61085f366004610541565b6105a46139e4565b61086f600080fd5b610854565b61043b916008021c610422565b9061043b9154610874565b61043b60006002610881565b50346108dd575b6108aa366004610541565b6105306108b561088c565b6040515b9182918273ffffffffffffffffffffffffffffffffffffffff909116815260200190565b6108e5600080fd5b61089f565b909160608284031261091b575b61043b6109048484610643565b936109128160208601610643565b93604001610643565b610923600080fd5b6108f7565b5034610943575b6105a461093d3660046108ea565b9161252f565b61094b600080fd5b61092f565b919061043b90604084820312610974575b61096b8185610643565b93602001610643565b61097c600080fd5b610961565b503461099c575b6105a4610996366004610950565b90611d75565b6109a4600080fd5b610988565b50346109c4575b6105a46109be366004610950565b90612900565b6109cc600080fd5b6109b0565b61043b600060166104e1565b50346109fa575b6109ef366004610541565b6105306105206109d1565b610a02600080fd5b6109e4565b5034610a22575b6105a4610a1c366004610950565b9061361f565b610a2a600080fd5b610a0e565b61043b916008021c5b60ff1690565b9061043b9154610a2f565b61043b6002601a610a3e565b5034610a85575b610a67366004610541565b610530610a72610a49565b6040515b91829182901515815260200190565b610a8d600080fd5b610a5c565b5034610aad575b6105a4610aa7366004610950565b90612fc8565b610ab5600080fd5b610a99565b5034610ad4575b610acc366004610541565b6105a461472c565b610adc600080fd5b610ac1565b5034610afb575b6105a4610af6366004610650565b613a88565b610b03600080fd5b610ae8565b61043b600060136104e1565b5034610b31575b610b26366004610541565b610530610520610b08565b610b39600080fd5b610b1b565b5034610b58575b610b50366004610541565b6105a46137ed565b610b60600080fd5b610b45565b5034610b80575b6105a4610b7a3660046108ea565b91612d95565b610b88600080fd5b610b6c565b61043b6000601a610a3e565b5034610bb6575b610bab366004610541565b610530610a72610b8d565b610bbe600080fd5b610ba0565b61043b6003601a610a3e565b5034610bec575b610be1366004610541565b610530610a72610bc3565b610bf4600080fd5b610bd6565b5034610c14575b6105a4610c0e366004610950565b906132b5565b610c1c600080fd5b610c00565b919061043b90604084820312610c3c575b6106b2818561045d565b610c44600080fd5b610c32565b5034610c64575b6105a4610c5e366004610c21565b906118f3565b610c6c600080fd5b610c50565b61043b6000600b610881565b5034610c9a575b610c8f366004610541565b6105306108b5610c71565b610ca2600080fd5b610c84565b61043b6004601a610a3e565b5034610cd0575b610cc5366004610541565b610530610a72610ca7565b610cd8600080fd5b610cba565b61043b60006001610881565b5034610d06575b610cfb366004610541565b6105306108b5610cdd565b610d0e600080fd5b610cf0565b5034610d31575b6105306108b5610d2b366004610950565b90613ee4565b610d39600080fd5b610d1a565b5034610d5c575b610530610a72610d56366004610697565b90613eae565b610d64600080fd5b610d45565b61043b61043b61043b9290565b61043b6000610d69565b61043b610d76565b5034610da5575b610d9a366004610541565b610530610520610d80565b610dad600080fd5b610d8f565b61043b906104fe6015916000926104be565b5034610de1575b610530610520610ddc36600461046c565b610db2565b610de9600080fd5b610dcb565b61043b6001601a610a3e565b5034610e17575b610e0c366004610541565b610530610a72610dee565b610e1f600080fd5b610e01565b5034610e3e575b6105a4610e3936600461046c565b613c79565b610e46600080fd5b610e2b565b5034610e66575b6105a4610e60366004610950565b90612054565b610e6e600080fd5b610e52565b61043b6000600d6104e1565b5034610e9c575b610e91366004610541565b610530610520610e73565b610ea4600080fd5b610e86565b61043b600060176104e1565b5034610ed2575b610ec7366004610541565b610530610520610ea9565b610eda600080fd5b610ebc565b61043b906104fe6011916000926104be565b5034610f0e575b610530610520610f0936600461046c565b610edf565b610f16600080fd5b610ef8565b5034610f38575b610530610520610f33366004610650565b613ed0565b610f40600080fd5b610f22565b61043b6000600e6104e1565b5034610f6e575b610f63366004610541565b610530610520610f45565b610f76600080fd5b610f58565b5034610f96575b6105a4610f90366004610697565b90614069565b610f9e600080fd5b610f82565b5034610fbd575b610fb5366004610541565b6105a461389f565b610fc5600080fd5b610faa565b5034610fe7575b610fdc366004610541565b6105306105206114da565b610fef600080fd5b610fd1565b5034611011575b611006366004610541565b61053061052061166d565b611019600080fd5b610ffb565b61043b600060106104e1565b5034611047575b61103c366004610541565b61053061052061101e565b61104f600080fd5b611031565b61043b9060201c610a38565b61043b9054611054565b61043b90610422565b61043b905461106a565b601f017fffffffffffffffffffffffffffffffffffffffffffffffffffffffffffffffe01690565b507f4e487b7100000000000000000000000000000000000000000000000000000000600052604160045260246000fd5b90601f017fffffffffffffffffffffffffffffffffffffffffffffffffffffffffffffffe016810190811067ffffffffffffffff82111761111557604052565b61111d6110a5565b604052565b9050519061046a8261063d565b9061043b916020818303121561112257611147600080fd5b611122565b506040513d6000823e3d90fd5b61043b620f4240610d69565b507f4e487b7100000000000000000000000000000000000000000000000000000000600052601160045260246000fd5b604d81116111a4575b600a0a90565b6111ac611165565b61119e565b91906111bc565b9290565b918083029281840414901517156111cf57565b61046a611165565b73ffffffffffffffffffffffffffffffffffffffff909116815260408101929161046a9160200152565b0152565b61043b9081565b61043b9054611205565b611220601a611060565b61122c60015b91151590565b036113535761043b61130a6113006112c66112a1602061125461124f6003611073565b6104b5565b6370a082319061127d611266306104b5565b9261127060405190565b9586948593849360e01b90565b835273ffffffffffffffffffffffffffffffffffffffff1660048301526024820190565b03915afa908115611346575b600091611318575b506112c0601361120c565b9061433c565b6112fa7f00000000000000000000000000000000000000000000000000000000000000006112f4600a610d69565b50611195565b906144ed565b6112fa601761120c565b611312611159565b9061456b565b611339915060203d811161133f575b61133181836110d5565b81019061112f565b386112b5565b503d611327565b61134e61114c565b6112ad565b61043b611380602061136861124f6009611073565b63345ba24b9061137760405190565b93849260e01b90565b825260049082905afa9081156114cd575b6000916114af575b506114586113aa61124f600a611073565b61147b633ddac9536112fa6113bf600c611073565b61145d6113ca611159565b97600a948960207f0000000000000000000000000000000000000000000000000000000000000000956113fc89610d69565b9a61142c61141261140c8a611195565b866111b1565b9561143761141f60405190565b9788958694859460e01b90565b8452600484016111d7565b03915afa9182156114a2575b600092611480575b50819261145892506144ed565b61456b565b946114736112a1602061125461124f6003611073565b935050611195565b6144ed565b611458925061149c9060203d811161133f5761133181836110d5565b9161144b565b6114aa61114c565b611443565b6114c7915060203d811161133f5761133181836110d5565b38611399565b6114d561114c565b611391565b6114fb60206114ec61124f6009611073565b6318160ddd9061137760405190565b825260049082905afa908115611660575b600091611642575b5061157b611539602061152a61124f6009611073565b632eb9771b9061137760405190565b825260049082905afa908115611635575b600091611617575b5080602061156361124f6009611073565b63d2d97b069061157260405190565b95869260e01b90565b825260049082905afa92831561160a575b6000936115e2575b5091926115bd92611458916115a7611159565b9384906115b3565b9190565b116115da576144ed565b808211156115ce5761043b9161433c565b505061043b6000610d69565b8391506144ed565b6115bd9350906116026114589260203d811161133f5761133181836110d5565b935090611594565b61161261114c565b61158c565b61162f915060203d811161133f5761133181836110d5565b38611552565b61163d61114c565b61154a565b61165a915060203d811161133f5761133181836110d5565b38611514565b61166861114c565b61150c565b611677601a611060565b6116816001611226565b036116905761043b601761120c565b61043b6116a5602061136861124f6009611073565b825260049082905afa90811561179e575b600091611780575b506116d16116ca611159565b80926144ed565b60206116e061124f600a611073565b92633ddac9539361142c61172c6116f7600c611073565b936117267f00000000000000000000000000000000000000000000000000000000000000006112f4600a610d69565b906111b1565b9561173961141f60405190565b03915afa918215611773575b600092611753575b5061456b565b61176c91925060203d811161133f5761133181836110d5565b903861174d565b61177b61114c565b611745565b611798915060203d811161133f5761133181836110d5565b386116be565b6117a661114c565b6116b6565b0190565b156117b657565b6040517f08c379a000000000000000000000000000000000000000000000000000000000815260206004820152601560248201527f4e6f74206f776e6572206f722074696d656c6f636b00000000000000000000006044820152606490fd5b0390fd5b9061046a916118553361182f6104226007611073565b73ffffffffffffffffffffffffffffffffffffffff82161490811561185a575b506117af565b6118ca565b905061188661186c6104226001611073565b9173ffffffffffffffffffffffffffffffffffffffff1690565b143861184f565b9073ffffffffffffffffffffffffffffffffffffffff905b9181191691161790565b906118bf61043b6118c6926104b5565b825461188d565b9055565b6118d99061124f81600b6118af565b6118e481600a6118af565b506118f081600c6118af565b50565b9061046a91611819565b61043b90610a38565b61043b90546118fd565b1561191757565b6040517f08c379a000000000000000000000000000000000000000000000000000000000815260206004820152601160248201527f4d696e74696e67206973207061757365640000000000000000000000000000006044820152606490fd5b9061046a91611998611988601a611906565b6119926000611226565b14611910565b611ae6565b156119a457565b6040517f08c379a000000000000000000000000000000000000000000000000000000000815260206004820152601d60248201527f436f6c6c61746572616c20726174696f206d757374206265203e3d20310000006044820152606490fd5b15611a0a57565b6040517f08c379a000000000000000000000000000000000000000000000000000000000815280611815600482016020808252818101527f5b506f6f6c277320436c6f7365645d3a204365696c696e672072656163686564604082015260600190565b90815260408101929161046a9160200152565b15611a8757565b6040517f08c379a000000000000000000000000000000000000000000000000000000000815260206004820152601660248201527f536c697070616765206c696d69742072656163686564000000000000000000006044820152606490fd5b611b9d611c8f60009261127d611c78611c6d611b30611b2a600a6112f47f000000000000000000000000000000000000000000000000000000000000000091610d69565b856111b1565b611b73611b45602061152a61124f6009611073565b825260049082905afa908115611d68575b8a91611d4a575b50611b6c6115af61043b611159565b101561199d565b611be2611bcb86611bc6611ba96020611b8f61124f6003611073565b6370a0823190309e8f6104b5565b9b8c9261127060405190565b03915afa908115611d3d575b8d9161131857506112c0601361120c565b614283565b611bdb6115af61043b601661120c565b1115611a03565b6020635413e19273__$94c0134f41b960ab429e37c7f854f83300$__611c23611c0961166d565b92611c2e611c1660405190565b9687958694859460e01b90565b845260048401611a6d565b03915af4908115611d30575b8891611d12575b50620f4240611c66611c5282610d69565b926112fa611c60600d61120c565b8561433c565b905061456b565b9687905b1115611a80565b611c8561124f6003611073565b3394508490614a34565b611c9c61124f6009611073565b61142c8363b4f56b26833b15611d05575b611cc6611cb960405190565b9788968795869460e01b90565b03925af18015611cf8575b611cd85750565b61046a9060005b611ce981836110d5565b810190610541565b503d611cdf565b611d0061114c565b611cd1565b611d0d600080fd5b611cad565b611d2a915060203d811161133f5761133181836110d5565b38611c41565b611d3861114c565b611c3a565b611d4561114c565b611bb5565b611d62915060203d811161133f5761133181836110d5565b38611b5d565b611d7061114c565b611b56565b9061046a91611976565b9061046a91611d91611988601a611906565b611dfc565b15611d9d57565b6040517f08c379a000000000000000000000000000000000000000000000000000000000815260206004820152601a60248201527f436f6c6c61746572616c20726174696f206d75737420626520300000000000006044820152606490fd5b90611e5d611e9892611e256020611e1661124f6009611073565b63e7dced679061137760405190565b825260049082905afa908115612047575b600091612029575b506020611e4e61124f6009611073565b632eb9771b9061157260405190565b825260049082905afa92831561201c575b600093611ff0575b50611ee5826020611eed936000988997611e926115af8a610d69565b14611d96565b73__$94c0134f41b960ab429e37c7f854f83300$__611c2363ce032cc1611ec1611c1660405190565b03915af4908115611fe3575b600091611d125750620f4240611c66611c5282610d69565b938490611c71565b611f2f82611efe61124f6008611073565b339390611f238363a8a778ae833b15611fd6575b6040515b9687958694859360e01b90565b835289600484016111d7565b03925af18015611fc9575b611fad575b50611f4d61124f6009611073565b61142c8363b4f56b26833b15611fa0575b611f6a611cb960405190565b03925af18015611f93575b611f7d575050565b8161046a92903d10611cf157611ce981836110d5565b611f9b61114c565b611f75565b611fa8600080fd5b611f5e565b611fc390833d8511611cf157611ce981836110d5565b38611f3f565b611fd161114c565b611f3a565b611fde600080fd5b611f12565b611feb61114c565b611ecd565b611eed919350826020612012611ee593823d811161133f5761133181836110d5565b9593505050611e76565b61202461114c565b611e6e565b612041915060203d811161133f5761133181836110d5565b38611e3e565b61204f61114c565b611e36565b9061046a91611d7f565b9061046a9291612071611988601a611906565b612238565b1561207d57565b6040517f08c379a000000000000000000000000000000000000000000000000000000000815260206004820152603860248201527f436f6c6c61746572616c20726174696f206e6565647320746f2062652062657460448201527f7765656e202e30303030303120616e64202e39393939393900000000000000006064820152608490fd5b1561210957565b6040517f08c379a000000000000000000000000000000000000000000000000000000000815260206004820152604560248201527f506f6f6c206365696c696e6720726561636865642c206e6f206d6f726520465260448201527f41582063616e206265206d696e7465642077697468207468697320636f6c6c6160648201527f746572616c000000000000000000000000000000000000000000000000000000608482015260a490fd5b9061046a6121c160405190565b92836110d5565b61043b60a06121b4565b156121d957565b6040517f08c379a000000000000000000000000000000000000000000000000000000000815260206004820152601760248201527f4e6f7420656e6f7567682046585320696e7075747465640000000000000000006044820152606490fd5b61226390602061224b61124f6009611073565b63e7dced679061225a60405190565b94859260e01b90565b825260049082905afa918215612522575b600092612500575b50819261229392506020611e4e61124f6009611073565b825260049082905afa9283156124f3575b6000936124d1575b5081906122ba61043b611159565b8410806124ba575b6122cb90612076565b816122d66003611073565b6122df906104b5565b9130906370a082316122f0836104b5565b946122fa60405190565b60e09290921b825273ffffffffffffffffffffffffffffffffffffffff86166004830152816024815a93602094fa9182156115af9b611c7161241360009d8e9d61240d6123b8611c8f9f61238a6123736124259f611bc66124329f61242a9f61043b9e6113465760009161131857506112c0601361120c565b6123836115af61043b601661120c565b1115612102565b6117267f00000000000000000000000000000000000000000000000000000000000000006112f4600a610d69565b9161240673__$94c0134f41b960ab429e37c7f854f83300$__936123f46123dd61166d565b6123ed6123e86121c8565b988952565b6020880152565b6123ff8b6040880152565b6060860152565b6080840152565b50613c82565b9890620f4240611c66611c5282610d69565b9d8e90565b8311156121d2565b61246c8661244361124f6008611073565b9363a8a778ae94612460339a8b97833b15611fd657604051611f16565b83528a600484016111d7565b03925af180156124ad575b612491575b5061248a61124f6003611073565b9050614a34565b6124a790883d8111611cf157611ce981836110d5565b3861247c565b6124b561114c565b612477565b506122cb6124c86000610d69565b851190506122c2565b829193506124ec9060203d811161133f5761133181836110d5565b92906122ac565b6124fb61114c565b6122a4565b612293925061251c9060203d811161133f5761133181836110d5565b9161227c565b61252a61114c565b612274565b9061046a929161205e565b61043b9060081c610a38565b61043b905461253a565b1561255757565b6040517f08c379a000000000000000000000000000000000000000000000000000000000815260206004820152601360248201527f52656465656d696e6720697320706175736564000000000000000000000000006044820152606490fd5b9061046a916125d86125c8601a612546565b6125d26000611226565b14612550565b6126e8565b156125e457565b6040517f08c379a000000000000000000000000000000000000000000000000000000000815260206004820152601d60248201527f436f6c6c61746572616c20726174696f206d757374206265203d3d20310000006044820152606490fd5b1561264a57565b6040517f08c379a000000000000000000000000000000000000000000000000000000000815260206004820152601d60248201527f4e6f7420656e6f75676820636f6c6c61746572616c20696e20706f6f6c0000006044820152606490fd5b907fffffffffffffffffffffffffffffffffffffffffffffffffffffffffffffffff906118a5565b906126e161043b6118c692610d69565b82546126a9565b9061284c612857600092612734612707602061152a61124f6009611073565b825260049082905afa9081156128f3575b86916128d5575b5061272e6115af61043b611159565b146125dd565b6128206127d761277161276b7f00000000000000000000000000000000000000000000000000000000000000006112f4600a610d69565b8861456b565b6020630f41b45273__$94c0134f41b960ab429e37c7f854f83300$__611c2361279861166d565b926127a5611c1660405190565b03915af49081156128c8575b87916128aa575b50620f4240611c666127c982610d69565b926112fa611c60600e61120c565b9161281961281061043b6127f3602061125461124f6003611073565b03915afa90811561289d575b8a9161131857506112c0601361120c565b845b1115612643565b8290611c71565b601233938161284761283f85611bc661283a8a80986104be565b61120c565b9384926104be565b6126d1565b50611bc6601361120c565b6128628160136126d1565b5043612873816128478460156104be565b5061288161124f6009611073565b61142c8363a8a778ae833b15611d0557611cc6611cb960405190565b6128a561114c565b6127ff565b6128c2915060203d811161133f5761133181836110d5565b386127b8565b6128d061114c565b6127b1565b6128ed915060203d811161133f5761133181836110d5565b3861271f565b6128fb61114c565b612718565b9061046a916125b6565b9061046a929161291d6125c8601a612546565b612a14565b1561292957565b6040517f08c379a000000000000000000000000000000000000000000000000000000000815260206004820152602360248201527f536c697070616765206c696d69742072656163686564205b636f6c6c6174657260448201527f616c5d00000000000000000000000000000000000000000000000000000000006064820152608490fd5b156129b557565b6040517f08c379a000000000000000000000000000000000000000000000000000000000815260206004820152601c60248201527f536c697070616765206c696d69742072656163686564205b4658535d000000006044820152606490fd5b91612a40926020612a2861124f6009611073565b63e7dced6790612a3760405190565b96879260e01b90565b825260049082905afa938415612d88575b600094612d68575b50612a6c602061152a61124f6009611073565b825260049082905afa908115612d5b575b600091612d3d575b50612a9161043b611159565b811080612d26575b612aa290612076565b612aaa61166d565b90612ab7620f4240610d69565b612ac1600e61120c565b612aca9161433c565b612ad490846144ed565b90612add611159565b9182612ae89161456b565b96612af382896144ed565b83612afd9161456b565b612b07908961433c565b83612b11916144ed565b90612b1b9161456b565b967f0000000000000000000000000000000000000000000000000000000000000000612b47600a610d69565b50612b5190611195565b612b5a9161456b565b90612b64916144ed565b81612b6e9161456b565b90612b78916144ed565b90612b829161456b565b90612b8d6003611073565b612b96906104b5565b9230926370a08231612ba7856104b5565b95612bb160405190565b60e09290921b825273ffffffffffffffffffffffffffffffffffffffff87166004830152816024815a93602094fa918215600098612c238a96612c1b612c1561043b61284c99612c2b9961282098612d19575b8c9161131857506112c0601361120c565b86612812565b841015612922565b8a10156129ae565b612c368160136126d1565b5080612c51601161284761283f8b611bc661283a87866104be565b50612c6087611bc6601461120c565b612c6b8160146126d1565b5043612c7c816128478460156104be565b50612c8a61124f6009611073565b61142c8363a8a778ae833b15612d0c575b612ca7611cb960405190565b03925af18015612cff575b612ce3575b5061142c83612cc961124f6008611073565b925063b4f56b26833b15611d0557611cc6611cb960405190565b612cf990843d8111611cf157611ce981836110d5565b38612cb7565b612d0761114c565b612cb2565b612d14600080fd5b612c9b565b612d2161114c565b612c04565b50612aa2612d346000610d69565b82119050612a99565b612d55915060203d811161133f5761133181836110d5565b38612a85565b612d6361114c565b612a7d565b612d8191945060203d811161133f5761133181836110d5565b9238612a59565b612d9061114c565b612a51565b9061046a929161290a565b9061046a91612db26125c8601a612546565b90612e3991612e04612dcc6020611e1661124f6009611073565b825260049082905afa908115612fbb575b600091612f9d575b506020612df561124f6009611073565b632eb9771b9061225a60405190565b825260049082905afa918215612f90575b600092612f64575b50612ebe612e70612e8b926000978895611e926115af88610d69565b611458612e5e612e58612e4e620f4240610d69565b6112c0600e61120c565b886144ed565b61147b612e69611159565b809261456b565b94601133938161284761283f8a611bc661283a8a80986104be565b50612e9a86611bc6601461120c565b612ea58160146126d1565b5043612eb6816128478660156104be565b508590611c71565b612ecb61124f6009611073565b61142c8363a8a778ae833b15612f57575b612ee8611cb960405190565b03925af18015612f4a575b612f2e575b5081612f0761124f6008611073565b63b4f56b269061142c83612f1a306104b5565b93833b15611fa057611f6a611cb960405190565b612f4490833d8511611cf157611ce981836110d5565b38612ef8565b612f5261114c565b612ef3565b612f5f600080fd5b612edc565b612e8b919250612e70612f87612ebe9260203d811161133f5761133181836110d5565b93925050612e1d565b612f9861114c565b612e15565b612fb5915060203d811161133f5761133181836110d5565b38612de5565b612fc361114c565b612ddd565b9061046a91612da0565b15612fd957565b6040517f08c379a000000000000000000000000000000000000000000000000000000000815260206004820152604260248201527f4d757374207761697420666f7220726564656d7074696f6e5f64656c6179206260448201527f6c6f636b73206265666f726520636f6c6c656374696e6720726564656d70746960648201527f6f6e000000000000000000000000000000000000000000000000000000000000608482015260a490fd5b336130b16130a961309961283a8460156104be565b6130a3601961120c565b90614283565b431015612fd2565b600080806130be81610d69565b9081936011836130d461043b61283a8a856104be565b11613189575b5060126130ea61283a88836104be565b6130f66115af84610d69565b1161313a575b5050613122575b5061310c575050565b61046a9161311d61124f6003611073565b6148d0565b613134908461311d61124f6008611073565b38613103565b909450909250613173908561316361315561283a83856104be565b9261284761283f8599610d69565b5061316e601361120c565b61433c565b61317e8160136126d1565b5060019182386130fc565b925090506131ba61319d61283a87856104be565b866131af829561284761283f87610d69565b5061316e601461120c565b6131c58160146126d1565b50600190816130da565b61043b9060101c610a38565b61043b90546131cf565b156131ec57565b6040517f08c379a000000000000000000000000000000000000000000000000000000000815260206004820152601960248201527f5265636f6c6c61746572616c697a6520697320706175736564000000000000006044820152606490fd5b919061043b9060408482031261326f575b6132668185611122565b93602001611122565b613277600080fd5b61325c565b9095949261046a946132ae611201926132a76080966132a060a088019c6000890152565b6020870152565b6040850152565b6060830152565b906132df916133b16133416132ca601a6131db565b6000958694916132d986611226565b146131e5565b600a907f00000000000000000000000000000000000000000000000000000000000000009061331a61331084610d69565b9161172684611195565b602061332961124f6009611073565b63e7dced679061333860405190565b97889260e01b90565b825260049082905afa94851561358c575b60009561356c575b50613370612dcc60206114ec61124f6009611073565b825260049082905afa91821561355f575b60009261353f575b50602061339961124f6009611073565b63d2d97b06906133a860405190565b9a8b9260e01b90565b825260049082905afa978815613532575b600098613507575b5090613417604093926134226133f173__$94c0134f41b960ab429e37c7f854f83300$__90565b936306058f4a9261340061166d565b9c61340a60405190565b9d8e988997889760e01b90565b87526004870161327c565b03915af49283156134fa575b60009586946134ad575b508361131261347d96946114589461345694611ee598505050611195565b946112fa613473613469620f4240610d69565b6130a3601861120c565b6112c0601061120c565b6134a061348d61124f6003611073565b9133928361349a306104b5565b91614a34565b611f4d61124f6008611073565b611458929650611ee594509061131261347d96946134e46134569460403d81116134f3575b6134dc81836110d5565b81019061324b565b99955096509496505090613438565b503d6134d2565b61350261114c565b61342e565b604093929198506135286134179160203d811161133f5761133181836110d5565b98919293506133ca565b61353a61114c565b6133c2565b61355891925060203d811161133f5761133181836110d5565b9038613389565b61356761114c565b613381565b61358591955060203d811161133f5761133181836110d5565b933861335a565b61359461114c565b613352565b61043b9060181c610a38565b61043b9054613599565b156135b657565b6040517f08c379a000000000000000000000000000000000000000000000000000000000815260206004820152601160248201527f4275796261636b206973207061757365640000000000000000000000000000006044820152606490fd5b61043b60806121b4565b9061046a9161362e601a6135a5565b6000906136449061363e83611226565b146135af565b613726611ee56136f86136da6136626020611e1661124f6009611073565b825260049082905afa9081156137b9575b60009161379b575b5073__$94c0134f41b960ab429e37c7f854f83300$__6136c961369c6114da565b926136c26136a861166d565b916136bb6136b4613615565b968c880152565b6020860152565b6040840152565b6136d4886060840152565b50613e28565b620f4240611c666136ea82610d69565b926112fa611c60600f61120c565b6113127f00000000000000000000000000000000000000000000000000000000000000006112f4600a610d69565b6137528161373761124f6008611073565b3394906124608363a8a778ae833b15611fd657604051611f16565b03925af1801561378e575b613771575b505061311d61124f6003611073565b8161378792903d10611cf157611ce981836110d5565b3880613762565b61379661114c565b61375d565b6137b3915060203d811161133f5761133181836110d5565b3861367b565b6137c161114c565b613673565b1561041d57565b9060ff906118a5565b906137e661043b6118c692151590565b82546137cd565b61382161381c7fc65532185ed70b2e999433e2e9fac124e083acb13ec183a4e05944da0792337b5b3390613eae565b6137c6565b61383261382e601a611906565b1590565b61383d81601a6137d6565b50613848601a611906565b6138767f6bdfe227d5db299c59aa56d5f846f40dbd73b271aaa78e18ed74fc3e00b8aa6b91610a7660405190565b0390a1565b9061ff009060081b6118a5565b9061389861043b6118c692151590565b825461387b565b6138cb61381c7fa84a5389ad41f9aab0831b01e5384cae76e7a7fd09131c206ff7927c201c3857613815565b6138d861382e601a612546565b6138e381601a613888565b506138ee601a612546565b6138767f5860c5063a65e23cea4e2e2925f1a841bb6d1bc9615bd425f8dd084980b0514191610a7660405190565b9062ff00009060101b6118a5565b9061393a61043b6118c692151590565b825461391c565b61396d61381c7f8118eeb5231a5fe4008a55b62860f6a0db4f6c3ac04f8141927a9b3fedd86d2f613815565b61397a61382e601a6131db565b61398581601a61392a565b50613990601a6131db565b6138767f2fda313d9b5bb0b73bd003153f2fccbc0dca49791fdd1184dfad82b44f54bd2e91610a7660405190565b9063ff0000009060181b6118a5565b906139dd61043b6118c692151590565b82546139be565b613a1061381c7f103da79ff3755ff7a17a557d28b73d37cb4de0b3c3cc02fa6c48df0f35071fbf613815565b613a1d61382e601a6135a5565b613a2881601a6139cd565b50613a33601a6135a5565b6138767f4f40fd1c59f78d7a2220da638cd9400daba01e57c7965702f390bf13133cc31f91610a7660405190565b9064ff000000009060201b6118a5565b90613a8161043b6118c692151590565b8254613a61565b613ab461381c7fbb2c68b8dc5bccdd2536307080a7865a7e133bf54e31d4d463b1b749b4bcf26d613815565b613abe601a611060565b600090613aca82611226565b03613b2e5750613adb8160176126d1565b505b613aea61382e601a611060565b613af581601a613a71565b50613b00601a611060565b6138767fbf1f9e6d8d67bb57a141c627f40368ec23ed7603249f0c3518c16eafbf9c4f6f91610a7660405190565b613b389150610d69565b613b438160176126d1565b50613add565b9061046a969594939291613b643361182f6104226007611073565b9361387693969296959195613b7a8660166126d1565b613b858760186126d1565b613b908860196126d1565b613b9b81600d6126d1565b613ba682600e6126d1565b613bb183600f6126d1565b613bbc8460106126d1565b7f17fe98b66d27bd793ea01bd8a23a54acab8eeb167d9eb016a0c7cd71c573920c97613be760405190565b9788978890815260e081019796959094909390929091602086015260408501526060840152608083015260a082015260c00152565b9061046a969594939291613b49565b61046a90613c403361182f6104226007611073565b613c4b8160076118af565b6138767f7e7ee4175d63f671fac3401d5f401ed18d1f48a586e756f404d5696fc77a7058916108b960405190565b61046a90613c2b565b906115af613c91604084015190565b613d0a613ca460008601926112fa845190565b94611312620f424093613cc0613cb986610d69565b809961456b565b50613d04613ce089611458613cd6606088015190565b60208801516112fa565b98613cfc8a61316e613cf284836144ed565b6080890151611312565b9650866144ed565b92505190565b93614283565b15613d1757565b6040517f08c379a000000000000000000000000000000000000000000000000000000000815260206004820152602160248201527f4e6f2065786365737320636f6c6c61746572616c20746f20627579206261636b60448201527f21000000000000000000000000000000000000000000000000000000000000006064820152608490fd5b15613da357565b6040517f08c379a000000000000000000000000000000000000000000000000000000000815260206004820152603060248201527f596f752061726520747279696e6720746f20627579206261636b206d6f72652060448201527f7468616e207468652065786365737321000000000000000000000000000000006064820152608490fd5b61043b906113126040613ea2613e3c845190565b613e54600091613e4e6115af84610d69565b11613d10565b613e6c613e62606087015190565b60208701516112fa565b90620f4240613e9c613e9461043b613e8d613e8685610d69565b809761456b565b948a015190565b831115613d9c565b506144ed565b92015190565b906104c8565b90613ecb61043b92613ebe600090565b506117ab60009182613ea8565b614e16565b613edf61043b91613ebe600090565b614e33565b90613ef461043b92613ebe600090565b614e72565b6002613f1261043b92613f0a600090565b506000613ea8565b0161120c565b15613f1f57565b6040517f08c379a000000000000000000000000000000000000000000000000000000000815260206004820152602f60248201527f416363657373436f6e74726f6c3a2073656e646572206d75737420626520616e60448201527f2061646d696e20746f206772616e7400000000000000000000000000000000006064820152608490fd5b9061046a91613fcf613fca613fbf6002613f12856000613ea8565b610d5661124f613fd4565b613f18565b61414a565b61043b336104b5565b15613fe457565b6040517f08c379a000000000000000000000000000000000000000000000000000000000815260206004820152603060248201527f416363657373436f6e74726f6c3a2073656e646572206d75737420626520616e60448201527f2061646d696e20746f207265766f6b65000000000000000000000000000000006064820152608490fd5b9061046a91614089614084613fbf6002613f12856000613ea8565b613fdd565b6141b8565b1561409557565b6040517f08c379a000000000000000000000000000000000000000000000000000000000815260206004820152602f60248201527f416363657373436f6e74726f6c3a2063616e206f6e6c792072656e6f756e636560448201527f20726f6c657320666f722073656c6600000000000000000000000000000000006064820152608490fd5b9061046a9161408961412d61124f613fd4565b73ffffffffffffffffffffffffffffffffffffffff84161461408e565b906141638161415e60006117ab8682613ea8565b614b19565b61416b575050565b614173613fd4565b906141a86141a26141a27f2f8788117e7eff1d82e926ec794901d17c78024a50270940304540a733656f0d9590565b926104b5565b926141b260405190565b600090a4565b906141d1816141cc60006117ab8682613ea8565b614caa565b6141d9575050565b6141e1613fd4565b906141a86141a26141a27ff6391f5c32d9c69d2a47ea670b442974b53935d1edc7fd64eb21e047a839171b9590565b919082018092116111cf57565b1561422457565b6040517f08c379a000000000000000000000000000000000000000000000000000000000815260206004820152601b60248201527f536166654d6174683a206164646974696f6e206f766572666c6f7700000000006044820152606490fd5b9061429d6111b861043b92614296600090565b5084614210565b82101561421d565b6117ab60209167ffffffffffffffff81116142e257601f017fffffffffffffffffffffffffffffffffffffffffffffffffffffffffffffffe01690565b61107d6110a5565b906142fc6142f7836142a5565b6121b4565b918252565b61430b601e6142ea565b7f536166654d6174683a207375627472616374696f6e206f766572666c6f770000602082015290565b61043b614301565b61043b91614348614334565b916143fd565b60005b8381106143615750506000910152565b8181015183820152602001614351565b61439261107d6020936117ab93614386815190565b80835293849260200190565b9586910161434e565b602080825261043b92910190614371565b156143b45750565b611815906143c160405190565b9182917f08c379a00000000000000000000000000000000000000000000000000000000083526004830161439b565b919082039182116111cf57565b61441661043b9361440c600090565b50828411156143ac565b6143f0565b507f4e487b7100000000000000000000000000000000000000000000000000000000600052601260045260246000fd5b8115614455570490565b61445d61441b565b0490565b1561446857565b6040517f08c379a000000000000000000000000000000000000000000000000000000000815260206004820152602160248201527f536166654d6174683a206d756c7469706c69636174696f6e206f766572666c6f60448201527f77000000000000000000000000000000000000000000000000000000000000006064820152608490fd5b9060006144f981610d69565b8314614524575061043b9061451e6115af6111b861451784876111b1565b958661444b565b14614461565b61043b92509050610d69565b61453a601a6142ea565b7f536166654d6174683a206469766973696f6e206279207a65726f000000000000602082015290565b61043b614530565b61043b91614577614563565b9161459961043b93614587600090565b506145926000610d69565b84116143ac565b61444b565b156145a557565b6040517f08c379a000000000000000000000000000000000000000000000000000000000815260206004820152602f60248201527f4f6e6c792074686520636f6e7472616374206f776e6572206d6179207065726660448201527f6f726d207468697320616374696f6e00000000000000000000000000000000006064820152608490fd5b61046a906146483361464261186c6104226001611073565b1461459e565b6146538160026118af565b6138767f906a1c6bd7e3091ea86693dd029a831c19049ce77f1dce2ce0bab1cacbabce22916108b960405190565b61046a9061462a565b1561469157565b6040517f08c379a000000000000000000000000000000000000000000000000000000000815260206004820152603560248201527f596f75206d757374206265206e6f6d696e61746564206265666f726520796f7560448201527f2063616e20616363657074206f776e65727368697000000000000000000000006064820152608490fd5b61042261043b61043b9290565b61043b90614716565b6147463361474061186c6104226002611073565b1461468a565b6147506001611073565b61475a6002611073565b7fb532073b38c83145e3e5135377a08bf9aab55bc0fd7c1179cd4fb995d2a5159c916147b361478860405190565b9283928373ffffffffffffffffffffffffffffffffffffffff91821681529116602082015260400190565b0390a16147c06002611073565b6147cb8160016118af565b506147d66000614723565b6118f08160026118af565b6147f46147ee61043b9290565b60e01b90565b7fffffffff000000000000000000000000000000000000000000000000000000001690565b3d15614833576148283d6142ea565b903d6000602084013e565b606090565b801515610456565b9050519061046a82614838565b9061043b916020818303121561484057614865600080fd5b614840565b1561487157565b6040517f08c379a000000000000000000000000000000000000000000000000000000000815260206004820152601f60248201527f5472616e7366657248656c7065723a205452414e534645525f4641494c4544006044820152606490fd5b600091906004614918849361490961046a976148ef63a9059cbb6147e1565b926148f960405190565b95869460208601908152016111d7565b602082018103825203826110d5565b82602082019151925af161492a614819565b81614936575b5061486a565b80519091506149486115af6000610d69565b14908115614958575b5038614930565b61497291506020614967825190565b81830101910161484d565b38614951565b73ffffffffffffffffffffffffffffffffffffffff91821681529116602082015260608101929161046a9160400152565b156149b057565b6040517f08c379a0000000000000000000000000000000000000000000000000000000008152602060048201526024808201527f5472616e7366657248656c7065723a205452414e534645525f46524f4d5f464160448201527f494c4544000000000000000000000000000000000000000000000000000000006064820152608490fd5b6004614a6d6000949361490961046a978796614a536323b872dd6147e1565b93614a5d60405190565b9687956020870190815201614978565b82602082019151925af1614a7f614819565b81614a8b575b506149a9565b8051909150614a9d6115af6000610d69565b14908115614aad575b5038614a85565b614abc91506020614967825190565b38614aa6565b614aeb614ae561043b9273ffffffffffffffffffffffffffffffffffffffff1690565b60601b90565b7fffffffffffffffffffffffffffffffffffffffff0000000000000000000000001690565b61043b90614ac2565b90614b3e6115af614b39600061043b95614b31600090565b500193614b10565b614aeb565b614c39565b507f4e487b7100000000000000000000000000000000000000000000000000000000600052603260045260246000fd5b614b93600191614b81815490565b841015614b9c57600052602060002090565b91020190600090565b614ba4614b43565b600052602060002090565b919060086118a5910291614be27fffffffffffffffffffffffffffffffffffffffffffffffffffffffffffffffff841b90565b921b90565b9190614bf661043b6118c69390565b908354614baf565b90614c2661046a9280549068010000000000000000821015614c2c575b600182018155614b73565b90614be7565b614c346110a5565b614c1b565b90614c4761382e8284614c7f565b15614c7857600191614c729161284790614c6983614c658382614bfe565b5490565b94859301613ea8565b50600190565b5050600090565b614c9891600161283a92614c91600090565b5001613ea8565b614ca56115af6000610d69565b141590565b90614cc26115af614b39600061043b95614b31600090565b614d56565b507f4e487b7100000000000000000000000000000000000000000000000000000000600052603160045260246000fd5b61046a91600091614be7565b6001614d0d825490565b8015614d2c575b0390614d29614d238383614b73565b90614cf7565b55565b614d34614cc7565b614d14565b9190614bf661043b6118c693610d69565b61046a91600091614d39565b614d6661283a8360018401613ea8565b91600091614d7383610d69565b8414614e0e5761043b9291614e0991614d97600196614d9188610d69565b906143f0565b90614e03614dfe868301614de9614dcb614dc5614dbf8d614d91614db9875490565b91610d69565b84614b73565b906104e1565b95614dda87614c268386614b73565b614de38c610d69565b90614210565b614dfa816128478d88019889613ea8565b5090565b614d03565b50613ea8565b614d4a565b509092915050565b90614e2e6115af614b39600061043b95614b31600090565b614c7f565b614e49600061043b92614e44600090565b500190565b600061043b91614e57600090565b50015490565b61043b9060601c610489565b61043b90614e5d565b614b3961043b92614e8a6000614e8f94614e44600090565b614f20565b614e69565b15614e9b57565b6040517f08c379a000000000000000000000000000000000000000000000000000000000815260206004820152602260248201527f456e756d657261626c655365743a20696e646578206f7574206f6620626f756e60448201527f64730000000000000000000000000000000000000000000000000000000000006064820152608490fd5b61043b91614dc59180548190614f37908410614e94565b50614b7356fea2646970667358221220ae2367fb8e54b17c6ada69fcfd98e29d3c03f600ddca9e377aa88a862645bc3464736f6c63430008110033",
    "linkReferences": {
      "lib/frax-solidity/src/hardhat/contracts/Frax/Pools/FraxPoolLibrary.sol": {
        "FraxPoolLibrary": [
          {
            "start": 10656,
            "length": 20
          },
          {
            "start": 11343,
            "length": 20
          },
          {
            "start": 12659,
            "length": 20
          },
          {
            "start": 13615,
            "length": 20
          },
          {
            "start": 16784,
            "length": 20
          },
          {
            "start": 17459,
            "length": 20
          }
        ]
      }
    }
  },
  "methodIdentifiers": {
    "DEFAULT_ADMIN_ROLE()": "a217fddf",
    "acceptOwnership()": "79ba5097",
    "availableExcessCollatDV()": "f61adab2",
    "bonus_rate()": "4c634934",
    "buyBackFXS(uint256,uint256)": "658445a8",
    "buyBackPaused()": "7f877f85",
    "buyback_fee()": "101197c7",
    "collatDollarBalance()": "17284c94",
    "collat_eth_oracle_address()": "8baa4b9f",
    "collateralPricePaused()": "8d2ac7a4",
    "collectRedemption()": "12ace5a2",
    "getCollateralPrice()": "f7683bbc",
    "getRoleAdmin(bytes32)": "248a9ca3",
    "getRoleMember(bytes32,uint256)": "9010d07c",
    "getRoleMemberCount(bytes32)": "ca15c873",
    "grantRole(bytes32,address)": "2f2ff15d",
    "hasRole(bytes32,address)": "91d14854",
    "lastRedeemed(address)": "abae2c4c",
    "mint1t1FRAX(uint256,uint256)": "5bd82663",
    "mintAlgorithmicFRAX(uint256,uint256)": "bdb345cb",
    "mintFractionalFRAX(uint256,uint256,uint256)": "5bb87b42",
    "mintPaused()": "7e4831d3",
    "minting_fee()": "c3355b8d",
    "nominateNewOwner(address)": "1627540c",
    "nominatedOwner()": "53a47bb7",
    "owner()": "8da5cb5b",
    "pausedPrice()": "c74ec56a",
    "pool_ceiling()": "6526a12a",
    "recollat_fee()": "fede5c9c",
    "recollateralizeFRAX(uint256,uint256)": "83c7ded7",
    "recollateralizePaused()": "6d2c5615",
    "redeem1t1FRAX(uint256,uint256)": "645af53c",
    "redeemAlgorithmicFRAX(uint256,uint256)": "6f5db87f",
    "redeemCollateralBalances(address)": "08a7493d",
    "redeemFXSBalances(address)": "c76417d7",
    "redeemFractionalFRAX(uint256,uint256,uint256)": "7e108af9",
    "redeemPaused()": "b235d468",
    "redemption_delay()": "15128425",
    "redemption_fee()": "cb73999f",
    "renounceRole(bytes32,address)": "36568abe",
    "revokeRole(bytes32,address)": "d547741f",
    "setCollatETHOracle(address,address)": "88d42cf2",
    "setPoolParameters(uint256,uint256,uint256,uint256,uint256,uint256,uint256)": "4ebbe762",
    "setTimelock(address)": "bdacb303",
    "toggleBuyBack()": "50c9ecd9",
    "toggleCollateralPrice(uint256)": "7ad1f61b",
    "toggleMinting()": "7d55094d",
    "toggleRecollateralize()": "42d15aec",
    "toggleRedeeming()": "daa50485",
    "unclaimedPoolCollateral()": "7b0461e9",
    "unclaimedPoolFXS()": "4c26203c"
  },
  "id": 25
}