{
  "abi": [
    {
      "inputs": [
        {
          "internalType": "address",
          "name": "_owner",
          "type": "address"
        }
      ],
      "stateMutability": "nonpayable",
      "type": "constructor"
    },
    {
      "anonymous": false,
      "inputs": [
        {
          "indexed": false,
          "internalType": "address",
          "name": "oldOwner",
          "type": "address"
        },
        {
          "indexed": false,
          "internalType": "address",
          "name": "newOwner",
          "type": "address"
        }
      ],
      "name": "OwnerChanged",
      "type": "event"
    },
    {
      "anonymous": false,
      "inputs": [
        {
          "indexed": false,
          "internalType": "address",
          "name": "newOwner",
          "type": "address"
        }
      ],
      "name": "OwnerNominated",
      "type": "event"
    },
    {
      "inputs": [],
      "name": "acceptOwnership",
      "outputs": [],
      "stateMutability": "nonpayable",
      "type": "function"
    },
    {
      "inputs": [
        {
          "internalType": "address",
          "name": "_owner",
          "type": "address"
        }
      ],
      "name": "nominateNewOwner",
      "outputs": [],
      "stateMutability": "nonpayable",
      "type": "function"
    },
    {
      "inputs": [],
      "name": "nominatedOwner",
      "outputs": [
        {
          "internalType": "address",
          "name": "",
          "type": "address"
        }
      ],
      "stateMutability": "view",
      "type": "function"
    },
    {
      "inputs": [],
      "name": "owner",
      "outputs": [
        {
          "internalType": "address",
          "name": "",
          "type": "address"
        }
      ],
      "stateMutability": "view",
      "type": "function"
    }
  ],
  "bytecode": {
    "object": "0x6080346100f057601f6104ac38819003918201601f19168301916001600160401b038311848410176100f5578084926020946040528339810103126100f057516001600160a01b038116908190036100f05780156100ab57600080546001600160a01b031916821781556040805191825260208201929092527fb532073b38c83145e3e5135377a08bf9aab55bc0fd7c1179cd4fb995d2a5159c9190a16040516103a0908161010c8239f35b60405162461bcd60e51b815260206004820152601960248201527f4f776e657220616464726573732063616e6e6f742062652030000000000000006044820152606490fd5b600080fd5b634e487b7160e01b600052604160045260246000fdfe60806040818152600436101561001457600080fd5b600091823560e01c9081631627540c1461022a5750806353a47bb7146101d857806379ba5097146100a157638da5cb5b1461004e57600080fd5b3461009d57817ffffffffffffffffffffffffffffffffffffffffffffffffffffffffffffffffc36011261009d5773ffffffffffffffffffffffffffffffffffffffff60209254169051908152f35b5080fd5b503461009d57817ffffffffffffffffffffffffffffffffffffffffffffffffffffffffffffffffc36011261009d5760015473ffffffffffffffffffffffffffffffffffffffff9182821690813303610155577fb532073b38c83145e3e5135377a08bf9aab55bc0fd7c1179cd4fb995d2a5159c9085549481519086168152836020820152a17fffffffffffffffffffffffff00000000000000000000000000000000000000008093161783551660015580f35b608490517f08c379a000000000000000000000000000000000000000000000000000000000815260206004820152603560248201527f596f75206d757374206265206e6f6d696e61746564206265666f726520796f7560448201527f2063616e20616363657074206f776e65727368697000000000000000000000006064820152fd5b503461009d57817ffffffffffffffffffffffffffffffffffffffffffffffffffffffffffffffffc36011261009d5760209073ffffffffffffffffffffffffffffffffffffffff600154169051908152f35b919050346103665760207ffffffffffffffffffffffffffffffffffffffffffffffffffffffffffffffffc360112610366576004359173ffffffffffffffffffffffffffffffffffffffff8084168094036103625784541633036102e05750816020917f906a1c6bd7e3091ea86693dd029a831c19049ce77f1dce2ce0bab1cacbabce22937fffffffffffffffffffffffff0000000000000000000000000000000000000000600154161760015551908152a180f35b807f08c379a0000000000000000000000000000000000000000000000000000000006084925260206004820152602f60248201527f4f6e6c792074686520636f6e7472616374206f776e6572206d6179207065726660448201527f6f726d207468697320616374696f6e00000000000000000000000000000000006064820152fd5b8480fd5b8280fdfea2646970667358221220043096299ae9a5d48f03f47d2facf3287172aace63d6e7f71af822ae121c571664736f6c63430008110033",
    "linkReferences": {}
  },
  "methodIdentifiers": {
    "acceptOwnership()": "79ba5097",
    "nominateNewOwner(address)": "1627540c",
    "nominatedOwner()": "53a47bb7",
    "owner()": "8da5cb5b"
  },
  "id": 45
}