{
  "abi": [
    {
      "inputs": [
        {
          "internalType": "address",
          "name": "_owner",
          "type": "address"
        }
      ],
      "stateMutability": "nonpayable",
      "type": "constructor"
    },
    {
      "anonymous": false,
      "inputs": [
        {
          "indexed": false,
          "internalType": "address",
          "name": "oldOwner",
          "type": "address"
        },
        {
          "indexed": false,
          "internalType": "address",
          "name": "newOwner",
          "type": "address"
        }
      ],
      "name": "OwnerChanged",
      "type": "event"
    },
    {
      "anonymous": false,
      "inputs": [
        {
          "indexed": false,
          "internalType": "address",
          "name": "newOwner",
          "type": "address"
        }
      ],
      "name": "OwnerNominated",
      "type": "event"
    },
    {
      "inputs": [],
      "name": "acceptOwnership",
      "outputs": [],
      "stateMutability": "nonpayable",
      "type": "function"
    },
    {
      "inputs": [
        {
          "internalType": "address",
          "name": "_owner",
          "type": "address"
        }
      ],
      "name": "nominateNewOwner",
      "outputs": [],
      "stateMutability": "nonpayable",
      "type": "function"
    },
    {
      "inputs": [],
      "name": "nominatedOwner",
      "outputs": [
        {
          "internalType": "address",
          "name": "",
          "type": "address"
        }
      ],
      "stateMutability": "view",
      "type": "function"
    },
    {
      "inputs": [],
      "name": "owner",
      "outputs": [
        {
          "internalType": "address",
          "name": "",
          "type": "address"
        }
      ],
      "stateMutability": "view",
      "type": "function"
    }
  ],
  "bytecode": {
    "object": "0x60806040523461002c575b61001a6100156100e3565b6101d4565b60405161054762000247823961054790f35b610034600080fd5b61000a565b600080fd5b50634e487b7160e01b600052604160045260246000fd5b90601f01601f191681019081106001600160401b0382111761007657604052565b61007e61003e565b604052565b9061009761009060405190565b9283610055565b565b6001600160a01b031690565b90565b6001600160a01b0381160361003957565b90505190610097826100a8565b906100a591602081830312156100b9576100de600080fd5b6100b9565b6100a56200078e803803806100f781610083565b9283398101906100c6565b6100996100a56100a59290565b6100a590610102565b1561011f57565b60405162461bcd60e51b815260206004820152601960248201527f4f776e657220616464726573732063616e6e6f742062652030000000000000006044820152606490fd5b6100a590610099906001600160a01b031682565b6100a590610164565b6100a590610178565b9061019a6100a56101b692610181565b82546001600160a01b0319166001600160a01b03919091161790565b9055565b6001600160a01b0391821681529116602082015260400190565b6000906101e08261010f565b916101ff6001600160a01b0384166001600160a01b0384161415610118565b610209828261018a565b507fb532073b38c83145e3e5135377a08bf9aab55bc0fd7c1179cd4fb995d2a5159c9161024161023860405190565b928392836101ba565b0390a156fe60806040526004361015610018575b610016600080fd5b005b60003560e01c80631627540c1461006857806353a47bb71461005f57806379ba50971461005657638da5cb5b0361000e576100516101db565b61000e565b506100516101a9565b50610051610157565b506100516100dc565b600080fd5b73ffffffffffffffffffffffffffffffffffffffff1690565b90565b73ffffffffffffffffffffffffffffffffffffffff81160361007157565b905035906100bd82610092565b565b9061008f91602081830312156100b0576100d7600080fd5b6100b0565b50346100ff575b6100f66100f13660046100bf565b6103a9565b604051005b0390f35b610107600080fd5b6100e3565b600091031261011757565b6100bd600080fd5b61008f916008021c73ffffffffffffffffffffffffffffffffffffffff1690565b9061008f915461011f565b61008f60006001610140565b503461019c575b61016936600461010c565b6100fb61017461014b565b6040515b9182918273ffffffffffffffffffffffffffffffffffffffff909116815260200190565b6101a4600080fd5b61015e565b50346101c3575b6101bb36600461010c565b6100f661047b565b6101cb600080fd5b6101b0565b61008f600080610140565b50346101f8575b6101ed36600461010c565b6100fb6101746101d0565b610200600080fd5b6101e2565b61008f90610076565b61008f9054610205565b1561021f57565b6040517f08c379a000000000000000000000000000000000000000000000000000000000815260206004820152602f60248201527f4f6e6c792074686520636f6e7472616374206f776e6572206d6179207065726660448201527f6f726d207468697320616374696f6e00000000000000000000000000000000006064820152608490fd5b6100bd906102dc336102d66102bc610076600061020e565b9173ffffffffffffffffffffffffffffffffffffffff1690565b14610218565b61036b565b61007661008f61008f9273ffffffffffffffffffffffffffffffffffffffff1690565b61008f906102e1565b61008f90610304565b9061032661008f6103679261030d565b82547fffffffffffffffffffffffff00000000000000000000000000000000000000001673ffffffffffffffffffffffffffffffffffffffff919091161790565b9055565b610376816001610316565b6103a47f906a1c6bd7e3091ea86693dd029a831c19049ce77f1dce2ce0bab1cacbabce229161017860405190565b0390a1565b6100bd906102a4565b156103b957565b6040517f08c379a000000000000000000000000000000000000000000000000000000000815260206004820152603560248201527f596f75206d757374206265206e6f6d696e61746564206265666f726520796f7560448201527f2063616e20616363657074206f776e65727368697000000000000000000000006064820152608490fd5b73ffffffffffffffffffffffffffffffffffffffff91821681529116602082015260400190565b61007661008f61008f9290565b61008f90610465565b6104953361048f6102bc610076600161020e565b146103b2565b61049f600061020e565b6104a9600161020e565b7fb532073b38c83145e3e5135377a08bf9aab55bc0fd7c1179cd4fb995d2a5159c916104e06104d760405190565b9283928361043e565b0390a16104ed600161020e565b6104f8816000610316565b506105036000610472565b61050e816001610316565b5056fea264697066735822122005228b4161c6d6c87d3fa86768834709c1918f8fa543f6d97d6b97c82fd166f464736f6c63430008110033",
    "linkReferences": {}
  },
  "methodIdentifiers": {
    "acceptOwnership()": "79ba5097",
    "nominateNewOwner(address)": "1627540c",
    "nominatedOwner()": "53a47bb7",
    "owner()": "8da5cb5b"
  },
  "id": 31
}