{
  "abi": [
    {
      "inputs": [],
      "stateMutability": "nonpayable",
      "type": "constructor"
    },
    {
      "inputs": [],
      "name": "getDecimals",
      "outputs": [
        {
          "internalType": "uint8",
          "name": "",
          "type": "uint8"
        }
      ],
      "stateMutability": "view",
      "type": "function"
    },
    {
      "inputs": [],
      "name": "getLatestPrice",
      "outputs": [
        {
          "internalType": "int256",
          "name": "",
          "type": "int256"
        }
      ],
      "stateMutability": "view",
      "type": "function"
    }
  ],
  "bytecode": {
    "object": "0x608060405234610023575b610012610095565b60405161049b6100c1823961049b90f35b61002b600080fd5b61000a565b61004490610047906001600160a01b031682565b90565b6001600160a01b031690565b61004490610030565b61004490610053565b906100756100446100919261005c565b82546001600160a01b0319166001600160a01b03919091161790565b9055565b6100b2735f4ec3df9cbd43714fe2740f5e3616155c5b841961005c565b6100bd816000610065565b5056fe60806040526004361015610018575b610016600080fd5b005b60003560e01c80638e15f473146100405763f0141d840361000e5761003b6100a1565b61000e565b5061003b610063565b600080fd5b600091031261005957565b610061600080fd5b565b5034610094575b61007536600461004e565b6100906100806102cb565b6040519182918290815260200190565b0390f35b61009c600080fd5b61006a565b50346100d2575b6100b336600461004e565b6100906100be6103f3565b6040519182918260ff909116815260200190565b6100da600080fd5b6100a8565b6100fd905b73ffffffffffffffffffffffffffffffffffffffff1690565b90565b6100fd90546100df565b6100e46100fd6100fd9273ffffffffffffffffffffffffffffffffffffffff1690565b6100fd9061010a565b6100fd9061012d565b507f4e487b7100000000000000000000000000000000000000000000000000000000600052604160045260246000fd5b90601f017fffffffffffffffffffffffffffffffffffffffffffffffffffffffffffffffe016810190811067ffffffffffffffff8211176101af57604052565b6101b761013f565b604052565b69ffffffffffffffffffff81165b0361004957565b90505190610061826101bc565b806101ca565b90505190610061826101de565b919060a08382031261023e575b61020881846101d1565b9261021682602083016101e4565b926100fd61022784604085016101e4565b9361023581606086016101e4565b936080016101d1565b610246600080fd5b6101fe565b506040513d6000823e3d90fd5b6100fd6100fd6100fd9290565b1561026c57565b6040517f08c379a000000000000000000000000000000000000000000000000000000000815260206004820152601760248201527f496e76616c696420636861696e6c696e6b2070726963650000000000000000006044820152606490fd5b6102fa60a06102e26102dd6000610100565b610136565b63feaf968c906102f160405190565b93849260e01b90565b825260049082905afa80156103b3575b60009081908190819061037c575b6100fd93945060009261032a84610258565b861215938461035d575b505082610343575b5050610265565b69ffffffffffffffffffff9081169250161015388061033c565b919350906103729061036e90610258565b9190565b1415913880610334565b505050506103a36100fd9160a03d81116103ac575b61039b818361016f565b8101906101f1565b91509192610318565b503d610391565b6103bb61024b565b61030a565b60ff81166101ca565b90505190610061826103c0565b906100fd91602081830312156103c9576103ee600080fd5b6103c9565b61041460206104056102dd6000610100565b63313ce567906102f160405190565b825260049082905afa908115610458575b600091610430575090565b6100fd915060203d8111610451575b610449818361016f565b8101906103d6565b503d61043f565b61046061024b565b61042556fea2646970667358221220e5d1f0c1565201cc4a406f8220be436c58a460870518b82b7f8d99a6e34f1b1f64736f6c63430008110033",
    "linkReferences": {}
  },
  "methodIdentifiers": {
    "getDecimals()": "f0141d84",
    "getLatestPrice()": "8e15f473"
  },
  "id": 38
}