{
  "abi": [
    {
      "inputs": [],
      "stateMutability": "nonpayable",
      "type": "constructor"
    },
    {
      "inputs": [],
      "name": "getDecimals",
      "outputs": [
        {
          "internalType": "uint8",
          "name": "",
          "type": "uint8"
        }
      ],
      "stateMutability": "view",
      "type": "function"
    },
    {
      "inputs": [],
      "name": "getLatestPrice",
      "outputs": [
        {
          "internalType": "int256",
          "name": "",
          "type": "int256"
        }
      ],
      "stateMutability": "view",
      "type": "function"
    }
  ],
  "bytecode": {
    "object": "0x6080806040523461003c57600080546001600160a01b031916735f4ec3df9cbd43714fe2740f5e3616155c5b841917905561036f90816100428239f35b600080fdfe60806040818152600436101561001457600080fd5b600091823560e01c9081638e15f47314610121575063f0141d841461003857600080fd5b3461011d57817ffffffffffffffffffffffffffffffffffffffffffffffffffffffffffffffffc36011261011d5781602073ffffffffffffffffffffffffffffffffffffffff60049454168351948580927f313ce5670000000000000000000000000000000000000000000000000000000082525afa9283156101115781936100c9575b60208460ff855191168152f35b9092506020813d8211610109575b816100e4602093836102ad565b8101031261010557519160ff83168303610102575060ff60206100bc565b80fd5b8280fd5b3d91506100d7565b509051903d90823e3d90fd5b5080fd5b8391503461011d57817ffffffffffffffffffffffffffffffffffffffffffffffffffffffffffffffffc36011261011d5760a08160048173ffffffffffffffffffffffffffffffffffffffff8654167ffeaf968c0000000000000000000000000000000000000000000000000000000082525afa80156102a35782838093819361024a575b508412159283610240575b5082610225575b5050156101c85760209151908152f35b606482517f08c379a000000000000000000000000000000000000000000000000000000000815260206004820152601760248201527f496e76616c696420636861696e6c696e6b2070726963650000000000000000006044820152fd5b69ffffffffffffffffffff90811691161015905083806101b8565b15159250856101b1565b94509250505060a0823d821161029b575b8161026860a093836102ad565b81010312610102576102798261031d565b90602083015161029060806060860151950161031d565b9290939291866101a6565b3d915061025b565b83513d84823e3d90fd5b90601f7fffffffffffffffffffffffffffffffffffffffffffffffffffffffffffffffe0910116810190811067ffffffffffffffff8211176102ee57604052565b7f4e487b7100000000000000000000000000000000000000000000000000000000600052604160045260246000fd5b519069ffffffffffffffffffff8216820361033457565b600080fdfea26469706673582212205061c7696526ef03dc1f77a966d745a31ad86d0a98f0ae97b6a671049ddc1d5464736f6c63430008110033",
    "linkReferences": {}
  },
  "methodIdentifiers": {
    "getDecimals()": "f0141d84",
    "getLatestPrice()": "8e15f473"
  },
  "id": 43
}