{
  "abi": [
    {
      "inputs": [],
      "stateMutability": "nonpayable",
      "type": "constructor"
    },
    {
      "inputs": [],
      "name": "FEE_DENOMINATOR",
      "outputs": [
        {
          "internalType": "uint256",
          "name": "",
          "type": "uint256"
        }
      ],
      "stateMutability": "view",
      "type": "function"
    },
    {
      "inputs": [
        {
          "internalType": "address",
          "name": "_rewardsAddress",
          "type": "address"
        }
      ],
      "name": "changeRewards",
      "outputs": [],
      "stateMutability": "nonpayable",
      "type": "function"
    },
    {
      "inputs": [],
      "name": "checkpointRewards",
      "outputs": [],
      "stateMutability": "nonpayable",
      "type": "function"
    },
    {
      "inputs": [],
      "name": "earned",
      "outputs": [
        {
          "internalType": "address[]",
          "name": "token_addresses",
          "type": "address[]"
        },
        {
          "internalType": "uint256[]",
          "name": "total_earned",
          "type": "uint256[]"
        }
      ],
      "stateMutability": "view",
      "type": "function"
    },
    {
      "inputs": [],
      "name": "feeRegistry",
      "outputs": [
        {
          "internalType": "address",
          "name": "",
          "type": "address"
        }
      ],
      "stateMutability": "view",
      "type": "function"
    },
    {
      "inputs": [],
      "name": "fxs",
      "outputs": [
        {
          "internalType": "address",
          "name": "",
          "type": "address"
        }
      ],
      "stateMutability": "view",
      "type": "function"
    },
    {
      "inputs": [],
      "name": "getReward",
      "outputs": [],
      "stateMutability": "nonpayable",
      "type": "function"
    },
    {
      "inputs": [
        {
          "internalType": "bool",
          "name": "_claim",
          "type": "bool"
        },
        {
          "internalType": "address[]",
          "name": "_rewardTokenList",
          "type": "address[]"
        }
      ],
      "name": "getReward",
      "outputs": [],
      "stateMutability": "nonpayable",
      "type": "function"
    },
    {
      "inputs": [
        {
          "internalType": "bool",
          "name": "_claim",
          "type": "bool"
        }
      ],
      "name": "getReward",
      "outputs": [],
      "stateMutability": "nonpayable",
      "type": "function"
    },
    {
      "inputs": [
        {
          "internalType": "address",
          "name": "_owner",
          "type": "address"
        },
        {
          "internalType": "address",
          "name": "_stakingAddress",
          "type": "address"
        },
        {
          "internalType": "address",
          "name": "_stakingToken",
          "type": "address"
        },
        {
          "internalType": "address",
          "name": "_rewardsAddress",
          "type": "address"
        }
      ],
      "name": "initialize",
      "outputs": [],
      "stateMutability": "nonpayable",
      "type": "function"
    },
    {
      "inputs": [],
      "name": "owner",
      "outputs": [
        {
          "internalType": "address",
          "name": "",
          "type": "address"
        }
      ],
      "stateMutability": "view",
      "type": "function"
    },
    {
      "inputs": [],
      "name": "rewards",
      "outputs": [
        {
          "internalType": "address",
          "name": "",
          "type": "address"
        }
      ],
      "stateMutability": "view",
      "type": "function"
    },
    {
      "inputs": [
        {
          "internalType": "address",
          "name": "_proxy",
          "type": "address"
        }
      ],
      "name": "setVeFXSProxy",
      "outputs": [],
      "stateMutability": "nonpayable",
      "type": "function"
    },
    {
      "inputs": [],
      "name": "stakingAddress",
      "outputs": [
        {
          "internalType": "address",
          "name": "",
          "type": "address"
        }
      ],
      "stateMutability": "view",
      "type": "function"
    },
    {
      "inputs": [],
      "name": "stakingToken",
      "outputs": [
        {
          "internalType": "address",
          "name": "",
          "type": "address"
        }
      ],
      "stateMutability": "view",
      "type": "function"
    },
    {
      "inputs": [],
      "name": "usingProxy",
      "outputs": [
        {
          "internalType": "address",
          "name": "",
          "type": "address"
        }
      ],
      "stateMutability": "view",
      "type": "function"
    },
    {
      "inputs": [],
      "name": "vaultType",
      "outputs": [
        {
          "internalType": "enum IVaultType.VaultType",
          "name": "",
          "type": "uint8"
        }
      ],
      "stateMutability": "pure",
      "type": "function"
    },
    {
      "inputs": [],
      "name": "vaultVersion",
      "outputs": [
        {
          "internalType": "uint256",
          "name": "",
          "type": "uint256"
        }
      ],
      "stateMutability": "pure",
      "type": "function"
    },
    {
      "inputs": [],
      "name": "vefxsProxy",
      "outputs": [
        {
          "internalType": "address",
          "name": "",
          "type": "address"
        }
      ],
      "stateMutability": "view",
      "type": "function"
    }
  ],
  "bytecode": {
    "object": "0x60806040523461001b575b60405161129b610029823961129b90f35b610023600080fd5b61000a56fe60806040526004361015610018575b610016600080fd5b005b60003560e01c8063193ba6d1146101945780632a5548421461018b5780633d18b912146101825780634ac032be146101795780634e7adf2c146101705780634f5aefcf14610167578063641a6cd01461015e57806372f702f3146101555780637d4234461461014c5780638da5cb5b146101435780639ec5a8941461013a578063a4698feb14610131578063b3a408b814610128578063d6f192621461011f578063d73792a914610116578063d7b4be241461010d578063d7c04a4614610104578063e869565e146100fb5763f8c8765e0361000e576100f661085d565b61000e565b506100f66107ec565b506100f66107c2565b506100f661078c565b506100f6610756565b506100f66106ff565b506100f66105f4565b506100f66105cf565b506100f6610588565b506100f6610552565b506100f661050b565b506100f66104e1565b506100f6610482565b506100f6610415565b506100f6610321565b506100f66102f3565b506100f6610266565b506100f661023a565b506100f66101d7565b600080fd5b60009103126101ad57565b6101b5600080fd5b565b90565b73ffffffffffffffffffffffffffffffffffffffff1690565b9052565b503461022d575b6101e93660046101a2565b6102297359cfcd384746ec3035299d90782be065e466800b5b6040519182918273ffffffffffffffffffffffffffffffffffffffff909116815260200190565b0390f35b610235600080fd5b6101de565b5034610259575b61024c3660046101a2565b610254610dac565b604051005b610261600080fd5b610241565b5034610278575b6102543660046101a2565b610280600080fd5b61026d565b507f4e487b7100000000000000000000000000000000000000000000000000000000600052602160045260246000fd5b600411156102bf57565b6101b5610285565b906101b5826102b5565b6101b7906102c7565b6101d3906102d1565b6020810192916101b591906102da565b5034610314575b6103053660046101a2565b604051806102296000826102e3565b61031c600080fd5b6102fa565b503461034e575b6103333660046101a2565b61022961033e610885565b6040519182918290815260200190565b610356600080fd5b610328565b8015155b0361019d57565b905035906101b58261035b565b909182601f830112156103b2575b602082359267ffffffffffffffff84116103a5575b0192602083028401116101ad57565b6103ad600080fd5b610396565b6103ba600080fd5b610381565b91906103f790604084820312610408575b6103da8185610366565b9360208101359067ffffffffffffffff82116103fb575b01610373565b9091565b610403600080fd5b6103f1565b610410600080fd5b6103d0565b503461042f575b61025461042a3660046103bf565b505050565b610437600080fd5b61041c565b73ffffffffffffffffffffffffffffffffffffffff811661035f565b905035906101b58261043c565b906101b791602081830312156104585761047d600080fd5b610458565b503461049c575b610254610497366004610465565b610f54565b6104a4600080fd5b610489565b6101b7916008021c73ffffffffffffffffffffffffffffffffffffffff1690565b906101b791546104a9565b6101b7600060026104ca565b50346104fe575b6104f33660046101a2565b6102296102026104d5565b610506600080fd5b6104e8565b503461053a575b61051d3660046101a2565b610229733432b6a60d23ca0dfca7761b7ab56459d9c964d0610202565b610542600080fd5b610512565b6101b76000806104ca565b503461056f575b6105643660046101a2565b610229610202610547565b610577600080fd5b610559565b6101b7600060036104ca565b50346105a5575b61059a3660046101a2565b61022961020261057c565b6105ad600080fd5b61058f565b906101b79160208183031215610366576105ca600080fd5b610366565b50346105e7575b6102546105e43660046105b2565b50565b6105ef600080fd5b6105d6565b5034610623575b6106063660046101a2565b61022973c9acb83ada68413a6aa57007bc720ee2e2b3c46d610202565b61062b600080fd5b6105fb565b9061065061064961063f845190565b8084529260200190565b9260200190565b9060005b8181106106615750505090565b90919261069461068d600192865173ffffffffffffffffffffffffffffffffffffffff16815260200190565b9460200190565b929101610654565b906106ab61064961063f845190565b9060005b8181106106bc5750505090565b9091926106d261068d6001928651815260200190565b9291016106af565b60408082526101b79391926106f191840190610630565b91602081840391015261069c565b5034610729575b6107113660046101a2565b60608061022961072060405190565b928392836106da565b610731600080fd5b610706565b6101b76101b76101b79290565b6101b7612710610736565b6101b7610743565b5034610773575b6107683660046101a2565b61022961033e61074e565b61077b600080fd5b61075d565b6101b7600060016104ca565b50346107a9575b61079e3660046101a2565b610229610202610780565b6107b1600080fd5b610793565b6101b7600060046104ca565b50346107df575b6107d43660046101a2565b6102296102026107b6565b6107e7600080fd5b6107c9565b5034610806575b610254610801366004610465565b610d7b565b61080e600080fd5b6107f3565b608081830312610850575b6108288282610458565b926101b76108398460208501610458565b936108478160408601610458565b93606001610458565b610858600080fd5b61081e565b5034610878575b610254610872366004610813565b50505050565b610880600080fd5b610864565b6101b76001610736565b1561089657565b6040517f08c379a000000000000000000000000000000000000000000000000000000000815260206004820152600b60248201527f21617574685f61646d696e0000000000000000000000000000000000000000006044820152606490fd5b6101b59061092f7359cfcd384746ec3035299d90782be065e466800b5b73ffffffffffffffffffffffffffffffffffffffff16331461088f565b610adf565b6101b7906101ba565b6101b79054610934565b6101ba6101b76101b79273ffffffffffffffffffffffffffffffffffffffff1690565b6101b790610947565b6101b79061096a565b507f4e487b7100000000000000000000000000000000000000000000000000000000600052604160045260246000fd5b90601f017fffffffffffffffffffffffffffffffffffffffffffffffffffffffffffffffe016810190811067ffffffffffffffff8211176109ec57604052565b6109f461097c565b604052565b905051906101b58261035b565b906101b791602081830312156109f957610a1e600080fd5b6109f9565b506040513d6000823e3d90fd5b8061035f565b905051906101b582610a30565b906101b79160208183031215610a3657610a5b600080fd5b610a36565b73ffffffffffffffffffffffffffffffffffffffff90911681526040810192916101b59160200152565b90610a9a6101b7610adb92610973565b82547fffffffffffffffffffffffff00000000000000000000000000000000000000001673ffffffffffffffffffffffffffffffffffffffff919091161790565b9055565b610b116020610af9610af4610af4600361093d565b610973565b6302fb0c5e90610b0860405190565b93849260e01b90565b825260049082905afa908115610d6e575b600091610d40575b50610b44575b610b3b816003610a8a565b506101b561103c565b610ba66020610b59610af4610af4600361093d565b6370a0823190610b82610b6b30610973565b92610b7560405190565b9586948593849360e01b90565b835273ffffffffffffffffffffffffffffffffffffffff1660048301526024820190565b03915afa908115610d33575b600091610d05575b50600090610bc782610736565b8111610c6e575b50610c1081610be3610af4610af4600361093d565b63c00007b090610b8283610bf68161093d565b93833b15610c61575b6040515b9687958694859360e01b90565b03925af18015610c54575b610c27575b5050610b30565b81610c4692903d10610c4d575b610c3e81836109ac565b8101906101a2565b3880610c20565b503d610c34565b610c5c610a23565b610c1b565b610c69600080fd5b610bff565b81610c7f610af4610af4600361093d565b63f3fef3a390610cb483610c928161093d565b93833b15610cf8575b610cbf610ca760405190565b9788968795869460e01b90565b845260048401610a60565b03925af18015610ceb575b15610bce57610ce590823d8411610c4d57610c3e81836109ac565b38610bce565b610cf3610a23565b610cca565b610d00600080fd5b610c9b565b610d26915060203d8111610d2c575b610d1e81836109ac565b810190610a43565b38610bba565b503d610d14565b610d3b610a23565b610bb2565b610d61915060203d8111610d67575b610d5981836109ac565b810190610a06565b38610b2a565b503d610d4f565b610d76610a23565b610b22565b6101b5906108f5565b610da17359cfcd384746ec3035299d90782be065e466800b610912565b6101b56101b5610eb9565b6101b5610d84565b906101b5610dc160405190565b92836109ac565b6020809167ffffffffffffffff8111610de057020190565b610de861097c565b020190565b90929192610e02610dfd82610dc8565b610db4565b9381855260208086019202830192818411610e40575b915b838310610e275750505050565b60208091610e358486610a36565b815201920191610e1a565b610e48600080fd5b610e18565b906101b79181601f82011215610e69575b602081519101610ded565b610e71600080fd5b610e5e565b906101b791602081830312610eac575b80519067ffffffffffffffff8211610e9f575b01610e4d565b610ea7600080fd5b610e99565b610eb4600080fd5b610e86565b610eeb6000610ece610af4610af4600161093d565b63c00007b090610b8283610ee130610973565b93610c0360405190565b03925af1908115610f1d575b600091610f02575050565b6105e4913d8091833e610f1581836109ac565b810190610e76565b610f25610a23565b610ef7565b6101b590610f4b7359cfcd384746ec3035299d90782be065e466800b610912565b6101b590610f5d565b6101b590610f2a565b610f886000610f72610af4610af4600161093d565b63d7400d5690803b15610fea575b604051610b08565b825273ffffffffffffffffffffffffffffffffffffffff85166004830152602490829084905af18015610fdd575b610fc7575b506105e4816004610a8a565b610fd7906000610c3e81836109ac565b38610fbb565b610fe5610a23565b610fb6565b610ff2600080fd5b610f80565b507f4e487b7100000000000000000000000000000000000000000000000000000000600052601160045260246000fd5b9190820391821161103457565b6101b5610ff7565b6110516020610af9610af4610af4600361093d565b825260049082905afa908115611258575b60009161123a575b5061107157565b61111a611084610af4610af4600161093d565b6110ad63d9f96e8d916020309361109a85610973565b926110a460405190565b94859260e01b90565b825273ffffffffffffffffffffffffffffffffffffffff8416600483015260249082905afa91821561122d575b60009261120d575b50819260209250610b826110fc610af4610af4600361093d565b916370a08231905061110d60405190565b9687948593849360e01b90565b03915afa918215611200575b6000926111e0575b508181106111b657600090611149610af4610af4600361093d565b610cb4836111656347e7ef249661115f8361093d565b95611027565b95833b156111a9575b61117a610ca760405190565b03925af1801561119c575b61118c5750565b6101b5906000610c3e81836109ac565b6111a4610a23565b611185565b6111b1600080fd5b61116e565b906000906111ca610af4610af4600361093d565b610cb48361116563f3fef3a39661115f8361093d565b6111f991925060203d8111610d2c57610d1e81836109ac565b903861112e565b611208610a23565b611126565b6020925061122790833d8111610d2c57610d1e81836109ac565b916110e2565b611235610a23565b6110da565b611252915060203d8111610d6757610d5981836109ac565b3861106a565b611260610a23565b61106256fea26469706673582212204232c1ea3ee453fa7c9d4441a9893bf6af4eeb9ed3c277461ad8e6364d8e21f764736f6c63430008110033",
    "linkReferences": {}
  },
  "methodIdentifiers": {
    "FEE_DENOMINATOR()": "d73792a9",
    "changeRewards(address)": "e869565e",
    "checkpointRewards()": "2a554842",
    "earned()": "d6f19262",
    "feeRegistry()": "b3a408b8",
    "fxs()": "7d423446",
    "getReward()": "3d18b912",
    "getReward(bool)": "a4698feb",
    "getReward(bool,address[])": "4f5aefcf",
    "initialize(address,address,address,address)": "f8c8765e",
    "owner()": "8da5cb5b",
    "rewards()": "9ec5a894",
    "setVeFXSProxy(address)": "641a6cd0",
    "stakingAddress()": "d7b4be24",
    "stakingToken()": "72f702f3",
    "usingProxy()": "d7c04a46",
    "vaultType()": "4ac032be",
    "vaultVersion()": "4e7adf2c",
    "vefxsProxy()": "193ba6d1"
  },
  "id": 17
}