{
  "abi": [
    {
      "inputs": [],
      "stateMutability": "nonpayable",
      "type": "constructor"
    },
    {
      "inputs": [],
      "name": "ConfirmationFailed",
      "type": "error"
    },
    {
      "inputs": [],
      "name": "NonVaultReceiver",
      "type": "error"
    },
    {
      "inputs": [],
      "name": "FEE_DENOMINATOR",
      "outputs": [
        {
          "internalType": "uint256",
          "name": "",
          "type": "uint256"
        }
      ],
      "stateMutability": "view",
      "type": "function"
    },
    {
      "inputs": [
        {
          "internalType": "address",
          "name": "from",
          "type": "address"
        },
        {
          "internalType": "address",
          "name": "to",
          "type": "address"
        },
        {
          "internalType": "bytes32",
          "name": "kek_id",
          "type": "bytes32"
        },
        {
          "internalType": "bytes",
          "name": "data",
          "type": "bytes"
        }
      ],
      "name": "beforeLockTransfer",
      "outputs": [
        {
          "internalType": "bytes4",
          "name": "",
          "type": "bytes4"
        }
      ],
      "stateMutability": "nonpayable",
      "type": "function"
    },
    {
      "inputs": [
        {
          "internalType": "address",
          "name": "_rewardsAddress",
          "type": "address"
        }
      ],
      "name": "changeRewards",
      "outputs": [],
      "stateMutability": "nonpayable",
      "type": "function"
    },
    {
      "inputs": [],
      "name": "checkpointRewards",
      "outputs": [],
      "stateMutability": "nonpayable",
      "type": "function"
    },
    {
      "inputs": [],
      "name": "convexCurveBooster",
      "outputs": [
        {
          "internalType": "address",
          "name": "",
          "type": "address"
        }
      ],
      "stateMutability": "view",
      "type": "function"
    },
    {
      "inputs": [],
      "name": "convexDepositToken",
      "outputs": [
        {
          "internalType": "address",
          "name": "",
          "type": "address"
        }
      ],
      "stateMutability": "view",
      "type": "function"
    },
    {
      "inputs": [],
      "name": "crv",
      "outputs": [
        {
          "internalType": "address",
          "name": "",
          "type": "address"
        }
      ],
      "stateMutability": "view",
      "type": "function"
    },
    {
      "inputs": [],
      "name": "curveLpToken",
      "outputs": [
        {
          "internalType": "address",
          "name": "",
          "type": "address"
        }
      ],
      "stateMutability": "view",
      "type": "function"
    },
    {
      "inputs": [],
      "name": "cvx",
      "outputs": [
        {
          "internalType": "address",
          "name": "",
          "type": "address"
        }
      ],
      "stateMutability": "view",
      "type": "function"
    },
    {
      "inputs": [],
      "name": "earned",
      "outputs": [
        {
          "internalType": "address[]",
          "name": "token_addresses",
          "type": "address[]"
        },
        {
          "internalType": "uint256[]",
          "name": "total_earned",
          "type": "uint256[]"
        }
      ],
      "stateMutability": "view",
      "type": "function"
    },
    {
      "inputs": [],
      "name": "feeRegistry",
      "outputs": [
        {
          "internalType": "address",
          "name": "",
          "type": "address"
        }
      ],
      "stateMutability": "view",
      "type": "function"
    },
    {
      "inputs": [],
      "name": "fxs",
      "outputs": [
        {
          "internalType": "address",
          "name": "",
          "type": "address"
        }
      ],
      "stateMutability": "view",
      "type": "function"
    },
    {
      "inputs": [],
      "name": "getReward",
      "outputs": [],
      "stateMutability": "nonpayable",
      "type": "function"
    },
    {
      "inputs": [
        {
          "internalType": "bool",
          "name": "_claim",
          "type": "bool"
        },
        {
          "internalType": "address[]",
          "name": "_rewardTokenList",
          "type": "address[]"
        }
      ],
      "name": "getReward",
      "outputs": [],
      "stateMutability": "nonpayable",
      "type": "function"
    },
    {
      "inputs": [
        {
          "internalType": "bool",
          "name": "_claim",
          "type": "bool"
        }
      ],
      "name": "getReward",
      "outputs": [],
      "stateMutability": "nonpayable",
      "type": "function"
    },
    {
      "inputs": [
        {
          "internalType": "address",
          "name": "spender",
          "type": "address"
        },
        {
          "internalType": "bytes32",
          "name": "kek_id",
          "type": "bytes32"
        },
        {
          "internalType": "uint256",
          "name": "amount",
          "type": "uint256"
        }
      ],
      "name": "increaseAllowance",
      "outputs": [],
      "stateMutability": "nonpayable",
      "type": "function"
    },
    {
      "inputs": [
        {
          "internalType": "address",
          "name": "_owner",
          "type": "address"
        },
        {
          "internalType": "address",
          "name": "_stakingAddress",
          "type": "address"
        },
        {
          "internalType": "address",
          "name": "_stakingToken",
          "type": "address"
        },
        {
          "internalType": "address",
          "name": "_rewardsAddress",
          "type": "address"
        }
      ],
      "name": "initialize",
      "outputs": [],
      "stateMutability": "nonpayable",
      "type": "function"
    },
    {
      "inputs": [
        {
          "internalType": "bytes32",
          "name": "_kek_id",
          "type": "bytes32"
        },
        {
          "internalType": "uint256",
          "name": "_addl_liq",
          "type": "uint256"
        }
      ],
      "name": "lockAdditional",
      "outputs": [],
      "stateMutability": "nonpayable",
      "type": "function"
    },
    {
      "inputs": [
        {
          "internalType": "bytes32",
          "name": "_kek_id",
          "type": "bytes32"
        },
        {
          "internalType": "uint256",
          "name": "_addl_liq",
          "type": "uint256"
        }
      ],
      "name": "lockAdditionalConvexToken",
      "outputs": [],
      "stateMutability": "nonpayable",
      "type": "function"
    },
    {
      "inputs": [
        {
          "internalType": "bytes32",
          "name": "_kek_id",
          "type": "bytes32"
        },
        {
          "internalType": "uint256",
          "name": "_addl_liq",
          "type": "uint256"
        }
      ],
      "name": "lockAdditionalCurveLp",
      "outputs": [],
      "stateMutability": "nonpayable",
      "type": "function"
    },
    {
      "inputs": [
        {
          "internalType": "bytes32",
          "name": "_kek_id",
          "type": "bytes32"
        },
        {
          "internalType": "uint256",
          "name": "new_ending_ts",
          "type": "uint256"
        }
      ],
      "name": "lockLonger",
      "outputs": [],
      "stateMutability": "nonpayable",
      "type": "function"
    },
    {
      "inputs": [
        {
          "internalType": "address",
          "name": "from",
          "type": "address"
        },
        {
          "internalType": "address",
          "name": "to",
          "type": "address"
        },
        {
          "internalType": "bytes32",
          "name": "kek_id",
          "type": "bytes32"
        },
        {
          "internalType": "bytes",
          "name": "data",
          "type": "bytes"
        }
      ],
      "name": "onLockReceived",
      "outputs": [
        {
          "internalType": "bytes4",
          "name": "",
          "type": "bytes4"
        }
      ],
      "stateMutability": "nonpayable",
      "type": "function"
    },
    {
      "inputs": [],
      "name": "owner",
      "outputs": [
        {
          "internalType": "address",
          "name": "",
          "type": "address"
        }
      ],
      "stateMutability": "view",
      "type": "function"
    },
    {
      "inputs": [],
      "name": "poolId",
      "outputs": [
        {
          "internalType": "uint256",
          "name": "",
          "type": "uint256"
        }
      ],
      "stateMutability": "view",
      "type": "function"
    },
    {
      "inputs": [],
      "name": "poolRegistry",
      "outputs": [
        {
          "internalType": "address",
          "name": "",
          "type": "address"
        }
      ],
      "stateMutability": "view",
      "type": "function"
    },
    {
      "inputs": [
        {
          "internalType": "address",
          "name": "spender",
          "type": "address"
        },
        {
          "internalType": "bytes32",
          "name": "kek_id",
          "type": "bytes32"
        }
      ],
      "name": "removeAllowance",
      "outputs": [],
      "stateMutability": "nonpayable",
      "type": "function"
    },
    {
      "inputs": [],
      "name": "rewards",
      "outputs": [
        {
          "internalType": "address",
          "name": "",
          "type": "address"
        }
      ],
      "stateMutability": "view",
      "type": "function"
    },
    {
      "inputs": [
        {
          "internalType": "address",
          "name": "spender",
          "type": "address"
        },
        {
          "internalType": "bytes32",
          "name": "kek_id",
          "type": "bytes32"
        },
        {
          "internalType": "uint256",
          "name": "amount",
          "type": "uint256"
        }
      ],
      "name": "setAllowance",
      "outputs": [],
      "stateMutability": "nonpayable",
      "type": "function"
    },
    {
      "inputs": [
        {
          "internalType": "address",
          "name": "spender",
          "type": "address"
        },
        {
          "internalType": "bool",
          "name": "approved",
          "type": "bool"
        }
      ],
      "name": "setApprovalForAll",
      "outputs": [],
      "stateMutability": "nonpayable",
      "type": "function"
    },
    {
      "inputs": [
        {
          "internalType": "address",
          "name": "_proxy",
          "type": "address"
        }
      ],
      "name": "setVeFXSProxy",
      "outputs": [],
      "stateMutability": "nonpayable",
      "type": "function"
    },
    {
      "inputs": [
        {
          "internalType": "uint256",
          "name": "_liquidity",
          "type": "uint256"
        },
        {
          "internalType": "uint256",
          "name": "_secs",
          "type": "uint256"
        }
      ],
      "name": "stakeLocked",
      "outputs": [
        {
          "internalType": "bytes32",
          "name": "kek_id",
          "type": "bytes32"
        }
      ],
      "stateMutability": "nonpayable",
      "type": "function"
    },
    {
      "inputs": [
        {
          "internalType": "uint256",
          "name": "_liquidity",
          "type": "uint256"
        },
        {
          "internalType": "uint256",
          "name": "_secs",
          "type": "uint256"
        }
      ],
      "name": "stakeLockedConvexToken",
      "outputs": [
        {
          "internalType": "bytes32",
          "name": "kek_id",
          "type": "bytes32"
        }
      ],
      "stateMutability": "nonpayable",
      "type": "function"
    },
    {
      "inputs": [
        {
          "internalType": "uint256",
          "name": "_liquidity",
          "type": "uint256"
        },
        {
          "internalType": "uint256",
          "name": "_secs",
          "type": "uint256"
        }
      ],
      "name": "stakeLockedCurveLp",
      "outputs": [
        {
          "internalType": "bytes32",
          "name": "kek_id",
          "type": "bytes32"
        }
      ],
      "stateMutability": "nonpayable",
      "type": "function"
    },
    {
      "inputs": [],
      "name": "stakingAddress",
      "outputs": [
        {
          "internalType": "address",
          "name": "",
          "type": "address"
        }
      ],
      "stateMutability": "view",
      "type": "function"
    },
    {
      "inputs": [],
      "name": "stakingToken",
      "outputs": [
        {
          "internalType": "address",
          "name": "",
          "type": "address"
        }
      ],
      "stateMutability": "view",
      "type": "function"
    },
    {
      "inputs": [
        {
          "internalType": "address",
          "name": "receiver_address",
          "type": "address"
        },
        {
          "internalType": "bytes32",
          "name": "origin_kek_id",
          "type": "bytes32"
        },
        {
          "internalType": "uint256",
          "name": "amount",
          "type": "uint256"
        },
        {
          "internalType": "bytes32",
          "name": "destination_kek_id",
          "type": "bytes32"
        }
      ],
      "name": "transferLocked",
      "outputs": [
        {
          "internalType": "bytes32",
          "name": "",
          "type": "bytes32"
        },
        {
          "internalType": "bytes32",
          "name": "",
          "type": "bytes32"
        }
      ],
      "stateMutability": "nonpayable",
      "type": "function"
    },
    {
      "inputs": [],
      "name": "usingProxy",
      "outputs": [
        {
          "internalType": "address",
          "name": "",
          "type": "address"
        }
      ],
      "stateMutability": "view",
      "type": "function"
    },
    {
      "inputs": [],
      "name": "vaultType",
      "outputs": [
        {
          "internalType": "enum IProxyVault.VaultType",
          "name": "",
          "type": "uint8"
        }
      ],
      "stateMutability": "pure",
      "type": "function"
    },
    {
      "inputs": [],
      "name": "vaultVersion",
      "outputs": [
        {
          "internalType": "uint256",
          "name": "",
          "type": "uint256"
        }
      ],
      "stateMutability": "pure",
      "type": "function"
    },
    {
      "inputs": [],
      "name": "vefxsProxy",
      "outputs": [
        {
          "internalType": "address",
          "name": "",
          "type": "address"
        }
      ],
      "stateMutability": "view",
      "type": "function"
    },
    {
      "inputs": [
        {
          "internalType": "bytes32",
          "name": "_kek_id",
          "type": "bytes32"
        }
      ],
      "name": "withdrawLocked",
      "outputs": [],
      "stateMutability": "nonpayable",
      "type": "function"
    },
    {
      "inputs": [
        {
          "internalType": "bytes32",
          "name": "_kek_id",
          "type": "bytes32"
        }
      ],
      "name": "withdrawLockedAndUnwrap",
      "outputs": [],
      "stateMutability": "nonpayable",
      "type": "function"
    }
  ],
  "bytecode": {
    "object": "0x60806040523462000027575b6200001562000036565b60405161496362000094823961496390f35b62000030600080fd5b6200000b565b6200004062000079565b565b6200005262000052620000529290565b90565b62000052600162000042565b906200005262000052620000759262000042565b9055565b6200008362000055565b6200009081600562000061565b5056fe60806040526004361015610018575b610016600080fd5b005b60003560e01c80630687c4bd1461036057806317b18c8914610357578063193ba6d11461034e5780632439242a146103455780632a5548421461033c5780633c62c44f146103335780633d18b9121461032a5780633e0dc34e146103215780634ab794a3146103185780634ac032be1461030f5780634e7adf2c146103065780634f5aefcf146102fd5780634fb07105146102f457806351e3fc17146102eb5780635eb143ce146102e2578063641a6cd0146102d9578063646780df146102d05780636a4874a1146102c757806372f702f3146102be578063733ff194146102b55780637d423446146102ac5780638da5cb5b146102a3578063923c1d611461029a5780639ce0ff9d146102915780639ec5a89414610288578063a10d3b331461027f578063a22cb46514610276578063a41ce7e91461026d578063a4698feb14610264578063afcff50f1461025b578063b3a408b814610252578063b61aa08c14610249578063b85efd0614610240578063c42d8b9514610237578063cc6417511461022e578063d2fbdc0d14610225578063d6f192621461021c578063d73792a914610213578063d7b4be241461020a578063d7c04a4614610201578063e869565e146101f85763f8c8765e0361000e576101f36111e3565b61000e565b506101f3611172565b506101f3611148565b506101f3611112565b506101f36110dc565b506101f361108c565b506101f3610f95565b506101f3610f6d565b506101f3610f3f565b506101f3610f17565b506101f3610eef565b506101f3610e8b565b506101f3610e4f565b506101f3610e28565b506101f3610de0565b506101f3610db8565b506101f3610d5f565b506101f3610d35565b506101f3610ced565b506101f3610cb1565b506101f3610c87565b506101f3610c40565b506101f3610c18565b506101f3610bb0565b506101f3610b68565b506101f3610b3e565b506101f3610b0b565b506101f3610ac4565b506101f3610a65565b506101f3610a04565b506101f3610803565b506101f3610722565b506101f36106f4565b506101f361065f565b506101f3610618565b506101f36105d2565b506101f3610591565b506101f36104e0565b506101f36104b5565b506101f3610456565b506101f36103ef565b506101f36103ba565b600080fd5b805b0361036957565b905035906103848261036e565b565b91906103aa906040848203126103ad575b6103a18185610377565b93602001610377565b90565b6103b5600080fd5b610397565b50346103de575b6103d56103cf366004610386565b90612d89565b604051005b0390f35b6103e6600080fd5b6103c1565b9052565b503461041d575b6103da61040d610407366004610386565b90612bd1565b6040519182918290815260200190565b610425600080fd5b6103f6565b600091031261043557565b610384600080fd5b73ffffffffffffffffffffffffffffffffffffffff1690565b50346104a8575b61046836600461042a565b6103da7359cfcd384746ec3035299d90782be065e466800b5b6040519182918273ffffffffffffffffffffffffffffffffffffffff909116815260200190565b6104b0600080fd5b61045d565b50346104d3575b6103da61040d6104cd366004610386565b90612b4c565b6104db600080fd5b6104bc565b50346104fa575b6104f236600461042a565b6103d561169c565b610502600080fd5b6104e7565b73ffffffffffffffffffffffffffffffffffffffff8116610370565b9050359061038482610507565b60808183031261056d575b6105458282610523565b926103aa6105568460208501610377565b936105648160408601610377565b93606001610377565b610575600080fd5b61053b565b9081526040810192916103849160200152565b0152565b50346105c5575b6105af6105a6366004610530565b929190916134c9565b906103da6105bc60405190565b9283928361057a565b6105cd600080fd5b610598565b50346105ec575b6105e436600461042a565b6103d5613d8c565b6105f4600080fd5b6105d9565b6103aa6103aa6103aa9290565b6103aa60246105f9565b6103aa610606565b5034610635575b61062a36600461042a565b6103da61040d610610565b61063d600080fd5b61061f565b906103aa91602081830312156103775761065a600080fd5b610377565b5034610679575b6103d5610674366004610642565b6131bb565b610681600080fd5b610666565b507f4e487b7100000000000000000000000000000000000000000000000000000000600052602160045260246000fd5b600411156106c057565b610384610686565b90610384826106b6565b6103aa906106c8565b6103eb906106d2565b60208101929161038491906106db565b5034610715575b61070636600461042a565b604051806103da6002826106e4565b61071d600080fd5b6106fb565b503461073f575b61073436600461042a565b6103da61040d611b3f565b610747600080fd5b610729565b801515610370565b905035906103848261074c565b909182601f830112156107a0575b602082359267ffffffffffffffff8411610793575b01926020830284011161043557565b61079b600080fd5b610784565b6107a8600080fd5b61076f565b91906107e5906040848203126107f6575b6107c88185610754565b9360208101359067ffffffffffffffff82116107e9575b01610761565b9091565b6107f1600080fd5b6107df565b6107fe600080fd5b6107be565b503461081e575b6103d56108183660046107ad565b916147fe565b610826600080fd5b61080a565b601f017fffffffffffffffffffffffffffffffffffffffffffffffffffffffffffffffe01690565b507f4e487b7100000000000000000000000000000000000000000000000000000000600052604160045260246000fd5b90601f017fffffffffffffffffffffffffffffffffffffffffffffffffffffffffffffffe016810190811067ffffffffffffffff8211176108c357604052565b6108cb610853565b604052565b906103846108dd60405190565b9283610883565b61092160209167ffffffffffffffff811161092557601f017fffffffffffffffffffffffffffffffffffffffffffffffffffffffffffffffe01690565b0190565b61082b610853565b90826000939282370152565b9291906103849161095161094c836108e4565b6108d0565b948286526020860191838201111561092d5761096b600080fd5b61092d565b906103aa9181601f8201121561098c575b602081359101610939565b610994600080fd5b610981565b6080818303126109f7575b6109ae8282610523565b926103aa6109bf8460208501610523565b936109cd8160408601610377565b9360608101359067ffffffffffffffff82116109ea575b01610970565b6109f2600080fd5b6109e4565b6109ff600080fd5b6109a4565b5034610a58575b6103da610a25610a1c366004610999565b92919091611c44565b604051918291827fffffffff00000000000000000000000000000000000000000000000000000000909116815260200190565b610a60600080fd5b610a0b565b5034610a7f575b6103d5610a7a366004610642565b612f3d565b610a87600080fd5b610a6c565b6103aa916008021c73ffffffffffffffffffffffffffffffffffffffff1690565b906103aa9154610a8c565b6103aa60006007610aad565b5034610ae1575b610ad636600461042a565b6103da610481610ab8565b610ae9600080fd5b610acb565b906103aa916020818303121561052357610b06600080fd5b610523565b5034610b25575b6103d5610b20366004610aee565b61182e565b610b2d600080fd5b610b12565b6103aa60006006610aad565b5034610b5b575b610b5036600461042a565b6103da610481610b32565b610b63600080fd5b610b45565b5034610b97575b610b7a36600461042a565b6103da73d533a949740bb3306d119cc777fa900ba034cd52610481565b610b9f600080fd5b610b6f565b6103aa60006002610aad565b5034610bcd575b610bc236600461042a565b6103da610481610ba4565b610bd5600080fd5b610bb7565b9091606082840312610c0b575b6103aa610bf48484610523565b93610c028160208601610377565b93604001610377565b610c13600080fd5b610be7565b5034610c33575b6103d5610c2d366004610bda565b916132b2565b610c3b600080fd5b610c1f565b5034610c6f575b610c5236600461042a565b6103da733432b6a60d23ca0dfca7761b7ab56459d9c964d0610481565b610c77600080fd5b610c47565b6103aa600080610aad565b5034610ca4575b610c9936600461042a565b6103da610481610c7c565b610cac600080fd5b610c8e565b5034610ce0575b610cc336600461042a565b6103da734e3fbd56cd56c3e72c1403e103b45db9da5b9d2b610481565b610ce8600080fd5b610cb8565b5034610d1c575b610cff36600461042a565b6103da73f403c135812408bfbe8713b5a23a04b3d48aae31610481565b610d24600080fd5b610cf4565b6103aa60006003610aad565b5034610d52575b610d4736600461042a565b6103da610481610d29565b610d5a600080fd5b610d3c565b5034610d7a575b6103d5610d74366004610bda565b91613263565b610d82600080fd5b610d66565b91906103aa90604084820312610dab575b610da28185610523565b93602001610754565b610db3600080fd5b610d98565b5034610dd3575b6103d5610dcd366004610d87565b90613374565b610ddb600080fd5b610dbf565b5034610dfe575b6103da61040d610df8366004610386565b906125dd565b610e06600080fd5b610de7565b906103aa916020818303121561075457610e23600080fd5b610754565b5034610e42575b6103d5610e3d366004610e0b565b613dc2565b610e4a600080fd5b610e2f565b5034610e7e575b610e6136600461042a565b6103da7341a5881c17185383e19df6fa4ec158a6f4851a69610481565b610e86600080fd5b610e56565b5034610eba575b610e9d36600461042a565b6103da73c9acb83ada68413a6aa57007bc720ee2e2b3c46d610481565b610ec2600080fd5b610e92565b91906103aa90604084820312610ee2575b6103a18185610523565b610eea600080fd5b610ed8565b5034610f0a575b6103d5610f04366004610ec7565b906132fe565b610f12600080fd5b610ef6565b5034610f32575b6103d5610f2c366004610386565b90612cb4565b610f3a600080fd5b610f1e565b5034610f60575b6103da610a25610f57366004610999565b92919091611ef9565b610f68600080fd5b610f46565b5034610f88575b6103d5610f82366004610386565b90612e08565b610f90600080fd5b610f74565b5034610fb0575b6103d5610faa366004610386565b90612ea9565b610fb8600080fd5b610f9c565b90610fdd610fd6610fcc845190565b8084529260200190565b9260200190565b9060005b818110610fee5750505090565b90919261102161101a600192865173ffffffffffffffffffffffffffffffffffffffff16815260200190565b9460200190565b929101610fe1565b90611038610fd6610fcc845190565b9060005b8181106110495750505090565b90919261105f61101a6001928651815260200190565b92910161103c565b60408082526103aa93919261107e91840190610fbd565b916020818403910152611029565b50346110bc575b61109e36600461042a565b6110a6613868565b906103da6110b360405190565b92839283611067565b6110c4600080fd5b611093565b6103aa6127106105f9565b6103aa6110c9565b50346110f9575b6110ee36600461042a565b6103da61040d6110d4565b611101600080fd5b6110e3565b6103aa60006001610aad565b503461112f575b61112436600461042a565b6103da610481611106565b611137600080fd5b611119565b6103aa60006004610aad565b5034611165575b61115a36600461042a565b6103da61048161113c565b61116d600080fd5b61114f565b503461118c575b6103d5611187366004610aee565b61166b565b611194600080fd5b611179565b6080818303126111d6575b6111ae8282610523565b926103aa6111bf8460208501610523565b936111cd8160408601610523565b93606001610523565b6111de600080fd5b6111a4565b5034611201575b6103d56111f8366004611199565b9291909161211a565b611209600080fd5b6111ea565b1561121557565b6040517f08c379a000000000000000000000000000000000000000000000000000000000815260206004820152600b60248201527f21617574685f61646d696e0000000000000000000000000000000000000000006044820152606490fd5b0390fd5b610384906112ba7359cfcd384746ec3035299d90782be065e466800b5b6112b4335b9173ffffffffffffffffffffffffffffffffffffffff1690565b1461120e565b6113cf565b6103aa9061043d565b6103aa90546112bf565b61043d6103aa6103aa9273ffffffffffffffffffffffffffffffffffffffff1690565b6103aa906112d2565b6103aa906112f5565b905051906103848261074c565b906103aa91602081830312156113075761132c600080fd5b611307565b506040513d6000823e3d90fd5b905051906103848261036e565b906103aa916020818303121561133e57611363600080fd5b61133e565b73ffffffffffffffffffffffffffffffffffffffff90911681526040810192916103849160200152565b9073ffffffffffffffffffffffffffffffffffffffff905b9181191691161790565b906113c46103aa6113cb926112fe565b8254611392565b9055565b61140160206113e96113e46113e460036112c8565b6112fe565b6302fb0c5e906113f860405190565b93849260e01b90565b825260049082905afa90811561165e575b600091611630575b50611434575b61142b8160036113b4565b50610384611916565b61149660206114496113e46113e460036112c8565b6370a082319061147261145b306112fe565b9261146560405190565b9586948593849360e01b90565b835273ffffffffffffffffffffffffffffffffffffffff1660048301526024820190565b03915afa908115611623575b6000916115f5575b506000906114b7826105f9565b811161155e575b50611500816114d36113e46113e460036112c8565b63c00007b090611472836114e6816112c8565b93833b15611551575b6040515b9687958694859360e01b90565b03925af18015611544575b611517575b5050611420565b8161153692903d1061153d575b61152e8183610883565b81019061042a565b3880611510565b503d611524565b61154c611331565b61150b565b611559600080fd5b6114ef565b8161156f6113e46113e460036112c8565b63f3fef3a3906115a483611582816112c8565b93833b156115e8575b6115af61159760405190565b9788968795869460e01b90565b845260048401611368565b03925af180156115db575b156114be576115d590823d841161153d5761152e8183610883565b386114be565b6115e3611331565b6115ba565b6115f0600080fd5b61158b565b611616915060203d811161161c575b61160e8183610883565b81019061134b565b386114aa565b503d611604565b61162b611331565b6114a2565b611651915060203d8111611657575b6116498183610883565b810190611314565b3861141a565b503d61163f565b611666611331565b611412565b61038490611278565b6116917359cfcd384746ec3035299d90782be065e466800b611295565b610384610384611790565b610384611674565b6020809167ffffffffffffffff81116116bc57020190565b6116c4610853565b020190565b909291926116d961094c826116a4565b9381855260208086019202830192818411611717575b915b8383106116fe5750505050565b6020809161170c848661133e565b8152019201916116f1565b61171f600080fd5b6116ef565b906103aa9181601f82011215611740575b6020815191016116c9565b611748600080fd5b611735565b906103aa91602081830312611783575b80519067ffffffffffffffff8211611776575b01611724565b61177e600080fd5b611770565b61178b600080fd5b61175d565b6117c260006117a56113e46113e460016112c8565b63c00007b090611472836117b8306112fe565b936114f360405190565b03925af19081156117f7575b6000916117d9575050565b6117f4913d8091833e6117ec8183610883565b81019061174d565b50565b6117ff611331565b6117ce565b610384906118257359cfcd384746ec3035299d90782be065e466800b611295565b61038490611837565b61038490611804565b611862600061184c6113e46113e460016112c8565b63d7400d5690803b156118c4575b6040516113f8565b825273ffffffffffffffffffffffffffffffffffffffff85166004830152602490829084905af180156118b7575b6118a1575b506117f48160046113b4565b6118b190600061152e8183610883565b38611895565b6118bf611331565b611890565b6118cc600080fd5b61185a565b507f4e487b7100000000000000000000000000000000000000000000000000000000600052601160045260246000fd5b9190820391821161190e57565b6103846118d1565b61192b60206113e96113e46113e460036112c8565b825260049082905afa908115611b32575b600091611b14575b5061194b57565b6119f461195e6113e46113e460016112c8565b61198763d9f96e8d9160203093611974856112fe565b9261197e60405190565b94859260e01b90565b825273ffffffffffffffffffffffffffffffffffffffff8416600483015260249082905afa918215611b07575b600092611ae7575b508192602092506114726119d66113e46113e460036112c8565b916370a0823190506119e760405190565b9687948593849360e01b90565b03915afa918215611ada575b600092611aba575b50818110611a9057600090611a236113e46113e460036112c8565b6115a483611a3f6347e7ef2496611a39836112c8565b95611901565b95833b15611a83575b611a5461159760405190565b03925af18015611a76575b611a665750565b61038490600061152e8183610883565b611a7e611331565b611a5f565b611a8b600080fd5b611a48565b90600090611aa46113e46113e460036112c8565b6115a483611a3f63f3fef3a396611a39836112c8565b611ad391925060203d811161161c5761160e8183610883565b9038611a08565b611ae2611331565b611a00565b60209250611b0190833d811161161c5761160e8183610883565b916119bc565b611b0f611331565b6119b4565b611b2c915060203d8111611657576116498183610883565b38611944565b611b3a611331565b61193c565b6103aa60046105f9565b15611b5057565b6040517f08c379a000000000000000000000000000000000000000000000000000000000815260206004820152600e60248201527f696e76616c696420706172616d730000000000000000000000000000000000006044820152606490fd5b9050519061038482610507565b906103aa9160208183031215611baf57611bd4600080fd5b611baf565b908152604081019291610384916020905b019073ffffffffffffffffffffffffffffffffffffffff169052565b611c1f611c196103aa9263ffffffff1690565b60e01b90565b7fffffffff000000000000000000000000000000000000000000000000000000001690565b9250309150611c52826112fe565b92611c7273ffffffffffffffffffffffffffffffffffffffff851661129a565b1480611df7575b611c8290611b49565b611d4961129a611ca66113e47341a5881c17185383e19df6fa4ec158a6f4851a6981565b611cde63bfff576f91611cb7610606565b906020611cc66113e4896112fe565b638da5cb5b90611cd560405190565b95869260e01b90565b825260049082906000905af1928315611dea575b600093611dc3575b50611d10600060209495611d1b61159760405190565b845260048401611bd9565b03925af1908115611db6575b600091611d88575b5073ffffffffffffffffffffffffffffffffffffffff1690565b03611d5d5750506103aa634fb07105611c06565b6040517fae59d4f4000000000000000000000000000000000000000000000000000000008152600490fd5b611da9915060203d8111611daf575b611da18183610883565b810190611bbc565b38611d2f565b503d611d97565b611dbe611331565b611d27565b602093506000611de2611d1092863d8111611daf57611da18183610883565b945050611cfa565b611df2611331565b611cf2565b50611c8233611e0c61129a61043d60016112c8565b149050611c79565b7fffffffff000000000000000000000000000000000000000000000000000000008116610370565b9050519061038482611e14565b906103aa9160208183031215611e3c57611e61600080fd5b611e3c565b60005b838110611e795750506000910152565b8181015183820152602001611e69565b611eaa61082b60209361092193611e9e815190565b80835293849260200190565b95869101611e66565b73ffffffffffffffffffffffffffffffffffffffff9182168152911660208201526103aa926080820192909190611eec905b6040830152565b6060818403910152611e89565b909192611f04600090565b503093611f10856112fe565b73ffffffffffffffffffffffffffffffffffffffff811673ffffffffffffffffffffffffffffffffffffffff86161480612019575b611f4e90611b49565b611f5860006112c8565b3b95600096611f6d611f69896105f9565b9190565b111561200357505084611fac91611fb7611f8f6113e46113e46020999a6112c8565b9463c42d8b9592611f9f60405190565b998a988997889660e01b90565b865260048601611eb3565b03925af1908115611ff6575b600091611fce575090565b6103aa915060203d8111611fef575b611fe78183610883565b810190611e49565b503d611fdd565b611ffe611331565b611fc3565b9450945050505050506103aa63c42d8b95611c06565b50611f4e3361202e61129a61043d60016112c8565b149050611f45565b61043d6103aa6103aa9290565b6103aa90612036565b1561205357565b6040517f08c379a000000000000000000000000000000000000000000000000000000000815260206004820152600c60248201527f616c726561647920696e697400000000000000000000000000000000000000006044820152606490fd5b909160c08284031261210d575b6120c98383611baf565b926120d78160208501611baf565b926120e58260408301611baf565b926103aa6120f68460608501611baf565b936121048160808601611baf565b9360a001611307565b612115600080fd5b6120bf565b6122069083929461212b60006112c8565b9161214760009361214161129a61043d87612043565b1461204c565b61215181846113b4565b5061215d8660016113b4565b6121688460026113b4565b6121738160036113b4565b5060c06121c36121976113e473f403c135812408bfbe8713b5a23a04b3d48aae3181565b83631526fe2760206121ab6113e48a6112fe565b63e529ee95906121ba60405190565b96879260e01b90565b825260049082905afa9384156123e6575b6000946123c0575b50906121f8916121eb60405190565b9788958694859360e01b90565b835260048301526024820190565b03925af19081156123b3575b600092839261237d575b506122288260066113b4565b6122338360076113b4565b61223c846112fe565b612245906112fe565b9563095ea7b3937fffffffffffffffffffffffffffffffffffffffffffffffffffffffffffffffff9761227760405190565b8080946122848960e01b90565b82528b600483019161229592611368565b0381865a94602095f1908882156020996122c96113e46115a4996122ef986113e4988f96612370575b61235a575b506112fe565b6115a4888b6122da61159760405190565b03925af1801561234d575b61233257506112fe565b926122fc61159760405190565b03925af18015612325575b61230e5750565b6117f49060203d8111611657576116498183610883565b61232d611331565b612307565b61234890893d8111611657576116498183610883565b6122c3565b612355611331565b6122e5565b61234890863d8111611657576116498183610883565b612378611331565b6122be565b9092506123a1915060c03d81116123ac575b6123998183610883565b8101906120b2565b50505092909261221c565b503d61238f565b6123bb611331565b612212565b6121f8929194506123de9060203d811161161c5761160e8183610883565b9390916121dc565b6123ee611331565b6121d4565b156123fa57565b6040517f08c379a000000000000000000000000000000000000000000000000000000000815260206004820152600560248201527f21617574680000000000000000000000000000000000000000000000000000006044820152606490fd5b906103aa929161247b61246c60006112c8565b6124753361129a565b146123f3565b9061248e92916124896126a9565b612497565b906103846126dc565b92919060006124a5816105f9565b82116124b7575b505050610384611916565b602092945061251c816124cd6113e460066112c8565b33906124e68630926124de846112fe565b948591612715565b612510836124fa6113e46113e460026112c8565b9250636e553f65833b15611551576040516114f3565b83528a60048401611bd9565b03925af180156125d0575b6125b4575b5061255f6125406113e46113e460016112c8565b916317b18c8961256a61255260405190565b9889968795869460e01b90565b84526004840161057a565b03925af19182156125a7575b600092612587575b508138806124ac565b6125a091925060203d811161161c5761160e8183610883565b903861257e565b6125af611331565b612576565b6125ca90823d841161153d5761152e8183610883565b3861252c565b6125d8611331565b612527565b6103aa91906000612459565b6103aa9081565b6103aa90546125e9565b6103aa60026105f9565b1561260b57565b6040517f08c379a000000000000000000000000000000000000000000000000000000000815260206004820152601f60248201527f5265656e7472616e637947756172643a207265656e7472616e742063616c6c006044820152606490fd5b907fffffffffffffffffffffffffffffffffffffffffffffffffffffffffffffffff906113aa565b906126a26103aa6113cb926105f9565b825461266a565b6126b360056125f0565b6126c76126be6125fa565b91821415612604565b6117f4816005612692565b6103aa60016105f9565b6126c76126d2565b73ffffffffffffffffffffffffffffffffffffffff9182168152911660208201526060810192916103849160400152565b90612764906127556103849560049561272d866112fe565b5061273b6323b872dd611c06565b9361274560405190565b97889560208701908152016126e4565b60208201810382520383610883565b612842565b9061277661094c836108e4565b918252565b6127856020612769565b7f5361666545524332303a206c6f772d6c6576656c2063616c6c206661696c6564602082015290565b6103aa61277b565b156127bd57565b6040517f08c379a000000000000000000000000000000000000000000000000000000000815260206004820152602a60248201527f5361666545524332303a204552433230206f7065726174696f6e20646964206e60448201527f6f742073756363656564000000000000000000000000000000000000000000006064820152608490fd5b9061284f61285e926112fe565b906128586127ae565b91612892565b805161286d611f6960006105f9565b116128755750565b80516103849161288d91602090818301019101611314565b6127b6565b6103aa92916128a160006105f9565b91612952565b156128ae57565b6040517f08c379a000000000000000000000000000000000000000000000000000000000815260206004820152602660248201527f416464726573733a20696e73756666696369656e742062616c616e636520666f60448201527f722063616c6c00000000000000000000000000000000000000000000000000006064820152608490fd5b3d1561294d576129423d612769565b903d6000602084013e565b606090565b9060006103aa94938192612964606090565b5061297b612971306112fe565b83903110156128a7565b60208101905191855af161298d612933565b916129f9565b1561299a57565b6040517f08c379a000000000000000000000000000000000000000000000000000000000815260206004820152601d60248201527f416464726573733a2063616c6c20746f206e6f6e2d636f6e74726163740000006044820152606490fd5b919260609115612a2f5750508151612a14611f6960006105f9565b14612a1d575090565b6103aa90612a2a90612a3c565b612993565b9093926103849250612a5f565b3b612a4a611f6960006105f9565b1190565b60208082526103aa92910190611e89565b9150612a69825190565b612a76611f6960006105f9565b1115612a855750805190602001fd5b6040517f08c379a00000000000000000000000000000000000000000000000000000000081529081906112749060048301612a4e565b906103aa9291612ace61246c60006112c8565b9061248e9291612adc6126a9565b9291906000612aea816105f9565b8211612afb57505050610384611916565b602092945061251c81612b116113e460076112c8565b3390612b228630926124de846112fe565b61251083612b366113e46113e460026112c8565b9250637acb7757833b15611551576040516114f3565b6103aa91906000612abb565b906103aa9291612b6b61246c60006112c8565b9061248e9291612b796126a9565b9291906000612b87816105f9565b8211612b9857505050610384611916565b6020929450612bbe82612bae6113e460026112c8565b33612bb8306112fe565b91612715565b61255f6125406113e46113e460016112c8565b6103aa91906000612b58565b9061038491612bef61246c60006112c8565b90612c0191612bfc6126a9565b612c09565b6103846126dc565b90600091612c16836105f9565b8211612c2757505050610384611916565b8290612c3a83612bae6113e460026112c8565b612c4a6113e46113e460016112c8565b61255f8363b85efd06833b15612ca7575b612c6761159760405190565b03925af18015612c9a575b612c7d575b806124ac565b81612c9392903d1061153d5761152e8183610883565b3880612c77565b612ca2611331565b612c72565b612caf600080fd5b612c5b565b9061038491612bdd565b9061038491612cd061246c60006112c8565b90612c0191612cdd6126a9565b90600091612cea836105f9565b8211612cfb57505050610384611916565b8290612d3f82612d0e6113e460066112c8565b3390612d1f8730926124de846112fe565b612d33836124fa6113e46113e460026112c8565b83528b60048401611bd9565b03925af18015612d7c575b612d60575b50612c4a6113e46113e460016112c8565b612d7690833d851161153d5761152e8183610883565b38612d4f565b612d84611331565b612d4a565b9061038491612cbe565b9061038491612da561246c60006112c8565b90612c0191612db26126a9565b90600091612dbf836105f9565b8211612dd057505050610384611916565b8290612d3f82612de36113e460076112c8565b3390612df48730926124de846112fe565b612d3383612b366113e46113e460026112c8565b9061038491612d93565b9061038491612e2461246c60006112c8565b90612c0191612e316126a9565b600090612e446113e46113e460016112c8565b61255f8363d2fbdc0d833b15612e9c575b612e6161159760405190565b03925af18015612e8f575b612e795750610384611916565b612e8990600061152e8183610883565b3861142b565b612e97611331565b612e6c565b612ea4600080fd5b612e55565b9061038491612e12565b61038490612ec461246c60006112c8565b612c0190612ed06126a9565b6020612ee26113e46113e460016112c8565b9163e44b9fa592611d1060003395612efc61159760405190565b03925af18015612f30575b612f145750610384611916565b612f2b9060203d811161161c5761160e8183610883565b61142b565b612f38611331565b612f07565b61038490612eb3565b61038490612f5761246c60006112c8565b612c0190612f636126a9565b6130a26000612f786113e46113e460016112c8565b92602063e44b9fa5913095611d10612f8f886112fe565b958695612f9e61159760405190565b03925af180156131ae575b613192575b50612fbf6113e46113e460026112c8565b906130426000633969dfb493612fdb6113e46113e460026112c8565b906370a08231956020612fed60405190565b8094612ff98a60e01b90565b825273ffffffffffffffffffffffffffffffffffffffff8916600483015260249082905afa928315613185575b849361315f575b50836121f891833b15611551576040516114f3565b03925af18015613152575b61313c575b5060206130656113e46113e460066112c8565b9163a9059cbb9561147261307960006112c8565b9561308a6113e46113e460066112c8565b925061309560405190565b9788948593849360e01b90565b03915afa92831561312f575b600093613108575b506115a46000602094956130cc61159760405190565b03925af180156130fb575b6130e45750610384611916565b612f2b9060203d8111611657576116498183610883565b613103611331565b6130d7565b6020935060006131276115a492863d811161161c5761160e8183610883565b9450506130b6565b613137611331565b6130ae565b61314c90600061152e8183610883565b38613052565b61315a611331565b61304d565b6121f891935061317d859160203d811161161c5761160e8183610883565b93915061302d565b61318d611331565b613026565b6131a99060203d811161161c5761160e8183610883565b612fae565b6131b6611331565b612fa9565b61038490612f46565b9061038492916131d761246c60006112c8565b613210565b73ffffffffffffffffffffffffffffffffffffffff909116815260608101939261038492909160409161058d906020830152565b6000919261324b836132286113e46113e460016112c8565b92611a5463a10d3b3391853b15613256575b6040515b9889978896879560e01b90565b8552600485016131dc565b61325e600080fd5b61323a565b9061038492916131c4565b90610384929161328161246c60006112c8565b6000919261324b836132996113e46113e460016112c8565b92611a5463733ff19491853b156132565760405161323e565b90610384929161326e565b90610384916132cf61246c60006112c8565b6000906132e26113e46113e460016112c8565b6115a48363b61aa08c833b15611a8357611a5461159760405190565b90610384916132bd565b906103849161331a61246c60006112c8565b60009061332d6113e46113e460016112c8565b6133498363a22cb465833b15611a8357611a5461159760405190565b845273ffffffffffffffffffffffffffffffffffffffff166004840152151560248301526044820190565b9061038491613308565b906107e5959493929161339461246c60006112c8565b906133aa95949392916133a56126a9565b613423565b90916103846126dc565b91906103aa906040848203126133d8575b6133cf818561133e565b9360200161133e565b6133e0600080fd5b6133c5565b61058d61038494611ee560609498979561341c608086019a600087019073ffffffffffffffffffffffffffffffffffffffff169052565b6020850152565b60409461346d92600092989794959850506134786134506113e46113e4600161344b81613dc2565b6112c8565b94633c62c44f9261346060405190565b9a8b988997889660e01b90565b8652600486016133e5565b03925af180156134bc575b600092839161349157509190565b90506107e591925060403d81116134b5575b6134ad8183610883565b8101906133b4565b503d6134a3565b6134c4611331565b613483565b6107e59392919060008061337e565b909291926134e861094c826116a4565b9381855260208086019202830192818411613526575b915b83831061350d5750505050565b6020809161351b8486611baf565b815201920191613500565b61352e600080fd5b6134fe565b906103aa9181601f8201121561354f575b6020815191016134d8565b613557600080fd5b613544565b906103aa91602081830312613592575b80519067ffffffffffffffff8211613585575b01613533565b61358d600080fd5b61357f565b61359a600080fd5b61356c565b9190916040818403126135db575b6135d56135ba60406108d0565b9360006135c78285611baf565b90860152602080930161133e565b90830152565b6135e3600080fd5b6135ad565b909291926135f861094c826116a4565b938185526040602086019202830192818411613638575b915b83831061361e5750505050565b602060409161362d848661359f565b815201920191613611565b613640600080fd5b61360f565b906103aa9181601f82011215613661575b6020815191016135e8565b613669600080fd5b613656565b906103aa916020818303126136a4575b80519067ffffffffffffffff8211613697575b01613645565b61369f600080fd5b613691565b6136ac600080fd5b61367e565b9190820180921161190e57565b9061277661094c836116a4565b369037565b906103846136e66136e0846136be565b936116a4565b7fffffffffffffffffffffffffffffffffffffffffffffffffffffffffffffffe001602084016136cb565b6001907fffffffffffffffffffffffffffffffffffffffffffffffffffffffffffffffff811461373f570190565b6109216118d1565b507f4e487b7100000000000000000000000000000000000000000000000000000000600052603260045260246000fd5b9060208091613784845190565b811015613792575b02010190565b61379a613747565b61378c565b909291926137af61094c826116a4565b9381855260406020860192028301928184116137ef575b915b8383106137d55750505050565b60206040916137e4848661359f565b8152019201916137c8565b6137f7600080fd5b6137c6565b906103aa9181601f82011215613818575b60208151910161379f565b613820600080fd5b61380d565b906103aa9160208183031261385b575b80519067ffffffffffffffff821161384e575b016137fc565b613856600080fd5b613848565b613863600080fd5b613835565b61388d90600061387e6113e46113e460016112c8565b6312edb24c9061197e60405190565b825260049082905afa918215613d7f575b600092613d58575b5061393a906138bb6113e46113e460016112c8565b3093906138da6000628cc2626138d0886112fe565b936113f860405190565b825273ffffffffffffffffffffffffffffffffffffffff8516600483015260249082905afa908115613d4b575b600091613d32575b5060006139226113e46113e460026112c8565b63b277e8f09061393160405190565b97889260e01b90565b825273ffffffffffffffffffffffffffffffffffffffff8516600483015260249082905afa948515613d25575b600095613d02575b5061399460206139856113e46113e460036112c8565b63857cb94a906113f860405190565b825260049082905afa908115613cf5575b600091613cd7575b506139d36139ce6139c5836139c0885190565b6136b1565b88515b906136b1565b6136d0565b9081966139ef6139ce6139e8846139c08a5190565b83516139c8565b9687926000926139fe846105f9565b9a5b613a0b6103aa8b5190565b8c1015613b03578b613ac58c8f613a75613aa88f8f8f908f956114726119d66113e46113e4613a5b8e613aa2613a9e82613ac29f9b81613a988f9e60209f613a75613a5b8583613a7d9450613777565b5173ffffffffffffffffffffffffffffffffffffffff1690565b938492613777565b9073ffffffffffffffffffffffffffffffffffffffff169052565b50613777565b5190565b99613777565b03915afa918215613af6575b600092613ad6575b506136b1565b52565b50613acf8c613711565b9b50613a00565b613aef91925060203d811161161c5761160e8183610883565b9038613abc565b613afe611331565b613ab4565b92959790939650613b45989a508691949b611472613b276113e46113e460036112c8565b9163dc01f60d9050613b3860405190565b9b8c948593849360e01b90565b03915afa968715613cca575b600097613ca7575b50613b63856105f9565b995b613b706103aa895190565b8b1015613c055789613bf48a613ac2613bee8f6139c8613be68f8f8f82613bd4613a988d613a7d613be096613bda613bcd8d9860209b50613bb18a8a613777565b51015173ffffffffffffffffffffffffffffffffffffffff1690565b9586945190565b886136b1565b90613777565b51015190565b968795505190565b8d613777565b50613bfe8b613711565b9a50613b65565b919594939950919550613c17836105f9565b985b613c246103aa875190565b8a1015613c9b5788613c8a89613ac2613c848b8f806139c8613c7c8f8f8f9582613c76613a988f613a7d613be096613bda8e6139c06139c09f613c6f9060209d50613bb18c8c613777565b9788965190565b8a6136b1565b988997505190565b8c613777565b50613c948a613711565b9950613c19565b96509650965050505050565b613cc391973d8091833e613cbb8183610883565b810190613825565b9538613b59565b613cd2611331565b613b51565b613cef915060203d811161161c5761160e8183610883565b386139ad565b613cfd611331565b6139a5565b613d1e91953d8091833e613d168183610883565b81019061366e565b933861396f565b613d2d611331565b613967565b613d45913d8091833e6117ec8183610883565b3861390f565b613d53611331565b613907565b613d789061393a92933d8091833e613d708183610883565b81019061355c565b91906138a6565b613d87611331565b61389e565b6103846001613dc2565b73ffffffffffffffffffffffffffffffffffffffff909116815260408101929161038491602090611bea565b613e43575b613dcf614150565b613e15613df66000613de76113e46113e460016112c8565b6312edb24c906113f860405190565b825260049082905afa908115613e36575b600091613e1d575b506146a2565b610384614448565b613e30913d8091833e613d708183610883565b38613e0f565b613e3e611331565b613e07565b613e536113e46113e460016112c8565b613fb830613e74600063c00007b0613e6a846112fe565b956113f860405190565b825273ffffffffffffffffffffffffffffffffffffffff87166004830152602490829084905af19081156140ac575b600091614093575b5050613ee16000613ec26113e46113e460026112c8565b636b09169590613ed5836114e6816112c8565b83528b60048401613d96565b03925af18015614086575b614070575b5073d533a949740bb3306d119cc777fa900ba034cd52906020613f13836112fe565b94613f1d866112fe565b936370a082319483613f2e60405190565b8092613f3a8960e01b90565b825273ffffffffffffffffffffffffffffffffffffffff8616600483015260249082905afa908115614063575b600091614046575b50600097613f7c896105f9565b8211614030575b505050613fa1734e3fbd56cd56c3e72c1403e103b45db9da5b9d2b90565b92611472613fae856112fe565b9561308a876112fe565b03915afa928315614023575b600093614003575b50613fd6846105f9565b8311613fe6575b50505050613dc7565b613ffa93613ff491506112c8565b906140b9565b38808080613fdd565b61401c91935060203d811161161c5761160e8183610883565b9138613fcc565b61402b611331565b613fc4565b61403e9250613ff4896112c8565b388080613f83565b61405d9150843d811161161c5761160e8183610883565b38613f6f565b61406b611331565b613f67565b61408090600061152e8183610883565b38613ef1565b61408e611331565b613eec565b6140a6913d8091833e6117ec8183610883565b38613eab565b6140b4611331565b613ea3565b612764600492612755610384956140cf856112fe565b506140dd63a9059cbb611c06565b926140e760405190565b9687946020860190815201611368565b8181029291811591840414171561190e57565b507f4e487b7100000000000000000000000000000000000000000000000000000000600052601260045260246000fd5b8115614144570490565b61414c61410a565b0490565b602073c9acb83ada68413a6aa57007bc720ee2e2b3c46d614170816112fe565b614179816112fe565b6313114a9d61419161418a60405190565b9160e01b90565b81528481600481855afa90811561443b575b60009161441e575b5084611472733432b6a60d23ca0dfca7761b7ab56459d9c964d0956141cf876112fe565b936141d9856112fe565b956370a082319261422c61421e30946142046141f4876112fe565b9e8f8d6114728b61146560405190565b03915afa908115614411575b6000916143f4575b506140f7565b6142266110c9565b9061413a565b6000996142388b6105f9565b821161431b575b505050505061425b61425060405190565b988993849360e01b90565b0381855afa94851561430e575b6000956142ee575b5061427a836105f9565b8511614288575b5050505050565b60209350506115a463a9059cbb9261429f816112c8565b936142ac61159760405190565b03925af180156142e1575b6142c5575b80808080614281565b6142dc9060203d8111611657576116498183610883565b6142bc565b6142e9611331565b6142b7565b61430791955060203d811161161c5761160e8183610883565b9338614270565b614316611331565b614268565b61434693889163a9059cbb94505063998cbb439061147261433c60046112c8565b9261309560405190565b03915afa9283156143e7575b6000936143bc575b50869161437a826115a4935061436f60405190565b958694859460e01b90565b03818b8b5af180156143af575b614394575b80808061423f565b6143aa90853d8111611657576116498183610883565b61438c565b6143b7611331565b614387565b6115a49193509161437a6143dd8994853d8111611daf57611da18183610883565b949250509161435a565b6143ef611331565b614352565b61440b91508a3d811161161c5761160e8183610883565b38614218565b614419611331565b614210565b6144359150853d811161161c5761160e8183610883565b386141ab565b614443611331565b6141a3565b61445d60206113e96113e46113e460036112c8565b825260049082905afa908115614695575b600091614677575b5061447d57565b6144ab6144906113e46113e460036112c8565b3060206370a082316144a1836112fe565b93611cd560405190565b825273ffffffffffffffffffffffffffffffffffffffff8516600483015260249082905afa92831561466a575b600093614642575b5061450c916020916114726144fb6113e46113e460016112c8565b9163d9f96e8d905061146560405190565b03915afa908115614635575b600091614617575b50600091614530611f69846105f9565b1480614606575b614587575b50614551816114d36113e46113e460036112c8565b03925af1801561457a575b614564575050565b8161038492903d1061153d5761152e8183610883565b614582611331565b61455c565b816145986113e46113e460036112c8565b6347e7ef24906115a4836145ab816112c8565b93833b156145f9575b6145c061159760405190565b03925af180156145ec575b1561453c576145e690823d841161153d5761152e8183610883565b3861453c565b6145f4611331565b6145cb565b614601600080fd5b6145b4565b50614610826105f9565b8111614537565b61462f915060203d811161161c5761160e8183610883565b38614520565b61463d611331565b614518565b60209193509161466161450c93833d811161161c5761160e8183610883565b939150916144e0565b614672611331565b6144d8565b61468f915060203d8111611657576116498183610883565b38614476565b61469d611331565b61446e565b60006146ad816105f9565b925b6146ba6103aa845190565b841015614792576146ce613a5b8585613777565b6146eb733432b6a60d23ca0dfca7761b7ab56459d9c964d061129a565b03614701575b6146fa84613711565b93506146af565b61471960206114496113e46113e4613a5b8989613777565b03915afa908115614785575b600091614767575b50614737836105f9565b8111614744575b506146f1565b614761906147586113e4613a5b8888613777565b613ff4856112c8565b3861473e565b61477f915060203d811161161c5761160e8183610883565b3861472d565b61478d611331565b614725565b92505050565b909291926147a861094c826116a4565b93818552602080860192028301928184116147e6575b915b8383106147cd5750505050565b602080916147db8486610523565b8152019201916147c0565b6147ee600080fd5b6147be565b6103aa913691614798565b9161481991613e159361481e575b614814614150565b6147f3565b6146a2565b61482e6113e46113e460016112c8565b600063c00007b0916148458230946138d0866112fe565b825273ffffffffffffffffffffffffffffffffffffffff85166004830152602490829084905af1908115614920575b8391614907575b505061488d6113e46113e460026112c8565b636b09169593506148b6836148a1816112c8565b95833b156148fa575b6148c161159760405190565b845260048401613d96565b03925af180156148ed575b6148d7575b5061480c565b6148e790600061152e8183610883565b386148d1565b6148f5611331565b6148cc565b614902600080fd5b6148aa565b61491a913d8091833e6117ec8183610883565b3861487b565b614928611331565b61487456fea2646970667358221220c8d122805cdb92943aacc71617b80571aa8b2ae4a8b111decac9c73c71704a2e64736f6c63430008110033",
    "linkReferences": {}
  },
  "methodIdentifiers": {
    "FEE_DENOMINATOR()": "d73792a9",
    "beforeLockTransfer(address,address,bytes32,bytes)": "4fb07105",
    "changeRewards(address)": "e869565e",
    "checkpointRewards()": "2a554842",
    "convexCurveBooster()": "9ce0ff9d",
    "convexDepositToken()": "5eb143ce",
    "crv()": "6a4874a1",
    "curveLpToken()": "646780df",
    "cvx()": "923c1d61",
    "earned()": "d6f19262",
    "feeRegistry()": "b3a408b8",
    "fxs()": "7d423446",
    "getReward()": "3d18b912",
    "getReward(bool)": "a4698feb",
    "getReward(bool,address[])": "4f5aefcf",
    "increaseAllowance(address,bytes32,uint256)": "733ff194",
    "initialize(address,address,address,address)": "f8c8765e",
    "lockAdditional(bytes32,uint256)": "b85efd06",
    "lockAdditionalConvexToken(bytes32,uint256)": "cc641751",
    "lockAdditionalCurveLp(bytes32,uint256)": "0687c4bd",
    "lockLonger(bytes32,uint256)": "d2fbdc0d",
    "onLockReceived(address,address,bytes32,bytes)": "c42d8b95",
    "owner()": "8da5cb5b",
    "poolId()": "3e0dc34e",
    "poolRegistry()": "afcff50f",
    "removeAllowance(address,bytes32)": "b61aa08c",
    "rewards()": "9ec5a894",
    "setAllowance(address,bytes32,uint256)": "a10d3b33",
    "setApprovalForAll(address,bool)": "a22cb465",
    "setVeFXSProxy(address)": "641a6cd0",
    "stakeLocked(uint256,uint256)": "17b18c89",
    "stakeLockedConvexToken(uint256,uint256)": "2439242a",
    "stakeLockedCurveLp(uint256,uint256)": "a41ce7e9",
    "stakingAddress()": "d7b4be24",
    "stakingToken()": "72f702f3",
    "transferLocked(address,bytes32,uint256,bytes32)": "3c62c44f",
    "usingProxy()": "d7c04a46",
    "vaultType()": "4ac032be",
    "vaultVersion()": "4e7adf2c",
    "vefxsProxy()": "193ba6d1",
    "withdrawLocked(bytes32)": "51e3fc17",
    "withdrawLockedAndUnwrap(bytes32)": "4ab794a3"
  },
  "id": 77
}