{
  "abi": [
    {
      "inputs": [],
      "stateMutability": "nonpayable",
      "type": "constructor"
    },
    {
      "inputs": [],
      "name": "ConfirmationFailed",
      "type": "error"
    },
    {
      "inputs": [],
      "name": "NonVaultReceiver",
      "type": "error"
    },
    {
      "inputs": [],
      "name": "FEE_DENOMINATOR",
      "outputs": [
        {
          "internalType": "uint256",
          "name": "",
          "type": "uint256"
        }
      ],
      "stateMutability": "view",
      "type": "function"
    },
    {
      "inputs": [
        {
          "internalType": "address",
          "name": "sender",
          "type": "address"
        },
        {
          "internalType": "address",
          "name": "receiver",
          "type": "address"
        },
        {
          "internalType": "uint256",
          "name": "lockId",
          "type": "uint256"
        },
        {
          "internalType": "bytes",
          "name": "data",
          "type": "bytes"
        }
      ],
      "name": "beforeLockTransfer",
      "outputs": [
        {
          "internalType": "bytes4",
          "name": "",
          "type": "bytes4"
        }
      ],
      "stateMutability": "nonpayable",
      "type": "function"
    },
    {
      "inputs": [
        {
          "internalType": "address",
          "name": "_rewardsAddress",
          "type": "address"
        }
      ],
      "name": "changeRewards",
      "outputs": [],
      "stateMutability": "nonpayable",
      "type": "function"
    },
    {
      "inputs": [],
      "name": "checkpointRewards",
      "outputs": [],
      "stateMutability": "nonpayable",
      "type": "function"
    },
    {
      "inputs": [],
      "name": "claimOnTransfer",
      "outputs": [],
      "stateMutability": "nonpayable",
      "type": "function"
    },
    {
      "inputs": [],
      "name": "convexCurveBooster",
      "outputs": [
        {
          "internalType": "address",
          "name": "",
          "type": "address"
        }
      ],
      "stateMutability": "view",
      "type": "function"
    },
    {
      "inputs": [],
      "name": "convexDepositToken",
      "outputs": [
        {
          "internalType": "address",
          "name": "",
          "type": "address"
        }
      ],
      "stateMutability": "view",
      "type": "function"
    },
    {
      "inputs": [],
      "name": "crv",
      "outputs": [
        {
          "internalType": "address",
          "name": "",
          "type": "address"
        }
      ],
      "stateMutability": "view",
      "type": "function"
    },
    {
      "inputs": [],
      "name": "curveLpToken",
      "outputs": [
        {
          "internalType": "address",
          "name": "",
          "type": "address"
        }
      ],
      "stateMutability": "view",
      "type": "function"
    },
    {
      "inputs": [],
      "name": "cvx",
      "outputs": [
        {
          "internalType": "address",
          "name": "",
          "type": "address"
        }
      ],
      "stateMutability": "view",
      "type": "function"
    },
    {
      "inputs": [],
      "name": "earned",
      "outputs": [
        {
          "internalType": "address[]",
          "name": "token_addresses",
          "type": "address[]"
        },
        {
          "internalType": "uint256[]",
          "name": "total_earned",
          "type": "uint256[]"
        }
      ],
      "stateMutability": "view",
      "type": "function"
    },
    {
      "inputs": [],
      "name": "feeRegistry",
      "outputs": [
        {
          "internalType": "address",
          "name": "",
          "type": "address"
        }
      ],
      "stateMutability": "view",
      "type": "function"
    },
    {
      "inputs": [],
      "name": "fxs",
      "outputs": [
        {
          "internalType": "address",
          "name": "",
          "type": "address"
        }
      ],
      "stateMutability": "view",
      "type": "function"
    },
    {
      "inputs": [],
      "name": "getReward",
      "outputs": [],
      "stateMutability": "nonpayable",
      "type": "function"
    },
    {
      "inputs": [
        {
          "internalType": "bool",
          "name": "_claim",
          "type": "bool"
        },
        {
          "internalType": "address[]",
          "name": "_rewardTokenList",
          "type": "address[]"
        }
      ],
      "name": "getReward",
      "outputs": [],
      "stateMutability": "nonpayable",
      "type": "function"
    },
    {
      "inputs": [
        {
          "internalType": "bool",
          "name": "_claim",
          "type": "bool"
        }
      ],
      "name": "getReward",
      "outputs": [],
      "stateMutability": "nonpayable",
      "type": "function"
    },
    {
      "inputs": [
        {
          "internalType": "address",
          "name": "spender",
          "type": "address"
        },
        {
          "internalType": "uint256",
          "name": "_lockId",
          "type": "uint256"
        },
        {
          "internalType": "uint256",
          "name": "amount",
          "type": "uint256"
        }
      ],
      "name": "increaseAllowance",
      "outputs": [],
      "stateMutability": "nonpayable",
      "type": "function"
    },
    {
      "inputs": [
        {
          "internalType": "address",
          "name": "_owner",
          "type": "address"
        },
        {
          "internalType": "address",
          "name": "_stakingAddress",
          "type": "address"
        },
        {
          "internalType": "address",
          "name": "_stakingToken",
          "type": "address"
        },
        {
          "internalType": "address",
          "name": "_rewardsAddress",
          "type": "address"
        }
      ],
      "name": "initialize",
      "outputs": [],
      "stateMutability": "nonpayable",
      "type": "function"
    },
    {
      "inputs": [
        {
          "internalType": "uint256",
          "name": "_lockId",
          "type": "uint256"
        },
        {
          "internalType": "uint256",
          "name": "_addl_liq",
          "type": "uint256"
        }
      ],
      "name": "lockAdditional",
      "outputs": [],
      "stateMutability": "nonpayable",
      "type": "function"
    },
    {
      "inputs": [
        {
          "internalType": "uint256",
          "name": "_lockId",
          "type": "uint256"
        },
        {
          "internalType": "uint256",
          "name": "_addl_liq",
          "type": "uint256"
        }
      ],
      "name": "lockAdditionalConvexToken",
      "outputs": [],
      "stateMutability": "nonpayable",
      "type": "function"
    },
    {
      "inputs": [
        {
          "internalType": "uint256",
          "name": "_lockId",
          "type": "uint256"
        },
        {
          "internalType": "uint256",
          "name": "_addl_liq",
          "type": "uint256"
        }
      ],
      "name": "lockAdditionalCurveLp",
      "outputs": [],
      "stateMutability": "nonpayable",
      "type": "function"
    },
    {
      "inputs": [
        {
          "internalType": "uint256",
          "name": "_lockId",
          "type": "uint256"
        },
        {
          "internalType": "uint256",
          "name": "new_ending_ts",
          "type": "uint256"
        }
      ],
      "name": "lockLonger",
      "outputs": [],
      "stateMutability": "nonpayable",
      "type": "function"
    },
    {
      "inputs": [
        {
          "internalType": "address",
          "name": "sender",
          "type": "address"
        },
        {
          "internalType": "address",
          "name": "receiver",
          "type": "address"
        },
        {
          "internalType": "uint256",
          "name": "lockId",
          "type": "uint256"
        },
        {
          "internalType": "bytes",
          "name": "data",
          "type": "bytes"
        }
      ],
      "name": "onLockReceived",
      "outputs": [
        {
          "internalType": "bytes4",
          "name": "",
          "type": "bytes4"
        }
      ],
      "stateMutability": "nonpayable",
      "type": "function"
    },
    {
      "inputs": [],
      "name": "owner",
      "outputs": [
        {
          "internalType": "address",
          "name": "",
          "type": "address"
        }
      ],
      "stateMutability": "view",
      "type": "function"
    },
    {
      "inputs": [],
      "name": "poolId",
      "outputs": [
        {
          "internalType": "uint256",
          "name": "",
          "type": "uint256"
        }
      ],
      "stateMutability": "view",
      "type": "function"
    },
    {
      "inputs": [],
      "name": "poolRegistry",
      "outputs": [
        {
          "internalType": "address",
          "name": "",
          "type": "address"
        }
      ],
      "stateMutability": "view",
      "type": "function"
    },
    {
      "inputs": [
        {
          "internalType": "address",
          "name": "spender",
          "type": "address"
        },
        {
          "internalType": "uint256",
          "name": "_lockId",
          "type": "uint256"
        }
      ],
      "name": "removeAllowance",
      "outputs": [],
      "stateMutability": "nonpayable",
      "type": "function"
    },
    {
      "inputs": [],
      "name": "rewards",
      "outputs": [
        {
          "internalType": "address",
          "name": "",
          "type": "address"
        }
      ],
      "stateMutability": "view",
      "type": "function"
    },
    {
      "inputs": [
        {
          "internalType": "address",
          "name": "spender",
          "type": "address"
        },
        {
          "internalType": "uint256",
          "name": "_lockId",
          "type": "uint256"
        },
        {
          "internalType": "uint256",
          "name": "amount",
          "type": "uint256"
        }
      ],
      "name": "setAllowance",
      "outputs": [],
      "stateMutability": "nonpayable",
      "type": "function"
    },
    {
      "inputs": [
        {
          "internalType": "address",
          "name": "spender",
          "type": "address"
        },
        {
          "internalType": "bool",
          "name": "approved",
          "type": "bool"
        }
      ],
      "name": "setApprovalForAll",
      "outputs": [],
      "stateMutability": "nonpayable",
      "type": "function"
    },
    {
      "inputs": [
        {
          "internalType": "address",
          "name": "_proxy",
          "type": "address"
        }
      ],
      "name": "setVeFXSProxy",
      "outputs": [],
      "stateMutability": "nonpayable",
      "type": "function"
    },
    {
      "inputs": [
        {
          "internalType": "uint256",
          "name": "_liquidity",
          "type": "uint256"
        },
        {
          "internalType": "uint256",
          "name": "_secs",
          "type": "uint256"
        }
      ],
      "name": "stakeLocked",
      "outputs": [
        {
          "internalType": "uint256",
          "name": "lockId",
          "type": "uint256"
        }
      ],
      "stateMutability": "nonpayable",
      "type": "function"
    },
    {
      "inputs": [
        {
          "internalType": "uint256",
          "name": "_liquidity",
          "type": "uint256"
        },
        {
          "internalType": "uint256",
          "name": "_secs",
          "type": "uint256"
        }
      ],
      "name": "stakeLockedConvexToken",
      "outputs": [
        {
          "internalType": "uint256",
          "name": "lockId",
          "type": "uint256"
        }
      ],
      "stateMutability": "nonpayable",
      "type": "function"
    },
    {
      "inputs": [
        {
          "internalType": "uint256",
          "name": "_liquidity",
          "type": "uint256"
        },
        {
          "internalType": "uint256",
          "name": "_secs",
          "type": "uint256"
        }
      ],
      "name": "stakeLockedCurveLp",
      "outputs": [
        {
          "internalType": "uint256",
          "name": "lockId",
          "type": "uint256"
        }
      ],
      "stateMutability": "nonpayable",
      "type": "function"
    },
    {
      "inputs": [],
      "name": "stakingAddress",
      "outputs": [
        {
          "internalType": "address",
          "name": "",
          "type": "address"
        }
      ],
      "stateMutability": "view",
      "type": "function"
    },
    {
      "inputs": [],
      "name": "stakingToken",
      "outputs": [
        {
          "internalType": "address",
          "name": "",
          "type": "address"
        }
      ],
      "stateMutability": "view",
      "type": "function"
    },
    {
      "inputs": [
        {
          "internalType": "address",
          "name": "receiver_address",
          "type": "address"
        },
        {
          "internalType": "uint256",
          "name": "sender_lock_index",
          "type": "uint256"
        },
        {
          "internalType": "uint256",
          "name": "transfer_amount",
          "type": "uint256"
        },
        {
          "internalType": "bool",
          "name": "use_receiver_lock_index",
          "type": "bool"
        },
        {
          "internalType": "uint256",
          "name": "receiver_lock_index",
          "type": "uint256"
        }
      ],
      "name": "transferLocked",
      "outputs": [
        {
          "internalType": "uint256",
          "name": "",
          "type": "uint256"
        },
        {
          "internalType": "uint256",
          "name": "",
          "type": "uint256"
        }
      ],
      "stateMutability": "nonpayable",
      "type": "function"
    },
    {
      "inputs": [],
      "name": "usingProxy",
      "outputs": [
        {
          "internalType": "address",
          "name": "",
          "type": "address"
        }
      ],
      "stateMutability": "view",
      "type": "function"
    },
    {
      "inputs": [],
      "name": "vaultType",
      "outputs": [
        {
          "internalType": "enum IVaultType.VaultType",
          "name": "",
          "type": "uint8"
        }
      ],
      "stateMutability": "pure",
      "type": "function"
    },
    {
      "inputs": [],
      "name": "vaultVersion",
      "outputs": [
        {
          "internalType": "uint256",
          "name": "",
          "type": "uint256"
        }
      ],
      "stateMutability": "pure",
      "type": "function"
    },
    {
      "inputs": [],
      "name": "vefxsProxy",
      "outputs": [
        {
          "internalType": "address",
          "name": "",
          "type": "address"
        }
      ],
      "stateMutability": "view",
      "type": "function"
    },
    {
      "inputs": [
        {
          "internalType": "uint256",
          "name": "_lockId",
          "type": "uint256"
        }
      ],
      "name": "withdrawLocked",
      "outputs": [],
      "stateMutability": "nonpayable",
      "type": "function"
    },
    {
      "inputs": [
        {
          "internalType": "uint256",
          "name": "_lockId",
          "type": "uint256"
        }
      ],
      "name": "withdrawLockedAndUnwrap",
      "outputs": [],
      "stateMutability": "nonpayable",
      "type": "function"
    }
  ],
  "bytecode": {
    "object": "0x6080806040523461001b576001600555614a1390816100218239f35b600080fdfe6080604052600436101561001257600080fd5b6000803560e01c806304acbb9914612b2d5780630ba091fc14612a8157806317b18c89146129c3578063193ba6d1146129765780632439242a146128c15780632a554842146127ff578063328a4d711461254457806332d342b714612464578063336d1523146124475780633d18b9121461219f5780633e0dc34e146121655780634ac032be1461212b5780634e7adf2c146120f15780634f5aefcf14611f0c57806357a2a8b714611de35780635eb143ce14611d91578063641a6cd014611c8f578063646780df14611c3d5780636a4874a114611bf057806372f702f314611b9e57806378aae1cb14611a715780637d42344614611a24578063806465e9146119785780638170820c146118b25780638da5cb5b14611861578063923c1d61146118145780639ce0ff9d146117c75780639ec5a894146117755780639ecc33e91461173e578063a22cb4651461167d578063a41ce7e9146114fc578063a4698feb146111f4578063afcff50f146111a7578063b3a408b81461115a578063d6f1926214610b0e578063d73792a914610ad3578063d7b4be2414610a81578063d7c04a4614610a2f578063d9d80e3d14610957578063e869565e146106b2578063f1053bfb1461066b578063f8c8765e146102c65763ff61011a146101f657600080fd5b346102b4578061020536612c06565b73ffffffffffffffffffffffffffffffffffffffff92919261022b818654163314613777565b60015416803b156102c2576040517fff61011a00000000000000000000000000000000000000000000000000000000815273ffffffffffffffffffffffffffffffffffffffff9093166004840152602483019390935260448201529082908290818381606481015b03925af180156102b7576102a45750f35b6102ad90612c8f565b6102b45780f35b80fd5b6040513d84823e3d90fd5b8480fd5b50346102b45760807ffffffffffffffffffffffffffffffffffffffffffffffffffffffffffffffffc3601126102b4576102fe612be3565b60249081359073ffffffffffffffffffffffffffffffffffffffff9081831680930361066657604435908282168092036106665760643590838216809203610666578654908482166106085790849392917fffffffffffffffffffffffff00000000000000000000000000000000000000009586911691161787558484600154161760015581846002541617600255836003541617600355604051917f1526fe2700000000000000000000000000000000000000000000000000000000835285600484015260c08387818a73f403c135812408bfbe8713b5a23a04b3d48aae315af19283156105fd578790889461057e575b50811692838560065416176006551680936007541617600755604051937f095ea7b300000000000000000000000000000000000000000000000000000000908186526004860152867fffffffffffffffffffffffffffffffffffffffffffffffffffffffffffffffff948588880152602096878160448186895af1801561050057610546575b50868660448a85604051998a9485938a85528b60048601528401525af19485156102b757879561050b575b5060449394956040519889968795865260048601528401525af18015610500576104c9578280f35b81813d83116104f9575b6104dd8183612cee565b810103126104f5576104ee90612e99565b5038808280f35b5080fd5b503d6104d3565b6040513d85823e3d90fd5b939484813d831161053f575b6105218183612cee565b810103126104f5578695610536604495612e99565b509594936104a1565b503d610517565b8781813d8311610577575b61055b8183612cee565b810103126105735761056c90612e99565b5038610476565b8280fd5b503d610551565b93505060c0833d82116105f5575b8161059960c09383612cee565b810103126105f157806105ab84613250565b6105ea60a06105bc60208801613250565b966105c960408201613250565b506105d660608201613250565b506105e360808201613250565b5001612e99565b50906103f0565b8680fd5b3d915061058c565b6040513d89823e3d90fd5b606487600c604051917f08c379a0000000000000000000000000000000000000000000000000000000008352602060048401528201527f616c726561647920696e697400000000000000000000000000000000000000006044820152fd5b600080fd5b50346102b457602061068861067f36612d69565b92919091613346565b7fffffffff0000000000000000000000000000000000000000000000000000000060405191168152f35b50346102b4576020807ffffffffffffffffffffffffffffffffffffffffffffffffffffffffffffffffc3601126104f5576106eb612be3565b61070a337359cfcd384746ec3035299d90782be065e466800b14612e34565b8273ffffffffffffffffffffffffffffffffffffffff928360035416906040517f02fb0c5e0000000000000000000000000000000000000000000000000000000081528181600481865afa908115610917578491610922575b506107a1575b505050167fffffffffffffffffffffffff0000000000000000000000000000000000000000600354161760035561079e612f74565b80f35b6040517f70a082310000000000000000000000000000000000000000000000000000000081523060048201528181602481865afa9182156109175784926108e6575b50508061085a575b5050826003541683825416813b156105735782916024839260405194859384927fc00007b000000000000000000000000000000000000000000000000000000000845260048401525af180156102b757610846575b80610769565b61084f90612c8f565b610573578238610840565b8483541690823b156108e2576040517ff3fef3a300000000000000000000000000000000000000000000000000000000815273ffffffffffffffffffffffffffffffffffffffff92909216600483015260248201529082908290604490829084905af180156102b7576108ce575b806107eb565b6108d790612c8f565b6105735782386108c8565b8380fd5b8194508092503d8311610910575b6108fe8183612cee565b810103126106665784915138806107e3565b503d6108f4565b6040513d86823e3d90fd5b90508181813d8311610950575b6109398183612cee565b810103126108e25761094a90612e99565b38610763565b503d61092f565b50346102b4578061096736612c5b565b9073ffffffffffffffffffffffffffffffffffffffff61098b818554163314613777565b6109936137dc565b826109aa575b836109a2612f74565b600160055580f35b6109bc8382600254163090339061384b565b6001541691823b15610a2a57604484928360405195869485937fd9d80e3d000000000000000000000000000000000000000000000000000000008552600485015260248401525af180156102b757610a16575b8080610999565b610a1f90612c8f565b6102b4578038610a0f565b505050fd5b50346102b457807ffffffffffffffffffffffffffffffffffffffffffffffffffffffffffffffffc3601126102b457602073ffffffffffffffffffffffffffffffffffffffff60045416604051908152f35b50346102b457807ffffffffffffffffffffffffffffffffffffffffffffffffffffffffffffffffc3601126102b457602073ffffffffffffffffffffffffffffffffffffffff60015416604051908152f35b50346102b457807ffffffffffffffffffffffffffffffffffffffffffffffffffffffffffffffffc3601126102b45760206040516127108152f35b50346102b457807ffffffffffffffffffffffffffffffffffffffffffffffffffffffffffffffffc3601126102b45773ffffffffffffffffffffffffffffffffffffffff6001541690604051907f12edb24c0000000000000000000000000000000000000000000000000000000082528082600481865afa9182156110ff578192611133575b508060249293604051938480927e8cc2620000000000000000000000000000000000000000000000000000000082523060048301525afa9182156110ff57819261110c575b508060249173ffffffffffffffffffffffffffffffffffffffff60025416604051938480927fb277e8f00000000000000000000000000000000000000000000000000000000082523060048301525afa9182156110ff5781926110ac575b5073ffffffffffffffffffffffffffffffffffffffff6003541692604051927f857cb94a000000000000000000000000000000000000000000000000000000008452602084600481885afa938415610500578394611078575b50610ca7610c9f8588516149d0565b8251906149d0565b907fffffffffffffffffffffffffffffffffffffffffffffffffffffffffffffffe0610ceb610cd584612ea6565b93610ce36040519586612cee565b808552612ea6565b01366020840137610d00610c9f8689516149d0565b947fffffffffffffffffffffffffffffffffffffffffffffffffffffffffffffffe0610d44610d2e88612ea6565b97610d3c604051998a612cee565b808952612ea6565b01366020880137845b8851811015610e56578073ffffffffffffffffffffffffffffffffffffffff610d778b938461471d565b5116610d83828761471d565b526024602073ffffffffffffffffffffffffffffffffffffffff610db284610dab818c61471d565b519661471d565b5116604051928380927f70a082310000000000000000000000000000000000000000000000000000000082523060048301525afa908115610e4b578891610e17575b50610e0290610e12936149d0565b610e0c828a61471d565b526146f0565b610d4d565b90506020813d602011610e43575b81610e3260209383612cee565b810103126106665751610e12610df4565b3d9150610e25565b6040513d8a823e3d90fd5b506040517fdc01f60d00000000000000000000000000000000000000000000000000000000815230600482015286938992879081846024818e5afa9384156102b7578294611025575b50815b8451811015610f0e578073ffffffffffffffffffffffffffffffffffffffff610ece610f09938861471d565b515116610ee5610edf8951846149d0565b8761471d565b526020610ef2828861471d565b510151610e0c610f038951846149d0565b8b61471d565b610ea2565b5092509390845b8251811015610f8e578073ffffffffffffffffffffffffffffffffffffffff610f41610f89938661471d565b515116610f61610f5b87610f568a51866149d0565b6149d0565b8561471d565b526020610f6e828661471d565b510151610e0c610f8387610f568a51866149d0565b8a61471d565b610f15565b85828860405192839260408401604085528151809152602060608601920190835b818110610ff6575050508381036020850152602080845192838152019301915b818110610fdd575050500390f35b8251845285945060209384019390920191600101610fcf565b825173ffffffffffffffffffffffffffffffffffffffff16845287965060209384019390920191600101610faf565b9093503d8083833e6110378183612cee565b8101906020818303126105735780519067ffffffffffffffff82116108e2570181601f820112156105735780516110719291602001614917565b9287610e9f565b9093506020813d6020116110a4575b8161109460209383612cee565b8101031261066657519238610c90565b3d9150611087565b9091503d8083833e6110be8183612cee565b8101906020818303126105735780519067ffffffffffffffff82116108e2570181601f820112156105735780516110f89291602001614917565b9038610c37565b50604051903d90823e3d90fd5b602491925061112c903d8085833e6111248183612cee565b810190612ebe565b9190610bd9565b6024925061115382913d8084833e61114b8183612cee565b810190613b54565b9250610b94565b50346102b457807ffffffffffffffffffffffffffffffffffffffffffffffffffffffffffffffffc3601126102b457602060405173c9acb83ada68413a6aa57007bc720ee2e2b3c46d8152f35b50346102b457807ffffffffffffffffffffffffffffffffffffffffffffffffffffffffffffffffc3601126102b45760206040517341a5881c17185383e19df6fa4ec158a6f4851a698152f35b50346102b4576020807ffffffffffffffffffffffffffffffffffffffffffffffffffffffffffffffffc3601126104f55761122d612e25565b6112c9575b5061123b61407e565b6004600073ffffffffffffffffffffffffffffffffffffffff60015416604051928380927f12edb24c0000000000000000000000000000000000000000000000000000000082525afa80156112bd5761129c916000916112a4575b50614760565b61079e61442b565b6112b7913d8091833e61114b8183612cee565b38611296565b6040513d6000823e3d90fd5b600154906000916040517fc00007b000000000000000000000000000000000000000000000000000000000815230600482015283816024818373ffffffffffffffffffffffffffffffffffffffff8097165af18015610917576114e2575b50806002541681845416813b156102c2576040517f6b09169500000000000000000000000000000000000000000000000000000000815230600482015273ffffffffffffffffffffffffffffffffffffffff9190911660248201529084908290604490829084905af18015610917576114cf575b506040517f70a082310000000000000000000000000000000000000000000000000000000090818152306004820152838160248173d533a949740bb3306d119cc777fa900ba034cd525afa9081156114c4578591611497575b5080611484575b506040519081523060048201528281602481734e3fbd56cd56c3e72c1403e103b45db9da5b9d2b5afa928315610917578493611454575b505081611441575b5050611232565b61144c925416613f92565b38808061143a565b9080929350813d831161147d575b61146c8183612cee565b810103126106665751903880611432565b503d611462565b6114919083865416613e7a565b386113fb565b90508381813d83116114bd575b6114ae8183612cee565b810103126106665751386113f4565b503d6114a4565b6040513d87823e3d90fd5b6114db90939193612c8f565b913861139b565b6114f5903d8086833e6111248183612cee565b5038611327565b50346102b45761150b36612c5b565b909173ffffffffffffffffffffffffffffffffffffffff91611531838354163314613777565b6115396137dc565b819284611559575b60208461154c612f74565b6001600555604051908152f35b9091925061156f8482600654163090339061384b565b8060025416803b156108e2576040517f6e553f65000000000000000000000000000000000000000000000000000000008152600481018690523060248201529084908290818381604481015b03925af1801561091757908491611669575b505090604460209260015416948460405196879485937f17b18c89000000000000000000000000000000000000000000000000000000008552600485015260248401525af190811561165d579061162b575b60209150388080611541565b506020813d8211611655575b8161164460209383612cee565b81010312610666576020905161161f565b3d9150611637565b604051903d90823e3d90fd5b61167290612c8f565b6105735782386115cd565b50346102b45760407ffffffffffffffffffffffffffffffffffffffffffffffffffffffffffffffffc3601126102b4576116b5612be3565b60243580151580910361066657829173ffffffffffffffffffffffffffffffffffffffff6116e7818554163314613777565b8060015416803b156102c25784928360449260405196879586947fa22cb46500000000000000000000000000000000000000000000000000000000865216600485015260248401525af180156102b7576102a45750f35b50346102b457807ffffffffffffffffffffffffffffffffffffffffffffffffffffffffffffffffc3601126102b45761079e613bd6565b50346102b457807ffffffffffffffffffffffffffffffffffffffffffffffffffffffffffffffffc3601126102b457602073ffffffffffffffffffffffffffffffffffffffff60035416604051908152f35b50346102b457807ffffffffffffffffffffffffffffffffffffffffffffffffffffffffffffffffc3601126102b457602060405173f403c135812408bfbe8713b5a23a04b3d48aae318152f35b50346102b457807ffffffffffffffffffffffffffffffffffffffffffffffffffffffffffffffffc3601126102b4576020604051734e3fbd56cd56c3e72c1403e103b45db9da5b9d2b8152f35b50346102b457807ffffffffffffffffffffffffffffffffffffffffffffffffffffffffffffffffc3601126102b45773ffffffffffffffffffffffffffffffffffffffff6020915416604051908152f35b50346102b45760407ffffffffffffffffffffffffffffffffffffffffffffffffffffffffffffffffc3601126102b457806118eb612be3565b73ffffffffffffffffffffffffffffffffffffffff61190e818454163314613777565b60015416803b15611974576040517f8170820c00000000000000000000000000000000000000000000000000000000815273ffffffffffffffffffffffffffffffffffffffff909216600483015260248035908301528290829081838160448101610293565b5050fd5b50346102b4578061198836612c5b565b9073ffffffffffffffffffffffffffffffffffffffff6119ac818554163314613777565b6119b46137dc565b6001541691823b15610a2a57604484928360405195869485937f806465e9000000000000000000000000000000000000000000000000000000008552600485015260248401525af180156102b757611a10575b506109a2612f74565b611a1990612c8f565b6102b4578038611a07565b50346102b457807ffffffffffffffffffffffffffffffffffffffffffffffffffffffffffffffffc3601126102b4576020604051733432b6a60d23ca0dfca7761b7ab56459d9c964d08152f35b50346102b45760a07ffffffffffffffffffffffffffffffffffffffffffffffffffffffffffffffffc3601126102b457611aa9612be3565b606435908115158092036106665760409060a473ffffffffffffffffffffffffffffffffffffffff91611ae0838754163314613777565b611ae86137dc565b858360015416855196879586947f78aae1cb00000000000000000000000000000000000000000000000000000000865216600485015260243560248501526044356044850152606484015260843560848401525af180156102b75782918391611b61575b60408383600160055582519182526020820152f35b9150506040813d604011611b96575b81611b7d60409383612cee565b810103126104f557604091506020815191015138611b4c565b3d9150611b70565b50346102b457807ffffffffffffffffffffffffffffffffffffffffffffffffffffffffffffffffc3601126102b457602073ffffffffffffffffffffffffffffffffffffffff60025416604051908152f35b50346102b457807ffffffffffffffffffffffffffffffffffffffffffffffffffffffffffffffffc3601126102b457602060405173d533a949740bb3306d119cc777fa900ba034cd528152f35b50346102b457807ffffffffffffffffffffffffffffffffffffffffffffffffffffffffffffffffc3601126102b457602073ffffffffffffffffffffffffffffffffffffffff60065416604051908152f35b50346102b45760207ffffffffffffffffffffffffffffffffffffffffffffffffffffffffffffffffc3601126102b457611cc7612be3565b611ce6337359cfcd384746ec3035299d90782be065e466800b14612e34565b8173ffffffffffffffffffffffffffffffffffffffff806001541692833b156105735782916024839260405194859384927fd7400d5600000000000000000000000000000000000000000000000000000000845216978860048401525af180156102b757611d7d575b50507fffffffffffffffffffffffff0000000000000000000000000000000000000000600454161760045580f35b611d8690612c8f565b6104f5578138611d4f565b50346102b457807ffffffffffffffffffffffffffffffffffffffffffffffffffffffffffffffffc3601126102b457602073ffffffffffffffffffffffffffffffffffffffff60075416604051908152f35b50346102b45780611df336612c5b565b9073ffffffffffffffffffffffffffffffffffffffff611e17818554163314613777565b611e1f6137dc565b82611e2d57836109a2612f74565b611e3f8382600654163090339061384b565b8060025416803b156102c2576040517f6e553f65000000000000000000000000000000000000000000000000000000008152600481018590523060248201529085908290818381604481015b03925af19081156114c4578591611ef8575b50506001541691823b15610a2a57604484928360405195869485937fd9d80e3d000000000000000000000000000000000000000000000000000000008552600485015260248401525af180156102b757610a16578080610999565b611f0190612c8f565b610a2a578338611e9d565b50346102b45760407ffffffffffffffffffffffffffffffffffffffffffffffffffffffffffffffffc3601126102b457611f44612e25565b60243567ffffffffffffffff918282116108e257366023830112156108e25781600401359283116108e25760248360051b830101903682116102c257611fed575b611f8d61407e565b611f9683612ea6565b92611fa46040519485612cee565b83526020916024018284015b828210611fc1578561129c86614760565b813573ffffffffffffffffffffffffffffffffffffffff81168103610666578152908301908301611fb0565b8373ffffffffffffffffffffffffffffffffffffffff818082600154166024604051809481937fc00007b00000000000000000000000000000000000000000000000000000000083523060048401525af18015610500576120d7575b50600254825482169116803b15610573576040517f6b09169500000000000000000000000000000000000000000000000000000000815230600482015273ffffffffffffffffffffffffffffffffffffffff92909216602483015282908290604490829084905af180156102b7576120c3575b5050611f85565b6120cc90612c8f565b6108e25783386120bc565b6120ea903d8085833e6111248183612cee565b5038612049565b50346102b457807ffffffffffffffffffffffffffffffffffffffffffffffffffffffffffffffffc3601126102b457602060405160048152f35b50346102b457807ffffffffffffffffffffffffffffffffffffffffffffffffffffffffffffffffc3601126102b457602060405160028152f35b50346102b457807ffffffffffffffffffffffffffffffffffffffffffffffffffffffffffffffffc3601126102b457602060405160248152f35b50346102b457807ffffffffffffffffffffffffffffffffffffffffffffffffffffffffffffffffc3601126102b45760015460006040517fc00007b000000000000000000000000000000000000000000000000000000000815230600482015281816024818373ffffffffffffffffffffffffffffffffffffffff8098165af180156102b75761242d575b50816002541682825416813b15610573576040517f6b09169500000000000000000000000000000000000000000000000000000000815230600482015273ffffffffffffffffffffffffffffffffffffffff9190911660248201529082908290604490829084905af180156102b75761241e575b50906040517f70a0823100000000000000000000000000000000000000000000000000000000808252306004830152602091828160248173d533a949740bb3306d119cc777fa900ba034cd525afa9081156114c45785916123f1575b50806123de575b506040519081523060048201528181602481734e3fbd56cd56c3e72c1403e103b45db9da5b9d2b5afa9182156109175784926123ad575b505090600492828260009461239a575b50505061235361407e565b60015416604051928380927f12edb24c0000000000000000000000000000000000000000000000000000000082525afa80156112bd5761129c916000916112a45750614760565b6123a5925416613f92565b388082612348565b9080939250813d83116123d7575b6123c58183612cee565b81010312610666579051826000612338565b503d6123bb565b6123eb9084865416613e7a565b38612301565b90508281813d8311612417575b6124088183612cee565b810103126106665751386122fa565b503d6123fe565b61242790612c8f565b3861229e565b612440903d8084833e6111248183612cee565b503861222a565b50346102b457602061068861245b36612d69565b92919091613644565b50346102b45760207ffffffffffffffffffffffffffffffffffffffffffffffffffffffffffffffffc3601126102b45773ffffffffffffffffffffffffffffffffffffffff6124b7818354163314613777565b6124bf6137dc565b6001546040517f8395cef4000000000000000000000000000000000000000000000000000000008152600480359082015233602482015291602091839160449183918791165af180156102b75761251957506109a2612f74565b602090813d811161253d575b61252f8183612cee565b810103126106665738611a07565b503d612525565b50346102b4576020807ffffffffffffffffffffffffffffffffffffffffffffffffffffffffffffffffc3601126104f55773ffffffffffffffffffffffffffffffffffffffff90612599828454163314613777565b6125a16137dc565b6001546040517f8395cef4000000000000000000000000000000000000000000000000000000008152600480359082015230602482015290829082906044908290889088165af19081156109175782916127d6575b5050816002541683604051917f70a0823100000000000000000000000000000000000000000000000000000000928381523060048201528481602481855afa9081156105005783916127a5575b50813b156105735782916024839260405194859384927f3969dfb400000000000000000000000000000000000000000000000000000000845260048401525af180156102b757612791575b50508260065416928454166040519182523060048301528282602481875afa9182156114c4578592612760575b506040517fa9059cbb00000000000000000000000000000000000000000000000000000000815273ffffffffffffffffffffffffffffffffffffffff909116600482015260248101919091529181908390818681604481015b03925af180156105005761272c575b826109a2612f74565b81813d8311612759575b6127408183612cee565b810103126104f55761275190612e99565b503880612723565b503d612736565b91508282813d831161278a575b6127778183612cee565b81010312610666579051906127146126bb565b503d61276d565b61279a90612c8f565b6108e257833861268e565b809350858092503d83116127cf575b6127be8183612cee565b810103126106665785915138612643565b503d6127b4565b813d83116127f8575b6127e98183612cee565b810103126106665780386125f6565b503d6127df565b50346102b457807ffffffffffffffffffffffffffffffffffffffffffffffffffffffffffffffffc3601126102b45761284d337359cfcd384746ec3035299d90782be065e466800b14612e34565b808073ffffffffffffffffffffffffffffffffffffffff600154166024604051809481937fc00007b00000000000000000000000000000000000000000000000000000000083523060048401525af180156102b7576128aa575080f35b6128bd903d8084833e6111248183612cee565b5080f35b50346102b4576128d036612c5b565b909173ffffffffffffffffffffffffffffffffffffffff916128f6838354163314613777565b6128fe6137dc565b8192846129105760208461154c612f74565b909192506129268482600754163090339061384b565b8060025416803b156108e2576040517f7acb7757000000000000000000000000000000000000000000000000000000008152600481018690523060248201529084908290818381604481016115bb565b50346102b457807ffffffffffffffffffffffffffffffffffffffffffffffffffffffffffffffffc3601126102b45760206040517359cfcd384746ec3035299d90782be065e466800b8152f35b50346102b4576129d236612c5b565b909173ffffffffffffffffffffffffffffffffffffffff916129f8838354163314613777565b612a006137dc565b819284612a125760208461154c612f74565b602092935080612a2c86604493600254163090339061384b565b60015416948460405196879485937f17b18c89000000000000000000000000000000000000000000000000000000008552600485015260248401525af190811561165d579061162b5760209150388080611541565b50346102b45780612a9136612c5b565b9073ffffffffffffffffffffffffffffffffffffffff612ab5818554163314613777565b612abd6137dc565b82612acb57836109a2612f74565b612add8382600754163090339061384b565b8060025416803b156102c2576040517f7acb775700000000000000000000000000000000000000000000000000000000815260048101859052306024820152908590829081838160448101611e8b565b50346102b45780612b3d36612c06565b9073ffffffffffffffffffffffffffffffffffffffff939293612b64818554163314613777565b6001541690813b156108e2576040517f04acbb9900000000000000000000000000000000000000000000000000000000815273ffffffffffffffffffffffffffffffffffffffff959095166004860152602485015260448401919091528290606490829084905af180156102b757612bda575080f35b61079e90612c8f565b6004359073ffffffffffffffffffffffffffffffffffffffff8216820361066657565b7ffffffffffffffffffffffffffffffffffffffffffffffffffffffffffffffffc60609101126106665760043573ffffffffffffffffffffffffffffffffffffffff8116810361066657906024359060443590565b7ffffffffffffffffffffffffffffffffffffffffffffffffffffffffffffffffc6040910112610666576004359060243590565b67ffffffffffffffff8111612ca357604052565b7f4e487b7100000000000000000000000000000000000000000000000000000000600052604160045260246000fd5b6040810190811067ffffffffffffffff821117612ca357604052565b90601f7fffffffffffffffffffffffffffffffffffffffffffffffffffffffffffffffe0910116810190811067ffffffffffffffff821117612ca357604052565b67ffffffffffffffff8111612ca357601f017fffffffffffffffffffffffffffffffffffffffffffffffffffffffffffffffe01660200190565b9060807ffffffffffffffffffffffffffffffffffffffffffffffffffffffffffffffffc8301126106665773ffffffffffffffffffffffffffffffffffffffff9160043583811681036106665792602435908116810361066657916044359160643567ffffffffffffffff8111610666578160238201121561066657806004013590612df482612d2f565b92612e026040519485612cee565b828452602483830101116106665781600092602460209301838601378301015290565b60043590811515820361066657565b15612e3b57565b60646040517f08c379a000000000000000000000000000000000000000000000000000000000815260206004820152600b60248201527f21617574685f61646d696e0000000000000000000000000000000000000000006044820152fd5b5190811515820361066657565b67ffffffffffffffff8111612ca35760051b60200190565b60209081818403126106665780519067ffffffffffffffff821161066657019180601f84011215610666578251612ef481612ea6565b93612f026040519586612cee565b818552838086019260051b820101928311610666578301905b828210612f29575050505090565b81518152908301908301612f1b565b91908203918211612f4557565b7f4e487b7100000000000000000000000000000000000000000000000000000000600052601160045260246000fd5b73ffffffffffffffffffffffffffffffffffffffff806003541660409081517f02fb0c5e0000000000000000000000000000000000000000000000000000000081526020908181600481865afa9081156132105760009161321b575b50612fdc575b50505050565b6024918185600154168551948580927fd9f96e8d0000000000000000000000000000000000000000000000000000000082523060048301525afa928315613210576000936131e1575b5083517f70a082310000000000000000000000000000000000000000000000000000000081523060048201528281602481855afa9283156131d6576000936131a5575b50508183106131155750613086908460035416946000541692612f38565b833b156106665782517f47e7ef2400000000000000000000000000000000000000000000000000000000815273ffffffffffffffffffffffffffffffffffffffff9290921660048301526024820152916000908390604490829084905af190811561310b57506130fc575b505b38808080612fd6565b61310590612c8f565b386130f1565b513d6000823e3d90fd5b6000549094169161312591612f38565b833b156106665782517ff3fef3a300000000000000000000000000000000000000000000000000000000815273ffffffffffffffffffffffffffffffffffffffff9290921660048301526024820152916000908390604490829084905af190811561310b5750613196575b506130f3565b61319f90612c8f565b38613190565b8181949293943d83116131cf575b6131bd8183612cee565b810103126102b4575051903880613068565b503d6131b3565b85513d6000823e3d90fd5b90928282813d8311613209575b6131f88183612cee565b810103126102b45750519138613025565b503d6131ee565b84513d6000823e3d90fd5b908282813d8311613249575b6132318183612cee565b810103126102b4575061324390612e99565b38612fd0565b503d613227565b519073ffffffffffffffffffffffffffffffffffffffff8216820361066657565b9081602091031261066657517fffffffff00000000000000000000000000000000000000000000000000000000811681036106665790565b919082519283825260005b8481106132f35750507fffffffffffffffffffffffffffffffffffffffffffffffffffffffffffffffe0601f8460006020809697860101520116010190565b6020818301810151848301820152016132b4565b9092613343949360809373ffffffffffffffffffffffffffffffffffffffff8092168452166020830152604082015281606082015201906132a9565b90565b9291909273ffffffffffffffffffffffffffffffffffffffff9030828216036135e6578160015416330361358857818516926040958651937f8da5cb5b00000000000000000000000000000000000000000000000000000000855260209560009587816004818a865af1908115613549578791613553575b50828a51917fbfff576f0000000000000000000000000000000000000000000000000000000083526024600484015216602482015287816044818a7341a5881c17185383e19df6fa4ec158a6f4851a695af1908115613549579083918891613511575b5016036134e857613430613bd6565b84541690813b156134bc578486946134768a51998a96879586947ff1053bfb00000000000000000000000000000000000000000000000000000000865260048601613307565b03925af19384156134b257509261348c57505090565b6133439250803d106134ab575b6134a38183612cee565b810190613271565b503d613499565b51903d90823e3d90fd5b50505050505050507ff1053bfb0000000000000000000000000000000000000000000000000000000090565b600488517fae59d4f4000000000000000000000000000000000000000000000000000000008152fd5b809250898092503d8311613542575b61352a8183612cee565b810103126105f15761353c8391613250565b38613421565b503d613520565b8a513d89823e3d90fd5b90508781813d8311613581575b61356a8183612cee565b810103126105f15761357b90613250565b386133be565b503d613560565b60646040517f08c379a000000000000000000000000000000000000000000000000000000000815260206004820152600d60248201527f63616c6c6572217374616b6572000000000000000000000000000000000000006044820152fd5b60646040517f08c379a000000000000000000000000000000000000000000000000000000000815260206004820152600760248201527f2153656e646572000000000000000000000000000000000000000000000000006044820152fd5b919073ffffffffffffffffffffffffffffffffffffffff30818316148061376a575b1561370c576000541690813b156136e35760006020946136b5604051978896879586947f336d152300000000000000000000000000000000000000000000000000000000865260048601613307565b03925af19081156112bd576000916136cb575090565b613343915060203d81116134ab576134a38183612cee565b50505050507f336d15230000000000000000000000000000000000000000000000000000000090565b60646040517f08c379a000000000000000000000000000000000000000000000000000000000815260206004820152601460248201527f696e76616c696420616674657220706172616d730000000000000000000000006044820152fd5b5080600154163314613666565b1561377e57565b60646040517f08c379a000000000000000000000000000000000000000000000000000000000815260206004820152600560248201527f21617574680000000000000000000000000000000000000000000000000000006044820152fd5b6002600554146137ed576002600555565b60646040517f08c379a000000000000000000000000000000000000000000000000000000000815260206004820152601f60248201527f5265656e7472616e637947756172643a207265656e7472616e742063616c6c006044820152fd5b9290604051927f23b872dd00000000000000000000000000000000000000000000000000000000602085015273ffffffffffffffffffffffffffffffffffffffff809216602485015216604483015260648201526064815260a081019181831067ffffffffffffffff841117612ca3576138c7926040526138c9565b565b73ffffffffffffffffffffffffffffffffffffffff16906139546040516138ef81612cd2565b6020938482527f5361666545524332303a206c6f772d6c6576656c2063616c6c206661696c6564858301526000808587829751910182855af13d15613a0a573d9161393983612d2f565b926139476040519485612cee565b83523d868885013e613b24565b908151806139625750505050565b828491810103126102b45750816139799101612e99565b1561398657808080612fd6565b608490604051907f08c379a00000000000000000000000000000000000000000000000000000000082526004820152602a60248201527f5361666545524332303a204552433230206f7065726174696f6e20646964206e60448201527f6f742073756363656564000000000000000000000000000000000000000000006064820152fd5b606091613b24565b90919015613aa15750805115613a255790565b73d533a949740bb3306d119cc777fa900ba034cd523b15613a435790565b60646040517f08c379a000000000000000000000000000000000000000000000000000000000815260206004820152601d60248201527f416464726573733a2063616c6c20746f206e6f6e2d636f6e74726163740000006044820152fd5b815115613ab15750805190602001fd5b613aef906040519182917f08c379a00000000000000000000000000000000000000000000000000000000083526020600484015260248301906132a9565b0390fd5b90919015613aa15750805115613b065790565b734e3fbd56cd56c3e72c1403e103b45db9da5b9d2b3b15613a435790565b91929015613b415750815115613b38575090565b3b15613a435790565b825190915015613ab15750805190602001fd5b60209081818403126106665780519067ffffffffffffffff821161066657019180601f84011215610666578251613b8a81612ea6565b93613b986040519586612cee565b818552838086019260051b820101928311610666578301905b828210613bbf575050505090565b838091613bcb84613250565b815201910190613bb1565b6002549060009173ffffffffffffffffffffffffffffffffffffffff80911690838181541692803b156104f557604080517f6b09169500000000000000000000000000000000000000000000000000000000815230600482015273ffffffffffffffffffffffffffffffffffffffff9590951660248601529391908290604490829084905af18015613e7057613e28575b50838251917f70a0823100000000000000000000000000000000000000000000000000000000808452306004850152602093848160248173d533a949740bb3306d119cc777fa900ba034cd525afa908115613e1e578491613ded575b5080613dda575b5084519081523060048201528381602481734e3fbd56cd56c3e72c1403e103b45db9da5b9d2b5afa908115613dd0578391613d9d575b506004935080613d8a575b50613d1461407e565b600154168351928380927f12edb24c0000000000000000000000000000000000000000000000000000000082525afa918215613d81575083613d5e939492613d66575b5050614760565b6138c761442b565b613d7a92503d8091833e61114b8183612cee565b3880613d57565b513d85823e3d90fd5b613d979082845416613f92565b38613d0b565b9250509181813d8311613dc9575b613db58183612cee565b810103126106665760049185915138613d00565b503d613dab565b85513d85823e3d90fd5b613de79083855416613e7a565b38613cca565b809450858092503d8311613e17575b613e068183612cee565b810103126106665786925138613cc3565b503d613dfc565b86513d86823e3d90fd5b67ffffffffffffffff8195929511613e435782529238613c67565b6024827f4e487b710000000000000000000000000000000000000000000000000000000081526041600452fd5b83513d87823e3d90fd5b613954604051613f0981613edd602096878301967fa9059cbb000000000000000000000000000000000000000000000000000000008852602484016020909392919373ffffffffffffffffffffffffffffffffffffffff60408201951681520152565b037fffffffffffffffffffffffffffffffffffffffffffffffffffffffffffffffe08101835282612cee565b60405190613f1682612cd2565b8482527f5361666545524332303a206c6f772d6c6576656c2063616c6c206661696c65648583015260008094819251908273d533a949740bb3306d119cc777fa900ba034cd525af13d15613f8a573d90613f6f82612d2f565b91613f7d6040519384612cee565b82523d858784013e613a12565b606090613a12565b613954604051613ff581613edd602096878301967fa9059cbb000000000000000000000000000000000000000000000000000000008852602484016020909392919373ffffffffffffffffffffffffffffffffffffffff60408201951681520152565b6040519061400282612cd2565b8482527f5361666545524332303a206c6f772d6c6576656c2063616c6c206661696c656485830152600080948192519082734e3fbd56cd56c3e72c1403e103b45db9da5b9d2b5af13d15614076573d9061405b82612d2f565b916140696040519384612cee565b82523d858784013e613af3565b606090613af3565b60408051907f13114a9d000000000000000000000000000000000000000000000000000000008252602090600473c9acb83ada68413a6aa57007bc720ee2e2b3c46d9383818381885afa908115614256576000916143fe575b508251947f70a0823100000000000000000000000000000000000000000000000000000000918287523084880152733432b6a60d23ca0dfca7761b7ab56459d9c964d09686816024818b5afa9081156143f3576000916143c6575b508181029181830414901517156143985761271090049081614261575b5050825190815230828201528381602481885afa90811561425657600091614229575b5080614180575b5050505050565b6000805484517fa9059cbb00000000000000000000000000000000000000000000000000000000815273ffffffffffffffffffffffffffffffffffffffff90911693810193845260208401929092529094849286928391829060400103925af190811561310b57506141f5575b808080614179565b81813d8311614222575b6142098183612cee565b810103126106665761421a90612e99565b5038806141ed565b503d6141ff565b908482813d831161424f575b61423f8183612cee565b810103126102b457505138614172565b503d614235565b83513d6000823e3d90fd5b8573ffffffffffffffffffffffffffffffffffffffff85541660248751809481937f998cbb43000000000000000000000000000000000000000000000000000000008352898301525afa9081156131d65790869160009161435e575b5085517fa9059cbb00000000000000000000000000000000000000000000000000000000815273ffffffffffffffffffffffffffffffffffffffff909116858201908152602081019390935291829081906040015b038160008a5af180156132105761432a575b8061414f565b8481813d8311614357575b61433f8183612cee565b810103126106665761435090612e99565b5038614324565b503d614335565b9182813d8311614391575b6143738183612cee565b810103126102b457506143129161438a8792613250565b90926142bd565b503d614369565b6011847f4e487b71000000000000000000000000000000000000000000000000000000006000525260246000fd5b908782813d83116143ec575b6143dc8183612cee565b810103126102b457505138614132565b503d6143d2565b86513d6000823e3d90fd5b908482813d8311614424575b6144148183612cee565b810103126102b4575051386140d7565b503d61440a565b600354604080517f02fb0c5e00000000000000000000000000000000000000000000000000000000815260009273ffffffffffffffffffffffffffffffffffffffff916020918316908281600481855afa9081156146b15786916146bb575b50614496575050505050565b83517f70a082310000000000000000000000000000000000000000000000000000000081523060048201528281602481855afa9081156146b1578691614684575b5060248385600154168751928380927fd9f96e8d0000000000000000000000000000000000000000000000000000000082523060048301525afa93841561467a57879461464a575b50501580614641575b6145a9575b5050806003541690835416813b156108e2578291602485949285935195869384927fc00007b000000000000000000000000000000000000000000000000000000000845260048401525af19081156145a0575061458c57808080614179565b6145968291612c8f565b6102b457806141ed565b513d84823e3d90fd5b82855416813b1561463d5784517f47e7ef2400000000000000000000000000000000000000000000000000000000815273ffffffffffffffffffffffffffffffffffffffff919091166004820152602481019290925284908290604490829084905af180156146305761461d575b8061452d565b61462990939193612c8f565b9138614617565b50505051903d90823e3d90fd5b8580fd5b50811515614528565b9080929450813d8311614673575b6146628183612cee565b8101031261463d575191388061451f565b503d614658565b86513d89823e3d90fd5b90508281813d83116146aa575b61469b8183612cee565b8101031261463d5751386144d7565b503d614691565b85513d88823e3d90fd5b90508281813d83116146e9575b6146d28183612cee565b8101031261463d576146e390612e99565b3861448a565b503d6146c8565b7fffffffffffffffffffffffffffffffffffffffffffffffffffffffffffffffff8114612f455760010190565b80518210156147315760209160051b010190565b7f4e487b7100000000000000000000000000000000000000000000000000000000600052603260045260246000fd5b6000915b81518310156149125773ffffffffffffffffffffffffffffffffffffffff92733432b6a60d23ca0dfca7761b7ab56459d9c964d0846147a3838661471d565b5116036147be575b6147b7919293506146f0565b9190614764565b836147c9828561471d565b51166040908151958680927f70a08231000000000000000000000000000000000000000000000000000000008252306004830152602098899160249586915afa908115613210576000916148e3575b5086976147b79697828793614836575b5097965050505050506147ab565b6148d7967fa9059cbb00000000000000000000000000000000000000000000000000000000968661486d6148d2976148a69661471d565b51169660005416915197889586015284016020909392919373ffffffffffffffffffffffffffffffffffffffff60408201951681520152565b037fffffffffffffffffffffffffffffffffffffffffffffffffffffffffffffffe08101845283612cee565b6138c9565b38808083818881614828565b908882813d831161490b575b6148f98183612cee565b810103126102b45750516147b7614818565b503d6148ef565b915050565b92919261492382612ea6565b60409261493284519283612cee565b819581835260208093019160061b84019381851161066657915b84831061495b57505050505050565b8583830312610666578551908682019082821067ffffffffffffffff8311176149a25787928692845261498d86613250565b8152828601518382015281520192019161494c565b602460007f4e487b710000000000000000000000000000000000000000000000000000000081526041600452fd5b91908201809211612f455756fea26469706673582212200af7d1314e6e41efeecc06e9a64a57cc5a64aebb4c8a03142726887b78e2bc2464736f6c63430008110033",
    "linkReferences": {}
  },
  "methodIdentifiers": {
    "FEE_DENOMINATOR()": "d73792a9",
    "beforeLockTransfer(address,address,uint256,bytes)": "f1053bfb",
    "changeRewards(address)": "e869565e",
    "checkpointRewards()": "2a554842",
    "claimOnTransfer()": "9ecc33e9",
    "convexCurveBooster()": "9ce0ff9d",
    "convexDepositToken()": "5eb143ce",
    "crv()": "6a4874a1",
    "curveLpToken()": "646780df",
    "cvx()": "923c1d61",
    "earned()": "d6f19262",
    "feeRegistry()": "b3a408b8",
    "fxs()": "7d423446",
    "getReward()": "3d18b912",
    "getReward(bool)": "a4698feb",
    "getReward(bool,address[])": "4f5aefcf",
    "increaseAllowance(address,uint256,uint256)": "ff61011a",
    "initialize(address,address,address,address)": "f8c8765e",
    "lockAdditional(uint256,uint256)": "d9d80e3d",
    "lockAdditionalConvexToken(uint256,uint256)": "0ba091fc",
    "lockAdditionalCurveLp(uint256,uint256)": "57a2a8b7",
    "lockLonger(uint256,uint256)": "806465e9",
    "onLockReceived(address,address,uint256,bytes)": "336d1523",
    "owner()": "8da5cb5b",
    "poolId()": "3e0dc34e",
    "poolRegistry()": "afcff50f",
    "removeAllowance(address,uint256)": "8170820c",
    "rewards()": "9ec5a894",
    "setAllowance(address,uint256,uint256)": "04acbb99",
    "setApprovalForAll(address,bool)": "a22cb465",
    "setVeFXSProxy(address)": "641a6cd0",
    "stakeLocked(uint256,uint256)": "17b18c89",
    "stakeLockedConvexToken(uint256,uint256)": "2439242a",
    "stakeLockedCurveLp(uint256,uint256)": "a41ce7e9",
    "stakingAddress()": "d7b4be24",
    "stakingToken()": "72f702f3",
    "transferLocked(address,uint256,uint256,bool,uint256)": "78aae1cb",
    "usingProxy()": "d7c04a46",
    "vaultType()": "4ac032be",
    "vaultVersion()": "4e7adf2c",
    "vefxsProxy()": "193ba6d1",
    "withdrawLocked(uint256)": "32d342b7",
    "withdrawLockedAndUnwrap(uint256)": "328a4d71"
  },
  "id": 18
}