{
  "abi": [
    {
      "inputs": [],
      "stateMutability": "nonpayable",
      "type": "constructor"
    },
    {
      "inputs": [],
      "name": "FEE_DENOMINATOR",
      "outputs": [
        {
          "internalType": "uint256",
          "name": "",
          "type": "uint256"
        }
      ],
      "stateMutability": "view",
      "type": "function"
    },
    {
      "inputs": [
        {
          "internalType": "address",
          "name": "_rewardsAddress",
          "type": "address"
        }
      ],
      "name": "changeRewards",
      "outputs": [],
      "stateMutability": "nonpayable",
      "type": "function"
    },
    {
      "inputs": [],
      "name": "checkpointRewards",
      "outputs": [],
      "stateMutability": "nonpayable",
      "type": "function"
    },
    {
      "inputs": [],
      "name": "earned",
      "outputs": [
        {
          "internalType": "address[]",
          "name": "token_addresses",
          "type": "address[]"
        },
        {
          "internalType": "uint256[]",
          "name": "total_earned",
          "type": "uint256[]"
        }
      ],
      "stateMutability": "view",
      "type": "function"
    },
    {
      "inputs": [],
      "name": "feeRegistry",
      "outputs": [
        {
          "internalType": "address",
          "name": "",
          "type": "address"
        }
      ],
      "stateMutability": "view",
      "type": "function"
    },
    {
      "inputs": [],
      "name": "fxs",
      "outputs": [
        {
          "internalType": "address",
          "name": "",
          "type": "address"
        }
      ],
      "stateMutability": "view",
      "type": "function"
    },
    {
      "inputs": [],
      "name": "getReward",
      "outputs": [],
      "stateMutability": "nonpayable",
      "type": "function"
    },
    {
      "inputs": [
        {
          "internalType": "bool",
          "name": "_claim",
          "type": "bool"
        },
        {
          "internalType": "address[]",
          "name": "_rewardTokenList",
          "type": "address[]"
        }
      ],
      "name": "getReward",
      "outputs": [],
      "stateMutability": "nonpayable",
      "type": "function"
    },
    {
      "inputs": [
        {
          "internalType": "bool",
          "name": "_claim",
          "type": "bool"
        }
      ],
      "name": "getReward",
      "outputs": [],
      "stateMutability": "nonpayable",
      "type": "function"
    },
    {
      "inputs": [
        {
          "internalType": "address",
          "name": "_owner",
          "type": "address"
        },
        {
          "internalType": "address",
          "name": "_stakingAddress",
          "type": "address"
        },
        {
          "internalType": "address",
          "name": "_stakingToken",
          "type": "address"
        },
        {
          "internalType": "address",
          "name": "_rewardsAddress",
          "type": "address"
        }
      ],
      "name": "initialize",
      "outputs": [],
      "stateMutability": "nonpayable",
      "type": "function"
    },
    {
      "inputs": [],
      "name": "owner",
      "outputs": [
        {
          "internalType": "address",
          "name": "",
          "type": "address"
        }
      ],
      "stateMutability": "view",
      "type": "function"
    },
    {
      "inputs": [],
      "name": "rewards",
      "outputs": [
        {
          "internalType": "address",
          "name": "",
          "type": "address"
        }
      ],
      "stateMutability": "view",
      "type": "function"
    },
    {
      "inputs": [
        {
          "internalType": "address",
          "name": "_proxy",
          "type": "address"
        }
      ],
      "name": "setVeFXSProxy",
      "outputs": [],
      "stateMutability": "nonpayable",
      "type": "function"
    },
    {
      "inputs": [],
      "name": "stakingAddress",
      "outputs": [
        {
          "internalType": "address",
          "name": "",
          "type": "address"
        }
      ],
      "stateMutability": "view",
      "type": "function"
    },
    {
      "inputs": [],
      "name": "stakingToken",
      "outputs": [
        {
          "internalType": "address",
          "name": "",
          "type": "address"
        }
      ],
      "stateMutability": "view",
      "type": "function"
    },
    {
      "inputs": [],
      "name": "usingProxy",
      "outputs": [
        {
          "internalType": "address",
          "name": "",
          "type": "address"
        }
      ],
      "stateMutability": "view",
      "type": "function"
    },
    {
      "inputs": [],
      "name": "vaultType",
      "outputs": [
        {
          "internalType": "enum IVaultType.VaultType",
          "name": "",
          "type": "uint8"
        }
      ],
      "stateMutability": "pure",
      "type": "function"
    },
    {
      "inputs": [],
      "name": "vaultVersion",
      "outputs": [
        {
          "internalType": "uint256",
          "name": "",
          "type": "uint256"
        }
      ],
      "stateMutability": "pure",
      "type": "function"
    },
    {
      "inputs": [],
      "name": "vefxsProxy",
      "outputs": [
        {
          "internalType": "address",
          "name": "",
          "type": "address"
        }
      ],
      "stateMutability": "view",
      "type": "function"
    }
  ],
  "bytecode": {
    "object": "0x6080806040523461001657610fd0908161001c8239f35b600080fdfe608060409080825260048036101561001657600080fd5b600092833560e01c928363193ba6d114610ddf57508383632a55484214610c71575082633d18b91214610c3f5782634ac032be14610c065782634e7adf2c14610bcc5782634f5aefcf14610b58578263641a6cd014610a4757826372f702f3146109f45782637d423446146109a75782638da5cb5b146109565782639ec5a89414610903578263a4698feb146108c7578263b3a408b81461087a578263d6f19262146107b9578263d73792a91461077e578263d7b4be2414610727578263d7c04a46146106d6579083918363e869565e146101765750505063f8c8765e146100fd57600080fd5b346101735760807ffffffffffffffffffffffffffffffffffffffffffffffffffffffffffffffffc36011261017357610134610e3a565b5073ffffffffffffffffffffffffffffffffffffffff6024358181160361016e576044358181160361016e576064359081160361016e5780f35b600080fd5b80fd5b829350346106d257602091827ffffffffffffffffffffffffffffffffffffffffffffffffffffffffffffffffc3601126106cd576101b2610e3a565b926101d2337359cfcd384746ec3035299d90782be065e466800b14610e5d565b73ffffffffffffffffffffffffffffffffffffffff908160035416948451957f02fb0c5e000000000000000000000000000000000000000000000000000000009687815283818781855afa9081156106a65790859392918a916106b0575b50610519575b501686600354827fffffffffffffffffffffffff0000000000000000000000000000000000000000821617600355161794845190815281818581895afa9081156104e25787916104ec575b5061028a578580f35b6024948183600154168651978880927fd9f96e8d00000000000000000000000000000000000000000000000000000000825230898301525afa9586156104e25787966104b0575b5084517f70a0823100000000000000000000000000000000000000000000000000000000815230858201528281602481855afa9283156104a6578893610473575b50508186106103d3575061032f9082600354169287541695610f5e565b90803b156103cf57610394948680948651978895869485937f47e7ef2400000000000000000000000000000000000000000000000000000000855284016020909392919373ffffffffffffffffffffffffffffffffffffffff60408201951681520152565b03925af19081156103c657506103b2575b50505b8082808080808580f35b6103bb90610ec2565b6101735780826103a5565b513d84823e3d90fd5b8580fd5b8654909216946103e291610f5e565b90803b156103cf57610447948680948651978895869485937ff3fef3a300000000000000000000000000000000000000000000000000000000855284016020909392919373ffffffffffffffffffffffffffffffffffffffff60408201951681520152565b03925af19081156103c6575061045f575b50506103a8565b61046890610ec2565b610173578082610458565b819850809293503d831161049f575b61048c8183610f05565b8101031261016e57869551908880610312565b503d610482565b86513d8a823e3d90fd5b965094508086813d81116104db575b6104c98183610f05565b8101031261016e5786955194886102d1565b503d6104bf565b85513d89823e3d90fd5b61050c9150823d8411610512575b6105048183610f05565b810190610f46565b88610281565b503d6104fa565b90915085517f70a0823100000000000000000000000000000000000000000000000000000000815230868201528381602481855afa9081156106a6578991610675575b50806105e2575b5050826003541683885416813b156105de57889160248392895194859384927fc00007b00000000000000000000000000000000000000000000000000000000084528b8401525af180156104a65784929189916105c1575b50610236565b6105cd91929350610ec2565b6105da578290878a6105bb565b8680fd5b8880fd5b8489541690823b156106715761064b928a92838a518096819582947ff3fef3a30000000000000000000000000000000000000000000000000000000084528d84016020909392919373ffffffffffffffffffffffffffffffffffffffff60408201951681520152565b03925af180156104a657908891156105635761066690610ec2565b6105da578689610563565b8980fd5b809950848092503d831161069f575b61068e8183610f05565b8101031261016e578897518a61055c565b503d610684565b87513d8b823e3d90fd5b6106c79150853d8711610512576105048183610f05565b8b610230565b505050fd5b5050fd5b833461017357807ffffffffffffffffffffffffffffffffffffffffffffffffffffffffffffffffc360112610173575073ffffffffffffffffffffffffffffffffffffffff60209254169051908152f35b83903461077a57817ffffffffffffffffffffffffffffffffffffffffffffffffffffffffffffffffc36011261077a5760209073ffffffffffffffffffffffffffffffffffffffff600154169051908152f35b5080fd5b83903461077a57817ffffffffffffffffffffffffffffffffffffffffffffffffffffffffffffffffc36011261077a57602090516127108152f35b833461017357807ffffffffffffffffffffffffffffffffffffffffffffffffffffffffffffffffc3601126101735781519182918183019183526060518092526060830191608090825b81811061084b5750505060209183810383850152826060519182815201926080925b82811061083457505050500390f35b835185528695509381019392810192600101610825565b825173ffffffffffffffffffffffffffffffffffffffff16855286955060209485019490920191600101610803565b83903461077a57817ffffffffffffffffffffffffffffffffffffffffffffffffffffffffffffffffc36011261077a576020905173c9acb83ada68413a6aa57007bc720ee2e2b3c46d8152f35b83346101735760207ffffffffffffffffffffffffffffffffffffffffffffffffffffffffffffffffc360112610173576108ff610e2b565b5080f35b83903461077a57817ffffffffffffffffffffffffffffffffffffffffffffffffffffffffffffffffc36011261077a5760209073ffffffffffffffffffffffffffffffffffffffff600354169051908152f35b83903461077a57817ffffffffffffffffffffffffffffffffffffffffffffffffffffffffffffffffc36011261077a5773ffffffffffffffffffffffffffffffffffffffff60209254169051908152f35b83903461077a57817ffffffffffffffffffffffffffffffffffffffffffffffffffffffffffffffffc36011261077a5760209051733432b6a60d23ca0dfca7761b7ab56459d9c964d08152f35b83903461077a57817ffffffffffffffffffffffffffffffffffffffffffffffffffffffffffffffffc36011261077a5760209073ffffffffffffffffffffffffffffffffffffffff600254169051908152f35b90915034610b545760207ffffffffffffffffffffffffffffffffffffffffffffffffffffffffffffffffc360112610b545782610a82610e3a565b91610aa2337359cfcd384746ec3035299d90782be065e466800b14610e5d565b73ffffffffffffffffffffffffffffffffffffffff92836001541693843b15610b505760248492845195869384927fd7400d560000000000000000000000000000000000000000000000000000000084521697888a8401525af1908115610b475750610b34575b507fffffffffffffffffffffffff000000000000000000000000000000000000000082541617905580f35b610b4090939193610ec2565b9138610b09565b513d86823e3d90fd5b8380fd5b8280fd5b90915034610b54577ffffffffffffffffffffffffffffffffffffffffffffffffffffffffffffffffc36011261077a57610b90610e2b565b5060243567ffffffffffffffff91828211610b505736602383011215610b5057810135918211610b5457602490369260051b0101116101735780f35b83903461077a57817ffffffffffffffffffffffffffffffffffffffffffffffffffffffffffffffffc36011261077a576020905160018152f35b83903461077a57817ffffffffffffffffffffffffffffffffffffffffffffffffffffffffffffffffc36011261077a5751908152602090f35b833461017357807ffffffffffffffffffffffffffffffffffffffffffffffffffffffffffffffffc3601126101735780f35b9250346106d257827ffffffffffffffffffffffffffffffffffffffffffffffffffffffffffffffffc3601126106d257610cc0337359cfcd384746ec3035299d90782be065e466800b14610e5d565b8273ffffffffffffffffffffffffffffffffffffffff6001541660248351809781937fc00007b000000000000000000000000000000000000000000000000000000000835230888401525af18015610dd557610d1a578280f35b3d8084863e610d298186610f05565b8401916020948581850312610dd157805167ffffffffffffffff918282116105da57019184601f840112156103cf578251918211610da557508581819260051b945190610d7883870183610f05565b81520192820101928311610b50578401905b828210610d9657508280f35b81518152908401908401610d8a565b8560416024927f4e487b7100000000000000000000000000000000000000000000000000000000835252fd5b8480fd5b81513d85823e3d90fd5b84903461077a57817ffffffffffffffffffffffffffffffffffffffffffffffffffffffffffffffffc36011261077a57807359cfcd384746ec3035299d90782be065e466800b60209252f35b60043590811515820361016e57565b6004359073ffffffffffffffffffffffffffffffffffffffff8216820361016e57565b15610e6457565b60646040517f08c379a000000000000000000000000000000000000000000000000000000000815260206004820152600b60248201527f21617574685f61646d696e0000000000000000000000000000000000000000006044820152fd5b67ffffffffffffffff8111610ed657604052565b7f4e487b7100000000000000000000000000000000000000000000000000000000600052604160045260246000fd5b90601f7fffffffffffffffffffffffffffffffffffffffffffffffffffffffffffffffe0910116810190811067ffffffffffffffff821117610ed657604052565b9081602091031261016e5751801515810361016e5790565b91908203918211610f6b57565b7f4e487b7100000000000000000000000000000000000000000000000000000000600052601160045260246000fdfea264697066735822122062195f0e29645a6498f14df343a9278f43f10ffdc1e8e49c9c83673752f7c19064736f6c63430008110033",
    "linkReferences": {}
  },
  "methodIdentifiers": {
    "FEE_DENOMINATOR()": "d73792a9",
    "changeRewards(address)": "e869565e",
    "checkpointRewards()": "2a554842",
    "earned()": "d6f19262",
    "feeRegistry()": "b3a408b8",
    "fxs()": "7d423446",
    "getReward()": "3d18b912",
    "getReward(bool)": "a4698feb",
    "getReward(bool,address[])": "4f5aefcf",
    "initialize(address,address,address,address)": "f8c8765e",
    "owner()": "8da5cb5b",
    "rewards()": "9ec5a894",
    "setVeFXSProxy(address)": "641a6cd0",
    "stakingAddress()": "d7b4be24",
    "stakingToken()": "72f702f3",
    "usingProxy()": "d7c04a46",
    "vaultType()": "4ac032be",
    "vaultVersion()": "4e7adf2c",
    "vefxsProxy()": "193ba6d1"
  },
  "id": 63
}