{
  "abi": [
    {
      "inputs": [],
      "stateMutability": "nonpayable",
      "type": "constructor"
    },
    {
      "inputs": [],
      "name": "ConfirmationFailed",
      "type": "error"
    },
    {
      "inputs": [],
      "name": "NonVaultReceiver",
      "type": "error"
    },
    {
      "inputs": [],
      "name": "FEE_DENOMINATOR",
      "outputs": [
        {
          "internalType": "uint256",
          "name": "",
          "type": "uint256"
        }
      ],
      "stateMutability": "view",
      "type": "function"
    },
    {
      "inputs": [
        {
          "internalType": "address",
          "name": "from",
          "type": "address"
        },
        {
          "internalType": "address",
          "name": "to",
          "type": "address"
        },
        {
          "internalType": "bytes32",
          "name": "kek_id",
          "type": "bytes32"
        },
        {
          "internalType": "bytes",
          "name": "data",
          "type": "bytes"
        }
      ],
      "name": "beforeLockTransfer",
      "outputs": [
        {
          "internalType": "bytes4",
          "name": "",
          "type": "bytes4"
        }
      ],
      "stateMutability": "nonpayable",
      "type": "function"
    },
    {
      "inputs": [
        {
          "internalType": "address",
          "name": "_rewardsAddress",
          "type": "address"
        }
      ],
      "name": "changeRewards",
      "outputs": [],
      "stateMutability": "nonpayable",
      "type": "function"
    },
    {
      "inputs": [],
      "name": "checkpointRewards",
      "outputs": [],
      "stateMutability": "nonpayable",
      "type": "function"
    },
    {
      "inputs": [],
      "name": "claimOnTransfer",
      "outputs": [],
      "stateMutability": "nonpayable",
      "type": "function"
    },
    {
      "inputs": [],
      "name": "convexCurveBooster",
      "outputs": [
        {
          "internalType": "address",
          "name": "",
          "type": "address"
        }
      ],
      "stateMutability": "view",
      "type": "function"
    },
    {
      "inputs": [],
      "name": "convexDepositToken",
      "outputs": [
        {
          "internalType": "address",
          "name": "",
          "type": "address"
        }
      ],
      "stateMutability": "view",
      "type": "function"
    },
    {
      "inputs": [],
      "name": "crv",
      "outputs": [
        {
          "internalType": "address",
          "name": "",
          "type": "address"
        }
      ],
      "stateMutability": "view",
      "type": "function"
    },
    {
      "inputs": [],
      "name": "curveLpToken",
      "outputs": [
        {
          "internalType": "address",
          "name": "",
          "type": "address"
        }
      ],
      "stateMutability": "view",
      "type": "function"
    },
    {
      "inputs": [],
      "name": "cvx",
      "outputs": [
        {
          "internalType": "address",
          "name": "",
          "type": "address"
        }
      ],
      "stateMutability": "view",
      "type": "function"
    },
    {
      "inputs": [],
      "name": "earned",
      "outputs": [
        {
          "internalType": "address[]",
          "name": "token_addresses",
          "type": "address[]"
        },
        {
          "internalType": "uint256[]",
          "name": "total_earned",
          "type": "uint256[]"
        }
      ],
      "stateMutability": "view",
      "type": "function"
    },
    {
      "inputs": [],
      "name": "feeRegistry",
      "outputs": [
        {
          "internalType": "address",
          "name": "",
          "type": "address"
        }
      ],
      "stateMutability": "view",
      "type": "function"
    },
    {
      "inputs": [],
      "name": "fxs",
      "outputs": [
        {
          "internalType": "address",
          "name": "",
          "type": "address"
        }
      ],
      "stateMutability": "view",
      "type": "function"
    },
    {
      "inputs": [],
      "name": "getReward",
      "outputs": [],
      "stateMutability": "nonpayable",
      "type": "function"
    },
    {
      "inputs": [
        {
          "internalType": "bool",
          "name": "_claim",
          "type": "bool"
        },
        {
          "internalType": "address[]",
          "name": "_rewardTokenList",
          "type": "address[]"
        }
      ],
      "name": "getReward",
      "outputs": [],
      "stateMutability": "nonpayable",
      "type": "function"
    },
    {
      "inputs": [
        {
          "internalType": "bool",
          "name": "_claim",
          "type": "bool"
        }
      ],
      "name": "getReward",
      "outputs": [],
      "stateMutability": "nonpayable",
      "type": "function"
    },
    {
      "inputs": [
        {
          "internalType": "address",
          "name": "spender",
          "type": "address"
        },
        {
          "internalType": "bytes32",
          "name": "kek_id",
          "type": "bytes32"
        },
        {
          "internalType": "uint256",
          "name": "amount",
          "type": "uint256"
        }
      ],
      "name": "increaseAllowance",
      "outputs": [],
      "stateMutability": "nonpayable",
      "type": "function"
    },
    {
      "inputs": [
        {
          "internalType": "address",
          "name": "_owner",
          "type": "address"
        },
        {
          "internalType": "address",
          "name": "_stakingAddress",
          "type": "address"
        },
        {
          "internalType": "address",
          "name": "_stakingToken",
          "type": "address"
        },
        {
          "internalType": "address",
          "name": "_rewardsAddress",
          "type": "address"
        }
      ],
      "name": "initialize",
      "outputs": [],
      "stateMutability": "nonpayable",
      "type": "function"
    },
    {
      "inputs": [
        {
          "internalType": "bytes32",
          "name": "_kek_id",
          "type": "bytes32"
        },
        {
          "internalType": "uint256",
          "name": "_addl_liq",
          "type": "uint256"
        }
      ],
      "name": "lockAdditional",
      "outputs": [],
      "stateMutability": "nonpayable",
      "type": "function"
    },
    {
      "inputs": [
        {
          "internalType": "bytes32",
          "name": "_kek_id",
          "type": "bytes32"
        },
        {
          "internalType": "uint256",
          "name": "_addl_liq",
          "type": "uint256"
        }
      ],
      "name": "lockAdditionalConvexToken",
      "outputs": [],
      "stateMutability": "nonpayable",
      "type": "function"
    },
    {
      "inputs": [
        {
          "internalType": "bytes32",
          "name": "_kek_id",
          "type": "bytes32"
        },
        {
          "internalType": "uint256",
          "name": "_addl_liq",
          "type": "uint256"
        }
      ],
      "name": "lockAdditionalCurveLp",
      "outputs": [],
      "stateMutability": "nonpayable",
      "type": "function"
    },
    {
      "inputs": [
        {
          "internalType": "bytes32",
          "name": "_kek_id",
          "type": "bytes32"
        },
        {
          "internalType": "uint256",
          "name": "new_ending_ts",
          "type": "uint256"
        }
      ],
      "name": "lockLonger",
      "outputs": [],
      "stateMutability": "nonpayable",
      "type": "function"
    },
    {
      "inputs": [
        {
          "internalType": "address",
          "name": "from",
          "type": "address"
        },
        {
          "internalType": "address",
          "name": "to",
          "type": "address"
        },
        {
          "internalType": "bytes32",
          "name": "kek_id",
          "type": "bytes32"
        },
        {
          "internalType": "bytes",
          "name": "data",
          "type": "bytes"
        }
      ],
      "name": "onLockReceived",
      "outputs": [
        {
          "internalType": "bytes4",
          "name": "",
          "type": "bytes4"
        }
      ],
      "stateMutability": "nonpayable",
      "type": "function"
    },
    {
      "inputs": [],
      "name": "owner",
      "outputs": [
        {
          "internalType": "address",
          "name": "",
          "type": "address"
        }
      ],
      "stateMutability": "view",
      "type": "function"
    },
    {
      "inputs": [],
      "name": "poolId",
      "outputs": [
        {
          "internalType": "uint256",
          "name": "",
          "type": "uint256"
        }
      ],
      "stateMutability": "view",
      "type": "function"
    },
    {
      "inputs": [],
      "name": "poolRegistry",
      "outputs": [
        {
          "internalType": "address",
          "name": "",
          "type": "address"
        }
      ],
      "stateMutability": "view",
      "type": "function"
    },
    {
      "inputs": [
        {
          "internalType": "address",
          "name": "spender",
          "type": "address"
        },
        {
          "internalType": "bytes32",
          "name": "kek_id",
          "type": "bytes32"
        }
      ],
      "name": "removeAllowance",
      "outputs": [],
      "stateMutability": "nonpayable",
      "type": "function"
    },
    {
      "inputs": [],
      "name": "rewards",
      "outputs": [
        {
          "internalType": "address",
          "name": "",
          "type": "address"
        }
      ],
      "stateMutability": "view",
      "type": "function"
    },
    {
      "inputs": [
        {
          "internalType": "address",
          "name": "spender",
          "type": "address"
        },
        {
          "internalType": "bytes32",
          "name": "kek_id",
          "type": "bytes32"
        },
        {
          "internalType": "uint256",
          "name": "amount",
          "type": "uint256"
        }
      ],
      "name": "setAllowance",
      "outputs": [],
      "stateMutability": "nonpayable",
      "type": "function"
    },
    {
      "inputs": [
        {
          "internalType": "address",
          "name": "spender",
          "type": "address"
        },
        {
          "internalType": "bool",
          "name": "approved",
          "type": "bool"
        }
      ],
      "name": "setApprovalForAll",
      "outputs": [],
      "stateMutability": "nonpayable",
      "type": "function"
    },
    {
      "inputs": [
        {
          "internalType": "address",
          "name": "_proxy",
          "type": "address"
        }
      ],
      "name": "setVeFXSProxy",
      "outputs": [],
      "stateMutability": "nonpayable",
      "type": "function"
    },
    {
      "inputs": [
        {
          "internalType": "uint256",
          "name": "_liquidity",
          "type": "uint256"
        },
        {
          "internalType": "uint256",
          "name": "_secs",
          "type": "uint256"
        }
      ],
      "name": "stakeLocked",
      "outputs": [
        {
          "internalType": "bytes32",
          "name": "kek_id",
          "type": "bytes32"
        }
      ],
      "stateMutability": "nonpayable",
      "type": "function"
    },
    {
      "inputs": [
        {
          "internalType": "uint256",
          "name": "_liquidity",
          "type": "uint256"
        },
        {
          "internalType": "uint256",
          "name": "_secs",
          "type": "uint256"
        }
      ],
      "name": "stakeLockedConvexToken",
      "outputs": [
        {
          "internalType": "bytes32",
          "name": "kek_id",
          "type": "bytes32"
        }
      ],
      "stateMutability": "nonpayable",
      "type": "function"
    },
    {
      "inputs": [
        {
          "internalType": "uint256",
          "name": "_liquidity",
          "type": "uint256"
        },
        {
          "internalType": "uint256",
          "name": "_secs",
          "type": "uint256"
        }
      ],
      "name": "stakeLockedCurveLp",
      "outputs": [
        {
          "internalType": "bytes32",
          "name": "kek_id",
          "type": "bytes32"
        }
      ],
      "stateMutability": "nonpayable",
      "type": "function"
    },
    {
      "inputs": [],
      "name": "stakingAddress",
      "outputs": [
        {
          "internalType": "address",
          "name": "",
          "type": "address"
        }
      ],
      "stateMutability": "view",
      "type": "function"
    },
    {
      "inputs": [],
      "name": "stakingToken",
      "outputs": [
        {
          "internalType": "address",
          "name": "",
          "type": "address"
        }
      ],
      "stateMutability": "view",
      "type": "function"
    },
    {
      "inputs": [
        {
          "internalType": "address",
          "name": "receiver_address",
          "type": "address"
        },
        {
          "internalType": "bytes32",
          "name": "origin_kek_id",
          "type": "bytes32"
        },
        {
          "internalType": "uint256",
          "name": "amount",
          "type": "uint256"
        },
        {
          "internalType": "bytes32",
          "name": "destination_kek_id",
          "type": "bytes32"
        }
      ],
      "name": "transferLocked",
      "outputs": [
        {
          "internalType": "bytes32",
          "name": "",
          "type": "bytes32"
        },
        {
          "internalType": "bytes32",
          "name": "",
          "type": "bytes32"
        }
      ],
      "stateMutability": "nonpayable",
      "type": "function"
    },
    {
      "inputs": [],
      "name": "usingProxy",
      "outputs": [
        {
          "internalType": "address",
          "name": "",
          "type": "address"
        }
      ],
      "stateMutability": "view",
      "type": "function"
    },
    {
      "inputs": [],
      "name": "vaultType",
      "outputs": [
        {
          "internalType": "enum IProxyVault.VaultType",
          "name": "",
          "type": "uint8"
        }
      ],
      "stateMutability": "pure",
      "type": "function"
    },
    {
      "inputs": [],
      "name": "vaultVersion",
      "outputs": [
        {
          "internalType": "uint256",
          "name": "",
          "type": "uint256"
        }
      ],
      "stateMutability": "pure",
      "type": "function"
    },
    {
      "inputs": [],
      "name": "vefxsProxy",
      "outputs": [
        {
          "internalType": "address",
          "name": "",
          "type": "address"
        }
      ],
      "stateMutability": "view",
      "type": "function"
    },
    {
      "inputs": [
        {
          "internalType": "bytes32",
          "name": "_kek_id",
          "type": "bytes32"
        }
      ],
      "name": "withdrawLocked",
      "outputs": [],
      "stateMutability": "nonpayable",
      "type": "function"
    },
    {
      "inputs": [
        {
          "internalType": "bytes32",
          "name": "_kek_id",
          "type": "bytes32"
        }
      ],
      "name": "withdrawLockedAndUnwrap",
      "outputs": [],
      "stateMutability": "nonpayable",
      "type": "function"
    }
  ],
  "bytecode": {
    "object": "0x60806040523462000027575b6200001562000036565b604051614ba7620000948239614ba790f35b62000030600080fd5b6200000b565b6200004062000079565b565b6200005262000052620000529290565b90565b62000052600162000042565b906200005262000052620000759262000042565b9055565b6200008362000055565b6200009081600562000061565b5056fe60806040526004361015610018575b610016600080fd5b005b60003560e01c80630687c4bd1461037457806317b18c891461036b578063193ba6d1146103625780632439242a146103595780632a554842146103505780633c62c44f146103475780633d18b9121461033e5780633e0dc34e146103355780634ab794a31461032c5780634ac032be146103235780634e7adf2c1461031a5780634f5aefcf146103115780634fb071051461030857806351e3fc17146102ff5780635eb143ce146102f6578063641a6cd0146102ed578063646780df146102e45780636a4874a1146102db57806372f702f3146102d2578063733ff194146102c95780637d423446146102c05780638da5cb5b146102b7578063923c1d61146102ae5780639ce0ff9d146102a55780639ec5a8941461029c5780639ecc33e914610293578063a10d3b331461028a578063a22cb46514610281578063a41ce7e914610278578063a4698feb1461026f578063afcff50f14610266578063b3a408b81461025d578063b61aa08c14610254578063b85efd061461024b578063c42d8b9514610242578063cc64175114610239578063d2fbdc0d14610230578063d6f1926214610227578063d73792a91461021e578063d7b4be2414610215578063d7c04a461461020c578063e869565e146102035763f8c8765e0361000e576101fe61121e565b61000e565b506101fe6111ad565b506101fe611183565b506101fe61114d565b506101fe611117565b506101fe6110c7565b506101fe610fd0565b506101fe610fa8565b506101fe610f7a565b506101fe610f52565b506101fe610f2a565b506101fe610ec6565b506101fe610e8a565b506101fe610e63565b506101fe610e1b565b506101fe610df3565b506101fe610d9a565b506101fe610d73565b506101fe610d49565b506101fe610d01565b506101fe610cc5565b506101fe610c9b565b506101fe610c54565b506101fe610c2c565b506101fe610bc4565b506101fe610b7c565b506101fe610b52565b506101fe610b1f565b506101fe610ad8565b506101fe610a79565b506101fe610a18565b506101fe610817565b506101fe610736565b506101fe610708565b506101fe610673565b506101fe61062c565b506101fe6105e6565b506101fe6105a5565b506101fe6104f4565b506101fe6104c9565b506101fe61046a565b506101fe610403565b506101fe6103ce565b600080fd5b805b0361037d57565b9050359061039882610382565b565b91906103be906040848203126103c1575b6103b5818561038b565b9360200161038b565b90565b6103c9600080fd5b6103ab565b50346103f2575b6103e96103e336600461039a565b90612dcc565b604051005b0390f35b6103fa600080fd5b6103d5565b9052565b5034610431575b6103ee61042161041b36600461039a565b90612c14565b6040519182918290815260200190565b610439600080fd5b61040a565b600091031261044957565b610398600080fd5b73ffffffffffffffffffffffffffffffffffffffff1690565b50346104bc575b61047c36600461043e565b6103ee7359cfcd384746ec3035299d90782be065e466800b5b6040519182918273ffffffffffffffffffffffffffffffffffffffff909116815260200190565b6104c4600080fd5b610471565b50346104e7575b6103ee6104216104e136600461039a565b90612b8f565b6104ef600080fd5b6104d0565b503461050e575b61050636600461043e565b6103e96116d7565b610516600080fd5b6104fb565b73ffffffffffffffffffffffffffffffffffffffff8116610384565b905035906103988261051b565b608081830312610581575b6105598282610537565b926103be61056a846020850161038b565b93610578816040860161038b565b9360600161038b565b610589600080fd5b61054f565b9081526040810192916103989160200152565b0152565b50346105d9575b6105c36105ba366004610544565b92919091613503565b906103ee6105d060405190565b9283928361058e565b6105e1600080fd5b6105ac565b5034610600575b6105f836600461043e565b6103e9614741565b610608600080fd5b6105ed565b6103be6103be6103be9290565b6103be602461060d565b6103be61061a565b5034610649575b61063e36600461043e565b6103ee610421610624565b610651600080fd5b610633565b906103be916020818303121561038b5761066e600080fd5b61038b565b503461068d575b6103e9610688366004610656565b6131fe565b610695600080fd5b61067a565b507f4e487b7100000000000000000000000000000000000000000000000000000000600052602160045260246000fd5b600411156106d457565b61039861069a565b90610398826106ca565b6103be906106dc565b6103ff906106e6565b60208101929161039891906106ef565b5034610729575b61071a36600461043e565b604051806103ee6002826106f8565b610731600080fd5b61070f565b5034610753575b61074836600461043e565b6103ee610421611b7a565b61075b600080fd5b61073d565b801515610384565b9050359061039882610760565b909182601f830112156107b4575b602082359267ffffffffffffffff84116107a7575b01926020830284011161044957565b6107af600080fd5b610798565b6107bc600080fd5b610783565b91906107f99060408482031261080a575b6107dc8185610768565b9360208101359067ffffffffffffffff82116107fd575b01610775565b9091565b610805600080fd5b6107f3565b610812600080fd5b6107d2565b5034610832575b6103e961082c3660046107c1565b91614a42565b61083a600080fd5b61081e565b601f017fffffffffffffffffffffffffffffffffffffffffffffffffffffffffffffffe01690565b507f4e487b7100000000000000000000000000000000000000000000000000000000600052604160045260246000fd5b90601f017fffffffffffffffffffffffffffffffffffffffffffffffffffffffffffffffe016810190811067ffffffffffffffff8211176108d757604052565b6108df610867565b604052565b906103986108f160405190565b9283610897565b61093560209167ffffffffffffffff811161093957601f017fffffffffffffffffffffffffffffffffffffffffffffffffffffffffffffffe01690565b0190565b61083f610867565b90826000939282370152565b92919061039891610965610960836108f8565b6108e4565b94828652602086019183820111156109415761097f600080fd5b610941565b906103be9181601f820112156109a0575b60208135910161094d565b6109a8600080fd5b610995565b608081830312610a0b575b6109c28282610537565b926103be6109d38460208501610537565b936109e1816040860161038b565b9360608101359067ffffffffffffffff82116109fe575b01610984565b610a06600080fd5b6109f8565b610a13600080fd5b6109b8565b5034610a6c575b6103ee610a39610a303660046109ad565b92919091611c7f565b604051918291827fffffffff00000000000000000000000000000000000000000000000000000000909116815260200190565b610a74600080fd5b610a1f565b5034610a93575b6103e9610a8e366004610656565b612f80565b610a9b600080fd5b610a80565b6103be916008021c73ffffffffffffffffffffffffffffffffffffffff1690565b906103be9154610aa0565b6103be60006007610ac1565b5034610af5575b610aea36600461043e565b6103ee610495610acc565b610afd600080fd5b610adf565b906103be916020818303121561053757610b1a600080fd5b610537565b5034610b39575b6103e9610b34366004610b02565b611869565b610b41600080fd5b610b26565b6103be60006006610ac1565b5034610b6f575b610b6436600461043e565b6103ee610495610b46565b610b77600080fd5b610b59565b5034610bab575b610b8e36600461043e565b6103ee73d533a949740bb3306d119cc777fa900ba034cd52610495565b610bb3600080fd5b610b83565b6103be60006002610ac1565b5034610be1575b610bd636600461043e565b6103ee610495610bb8565b610be9600080fd5b610bcb565b9091606082840312610c1f575b6103be610c088484610537565b93610c16816020860161038b565b9360400161038b565b610c27600080fd5b610bfb565b5034610c47575b6103e9610c41366004610bee565b916132f5565b610c4f600080fd5b610c33565b5034610c83575b610c6636600461043e565b6103ee733432b6a60d23ca0dfca7761b7ab56459d9c964d0610495565b610c8b600080fd5b610c5b565b6103be600080610ac1565b5034610cb8575b610cad36600461043e565b6103ee610495610c90565b610cc0600080fd5b610ca2565b5034610cf4575b610cd736600461043e565b6103ee734e3fbd56cd56c3e72c1403e103b45db9da5b9d2b610495565b610cfc600080fd5b610ccc565b5034610d30575b610d1336600461043e565b6103ee73f403c135812408bfbe8713b5a23a04b3d48aae31610495565b610d38600080fd5b610d08565b6103be60006003610ac1565b5034610d66575b610d5b36600461043e565b6103ee610495610d3d565b610d6e600080fd5b610d50565b5034610d8d575b610d8536600461043e565b6103e9613605565b610d95600080fd5b610d7a565b5034610db5575b6103e9610daf366004610bee565b916132a6565b610dbd600080fd5b610da1565b91906103be90604084820312610de6575b610ddd8185610537565b93602001610768565b610dee600080fd5b610dd3565b5034610e0e575b6103e9610e08366004610dc2565b906133b7565b610e16600080fd5b610dfa565b5034610e39575b6103ee610421610e3336600461039a565b90612620565b610e41600080fd5b610e22565b906103be916020818303121561076857610e5e600080fd5b610768565b5034610e7d575b6103e9610e78366004610e46565b614747565b610e85600080fd5b610e6a565b5034610eb9575b610e9c36600461043e565b6103ee7341a5881c17185383e19df6fa4ec158a6f4851a69610495565b610ec1600080fd5b610e91565b5034610ef5575b610ed836600461043e565b6103ee73c9acb83ada68413a6aa57007bc720ee2e2b3c46d610495565b610efd600080fd5b610ecd565b91906103be90604084820312610f1d575b6103b58185610537565b610f25600080fd5b610f13565b5034610f45575b6103e9610f3f366004610f02565b90613341565b610f4d600080fd5b610f31565b5034610f6d575b6103e9610f6736600461039a565b90612cf7565b610f75600080fd5b610f59565b5034610f9b575b6103ee610a39610f923660046109ad565b92919091611f3c565b610fa3600080fd5b610f81565b5034610fc3575b6103e9610fbd36600461039a565b90612e4b565b610fcb600080fd5b610faf565b5034610feb575b6103e9610fe536600461039a565b90612eec565b610ff3600080fd5b610fd7565b90611018611011611007845190565b8084529260200190565b9260200190565b9060005b8181106110295750505090565b90919261105c611055600192865173ffffffffffffffffffffffffffffffffffffffff16815260200190565b9460200190565b92910161101c565b90611073611011611007845190565b9060005b8181106110845750505090565b90919261109a6110556001928651815260200190565b929101611077565b60408082526103be9391926110b991840190610ff8565b916020818403910152611064565b50346110f7575b6110d936600461043e565b6110e161423f565b906103ee6110ee60405190565b928392836110a2565b6110ff600080fd5b6110ce565b6103be61271061060d565b6103be611104565b5034611134575b61112936600461043e565b6103ee61042161110f565b61113c600080fd5b61111e565b6103be60006001610ac1565b503461116a575b61115f36600461043e565b6103ee610495611141565b611172600080fd5b611154565b6103be60006004610ac1565b50346111a0575b61119536600461043e565b6103ee610495611177565b6111a8600080fd5b61118a565b50346111c7575b6103e96111c2366004610b02565b6116a6565b6111cf600080fd5b6111b4565b608081830312611211575b6111e98282610537565b926103be6111fa8460208501610537565b936112088160408601610537565b93606001610537565b611219600080fd5b6111df565b503461123c575b6103e96112333660046111d4565b9291909161215d565b611244600080fd5b611225565b1561125057565b6040517f08c379a000000000000000000000000000000000000000000000000000000000815260206004820152600b60248201527f21617574685f61646d696e0000000000000000000000000000000000000000006044820152606490fd5b0390fd5b610398906112f57359cfcd384746ec3035299d90782be065e466800b5b6112ef335b9173ffffffffffffffffffffffffffffffffffffffff1690565b14611249565b61140a565b6103be90610451565b6103be90546112fa565b6104516103be6103be9273ffffffffffffffffffffffffffffffffffffffff1690565b6103be9061130d565b6103be90611330565b9050519061039882610760565b906103be916020818303121561134257611367600080fd5b611342565b506040513d6000823e3d90fd5b9050519061039882610382565b906103be91602081830312156113795761139e600080fd5b611379565b73ffffffffffffffffffffffffffffffffffffffff90911681526040810192916103989160200152565b9073ffffffffffffffffffffffffffffffffffffffff905b9181191691161790565b906113ff6103be61140692611339565b82546113cd565b9055565b61143c602061142461141f61141f6003611303565b611339565b6302fb0c5e9061143360405190565b93849260e01b90565b825260049082905afa908115611699575b60009161166b575b5061146f575b6114668160036113ef565b50610398611951565b6114d1602061148461141f61141f6003611303565b6370a08231906114ad61149630611339565b926114a060405190565b9586948593849360e01b90565b835273ffffffffffffffffffffffffffffffffffffffff1660048301526024820190565b03915afa90811561165e575b600091611630575b506000906114f28261060d565b8111611599575b5061153b8161150e61141f61141f6003611303565b63c00007b0906114ad8361152181611303565b93833b1561158c575b6040515b9687958694859360e01b90565b03925af1801561157f575b611552575b505061145b565b8161157192903d10611578575b6115698183610897565b81019061043e565b388061154b565b503d61155f565b61158761136c565b611546565b611594600080fd5b61152a565b816115aa61141f61141f6003611303565b63f3fef3a3906115df836115bd81611303565b93833b15611623575b6115ea6115d260405190565b9788968795869460e01b90565b8452600484016113a3565b03925af18015611616575b156114f95761161090823d8411611578576115698183610897565b386114f9565b61161e61136c565b6115f5565b61162b600080fd5b6115c6565b611651915060203d8111611657575b6116498183610897565b810190611386565b386114e5565b503d61163f565b61166661136c565b6114dd565b61168c915060203d8111611692575b6116848183610897565b81019061134f565b38611455565b503d61167a565b6116a161136c565b61144d565b610398906112b3565b6116cc7359cfcd384746ec3035299d90782be065e466800b6112d0565b6103986103986117cb565b6103986116af565b6020809167ffffffffffffffff81116116f757020190565b6116ff610867565b020190565b90929192611714610960826116df565b9381855260208086019202830192818411611752575b915b8383106117395750505050565b602080916117478486611379565b81520192019161172c565b61175a600080fd5b61172a565b906103be9181601f8201121561177b575b602081519101611704565b611783600080fd5b611770565b906103be916020818303126117be575b80519067ffffffffffffffff82116117b1575b0161175f565b6117b9600080fd5b6117ab565b6117c6600080fd5b611798565b6117fd60006117e061141f61141f6001611303565b63c00007b0906114ad836117f330611339565b9361152e60405190565b03925af1908115611832575b600091611814575050565b61182f913d8091833e6118278183610897565b810190611788565b50565b61183a61136c565b611809565b610398906118607359cfcd384746ec3035299d90782be065e466800b6112d0565b61039890611872565b6103989061183f565b61189d600061188761141f61141f6001611303565b63d7400d5690803b156118ff575b604051611433565b825273ffffffffffffffffffffffffffffffffffffffff85166004830152602490829084905af180156118f2575b6118dc575b5061182f8160046113ef565b6118ec9060006115698183610897565b386118d0565b6118fa61136c565b6118cb565b611907600080fd5b611895565b507f4e487b7100000000000000000000000000000000000000000000000000000000600052601160045260246000fd5b9190820391821161194957565b61039861190c565b611966602061142461141f61141f6003611303565b825260049082905afa908115611b6d575b600091611b4f575b5061198657565b611a2f61199961141f61141f6001611303565b6119c263d9f96e8d91602030936119af85611339565b926119b960405190565b94859260e01b90565b825273ffffffffffffffffffffffffffffffffffffffff8416600483015260249082905afa918215611b42575b600092611b22575b508192602092506114ad611a1161141f61141f6003611303565b916370a082319050611a2260405190565b9687948593849360e01b90565b03915afa918215611b15575b600092611af5575b50818110611acb57600090611a5e61141f61141f6003611303565b6115df83611a7a6347e7ef2496611a7483611303565b9561193c565b95833b15611abe575b611a8f6115d260405190565b03925af18015611ab1575b611aa15750565b6103989060006115698183610897565b611ab961136c565b611a9a565b611ac6600080fd5b611a83565b90600090611adf61141f61141f6003611303565b6115df83611a7a63f3fef3a396611a7483611303565b611b0e91925060203d8111611657576116498183610897565b9038611a43565b611b1d61136c565b611a3b565b60209250611b3c90833d8111611657576116498183610897565b916119f7565b611b4a61136c565b6119ef565b611b67915060203d8111611692576116848183610897565b3861197f565b611b7561136c565b611977565b6103be600461060d565b15611b8b57565b6040517f08c379a000000000000000000000000000000000000000000000000000000000815260206004820152600e60248201527f696e76616c696420706172616d730000000000000000000000000000000000006044820152606490fd5b905051906103988261051b565b906103be9160208183031215611bea57611c0f600080fd5b611bea565b908152604081019291610398916020905b019073ffffffffffffffffffffffffffffffffffffffff169052565b611c5a611c546103be9263ffffffff1690565b60e01b90565b7fffffffff000000000000000000000000000000000000000000000000000000001690565b9250309150611c8d82611339565b92611cad73ffffffffffffffffffffffffffffffffffffffff85166112d5565b1480611e3a575b611cbd90611b84565b611d846112d5611ce161141f7341a5881c17185383e19df6fa4ec158a6f4851a6981565b611d1963bfff576f91611cf261061a565b906020611d0161141f89611339565b638da5cb5b90611d1060405190565b95869260e01b90565b825260049082906000905af1928315611e2d575b600093611e06575b50611d4b600060209495611d566115d260405190565b845260048401611c14565b03925af1908115611df9575b600091611dcb575b5073ffffffffffffffffffffffffffffffffffffffff1690565b03611da057611d91613605565b50506103be634fb07105611c41565b6040517fae59d4f4000000000000000000000000000000000000000000000000000000008152600490fd5b611dec915060203d8111611df2575b611de48183610897565b810190611bf7565b38611d6a565b503d611dda565b611e0161136c565b611d62565b602093506000611e25611d4b92863d8111611df257611de48183610897565b945050611d35565b611e3561136c565b611d2d565b50611cbd33611e4f6112d56104516001611303565b149050611cb4565b7fffffffff000000000000000000000000000000000000000000000000000000008116610384565b9050519061039882611e57565b906103be9160208183031215611e7f57611ea4600080fd5b611e7f565b60005b838110611ebc5750506000910152565b8181015183820152602001611eac565b611eed61083f60209361093593611ee1815190565b80835293849260200190565b95869101611ea9565b73ffffffffffffffffffffffffffffffffffffffff9182168152911660208201526103be926080820192909190611f2f905b6040830152565b6060818403910152611ecc565b909192611f47600090565b503093611f5385611339565b73ffffffffffffffffffffffffffffffffffffffff811673ffffffffffffffffffffffffffffffffffffffff8616148061205c575b611f9190611b84565b611f9b6000611303565b3b95600096611fb0611fac8961060d565b9190565b111561204657505084611fef91611ffa611fd261141f61141f6020999a611303565b9463c42d8b9592611fe260405190565b998a988997889660e01b90565b865260048601611ef6565b03925af1908115612039575b600091612011575090565b6103be915060203d8111612032575b61202a8183610897565b810190611e8c565b503d612020565b61204161136c565b612006565b9450945050505050506103be63c42d8b95611c41565b50611f91336120716112d56104516001611303565b149050611f88565b6104516103be6103be9290565b6103be90612079565b1561209657565b6040517f08c379a000000000000000000000000000000000000000000000000000000000815260206004820152600c60248201527f616c726561647920696e697400000000000000000000000000000000000000006044820152606490fd5b909160c082840312612150575b61210c8383611bea565b9261211a8160208501611bea565b926121288260408301611bea565b926103be6121398460608501611bea565b936121478160808601611bea565b9360a001611342565b612158600080fd5b612102565b6122499083929461216e6000611303565b9161218a6000936121846112d561045187612086565b1461208f565b61219481846113ef565b506121a08660016113ef565b6121ab8460026113ef565b6121b68160036113ef565b5060c06122066121da61141f73f403c135812408bfbe8713b5a23a04b3d48aae3181565b83631526fe2760206121ee61141f8a611339565b63e529ee95906121fd60405190565b96879260e01b90565b825260049082905afa938415612429575b600094612403575b509061223b9161222e60405190565b9788958694859360e01b90565b835260048301526024820190565b03925af19081156123f6575b60009283926123c0575b5061226b8260066113ef565b6122768360076113ef565b61227f84611339565b61228890611339565b9563095ea7b3937fffffffffffffffffffffffffffffffffffffffffffffffffffffffffffffffff976122ba60405190565b8080946122c78960e01b90565b82528b60048301916122d8926113a3565b0381865a94602095f19088821560209961230c61141f6115df996123329861141f988f966123b3575b61239d575b50611339565b6115df888b61231d6115d260405190565b03925af18015612390575b6123755750611339565b9261233f6115d260405190565b03925af18015612368575b6123515750565b61182f9060203d8111611692576116848183610897565b61237061136c565b61234a565b61238b90893d8111611692576116848183610897565b612306565b61239861136c565b612328565b61238b90863d8111611692576116848183610897565b6123bb61136c565b612301565b9092506123e4915060c03d81116123ef575b6123dc8183610897565b8101906120f5565b50505092909261225f565b503d6123d2565b6123fe61136c565b612255565b61223b929194506124219060203d8111611657576116498183610897565b93909161221f565b61243161136c565b612217565b1561243d57565b6040517f08c379a000000000000000000000000000000000000000000000000000000000815260206004820152600560248201527f21617574680000000000000000000000000000000000000000000000000000006044820152606490fd5b906103be92916124be6124af6000611303565b6124b8336112d5565b14612436565b906124d192916124cc6126ec565b6124da565b9061039861271f565b92919060006124e88161060d565b82116124fa575b505050610398611951565b602092945061255f8161251061141f6006611303565b339061252986309261252184611339565b948591612758565b6125538361253d61141f61141f6002611303565b9250636e553f65833b1561158c5760405161152e565b83528a60048401611c14565b03925af18015612613575b6125f7575b506125a261258361141f61141f6001611303565b916317b18c896125ad61259560405190565b9889968795869460e01b90565b84526004840161058e565b03925af19182156125ea575b6000926125ca575b508138806124ef565b6125e391925060203d8111611657576116498183610897565b90386125c1565b6125f261136c565b6125b9565b61260d90823d8411611578576115698183610897565b3861256f565b61261b61136c565b61256a565b6103be9190600061249c565b6103be9081565b6103be905461262c565b6103be600261060d565b1561264e57565b6040517f08c379a000000000000000000000000000000000000000000000000000000000815260206004820152601f60248201527f5265656e7472616e637947756172643a207265656e7472616e742063616c6c006044820152606490fd5b907fffffffffffffffffffffffffffffffffffffffffffffffffffffffffffffffff906113e5565b906126e56103be6114069261060d565b82546126ad565b6126f66005612633565b61270a61270161263d565b91821415612647565b61182f8160056126d5565b6103be600161060d565b61270a612715565b73ffffffffffffffffffffffffffffffffffffffff9182168152911660208201526060810192916103989160400152565b906127a7906127986103989560049561277086611339565b5061277e6323b872dd611c41565b9361278860405190565b9788956020870190815201612727565b60208201810382520383610897565b612885565b906127b9610960836108f8565b918252565b6127c860206127ac565b7f5361666545524332303a206c6f772d6c6576656c2063616c6c206661696c6564602082015290565b6103be6127be565b1561280057565b6040517f08c379a000000000000000000000000000000000000000000000000000000000815260206004820152602a60248201527f5361666545524332303a204552433230206f7065726174696f6e20646964206e60448201527f6f742073756363656564000000000000000000000000000000000000000000006064820152608490fd5b906128926128a192611339565b9061289b6127f1565b916128d5565b80516128b0611fac600061060d565b116128b85750565b8051610398916128d09160209081830101910161134f565b6127f9565b6103be92916128e4600061060d565b91612995565b156128f157565b6040517f08c379a000000000000000000000000000000000000000000000000000000000815260206004820152602660248201527f416464726573733a20696e73756666696369656e742062616c616e636520666f60448201527f722063616c6c00000000000000000000000000000000000000000000000000006064820152608490fd5b3d15612990576129853d6127ac565b903d6000602084013e565b606090565b9060006103be949381926129a7606090565b506129be6129b430611339565b83903110156128ea565b60208101905191855af16129d0612976565b91612a3c565b156129dd57565b6040517f08c379a000000000000000000000000000000000000000000000000000000000815260206004820152601d60248201527f416464726573733a2063616c6c20746f206e6f6e2d636f6e74726163740000006044820152606490fd5b919260609115612a725750508151612a57611fac600061060d565b14612a60575090565b6103be90612a6d90612a7f565b6129d6565b9093926103989250612aa2565b3b612a8d611fac600061060d565b1190565b60208082526103be92910190611ecc565b9150612aac825190565b612ab9611fac600061060d565b1115612ac85750805190602001fd5b6040517f08c379a00000000000000000000000000000000000000000000000000000000081529081906112af9060048301612a91565b906103be9291612b116124af6000611303565b906124d19291612b1f6126ec565b9291906000612b2d8161060d565b8211612b3e57505050610398611951565b602092945061255f81612b5461141f6007611303565b3390612b6586309261252184611339565b61255383612b7961141f61141f6002611303565b9250637acb7757833b1561158c5760405161152e565b6103be91906000612afe565b906103be9291612bae6124af6000611303565b906124d19291612bbc6126ec565b9291906000612bca8161060d565b8211612bdb57505050610398611951565b6020929450612c0182612bf161141f6002611303565b33612bfb30611339565b91612758565b6125a261258361141f61141f6001611303565b6103be91906000612b9b565b9061039891612c326124af6000611303565b90612c4491612c3f6126ec565b612c4c565b61039861271f565b90600091612c598361060d565b8211612c6a57505050610398611951565b8290612c7d83612bf161141f6002611303565b612c8d61141f61141f6001611303565b6125a28363b85efd06833b15612cea575b612caa6115d260405190565b03925af18015612cdd575b612cc0575b806124ef565b81612cd692903d10611578576115698183610897565b3880612cba565b612ce561136c565b612cb5565b612cf2600080fd5b612c9e565b9061039891612c20565b9061039891612d136124af6000611303565b90612c4491612d206126ec565b90600091612d2d8361060d565b8211612d3e57505050610398611951565b8290612d8282612d5161141f6006611303565b3390612d6287309261252184611339565b612d768361253d61141f61141f6002611303565b83528b60048401611c14565b03925af18015612dbf575b612da3575b50612c8d61141f61141f6001611303565b612db990833d8511611578576115698183610897565b38612d92565b612dc761136c565b612d8d565b9061039891612d01565b9061039891612de86124af6000611303565b90612c4491612df56126ec565b90600091612e028361060d565b8211612e1357505050610398611951565b8290612d8282612e2661141f6007611303565b3390612e3787309261252184611339565b612d7683612b7961141f61141f6002611303565b9061039891612dd6565b9061039891612e676124af6000611303565b90612c4491612e746126ec565b600090612e8761141f61141f6001611303565b6125a28363d2fbdc0d833b15612edf575b612ea46115d260405190565b03925af18015612ed2575b612ebc5750610398611951565b612ecc9060006115698183610897565b38611466565b612eda61136c565b612eaf565b612ee7600080fd5b612e98565b9061039891612e55565b61039890612f076124af6000611303565b612c4490612f136126ec565b6020612f2561141f61141f6001611303565b9163e44b9fa592611d4b60003395612f3f6115d260405190565b03925af18015612f73575b612f575750610398611951565b612f6e9060203d8111611657576116498183610897565b611466565b612f7b61136c565b612f4a565b61039890612ef6565b61039890612f9a6124af6000611303565b612c4490612fa66126ec565b6130e56000612fbb61141f61141f6001611303565b92602063e44b9fa5913095611d4b612fd288611339565b958695612fe16115d260405190565b03925af180156131f1575b6131d5575b5061300261141f61141f6002611303565b906130856000633969dfb49361301e61141f61141f6002611303565b906370a0823195602061303060405190565b809461303c8a60e01b90565b825273ffffffffffffffffffffffffffffffffffffffff8916600483015260249082905afa9283156131c8575b84936131a2575b508361223b91833b1561158c5760405161152e565b03925af18015613195575b61317f575b5060206130a861141f61141f6006611303565b9163a9059cbb956114ad6130bc6000611303565b956130cd61141f61141f6006611303565b92506130d860405190565b9788948593849360e01b90565b03915afa928315613172575b60009361314b575b506115df60006020949561310f6115d260405190565b03925af1801561313e575b6131275750610398611951565b612f6e9060203d8111611692576116848183610897565b61314661136c565b61311a565b60209350600061316a6115df92863d8111611657576116498183610897565b9450506130f9565b61317a61136c565b6130f1565b61318f9060006115698183610897565b38613095565b61319d61136c565b613090565b61223b9193506131c0859160203d8111611657576116498183610897565b939150613070565b6131d061136c565b613069565b6131ec9060203d8111611657576116498183610897565b612ff1565b6131f961136c565b612fec565b61039890612f89565b90610398929161321a6124af6000611303565b613253565b73ffffffffffffffffffffffffffffffffffffffff90911681526060810193926103989290916040916105a1906020830152565b6000919261328e8361326b61141f61141f6001611303565b92611a8f63a10d3b3391853b15613299575b6040515b9889978896879560e01b90565b85526004850161321f565b6132a1600080fd5b61327d565b906103989291613207565b9061039892916132c46124af6000611303565b6000919261328e836132dc61141f61141f6001611303565b92611a8f63733ff19491853b1561329957604051613281565b9061039892916132b1565b90610398916133126124af6000611303565b60009061332561141f61141f6001611303565b6115df8363b61aa08c833b15611abe57611a8f6115d260405190565b9061039891613300565b906103989161335d6124af6000611303565b60009061337061141f61141f6001611303565b61338c8363a22cb465833b15611abe57611a8f6115d260405190565b845273ffffffffffffffffffffffffffffffffffffffff166004840152151560248301526044820190565b906103989161334b565b906107f995949392916133d76124af6000611303565b906133ed95949392916133e86126ec565b613466565b909161039861271f565b91906103be9060408482031261341b575b6134128185611379565b93602001611379565b613423600080fd5b613408565b6105a161039894611f2860609498979561345f608086019a600087019073ffffffffffffffffffffffffffffffffffffffff169052565b6020850152565b6040946134a792600092989794959850506134b261348a61141f61141f6001611303565b94633c62c44f9261349a60405190565b9a8b988997889660e01b90565b865260048601613428565b03925af180156134f6575b60009283916134cb57509190565b90506107f991925060403d81116134ef575b6134e78183610897565b8101906133f7565b503d6134dd565b6134fe61136c565b6134bd565b6107f9939291906000806133c1565b73ffffffffffffffffffffffffffffffffffffffff909116815260408101929161039891602090611c25565b9092919261354e610960826116df565b938185526020808601920283019281841161358c575b915b8383106135735750505050565b602080916135818486611bea565b815201920191613566565b613594600080fd5b613564565b906103be9181601f820112156135b5575b60208151910161353e565b6135bd600080fd5b6135aa565b906103be916020818303126135f8575b80519067ffffffffffffffff82116135eb575b01613599565b6135f3600080fd5b6135e5565b613600600080fd5b6135d2565b61379b61377c61361b61141f61141f6002611303565b306136496000636b09169561362f84611339565b9461363d8361152181611303565b83528a60048401613512565b03925af18015613870575b61385a575b5061372d73d533a949740bb3306d119cc777fa900ba034cd52602061367d82611339565b9461368786611339565b926370a08231938361369860405190565b80926136a48860e01b90565b825273ffffffffffffffffffffffffffffffffffffffff8616600483015260249082905afa90811561384d575b600091613830575b506000976136e68961060d565b821161381a575b50505061370b734e3fbd56cd56c3e72c1403e103b45db9da5b9d2b90565b946114ad61371887611339565b9461372286611339565b9250611a2260405190565b03915afa91821561380d575b6000926137ed575b5061374b8461060d565b82116137d1575b50505061375d613914565b61376d61141f61141f6001611303565b6312edb24c9061143360405190565b825260049082905afa9081156137c4575b6000916137a3575b50613ef4565b610398613c0c565b6137be913d8091833e6137b68183610897565b8101906135c2565b38613795565b6137cc61136c565b61378d565b6137e592506137df84611303565b9061387d565b388080613752565b61380691925060203d8111611657576116498183610897565b9038613741565b61381561136c565b613739565b61382892506137df89611303565b3880806136ed565b6138479150843d8111611657576116498183610897565b386136d9565b61385561136c565b6136d1565b61386a9060006115698183610897565b38613659565b61387861136c565b613654565b6127a76004926127986103989561389385611339565b506138a163a9059cbb611c41565b926138ab60405190565b96879460208601908152016113a3565b8181029291811591840414171561194957565b507f4e487b7100000000000000000000000000000000000000000000000000000000600052601260045260246000fd5b8115613908570490565b6139106138ce565b0490565b602073c9acb83ada68413a6aa57007bc720ee2e2b3c46d61393481611339565b61393d81611339565b6313114a9d61395561394e60405190565b9160e01b90565b81528481600481855afa908115613bff575b600091613be2575b50846114ad733432b6a60d23ca0dfca7761b7ab56459d9c964d09561399387611339565b9361399d85611339565b956370a08231926139f06139e230946139c86139b887611339565b9e8f8d6114ad8b6114a060405190565b03915afa908115613bd5575b600091613bb8575b506138bb565b6139ea611104565b906138fe565b6000996139fc8b61060d565b8211613adf575b5050505050613a1f613a1460405190565b988993849360e01b90565b0381855afa948515613ad2575b600095613ab2575b50613a3e8361060d565b8511613a4c575b5050505050565b60209350506115df63a9059cbb92613a6381611303565b93613a706115d260405190565b03925af18015613aa5575b613a89575b80808080613a45565b613aa09060203d8111611692576116848183610897565b613a80565b613aad61136c565b613a7b565b613acb91955060203d8111611657576116498183610897565b9338613a34565b613ada61136c565b613a2c565b613b0a93889163a9059cbb94505063998cbb43906114ad613b006004611303565b926130d860405190565b03915afa928315613bab575b600093613b80575b508691613b3e826115df9350613b3360405190565b958694859460e01b90565b03818b8b5af18015613b73575b613b58575b808080613a03565b613b6e90853d8111611692576116848183610897565b613b50565b613b7b61136c565b613b4b565b6115df91935091613b3e613ba18994853d8111611df257611de48183610897565b9492505091613b1e565b613bb361136c565b613b16565b613bcf91508a3d8111611657576116498183610897565b386139dc565b613bdd61136c565b6139d4565b613bf99150853d8111611657576116498183610897565b3861396f565b613c0761136c565b613967565b613c21602061142461141f61141f6003611303565b825260049082905afa908115613e59575b600091613e3b575b50613c4157565b613c6f613c5461141f61141f6003611303565b3060206370a08231613c6583611339565b93611d1060405190565b825273ffffffffffffffffffffffffffffffffffffffff8516600483015260249082905afa928315613e2e575b600093613e06575b50613cd0916020916114ad613cbf61141f61141f6001611303565b9163d9f96e8d90506114a060405190565b03915afa908115613df9575b600091613ddb575b50600091613cf4611fac8461060d565b1480613dca575b613d4b575b50613d158161150e61141f61141f6003611303565b03925af18015613d3e575b613d28575050565b8161039892903d10611578576115698183610897565b613d4661136c565b613d20565b81613d5c61141f61141f6003611303565b6347e7ef24906115df83613d6f81611303565b93833b15613dbd575b613d846115d260405190565b03925af18015613db0575b15613d0057613daa90823d8411611578576115698183610897565b38613d00565b613db861136c565b613d8f565b613dc5600080fd5b613d78565b50613dd48261060d565b8111613cfb565b613df3915060203d8111611657576116498183610897565b38613ce4565b613e0161136c565b613cdc565b602091935091613e25613cd093833d8111611657576116498183610897565b93915091613ca4565b613e3661136c565b613c9c565b613e53915060203d8111611692576116848183610897565b38613c3a565b613e6161136c565b613c32565b6001907fffffffffffffffffffffffffffffffffffffffffffffffffffffffffffffffff8114613e94570190565b61093561190c565b507f4e487b7100000000000000000000000000000000000000000000000000000000600052603260045260246000fd5b9060208091613ed9845190565b811015613ee7575b02010190565b613eef613e9c565b613ee1565b6000613eff8161060d565b925b613f0c6103be845190565b841015613ffe57613f3a613f208585613ecc565b5173ffffffffffffffffffffffffffffffffffffffff1690565b613f57733432b6a60d23ca0dfca7761b7ab56459d9c964d06112d5565b03613f6d575b613f6684613e66565b9350613f01565b613f85602061148461141f61141f613f208989613ecc565b03915afa908115613ff1575b600091613fd3575b50613fa38361060d565b8111613fb0575b50613f5d565b613fcd90613fc461141f613f208888613ecc565b6137df85611303565b38613faa565b613feb915060203d8111611657576116498183610897565b38613f99565b613ff961136c565b613f91565b92505050565b919091604081840312614040575b61403a61401f60406108e4565b93600061402c8285611bea565b908601526020809301611379565b90830152565b614048600080fd5b614012565b9092919261405d610960826116df565b93818552604060208601920283019281841161409d575b915b8383106140835750505050565b60206040916140928486614004565b815201920191614076565b6140a5600080fd5b614074565b906103be9181601f820112156140c6575b60208151910161404d565b6140ce600080fd5b6140bb565b906103be91602081830312614109575b80519067ffffffffffffffff82116140fc575b016140aa565b614104600080fd5b6140f6565b614111600080fd5b6140e3565b9190820180921161194957565b906127b9610960836116df565b369037565b9061039861414b61414584614123565b936116df565b7fffffffffffffffffffffffffffffffffffffffffffffffffffffffffffffffe00160208401614130565b90929192614186610960826116df565b9381855260406020860192028301928184116141c6575b915b8383106141ac5750505050565b60206040916141bb8486614004565b81520192019161419f565b6141ce600080fd5b61419d565b906103be9181601f820112156141ef575b602081519101614176565b6141f7600080fd5b6141e4565b906103be91602081830312614232575b80519067ffffffffffffffff8211614225575b016141d3565b61422d600080fd5b61421f565b61423a600080fd5b61420c565b61426490600061425561141f61141f6001611303565b6312edb24c906119b960405190565b825260049082905afa918215614734575b600092614715575b506143119061429261141f61141f6001611303565b3093906142b16000628cc2626142a788611339565b9361143360405190565b825273ffffffffffffffffffffffffffffffffffffffff8516600483015260249082905afa908115614708575b6000916146ef575b5060006142f961141f61141f6002611303565b63b277e8f09061430860405190565b97889260e01b90565b825273ffffffffffffffffffffffffffffffffffffffff8516600483015260249082905afa9485156146e2575b6000956146bf575b5061436b602061435c61141f61141f6003611303565b63857cb94a9061143360405190565b825260049082905afa9081156146b2575b600091614694575b506143aa6143a561439c83614397885190565b614116565b88515b90614116565b614135565b9081966143c66143a56143bf846143978a5190565b835161439f565b9687926000926143d58461060d565b9a5b6143e26103be8b5190565b8c10156144c0578b6144828c8f6144326144658f8f8f908f956114ad611a1161141f61141f613f208e61445f61445b8261447f9f9b816144558f9e60209f614432613f20858361443a9450613ecc565b938492613ecc565b9073ffffffffffffffffffffffffffffffffffffffff169052565b50613ecc565b5190565b99613ecc565b03915afa9182156144b3575b600092614493575b50614116565b52565b5061448c8c613e66565b9b506143d7565b6144ac91925060203d8111611657576116498183610897565b9038614479565b6144bb61136c565b614471565b92959790939650614502989a508691949b6114ad6144e461141f61141f6003611303565b9163dc01f60d90506144f560405190565b9b8c948593849360e01b90565b03915afa968715614687575b600097614664575b506145208561060d565b995b61452d6103be895190565b8b10156145c257896145b18a61447f6145ab8f61439f6145a38f8f8f826145916144558d61443a61459d9661459761458a8d9860209b5061456e8a8a613ecc565b51015173ffffffffffffffffffffffffffffffffffffffff1690565b9586945190565b88614116565b90613ecc565b51015190565b968795505190565b8d613ecc565b506145bb8b613e66565b9a50614522565b9195949399509195506145d48361060d565b985b6145e16103be875190565b8a101561465857886146478961447f6146418b8f8061439f6146398f8f8f95826146336144558f61443a61459d966145978e6143976143979f61462c9060209d5061456e8c8c613ecc565b9788965190565b8a614116565b988997505190565b8c613ecc565b506146518a613e66565b99506145d6565b96509650965050505050565b61468091973d8091833e6146788183610897565b8101906141fc565b9538614516565b61468f61136c565b61450e565b6146ac915060203d8111611657576116498183610897565b38614384565b6146ba61136c565b61437c565b6146db91953d8091833e6146d38183610897565b8101906140d3565b9338614346565b6146ea61136c565b61433e565b614702913d8091833e6118278183610897565b386142e6565b61471061136c565b6142de565b61472d9061431192933d8091833e6137b68183610897565b919061427d565b61473c61136c565b614275565b61039860015b61476c575b614754613914565b61379b61377c600061376d61141f61141f6001611303565b61477c61141f61141f6001611303565b6148e13061479d600063c00007b061479384611339565b9561143360405190565b825273ffffffffffffffffffffffffffffffffffffffff87166004830152602490829084905af19081156149cf575b6000916149b6575b505061480a60006147eb61141f61141f6002611303565b636b091695906147fe8361152181611303565b83528b60048401613512565b03925af180156149a9575b614993575b5073d533a949740bb3306d119cc777fa900ba034cd5290602061483c83611339565b9461484686611339565b936370a08231948361485760405190565b80926148638960e01b90565b825273ffffffffffffffffffffffffffffffffffffffff8616600483015260249082905afa908115614986575b600091614969575b506000976148a58961060d565b8211614953575b5050506148ca734e3fbd56cd56c3e72c1403e103b45db9da5b9d2b90565b926114ad6148d785611339565b956130cd87611339565b03915afa928315614946575b600093614926575b506148ff8461060d565b831161490f575b5050505061474c565b61491d936137df9150611303565b38808080614906565b61493f91935060203d8111611657576116498183610897565b91386148f5565b61494e61136c565b6148ed565b61496192506137df89611303565b3880806148ac565b6149809150843d8111611657576116498183610897565b38614898565b61498e61136c565b614890565b6149a39060006115698183610897565b3861481a565b6149b161136c565b614815565b6149c9913d8091833e6118278183610897565b386147d4565b6149d761136c565b6147cc565b909291926149ec610960826116df565b9381855260208086019202830192818411614a2a575b915b838310614a115750505050565b60208091614a1f8486610537565b815201920191614a04565b614a32600080fd5b614a02565b6103be9136916149dc565b91614a5d9161379b93614a62575b614a58613914565b614a37565b613ef4565b614a7261141f61141f6001611303565b600063c00007b091614a898230946142a786611339565b825273ffffffffffffffffffffffffffffffffffffffff85166004830152602490829084905af1908115614b64575b8391614b4b575b5050614ad161141f61141f6002611303565b636b0916959350614afa83614ae581611303565b95833b15614b3e575b614b056115d260405190565b845260048401613512565b03925af18015614b31575b614b1b575b50614a50565b614b2b9060006115698183610897565b38614b15565b614b3961136c565b614b10565b614b46600080fd5b614aee565b614b5e913d8091833e6118278183610897565b38614abf565b614b6c61136c565b614ab856fea26469706673582212205f67afaf93dd1f979e2dcfcd26e34b9cf3ae02110edccba8c535c6beb5d0f65c64736f6c63430008110033",
    "linkReferences": {}
  },
  "methodIdentifiers": {
    "FEE_DENOMINATOR()": "d73792a9",
    "beforeLockTransfer(address,address,bytes32,bytes)": "4fb07105",
    "changeRewards(address)": "e869565e",
    "checkpointRewards()": "2a554842",
    "claimOnTransfer()": "9ecc33e9",
    "convexCurveBooster()": "9ce0ff9d",
    "convexDepositToken()": "5eb143ce",
    "crv()": "6a4874a1",
    "curveLpToken()": "646780df",
    "cvx()": "923c1d61",
    "earned()": "d6f19262",
    "feeRegistry()": "b3a408b8",
    "fxs()": "7d423446",
    "getReward()": "3d18b912",
    "getReward(bool)": "a4698feb",
    "getReward(bool,address[])": "4f5aefcf",
    "increaseAllowance(address,bytes32,uint256)": "733ff194",
    "initialize(address,address,address,address)": "f8c8765e",
    "lockAdditional(bytes32,uint256)": "b85efd06",
    "lockAdditionalConvexToken(bytes32,uint256)": "cc641751",
    "lockAdditionalCurveLp(bytes32,uint256)": "0687c4bd",
    "lockLonger(bytes32,uint256)": "d2fbdc0d",
    "onLockReceived(address,address,bytes32,bytes)": "c42d8b95",
    "owner()": "8da5cb5b",
    "poolId()": "3e0dc34e",
    "poolRegistry()": "afcff50f",
    "removeAllowance(address,bytes32)": "b61aa08c",
    "rewards()": "9ec5a894",
    "setAllowance(address,bytes32,uint256)": "a10d3b33",
    "setApprovalForAll(address,bool)": "a22cb465",
    "setVeFXSProxy(address)": "641a6cd0",
    "stakeLocked(uint256,uint256)": "17b18c89",
    "stakeLockedConvexToken(uint256,uint256)": "2439242a",
    "stakeLockedCurveLp(uint256,uint256)": "a41ce7e9",
    "stakingAddress()": "d7b4be24",
    "stakingToken()": "72f702f3",
    "transferLocked(address,bytes32,uint256,bytes32)": "3c62c44f",
    "usingProxy()": "d7c04a46",
    "vaultType()": "4ac032be",
    "vaultVersion()": "4e7adf2c",
    "vefxsProxy()": "193ba6d1",
    "withdrawLocked(bytes32)": "51e3fc17",
    "withdrawLockedAndUnwrap(bytes32)": "4ab794a3"
  },
  "id": 77
}