{
  "abi": [
    {
      "inputs": [],
      "stateMutability": "nonpayable",
      "type": "constructor"
    },
    {
      "inputs": [],
      "name": "ConfirmationFailed",
      "type": "error"
    },
    {
      "inputs": [],
      "name": "NonVaultReceiver",
      "type": "error"
    },
    {
      "inputs": [],
      "name": "FEE_DENOMINATOR",
      "outputs": [
        {
          "internalType": "uint256",
          "name": "",
          "type": "uint256"
        }
      ],
      "stateMutability": "view",
      "type": "function"
    },
    {
      "inputs": [
        {
          "internalType": "address",
          "name": "from",
          "type": "address"
        },
        {
          "internalType": "address",
          "name": "to",
          "type": "address"
        },
        {
          "internalType": "uint256",
          "name": "lockId",
          "type": "uint256"
        },
        {
          "internalType": "bytes",
          "name": "data",
          "type": "bytes"
        }
      ],
      "name": "beforeLockTransfer",
      "outputs": [
        {
          "internalType": "bytes4",
          "name": "",
          "type": "bytes4"
        }
      ],
      "stateMutability": "nonpayable",
      "type": "function"
    },
    {
      "inputs": [
        {
          "internalType": "address",
          "name": "_rewardsAddress",
          "type": "address"
        }
      ],
      "name": "changeRewards",
      "outputs": [],
      "stateMutability": "nonpayable",
      "type": "function"
    },
    {
      "inputs": [],
      "name": "checkpointRewards",
      "outputs": [],
      "stateMutability": "nonpayable",
      "type": "function"
    },
    {
      "inputs": [],
      "name": "claimOnTransfer",
      "outputs": [],
      "stateMutability": "nonpayable",
      "type": "function"
    },
    {
      "inputs": [],
      "name": "convexCurveBooster",
      "outputs": [
        {
          "internalType": "address",
          "name": "",
          "type": "address"
        }
      ],
      "stateMutability": "view",
      "type": "function"
    },
    {
      "inputs": [],
      "name": "convexDepositToken",
      "outputs": [
        {
          "internalType": "address",
          "name": "",
          "type": "address"
        }
      ],
      "stateMutability": "view",
      "type": "function"
    },
    {
      "inputs": [],
      "name": "crv",
      "outputs": [
        {
          "internalType": "address",
          "name": "",
          "type": "address"
        }
      ],
      "stateMutability": "view",
      "type": "function"
    },
    {
      "inputs": [],
      "name": "curveLpToken",
      "outputs": [
        {
          "internalType": "address",
          "name": "",
          "type": "address"
        }
      ],
      "stateMutability": "view",
      "type": "function"
    },
    {
      "inputs": [],
      "name": "cvx",
      "outputs": [
        {
          "internalType": "address",
          "name": "",
          "type": "address"
        }
      ],
      "stateMutability": "view",
      "type": "function"
    },
    {
      "inputs": [],
      "name": "earned",
      "outputs": [
        {
          "internalType": "address[]",
          "name": "token_addresses",
          "type": "address[]"
        },
        {
          "internalType": "uint256[]",
          "name": "total_earned",
          "type": "uint256[]"
        }
      ],
      "stateMutability": "view",
      "type": "function"
    },
    {
      "inputs": [],
      "name": "feeRegistry",
      "outputs": [
        {
          "internalType": "address",
          "name": "",
          "type": "address"
        }
      ],
      "stateMutability": "view",
      "type": "function"
    },
    {
      "inputs": [],
      "name": "fxs",
      "outputs": [
        {
          "internalType": "address",
          "name": "",
          "type": "address"
        }
      ],
      "stateMutability": "view",
      "type": "function"
    },
    {
      "inputs": [],
      "name": "getReward",
      "outputs": [],
      "stateMutability": "nonpayable",
      "type": "function"
    },
    {
      "inputs": [
        {
          "internalType": "bool",
          "name": "_claim",
          "type": "bool"
        },
        {
          "internalType": "address[]",
          "name": "_rewardTokenList",
          "type": "address[]"
        }
      ],
      "name": "getReward",
      "outputs": [],
      "stateMutability": "nonpayable",
      "type": "function"
    },
    {
      "inputs": [
        {
          "internalType": "bool",
          "name": "_claim",
          "type": "bool"
        }
      ],
      "name": "getReward",
      "outputs": [],
      "stateMutability": "nonpayable",
      "type": "function"
    },
    {
      "inputs": [
        {
          "internalType": "address",
          "name": "spender",
          "type": "address"
        },
        {
          "internalType": "uint256",
          "name": "_lockId",
          "type": "uint256"
        },
        {
          "internalType": "uint256",
          "name": "amount",
          "type": "uint256"
        }
      ],
      "name": "increaseAllowance",
      "outputs": [],
      "stateMutability": "nonpayable",
      "type": "function"
    },
    {
      "inputs": [
        {
          "internalType": "address",
          "name": "_owner",
          "type": "address"
        },
        {
          "internalType": "address",
          "name": "_stakingAddress",
          "type": "address"
        },
        {
          "internalType": "address",
          "name": "_stakingToken",
          "type": "address"
        },
        {
          "internalType": "address",
          "name": "_rewardsAddress",
          "type": "address"
        }
      ],
      "name": "initialize",
      "outputs": [],
      "stateMutability": "nonpayable",
      "type": "function"
    },
    {
      "inputs": [
        {
          "internalType": "uint256",
          "name": "_lockId",
          "type": "uint256"
        },
        {
          "internalType": "uint256",
          "name": "_addl_liq",
          "type": "uint256"
        }
      ],
      "name": "lockAdditional",
      "outputs": [],
      "stateMutability": "nonpayable",
      "type": "function"
    },
    {
      "inputs": [
        {
          "internalType": "uint256",
          "name": "_lockId",
          "type": "uint256"
        },
        {
          "internalType": "uint256",
          "name": "_addl_liq",
          "type": "uint256"
        }
      ],
      "name": "lockAdditionalConvexToken",
      "outputs": [],
      "stateMutability": "nonpayable",
      "type": "function"
    },
    {
      "inputs": [
        {
          "internalType": "uint256",
          "name": "_lockId",
          "type": "uint256"
        },
        {
          "internalType": "uint256",
          "name": "_addl_liq",
          "type": "uint256"
        }
      ],
      "name": "lockAdditionalCurveLp",
      "outputs": [],
      "stateMutability": "nonpayable",
      "type": "function"
    },
    {
      "inputs": [
        {
          "internalType": "uint256",
          "name": "_lockId",
          "type": "uint256"
        },
        {
          "internalType": "uint256",
          "name": "new_ending_ts",
          "type": "uint256"
        }
      ],
      "name": "lockLonger",
      "outputs": [],
      "stateMutability": "nonpayable",
      "type": "function"
    },
    {
      "inputs": [
        {
          "internalType": "address",
          "name": "from",
          "type": "address"
        },
        {
          "internalType": "address",
          "name": "to",
          "type": "address"
        },
        {
          "internalType": "uint256",
          "name": "lockId",
          "type": "uint256"
        },
        {
          "internalType": "bytes",
          "name": "data",
          "type": "bytes"
        }
      ],
      "name": "onLockReceived",
      "outputs": [
        {
          "internalType": "bytes4",
          "name": "",
          "type": "bytes4"
        }
      ],
      "stateMutability": "nonpayable",
      "type": "function"
    },
    {
      "inputs": [],
      "name": "owner",
      "outputs": [
        {
          "internalType": "address",
          "name": "",
          "type": "address"
        }
      ],
      "stateMutability": "view",
      "type": "function"
    },
    {
      "inputs": [],
      "name": "poolId",
      "outputs": [
        {
          "internalType": "uint256",
          "name": "",
          "type": "uint256"
        }
      ],
      "stateMutability": "view",
      "type": "function"
    },
    {
      "inputs": [],
      "name": "poolRegistry",
      "outputs": [
        {
          "internalType": "address",
          "name": "",
          "type": "address"
        }
      ],
      "stateMutability": "view",
      "type": "function"
    },
    {
      "inputs": [
        {
          "internalType": "address",
          "name": "spender",
          "type": "address"
        },
        {
          "internalType": "uint256",
          "name": "_lockId",
          "type": "uint256"
        }
      ],
      "name": "removeAllowance",
      "outputs": [],
      "stateMutability": "nonpayable",
      "type": "function"
    },
    {
      "inputs": [],
      "name": "rewards",
      "outputs": [
        {
          "internalType": "address",
          "name": "",
          "type": "address"
        }
      ],
      "stateMutability": "view",
      "type": "function"
    },
    {
      "inputs": [
        {
          "internalType": "address",
          "name": "spender",
          "type": "address"
        },
        {
          "internalType": "uint256",
          "name": "_lockId",
          "type": "uint256"
        },
        {
          "internalType": "uint256",
          "name": "amount",
          "type": "uint256"
        }
      ],
      "name": "setAllowance",
      "outputs": [],
      "stateMutability": "nonpayable",
      "type": "function"
    },
    {
      "inputs": [
        {
          "internalType": "address",
          "name": "spender",
          "type": "address"
        },
        {
          "internalType": "bool",
          "name": "approved",
          "type": "bool"
        }
      ],
      "name": "setApprovalForAll",
      "outputs": [],
      "stateMutability": "nonpayable",
      "type": "function"
    },
    {
      "inputs": [
        {
          "internalType": "address",
          "name": "_proxy",
          "type": "address"
        }
      ],
      "name": "setVeFXSProxy",
      "outputs": [],
      "stateMutability": "nonpayable",
      "type": "function"
    },
    {
      "inputs": [
        {
          "internalType": "uint256",
          "name": "_liquidity",
          "type": "uint256"
        },
        {
          "internalType": "uint256",
          "name": "_secs",
          "type": "uint256"
        }
      ],
      "name": "stakeLocked",
      "outputs": [
        {
          "internalType": "uint256",
          "name": "lockId",
          "type": "uint256"
        }
      ],
      "stateMutability": "nonpayable",
      "type": "function"
    },
    {
      "inputs": [
        {
          "internalType": "uint256",
          "name": "_liquidity",
          "type": "uint256"
        },
        {
          "internalType": "uint256",
          "name": "_secs",
          "type": "uint256"
        }
      ],
      "name": "stakeLockedConvexToken",
      "outputs": [
        {
          "internalType": "uint256",
          "name": "lockId",
          "type": "uint256"
        }
      ],
      "stateMutability": "nonpayable",
      "type": "function"
    },
    {
      "inputs": [
        {
          "internalType": "uint256",
          "name": "_liquidity",
          "type": "uint256"
        },
        {
          "internalType": "uint256",
          "name": "_secs",
          "type": "uint256"
        }
      ],
      "name": "stakeLockedCurveLp",
      "outputs": [
        {
          "internalType": "uint256",
          "name": "lockId",
          "type": "uint256"
        }
      ],
      "stateMutability": "nonpayable",
      "type": "function"
    },
    {
      "inputs": [],
      "name": "stakingAddress",
      "outputs": [
        {
          "internalType": "address",
          "name": "",
          "type": "address"
        }
      ],
      "stateMutability": "view",
      "type": "function"
    },
    {
      "inputs": [],
      "name": "stakingToken",
      "outputs": [
        {
          "internalType": "address",
          "name": "",
          "type": "address"
        }
      ],
      "stateMutability": "view",
      "type": "function"
    },
    {
      "inputs": [
        {
          "internalType": "address",
          "name": "receiver_address",
          "type": "address"
        },
        {
          "internalType": "uint256",
          "name": "sender_lock_index",
          "type": "uint256"
        },
        {
          "internalType": "uint256",
          "name": "transfer_amount",
          "type": "uint256"
        },
        {
          "internalType": "bool",
          "name": "use_receiver_lock_index",
          "type": "bool"
        },
        {
          "internalType": "uint256",
          "name": "receiver_lock_index",
          "type": "uint256"
        }
      ],
      "name": "transferLocked",
      "outputs": [
        {
          "internalType": "uint256",
          "name": "",
          "type": "uint256"
        },
        {
          "internalType": "uint256",
          "name": "",
          "type": "uint256"
        }
      ],
      "stateMutability": "nonpayable",
      "type": "function"
    },
    {
      "inputs": [],
      "name": "usingProxy",
      "outputs": [
        {
          "internalType": "address",
          "name": "",
          "type": "address"
        }
      ],
      "stateMutability": "view",
      "type": "function"
    },
    {
      "inputs": [],
      "name": "vaultType",
      "outputs": [
        {
          "internalType": "enum IVaultType.VaultType",
          "name": "",
          "type": "uint8"
        }
      ],
      "stateMutability": "pure",
      "type": "function"
    },
    {
      "inputs": [],
      "name": "vaultVersion",
      "outputs": [
        {
          "internalType": "uint256",
          "name": "",
          "type": "uint256"
        }
      ],
      "stateMutability": "pure",
      "type": "function"
    },
    {
      "inputs": [],
      "name": "vefxsProxy",
      "outputs": [
        {
          "internalType": "address",
          "name": "",
          "type": "address"
        }
      ],
      "stateMutability": "view",
      "type": "function"
    },
    {
      "inputs": [
        {
          "internalType": "uint256",
          "name": "_lockId",
          "type": "uint256"
        }
      ],
      "name": "withdrawLocked",
      "outputs": [],
      "stateMutability": "nonpayable",
      "type": "function"
    },
    {
      "inputs": [
        {
          "internalType": "uint256",
          "name": "_lockId",
          "type": "uint256"
        }
      ],
      "name": "withdrawLockedAndUnwrap",
      "outputs": [],
      "stateMutability": "nonpayable",
      "type": "function"
    }
  ],
  "bytecode": {
    "object": "0x60806040523462000027575b6200001562000036565b60405161517b62000094823961517b90f35b62000030600080fd5b6200000b565b6200004062000079565b565b6200005262000052620000529290565b90565b62000052600162000042565b906200005262000052620000759262000042565b9055565b6200008362000055565b6200009081600562000061565b5056fe60806040526004361015610018575b610016600080fd5b005b60003560e01c806304acbb99146103745780630ba091fc1461036b57806317b18c8914610362578063193ba6d1146103595780632439242a146103505780632a55484214610347578063328a4d711461033e57806332d342b714610335578063336d15231461032c5780633d18b912146103235780633e0dc34e1461031a5780634ac032be146103115780634e7adf2c146103085780634f5aefcf146102ff57806357a2a8b7146102f65780635eb143ce146102ed578063641a6cd0146102e4578063646780df146102db5780636a4874a1146102d257806372f702f3146102c957806378aae1cb146102c05780637d423446146102b7578063806465e9146102ae5780638170820c146102a55780638da5cb5b1461029c578063923c1d61146102935780639ce0ff9d1461028a5780639ec5a894146102815780639ecc33e914610278578063a22cb4651461026f578063a41ce7e914610266578063a4698feb1461025d578063afcff50f14610254578063b3a408b81461024b578063d6f1926214610242578063d73792a914610239578063d7b4be2414610230578063d7c04a4614610227578063d9d80e3d1461021e578063e869565e14610215578063f1053bfb1461020c578063f8c8765e146102035763ff61011a0361000e576101fe611231565b61000e565b506101fe611206565b506101fe61118e565b506101fe611167565b506101fe61113f565b506101fe611115565b506101fe6110df565b506101fe6110a9565b506101fe611059565b506101fe610f4e565b506101fe610f12565b506101fe610eeb565b506101fe610ea3565b506101fe610e7b565b506101fe610e23565b506101fe610df9565b506101fe610db1565b506101fe610d75565b506101fe610d4b565b506101fe610d18565b506101fe610cc8565b506101fe610c8c565b506101fe610c4b565b506101fe610bb0565b506101fe610b68565b506101fe610b3e565b506101fe610b0b565b506101fe610ac4565b506101fe610a64565b506101fe610a3c565b506101fe61095b565b506101fe61092d565b506101fe610895565b506101fe61084f565b506101fe6107ee565b506101fe6105ee565b506101fe6105c7565b506101fe610583565b506101fe610558565b506101fe6104f9565b506101fe6104ab565b506101fe61047f565b506101fe61041d565b600080fd5b73ffffffffffffffffffffffffffffffffffffffff1690565b90565b73ffffffffffffffffffffffffffffffffffffffff81165b0361037d57565b905035906103ca8261039e565b565b806103b6565b905035906103ca826103cc565b9091606082840312610410575b61039b6103f984846103bd565b9361040781602086016103d2565b936040016103d2565b610418600080fd5b6103ec565b5034610441575b6104386104323660046103df565b91613862565b604051005b0390f35b610449600080fd5b610424565b919061039b90604084820312610472575b61046981856103d2565b936020016103d2565b61047a600080fd5b61045f565b503461049a575b61043861049436600461044e565b90613407565b6104a2600080fd5b610486565b9052565b50346104d9575b61043d6104c96104c336600461044e565b906131d0565b6040519182918290815260200190565b6104e1600080fd5b6104b2565b60009103126104f157565b6103ca600080fd5b503461054b575b61050b3660046104e6565b61043d7359cfcd384746ec3035299d90782be065e466800b5b6040519182918273ffffffffffffffffffffffffffffffffffffffff909116815260200190565b610553600080fd5b610500565b5034610576575b61043d6104c961057036600461044e565b9061314b565b61057e600080fd5b61055f565b503461059d575b6105953660046104e6565b6104386116e7565b6105a5600080fd5b61058a565b9061039b91602081830312156103d2576105c2600080fd5b6103d2565b50346105e1575b6104386105dc3660046105aa565b6137ba565b6105e9600080fd5b6105ce565b5034610608575b6104386106033660046105aa565b61353c565b610610600080fd5b6105f5565b601f017fffffffffffffffffffffffffffffffffffffffffffffffffffffffffffffffe01690565b507f4e487b7100000000000000000000000000000000000000000000000000000000600052604160045260246000fd5b90601f017fffffffffffffffffffffffffffffffffffffffffffffffffffffffffffffffe016810190811067ffffffffffffffff8211176106ad57604052565b6106b561063d565b604052565b906103ca6106c760405190565b928361066d565b61070b60209167ffffffffffffffff811161070f57601f017fffffffffffffffffffffffffffffffffffffffffffffffffffffffffffffffe01690565b0190565b61061561063d565b90826000939282370152565b9291906103ca9161073b610736836106ce565b6106ba565b948286526020860191838201111561071757610755600080fd5b610717565b9061039b9181601f82011215610776575b602081359101610723565b61077e600080fd5b61076b565b6080818303126107e1575b61079882826103bd565b9261039b6107a984602085016103bd565b936107b781604086016103d2565b9360608101359067ffffffffffffffff82116107d4575b0161075a565b6107dc600080fd5b6107ce565b6107e9600080fd5b61078e565b5034610842575b61043d61080f610806366004610783565b9291909161256e565b604051918291827fffffffff00000000000000000000000000000000000000000000000000000000909116815260200190565b61084a600080fd5b6107f5565b5034610869575b6108613660046104e6565b610438614d15565b610871600080fd5b610856565b61039b61039b61039b9290565b61039b6024610876565b61039b610883565b50346108b2575b6108a73660046104e6565b61043d6104c961088d565b6108ba600080fd5b61089c565b507f4e487b7100000000000000000000000000000000000000000000000000000000600052602160045260246000fd5b600411156108f957565b6103ca6108bf565b906103ca826108ef565b61039b90610901565b6104a79061090b565b6020810192916103ca9190610914565b503461094e575b61093f3660046104e6565b6040518061043d60028261091d565b610956600080fd5b610934565b5034610978575b61096d3660046104e6565b61043d6104c9611b8a565b610980600080fd5b610962565b8015156103b6565b905035906103ca82610985565b909182601f830112156109d9575b602082359267ffffffffffffffff84116109cc575b0192602083028401116104f157565b6109d4600080fd5b6109bd565b6109e1600080fd5b6109a8565b9190610a1e90604084820312610a2f575b610a01818561098d565b9360208101359067ffffffffffffffff8211610a22575b0161099a565b9091565b610a2a600080fd5b610a18565b610a37600080fd5b6109f7565b5034610a57575b610438610a513660046109e6565b91615016565b610a5f600080fd5b610a43565b5034610a7f575b610438610a7936600461044e565b90613388565b610a87600080fd5b610a6b565b61039b916008021c73ffffffffffffffffffffffffffffffffffffffff1690565b9061039b9154610a8c565b61039b60006007610aad565b5034610ae1575b610ad63660046104e6565b61043d610524610ab8565b610ae9600080fd5b610acb565b9061039b91602081830312156103bd57610b06600080fd5b6103bd565b5034610b25575b610438610b20366004610aee565b611879565b610b2d600080fd5b610b12565b61039b60006006610aad565b5034610b5b575b610b503660046104e6565b61043d610524610b32565b610b63600080fd5b610b45565b5034610b97575b610b7a3660046104e6565b61043d73d533a949740bb3306d119cc777fa900ba034cd52610524565b610b9f600080fd5b610b6f565b61039b60006002610aad565b5034610bcd575b610bc23660046104e6565b61043d610524610ba4565b610bd5600080fd5b610bb7565b919060a083820312610c27575b610bf181846103bd565b92610bff82602083016103d2565b9261039b610c1084604085016103d2565b93610c1e816060860161098d565b936080016103d2565b610c2f600080fd5b610be7565b9081526040810192916103ca9160200152565b0152565b5034610c7f575b610c69610c60366004610bda565b93929092613ad6565b9061043d610c7660405190565b92839283610c34565b610c87600080fd5b610c52565b5034610cbb575b610c9e3660046104e6565b61043d733432b6a60d23ca0dfca7761b7ab56459d9c964d0610524565b610cc3600080fd5b610c93565b5034610ce3575b610438610cdd36600461044e565b906134a8565b610ceb600080fd5b610ccf565b919061039b90604084820312610d0b575b61046981856103bd565b610d13600080fd5b610d01565b5034610d33575b610438610d2d366004610cf0565b906138fd565b610d3b600080fd5b610d1f565b61039b600080610aad565b5034610d68575b610d5d3660046104e6565b61043d610524610d40565b610d70600080fd5b610d52565b5034610da4575b610d873660046104e6565b61043d734e3fbd56cd56c3e72c1403e103b45db9da5b9d2b610524565b610dac600080fd5b610d7c565b5034610de0575b610dc33660046104e6565b61043d73f403c135812408bfbe8713b5a23a04b3d48aae31610524565b610de8600080fd5b610db8565b61039b60006003610aad565b5034610e16575b610e0b3660046104e6565b61043d610524610ded565b610e1e600080fd5b610e00565b5034610e3d575b610e353660046104e6565b610438613bd9565b610e45600080fd5b610e2a565b919061039b90604084820312610e6e575b610e6581856103bd565b9360200161098d565b610e76600080fd5b610e5b565b5034610e96575b610438610e90366004610e4a565b90613973565b610e9e600080fd5b610e82565b5034610ec1575b61043d6104c9610ebb36600461044e565b90612bff565b610ec9600080fd5b610eaa565b9061039b916020818303121561098d57610ee6600080fd5b61098d565b5034610f05575b610438610f00366004610ece565b614d1b565b610f0d600080fd5b610ef2565b5034610f41575b610f243660046104e6565b61043d7341a5881c17185383e19df6fa4ec158a6f4851a69610524565b610f49600080fd5b610f19565b5034610f7d575b610f603660046104e6565b61043d73c9acb83ada68413a6aa57007bc720ee2e2b3c46d610524565b610f85600080fd5b610f55565b90610faa610fa3610f99845190565b8084529260200190565b9260200190565b9060005b818110610fbb5750505090565b909192610fee610fe7600192865173ffffffffffffffffffffffffffffffffffffffff16815260200190565b9460200190565b929101610fae565b90611005610fa3610f99845190565b9060005b8181106110165750505090565b90919261102c610fe76001928651815260200190565b929101611009565b604080825261039b93919261104b91840190610f8a565b916020818403910152610ff6565b5034611089575b61106b3660046104e6565b611073614813565b9061043d61108060405190565b92839283611034565b611091600080fd5b611060565b61039b612710610876565b61039b611096565b50346110c6575b6110bb3660046104e6565b61043d6104c96110a1565b6110ce600080fd5b6110b0565b61039b60006001610aad565b50346110fc575b6110f13660046104e6565b61043d6105246110d3565b611104600080fd5b6110e6565b61039b60006004610aad565b5034611132575b6111273660046104e6565b61043d610524611109565b61113a600080fd5b61111c565b503461115a575b61043861115436600461044e565b906132b3565b611162600080fd5b611146565b5034611181575b61043861117c366004610aee565b6116b6565b611189600080fd5b61116e565b50346111af575b61043d61080f6111a6366004610783565b92919091611ef6565b6111b7600080fd5b611195565b6080818303126111f9575b6111d182826103bd565b9261039b6111e284602085016103bd565b936111f081604086016103bd565b936060016103bd565b611201600080fd5b6111c7565b5034611224575b61043861121b3660046111bc565b929190916127aa565b61122c600080fd5b61120d565b503461124c575b6104386112463660046103df565b916138b1565b611254600080fd5b611238565b1561126057565b6040517f08c379a000000000000000000000000000000000000000000000000000000000815260206004820152600b60248201527f21617574685f61646d696e0000000000000000000000000000000000000000006044820152606490fd5b0390fd5b6103ca906113057359cfcd384746ec3035299d90782be065e466800b5b6112ff335b9173ffffffffffffffffffffffffffffffffffffffff1690565b14611259565b61141a565b61039b90610382565b61039b905461130a565b61038261039b61039b9273ffffffffffffffffffffffffffffffffffffffff1690565b61039b9061131d565b61039b90611340565b905051906103ca82610985565b9061039b916020818303121561135257611377600080fd5b611352565b506040513d6000823e3d90fd5b905051906103ca826103cc565b9061039b9160208183031215611389576113ae600080fd5b611389565b73ffffffffffffffffffffffffffffffffffffffff90911681526040810192916103ca9160200152565b9073ffffffffffffffffffffffffffffffffffffffff905b9181191691161790565b9061140f61039b61141692611349565b82546113dd565b9055565b61144c602061143461142f61142f6003611313565b611349565b6302fb0c5e9061144360405190565b93849260e01b90565b825260049082905afa9081156116a9575b60009161167b575b5061147f575b6114768160036113ff565b506103ca611961565b6114e1602061149461142f61142f6003611313565b6370a08231906114bd6114a630611349565b926114b060405190565b9586948593849360e01b90565b835273ffffffffffffffffffffffffffffffffffffffff1660048301526024820190565b03915afa90811561166e575b600091611640575b5060009061150282610876565b81116115a9575b5061154b8161151e61142f61142f6003611313565b63c00007b0906114bd8361153181611313565b93833b1561159c575b6040515b9687958694859360e01b90565b03925af1801561158f575b611562575b505061146b565b8161158192903d10611588575b611579818361066d565b8101906104e6565b388061155b565b503d61156f565b61159761137c565b611556565b6115a4600080fd5b61153a565b816115ba61142f61142f6003611313565b63f3fef3a3906115ef836115cd81611313565b93833b15611633575b6115fa6115e260405190565b9788968795869460e01b90565b8452600484016113b3565b03925af18015611626575b156115095761162090823d841161158857611579818361066d565b38611509565b61162e61137c565b611605565b61163b600080fd5b6115d6565b611661915060203d8111611667575b611659818361066d565b810190611396565b386114f5565b503d61164f565b61167661137c565b6114ed565b61169c915060203d81116116a2575b611694818361066d565b81019061135f565b38611465565b503d61168a565b6116b161137c565b61145d565b6103ca906112c3565b6116dc7359cfcd384746ec3035299d90782be065e466800b6112e0565b6103ca6103ca6117db565b6103ca6116bf565b6020809167ffffffffffffffff811161170757020190565b61170f61063d565b020190565b90929192611724610736826116ef565b9381855260208086019202830192818411611762575b915b8383106117495750505050565b602080916117578486611389565b81520192019161173c565b61176a600080fd5b61173a565b9061039b9181601f8201121561178b575b602081519101611714565b611793600080fd5b611780565b9061039b916020818303126117ce575b80519067ffffffffffffffff82116117c1575b0161176f565b6117c9600080fd5b6117bb565b6117d6600080fd5b6117a8565b61180d60006117f061142f61142f6001611313565b63c00007b0906114bd8361180330611349565b9361153e60405190565b03925af1908115611842575b600091611824575050565b61183f913d8091833e611837818361066d565b810190611798565b50565b61184a61137c565b611819565b6103ca906118707359cfcd384746ec3035299d90782be065e466800b6112e0565b6103ca90611882565b6103ca9061184f565b6118ad600061189761142f61142f6001611313565b63d7400d5690803b1561190f575b604051611443565b825273ffffffffffffffffffffffffffffffffffffffff85166004830152602490829084905af18015611902575b6118ec575b5061183f8160046113ff565b6118fc906000611579818361066d565b386118e0565b61190a61137c565b6118db565b611917600080fd5b6118a5565b507f4e487b7100000000000000000000000000000000000000000000000000000000600052601160045260246000fd5b9190820391821161195957565b6103ca61191c565b611976602061143461142f61142f6003611313565b825260049082905afa908115611b7d575b600091611b5f575b5061199657565b611a3f6119a961142f61142f6001611313565b6119d263d9f96e8d91602030936119bf85611349565b926119c960405190565b94859260e01b90565b825273ffffffffffffffffffffffffffffffffffffffff8416600483015260249082905afa918215611b52575b600092611b32575b508192602092506114bd611a2161142f61142f6003611313565b916370a082319050611a3260405190565b9687948593849360e01b90565b03915afa918215611b25575b600092611b05575b50818110611adb57600090611a6e61142f61142f6003611313565b6115ef83611a8a6347e7ef2496611a8483611313565b9561194c565b95833b15611ace575b611a9f6115e260405190565b03925af18015611ac1575b611ab15750565b6103ca906000611579818361066d565b611ac961137c565b611aaa565b611ad6600080fd5b611a93565b90600090611aef61142f61142f6003611313565b6115ef83611a8a63f3fef3a396611a8483611313565b611b1e91925060203d811161166757611659818361066d565b9038611a53565b611b2d61137c565b611a4b565b60209250611b4c90833d811161166757611659818361066d565b91611a07565b611b5a61137c565b6119ff565b611b77915060203d81116116a257611694818361066d565b3861198f565b611b8561137c565b611987565b61039b6004610876565b90611ba1610736836106ce565b918252565b611bb06012611b94565b7f6265666f72654c6f636b5472616e736665720000000000000000000000000000602082015290565b61039b611ba6565b611beb600d611b94565b7f746869732026207374616b657200000000000000000000000000000000000000602082015290565b61039b611be1565b15611c2357565b6040517f08c379a000000000000000000000000000000000000000000000000000000000815260206004820152601560248201527f696e76616c6964206265666f726520706172616d7300000000000000000000006044820152606490fd5b905051906103ca8261039e565b9061039b9160208183031215611c8257611ca7600080fd5b611c82565b9081526040810192916103ca916020905b019073ffffffffffffffffffffffffffffffffffffffff169052565b611ce3600e611b94565b7f6f776e6572206e6f7420636f6465000000000000000000000000000000000000602082015290565b61039b611cd9565b611d2d611d2761039b9263ffffffff1690565b60e01b90565b7fffffffff000000000000000000000000000000000000000000000000000000001690565b611d5c6025611b94565b7f63616c6c696e67206f6e4c6f636b526563656976656420746f207661756c742060208201527f6f776e6572000000000000000000000000000000000000000000000000000000604082015290565b61039b611d52565b7fffffffff0000000000000000000000000000000000000000000000000000000081166103b6565b905051906103ca82611db3565b9061039b9160208183031215611ddb57611e00600080fd5b611ddb565b60005b838110611e185750506000910152565b8181015183820152602001611e08565b611e4961061560209361070b93611e3d815190565b80835293849260200190565b95869101611e05565b73ffffffffffffffffffffffffffffffffffffffff918216815291166020820152604081019190915260806060820181905261039b92910190611e28565b15611e9757565b6040517f08c379a000000000000000000000000000000000000000000000000000000000815260206004820152601960248201527f6265666f72654c6f636b5472616e73666572206661696c6564000000000000006044820152606490fd5b91929073__$03410bdb5b6e31ba206af5f1ba44259eff$__91611f22858386611f1d611bd9565b612486565b3093611f2d85611349565b95611f49611f3b6001611313565b88611f44611c14565b6123de565b73ffffffffffffffffffffffffffffffffffffffff871673ffffffffffffffffffffffffffffffffffffffff8316148061228e575b611f8790611c1c565b61204b611fa861142f7341a5881c17185383e19df6fa4ec158a6f4851a6981565b611fe063bfff576f91611fb9610883565b906020611fc861142f8b611349565b638da5cb5b90611fd760405190565b95869260e01b90565b825260049082906000905af1928315612281575b60009361225a575b5061201260006020949561201d6115e260405190565b845260048401611cac565b03925af190811561224d575b60009161221f575b5073ffffffffffffffffffffffffffffffffffffffff1690565b73ffffffffffffffffffffffffffffffffffffffff8516036121f45761206f613bd9565b6120796000611313565b3b60009061208d61208983610876565b9190565b11156121e35761218f95602093929161211c916120b06120ab611dab565b612358565b63f1053bfb906120c76120c283611d14565b6122ab565b506121277ff1053bfb00000000000000000000000000000000000000000000000000000000976120f6896122ab565b61210561142f61142f86611313565b9561210f60405190565b9a8b988997889660e01b90565b865260048601611e52565b03925af19182156121d6575b60009261219e575b50612189907fffffffff00000000000000000000000000000000000000000000000000000000165b917fffffffff000000000000000000000000000000000000000000000000000000001690565b14611e90565b505061039b63336d1523611d14565b6121899192506121c76121639160203d81116121cf575b6121bf818361066d565b810190611de8565b92915061213b565b503d6121b5565b6121de61137c565b612133565b50505050505061218f6120ab611d0c565b6040517fae59d4f4000000000000000000000000000000000000000000000000000000008152600490fd5b612240915060203d8111612246575b612238818361066d565b810190611c8f565b38612031565b503d61222e565b61225561137c565b612029565b60209350600061227961201292863d811161224657612238818361066d565b945050611ffc565b61228961137c565b611ff4565b50611f87336122a36112e56103826001611313565b149050611f7e565b6123176123266103ca926122be60405190565b9283916004602084017fe05f48d1000000000000000000000000000000000000000000000000000000008152017fffffffff00000000000000000000000000000000000000000000000000000000909116815260200190565b6020820181038252038261066d565b60008091612332815190565b906020016a636f6e736f6c652e6c6f675afa50565b602080825261039b92910190611e28565b6123176123266103ca9261236b60405190565b9283916004602084017f41304fac00000000000000000000000000000000000000000000000000000000815201612347565b604090611cbd6123bf6103ca9597969460608401908482036000860152611e28565b73ffffffffffffffffffffffffffffffffffffffff9097166020830152565b612326906123176103ca946123f260405190565b9485936004602086017ffcec75e00000000000000000000000000000000000000000000000000000000081520161239d565b610c476103ca9461246961244a6060959998969960808601908682036000880152611e28565b73ffffffffffffffffffffffffffffffffffffffff9099166020850152565b73ffffffffffffffffffffffffffffffffffffffff166040830152565b6123176103ca94612326939461249b60405190565b9586946004602087017f8ef3f39900000000000000000000000000000000000000000000000000000000815201612424565b6124d7600e611b94565b7f6f6e4c6f636b5265636569766564000000000000000000000000000000000000602082015290565b61039b6124cd565b1561250f57565b6040517f08c379a000000000000000000000000000000000000000000000000000000000815260206004820152601460248201527f696e76616c696420616674657220706172616d730000000000000000000000006044820152606490fd5b909192612579600090565b5073__$03410bdb5b6e31ba206af5f1ba44259eff$__61259d858585611f1d612500565b5030936125a985611349565b6125bf6125b66001611313565b82611f44611c14565b73ffffffffffffffffffffffffffffffffffffffff811673ffffffffffffffffffffffffffffffffffffffff861614806126a9575b6125fd90612508565b6126076000611313565b3b9560009661261861208989610876565b11156126935750508461211c9161265761263a61142f61142f6020999a611313565b9463336d15239261264a60405190565b998a988997889660e01b90565b03925af1908115612686575b60009161266e575090565b61039b915060203d81116121cf576121bf818361066d565b61268e61137c565b612663565b94509450505050505061039b63336d1523611d14565b506125fd336126be6112e56103826001611313565b1490506125f4565b61038261039b61039b9290565b61039b906126c6565b156126e357565b6040517f08c379a000000000000000000000000000000000000000000000000000000000815260206004820152600c60248201527f616c726561647920696e697400000000000000000000000000000000000000006044820152606490fd5b909160c08284031261279d575b6127598383611c82565b926127678160208501611c82565b926127758260408301611c82565b9261039b6127868460608501611c82565b936127948160808601611c82565b9360a001611352565b6127a5600080fd5b61274f565b61285b908392946127bb6000611313565b916127d76000936127d16112e5610382876126d3565b146126dc565b6127e181846113ff565b506127ed8660016113ff565b6127f88460026113ff565b6128038160036113ff565b5060c061282461142f73f403c135812408bfbe8713b5a23a04b3d48aae3181565b631526fe279061284d84612836610883565b9361284060405190565b9788958694859360e01b90565b835260048301526024820190565b03925af1908115612a08575b60009283926129d2575b5061287d8260066113ff565b6128888360076113ff565b61289184611349565b61289a90611349565b9563095ea7b3937fffffffffffffffffffffffffffffffffffffffffffffffffffffffffffffffff976128cc60405190565b8080946128d98960e01b90565b82528b60048301916128ea926113b3565b0381865a94602095f19088821560209961291e61142f6115ef996129449861142f988f966129c5575b6129af575b50611349565b6115ef888b61292f6115e260405190565b03925af180156129a2575b6129875750611349565b926129516115e260405190565b03925af1801561297a575b6129635750565b61183f9060203d81116116a257611694818361066d565b61298261137c565b61295c565b61299d90893d81116116a257611694818361066d565b612918565b6129aa61137c565b61293a565b61299d90863d81116116a257611694818361066d565b6129cd61137c565b612913565b9092506129f6915060c03d8111612a01575b6129ee818361066d565b810190612742565b505050929092612871565b503d6129e4565b612a1061137c565b612867565b15612a1c57565b6040517f08c379a000000000000000000000000000000000000000000000000000000000815260206004820152600560248201527f21617574680000000000000000000000000000000000000000000000000000006044820152606490fd5b9061039b9291612a9d612a8e6000611313565b612a97336112e5565b14612a15565b90612ab09291612aab612ccb565b612ab9565b906103ca612cfe565b9291906000612ac781610876565b8211612ad9575b5050506103ca611961565b6020929450612b3e81612aef61142f6006611313565b3390612b08863092612b0084611349565b948591612d37565b612b3283612b1c61142f61142f6002611313565b9250636e553f65833b1561159c5760405161153e565b83528a60048401611cac565b03925af18015612bf2575b612bd6575b50612b81612b6261142f61142f6001611313565b916317b18c89612b8c612b7460405190565b9889968795869460e01b90565b845260048401610c34565b03925af1918215612bc9575b600092612ba9575b50813880612ace565b612bc291925060203d811161166757611659818361066d565b9038612ba0565b612bd161137c565b612b98565b612bec90823d841161158857611579818361066d565b38612b4e565b612bfa61137c565b612b49565b61039b91906000612a7b565b61039b9081565b61039b9054612c0b565b61039b6002610876565b15612c2d57565b6040517f08c379a000000000000000000000000000000000000000000000000000000000815260206004820152601f60248201527f5265656e7472616e637947756172643a207265656e7472616e742063616c6c006044820152606490fd5b907fffffffffffffffffffffffffffffffffffffffffffffffffffffffffffffffff906113f5565b90612cc461039b61141692610876565b8254612c8c565b612cd56005612c12565b612ce9612ce0612c1c565b91821415612c26565b61183f816005612cb4565b61039b6001610876565b612ce9612cf4565b73ffffffffffffffffffffffffffffffffffffffff9182168152911660208201526060810192916103ca9160400152565b90612d8690612d776103ca95600495612d4f86611349565b50612d5d6323b872dd611d14565b93612d6760405190565b9788956020870190815201612d06565b6020820181038252038361066d565b612e52565b612d956020611b94565b7f5361666545524332303a206c6f772d6c6576656c2063616c6c206661696c6564602082015290565b61039b612d8b565b15612dcd57565b6040517f08c379a000000000000000000000000000000000000000000000000000000000815260206004820152602a60248201527f5361666545524332303a204552433230206f7065726174696f6e20646964206e60448201527f6f742073756363656564000000000000000000000000000000000000000000006064820152608490fd5b90612e5f612e6e92611349565b90612e68612dbe565b91612ea2565b8051612e7d6120896000610876565b11612e855750565b80516103ca91612e9d9160209081830101910161135f565b612dc6565b61039b9291612eb16000610876565b91612f62565b15612ebe57565b6040517f08c379a000000000000000000000000000000000000000000000000000000000815260206004820152602660248201527f416464726573733a20696e73756666696369656e742062616c616e636520666f60448201527f722063616c6c00000000000000000000000000000000000000000000000000006064820152608490fd5b3d15612f5d57612f523d611b94565b903d6000602084013e565b606090565b90600061039b94938192612f74606090565b50612f8b612f8130611349565b8390311015612eb7565b60208101905191855af1612f9d612f43565b91613009565b15612faa57565b6040517f08c379a000000000000000000000000000000000000000000000000000000000815260206004820152601d60248201527f416464726573733a2063616c6c20746f206e6f6e2d636f6e74726163740000006044820152606490fd5b91926060911561303f57505081516130246120896000610876565b1461302d575090565b61039b9061303a9061304c565b612fa3565b9093926103ca925061305e565b3b61305a6120896000610876565b1190565b9150613068825190565b6130756120896000610876565b11156130845750805190602001fd5b6040517f08c379a00000000000000000000000000000000000000000000000000000000081529081906112bf9060048301612347565b9061039b92916130cd612a8e6000611313565b90612ab092916130db612ccb565b92919060006130e981610876565b82116130fa575050506103ca611961565b6020929450612b3e8161311061142f6007611313565b3390613121863092612b0084611349565b612b328361313561142f61142f6002611313565b9250637acb7757833b1561159c5760405161153e565b61039b919060006130ba565b9061039b929161316a612a8e6000611313565b90612ab09291613178612ccb565b929190600061318681610876565b8211613197575050506103ca611961565b60209294506131bd826131ad61142f6002611313565b336131b730611349565b91612d37565b612b81612b6261142f61142f6001611313565b61039b91906000613157565b906103ca916131ee612a8e6000611313565b90613200916131fb612ccb565b613208565b6103ca612cfe565b9060009161321583610876565b8211613226575050506103ca611961565b8290613239836131ad61142f6002611313565b61324961142f61142f6001611313565b612b818363d9d80e3d833b156132a6575b6132666115e260405190565b03925af18015613299575b61327c575b80612ace565b8161329292903d1061158857611579818361066d565b3880613276565b6132a161137c565b613271565b6132ae600080fd5b61325a565b906103ca916131dc565b906103ca916132cf612a8e6000611313565b90613200916132dc612ccb565b906000916132e983610876565b82116132fa575050506103ca611961565b829061333e8261330d61142f6006611313565b339061331e873092612b0084611349565b61333283612b1c61142f61142f6002611313565b83528b60048401611cac565b03925af1801561337b575b61335f575b5061324961142f61142f6001611313565b61337590833d851161158857611579818361066d565b3861334e565b61338361137c565b613349565b906103ca916132bd565b906103ca916133a4612a8e6000611313565b90613200916133b1612ccb565b906000916133be83610876565b82116133cf575050506103ca611961565b829061333e826133e261142f6007611313565b33906133f3873092612b0084611349565b6133328361313561142f61142f6002611313565b906103ca91613392565b906103ca91613423612a8e6000611313565b9061320091613430612ccb565b60009061344361142f61142f6001611313565b612b818363806465e9833b1561349b575b6134606115e260405190565b03925af1801561348e575b61347857506103ca611961565b613488906000611579818361066d565b38611476565b61349661137c565b61346b565b6134a3600080fd5b613454565b906103ca91613411565b6103ca906134c3612a8e6000611313565b613200906134cf612ccb565b60206134e161142f61142f6001611313565b91638395cef492612012600033956134fb6115e260405190565b03925af1801561352f575b61351357506103ca611961565b61352a9060203d811161166757611659818361066d565b611476565b61353761137c565b613506565b6103ca906134b2565b6103ca90613556612a8e6000611313565b61320090613562612ccb565b6136a1600061357761142f61142f6001611313565b926020638395cef491309561201261358e88611349565b95869561359d6115e260405190565b03925af180156137ad575b613791575b506135be61142f61142f6002611313565b906136416000633969dfb4936135da61142f61142f6002611313565b906370a082319560206135ec60405190565b80946135f88a60e01b90565b825273ffffffffffffffffffffffffffffffffffffffff8916600483015260249082905afa928315613784575b849361375e575b508361284d91833b1561159c5760405161153e565b03925af18015613751575b61373b575b50602061366461142f61142f6006611313565b9163a9059cbb956114bd6136786000611313565b9561368961142f61142f6006611313565b925061369460405190565b9788948593849360e01b90565b03915afa92831561372e575b600093613707575b506115ef6000602094956136cb6115e260405190565b03925af180156136fa575b6136e357506103ca611961565b61352a9060203d81116116a257611694818361066d565b61370261137c565b6136d6565b6020935060006137266115ef92863d811161166757611659818361066d565b9450506136b5565b61373661137c565b6136ad565b61374b906000611579818361066d565b38613651565b61375961137c565b61364c565b61284d91935061377c859160203d811161166757611659818361066d565b93915061362c565b61378c61137c565b613625565b6137a89060203d811161166757611659818361066d565b6135ad565b6137b561137c565b6135a8565b6103ca90613545565b906103ca92916137d6612a8e6000611313565b61380f565b73ffffffffffffffffffffffffffffffffffffffff90911681526060810193926103ca929091604091610c47906020830152565b6000919261384a8361382761142f61142f6001611313565b92611a9f6304acbb9991853b15613855575b6040515b9889978896879560e01b90565b8552600485016137db565b61385d600080fd5b613839565b906103ca92916137c3565b906103ca9291613880612a8e6000611313565b6000919261384a8361389861142f61142f6001611313565b92611a9f63ff61011a91853b156138555760405161383d565b906103ca929161386d565b906103ca916138ce612a8e6000611313565b6000906138e161142f61142f6001611313565b6115ef83638170820c833b15611ace57611a9f6115e260405190565b906103ca916138bc565b906103ca91613919612a8e6000611313565b60009061392c61142f61142f6001611313565b6139488363a22cb465833b15611ace57611a9f6115e260405190565b845273ffffffffffffffffffffffffffffffffffffffff166004840152151560248301526044820190565b906103ca91613907565b90610a1e969594939291613994612a8e6000611313565b906139ab9695949392916139a6612ccb565b613a39565b90916103ca612cfe565b919061039b906040848203126139d9575b6139d08185611389565b93602001611389565b6139e1600080fd5b6139c6565b909594926103ca94613a30610c4792613a29608096613a2260a088019c600089019073ffffffffffffffffffffffffffffffffffffffff169052565b6020870152565b6040850152565b15156060830152565b93613a85604096949897600093613a7a95975050613a5d61142f61142f6001611313565b956378aae1cb93613a6d60405190565b9b8c998a98899760e01b90565b8752600487016139e6565b03925af18015613ac9575b6000928391613a9e57509190565b9050610a1e91925060403d8111613ac2575b613aba818361066d565b8101906139b5565b503d613ab0565b613ad161137c565b613a90565b610a1e949392919060008061397d565b73ffffffffffffffffffffffffffffffffffffffff90911681526040810192916103ca91602090611cbd565b90929192613b22610736826116ef565b9381855260208086019202830192818411613b60575b915b838310613b475750505050565b60208091613b558486611c82565b815201920191613b3a565b613b68600080fd5b613b38565b9061039b9181601f82011215613b89575b602081519101613b12565b613b91600080fd5b613b7e565b9061039b91602081830312613bcc575b80519067ffffffffffffffff8211613bbf575b01613b6d565b613bc7600080fd5b613bb9565b613bd4600080fd5b613ba6565b613d6f613d50613bef61142f61142f6002611313565b30613c1d6000636b091695613c0384611349565b94613c118361153181611313565b83528a60048401613ae6565b03925af18015613e44575b613e2e575b50613d0173d533a949740bb3306d119cc777fa900ba034cd526020613c5182611349565b94613c5b86611349565b926370a082319383613c6c60405190565b8092613c788860e01b90565b825273ffffffffffffffffffffffffffffffffffffffff8616600483015260249082905afa908115613e21575b600091613e04575b50600097613cba89610876565b8211613dee575b505050613cdf734e3fbd56cd56c3e72c1403e103b45db9da5b9d2b90565b946114bd613cec87611349565b94613cf686611349565b9250611a3260405190565b03915afa918215613de1575b600092613dc1575b50613d1f84610876565b8211613da5575b505050613d31613ee8565b613d4161142f61142f6001611313565b6312edb24c9061144360405190565b825260049082905afa908115613d98575b600091613d77575b506144c8565b6103ca6141e0565b613d92913d8091833e613d8a818361066d565b810190613b96565b38613d69565b613da061137c565b613d61565b613db99250613db384611313565b90613e51565b388080613d26565b613dda91925060203d811161166757611659818361066d565b9038613d15565b613de961137c565b613d0d565b613dfc9250613db389611313565b388080613cc1565b613e1b9150843d811161166757611659818361066d565b38613cad565b613e2961137c565b613ca5565b613e3e906000611579818361066d565b38613c2d565b613e4c61137c565b613c28565b612d86600492612d776103ca95613e6785611349565b50613e7563a9059cbb611d14565b92613e7f60405190565b96879460208601908152016113b3565b8181029291811591840414171561195957565b507f4e487b7100000000000000000000000000000000000000000000000000000000600052601260045260246000fd5b8115613edc570490565b613ee4613ea2565b0490565b602073c9acb83ada68413a6aa57007bc720ee2e2b3c46d613f0881611349565b613f1181611349565b6313114a9d613f29613f2260405190565b9160e01b90565b81528481600481855afa9081156141d3575b6000916141b6575b50846114bd733432b6a60d23ca0dfca7761b7ab56459d9c964d095613f6787611349565b93613f7185611349565b956370a0823192613fc4613fb63094613f9c613f8c87611349565b9e8f8d6114bd8b6114b060405190565b03915afa9081156141a9575b60009161418c575b50613e8f565b613fbe611096565b90613ed2565b600099613fd08b610876565b82116140b3575b5050505050613ff3613fe860405190565b988993849360e01b90565b0381855afa9485156140a6575b600095614086575b5061401283610876565b8511614020575b5050505050565b60209350506115ef63a9059cbb9261403781611313565b936140446115e260405190565b03925af18015614079575b61405d575b80808080614019565b6140749060203d81116116a257611694818361066d565b614054565b61408161137c565b61404f565b61409f91955060203d811161166757611659818361066d565b9338614008565b6140ae61137c565b614000565b6140de93889163a9059cbb94505063998cbb43906114bd6140d46004611313565b9261369460405190565b03915afa92831561417f575b600093614154575b508691614112826115ef935061410760405190565b958694859460e01b90565b03818b8b5af18015614147575b61412c575b808080613fd7565b61414290853d81116116a257611694818361066d565b614124565b61414f61137c565b61411f565b6115ef919350916141126141758994853d811161224657612238818361066d565b94925050916140f2565b61418761137c565b6140ea565b6141a391508a3d811161166757611659818361066d565b38613fb0565b6141b161137c565b613fa8565b6141cd9150853d811161166757611659818361066d565b38613f43565b6141db61137c565b613f3b565b6141f5602061143461142f61142f6003611313565b825260049082905afa90811561442d575b60009161440f575b5061421557565b61424361422861142f61142f6003611313565b3060206370a0823161423983611349565b93611fd760405190565b825273ffffffffffffffffffffffffffffffffffffffff8516600483015260249082905afa928315614402575b6000936143da575b506142a4916020916114bd61429361142f61142f6001611313565b9163d9f96e8d90506114b060405190565b03915afa9081156143cd575b6000916143af575b506000916142c861208984610876565b148061439e575b61431f575b506142e98161151e61142f61142f6003611313565b03925af18015614312575b6142fc575050565b816103ca92903d1061158857611579818361066d565b61431a61137c565b6142f4565b8161433061142f61142f6003611313565b6347e7ef24906115ef8361434381611313565b93833b15614391575b6143586115e260405190565b03925af18015614384575b156142d45761437e90823d841161158857611579818361066d565b386142d4565b61438c61137c565b614363565b614399600080fd5b61434c565b506143a882610876565b81116142cf565b6143c7915060203d811161166757611659818361066d565b386142b8565b6143d561137c565b6142b0565b6020919350916143f96142a493833d811161166757611659818361066d565b93915091614278565b61440a61137c565b614270565b614427915060203d81116116a257611694818361066d565b3861420e565b61443561137c565b614206565b6001907fffffffffffffffffffffffffffffffffffffffffffffffffffffffffffffffff8114614468570190565b61070b61191c565b507f4e487b7100000000000000000000000000000000000000000000000000000000600052603260045260246000fd5b90602080916144ad845190565b8110156144bb575b02010190565b6144c3614470565b6144b5565b60006144d381610876565b925b6144e061039b845190565b8410156145d25761450e6144f485856144a0565b5173ffffffffffffffffffffffffffffffffffffffff1690565b61452b733432b6a60d23ca0dfca7761b7ab56459d9c964d06112e5565b03614541575b61453a8461443a565b93506144d5565b614559602061149461142f61142f6144f489896144a0565b03915afa9081156145c5575b6000916145a7575b5061457783610876565b8111614584575b50614531565b6145a19061459861142f6144f488886144a0565b613db385611313565b3861457e565b6145bf915060203d811161166757611659818361066d565b3861456d565b6145cd61137c565b614565565b92505050565b919091604081840312614614575b61460e6145f360406106ba565b9360006146008285611c82565b908601526020809301611389565b90830152565b61461c600080fd5b6145e6565b90929192614631610736826116ef565b938185526040602086019202830192818411614671575b915b8383106146575750505050565b602060409161466684866145d8565b81520192019161464a565b614679600080fd5b614648565b9061039b9181601f8201121561469a575b602081519101614621565b6146a2600080fd5b61468f565b9061039b916020818303126146dd575b80519067ffffffffffffffff82116146d0575b0161467e565b6146d8600080fd5b6146ca565b6146e5600080fd5b6146b7565b9190820180921161195957565b90611ba1610736836116ef565b369037565b906103ca61471f614719846146f7565b936116ef565b7fffffffffffffffffffffffffffffffffffffffffffffffffffffffffffffffe00160208401614704565b9092919261475a610736826116ef565b93818552604060208601920283019281841161479a575b915b8383106147805750505050565b602060409161478f84866145d8565b815201920191614773565b6147a2600080fd5b614771565b9061039b9181601f820112156147c3575b60208151910161474a565b6147cb600080fd5b6147b8565b9061039b91602081830312614806575b80519067ffffffffffffffff82116147f9575b016147a7565b614801600080fd5b6147f3565b61480e600080fd5b6147e0565b61483890600061482961142f61142f6001611313565b6312edb24c906119c960405190565b825260049082905afa918215614d08575b600092614ce9575b506148e59061486661142f61142f6001611313565b3093906148856000628cc26261487b88611349565b9361144360405190565b825273ffffffffffffffffffffffffffffffffffffffff8516600483015260249082905afa908115614cdc575b600091614cc3575b5060006148cd61142f61142f6002611313565b63b277e8f0906148dc60405190565b97889260e01b90565b825273ffffffffffffffffffffffffffffffffffffffff8516600483015260249082905afa948515614cb6575b600095614c93575b5061493f602061493061142f61142f6003611313565b63857cb94a9061144360405190565b825260049082905afa908115614c86575b600091614c68575b5061497e6149796149708361496b885190565b6146ea565b88515b906146ea565b614709565b90819661499a6149796149938461496b8a5190565b8351614973565b9687926000926149a984610876565b9a5b6149b661039b8b5190565b8c1015614a94578b614a568c8f614a06614a398f8f8f908f956114bd611a2161142f61142f6144f48e614a33614a2f82614a539f9b81614a298f9e60209f614a066144f48583614a0e94506144a0565b9384926144a0565b9073ffffffffffffffffffffffffffffffffffffffff169052565b506144a0565b5190565b996144a0565b03915afa918215614a87575b600092614a67575b506146ea565b52565b50614a608c61443a565b9b506149ab565b614a8091925060203d811161166757611659818361066d565b9038614a4d565b614a8f61137c565b614a45565b92959790939650614ad6989a508691949b6114bd614ab861142f61142f6003611313565b9163dc01f60d9050614ac960405190565b9b8c948593849360e01b90565b03915afa968715614c5b575b600097614c38575b50614af485610876565b995b614b0161039b895190565b8b1015614b965789614b858a614a53614b7f8f614973614b778f8f8f82614b65614a298d614a0e614b7196614b6b614b5e8d9860209b50614b428a8a6144a0565b51015173ffffffffffffffffffffffffffffffffffffffff1690565b9586945190565b886146ea565b906144a0565b51015190565b968795505190565b8d6144a0565b50614b8f8b61443a565b9a50614af6565b919594939950919550614ba883610876565b985b614bb561039b875190565b8a1015614c2c5788614c1b89614a53614c158b8f80614973614c0d8f8f8f9582614c07614a298f614a0e614b7196614b6b8e61496b61496b9f614c009060209d50614b428c8c6144a0565b9788965190565b8a6146ea565b988997505190565b8c6144a0565b50614c258a61443a565b9950614baa565b96509650965050505050565b614c5491973d8091833e614c4c818361066d565b8101906147d0565b9538614aea565b614c6361137c565b614ae2565b614c80915060203d811161166757611659818361066d565b38614958565b614c8e61137c565b614950565b614caf91953d8091833e614ca7818361066d565b8101906146a7565b933861491a565b614cbe61137c565b614912565b614cd6913d8091833e611837818361066d565b386148ba565b614ce461137c565b6148b2565b614d01906148e592933d8091833e613d8a818361066d565b9190614851565b614d1061137c565b614849565b6103ca60015b614d40575b614d28613ee8565b613d6f613d506000613d4161142f61142f6001611313565b614d5061142f61142f6001611313565b614eb530614d71600063c00007b0614d6784611349565b9561144360405190565b825273ffffffffffffffffffffffffffffffffffffffff87166004830152602490829084905af1908115614fa3575b600091614f8a575b5050614dde6000614dbf61142f61142f6002611313565b636b09169590614dd28361153181611313565b83528b60048401613ae6565b03925af18015614f7d575b614f67575b5073d533a949740bb3306d119cc777fa900ba034cd52906020614e1083611349565b94614e1a86611349565b936370a082319483614e2b60405190565b8092614e378960e01b90565b825273ffffffffffffffffffffffffffffffffffffffff8616600483015260249082905afa908115614f5a575b600091614f3d575b50600097614e7989610876565b8211614f27575b505050614e9e734e3fbd56cd56c3e72c1403e103b45db9da5b9d2b90565b926114bd614eab85611349565b9561368987611349565b03915afa928315614f1a575b600093614efa575b50614ed384610876565b8311614ee3575b50505050614d20565b614ef193613db39150611313565b38808080614eda565b614f1391935060203d811161166757611659818361066d565b9138614ec9565b614f2261137c565b614ec1565b614f359250613db389611313565b388080614e80565b614f549150843d811161166757611659818361066d565b38614e6c565b614f6261137c565b614e64565b614f77906000611579818361066d565b38614dee565b614f8561137c565b614de9565b614f9d913d8091833e611837818361066d565b38614da8565b614fab61137c565b614da0565b90929192614fc0610736826116ef565b9381855260208086019202830192818411614ffe575b915b838310614fe55750505050565b60208091614ff384866103bd565b815201920191614fd8565b615006600080fd5b614fd6565b61039b913691614fb0565b9161503191613d6f93615036575b61502c613ee8565b61500b565b6144c8565b61504661142f61142f6001611313565b600063c00007b09161505d82309461487b86611349565b825273ffffffffffffffffffffffffffffffffffffffff85166004830152602490829084905af1908115615138575b839161511f575b50506150a561142f61142f6002611313565b636b09169593506150ce836150b981611313565b95833b15615112575b6150d96115e260405190565b845260048401613ae6565b03925af18015615105575b6150ef575b50615024565b6150ff906000611579818361066d565b386150e9565b61510d61137c565b6150e4565b61511a600080fd5b6150c2565b615132913d8091833e611837818361066d565b38615093565b61514061137c565b61508c56fea264697066735822122007fc2431403f13d3019157aa1efb77ec6c75170064b24b29be6cfd77423ee14164736f6c63430008110033",
    "linkReferences": {
      "lib/forge-std/src/console2.sol": {
        "console2": [
          {
            "start": 8079,
            "length": 20
          },
          {
            "start": 9744,
            "length": 20
          }
        ]
      }
    }
  },
  "methodIdentifiers": {
    "FEE_DENOMINATOR()": "d73792a9",
    "beforeLockTransfer(address,address,uint256,bytes)": "f1053bfb",
    "changeRewards(address)": "e869565e",
    "checkpointRewards()": "2a554842",
    "claimOnTransfer()": "9ecc33e9",
    "convexCurveBooster()": "9ce0ff9d",
    "convexDepositToken()": "5eb143ce",
    "crv()": "6a4874a1",
    "curveLpToken()": "646780df",
    "cvx()": "923c1d61",
    "earned()": "d6f19262",
    "feeRegistry()": "b3a408b8",
    "fxs()": "7d423446",
    "getReward()": "3d18b912",
    "getReward(bool)": "a4698feb",
    "getReward(bool,address[])": "4f5aefcf",
    "increaseAllowance(address,uint256,uint256)": "ff61011a",
    "initialize(address,address,address,address)": "f8c8765e",
    "lockAdditional(uint256,uint256)": "d9d80e3d",
    "lockAdditionalConvexToken(uint256,uint256)": "0ba091fc",
    "lockAdditionalCurveLp(uint256,uint256)": "57a2a8b7",
    "lockLonger(uint256,uint256)": "806465e9",
    "onLockReceived(address,address,uint256,bytes)": "336d1523",
    "owner()": "8da5cb5b",
    "poolId()": "3e0dc34e",
    "poolRegistry()": "afcff50f",
    "removeAllowance(address,uint256)": "8170820c",
    "rewards()": "9ec5a894",
    "setAllowance(address,uint256,uint256)": "04acbb99",
    "setApprovalForAll(address,bool)": "a22cb465",
    "setVeFXSProxy(address)": "641a6cd0",
    "stakeLocked(uint256,uint256)": "17b18c89",
    "stakeLockedConvexToken(uint256,uint256)": "2439242a",
    "stakeLockedCurveLp(uint256,uint256)": "a41ce7e9",
    "stakingAddress()": "d7b4be24",
    "stakingToken()": "72f702f3",
    "transferLocked(address,uint256,uint256,bool,uint256)": "78aae1cb",
    "usingProxy()": "d7c04a46",
    "vaultType()": "4ac032be",
    "vaultVersion()": "4e7adf2c",
    "vefxsProxy()": "193ba6d1",
    "withdrawLocked(uint256)": "32d342b7",
    "withdrawLockedAndUnwrap(uint256)": "328a4d71"
  },
  "id": 17
}