{
  "abi": [
    {
      "inputs": [],
      "stateMutability": "nonpayable",
      "type": "constructor"
    },
    {
      "inputs": [],
      "name": "ConfirmationFailed",
      "type": "error"
    },
    {
      "inputs": [],
      "name": "NonVaultReceiver",
      "type": "error"
    },
    {
      "inputs": [],
      "name": "FEE_DENOMINATOR",
      "outputs": [
        {
          "internalType": "uint256",
          "name": "",
          "type": "uint256"
        }
      ],
      "stateMutability": "view",
      "type": "function"
    },
    {
      "inputs": [
        {
          "internalType": "address",
          "name": "from",
          "type": "address"
        },
        {
          "internalType": "address",
          "name": "to",
          "type": "address"
        },
        {
          "internalType": "bytes32",
          "name": "kek_id",
          "type": "bytes32"
        },
        {
          "internalType": "bytes",
          "name": "data",
          "type": "bytes"
        }
      ],
      "name": "beforeLockTransfer",
      "outputs": [
        {
          "internalType": "bytes4",
          "name": "",
          "type": "bytes4"
        }
      ],
      "stateMutability": "nonpayable",
      "type": "function"
    },
    {
      "inputs": [
        {
          "internalType": "address",
          "name": "_rewardsAddress",
          "type": "address"
        }
      ],
      "name": "changeRewards",
      "outputs": [],
      "stateMutability": "nonpayable",
      "type": "function"
    },
    {
      "inputs": [],
      "name": "checkpointRewards",
      "outputs": [],
      "stateMutability": "nonpayable",
      "type": "function"
    },
    {
      "inputs": [],
      "name": "convexCurveBooster",
      "outputs": [
        {
          "internalType": "address",
          "name": "",
          "type": "address"
        }
      ],
      "stateMutability": "view",
      "type": "function"
    },
    {
      "inputs": [],
      "name": "convexDepositToken",
      "outputs": [
        {
          "internalType": "address",
          "name": "",
          "type": "address"
        }
      ],
      "stateMutability": "view",
      "type": "function"
    },
    {
      "inputs": [],
      "name": "crv",
      "outputs": [
        {
          "internalType": "address",
          "name": "",
          "type": "address"
        }
      ],
      "stateMutability": "view",
      "type": "function"
    },
    {
      "inputs": [],
      "name": "curveLpToken",
      "outputs": [
        {
          "internalType": "address",
          "name": "",
          "type": "address"
        }
      ],
      "stateMutability": "view",
      "type": "function"
    },
    {
      "inputs": [],
      "name": "cvx",
      "outputs": [
        {
          "internalType": "address",
          "name": "",
          "type": "address"
        }
      ],
      "stateMutability": "view",
      "type": "function"
    },
    {
      "inputs": [],
      "name": "earned",
      "outputs": [
        {
          "internalType": "address[]",
          "name": "token_addresses",
          "type": "address[]"
        },
        {
          "internalType": "uint256[]",
          "name": "total_earned",
          "type": "uint256[]"
        }
      ],
      "stateMutability": "view",
      "type": "function"
    },
    {
      "inputs": [],
      "name": "feeRegistry",
      "outputs": [
        {
          "internalType": "address",
          "name": "",
          "type": "address"
        }
      ],
      "stateMutability": "view",
      "type": "function"
    },
    {
      "inputs": [],
      "name": "fxs",
      "outputs": [
        {
          "internalType": "address",
          "name": "",
          "type": "address"
        }
      ],
      "stateMutability": "view",
      "type": "function"
    },
    {
      "inputs": [],
      "name": "getReward",
      "outputs": [],
      "stateMutability": "nonpayable",
      "type": "function"
    },
    {
      "inputs": [
        {
          "internalType": "bool",
          "name": "_claim",
          "type": "bool"
        },
        {
          "internalType": "address[]",
          "name": "_rewardTokenList",
          "type": "address[]"
        }
      ],
      "name": "getReward",
      "outputs": [],
      "stateMutability": "nonpayable",
      "type": "function"
    },
    {
      "inputs": [
        {
          "internalType": "bool",
          "name": "_claim",
          "type": "bool"
        }
      ],
      "name": "getReward",
      "outputs": [],
      "stateMutability": "nonpayable",
      "type": "function"
    },
    {
      "inputs": [
        {
          "internalType": "address",
          "name": "_owner",
          "type": "address"
        },
        {
          "internalType": "address",
          "name": "_stakingAddress",
          "type": "address"
        },
        {
          "internalType": "address",
          "name": "_stakingToken",
          "type": "address"
        },
        {
          "internalType": "address",
          "name": "_rewardsAddress",
          "type": "address"
        }
      ],
      "name": "initialize",
      "outputs": [],
      "stateMutability": "nonpayable",
      "type": "function"
    },
    {
      "inputs": [
        {
          "internalType": "bytes32",
          "name": "_kek_id",
          "type": "bytes32"
        },
        {
          "internalType": "uint256",
          "name": "_addl_liq",
          "type": "uint256"
        }
      ],
      "name": "lockAdditional",
      "outputs": [],
      "stateMutability": "nonpayable",
      "type": "function"
    },
    {
      "inputs": [
        {
          "internalType": "bytes32",
          "name": "_kek_id",
          "type": "bytes32"
        },
        {
          "internalType": "uint256",
          "name": "_addl_liq",
          "type": "uint256"
        }
      ],
      "name": "lockAdditionalConvexToken",
      "outputs": [],
      "stateMutability": "nonpayable",
      "type": "function"
    },
    {
      "inputs": [
        {
          "internalType": "bytes32",
          "name": "_kek_id",
          "type": "bytes32"
        },
        {
          "internalType": "uint256",
          "name": "_addl_liq",
          "type": "uint256"
        }
      ],
      "name": "lockAdditionalCurveLp",
      "outputs": [],
      "stateMutability": "nonpayable",
      "type": "function"
    },
    {
      "inputs": [
        {
          "internalType": "bytes32",
          "name": "_kek_id",
          "type": "bytes32"
        },
        {
          "internalType": "uint256",
          "name": "new_ending_ts",
          "type": "uint256"
        }
      ],
      "name": "lockLonger",
      "outputs": [],
      "stateMutability": "nonpayable",
      "type": "function"
    },
    {
      "inputs": [
        {
          "internalType": "address",
          "name": "from",
          "type": "address"
        },
        {
          "internalType": "address",
          "name": "to",
          "type": "address"
        },
        {
          "internalType": "bytes32",
          "name": "kek_id",
          "type": "bytes32"
        },
        {
          "internalType": "bytes",
          "name": "data",
          "type": "bytes"
        }
      ],
      "name": "onLockReceived",
      "outputs": [
        {
          "internalType": "bytes4",
          "name": "",
          "type": "bytes4"
        }
      ],
      "stateMutability": "nonpayable",
      "type": "function"
    },
    {
      "inputs": [],
      "name": "owner",
      "outputs": [
        {
          "internalType": "address",
          "name": "",
          "type": "address"
        }
      ],
      "stateMutability": "view",
      "type": "function"
    },
    {
      "inputs": [],
      "name": "poolId",
      "outputs": [
        {
          "internalType": "uint256",
          "name": "",
          "type": "uint256"
        }
      ],
      "stateMutability": "view",
      "type": "function"
    },
    {
      "inputs": [],
      "name": "poolRegistry",
      "outputs": [
        {
          "internalType": "address",
          "name": "",
          "type": "address"
        }
      ],
      "stateMutability": "view",
      "type": "function"
    },
    {
      "inputs": [
        {
          "internalType": "address",
          "name": "spender",
          "type": "address"
        },
        {
          "internalType": "bytes32",
          "name": "kek_id",
          "type": "bytes32"
        }
      ],
      "name": "removeAllowance",
      "outputs": [],
      "stateMutability": "nonpayable",
      "type": "function"
    },
    {
      "inputs": [],
      "name": "rewards",
      "outputs": [
        {
          "internalType": "address",
          "name": "",
          "type": "address"
        }
      ],
      "stateMutability": "view",
      "type": "function"
    },
    {
      "inputs": [
        {
          "internalType": "address",
          "name": "spender",
          "type": "address"
        },
        {
          "internalType": "bytes32",
          "name": "kek_id",
          "type": "bytes32"
        },
        {
          "internalType": "uint256",
          "name": "amount",
          "type": "uint256"
        }
      ],
      "name": "setAllowance",
      "outputs": [],
      "stateMutability": "nonpayable",
      "type": "function"
    },
    {
      "inputs": [
        {
          "internalType": "address",
          "name": "spender",
          "type": "address"
        },
        {
          "internalType": "bool",
          "name": "approved",
          "type": "bool"
        }
      ],
      "name": "setApprovalForAll",
      "outputs": [],
      "stateMutability": "nonpayable",
      "type": "function"
    },
    {
      "inputs": [
        {
          "internalType": "address",
          "name": "_proxy",
          "type": "address"
        }
      ],
      "name": "setVeFXSProxy",
      "outputs": [],
      "stateMutability": "nonpayable",
      "type": "function"
    },
    {
      "inputs": [
        {
          "internalType": "uint256",
          "name": "_liquidity",
          "type": "uint256"
        },
        {
          "internalType": "uint256",
          "name": "_secs",
          "type": "uint256"
        }
      ],
      "name": "stakeLocked",
      "outputs": [
        {
          "internalType": "bytes32",
          "name": "kek_id",
          "type": "bytes32"
        }
      ],
      "stateMutability": "nonpayable",
      "type": "function"
    },
    {
      "inputs": [
        {
          "internalType": "uint256",
          "name": "_liquidity",
          "type": "uint256"
        },
        {
          "internalType": "uint256",
          "name": "_secs",
          "type": "uint256"
        }
      ],
      "name": "stakeLockedConvexToken",
      "outputs": [
        {
          "internalType": "bytes32",
          "name": "kek_id",
          "type": "bytes32"
        }
      ],
      "stateMutability": "nonpayable",
      "type": "function"
    },
    {
      "inputs": [
        {
          "internalType": "uint256",
          "name": "_liquidity",
          "type": "uint256"
        },
        {
          "internalType": "uint256",
          "name": "_secs",
          "type": "uint256"
        }
      ],
      "name": "stakeLockedCurveLp",
      "outputs": [
        {
          "internalType": "bytes32",
          "name": "kek_id",
          "type": "bytes32"
        }
      ],
      "stateMutability": "nonpayable",
      "type": "function"
    },
    {
      "inputs": [],
      "name": "stakingAddress",
      "outputs": [
        {
          "internalType": "address",
          "name": "",
          "type": "address"
        }
      ],
      "stateMutability": "view",
      "type": "function"
    },
    {
      "inputs": [],
      "name": "stakingToken",
      "outputs": [
        {
          "internalType": "address",
          "name": "",
          "type": "address"
        }
      ],
      "stateMutability": "view",
      "type": "function"
    },
    {
      "inputs": [
        {
          "internalType": "address",
          "name": "receiver_address",
          "type": "address"
        },
        {
          "internalType": "bytes32",
          "name": "origin_kek_id",
          "type": "bytes32"
        },
        {
          "internalType": "uint256",
          "name": "amount",
          "type": "uint256"
        },
        {
          "internalType": "bytes32",
          "name": "destination_kek_id",
          "type": "bytes32"
        }
      ],
      "name": "transferLocked",
      "outputs": [
        {
          "internalType": "bytes32",
          "name": "",
          "type": "bytes32"
        },
        {
          "internalType": "bytes32",
          "name": "",
          "type": "bytes32"
        }
      ],
      "stateMutability": "nonpayable",
      "type": "function"
    },
    {
      "inputs": [],
      "name": "usingProxy",
      "outputs": [
        {
          "internalType": "address",
          "name": "",
          "type": "address"
        }
      ],
      "stateMutability": "view",
      "type": "function"
    },
    {
      "inputs": [],
      "name": "vaultType",
      "outputs": [
        {
          "internalType": "enum IProxyVault.VaultType",
          "name": "",
          "type": "uint8"
        }
      ],
      "stateMutability": "pure",
      "type": "function"
    },
    {
      "inputs": [],
      "name": "vaultVersion",
      "outputs": [
        {
          "internalType": "uint256",
          "name": "",
          "type": "uint256"
        }
      ],
      "stateMutability": "pure",
      "type": "function"
    },
    {
      "inputs": [],
      "name": "vefxsProxy",
      "outputs": [
        {
          "internalType": "address",
          "name": "",
          "type": "address"
        }
      ],
      "stateMutability": "view",
      "type": "function"
    },
    {
      "inputs": [
        {
          "internalType": "bytes32",
          "name": "_kek_id",
          "type": "bytes32"
        }
      ],
      "name": "withdrawLocked",
      "outputs": [],
      "stateMutability": "nonpayable",
      "type": "function"
    },
    {
      "inputs": [
        {
          "internalType": "bytes32",
          "name": "_kek_id",
          "type": "bytes32"
        }
      ],
      "name": "withdrawLockedAndUnwrap",
      "outputs": [],
      "stateMutability": "nonpayable",
      "type": "function"
    }
  ],
  "bytecode": {
    "object": "0x60806040523462000027575b6200001562000036565b604051614ab3620000948239614ab390f35b62000030600080fd5b6200000b565b6200004062000079565b565b6200005262000052620000529290565b90565b62000052600162000042565b906200005262000052620000759262000042565b9055565b6200008362000055565b6200009081600562000061565b5056fe60806040526004361015610018575b610016600080fd5b005b60003560e01c80630687c4bd1461034c57806317b18c8914610343578063193ba6d11461033a5780632439242a146103315780632a554842146103285780633c62c44f1461031f5780633d18b912146103165780633e0dc34e1461030d5780634ab794a3146103045780634ac032be146102fb5780634e7adf2c146102f25780634f5aefcf146102e95780634fb07105146102e057806351e3fc17146102d75780635eb143ce146102ce578063641a6cd0146102c5578063646780df146102bc5780636a4874a1146102b357806372f702f3146102aa5780637d423446146102a15780638da5cb5b14610298578063923c1d611461028f5780639ce0ff9d146102865780639ec5a8941461027d578063a10d3b3314610274578063a22cb4651461026b578063a41ce7e914610262578063a4698feb14610259578063afcff50f14610250578063b3a408b814610247578063b61aa08c1461023e578063b85efd0614610235578063c42d8b951461022c578063cc64175114610223578063d2fbdc0d1461021a578063d6f1926214610211578063d73792a914610208578063d7b4be24146101ff578063d7c04a46146101f6578063e869565e146101ed5763f8c8765e0361000e576101e86111a7565b61000e565b506101e8611136565b506101e861110c565b506101e86110d6565b506101e86110a0565b506101e8611050565b506101e8610f59565b506101e8610f31565b506101e8610f03565b506101e8610edb565b506101e8610eb3565b506101e8610e4f565b506101e8610e13565b506101e8610dec565b506101e8610da4565b506101e8610d7c565b506101e8610d23565b506101e8610cbb565b506101e8610c73565b506101e8610c37565b506101e8610c0d565b506101e8610bc6565b506101e8610b9c565b506101e8610b54565b506101e8610b2a565b506101e8610af7565b506101e8610ab0565b506101e8610a51565b506101e86109f0565b506101e86107ef565b506101e861070e565b506101e86106e0565b506101e861064b565b506101e8610604565b506101e86105be565b506101e861057d565b506101e86104cc565b506101e86104a1565b506101e8610442565b506101e86103db565b506101e86103a6565b600080fd5b805b0361035557565b905035906103708261035a565b565b919061039690604084820312610399575b61038d8185610363565b93602001610363565b90565b6103a1600080fd5b610383565b50346103ca575b6103c16103bb366004610372565b90612f29565b604051005b0390f35b6103d2600080fd5b6103ad565b9052565b5034610409575b6103c66103f96103f3366004610372565b90612d71565b6040519182918290815260200190565b610411600080fd5b6103e2565b600091031261042157565b610370600080fd5b73ffffffffffffffffffffffffffffffffffffffff1690565b5034610494575b610454366004610416565b6103c67359cfcd384746ec3035299d90782be065e466800b5b6040519182918273ffffffffffffffffffffffffffffffffffffffff909116815260200190565b61049c600080fd5b610449565b50346104bf575b6103c66103f96104b9366004610372565b90612cec565b6104c7600080fd5b6104a8565b50346104e6575b6104de366004610416565b6103c1611660565b6104ee600080fd5b6104d3565b73ffffffffffffffffffffffffffffffffffffffff811661035c565b90503590610370826104f3565b608081830312610559575b610531828261050f565b926103966105428460208501610363565b936105508160408601610363565b93606001610363565b610561600080fd5b610527565b9081526040810192916103709160200152565b0152565b50346105b1575b61059b61059236600461051c565b92919091613619565b906103c66105a860405190565b92839283610566565b6105b9600080fd5b610584565b50346105d8575b6105d0366004610416565b6103c1613edc565b6105e0600080fd5b6105c5565b6103966103966103969290565b61039660246105e5565b6103966105f2565b5034610621575b610616366004610416565b6103c66103f96105fc565b610629600080fd5b61060b565b90610396916020818303121561036357610646600080fd5b610363565b5034610665575b6103c161066036600461062e565b61335b565b61066d600080fd5b610652565b507f4e487b7100000000000000000000000000000000000000000000000000000000600052602160045260246000fd5b600411156106ac57565b610370610672565b90610370826106a2565b610396906106b4565b6103d7906106be565b60208101929161037091906106c7565b5034610701575b6106f2366004610416565b604051806103c66002826106d0565b610709600080fd5b6106e7565b503461072b575b610720366004610416565b6103c66103f9611b03565b610733600080fd5b610715565b80151561035c565b9050359061037082610738565b909182601f8301121561078c575b602082359267ffffffffffffffff841161077f575b01926020830284011161042157565b610787600080fd5b610770565b610794600080fd5b61075b565b91906107d1906040848203126107e2575b6107b48185610740565b9360208101359067ffffffffffffffff82116107d5575b0161074d565b9091565b6107dd600080fd5b6107cb565b6107ea600080fd5b6107aa565b503461080a575b6103c1610804366004610799565b9161494e565b610812600080fd5b6107f6565b601f017fffffffffffffffffffffffffffffffffffffffffffffffffffffffffffffffe01690565b507f4e487b7100000000000000000000000000000000000000000000000000000000600052604160045260246000fd5b90601f017fffffffffffffffffffffffffffffffffffffffffffffffffffffffffffffffe016810190811067ffffffffffffffff8211176108af57604052565b6108b761083f565b604052565b906103706108c960405190565b928361086f565b61090d60209167ffffffffffffffff811161091157601f017fffffffffffffffffffffffffffffffffffffffffffffffffffffffffffffffe01690565b0190565b61081761083f565b90826000939282370152565b9291906103709161093d610938836108d0565b6108bc565b948286526020860191838201111561091957610957600080fd5b610919565b906103969181601f82011215610978575b602081359101610925565b610980600080fd5b61096d565b6080818303126109e3575b61099a828261050f565b926103966109ab846020850161050f565b936109b98160408601610363565b9360608101359067ffffffffffffffff82116109d6575b0161095c565b6109de600080fd5b6109d0565b6109eb600080fd5b610990565b5034610a44575b6103c6610a11610a08366004610985565b92919091611c55565b604051918291827fffffffff00000000000000000000000000000000000000000000000000000000909116815260200190565b610a4c600080fd5b6109f7565b5034610a6b575b6103c1610a6636600461062e565b6130dd565b610a73600080fd5b610a58565b610396916008021c73ffffffffffffffffffffffffffffffffffffffff1690565b906103969154610a78565b61039660006007610a99565b5034610acd575b610ac2366004610416565b6103c661046d610aa4565b610ad5600080fd5b610ab7565b90610396916020818303121561050f57610af2600080fd5b61050f565b5034610b11575b6103c1610b0c366004610ada565b6117f2565b610b19600080fd5b610afe565b61039660006006610a99565b5034610b47575b610b3c366004610416565b6103c661046d610b1e565b610b4f600080fd5b610b31565b5034610b83575b610b66366004610416565b6103c673d533a949740bb3306d119cc777fa900ba034cd5261046d565b610b8b600080fd5b610b5b565b61039660006002610a99565b5034610bb9575b610bae366004610416565b6103c661046d610b90565b610bc1600080fd5b610ba3565b5034610bf5575b610bd8366004610416565b6103c6733432b6a60d23ca0dfca7761b7ab56459d9c964d061046d565b610bfd600080fd5b610bcd565b610396600080610a99565b5034610c2a575b610c1f366004610416565b6103c661046d610c02565b610c32600080fd5b610c14565b5034610c66575b610c49366004610416565b6103c6734e3fbd56cd56c3e72c1403e103b45db9da5b9d2b61046d565b610c6e600080fd5b610c3e565b5034610ca2575b610c85366004610416565b6103c673f403c135812408bfbe8713b5a23a04b3d48aae3161046d565b610caa600080fd5b610c7a565b61039660006003610a99565b5034610cd8575b610ccd366004610416565b6103c661046d610caf565b610ce0600080fd5b610cc2565b9091606082840312610d16575b610396610cff848461050f565b93610d0d8160208601610363565b93604001610363565b610d1e600080fd5b610cf2565b5034610d3e575b6103c1610d38366004610ce5565b91613402565b610d46600080fd5b610d2a565b919061039690604084820312610d6f575b610d66818561050f565b93602001610740565b610d77600080fd5b610d5c565b5034610d97575b6103c1610d91366004610d4b565b906134c4565b610d9f600080fd5b610d83565b5034610dc2575b6103c66103f9610dbc366004610372565b9061278f565b610dca600080fd5b610dab565b90610396916020818303121561074057610de7600080fd5b610740565b5034610e06575b6103c1610e01366004610dcf565b613f12565b610e0e600080fd5b610df3565b5034610e42575b610e25366004610416565b6103c67341a5881c17185383e19df6fa4ec158a6f4851a6961046d565b610e4a600080fd5b610e1a565b5034610e7e575b610e61366004610416565b6103c673c9acb83ada68413a6aa57007bc720ee2e2b3c46d61046d565b610e86600080fd5b610e56565b919061039690604084820312610ea6575b61038d818561050f565b610eae600080fd5b610e9c565b5034610ece575b6103c1610ec8366004610e8b565b9061344e565b610ed6600080fd5b610eba565b5034610ef6575b6103c1610ef0366004610372565b90612e54565b610efe600080fd5b610ee2565b5034610f24575b6103c6610a11610f1b366004610985565b92919091612070565b610f2c600080fd5b610f0a565b5034610f4c575b6103c1610f46366004610372565b90612fa8565b610f54600080fd5b610f38565b5034610f74575b6103c1610f6e366004610372565b90613049565b610f7c600080fd5b610f60565b90610fa1610f9a610f90845190565b8084529260200190565b9260200190565b9060005b818110610fb25750505090565b909192610fe5610fde600192865173ffffffffffffffffffffffffffffffffffffffff16815260200190565b9460200190565b929101610fa5565b90610ffc610f9a610f90845190565b9060005b81811061100d5750505090565b909192611023610fde6001928651815260200190565b929101611000565b604080825261039693919261104291840190610f81565b916020818403910152610fed565b5034611080575b611062366004610416565b61106a6139b8565b906103c661107760405190565b9283928361102b565b611088600080fd5b611057565b6103966127106105e5565b61039661108d565b50346110bd575b6110b2366004610416565b6103c66103f9611098565b6110c5600080fd5b6110a7565b61039660006001610a99565b50346110f3575b6110e8366004610416565b6103c661046d6110ca565b6110fb600080fd5b6110dd565b61039660006004610a99565b5034611129575b61111e366004610416565b6103c661046d611100565b611131600080fd5b611113565b5034611150575b6103c161114b366004610ada565b61162f565b611158600080fd5b61113d565b60808183031261119a575b611172828261050f565b92610396611183846020850161050f565b93611191816040860161050f565b9360600161050f565b6111a2600080fd5b611168565b50346111c5575b6103c16111bc36600461115d565b929190916122cc565b6111cd600080fd5b6111ae565b156111d957565b6040517f08c379a000000000000000000000000000000000000000000000000000000000815260206004820152600b60248201527f21617574685f61646d696e0000000000000000000000000000000000000000006044820152606490fd5b0390fd5b6103709061127e7359cfcd384746ec3035299d90782be065e466800b5b611278335b9173ffffffffffffffffffffffffffffffffffffffff1690565b146111d2565b611393565b61039690610429565b6103969054611283565b6104296103966103969273ffffffffffffffffffffffffffffffffffffffff1690565b61039690611296565b610396906112b9565b9050519061037082610738565b9061039691602081830312156112cb576112f0600080fd5b6112cb565b506040513d6000823e3d90fd5b905051906103708261035a565b90610396916020818303121561130257611327600080fd5b611302565b73ffffffffffffffffffffffffffffffffffffffff90911681526040810192916103709160200152565b9073ffffffffffffffffffffffffffffffffffffffff905b9181191691161790565b9061138861039661138f926112c2565b8254611356565b9055565b6113c560206113ad6113a86113a8600361128c565b6112c2565b6302fb0c5e906113bc60405190565b93849260e01b90565b825260049082905afa908115611622575b6000916115f4575b506113f8575b6113ef816003611378565b506103706118da565b61145a602061140d6113a86113a8600361128c565b6370a082319061143661141f306112c2565b9261142960405190565b9586948593849360e01b90565b835273ffffffffffffffffffffffffffffffffffffffff1660048301526024820190565b03915afa9081156115e7575b6000916115b9575b5060009061147b826105e5565b8111611522575b506114c4816114976113a86113a8600361128c565b63c00007b090611436836114aa8161128c565b93833b15611515575b6040515b9687958694859360e01b90565b03925af18015611508575b6114db575b50506113e4565b816114fa92903d10611501575b6114f2818361086f565b810190610416565b38806114d4565b503d6114e8565b6115106112f5565b6114cf565b61151d600080fd5b6114b3565b816115336113a86113a8600361128c565b63f3fef3a390611568836115468161128c565b93833b156115ac575b61157361155b60405190565b9788968795869460e01b90565b84526004840161132c565b03925af1801561159f575b156114825761159990823d8411611501576114f2818361086f565b38611482565b6115a76112f5565b61157e565b6115b4600080fd5b61154f565b6115da915060203d81116115e0575b6115d2818361086f565b81019061130f565b3861146e565b503d6115c8565b6115ef6112f5565b611466565b611615915060203d811161161b575b61160d818361086f565b8101906112d8565b386113de565b503d611603565b61162a6112f5565b6113d6565b6103709061123c565b6116557359cfcd384746ec3035299d90782be065e466800b611259565b610370610370611754565b610370611638565b6020809167ffffffffffffffff811161168057020190565b61168861083f565b020190565b9092919261169d61093882611668565b93818552602080860192028301928184116116db575b915b8383106116c25750505050565b602080916116d08486611302565b8152019201916116b5565b6116e3600080fd5b6116b3565b906103969181601f82011215611704575b60208151910161168d565b61170c600080fd5b6116f9565b9061039691602081830312611747575b80519067ffffffffffffffff821161173a575b016116e8565b611742600080fd5b611734565b61174f600080fd5b611721565b61178660006117696113a86113a8600161128c565b63c00007b0906114368361177c306112c2565b936114b760405190565b03925af19081156117bb575b60009161179d575050565b6117b8913d8091833e6117b0818361086f565b810190611711565b50565b6117c36112f5565b611792565b610370906117e97359cfcd384746ec3035299d90782be065e466800b611259565b610370906117fb565b610370906117c8565b61182660006118106113a86113a8600161128c565b63d7400d5690803b15611888575b6040516113bc565b825273ffffffffffffffffffffffffffffffffffffffff85166004830152602490829084905af1801561187b575b611865575b506117b8816004611378565b6118759060006114f2818361086f565b38611859565b6118836112f5565b611854565b611890600080fd5b61181e565b507f4e487b7100000000000000000000000000000000000000000000000000000000600052601160045260246000fd5b919082039182116118d257565b610370611895565b6118ef60206113ad6113a86113a8600361128c565b825260049082905afa908115611af6575b600091611ad8575b5061190f57565b6119b86119226113a86113a8600161128c565b61194b63d9f96e8d9160203093611938856112c2565b9261194260405190565b94859260e01b90565b825273ffffffffffffffffffffffffffffffffffffffff8416600483015260249082905afa918215611acb575b600092611aab575b5081926020925061143661199a6113a86113a8600361128c565b916370a0823190506119ab60405190565b9687948593849360e01b90565b03915afa918215611a9e575b600092611a7e575b50818110611a54576000906119e76113a86113a8600361128c565b61156883611a036347e7ef24966119fd8361128c565b956118c5565b95833b15611a47575b611a1861155b60405190565b03925af18015611a3a575b611a2a5750565b6103709060006114f2818361086f565b611a426112f5565b611a23565b611a4f600080fd5b611a0c565b90600090611a686113a86113a8600361128c565b61156883611a0363f3fef3a3966119fd8361128c565b611a9791925060203d81116115e0576115d2818361086f565b90386119cc565b611aa66112f5565b6119c4565b60209250611ac590833d81116115e0576115d2818361086f565b91611980565b611ad36112f5565b611978565b611af0915060203d811161161b5761160d818361086f565b38611908565b611afe6112f5565b611900565b61039660046105e5565b90611b1a610938836108d0565b918252565b611b29601c611b0d565b7f6265666f72654c6f636b5472616e736665722061742073656e64657200000000602082015290565b610396611b1f565b15611b6157565b6040517f08c379a000000000000000000000000000000000000000000000000000000000815260206004820152600e60248201527f696e76616c696420706172616d730000000000000000000000000000000000006044820152606490fd5b90505190610370826104f3565b906103969160208183031215611bc057611be5600080fd5b611bc0565b908152604081019291610370916020905b019073ffffffffffffffffffffffffffffffffffffffff169052565b611c30611c2a6103969263ffffffff1690565b60e01b90565b7fffffffff000000000000000000000000000000000000000000000000000000001690565b92509050611c6b8183611c66611b52565b611ec6565b3090611c76826112c2565b92611c9673ffffffffffffffffffffffffffffffffffffffff851661125e565b1480611e1b575b611ca690611b5a565b611d6d61125e611cca6113a87341a5881c17185383e19df6fa4ec158a6f4851a6981565b611d0263bfff576f91611cdb6105f2565b906020611cea6113a8896112c2565b638da5cb5b90611cf960405190565b95869260e01b90565b825260049082906000905af1928315611e0e575b600093611de7575b50611d34600060209495611d3f61155b60405190565b845260048401611bea565b03925af1908115611dda575b600091611dac575b5073ffffffffffffffffffffffffffffffffffffffff1690565b03611d81575050610396634fb07105611c17565b6040517fae59d4f4000000000000000000000000000000000000000000000000000000008152600490fd5b611dcd915060203d8111611dd3575b611dc5818361086f565b810190611bcd565b38611d53565b503d611dbb565b611de26112f5565b611d4b565b602093506000611e06611d3492863d8111611dd357611dc5818361086f565b945050611d1e565b611e166112f5565b611d16565b50611ca633611e3061125e610429600161128c565b149050611c9d565b60005b838110611e4b5750506000910152565b8181015183820152602001611e3b565b611e7c61081760209361090d93611e70815190565b80835293849260200190565b95869101611e38565b604090611bfb611ea76103709597969460608401908482036000860152611e5b565b73ffffffffffffffffffffffffffffffffffffffff9097166020830152565b611f1b90611f0c61037094611eda60405190565b9485936004602086017ffcec75e000000000000000000000000000000000000000000000000000000000815201611e85565b6020820181038252038261086f565b60008091611f27815190565b906020016a636f6e736f6c652e6c6f675afa50565b611f46601a611b0d565b7f6f6e4c6f636b5265636569766564206174207265636569766572000000000000602082015290565b610396611f3c565b611f816023611b0d565b7f43616c6c696e67206f776e65722077697468696e206f6e4c6f636b526563656960208201527f7665640000000000000000000000000000000000000000000000000000000000604082015290565b610396611f77565b7fffffffff00000000000000000000000000000000000000000000000000000000811661035c565b9050519061037082611fd8565b90610396916020818303121561200057612025600080fd5b612000565b73ffffffffffffffffffffffffffffffffffffffff918216815291166020820152610396926080820192909190612063905b6040830152565b6060818403910152611e5b565b90919261207b600090565b5073__$03410bdb5b6e31ba206af5f1ba44259eff$__61209e8484611c66611f6f565b30946120a9866112c2565b9573ffffffffffffffffffffffffffffffffffffffff871673ffffffffffffffffffffffffffffffffffffffff871614806121cb575b6120e890611b5a565b6120f2600061128c565b3b92600093612107612103866105e5565b9190565b11156121b5576020969761215e94939261212f92506121258561128c565b9050611c66611fd0565b6121696121416113a86113a88561128c565b9463c42d8b959261215160405190565b998a988997889660e01b90565b86526004860161202a565b03925af19081156121a8575b600091612180575090565b610396915060203d81116121a1575b612199818361086f565b81019061200d565b503d61218f565b6121b06112f5565b612175565b50945050505050505061039663c42d8b95611c17565b506120e8336121e061125e610429600161128c565b1490506120df565b6104296103966103969290565b610396906121e8565b1561220557565b6040517f08c379a000000000000000000000000000000000000000000000000000000000815260206004820152600c60248201527f616c726561647920696e697400000000000000000000000000000000000000006044820152606490fd5b909160c0828403126122bf575b61227b8383611bc0565b926122898160208501611bc0565b926122978260408301611bc0565b926103966122a88460608501611bc0565b936122b68160808601611bc0565b9360a0016112cb565b6122c7600080fd5b612271565b6123b8908392946122dd600061128c565b916122f96000936122f361125e610429876121f5565b146121fe565b6123038184611378565b5061230f866001611378565b61231a846002611378565b612325816003611378565b5060c06123756123496113a873f403c135812408bfbe8713b5a23a04b3d48aae3181565b83631526fe27602061235d6113a88a6112c2565b63e529ee959061236c60405190565b96879260e01b90565b825260049082905afa938415612598575b600094612572575b50906123aa9161239d60405190565b9788958694859360e01b90565b835260048301526024820190565b03925af1908115612565575b600092839261252f575b506123da826006611378565b6123e5836007611378565b6123ee846112c2565b6123f7906112c2565b9563095ea7b3937fffffffffffffffffffffffffffffffffffffffffffffffffffffffffffffffff9761242960405190565b8080946124368960e01b90565b82528b60048301916124479261132c565b0381865a94602095f19088821560209961247b6113a8611568996124a1986113a8988f96612522575b61250c575b506112c2565b611568888b61248c61155b60405190565b03925af180156124ff575b6124e457506112c2565b926124ae61155b60405190565b03925af180156124d7575b6124c05750565b6117b89060203d811161161b5761160d818361086f565b6124df6112f5565b6124b9565b6124fa90893d811161161b5761160d818361086f565b612475565b6125076112f5565b612497565b6124fa90863d811161161b5761160d818361086f565b61252a6112f5565b612470565b909250612553915060c03d811161255e575b61254b818361086f565b810190612264565b5050509290926123ce565b503d612541565b61256d6112f5565b6123c4565b6123aa929194506125909060203d81116115e0576115d2818361086f565b93909161238e565b6125a06112f5565b612386565b156125ac57565b6040517f08c379a000000000000000000000000000000000000000000000000000000000815260206004820152600560248201527f21617574680000000000000000000000000000000000000000000000000000006044820152606490fd5b90610396929161262d61261e600061128c565b6126273361125e565b146125a5565b90612640929161263b61285b565b612649565b9061037061288e565b9291906000612657816105e5565b8211612669575b5050506103706118da565b60209294506126ce8161267f6113a8600661128c565b3390612698863092612690846112c2565b9485916128c7565b6126c2836126ac6113a86113a8600261128c565b9250636e553f65833b15611515576040516114b7565b83528a60048401611bea565b03925af18015612782575b612766575b506127116126f26113a86113a8600161128c565b916317b18c8961271c61270460405190565b9889968795869460e01b90565b845260048401610566565b03925af1918215612759575b600092612739575b5081388061265e565b61275291925060203d81116115e0576115d2818361086f565b9038612730565b6127616112f5565b612728565b61277c90823d8411611501576114f2818361086f565b386126de565b61278a6112f5565b6126d9565b6103969190600061260b565b6103969081565b610396905461279b565b61039660026105e5565b156127bd57565b6040517f08c379a000000000000000000000000000000000000000000000000000000000815260206004820152601f60248201527f5265656e7472616e637947756172643a207265656e7472616e742063616c6c006044820152606490fd5b907fffffffffffffffffffffffffffffffffffffffffffffffffffffffffffffffff9061136e565b9061285461039661138f926105e5565b825461281c565b61286560056127a2565b6128796128706127ac565b918214156127b6565b6117b8816005612844565b61039660016105e5565b612879612884565b73ffffffffffffffffffffffffffffffffffffffff9182168152911660208201526060810192916103709160400152565b9061291690612907610370956004956128df866112c2565b506128ed6323b872dd611c17565b936128f760405190565b9788956020870190815201612896565b6020820181038252038361086f565b6129e2565b6129256020611b0d565b7f5361666545524332303a206c6f772d6c6576656c2063616c6c206661696c6564602082015290565b61039661291b565b1561295d57565b6040517f08c379a000000000000000000000000000000000000000000000000000000000815260206004820152602a60248201527f5361666545524332303a204552433230206f7065726174696f6e20646964206e60448201527f6f742073756363656564000000000000000000000000000000000000000000006064820152608490fd5b906129ef6129fe926112c2565b906129f861294e565b91612a32565b8051612a0d61210360006105e5565b11612a155750565b805161037091612a2d916020908183010191016112d8565b612956565b6103969291612a4160006105e5565b91612af2565b15612a4e57565b6040517f08c379a000000000000000000000000000000000000000000000000000000000815260206004820152602660248201527f416464726573733a20696e73756666696369656e742062616c616e636520666f60448201527f722063616c6c00000000000000000000000000000000000000000000000000006064820152608490fd5b3d15612aed57612ae23d611b0d565b903d6000602084013e565b606090565b90600061039694938192612b04606090565b50612b1b612b11306112c2565b8390311015612a47565b60208101905191855af1612b2d612ad3565b91612b99565b15612b3a57565b6040517f08c379a000000000000000000000000000000000000000000000000000000000815260206004820152601d60248201527f416464726573733a2063616c6c20746f206e6f6e2d636f6e74726163740000006044820152606490fd5b919260609115612bcf5750508151612bb461210360006105e5565b14612bbd575090565b61039690612bca90612bdc565b612b33565b9093926103709250612bff565b3b612bea61210360006105e5565b1190565b602080825261039692910190611e5b565b9150612c09825190565b612c1661210360006105e5565b1115612c255750805190602001fd5b6040517f08c379a00000000000000000000000000000000000000000000000000000000081529081906112389060048301612bee565b906103969291612c6e61261e600061128c565b906126409291612c7c61285b565b9291906000612c8a816105e5565b8211612c9b575050506103706118da565b60209294506126ce81612cb16113a8600761128c565b3390612cc2863092612690846112c2565b6126c283612cd66113a86113a8600261128c565b9250637acb7757833b15611515576040516114b7565b61039691906000612c5b565b906103969291612d0b61261e600061128c565b906126409291612d1961285b565b9291906000612d27816105e5565b8211612d38575050506103706118da565b6020929450612d5e82612d4e6113a8600261128c565b33612d58306112c2565b916128c7565b6127116126f26113a86113a8600161128c565b61039691906000612cf8565b9061037091612d8f61261e600061128c565b90612da191612d9c61285b565b612da9565b61037061288e565b90600091612db6836105e5565b8211612dc7575050506103706118da565b8290612dda83612d4e6113a8600261128c565b612dea6113a86113a8600161128c565b6127118363b85efd06833b15612e47575b612e0761155b60405190565b03925af18015612e3a575b612e1d575b8061265e565b81612e3392903d10611501576114f2818361086f565b3880612e17565b612e426112f5565b612e12565b612e4f600080fd5b612dfb565b9061037091612d7d565b9061037091612e7061261e600061128c565b90612da191612e7d61285b565b90600091612e8a836105e5565b8211612e9b575050506103706118da565b8290612edf82612eae6113a8600661128c565b3390612ebf873092612690846112c2565b612ed3836126ac6113a86113a8600261128c565b83528b60048401611bea565b03925af18015612f1c575b612f00575b50612dea6113a86113a8600161128c565b612f1690833d8511611501576114f2818361086f565b38612eef565b612f246112f5565b612eea565b9061037091612e5e565b9061037091612f4561261e600061128c565b90612da191612f5261285b565b90600091612f5f836105e5565b8211612f70575050506103706118da565b8290612edf82612f836113a8600761128c565b3390612f94873092612690846112c2565b612ed383612cd66113a86113a8600261128c565b9061037091612f33565b9061037091612fc461261e600061128c565b90612da191612fd161285b565b600090612fe46113a86113a8600161128c565b6127118363d2fbdc0d833b1561303c575b61300161155b60405190565b03925af1801561302f575b61301957506103706118da565b6130299060006114f2818361086f565b386113ef565b6130376112f5565b61300c565b613044600080fd5b612ff5565b9061037091612fb2565b6103709061306461261e600061128c565b612da19061307061285b565b60206130826113a86113a8600161128c565b9163e44b9fa592611d346000339561309c61155b60405190565b03925af180156130d0575b6130b457506103706118da565b6130cb9060203d81116115e0576115d2818361086f565b6113ef565b6130d86112f5565b6130a7565b61037090613053565b610370906130f761261e600061128c565b612da19061310361285b565b61324260006131186113a86113a8600161128c565b92602063e44b9fa5913095611d3461312f886112c2565b95869561313e61155b60405190565b03925af1801561334e575b613332575b5061315f6113a86113a8600261128c565b906131e26000633969dfb49361317b6113a86113a8600261128c565b906370a0823195602061318d60405190565b80946131998a60e01b90565b825273ffffffffffffffffffffffffffffffffffffffff8916600483015260249082905afa928315613325575b84936132ff575b50836123aa91833b15611515576040516114b7565b03925af180156132f2575b6132dc575b5060206132056113a86113a8600661128c565b9163a9059cbb95611436613219600061128c565b9561322a6113a86113a8600661128c565b925061323560405190565b9788948593849360e01b90565b03915afa9283156132cf575b6000936132a8575b5061156860006020949561326c61155b60405190565b03925af1801561329b575b61328457506103706118da565b6130cb9060203d811161161b5761160d818361086f565b6132a36112f5565b613277565b6020935060006132c761156892863d81116115e0576115d2818361086f565b945050613256565b6132d76112f5565b61324e565b6132ec9060006114f2818361086f565b386131f2565b6132fa6112f5565b6131ed565b6123aa91935061331d859160203d81116115e0576115d2818361086f565b9391506131cd565b61332d6112f5565b6131c6565b6133499060203d81116115e0576115d2818361086f565b61314e565b6133566112f5565b613149565b610370906130e6565b90610370929161337761261e600061128c565b6133b0565b73ffffffffffffffffffffffffffffffffffffffff9091168152606081019392610370929091604091610579906020830152565b600091926133ea836133c86113a86113a8600161128c565b92611a1863a10d3b3391853b156133f5575b6040519889978896879560e01b90565b85526004850161337c565b6133fd600080fd5b6133da565b906103709291613364565b906103709161341f61261e600061128c565b6000906134326113a86113a8600161128c565b6115688363b61aa08c833b15611a4757611a1861155b60405190565b906103709161340d565b906103709161346a61261e600061128c565b60009061347d6113a86113a8600161128c565b6134998363a22cb465833b15611a4757611a1861155b60405190565b845273ffffffffffffffffffffffffffffffffffffffff166004840152151560248301526044820190565b9061037091613458565b906107d195949392916134e461261e600061128c565b906134fa95949392916134f561285b565b613573565b909161037061288e565b919061039690604084820312613528575b61351f8185611302565b93602001611302565b613530600080fd5b613515565b6105796103709461205c60609498979561356c608086019a600087019073ffffffffffffffffffffffffffffffffffffffff169052565b6020850152565b6040946135bd92600092989794959850506135c86135a06113a86113a8600161359b81613f12565b61128c565b94633c62c44f926135b060405190565b9a8b988997889660e01b90565b865260048601613535565b03925af1801561360c575b60009283916135e157509190565b90506107d191925060403d8111613605575b6135fd818361086f565b810190613504565b503d6135f3565b6136146112f5565b6135d3565b6107d1939291906000806134ce565b9092919261363861093882611668565b9381855260208086019202830192818411613676575b915b83831061365d5750505050565b6020809161366b8486611bc0565b815201920191613650565b61367e600080fd5b61364e565b906103969181601f8201121561369f575b602081519101613628565b6136a7600080fd5b613694565b90610396916020818303126136e2575b80519067ffffffffffffffff82116136d5575b01613683565b6136dd600080fd5b6136cf565b6136ea600080fd5b6136bc565b91909160408184031261372b575b61372561370a60406108bc565b9360006137178285611bc0565b908601526020809301611302565b90830152565b613733600080fd5b6136fd565b9092919261374861093882611668565b938185526040602086019202830192818411613788575b915b83831061376e5750505050565b602060409161377d84866136ef565b815201920191613761565b613790600080fd5b61375f565b906103969181601f820112156137b1575b602081519101613738565b6137b9600080fd5b6137a6565b90610396916020818303126137f4575b80519067ffffffffffffffff82116137e7575b01613795565b6137ef600080fd5b6137e1565b6137fc600080fd5b6137ce565b919082018092116118d257565b90611b1a61093883611668565b369037565b906103706138366138308461380e565b93611668565b7fffffffffffffffffffffffffffffffffffffffffffffffffffffffffffffffe0016020840161381b565b6001907fffffffffffffffffffffffffffffffffffffffffffffffffffffffffffffffff811461388f570190565b61090d611895565b507f4e487b7100000000000000000000000000000000000000000000000000000000600052603260045260246000fd5b90602080916138d4845190565b8110156138e2575b02010190565b6138ea613897565b6138dc565b909291926138ff61093882611668565b93818552604060208601920283019281841161393f575b915b8383106139255750505050565b602060409161393484866136ef565b815201920191613918565b613947600080fd5b613916565b906103969181601f82011215613968575b6020815191016138ef565b613970600080fd5b61395d565b90610396916020818303126139ab575b80519067ffffffffffffffff821161399e575b0161394c565b6139a6600080fd5b613998565b6139b3600080fd5b613985565b6139dd9060006139ce6113a86113a8600161128c565b6312edb24c9061194260405190565b825260049082905afa918215613ecf575b600092613ea8575b50613a8a90613a0b6113a86113a8600161128c565b309390613a2a6000628cc262613a20886112c2565b936113bc60405190565b825273ffffffffffffffffffffffffffffffffffffffff8516600483015260249082905afa908115613e9b575b600091613e82575b506000613a726113a86113a8600261128c565b63b277e8f090613a8160405190565b97889260e01b90565b825273ffffffffffffffffffffffffffffffffffffffff8516600483015260249082905afa948515613e75575b600095613e52575b50613ae46020613ad56113a86113a8600361128c565b63857cb94a906113bc60405190565b825260049082905afa908115613e45575b600091613e27575b50613b23613b1e613b1583613b10885190565b613801565b88515b90613801565b613820565b908196613b3f613b1e613b3884613b108a5190565b8351613b18565b968792600092613b4e846105e5565b9a5b613b5b6103968b5190565b8c1015613c53578b613c158c8f613bc5613bf88f8f8f908f9561143661199a6113a86113a8613bab8e613bf2613bee82613c129f9b81613be88f9e60209f613bc5613bab8583613bcd94506138c7565b5173ffffffffffffffffffffffffffffffffffffffff1690565b9384926138c7565b9073ffffffffffffffffffffffffffffffffffffffff169052565b506138c7565b5190565b996138c7565b03915afa918215613c46575b600092613c26575b50613801565b52565b50613c1f8c613861565b9b50613b50565b613c3f91925060203d81116115e0576115d2818361086f565b9038613c0c565b613c4e6112f5565b613c04565b92959790939650613c95989a508691949b611436613c776113a86113a8600361128c565b9163dc01f60d9050613c8860405190565b9b8c948593849360e01b90565b03915afa968715613e1a575b600097613df7575b50613cb3856105e5565b995b613cc0610396895190565b8b1015613d555789613d448a613c12613d3e8f613b18613d368f8f8f82613d24613be88d613bcd613d3096613d2a613d1d8d9860209b50613d018a8a6138c7565b51015173ffffffffffffffffffffffffffffffffffffffff1690565b9586945190565b88613801565b906138c7565b51015190565b968795505190565b8d6138c7565b50613d4e8b613861565b9a50613cb5565b919594939950919550613d67836105e5565b985b613d74610396875190565b8a1015613deb5788613dda89613c12613dd48b8f80613b18613dcc8f8f8f9582613dc6613be88f613bcd613d3096613d2a8e613b10613b109f613dbf9060209d50613d018c8c6138c7565b9788965190565b8a613801565b988997505190565b8c6138c7565b50613de48a613861565b9950613d69565b96509650965050505050565b613e1391973d8091833e613e0b818361086f565b810190613975565b9538613ca9565b613e226112f5565b613ca1565b613e3f915060203d81116115e0576115d2818361086f565b38613afd565b613e4d6112f5565b613af5565b613e6e91953d8091833e613e66818361086f565b8101906137be565b9338613abf565b613e7d6112f5565b613ab7565b613e95913d8091833e6117b0818361086f565b38613a5f565b613ea36112f5565b613a57565b613ec890613a8a92933d8091833e613ec0818361086f565b8101906136ac565b91906139f6565b613ed76112f5565b6139ee565b6103706001613f12565b73ffffffffffffffffffffffffffffffffffffffff909116815260408101929161037091602090611bfb565b613f93575b613f1f6142a0565b613f65613f466000613f376113a86113a8600161128c565b6312edb24c906113bc60405190565b825260049082905afa908115613f86575b600091613f6d575b506147f2565b610370614598565b613f80913d8091833e613ec0818361086f565b38613f5f565b613f8e6112f5565b613f57565b613fa36113a86113a8600161128c565b61410830613fc4600063c00007b0613fba846112c2565b956113bc60405190565b825273ffffffffffffffffffffffffffffffffffffffff87166004830152602490829084905af19081156141fc575b6000916141e3575b505061403160006140126113a86113a8600261128c565b636b09169590614025836114aa8161128c565b83528b60048401613ee6565b03925af180156141d6575b6141c0575b5073d533a949740bb3306d119cc777fa900ba034cd52906020614063836112c2565b9461406d866112c2565b936370a08231948361407e60405190565b809261408a8960e01b90565b825273ffffffffffffffffffffffffffffffffffffffff8616600483015260249082905afa9081156141b3575b600091614196575b506000976140cc896105e5565b8211614180575b5050506140f1734e3fbd56cd56c3e72c1403e103b45db9da5b9d2b90565b926114366140fe856112c2565b9561322a876112c2565b03915afa928315614173575b600093614153575b50614126846105e5565b8311614136575b50505050613f17565b61414a93614144915061128c565b90614209565b3880808061412d565b61416c91935060203d81116115e0576115d2818361086f565b913861411c565b61417b6112f5565b614114565b61418e92506141448961128c565b3880806140d3565b6141ad9150843d81116115e0576115d2818361086f565b386140bf565b6141bb6112f5565b6140b7565b6141d09060006114f2818361086f565b38614041565b6141de6112f5565b61403c565b6141f6913d8091833e6117b0818361086f565b38613ffb565b6142046112f5565b613ff3565b6129166004926129076103709561421f856112c2565b5061422d63a9059cbb611c17565b9261423760405190565b968794602086019081520161132c565b818102929181159184041417156118d257565b507f4e487b7100000000000000000000000000000000000000000000000000000000600052601260045260246000fd5b8115614294570490565b61429c61425a565b0490565b602073c9acb83ada68413a6aa57007bc720ee2e2b3c46d6142c0816112c2565b6142c9816112c2565b6313114a9d6142e16142da60405190565b9160e01b90565b81528481600481855afa90811561458b575b60009161456e575b5084611436733432b6a60d23ca0dfca7761b7ab56459d9c964d09561431f876112c2565b93614329856112c2565b956370a082319261437c61436e3094614354614344876112c2565b9e8f8d6114368b61142960405190565b03915afa908115614561575b600091614544575b50614247565b61437661108d565b9061428a565b6000996143888b6105e5565b821161446b575b50505050506143ab6143a060405190565b988993849360e01b90565b0381855afa94851561445e575b60009561443e575b506143ca836105e5565b85116143d8575b5050505050565b602093505061156863a9059cbb926143ef8161128c565b936143fc61155b60405190565b03925af18015614431575b614415575b808080806143d1565b61442c9060203d811161161b5761160d818361086f565b61440c565b6144396112f5565b614407565b61445791955060203d81116115e0576115d2818361086f565b93386143c0565b6144666112f5565b6143b8565b61449693889163a9059cbb94505063998cbb439061143661448c600461128c565b9261323560405190565b03915afa928315614537575b60009361450c575b5086916144ca8261156893506144bf60405190565b958694859460e01b90565b03818b8b5af180156144ff575b6144e4575b80808061438f565b6144fa90853d811161161b5761160d818361086f565b6144dc565b6145076112f5565b6144d7565b611568919350916144ca61452d8994853d8111611dd357611dc5818361086f565b94925050916144aa565b61453f6112f5565b6144a2565b61455b91508a3d81116115e0576115d2818361086f565b38614368565b6145696112f5565b614360565b6145859150853d81116115e0576115d2818361086f565b386142fb565b6145936112f5565b6142f3565b6145ad60206113ad6113a86113a8600361128c565b825260049082905afa9081156147e5575b6000916147c7575b506145cd57565b6145fb6145e06113a86113a8600361128c565b3060206370a082316145f1836112c2565b93611cf960405190565b825273ffffffffffffffffffffffffffffffffffffffff8516600483015260249082905afa9283156147ba575b600093614792575b5061465c9160209161143661464b6113a86113a8600161128c565b9163d9f96e8d905061142960405190565b03915afa908115614785575b600091614767575b50600091614680612103846105e5565b1480614756575b6146d7575b506146a1816114976113a86113a8600361128c565b03925af180156146ca575b6146b4575050565b8161037092903d10611501576114f2818361086f565b6146d26112f5565b6146ac565b816146e86113a86113a8600361128c565b6347e7ef2490611568836146fb8161128c565b93833b15614749575b61471061155b60405190565b03925af1801561473c575b1561468c5761473690823d8411611501576114f2818361086f565b3861468c565b6147446112f5565b61471b565b614751600080fd5b614704565b50614760826105e5565b8111614687565b61477f915060203d81116115e0576115d2818361086f565b38614670565b61478d6112f5565b614668565b6020919350916147b161465c93833d81116115e0576115d2818361086f565b93915091614630565b6147c26112f5565b614628565b6147df915060203d811161161b5761160d818361086f565b386145c6565b6147ed6112f5565b6145be565b60006147fd816105e5565b925b61480a610396845190565b8410156148e25761481e613bab85856138c7565b61483b733432b6a60d23ca0dfca7761b7ab56459d9c964d061125e565b03614851575b61484a84613861565b93506147ff565b614869602061140d6113a86113a8613bab89896138c7565b03915afa9081156148d5575b6000916148b7575b50614887836105e5565b8111614894575b50614841565b6148b1906148a86113a8613bab88886138c7565b6141448561128c565b3861488e565b6148cf915060203d81116115e0576115d2818361086f565b3861487d565b6148dd6112f5565b614875565b92505050565b909291926148f861093882611668565b9381855260208086019202830192818411614936575b915b83831061491d5750505050565b6020809161492b848661050f565b815201920191614910565b61493e600080fd5b61490e565b6103969136916148e8565b9161496991613f659361496e575b6149646142a0565b614943565b6147f2565b61497e6113a86113a8600161128c565b600063c00007b091614995823094613a20866112c2565b825273ffffffffffffffffffffffffffffffffffffffff85166004830152602490829084905af1908115614a70575b8391614a57575b50506149dd6113a86113a8600261128c565b636b0916959350614a06836149f18161128c565b95833b15614a4a575b614a1161155b60405190565b845260048401613ee6565b03925af18015614a3d575b614a27575b5061495c565b614a379060006114f2818361086f565b38614a21565b614a456112f5565b614a1c565b614a52600080fd5b6149fa565b614a6a913d8091833e6117b0818361086f565b386149cb565b614a786112f5565b6149c456fea2646970667358221220d1e5311bf8fbc384c4637760c1c60232806dd25f5fe17f7f34f0b31c3d3fd24b64736f6c63430008110033",
    "linkReferences": {
      "lib/forge-std/src/console2.sol": {
        "console2": [
          {
            "start": 8466,
            "length": 20
          }
        ]
      }
    }
  },
  "methodIdentifiers": {
    "FEE_DENOMINATOR()": "d73792a9",
    "beforeLockTransfer(address,address,bytes32,bytes)": "4fb07105",
    "changeRewards(address)": "e869565e",
    "checkpointRewards()": "2a554842",
    "convexCurveBooster()": "9ce0ff9d",
    "convexDepositToken()": "5eb143ce",
    "crv()": "6a4874a1",
    "curveLpToken()": "646780df",
    "cvx()": "923c1d61",
    "earned()": "d6f19262",
    "feeRegistry()": "b3a408b8",
    "fxs()": "7d423446",
    "getReward()": "3d18b912",
    "getReward(bool)": "a4698feb",
    "getReward(bool,address[])": "4f5aefcf",
    "initialize(address,address,address,address)": "f8c8765e",
    "lockAdditional(bytes32,uint256)": "b85efd06",
    "lockAdditionalConvexToken(bytes32,uint256)": "cc641751",
    "lockAdditionalCurveLp(bytes32,uint256)": "0687c4bd",
    "lockLonger(bytes32,uint256)": "d2fbdc0d",
    "onLockReceived(address,address,bytes32,bytes)": "c42d8b95",
    "owner()": "8da5cb5b",
    "poolId()": "3e0dc34e",
    "poolRegistry()": "afcff50f",
    "removeAllowance(address,bytes32)": "b61aa08c",
    "rewards()": "9ec5a894",
    "setAllowance(address,bytes32,uint256)": "a10d3b33",
    "setApprovalForAll(address,bool)": "a22cb465",
    "setVeFXSProxy(address)": "641a6cd0",
    "stakeLocked(uint256,uint256)": "17b18c89",
    "stakeLockedConvexToken(uint256,uint256)": "2439242a",
    "stakeLockedCurveLp(uint256,uint256)": "a41ce7e9",
    "stakingAddress()": "d7b4be24",
    "stakingToken()": "72f702f3",
    "transferLocked(address,bytes32,uint256,bytes32)": "3c62c44f",
    "usingProxy()": "d7c04a46",
    "vaultType()": "4ac032be",
    "vaultVersion()": "4e7adf2c",
    "vefxsProxy()": "193ba6d1",
    "withdrawLocked(bytes32)": "51e3fc17",
    "withdrawLockedAndUnwrap(bytes32)": "4ab794a3"
  },
  "id": 77
}