{
  "abi": [
    {
      "inputs": [
        {
          "internalType": "uint256",
          "name": "col_price",
          "type": "uint256"
        },
        {
          "internalType": "uint256",
          "name": "collateral_amount_d18",
          "type": "uint256"
        }
      ],
      "name": "calcMint1t1FRAX",
      "outputs": [
        {
          "internalType": "uint256",
          "name": "",
          "type": "uint256"
        }
      ],
      "stateMutability": "pure",
      "type": "function"
    },
    {
      "inputs": [
        {
          "internalType": "uint256",
          "name": "fxs_price_usd",
          "type": "uint256"
        },
        {
          "internalType": "uint256",
          "name": "fxs_amount_d18",
          "type": "uint256"
        }
      ],
      "name": "calcMintAlgorithmicFRAX",
      "outputs": [
        {
          "internalType": "uint256",
          "name": "",
          "type": "uint256"
        }
      ],
      "stateMutability": "pure",
      "type": "function"
    },
    {
      "inputs": [
        {
          "internalType": "uint256",
          "name": "collateral_amount",
          "type": "uint256"
        },
        {
          "internalType": "uint256",
          "name": "col_price",
          "type": "uint256"
        },
        {
          "internalType": "uint256",
          "name": "global_collat_value",
          "type": "uint256"
        },
        {
          "internalType": "uint256",
          "name": "frax_total_supply",
          "type": "uint256"
        },
        {
          "internalType": "uint256",
          "name": "global_collateral_ratio",
          "type": "uint256"
        }
      ],
      "name": "calcRecollateralizeFRAXInner",
      "outputs": [
        {
          "internalType": "uint256",
          "name": "",
          "type": "uint256"
        },
        {
          "internalType": "uint256",
          "name": "",
          "type": "uint256"
        }
      ],
      "stateMutability": "pure",
      "type": "function"
    },
    {
      "inputs": [
        {
          "internalType": "uint256",
          "name": "col_price_usd",
          "type": "uint256"
        },
        {
          "internalType": "uint256",
          "name": "FRAX_amount",
          "type": "uint256"
        }
      ],
      "name": "calcRedeem1t1FRAX",
      "outputs": [
        {
          "internalType": "uint256",
          "name": "",
          "type": "uint256"
        }
      ],
      "stateMutability": "pure",
      "type": "function"
    },
    {
      "inputs": [
        {
          "internalType": "uint256",
          "name": "total_supply",
          "type": "uint256"
        },
        {
          "internalType": "uint256",
          "name": "global_collateral_ratio",
          "type": "uint256"
        },
        {
          "internalType": "uint256",
          "name": "global_collat_value",
          "type": "uint256"
        }
      ],
      "name": "recollateralizeAmount",
      "outputs": [
        {
          "internalType": "uint256",
          "name": "",
          "type": "uint256"
        }
      ],
      "stateMutability": "pure",
      "type": "function"
    }
  ],
  "bytecode": {
    "object": "0x60806040523461001f575b60405161075661002d82393081505061075690f35b610027600080fd5b61000a56fe60806040526004361015610018575b610016600080fd5b005b60003560e01c806306058f4a1461007c5780630f41b452146100735780630ff24ec11461006a5780635413e192146100615763ce032cc10361000e5761005c6101dd565b61000e565b5061005c6101dd565b5061005c6101c5565b5061005c61015f565b5061005c6100fc565b905035905b565b919060a0838203126100dc575b6100a38184610085565b926100b18260208301610085565b926100d96100c28460408501610085565b936100d08160608601610085565b93608001610085565b90565b6100e4600080fd5b610099565b90815260408101929161008a9160200152565b5061011461010b36600461008c565b9392909261068a565b9061012a61012160405190565b928392836100e9565b0390f35b91906100d990604084820312610152575b6101498185610085565b93602001610085565b61015a600080fd5b61013f565b5061012a61017761017136600461012e565b906105d2565b6040519182918290815260200190565b90916060828403126101b8575b6100d96101a18484610085565b936101af8160208601610085565b93604001610085565b6101c0600080fd5b610194565b5061012a6101776101d7366004610187565b916105f9565b5061012a6101776101ef36600461012e565b90610202565b6100d96100d96100d99290565b610218906100d992610212600090565b50610365565b610224620f42406101f5565b906104f8565b507f4e487b7100000000000000000000000000000000000000000000000000000000600052601160045260246000fd5b9190610265565b9290565b9180830292818404149015171561027857565b61008a61022a565b507f4e487b7100000000000000000000000000000000000000000000000000000000600052601260045260246000fd5b906102ba565b9190565b9081156102c5570490565b6102cd610280565b0490565b0190565b156102dc57565b6040517f08c379a000000000000000000000000000000000000000000000000000000000815260206004820152602160248201527f536166654d6174683a206d756c7469706c69636174696f6e206f766572666c6f60448201527f77000000000000000000000000000000000000000000000000000000000000006064820152608490fd5b0390fd5b906000610371816101f5565b831461039c57506100d9906103966102b661026161038f848761025a565b95866102b0565b146102d5565b6100d9925090506101f5565b601f017fffffffffffffffffffffffffffffffffffffffffffffffffffffffffffffffe01690565b507f4e487b7100000000000000000000000000000000000000000000000000000000600052604160045260246000fd5b90601f017fffffffffffffffffffffffffffffffffffffffffffffffffffffffffffffffe016810190811067ffffffffffffffff82111761044057604052565b6104486103d0565b604052565b9061008a61045a60405190565b9283610400565b6102d160209167ffffffffffffffff811161049e57601f017fffffffffffffffffffffffffffffffffffffffffffffffffffffffffffffffe01690565b6103a86103d0565b906104b86104b383610461565b61044d565b918252565b6104c7601a6104a6565b7f536166654d6174683a206469766973696f6e206279207a65726f000000000000602082015290565b6100d96104bd565b6100d9916105046104f0565b916105ac565b60005b83811061051d5750506000910152565b818101518382015260200161050d565b61054e6103a86020936102d193610542815190565b80835293849260200190565b9586910161050a565b60208082526100d99291019061052d565b156105705750565b6103619061057d60405190565b9182917f08c379a000000000000000000000000000000000000000000000000000000000835260048301610557565b6105cd6100d9936105bb600090565b506105c660006101f5565b8411610568565b6102b0565b6105f46100d9926105e1600090565b506105ee620f42406101f5565b90610365565b6104f8565b6102186100d9939261060d92610212600090565b61064d565b61061c601e6104a6565b7f536166654d6174683a207375627472616374696f6e206f766572666c6f770000602082015290565b6100d9610612565b6100d991610659610645565b9161066c565b9190820391821161027857565b6106856100d99361067b600090565b5082841115610568565b61065f565b919493909290916000908461069e91610365565b92620f4240926106ad846101f5565b94856106b8916104f8565b97856106c391610365565b816106cd916104f8565b91816106d891610365565b916106e291610365565b6106eb9161064d565b836106f5916104f8565b905080861161071057506102b692916105f4915b5085610365565b94506102b692916105f49161070956fea26469706673582212209f4ae2062914a79078b54b7ead717153711b33d8bd93fdd2aff9e8220fbe6c5d64736f6c63430008110033",
    "linkReferences": {}
  },
  "methodIdentifiers": {
    "calcMint1t1FRAX(uint256,uint256)": "5413e192",
    "calcMintAlgorithmicFRAX(uint256,uint256)": "ce032cc1",
    "calcRecollateralizeFRAXInner(uint256,uint256,uint256,uint256,uint256)": "06058f4a",
    "calcRedeem1t1FRAX(uint256,uint256)": "0f41b452",
    "recollateralizeAmount(uint256,uint256,uint256)": "0ff24ec1"
  },
  "id": 47
}