{
  "abi": [
    {
      "inputs": [
        {
          "internalType": "uint256",
          "name": "col_price",
          "type": "uint256"
        },
        {
          "internalType": "uint256",
          "name": "collateral_amount_d18",
          "type": "uint256"
        }
      ],
      "name": "calcMint1t1FRAX",
      "outputs": [
        {
          "internalType": "uint256",
          "name": "",
          "type": "uint256"
        }
      ],
      "stateMutability": "pure",
      "type": "function"
    },
    {
      "inputs": [
        {
          "internalType": "uint256",
          "name": "fxs_price_usd",
          "type": "uint256"
        },
        {
          "internalType": "uint256",
          "name": "fxs_amount_d18",
          "type": "uint256"
        }
      ],
      "name": "calcMintAlgorithmicFRAX",
      "outputs": [
        {
          "internalType": "uint256",
          "name": "",
          "type": "uint256"
        }
      ],
      "stateMutability": "pure",
      "type": "function"
    },
    {
      "inputs": [
        {
          "internalType": "uint256",
          "name": "collateral_amount",
          "type": "uint256"
        },
        {
          "internalType": "uint256",
          "name": "col_price",
          "type": "uint256"
        },
        {
          "internalType": "uint256",
          "name": "global_collat_value",
          "type": "uint256"
        },
        {
          "internalType": "uint256",
          "name": "frax_total_supply",
          "type": "uint256"
        },
        {
          "internalType": "uint256",
          "name": "global_collateral_ratio",
          "type": "uint256"
        }
      ],
      "name": "calcRecollateralizeFRAXInner",
      "outputs": [
        {
          "internalType": "uint256",
          "name": "",
          "type": "uint256"
        },
        {
          "internalType": "uint256",
          "name": "",
          "type": "uint256"
        }
      ],
      "stateMutability": "pure",
      "type": "function"
    },
    {
      "inputs": [
        {
          "internalType": "uint256",
          "name": "col_price_usd",
          "type": "uint256"
        },
        {
          "internalType": "uint256",
          "name": "FRAX_amount",
          "type": "uint256"
        }
      ],
      "name": "calcRedeem1t1FRAX",
      "outputs": [
        {
          "internalType": "uint256",
          "name": "",
          "type": "uint256"
        }
      ],
      "stateMutability": "pure",
      "type": "function"
    },
    {
      "inputs": [
        {
          "internalType": "uint256",
          "name": "total_supply",
          "type": "uint256"
        },
        {
          "internalType": "uint256",
          "name": "global_collateral_ratio",
          "type": "uint256"
        },
        {
          "internalType": "uint256",
          "name": "global_collat_value",
          "type": "uint256"
        }
      ],
      "name": "recollateralizeAmount",
      "outputs": [
        {
          "internalType": "uint256",
          "name": "",
          "type": "uint256"
        }
      ],
      "stateMutability": "pure",
      "type": "function"
    }
  ],
  "bytecode": {
    "object": "0x60806040523461001f575b60405161074b61002d82393081505061074b90f35b610027600080fd5b61000a56fe60806040526004361015610018575b610016600080fd5b005b60003560e01c806306058f4a1461007c5780630f41b452146100735780630ff24ec11461006a5780635413e192146100615763ce032cc10361000e5761005c6101dd565b61000e565b5061005c6101dd565b5061005c6101c5565b5061005c61015f565b5061005c6100fc565b905035905b565b919060a0838203126100dc575b6100a38184610085565b926100b18260208301610085565b926100d96100c28460408501610085565b936100d08160608601610085565b93608001610085565b90565b6100e4600080fd5b610099565b90815260408101929161008a9160200152565b5061011461010b36600461008c565b9392909261026a565b9061012a61012160405190565b928392836100e9565b0390f35b91906100d990604084820312610152575b6101498185610085565b93602001610085565b61015a600080fd5b61013f565b5061012a61017761017136600461012e565b9061022a565b6040519182918290815260200190565b90916060828403126101b8575b6100d96101a18484610085565b936101af8160208601610085565b93604001610085565b6101c0600080fd5b610194565b5061012a6101776101d7366004610187565b91610251565b5061012a6101776101ef36600461012e565b90610202565b6100d96100d96100d99290565b610218906100d992610212600090565b50610662565b610224620f42406101f5565b906106e1565b61024c6100d992610239600090565b50610246620f42406101f5565b90610662565b6106e1565b6102186100d9939261026592610212600090565b610458565b919493909290916000908461027e91610662565b92620f42409261028d846101f5565b9485610298916106e1565b97856102a391610662565b816102ad916106e1565b91816102b891610662565b916102c291610662565b6102cb91610458565b836102d5916106e1565b90508086116102f457506102f0929161024c915b5085610662565b9190565b94506102f0929161024c916102e9565b601f017fffffffffffffffffffffffffffffffffffffffffffffffffffffffffffffffe01690565b507f4e487b7100000000000000000000000000000000000000000000000000000000600052604160045260246000fd5b90601f017fffffffffffffffffffffffffffffffffffffffffffffffffffffffffffffffe016810190811067ffffffffffffffff82111761039c57604052565b6103a461032c565b604052565b9061008a6103b660405190565b928361035c565b6103fa60209167ffffffffffffffff81116103fe57601f017fffffffffffffffffffffffffffffffffffffffffffffffffffffffffffffffe01690565b0190565b61030461032c565b90610418610413836103bd565b6103a9565b918252565b610427601e610406565b7f536166654d6174683a207375627472616374696f6e206f766572666c6f770000602082015290565b6100d961041d565b6100d991610464610450565b9161055e565b60005b83811061047d5750506000910152565b818101518382015260200161046d565b6104ae6103046020936103fa936104a2815190565b80835293849260200190565b9586910161046a565b60208082526100d99291019061048d565b156104d05750565b61050c906104dd60405190565b9182917f08c379a0000000000000000000000000000000000000000000000000000000008352600483016104b7565b0390fd5b507f4e487b7100000000000000000000000000000000000000000000000000000000600052601160045260246000fd5b919061054b565b9290565b820391821161055657565b61008a610510565b6105776100d99361056d600090565b50828411156104c8565b610540565b8181029291811591840414171561055657565b507f4e487b7100000000000000000000000000000000000000000000000000000000600052601260045260246000fd5b9081156105ca570490565b6105d261058f565b0490565b156105dd57565b6040517f08c379a000000000000000000000000000000000000000000000000000000000815260206004820152602160248201527f536166654d6174683a206d756c7469706c69636174696f6e206f766572666c6f60448201527f77000000000000000000000000000000000000000000000000000000000000006064820152608490fd5b90600061066e816101f5565b831461069a57506100d9906106946102f061054761068c848761057c565b9586906105bf565b146105d6565b6100d9925090506101f5565b6106b0601a610406565b7f536166654d6174683a206469766973696f6e206279207a65726f000000000000602082015290565b6100d96106a6565b6100d9916106ed6106d9565b9161070f6100d9936106fd600090565b5061070860006101f5565b84116104c8565b906105bf56fea2646970667358221220c147ac881ddd66342ebff813e9b6fd78e199560697f333c2c1c679e1b606eef464736f6c63430008110033",
    "linkReferences": {}
  },
  "methodIdentifiers": {
    "calcMint1t1FRAX(uint256,uint256)": "5413e192",
    "calcMintAlgorithmicFRAX(uint256,uint256)": "ce032cc1",
    "calcRecollateralizeFRAXInner(uint256,uint256,uint256,uint256,uint256)": "06058f4a",
    "calcRedeem1t1FRAX(uint256,uint256)": "0f41b452",
    "recollateralizeAmount(uint256,uint256,uint256)": "0ff24ec1"
  },
  "id": 26
}