{
  "abi": [
    {
      "inputs": [
        {
          "internalType": "address",
          "name": "_owner",
          "type": "address"
        },
        {
          "internalType": "address[]",
          "name": "_rewardTokens",
          "type": "address[]"
        },
        {
          "internalType": "address[]",
          "name": "_rewardManagers",
          "type": "address[]"
        },
        {
          "internalType": "uint256[]",
          "name": "_rewardRates",
          "type": "uint256[]"
        },
        {
          "internalType": "address[]",
          "name": "_gaugeControllers",
          "type": "address[]"
        },
        {
          "internalType": "address[]",
          "name": "_rewardDistributors",
          "type": "address[]"
        },
        {
          "internalType": "address",
          "name": "_stakingToken",
          "type": "address"
        }
      ],
      "stateMutability": "nonpayable",
      "type": "constructor"
    },
    {
      "inputs": [],
      "name": "CannotShortenLockTime",
      "type": "error"
    },
    {
      "inputs": [],
      "name": "InsufficientAllowance",
      "type": "error"
    },
    {
      "inputs": [],
      "name": "InvalidAmount",
      "type": "error"
    },
    {
      "inputs": [],
      "name": "InvalidReceiver",
      "type": "error"
    },
    {
      "inputs": [],
      "name": "MinimumStakeTimeNotMet",
      "type": "error"
    },
    {
      "inputs": [],
      "name": "MustBeInTheFuture",
      "type": "error"
    },
    {
      "inputs": [],
      "name": "MustBePositive",
      "type": "error"
    },
    {
      "inputs": [],
      "name": "StakerNotFound",
      "type": "error"
    },
    {
      "inputs": [],
      "name": "StakesUnlocked",
      "type": "error"
    },
    {
      "inputs": [],
      "name": "StakingPaused",
      "type": "error"
    },
    {
      "inputs": [
        {
          "internalType": "address",
          "name": "spender",
          "type": "address"
        },
        {
          "internalType": "bytes32",
          "name": "kek_id",
          "type": "bytes32"
        }
      ],
      "name": "TransferLockNotAllowed",
      "type": "error"
    },
    {
      "inputs": [],
      "name": "TryingToLockForTooLong",
      "type": "error"
    },
    {
      "inputs": [],
      "name": "WithdrawalsPaused",
      "type": "error"
    },
    {
      "anonymous": false,
      "inputs": [
        {
          "indexed": true,
          "internalType": "address",
          "name": "staker",
          "type": "address"
        },
        {
          "indexed": true,
          "internalType": "address",
          "name": "spender",
          "type": "address"
        },
        {
          "indexed": true,
          "internalType": "bytes32",
          "name": "kek_id",
          "type": "bytes32"
        },
        {
          "indexed": false,
          "internalType": "uint256",
          "name": "amount",
          "type": "uint256"
        }
      ],
      "name": "Approval",
      "type": "event"
    },
    {
      "anonymous": false,
      "inputs": [
        {
          "indexed": true,
          "internalType": "address",
          "name": "owner",
          "type": "address"
        },
        {
          "indexed": true,
          "internalType": "address",
          "name": "spender",
          "type": "address"
        },
        {
          "indexed": false,
          "internalType": "bool",
          "name": "approved",
          "type": "bool"
        }
      ],
      "name": "ApprovalForAll",
      "type": "event"
    },
    {
      "anonymous": false,
      "inputs": [
        {
          "indexed": true,
          "internalType": "address",
          "name": "user",
          "type": "address"
        },
        {
          "indexed": false,
          "internalType": "bytes32",
          "name": "kek_id",
          "type": "bytes32"
        },
        {
          "indexed": false,
          "internalType": "uint256",
          "name": "amount",
          "type": "uint256"
        }
      ],
      "name": "LockedAdditional",
      "type": "event"
    },
    {
      "anonymous": false,
      "inputs": [
        {
          "indexed": true,
          "internalType": "address",
          "name": "user",
          "type": "address"
        },
        {
          "indexed": false,
          "internalType": "bytes32",
          "name": "kek_id",
          "type": "bytes32"
        },
        {
          "indexed": false,
          "internalType": "uint256",
          "name": "new_secs",
          "type": "uint256"
        },
        {
          "indexed": false,
          "internalType": "uint256",
          "name": "new_start_ts",
          "type": "uint256"
        },
        {
          "indexed": false,
          "internalType": "uint256",
          "name": "new_end_ts",
          "type": "uint256"
        }
      ],
      "name": "LockedLonger",
      "type": "event"
    },
    {
      "anonymous": false,
      "inputs": [
        {
          "indexed": false,
          "internalType": "address",
          "name": "oldOwner",
          "type": "address"
        },
        {
          "indexed": false,
          "internalType": "address",
          "name": "newOwner",
          "type": "address"
        }
      ],
      "name": "OwnerChanged",
      "type": "event"
    },
    {
      "anonymous": false,
      "inputs": [
        {
          "indexed": false,
          "internalType": "address",
          "name": "newOwner",
          "type": "address"
        }
      ],
      "name": "OwnerNominated",
      "type": "event"
    },
    {
      "anonymous": false,
      "inputs": [
        {
          "indexed": true,
          "internalType": "address",
          "name": "user",
          "type": "address"
        },
        {
          "indexed": false,
          "internalType": "uint256",
          "name": "amount",
          "type": "uint256"
        },
        {
          "indexed": false,
          "internalType": "address",
          "name": "token_address",
          "type": "address"
        },
        {
          "indexed": false,
          "internalType": "address",
          "name": "destination_address",
          "type": "address"
        }
      ],
      "name": "RewardPaid",
      "type": "event"
    },
    {
      "anonymous": false,
      "inputs": [
        {
          "indexed": true,
          "internalType": "address",
          "name": "user",
          "type": "address"
        },
        {
          "indexed": false,
          "internalType": "uint256",
          "name": "amount",
          "type": "uint256"
        },
        {
          "indexed": false,
          "internalType": "uint256",
          "name": "secs",
          "type": "uint256"
        },
        {
          "indexed": false,
          "internalType": "bytes32",
          "name": "kek_id",
          "type": "bytes32"
        },
        {
          "indexed": false,
          "internalType": "address",
          "name": "source_address",
          "type": "address"
        }
      ],
      "name": "StakeLocked",
      "type": "event"
    },
    {
      "anonymous": false,
      "inputs": [
        {
          "indexed": true,
          "internalType": "address",
          "name": "staker_address",
          "type": "address"
        },
        {
          "indexed": true,
          "internalType": "address",
          "name": "destination_address",
          "type": "address"
        },
        {
          "indexed": false,
          "internalType": "uint256",
          "name": "amount_transferred",
          "type": "uint256"
        },
        {
          "indexed": false,
          "internalType": "bytes32",
          "name": "source_kek_id",
          "type": "bytes32"
        },
        {
          "indexed": false,
          "internalType": "bytes32",
          "name": "destination_kek_id",
          "type": "bytes32"
        }
      ],
      "name": "TransferLocked",
      "type": "event"
    },
    {
      "anonymous": false,
      "inputs": [
        {
          "indexed": true,
          "internalType": "address",
          "name": "user",
          "type": "address"
        },
        {
          "indexed": false,
          "internalType": "uint256",
          "name": "liquidity",
          "type": "uint256"
        },
        {
          "indexed": false,
          "internalType": "bytes32",
          "name": "kek_id",
          "type": "bytes32"
        },
        {
          "indexed": false,
          "internalType": "address",
          "name": "destination_address",
          "type": "address"
        }
      ],
      "name": "WithdrawLocked",
      "type": "event"
    },
    {
      "inputs": [],
      "name": "acceptOwnership",
      "outputs": [],
      "stateMutability": "nonpayable",
      "type": "function"
    },
    {
      "inputs": [
        {
          "internalType": "address",
          "name": "account",
          "type": "address"
        }
      ],
      "name": "calcCurCombinedWeight",
      "outputs": [
        {
          "internalType": "uint256",
          "name": "old_combined_weight",
          "type": "uint256"
        },
        {
          "internalType": "uint256",
          "name": "new_vefxs_multiplier",
          "type": "uint256"
        },
        {
          "internalType": "uint256",
          "name": "new_combined_weight",
          "type": "uint256"
        }
      ],
      "stateMutability": "view",
      "type": "function"
    },
    {
      "inputs": [
        {
          "internalType": "address",
          "name": "account",
          "type": "address"
        },
        {
          "internalType": "uint256",
          "name": "stake_idx",
          "type": "uint256"
        }
      ],
      "name": "calcCurrLockMultiplier",
      "outputs": [
        {
          "internalType": "uint256",
          "name": "midpoint_lock_multiplier",
          "type": "uint256"
        }
      ],
      "stateMutability": "view",
      "type": "function"
    },
    {
      "inputs": [
        {
          "internalType": "address",
          "name": "reward_token_address",
          "type": "address"
        },
        {
          "internalType": "address",
          "name": "new_manager_address",
          "type": "address"
        }
      ],
      "name": "changeTokenManager",
      "outputs": [],
      "stateMutability": "nonpayable",
      "type": "function"
    },
    {
      "inputs": [
        {
          "internalType": "address",
          "name": "account",
          "type": "address"
        }
      ],
      "name": "combinedWeightOf",
      "outputs": [
        {
          "internalType": "uint256",
          "name": "",
          "type": "uint256"
        }
      ],
      "stateMutability": "view",
      "type": "function"
    },
    {
      "inputs": [],
      "name": "curvePool",
      "outputs": [
        {
          "internalType": "contract I2pool",
          "name": "",
          "type": "address"
        }
      ],
      "stateMutability": "view",
      "type": "function"
    },
    {
      "inputs": [],
      "name": "curveToken",
      "outputs": [
        {
          "internalType": "contract I2poolToken",
          "name": "",
          "type": "address"
        }
      ],
      "stateMutability": "view",
      "type": "function"
    },
    {
      "inputs": [
        {
          "internalType": "address",
          "name": "account",
          "type": "address"
        }
      ],
      "name": "earned",
      "outputs": [
        {
          "internalType": "uint256[]",
          "name": "new_earned",
          "type": "uint256[]"
        }
      ],
      "stateMutability": "view",
      "type": "function"
    },
    {
      "inputs": [],
      "name": "fraxPerLPStored",
      "outputs": [
        {
          "internalType": "uint256",
          "name": "",
          "type": "uint256"
        }
      ],
      "stateMutability": "view",
      "type": "function"
    },
    {
      "inputs": [],
      "name": "fraxPerLPToken",
      "outputs": [
        {
          "internalType": "uint256",
          "name": "",
          "type": "uint256"
        }
      ],
      "stateMutability": "view",
      "type": "function"
    },
    {
      "inputs": [],
      "name": "getAllRewardTokens",
      "outputs": [
        {
          "internalType": "address[]",
          "name": "",
          "type": "address[]"
        }
      ],
      "stateMutability": "view",
      "type": "function"
    },
    {
      "inputs": [],
      "name": "getLatestETHPriceE8",
      "outputs": [
        {
          "internalType": "int256",
          "name": "",
          "type": "int256"
        }
      ],
      "stateMutability": "view",
      "type": "function"
    },
    {
      "inputs": [
        {
          "internalType": "address",
          "name": "addr",
          "type": "address"
        }
      ],
      "name": "getProxyFor",
      "outputs": [
        {
          "internalType": "address",
          "name": "",
          "type": "address"
        }
      ],
      "stateMutability": "view",
      "type": "function"
    },
    {
      "inputs": [
        {
          "internalType": "address",
          "name": "destination_address",
          "type": "address"
        }
      ],
      "name": "getReward",
      "outputs": [
        {
          "internalType": "uint256[]",
          "name": "",
          "type": "uint256[]"
        }
      ],
      "stateMutability": "nonpayable",
      "type": "function"
    },
    {
      "inputs": [
        {
          "internalType": "address",
          "name": "destination_address",
          "type": "address"
        },
        {
          "internalType": "bool",
          "name": "claim_extra_too",
          "type": "bool"
        }
      ],
      "name": "getReward2",
      "outputs": [
        {
          "internalType": "uint256[]",
          "name": "",
          "type": "uint256[]"
        }
      ],
      "stateMutability": "nonpayable",
      "type": "function"
    },
    {
      "inputs": [
        {
          "internalType": "address",
          "name": "destination_address",
          "type": "address"
        }
      ],
      "name": "getRewardExtraLogic",
      "outputs": [],
      "stateMutability": "nonpayable",
      "type": "function"
    },
    {
      "inputs": [],
      "name": "getRewardForDuration",
      "outputs": [
        {
          "internalType": "uint256[]",
          "name": "rewards_per_duration_arr",
          "type": "uint256[]"
        }
      ],
      "stateMutability": "view",
      "type": "function"
    },
    {
      "inputs": [
        {
          "internalType": "address",
          "name": "staker",
          "type": "address"
        },
        {
          "internalType": "bytes32",
          "name": "kek_id",
          "type": "bytes32"
        },
        {
          "internalType": "uint256",
          "name": "amount",
          "type": "uint256"
        }
      ],
      "name": "isApproved",
      "outputs": [
        {
          "internalType": "bool",
          "name": "",
          "type": "bool"
        }
      ],
      "stateMutability": "view",
      "type": "function"
    },
    {
      "inputs": [
        {
          "internalType": "address",
          "name": "caller_addr",
          "type": "address"
        },
        {
          "internalType": "address",
          "name": "reward_token_addr",
          "type": "address"
        }
      ],
      "name": "isTokenManagerFor",
      "outputs": [
        {
          "internalType": "bool",
          "name": "",
          "type": "bool"
        }
      ],
      "stateMutability": "view",
      "type": "function"
    },
    {
      "inputs": [
        {
          "internalType": "address",
          "name": "",
          "type": "address"
        },
        {
          "internalType": "bytes32",
          "name": "",
          "type": "bytes32"
        },
        {
          "internalType": "address",
          "name": "",
          "type": "address"
        }
      ],
      "name": "kekAllowance",
      "outputs": [
        {
          "internalType": "uint256",
          "name": "",
          "type": "uint256"
        }
      ],
      "stateMutability": "view",
      "type": "function"
    },
    {
      "inputs": [
        {
          "internalType": "address",
          "name": "",
          "type": "address"
        }
      ],
      "name": "lastRewardClaimTime",
      "outputs": [
        {
          "internalType": "uint256",
          "name": "",
          "type": "uint256"
        }
      ],
      "stateMutability": "view",
      "type": "function"
    },
    {
      "inputs": [],
      "name": "lastUpdateTime",
      "outputs": [
        {
          "internalType": "uint256",
          "name": "",
          "type": "uint256"
        }
      ],
      "stateMutability": "view",
      "type": "function"
    },
    {
      "inputs": [
        {
          "internalType": "bytes32",
          "name": "kek_id",
          "type": "bytes32"
        },
        {
          "internalType": "uint256",
          "name": "addl_liq",
          "type": "uint256"
        }
      ],
      "name": "lockAdditional",
      "outputs": [],
      "stateMutability": "nonpayable",
      "type": "function"
    },
    {
      "inputs": [
        {
          "internalType": "bytes32",
          "name": "kek_id",
          "type": "bytes32"
        },
        {
          "internalType": "uint256",
          "name": "new_ending_ts",
          "type": "uint256"
        }
      ],
      "name": "lockLonger",
      "outputs": [],
      "stateMutability": "nonpayable",
      "type": "function"
    },
    {
      "inputs": [
        {
          "internalType": "uint256",
          "name": "secs",
          "type": "uint256"
        }
      ],
      "name": "lockMultiplier",
      "outputs": [
        {
          "internalType": "uint256",
          "name": "",
          "type": "uint256"
        }
      ],
      "stateMutability": "view",
      "type": "function"
    },
    {
      "inputs": [],
      "name": "lock_max_multiplier",
      "outputs": [
        {
          "internalType": "uint256",
          "name": "",
          "type": "uint256"
        }
      ],
      "stateMutability": "view",
      "type": "function"
    },
    {
      "inputs": [],
      "name": "lock_time_for_max_multiplier",
      "outputs": [
        {
          "internalType": "uint256",
          "name": "",
          "type": "uint256"
        }
      ],
      "stateMutability": "view",
      "type": "function"
    },
    {
      "inputs": [],
      "name": "lock_time_min",
      "outputs": [
        {
          "internalType": "uint256",
          "name": "",
          "type": "uint256"
        }
      ],
      "stateMutability": "view",
      "type": "function"
    },
    {
      "inputs": [
        {
          "internalType": "address",
          "name": "account",
          "type": "address"
        }
      ],
      "name": "lockedLiquidityOf",
      "outputs": [
        {
          "internalType": "uint256",
          "name": "",
          "type": "uint256"
        }
      ],
      "stateMutability": "view",
      "type": "function"
    },
    {
      "inputs": [
        {
          "internalType": "address",
          "name": "",
          "type": "address"
        },
        {
          "internalType": "uint256",
          "name": "",
          "type": "uint256"
        }
      ],
      "name": "lockedStakes",
      "outputs": [
        {
          "internalType": "bytes32",
          "name": "kek_id",
          "type": "bytes32"
        },
        {
          "internalType": "uint256",
          "name": "start_timestamp",
          "type": "uint256"
        },
        {
          "internalType": "uint256",
          "name": "liquidity",
          "type": "uint256"
        },
        {
          "internalType": "uint256",
          "name": "ending_timestamp",
          "type": "uint256"
        },
        {
          "internalType": "uint256",
          "name": "lock_multiplier",
          "type": "uint256"
        }
      ],
      "stateMutability": "view",
      "type": "function"
    },
    {
      "inputs": [
        {
          "internalType": "address",
          "name": "account",
          "type": "address"
        }
      ],
      "name": "lockedStakesOf",
      "outputs": [
        {
          "components": [
            {
              "internalType": "bytes32",
              "name": "kek_id",
              "type": "bytes32"
            },
            {
              "internalType": "uint256",
              "name": "start_timestamp",
              "type": "uint256"
            },
            {
              "internalType": "uint256",
              "name": "liquidity",
              "type": "uint256"
            },
            {
              "internalType": "uint256",
              "name": "ending_timestamp",
              "type": "uint256"
            },
            {
              "internalType": "uint256",
              "name": "lock_multiplier",
              "type": "uint256"
            }
          ],
          "internalType": "struct FraxUnifiedFarm_ERC20.LockedStake[]",
          "name": "",
          "type": "tuple[]"
        }
      ],
      "stateMutability": "view",
      "type": "function"
    },
    {
      "inputs": [
        {
          "internalType": "address",
          "name": "account",
          "type": "address"
        }
      ],
      "name": "lockedStakesOfLength",
      "outputs": [
        {
          "internalType": "uint256",
          "name": "",
          "type": "uint256"
        }
      ],
      "stateMutability": "view",
      "type": "function"
    },
    {
      "inputs": [
        {
          "internalType": "address",
          "name": "account",
          "type": "address"
        }
      ],
      "name": "maxLPForMaxBoost",
      "outputs": [
        {
          "internalType": "uint256",
          "name": "",
          "type": "uint256"
        }
      ],
      "stateMutability": "view",
      "type": "function"
    },
    {
      "inputs": [
        {
          "internalType": "address",
          "name": "account",
          "type": "address"
        }
      ],
      "name": "minVeFXSForMaxBoost",
      "outputs": [
        {
          "internalType": "uint256",
          "name": "",
          "type": "uint256"
        }
      ],
      "stateMutability": "view",
      "type": "function"
    },
    {
      "inputs": [
        {
          "internalType": "address",
          "name": "proxy_address",
          "type": "address"
        }
      ],
      "name": "minVeFXSForMaxBoostProxy",
      "outputs": [
        {
          "internalType": "uint256",
          "name": "",
          "type": "uint256"
        }
      ],
      "stateMutability": "view",
      "type": "function"
    },
    {
      "inputs": [
        {
          "internalType": "address",
          "name": "_owner",
          "type": "address"
        }
      ],
      "name": "nominateNewOwner",
      "outputs": [],
      "stateMutability": "nonpayable",
      "type": "function"
    },
    {
      "inputs": [],
      "name": "nominatedOwner",
      "outputs": [
        {
          "internalType": "address",
          "name": "",
          "type": "address"
        }
      ],
      "stateMutability": "view",
      "type": "function"
    },
    {
      "inputs": [],
      "name": "owner",
      "outputs": [
        {
          "internalType": "address",
          "name": "",
          "type": "address"
        }
      ],
      "stateMutability": "view",
      "type": "function"
    },
    {
      "inputs": [],
      "name": "periodFinish",
      "outputs": [
        {
          "internalType": "uint256",
          "name": "",
          "type": "uint256"
        }
      ],
      "stateMutability": "view",
      "type": "function"
    },
    {
      "inputs": [
        {
          "internalType": "address",
          "name": "proxy_address",
          "type": "address"
        }
      ],
      "name": "proxyStakedFrax",
      "outputs": [
        {
          "internalType": "uint256",
          "name": "",
          "type": "uint256"
        }
      ],
      "stateMutability": "view",
      "type": "function"
    },
    {
      "inputs": [
        {
          "internalType": "address",
          "name": "staker_address",
          "type": "address"
        }
      ],
      "name": "proxyToggleStaker",
      "outputs": [],
      "stateMutability": "nonpayable",
      "type": "function"
    },
    {
      "inputs": [
        {
          "internalType": "address",
          "name": "",
          "type": "address"
        }
      ],
      "name": "proxy_lp_balances",
      "outputs": [
        {
          "internalType": "uint256",
          "name": "",
          "type": "uint256"
        }
      ],
      "stateMutability": "view",
      "type": "function"
    },
    {
      "inputs": [
        {
          "internalType": "address",
          "name": "tokenAddress",
          "type": "address"
        },
        {
          "internalType": "uint256",
          "name": "tokenAmount",
          "type": "uint256"
        }
      ],
      "name": "recoverERC20",
      "outputs": [],
      "stateMutability": "nonpayable",
      "type": "function"
    },
    {
      "inputs": [
        {
          "internalType": "address",
          "name": "spender",
          "type": "address"
        },
        {
          "internalType": "bytes32",
          "name": "kek_id",
          "type": "bytes32"
        }
      ],
      "name": "removeAllowance",
      "outputs": [],
      "stateMutability": "nonpayable",
      "type": "function"
    },
    {
      "inputs": [
        {
          "internalType": "address",
          "name": "",
          "type": "address"
        }
      ],
      "name": "rewardManagers",
      "outputs": [
        {
          "internalType": "address",
          "name": "",
          "type": "address"
        }
      ],
      "stateMutability": "view",
      "type": "function"
    },
    {
      "inputs": [
        {
          "internalType": "uint256",
          "name": "token_idx",
          "type": "uint256"
        }
      ],
      "name": "rewardRates",
      "outputs": [
        {
          "internalType": "uint256",
          "name": "rwd_rate",
          "type": "uint256"
        }
      ],
      "stateMutability": "view",
      "type": "function"
    },
    {
      "inputs": [
        {
          "internalType": "address",
          "name": "",
          "type": "address"
        }
      ],
      "name": "rewardTokenAddrToIdx",
      "outputs": [
        {
          "internalType": "uint256",
          "name": "",
          "type": "uint256"
        }
      ],
      "stateMutability": "view",
      "type": "function"
    },
    {
      "inputs": [],
      "name": "rewardsDuration",
      "outputs": [
        {
          "internalType": "uint256",
          "name": "",
          "type": "uint256"
        }
      ],
      "stateMutability": "view",
      "type": "function"
    },
    {
      "inputs": [],
      "name": "rewardsPerToken",
      "outputs": [
        {
          "internalType": "uint256[]",
          "name": "newRewardsPerTokenStored",
          "type": "uint256[]"
        }
      ],
      "stateMutability": "view",
      "type": "function"
    },
    {
      "inputs": [
        {
          "internalType": "address",
          "name": "spender",
          "type": "address"
        },
        {
          "internalType": "bytes32",
          "name": "kek_id",
          "type": "bytes32"
        },
        {
          "internalType": "uint256",
          "name": "amount",
          "type": "uint256"
        }
      ],
      "name": "setAllowance",
      "outputs": [],
      "stateMutability": "nonpayable",
      "type": "function"
    },
    {
      "inputs": [
        {
          "internalType": "address",
          "name": "spender",
          "type": "address"
        },
        {
          "internalType": "bool",
          "name": "approved",
          "type": "bool"
        }
      ],
      "name": "setApprovalForAll",
      "outputs": [],
      "stateMutability": "nonpayable",
      "type": "function"
    },
    {
      "inputs": [
        {
          "internalType": "address",
          "name": "_eth_usd_oracle_address",
          "type": "address"
        }
      ],
      "name": "setETHUSDOracle",
      "outputs": [],
      "stateMutability": "nonpayable",
      "type": "function"
    },
    {
      "inputs": [
        {
          "internalType": "uint256[6]",
          "name": "_misc_vars",
          "type": "uint256[6]"
        }
      ],
      "name": "setMiscVariables",
      "outputs": [],
      "stateMutability": "nonpayable",
      "type": "function"
    },
    {
      "inputs": [
        {
          "internalType": "bool",
          "name": "_stakingPaused",
          "type": "bool"
        },
        {
          "internalType": "bool",
          "name": "_withdrawalsPaused",
          "type": "bool"
        },
        {
          "internalType": "bool",
          "name": "_rewardsCollectionPaused",
          "type": "bool"
        }
      ],
      "name": "setPauses",
      "outputs": [],
      "stateMutability": "nonpayable",
      "type": "function"
    },
    {
      "inputs": [
        {
          "internalType": "address",
          "name": "reward_token_address",
          "type": "address"
        },
        {
          "internalType": "uint256",
          "name": "_new_rate",
          "type": "uint256"
        },
        {
          "internalType": "address",
          "name": "_gauge_controller_address",
          "type": "address"
        },
        {
          "internalType": "address",
          "name": "_rewards_distributor_address",
          "type": "address"
        }
      ],
      "name": "setRewardVars",
      "outputs": [],
      "stateMutability": "nonpayable",
      "type": "function"
    },
    {
      "inputs": [
        {
          "internalType": "address",
          "name": "",
          "type": "address"
        },
        {
          "internalType": "address",
          "name": "",
          "type": "address"
        }
      ],
      "name": "spenderApprovalForAllLocks",
      "outputs": [
        {
          "internalType": "bool",
          "name": "",
          "type": "bool"
        }
      ],
      "stateMutability": "view",
      "type": "function"
    },
    {
      "inputs": [
        {
          "internalType": "uint256",
          "name": "liquidity",
          "type": "uint256"
        },
        {
          "internalType": "uint256",
          "name": "secs",
          "type": "uint256"
        }
      ],
      "name": "stakeLocked",
      "outputs": [
        {
          "internalType": "bytes32",
          "name": "",
          "type": "bytes32"
        }
      ],
      "stateMutability": "nonpayable",
      "type": "function"
    },
    {
      "inputs": [
        {
          "internalType": "address",
          "name": "proxy_address",
          "type": "address"
        }
      ],
      "name": "stakerSetVeFXSProxy",
      "outputs": [],
      "stateMutability": "nonpayable",
      "type": "function"
    },
    {
      "inputs": [
        {
          "internalType": "address",
          "name": "",
          "type": "address"
        }
      ],
      "name": "staker_designated_proxies",
      "outputs": [
        {
          "internalType": "address",
          "name": "",
          "type": "address"
        }
      ],
      "stateMutability": "view",
      "type": "function"
    },
    {
      "inputs": [],
      "name": "stakesUnlocked",
      "outputs": [
        {
          "internalType": "bool",
          "name": "",
          "type": "bool"
        }
      ],
      "stateMutability": "view",
      "type": "function"
    },
    {
      "inputs": [],
      "name": "stakingToken",
      "outputs": [
        {
          "internalType": "contract IConvexStakingWrapperFrax",
          "name": "",
          "type": "address"
        }
      ],
      "stateMutability": "view",
      "type": "function"
    },
    {
      "inputs": [],
      "name": "sync",
      "outputs": [],
      "stateMutability": "nonpayable",
      "type": "function"
    },
    {
      "inputs": [
        {
          "internalType": "bool",
          "name": "force_update",
          "type": "bool"
        }
      ],
      "name": "sync_gauge_weights",
      "outputs": [],
      "stateMutability": "nonpayable",
      "type": "function"
    },
    {
      "inputs": [
        {
          "internalType": "address",
          "name": "_proxy_addr",
          "type": "address"
        }
      ],
      "name": "toggleValidVeFXSProxy",
      "outputs": [],
      "stateMutability": "nonpayable",
      "type": "function"
    },
    {
      "inputs": [],
      "name": "totalCombinedWeight",
      "outputs": [
        {
          "internalType": "uint256",
          "name": "",
          "type": "uint256"
        }
      ],
      "stateMutability": "view",
      "type": "function"
    },
    {
      "inputs": [],
      "name": "totalLiquidityLocked",
      "outputs": [
        {
          "internalType": "uint256",
          "name": "",
          "type": "uint256"
        }
      ],
      "stateMutability": "view",
      "type": "function"
    },
    {
      "inputs": [
        {
          "internalType": "address",
          "name": "receiver_address",
          "type": "address"
        },
        {
          "internalType": "bytes32",
          "name": "source_kek_id",
          "type": "bytes32"
        },
        {
          "internalType": "uint256",
          "name": "transfer_amount",
          "type": "uint256"
        },
        {
          "internalType": "bytes32",
          "name": "destination_kek_id",
          "type": "bytes32"
        }
      ],
      "name": "transferLocked",
      "outputs": [
        {
          "internalType": "bytes32",
          "name": "",
          "type": "bytes32"
        }
      ],
      "stateMutability": "nonpayable",
      "type": "function"
    },
    {
      "inputs": [
        {
          "internalType": "address",
          "name": "staker_address",
          "type": "address"
        },
        {
          "internalType": "address",
          "name": "receiver_address",
          "type": "address"
        },
        {
          "internalType": "bytes32",
          "name": "source_kek_id",
          "type": "bytes32"
        },
        {
          "internalType": "uint256",
          "name": "transfer_amount",
          "type": "uint256"
        },
        {
          "internalType": "bytes32",
          "name": "destination_kek_id",
          "type": "bytes32"
        }
      ],
      "name": "transferLockedFrom",
      "outputs": [
        {
          "internalType": "bytes32",
          "name": "",
          "type": "bytes32"
        }
      ],
      "stateMutability": "nonpayable",
      "type": "function"
    },
    {
      "inputs": [],
      "name": "unlockStakes",
      "outputs": [],
      "stateMutability": "nonpayable",
      "type": "function"
    },
    {
      "inputs": [
        {
          "internalType": "address",
          "name": "account",
          "type": "address"
        },
        {
          "internalType": "bool",
          "name": "sync_too",
          "type": "bool"
        }
      ],
      "name": "updateRewardAndBalance",
      "outputs": [],
      "stateMutability": "nonpayable",
      "type": "function"
    },
    {
      "inputs": [
        {
          "internalType": "address",
          "name": "account",
          "type": "address"
        }
      ],
      "name": "userStakedFrax",
      "outputs": [
        {
          "internalType": "uint256",
          "name": "",
          "type": "uint256"
        }
      ],
      "stateMutability": "view",
      "type": "function"
    },
    {
      "inputs": [
        {
          "internalType": "address",
          "name": "account",
          "type": "address"
        }
      ],
      "name": "veFXSMultiplier",
      "outputs": [
        {
          "internalType": "uint256",
          "name": "vefxs_multiplier",
          "type": "uint256"
        }
      ],
      "stateMutability": "view",
      "type": "function"
    },
    {
      "inputs": [],
      "name": "vefxs_boost_scale_factor",
      "outputs": [
        {
          "internalType": "uint256",
          "name": "",
          "type": "uint256"
        }
      ],
      "stateMutability": "view",
      "type": "function"
    },
    {
      "inputs": [],
      "name": "vefxs_max_multiplier",
      "outputs": [
        {
          "internalType": "uint256",
          "name": "",
          "type": "uint256"
        }
      ],
      "stateMutability": "view",
      "type": "function"
    },
    {
      "inputs": [],
      "name": "vefxs_per_frax_for_max_boost",
      "outputs": [
        {
          "internalType": "uint256",
          "name": "",
          "type": "uint256"
        }
      ],
      "stateMutability": "view",
      "type": "function"
    },
    {
      "inputs": [
        {
          "internalType": "bytes32",
          "name": "kek_id",
          "type": "bytes32"
        },
        {
          "internalType": "address",
          "name": "destination_address",
          "type": "address"
        }
      ],
      "name": "withdrawLocked",
      "outputs": [
        {
          "internalType": "uint256",
          "name": "",
          "type": "uint256"
        }
      ],
      "stateMutability": "nonpayable",
      "type": "function"
    }
  ],
  "bytecode": {
    "object": "0x60c0604052346200005c575b620000266200001962000386565b9594909493919362000445565b6040516163b762000c2d823960805181818161252b015281816126db0152818161277601526128eb015260a0518150506163b790f35b62000065600080fd5b6200000b565b600080fd5b50634e487b7160e01b600052604160045260246000fd5b90601f01601f191681019081106001600160401b03821117620000a957604052565b620000b362000070565b604052565b90620000cf620000c760405190565b928362000087565b565b6001600160a01b031690565b90565b6001600160a01b0381165b036200006b57565b90505190620000cf82620000e0565b60209081906001600160401b0381116200011b57020190565b6200012562000070565b020190565b90929192620001436200013d8262000102565b620000b8565b938185526020808601920283019281841162000186575b915b8383106200016a5750505050565b602080916200017a8486620000f3565b8152019201916200015c565b6200018f600080fd5b6200015a565b90620000dd9181601f82011215620001b4575b6020815191016200012a565b620001bd600080fd5b620001a8565b80620000eb565b90505190620000cf82620001c3565b90929192620001ec6200013d8262000102565b93818552602080860192028301928184116200022f575b915b838310620002135750505050565b60208091620002238486620001ca565b81520192019162000205565b62000238600080fd5b62000203565b90620000dd9181601f820112156200025d575b602081519101620001d9565b62000266600080fd5b62000251565b60e08183031262000377575b620002848282620000f3565b92620002a683602084015160018060401b03811162000368575b840162000195565b92620002c881604085015160018060401b0381116200034a575b850162000195565b92620002ea82606083015160018060401b03811162000359575b83016200023e565b92620000dd6200030f84608085015160018060401b0381116200034a57850162000195565b93620003318160a086015160018060401b0381116200033b575b860162000195565b9360c001620000f3565b62000344600080fd5b62000329565b62000353600080fd5b620002c0565b62000362600080fd5b620002e2565b62000371600080fd5b6200029e565b62000380600080fd5b62000278565b620003a962006fe4803803806200039d81620000b8565b9283398101906200026c565b90919293949596565b620000dd90620000d1906001600160a01b031682565b620000dd90620003b2565b620000dd90620003c8565b906001600160a01b03905b9181191691161790565b9062000407620000dd6200040f92620003d3565b8254620003de565b9055565b90600160281b600160c81b039060281b620003e9565b906200043d620000dd6200040f92620003d3565b825462000413565b928695926200045b95926200048c9895620004f6565b620004866200047e735f4ec3df9cbd43714fe2740f5e3616155c5b8419620003d3565b6027620003f3565b620003d3565b6200049981602162000429565b50620004b973f43211935c781d5ca1a41d2041f397b8a7366c7a620003d3565b620004c6816022620003f3565b50620004e673a1f8a6807c402e4a15ef4eba36528a3fed24e577620003d3565b620004f3816023620003f3565b50565b620000cf9650620008f3565b620000dd620000dd620000dd9290565b9060001990620003e9565b9062000531620000dd6200040f9262000502565b825462000512565b50634e487b7160e01b600052601160045260246000fd5b620000cf62000539565b9160001960089290920291821b911b620003e9565b919062000584620000dd6200040f9362000502565b9083546200055a565b620000cf916000916200056f565b818110620005a7575050565b80620005b760006001936200058d565b016200059b565b9091828110620005cd57505050565b620000cf9290620005e5905b92600052602060002090565b90810191016200059b565b90620000cf9168010000000000000000821162000614575b805490828155620005be565b6200061e62000070565b62000608565b600162000658620005d962000637855190565b94838060401b03861162000695575b620006528686620005f0565b60200190565b92049160005b8381106200066c5750505050565b600190602062000687620000dd86516001600160a01b031690565b94019381840155016200065e565b6200069f62000070565b62000646565b90620000cf9162000624565b818110620006bd575050565b80620006cd60006001936200058d565b01620006b1565b9091828110620006e357505050565b620000cf9290620006f490620005d9565b9081019101620006b1565b90620000cf9168010000000000000000821162000723575b805490828155620006d4565b6200072d62000070565b62000717565b600162000761620005d962000746855190565b94838060401b03861162000795575b620006528686620006ff565b92049160005b838110620007755750505050565b600190602062000787620000dd865190565b940193818401550162000767565b6200079f62000070565b62000755565b90620000cf9162000733565b6001906000198114620007c2570190565b620007cc62000539565b0190565b50634e487b7160e01b600052603260045260246000fd5b9060208091620007f5845190565b81101562000804575b02010190565b6200080e620007d0565b620007fe565b906200082090620003d3565b600052602052604060002090565b620008516001916200083e815490565b8410156200085a57600052602060002090565b91020190600090565b62000864620007d0565b600052602060002090565b906200089b620000cf9280549068010000000000000000821015620008a2575b6001820181556200082e565b906200056f565b620008ac62000070565b6200088f565b9060ff90620003e9565b90620008cf620000dd6200040f92151590565b8254620008b2565b620000dd62093a8062000502565b919082018092116200055057565b94620009de620009ee94939562000910620009e694999862000b0d565b6200092f73c8418af6358ffdda74e09ca9cc3fe03ca6adc5b0620003d3565b60805273853d955acef822db058eb8505911ed77f175b99e60a052620009c9671bc16d674ec80000620009628162000502565b6200096f8160066200051d565b620009806301e1338060076200051d565b620009906209105060086200051d565b620009c0673782dace9d90000091620009a98362000502565b93620009b78560096200051d565b50600a6200051d565b50600b6200051d565b620009d6896010620006a5565b6011620006a5565b6012620006a5565b6013620007a5565b6000620009fb8162000502565b925b62000a0a620000dd865190565b84101562000abe5762000a478462000a41601462000a3a62000a2d848b620007e7565b516001600160a01b031690565b9062000814565b6200051d565b62000aab601562000a6462000a5c8562000502565b80926200086f565b62000a7462000a2d8787620007e7565b62000a958162000a8f600f62000a3a62000a2d8c8e620007e7565b620003f3565b5062000aa38160196200086f565b601a6200086f565b62000ab684620007b1565b9350620009fd565b935091505062000ad0816021620008bc565b5062000af44262000ae38160056200051d565b62000aed620008d7565b90620008e5565b620004f38160046200051d565b620000dd600162000502565b62000b189062000bb1565b62000b2262000b01565b620004f38160026200051d565b620000d1620000dd620000dd9290565b620000dd9062000b2f565b1562000b5257565b60405162461bcd60e51b815260206004820152601960248201527f4f776e657220616464726573732063616e6e6f742062652030000000000000006044820152606490fd5b6001600160a01b0391821681529116602082015260400190565b60009062000bbf8262000b3f565b9162000be06001600160a01b0384166001600160a01b038416141562000b4a565b62000bec8282620003f3565b507fb532073b38c83145e3e5135377a08bf9aab55bc0fd7c1179cd4fb995d2a5159c9162000c2762000c1d60405190565b9283928362000b97565b0390a156fe60806040526004361015610018575b610016600080fd5b005b60003560e01c80628cc26214610607578063061a7bf5146105fe5780630d7bac4f146105f557806312edb24c146105ec5780631627540c146105e357806317b18c89146105da5780631bcb7d90146105d15780631c1f78eb146105c85780631e090f01146105bf5780631face856146105b6578063218751b2146105ad578063231b68dc146105a457806328408bab1461059b5780632c0c2a0a1461059257806336f89af214610589578063386a952514610580578063387edc86146105775780633c62c44f1461056e57806341a16f3f146105655780634f39059c1461055c5780634fd2b5361461055357806353a47bb71461054a57806355189773146105415780635bfd92581461053857806364f2c0601461052f578063663b135c14610526578063693392451461051d5780636c430dbb146105145780636e27cef91461050b57806370641a361461050257806372f702f3146104f9578063741d3c18146104f0578063774d4ae7146104e75780637910d17b146104de5780637970833e146104d557806379ba5097146104cc5780637ab44e40146104c35780637d6ef08e146104ba5780637f472e54146104b15780638980f11f146104a85780638bad86a71461049f5780638da5cb5b1461049657806391cf600a1461048d5780639637927f14610484578063a0f234761461047b578063a10d3b3314610472578063a22cb46514610469578063aa1d4fce14610460578063b61aa08c14610457578063b85efd061461044e578063b94c4dcb14610445578063bdb123e31461043c578063c00007b014610433578063c35438261461042a578063c8f33c9114610421578063ca6df29d14610418578063cc2abd641461040f578063cdc82e8014610406578063d2010fb4146103fd578063d2fbdc0d146103f4578063d42fc9b4146103eb578063d5e1a9c6146103e2578063d7400d56146103d9578063d9f96e8d146103d0578063de1a6551146103c7578063e01f62bf146103be578063e1ba95d2146103b5578063e44b9fa5146103ac578063e7f30582146103a3578063ebe2b12b1461039a578063f288baf614610391578063f2a8d34914610388578063f2caeb1e1461037f578063f77e34d114610376578063facefb641461036d5763fff6cae90361000e57610368611ca6565b61000e565b50610368611c7f565b50610368611adf565b50610368611a98565b50610368611a6e565b50610368611a38565b50610368611a02565b506103686119cf565b506103686119a4565b50610368611955565b5061036861192b565b50610368611903565b506103686118d9565b506103686118b2565b50610368611887565b50610368611813565b506103686117eb565b506103686117c1565b5061036861178b565b50610368611757565b506103686116ef565b506103686116c5565b5061036861168f565b50610368611665565b5061036861163b565b50610368611611565b506103686115dd565b506103686115b5565b5061036861158b565b50610368611557565b5061036861152f565b50610368611505565b506103686114db565b506103686114a8565b5061036861147e565b50610368611439565b506103686113f3565b506103686113c9565b5061036861139f565b50610368611362565b506103686112d8565b50610368611297565b5061036861114d565b50610368611122565b506103686110d3565b506103686110a9565b50610368611073565b50610368611049565b50610368611013565b50610368610fd7565b50610368610f7c565b50610368610ef8565b50610368610ece565b50610368610ea6565b50610368610e36565b50610368610e00565b50610368610dd6565b50610368610da0565b50610368610d60565b50610368610cef565b50610368610cc5565b50610368610c7a565b50610368610c50565b50610368610bfe565b50610368610bbc565b50610368610b86565b50610368610b1f565b50610368610ae9565b50610368610a24565b506103686109f9565b50610368610917565b506103686108ba565b50610368610884565b506103686107d1565b50610368610776565b506103686106eb565b600080fd5b73ffffffffffffffffffffffffffffffffffffffff1690565b90565b73ffffffffffffffffffffffffffffffffffffffff81165b0361061057565b9050359061065d82610631565b565b9061062e916020818303121561065057610677600080fd5b610650565b9052565b0190565b906106a461069d610693845190565b8084529260200190565b9260200190565b9060005b8181106106b55750505090565b9091926106d26106cb6001928651815260200190565b9460200190565b9291016106a8565b602080825261062e92910190610684565b5034610718575b61071461070861070336600461065f565b6122c4565b604051918291826106da565b0390f35b610720600080fd5b6106f2565b80610649565b9050359061065d82610725565b9091606082840312610769575b61062e6107528484610650565b93610760816020860161072b565b9360400161072b565b610771600080fd5b610745565b50346107a7575b61071461079461078e366004610738565b91615080565b6040515b91829182901515815260200190565b6107af600080fd5b61077d565b9061062e916020818303121561072b576107cc600080fd5b61072b565b50346107ff575b6107146107ee6107e93660046107b4565b61247f565b6040515b9182918290815260200190565b610807600080fd5b6107d8565b600091031261081757565b61065d600080fd5b9061082e61069d610693845190565b9060005b81811061083f5750505090565b90919261086b6106cb600192865173ffffffffffffffffffffffffffffffffffffffff16815260200190565b929101610832565b602080825261062e9291019061081f565b50346108ad575b61089636600461080c565b6107146108a1611e0f565b60405191829182610873565b6108b5600080fd5b61088b565b50346108d9575b6108d46108cf36600461065f565b615c0b565b604051005b6108e1600080fd5b6108c1565b919061062e9060408482031261090a575b610901818561072b565b9360200161072b565b610912600080fd5b6108f7565b5034610935575b6107146107ee61092f3660046108e6565b90614a99565b61093d600080fd5b61091e565b919061062e90604084820312610966575b61095d8185610650565b93602001610650565b61096e600080fd5b610953565b61061561062e61062e9273ffffffffffffffffffffffffffffffffffffffff1690565b61062e90610973565b61062e90610996565b906109b29061099f565b600052602052604060002090565b61062e916008021c5b60ff1690565b9061062e91546109c0565b6109f461062e926109ef6026936000946109a8565b6109a8565b6109cf565b5034610a17575b610714610794610a11366004610942565b906109da565b610a1f600080fd5b610a00565b5034610a41575b610a3636600461080c565b6107146107086123ca565b610a49600080fd5b610a2b565b8051825261065d91906080908190610a6b60208201516020860152565b610a7a60408201516040860152565b610a8960608201516060860152565b0151910152565b906106808160a093610a4e565b90610aac61069d610693845190565b9060005b818110610abd5750505090565b909192610ad06106cb6001928651610a90565b929101610ab0565b602080825261062e92910190610a9d565b5034610b12575b610714610b06610b0136600461065f565b614407565b60405191829182610ad8565b610b1a600080fd5b610af0565b5034610b3c575b6107146107ee610b3736600461065f565b6124e9565b610b44600080fd5b610b26565b61062e916008021c610615565b9061062e9154610b49565b61062e60006023610b56565b61067c9061099f565b60208101929161065d9190610b6d565b5034610baf575b610b9836600461080c565b610714610ba3610b61565b60405191829182610b76565b610bb7600080fd5b610b8d565b5034610bda575b610714610794610bd4366004610942565b90611ce0565b610be2600080fd5b610bc3565b61062e90610bf96020916000926109a8565b610b56565b5034610c43575b610714610c1b610c1636600461065f565b610be7565b6040515b9182918273ffffffffffffffffffffffffffffffffffffffff909116815260200190565b610c4b600080fd5b610c05565b5034610c6d575b6107146107ee610c6836600461065f565b612675565b610c75600080fd5b610c57565b5034610c97575b6107146107ee610c9236600461065f565b612468565b610c9f600080fd5b610c81565b61062e61062e61062e9290565b61062e62093a80610ca4565b61062e610cb1565b5034610ce2575b610cd736600461080c565b6107146107ee610cbd565b610cea600080fd5b610ccc565b5034610d09575b6108d4610d0436600461065f565b612f99565b610d11600080fd5b610cf6565b608081830312610d53575b610d2b8282610650565b9261062e610d3c846020850161072b565b93610d4a816040860161072b565b9360600161072b565b610d5b600080fd5b610d21565b5034610d81575b6107146107ee610d78366004610d16565b92919091615262565b610d89600080fd5b610d67565b61062e90610bf9600f916000926109a8565b5034610dbd575b610714610c1b610db836600461065f565b610d8e565b610dc5600080fd5b610da7565b61062e60006022610b56565b5034610df3575b610de836600461080c565b610714610ba3610dca565b610dfb600080fd5b610ddd565b5034610e1d575b6107146107ee610e1836600461065f565b6125ff565b610e25600080fd5b610e07565b61062e60006001610b56565b5034610e53575b610e4836600461080c565b610714610c1b610e2a565b610e5b600080fd5b610e3d565b801515610649565b9050359061065d82610e60565b919061062e90604084820312610e99575b610e908185610650565b93602001610e68565b610ea1600080fd5b610e86565b5034610ec1575b6108d4610ebb366004610e75565b90612c66565b610ec9600080fd5b610ead565b5034610eeb575b610ee036600461080c565b6107146107ee616277565b610ef3600080fd5b610ed5565b5034610f15575b610f0a36600461080c565b6107146107ee61245e565b610f1d600080fd5b610eff565b919060a083820312610f6f575b610f398184610650565b92610f478260208301610650565b9261062e610f58846040850161072b565b93610f66816060860161072b565b9360800161072b565b610f77600080fd5b610f2f565b5034610f9d575b6107146107ee610f94366004610f22565b93929092615170565b610fa5600080fd5b610f83565b61062e916008021c81565b9061062e9154610faa565b61062e90610fd26014916000926109a8565b610fb5565b5034610ff4575b6107146107ee610fef36600461065f565b610fc0565b610ffc600080fd5b610fde565b61062e90610fd26018916000926109a8565b5034611030575b6107146107ee61102b36600461065f565b611001565b611038600080fd5b61101a565b61062e60006008610fb5565b5034611066575b61105b36600461080c565b6107146107ee61103d565b61106e600080fd5b611050565b5034611090575b61108536600461080c565b610714610708612195565b611098600080fd5b61107a565b61062e60056021610b56565b50346110c6575b6110bb36600461080c565b610714610ba361109d565b6110ce600080fd5b6110b0565b50346110ed575b6108d46110e836600461065f565b61626e565b6110f5600080fd5b6110da565b919061062e90604084820312611115575b6109018185610650565b61111d600080fd5b61110b565b5034611140575b6107146107ee61113a3660046110fa565b90614114565b611148600080fd5b611129565b503461116b575b610714610708611165366004610e75565b90613022565b611173600080fd5b611154565b507f4e487b7100000000000000000000000000000000000000000000000000000000600052603260045260246000fd5b6111c86005916111b6815490565b8410156111d157600052602060002090565b91020190600090565b6111d9611178565b600052602060002090565b61062e9081565b61062e90546111e4565b91906112056024936000946109a8565b8054821015611256576112199293506111a8565b50611223816111eb565b91611230600183016111eb565b9161123d600282016111eb565b9161062e600461124f600385016111eb565b93016111eb565b8380fd5b9095949261065d9461128c6112939261128560809661127e60a088019c6000890152565b6020870152565b6040850152565b6060830152565b0152565b50346112cb575b6107146112b56112af3660046110fa565b906111f5565b916112c295939560405190565b9586958661125a565b6112d3600080fd5b61129e565b50346112f2575b6112ea36600461080c565b6108d4615ccc565b6112fa600080fd5b6112df565b9091606082840312611330575b61062e6113198484610650565b93611327816020860161072b565b93604001610650565b611338600080fd5b61130c565b906109b2565b9061062e926109ef610fd29261135d6025956000966109a8565b61133d565b5034611380575b6107146107ee61137a3660046112ff565b91611343565b611388600080fd5b611369565b61062e90610fd2601f916000926109a8565b50346113bc575b6107146107ee6113b736600461065f565b61138d565b6113c4600080fd5b6113a6565b50346113e6575b6107146107ee6113e136600461065f565b612621565b6113ee600080fd5b6113d0565b503461140e575b6108d46114083660046110fa565b90613c65565b611416600080fd5b6113fa565b90815260608101939261065d929091604091611293905b6020830152565b5034611466575b61071461145661145136600461065f565b614265565b6040519193915b9384938461141b565b61146e600080fd5b611440565b61062e600080610b56565b503461149b575b61149036600461080c565b610714610c1b611473565b6114a3600080fd5b611485565b50346114c2575b6108d46114bd36600461065f565b613a5d565b6114ca600080fd5b6114af565b61062e600060216109cf565b50346114f8575b6114ed36600461080c565b6107146107946114cf565b611500600080fd5b6114e2565b5034611522575b6107146107ee61151d36600461065f565b612511565b61152a600080fd5b61150c565b503461154a575b6108d4611544366004610738565b91614f3d565b611552600080fd5b611536565b5034611572575b6108d461156c366004610e75565b90615027565b61157a600080fd5b61155e565b61062e60006009610fb5565b50346115a8575b61159d36600461080c565b6107146107ee61157f565b6115b0600080fd5b611592565b50346115d0575b6108d46115ca3660046110fa565b90614fba565b6115d8600080fd5b6115bc565b50346115f8575b6108d46115f23660046108e6565b90614701565b611600600080fd5b6115e4565b61062e60006007610fb5565b503461162e575b61162336600461080c565b6107146107ee611605565b611636600080fd5b611618565b5034611658575b61164d36600461080c565b6107146107ee6160ce565b611660600080fd5b611642565b5034611682575b61071461070861167d36600461065f565b612fe4565b61168a600080fd5b61166c565b50346116ac575b610714610c1b6116a736600461065f565b61264c565b6116b4600080fd5b611696565b61062e60006005610fb5565b50346116e2575b6116d736600461080c565b6107146107ee6116b9565b6116ea600080fd5b6116cc565b503461170c575b6107146107ee61170736600461065f565b614423565b611714600080fd5b6116f6565b909160608284031261174a575b61062e6117338484610e68565b936117418160208601610e68565b93604001610e68565b611752600080fd5b611726565b5034611772575b6108d461176c366004611719565b916139f1565b61177a600080fd5b61175e565b61062e60006006610fb5565b50346117a8575b61179d36600461080c565b6107146107ee61177f565b6117b0600080fd5b611792565b61062e60006003610fb5565b50346117de575b6117d336600461080c565b6107146107ee6117b5565b6117e6600080fd5b6117c8565b5034611806575b6108d46118003660046108e6565b90614a5a565b61180e600080fd5b6117f2565b5034611830575b6107146107ee61182b36600461065f565b6124b9565b611838600080fd5b61181a565b60808183031261187a575b6118528282610650565b9261062e611863846020850161072b565b936118718160408601610650565b93606001610650565b611882600080fd5b611848565b50346118a5575b6108d461189c36600461183d565b92919091614054565b6118ad600080fd5b61188e565b50346118cc575b6108d46118c736600461065f565b612ba9565b6118d4600080fd5b6118b9565b50346118f6575b6107146107ee6118f136600461065f565b612447565b6118fe600080fd5b6118e0565b503461191e575b6108d4611918366004610942565b90614086565b611926600080fd5b61190a565b5034611948575b61193d36600461080c565b6107146107ee61243d565b611950600080fd5b611932565b503461196f575b61196736600461080c565b6108d4613a28565b611977600080fd5b61195c565b919061062e90604084820312611997575b61095d818561072b565b61199f600080fd5b61198d565b50346119c2575b6107146107ee6119bc36600461197c565b90614cfa565b6119ca600080fd5b6119ab565b50346119e9575b6108d46119e436600461065f565b612a7c565b6119f1600080fd5b6119d6565b61062e60006004610fb5565b5034611a1f575b611a1436600461080c565b6107146107ee6119f6565b611a27600080fd5b611a09565b61062e6000600a610fb5565b5034611a55575b611a4a36600461080c565b6107146107ee611a2c565b611a5d600080fd5b611a3f565b61062e6000600b610fb5565b5034611a8b575b611a8036600461080c565b6107146107ee611a62565b611a93600080fd5b611a75565b5034611ab5575b6107146107ee611ab03660046107b4565b611f1b565b611abd600080fd5b611a9f565b9061062e9160208183031215610e6857611ada600080fd5b610e68565b5034611af9575b6108d4611af4366004611ac2565b61327b565b611b01600080fd5b611ae6565b601f017fffffffffffffffffffffffffffffffffffffffffffffffffffffffffffffffe01690565b507f4e487b7100000000000000000000000000000000000000000000000000000000600052604160045260246000fd5b90601f017fffffffffffffffffffffffffffffffffffffffffffffffffffffffffffffffe016810190811067ffffffffffffffff821117611b9e57604052565b611ba6611b2e565b604052565b9061065d611bb860405190565b9283611b5e565b60209067ffffffffffffffff8111611bd5570290565b611bdd611b2e565b0290565b90929192611bf6611bf182611bbf565b611bab565b936020859202830192818411611c2f575b915b838310611c165750505050565b60208091611c24848661072b565b815201920191611c09565b611c37600080fd5b611c07565b9061062e9181601f82011215611c55575b600690611be1565b611c5d600080fd5b611c4d565b9061062e9160c08183031215611c3c57611c7a600080fd5b611c3c565b5034611c99575b6108d4611c94366004611c62565b613f97565b611ca1600080fd5b611c86565b5034611cc0575b611cb836600461080c565b6108d4613427565b611cc8600080fd5b611cad565b61062e90610615565b61062e9054611ccd565b90611cee6106156000611cd6565b73ffffffffffffffffffffffffffffffffffffffff831603611d11575050600190565b611d44611d2a611d25611d5e93600f6109a8565b611cd6565b9273ffffffffffffffffffffffffffffffffffffffff1690565b9173ffffffffffffffffffffffffffffffffffffffff1690565b14611d6857600090565b600190565b90611d88611d7c610693845490565b92600052602060002090565b9060005b818110611d995750505090565b909192611dd3611dcc600192611dae87611cd6565b73ffffffffffffffffffffffffffffffffffffffff16815260200190565b9460010190565b929101611d8c565b9061062e91611d6d565b9061065d611dff92611df660405190565b93848092611ddb565b0383611b5e565b61062e90611de5565b61062e6010611e06565b6111c86001916111b6815490565b61061561062e61062e9290565b61062e90611e27565b9050519061065d82610725565b9061062e9160208183031215611e3d57611e62600080fd5b611e3d565b506040513d6000823e3d90fd5b507f4e487b7100000000000000000000000000000000000000000000000000000000600052601160045260246000fd5b9190611eaf565b9290565b91808302928184041490151715611ec257565b61065d611e74565b507f4e487b7100000000000000000000000000000000000000000000000000000000600052601260045260246000fd5b90611f04565b9190565b908115611f0f570490565b611f17611eca565b0490565b611f2f611f29826011611e19565b90610b56565b611f3c6106156000611e34565b73ffffffffffffffffffffffffffffffffffffffff82161461201f57611f8f61062e926020611f77611f7285611fc3965061099f565b61099f565b630a3be75790611f8660405190565b94859260e01b90565b825260049082905afa918215612012575b600092611fda575b50611fb7611fbd916019611e19565b90610fb5565b90611ea4565b611fd4670de0b6b3a7640000610ca4565b90611efa565b611fbd919250612003611fb79160203d811161200b575b611ffb8183611b5e565b810190611e4a565b929150611fa8565b503d611ff1565b61201a611e67565b611fa0565b50611fb761062e916013611e19565b6020809167ffffffffffffffff811161204657020190565b61204e611b2e565b020190565b90612060611bf18361202e565b918252565b369037565b9061065d61208061207a84612053565b9361202e565b7fffffffffffffffffffffffffffffffffffffffffffffffffffffffffffffffe00160208401612065565b6001907fffffffffffffffffffffffffffffffffffffffffffffffffffffffffffffffff81146120d9570190565b610680611e74565b91908203918211611ec257565b91908201809211611ec257565b9060208091612108845190565b811015612116575b02010190565b61211e611178565b612110565b90612132611d7c610693845490565b9060005b8181106121435750505090565b909192612160611dcc600192612158876111eb565b815260200190565b929101612136565b9061062e91612123565b9061065d611dff9261218360405190565b93848092612168565b61062e90612172565b61219f601b6111eb565b6000906121ae611f0083610ca4565b14801561227e575b156121c6575061062e601561218c565b6121e06121da6121d560105490565b61206a565b91610ca4565b915b60156121ef61062e825490565b84101561227857612208611fb785836122569450611e19565b61225061224661223561222c61221c61229b565b61222660056111eb565b906120e1565b611fbd89611f1b565b611fbd670de0b6b3a7640000610ca4565b611fd4601c6111eb565b906120ee565b6122678161226486866120fb565b52565b50612271836120ab565b92506121e2565b50915090565b50612289601c6111eb565b612295611f0083610ca4565b146121b6565b61062e426122a960046111eb565b808210156122b5575090565b919050565b906109b290610ca4565b906122cd612195565b916010906122dc6121d5835490565b908194601e6122f36122ee84836109a8565b6111eb565b600090612302611f0083610ca4565b11612310575b505050505050565b80612322919792939495969750610ca4565b955b61232f61062e825490565b8710156123b85761062e61232f91612396612384611fc388611fbd8b6122268f8061237f6123778f6122ee9461236d6122ee898461237395506109a8565b996120fb565b5190565b9460166109a8565b6122ba565b6122506122ee8c61237f8c60176109a8565b6123a4816122648c8c6120fb565b506123ae896120ab565b9850915050612324565b50945050505050388080808080612308565b6013906123d86121d5835490565b9081906123e56000610ca4565b935b6123f261062e825490565b8510156124365761062e6123f29161241461240c88611f1b565b611fbd610cb1565b612422816122648a8a6120fb565b5061242c876120ab565b96509150506123e7565b5091509150565b61062e601b6111eb565b6122ee61062e91612456600090565b50601d6109a8565b61062e601c6111eb565b6122ee61062e91612477600090565b50601e6109a8565b61062e906122a961249e61249360066111eb565b92611fbd60066111eb565b611fd460076111eb565b61062e670de0b6b3a7640000610ca4565b6124e161062e916124c8600090565b50611fbd6122ee6124d960036111eb565b92601d6109a8565b611fd46124a8565b6124e161062e916124f8600090565b50611fbd6122ee61250960036111eb565b92601f6109a8565b6125bd612591602061062e93612525600090565b5061254f7f000000000000000000000000000000000000000000000000000000000000000061099f565b61256d6370a0823161256060405190565b9586948593849360e01b90565b835273ffffffffffffffffffffffffffffffffffffffff1660048301526024820190565b03915afa9081156125f2575b6000916125d4575b506125b86125b16124a8565b8092611ea4565b611ea4565b611fd46125ca600b6111eb565b611fbd60036111eb565b6125ec915060203d811161200b57611ffb8183611b5e565b386125a5565b6125fa611e67565b61259d565b6124e161261761062e92612611600090565b506124b9565b611fbd600b6111eb565b6124e161261761062e92612633600090565b506124e9565b61062e906109c9565b61062e9054612639565b61265f61265a82600d6109a8565b612642565b156126675790565b611d2561062e9160206109a8565b6000906127b260009161268783610ca4565b506126918161264c565b9061269b84611e34565b9173ffffffffffffffffffffffffffffffffffffffff831673ffffffffffffffffffffffffffffffffffffffff82161480156128e15761271760206126ff7f000000000000000000000000000000000000000000000000000000000000000061099f565b6370a082319061270e60405190565b93849260e01b90565b825273ffffffffffffffffffffffffffffffffffffffff8716600483015260249082905afa9081156128d4575b6000916128b6575b50935b61276f61276561275f600a6111eb565b87611ea4565b611fbd60096111eb565b602061279a7f000000000000000000000000000000000000000000000000000000000000000061099f565b6318160ddd906127a960405190565b998a9260e01b90565b825260049082905afa9687156128a9575b600097612885575b506127e290611fd46127db6124a8565b8099611ea4565b9750501561287557506127f4906125ff565b925b6127ff81610ca4565b841115612863575061282261282c9361281d848461281d9550611ea4565b611efa565b611fbd600a6111eb565b8082111561285b5750905b81612848611f0061062e600a6111eb565b1161284f57565b905061062e600a6111eb565b919050612837565b9150506128709150610ca4565b61282c565b61287f9150612621565b926127f6565b6127e29197506128a29060203d811161200b57611ffb8183611b5e565b96906127cb565b6128b1611e67565b6127c3565b6128ce915060203d811161200b57611ffb8183611b5e565b3861274c565b6128dc611e67565b612744565b61290f60206126ff7f000000000000000000000000000000000000000000000000000000000000000061099f565b825273ffffffffffffffffffffffffffffffffffffffff8616600483015260249082905afa908115612969575b60009161294b575b509361274f565b612963915060203d811161200b57611ffb8183611b5e565b38612944565b612971611e67565b61293c565b1561297d57565b6040517f08c379a000000000000000000000000000000000000000000000000000000000815260206004820152600d60248201527f496e76616c69642070726f7879000000000000000000000000000000000000006044820152606490fd5b0390fd5b9060ff905b9181191691161790565b906129ff61062e612a0692151590565b82546129e0565b9055565b9073ffffffffffffffffffffffffffffffffffffffff906129e5565b90612a3661062e612a069261099f565b8254612a0a565b907fffffffffffffffffffffffffffffffffffffffffffffffffffffffffffffffff906129e5565b90612a7561062e612a0692610ca4565b8254612a3d565b33612a93612a8e61265a83600d6109a8565b612976565b80612ac5600e612ac0856109ef612ab8612ab461265a846109ef8a896109a8565b1590565b9586946109a8565b6129ef565b50602091612ad6611d2582856109a8565b612af573ffffffffffffffffffffffffffffffffffffffff8416611d44565b14612aff57505050565b612b2e6125096122ee83612b3d9461245661065d98612b29612b216000611e34565b9384926109a8565b612a26565b91612b38836111eb565b6120e1565b90612a65565b15612b4a57565b6040517f08c379a000000000000000000000000000000000000000000000000000000000815260206004820152601d60248201527f50726f787920686173206e6f7420616c6c6f77656420796f75207965740000006044820152606490fd5b61065d90612bbe612a8e61265a83600d6109a8565b612b3d612c396125096122ee612bd585600e6109a8565b612beb612be661265a3380946109a8565b612b43565b612c3286612b29836020612c02611d2583836109a8565b612c0f6106156000611e34565b73ffffffffffffffffffffffffffffffffffffffff821603612c48575b506109a8565b601d6109a8565b91612c43836111eb565b6120ee565b612c6090612b3d612b2e6125096122ee87601d6109a8565b38612c2c565b90612d42575b612c796106156000611e34565b73ffffffffffffffffffffffffffffffffffffffff821603612c985750565b612ca181614265565b90612cab84612d4f565b612cbf81612cba86600c6109a8565b612a65565b50818110612d0b5791612cfe82612cde612d089486612cba97506120e1565b90612ced82612c43601c6111eb565b612cf881601c612a65565b506120ee565b928391601e6109a8565b50565b91612cfe82612d22612cba95612d089550826120e1565b90612d3182612b38601c6111eb565b612d3c81601c612a65565b506120e1565b612d4a613427565b612c6c565b600090612d5e61061583611e34565b73ffffffffffffffffffffffffffffffffffffffff821603612d7e575050565b9091612d89826122c4565b90612d9384610ca4565b935b612da061062e845190565b851015612dd857612db461237386856120fb565b612dc781612cba8861237f8960176109a8565b50612dd1856120ab565b9450612d95565b612de491929450610ca4565b925b612df161062e825190565b841015612e345761062e612df191612e0d611fb7876015611e19565b612e2081612cba8961237f8a60166109a8565b50612e2a866120ab565b9550915050612de6565b50915050565b61062e6002610ca4565b15612e4b57565b6040517f08c379a000000000000000000000000000000000000000000000000000000000815260206004820152601f60248201527f5265656e7472616e637947756172643a207265656e7472616e742063616c6c006044820152606490fd5b61062e6001610ca4565b612ee790612ec260026111eb565b612ed6612ecd612e3a565b91821415612e44565b612ee1816002612a65565b50612f76565b612eef612eaa565b612d08816002612a65565b61062e9060101c6109c9565b61062e9054612efa565b15612f1757565b6040517f08c379a000000000000000000000000000000000000000000000000000000000815260206004820152601960248201527f5265776172647320636f6c6c656374696f6e20706175736564000000000000006044820152606490fd5b61065d90612d08612f876021612f06565b612f9360005b91151590565b14612f10565b61065d90612eb4565b90612fcd91612fb160026111eb565b612fbc612ecd612e3a565b612fc7816002612a65565b50612fd6565b90612eef612eaa565b5061062e90600190336131f3565b61062e906060612fa2565b90612fcd9291612fff60026111eb565b61300a612ecd612e3a565b613015816002612a65565b505061062e9190336131f3565b61062e91906060612fef565b9061062e939291613040600183612c66565b613095565b90815260608101939261065d929091604091613079905b73ffffffffffffffffffffffffffffffffffffffff166020830152565b019073ffffffffffffffffffffffffffffffffffffffff169052565b939091929350426130ab81612cba8560186109a8565b506130b66021612f06565b600091906130c790612f9384612f8d565b6010916130d56121d5845490565b9182906130e183610ca4565b975b6130ee61062e875490565b8910156131db578661312d601761226461311c8d6131136122ee8261237f89886109a8565b9283918c6120fb565b50612cba8c61237f612ab88a610ca4565b61313d61062e6123738c896120fb565b11613153575b61314c896120ab565b98506130e3565b613177613163611f298b89611e19565b896131716123738d8a6120fb565b91615dfc565b6131846123738a876120fb565b613191611f298b89611e19565b7f1d2f2ca53af5d2f333bd32fdd45f9c52ad8ebe31414f7792912077fcb3876dff906131bc8a61099f565b926131d38c6131ca60405190565b93849384613045565b0390a2613143565b93509593509550506131eb575050565b5061065d9050565b61062e929190606061302e565b73ffffffffffffffffffffffffffffffffffffffff909116815260408101929161065d9160200152565b919060086129e591029161325d7fffffffffffffffffffffffffffffffffffffffffffffffffffffffffffffffff841b90565b921b90565b919061327361062e612a0693610ca4565b90835461322a565b60009061328782610ca4565b925b601161329661062e825490565b85101561342057611f2985826132ac9350611e19565b6132b861061585611e34565b73ffffffffffffffffffffffffffffffffffffffff8216036132e6575b506132df846120ab565b9350613289565b828315613404575b156132d557613381906020906133038161099f565b61330c8161099f565b91636472eee18461333861331f3061099f565b926133434261332d60405190565b958694859460e01b90565b845260048401613200565b03818c885af19081156133f7575b6000916133da575b5061336f816133698c6019611e19565b90613262565b50505063513872bd9061270e60405190565b825260049082905afa9081156133cd575b6000916133af575b506133aa8161336987601a611e19565b6132d5565b6133c7915060203d811161200b57611ffb8183611b5e565b3861339a565b6133d5611e67565b613392565b6133f19150853d811161200b57611ffb8183611b5e565b38613359565b6133ff611e67565b613351565b504261341a611f0061062e611fb789601a611e19565b116132ee565b5092505050565b613431600061327b565b613439616277565b613444816003612a65565b5042613456611f0061062e60046111eb565b106134635761065d6135be565b61065d613823565b919061062e9060408482031261348f575b6134868185611e3d565b93602001611e3d565b613497600080fd5b61347c565b61067c9073ffffffffffffffffffffffffffffffffffffffff1660601b90565b906106806135156014937f4e6f7420656e6f7567682072657761726420746f6b656e7320617661696c616281527f6c653a2000000000000000000000000000000000000000000000000000000000602082015260240190565b809261349c565b60005b83811061352f5750506000910152565b818101518382015260200161351f565b613560611b0660209361068093613554815190565b80835293849260200190565b9586910161351c565b602080825261062e9291019061353f565b156135825750565b6129dc9061358f60405190565b9182917f08c379a000000000000000000000000000000000000000000000000000000000835260048301613569565b60006135c981610ca4565b915b60126135d861062e825490565b8410156136af57611f2984826135ee9350611e19565b6135fa61061584611e34565b73ffffffffffffffffffffffffffffffffffffffff821603613628575b50613621836120ab565b92506135cb565b604061363b611f7283613665945061099f565b63092193ab9061256d8661364e3061099f565b9361365860405190565b9687958694859360e01b90565b03925af180156136a2575b15613617576136959060403d811161369b575b61368d8183611b5e565b81019061346b565b50613617565b503d613683565b6136aa611e67565b613670565b509091506136c14261222660046111eb565b916136d76121da6136d0610cb1565b8095611efa565b925b60106136e661062e825490565b8510156137d9578061379e613776611f29886137a49561376e611f00613757602061373b611f72611f728f8f613735611f2992611fbd61372a8e946125b886611f1b565b916122506001610ca4565b99611e19565b6370a082319061256d61374d3061099f565b9261256060405190565b03915afa9081156137cc575b6000916137b4575090565b111594611e19565b61062e61378260405190565b80926137926020830191826134bc565b90810382520382611b5e565b9061357a565b6137ad846120ab565b93506136d9565b61062e915060203d811161200b57611ffb8183611b5e565b6137d4611e67565b613763565b506137fc929350612250906125b86137f160046111eb565b936122506001610ca4565b613807816004612a65565b50613810613823565b613818616277565b612d08816003612a65565b61382b612195565b906138366000610ca4565b915b601561384561062e825490565b84101561387a57613869849161336961386161237385876120fb565b938492611e19565b50613873836120ab565b9250613838565b5050905061388661229b565b612d08816005612a65565b1561389857565b6040517f08c379a000000000000000000000000000000000000000000000000000000000815260206004820152601560248201527f4e6f74206f776e6572206f722074696d656c6f636b00000000000000000000006044820152606490fd5b9061065d92916139343361390e6106156000611cd6565b73ffffffffffffffffffffffffffffffffffffffff821614908115613939575b50613891565b6139ce565b9050613958738412ebf45bac1b340bbe8f318b928c466c4e39ca611d44565b143861392e565b9063ff0000009060181b6129e5565b9061397e61062e612a0692151590565b825461395f565b9061ff009060081b6129e5565b906139a261062e612a0692151590565b8254613985565b9062ff00009060101b6129e5565b906139c761062e612a0692151590565b82546139a9565b6139d981602161396e565b506139e5816021613992565b50612d088160216139b7565b9061065d92916138f7565b613a0d3361390e6106156000611cd6565b61065d613a1d612ab46021612642565b612d088160216129ef565b61065d6139fc565b61065d90613a453361390e6106156000611cd6565b612d08600d612ac0612b21612ab461265a86856109a8565b61065d90613a30565b15613a6d57565b6040517f08c379a000000000000000000000000000000000000000000000000000000000815260206004820152601460248201527f4e6f74206f776e6572206f7220746b6e206d67720000000000000000000000006044820152606490fd5b9061065d91613b0a3382613ae36106156000611cd6565b73ffffffffffffffffffffffffffffffffffffffff831614918215613b0f575b5050613a66565b613b20565b613b199250611ce0565b8238613b03565b6000929183613b2e81610ca4565b945b6010613b3d61062e825490565b871015613c5a57611f298782613b539350611e19565b613b7273ffffffffffffffffffffffffffffffffffffffff8616611d44565b14613b8757613b80866120ab565b9550613b30565b5090919293506001905b8180613c3a575b8215613c10575b505015613bb15761065d913390615dfc565b6040517f08c379a000000000000000000000000000000000000000000000000000000000815260206004820152601a60248201527f4e6f2076616c696420746f6b656e7320746f207265636f7665720000000000006044820152606490fd5b15915081613c21575b503880613b9f565b9050613c33611d446106153393611cd6565b1438613c19565b9150613c4a611d2585600f6109a8565b613c5333611d44565b1491613b98565b509192939450613b91565b9061065d91613acc565b61065d90613c843361390e6106156000611cd6565b613dd5565b906020906006811015613c9b57020190565b61204e611178565b15613caa57565b6040517f08c379a000000000000000000000000000000000000000000000000000000000815260206004820152601360248201527f4d757374206265203e3d204d554c2050524543000000000000000000000000006044820152606490fd5b15613d1057565b6040517f08c379a000000000000000000000000000000000000000000000000000000000815260206004820152600c60248201527f4d757374206265203e3d203000000000000000000000000000000000000000006044820152606490fd5b15613d7657565b6040517f08c379a000000000000000000000000000000000000000000000000000000000815260206004820152600c60248201527f4d757374206265203e3d203100000000000000000000000000000000000000006044820152606490fd5b612373613f1291613ef6612373613e766000613e14613dff612373613df984610ca4565b88613c89565b613e0d611f0061062e6124a8565b1015613ca3565b613eb3612373613ead6001613e34612373613e2e83610ca4565b8b613c89565b613e40611f0087610ca4565b101580613f73575b80613f44575b613e5790613d09565b613e9c612373613e2e600497613e978d613e7c612373613e768d610ca4565b83613c89565b613e88611f0089610ca4565b10159081613f1d575b50613d6f565b610ca4565b613ea7816006612a65565b50610ca4565b87613c89565b613ebe81600a612a65565b50613ecf612373613ead6002610ca4565b613eda81600b612a65565b50613eeb612373613ead6003610ca4565b613ea7816009612a65565b613f01816007612a65565b50613f0c6005610ca4565b90613c89565b612d08816008612a65565b613f30915061237390613f0c6005610ca4565b613f3c611f0088610ca4565b10158e613e91565b50613e57613f5e612373613f586003610ca4565b8c613c89565b613f6a611f0088610ca4565b10159050613e4e565b50613f84612373613e2e6002610ca4565b613f90611f0087610ca4565b1015613e48565b61065d90613c6f565b9061065d939291613fb93382613ae36106156000611cd6565b613ffe565b919060086129e591029161325d73ffffffffffffffffffffffffffffffffffffffff841b90565b9190613ff661062e612a069361099f565b908354613fbe565b83916140286122ee61404593612d089660139461402e816133696014986140286122ee888c6109a8565b90611e19565b5061404b8161404560116140286122ee878b6109a8565b90613fe5565b506012936109a8565b9061065d939291613fa0565b9061065d916140773382613ae36106156000611cd6565b81612b29612d0892600f6109a8565b9061065d91614060565b61062e60a0611bab565b9061065d61410460046140ab614090565b946140bc6140b8826111eb565b8752565b6140d26140cb600183016111eb565b6020880152565b6140e86140e1600283016111eb565b6040880152565b6140fe6140f7600383016111eb565b6060880152565b016111eb565b6080840152565b61062e9061409a565b90919061413661413060009461412b8460246109a8565b6111a8565b5061410b565b926018906141476122ee84846109a8565b602086019061415a611f0061062e845190565b10156142515751925b6060860192614170845190565b429390841061421f5750614187916122ee916109a8565b614195611f0061062e855190565b101561420c576141b9611fd4916122266141b46141ea96612b38875190565b945190565b6141e46141d6846125b86107e96141d06002610ca4565b83611efa565b612250836125b86000610ca4565b926120ee565b915b60808101906141fc61062e835190565b8411614206575050565b50519150565b5050506142196000610ca4565b916141ec565b6107e9949250612250915092612b38614242614219976142479650612b38865190565b935190565b611fd46002610ca4565b5061425f6122ee84846109a8565b92614163565b600090601e906142786122ee82846109a8565b9361428282612675565b948594506142946122ee84601d6109a8565b93836000956142a5611f0088610ca4565b149182614386575b5050801561436c575b1561434c579392935b6142c885610ca4565b9450845b60246142e261062e6142de87846109a8565b5490565b8710156143425790612250856122506124e161432a8c614324604061431e8f6143186141308261412b6143309f808e91506109a8565b98614114565b96015190565b946120ee565b83611ea4565b9361433a866120ab565b9550936142cc565b5093945094509050565b9461436390614247906122506122ee86600c6109a8565b949392936142bf565b5061437e61062e6122ee85600c6109a8565b8610156142b6565b61439592506122ee91906109a8565b6143a1611f0086610ca4565b1483386142ad565b906143b2825490565b6143bb81612053565b926143cf6020850191600052602060002090565b6000915b8383106143e05750505050565b600560206001926143f08561410b565b8152019201920191906143d3565b61062e906143a9565b61441e61062e91614416606090565b5060246109a8565b6143fe565b6142de61062e91614416600090565b90612ee79161444160026111eb565b61444c612ecd612e3a565b614457816002612a65565b5061065d9190614468600133612c66565b614549565b61062e9060281c610615565b61062e905461446d565b507f4e487b7100000000000000000000000000000000000000000000000000000000600052600060045260246000fd5b90612a7561062e612a069290565b61065d9190612b3d906080906004906144e2816144dc875190565b906144b3565b6144f460018201612b3d602088015190565b61450660028201612b3d604088015190565b61451860038201612b3d606088015190565b0192015190565b61065d9291156144c157614531614483565b6144c1565b90815260408101929161065d9160200152565b903390614556838361473e565b61456583612c43604085015190565b9060009161457283610ca4565b8511156146d65761460883926145fd896145f661467d986140f7614610976145b28d8f6145a2611f726021614479565b906145ac3061099f565b91615f61565b6145ef6145c0602085015190565b6145e86145d960806145d3606089015190565b97015190565b976145e2614090565b9d8e0152565b60208c0152565b60408a0152565b6080860152565b61412b8860246109a8565b81939161451f565b5061462961462284612c43601b6111eb565b601b612a65565b61464461463785601d6109a8565b612b3d85612c43836111eb565b61464d8461264c565b61465961061583611e34565b73ffffffffffffffffffffffffffffffffffffffff8216036146c2575b5083612c66565b6146a77f2640b32e7e5d0fa2a21ea06b22fbd75fda0fda384a895a5fdeef43646de47a0c9261099f565b926146bd6146b460405190565b92839283614536565b0390a2565b6146376146d091601f6109a8565b38614676565b6040517f063921df000000000000000000000000000000000000000000000000000000008152600490fd5b9061065d91614432565b614713614090565b906000825260208080808086016000815201600081520160008152016000905250565b61062e61470b565b91614747614736565b9160009360009461475786610ca4565b945b602461476b61062e6142de86846109a8565b87101561480257869061479061062e8a6147898561412b8a876109a8565b50016111eb565b86146147a85750506147a1866120ab565b9550614759565b611f009350611eab92506147c89161412b6147d0968361413094506109a8565b965b87015190565b036147d757565b6040517fe6215fab000000000000000000000000000000000000000000000000000000008152600490fd5b5095611f009195506147d09250611eab906147ca565b90612ee79161482760026111eb565b614832612ecd612e3a565b61483d816002612a65565b5061065d919061484e600133612c66565b614880565b61129361065d94614879606094989795614872608086019a6000870152565b6020850152565b6040830152565b339061488c818361473e565b429491929185811115614a2f5760608401866148a6825190565b600090821015614a1d5750612b386148bc925190565b935b6148cf6148cb88846120e1565b9590565b8511156149f2576148e361062e60086111eb565b85106149c7576148f661062e60076111eb565b851161499c576149536146086146bd9461494861491560408c96015190565b61493d6149218b61247f565b916140e161492d614090565b986149368d8b52565b60208a0152565b6145f6876060880152565b61412b8960246109a8565b5061495f600086612c66565b6149897fc2cf1aae6decacbc52f96b4e4fec96d4ebab5236e4ed987165537bc463014a439561099f565b9561499360405190565b94859485614853565b6040517f42d144ad000000000000000000000000000000000000000000000000000000008152600490fd5b6040517fda0f0f2a000000000000000000000000000000000000000000000000000000008152600490fd5b6040517fbdddfeec000000000000000000000000000000000000000000000000000000008152600490fd5b614a2992509050610ca4565b936148be565b6040517fa51620a7000000000000000000000000000000000000000000000000000000008152600490fd5b9061065d91614818565b90612fcd9291614a7460026111eb565b614a7f612ecd612e3a565b614a8a816002612a65565b505061062e9142913380614c5a565b61062e91906000614a64565b9061062e9594939291614ab9600183612c66565b614af3565b61062e9060181c6109c9565b61062e9054614abe565b61307961065d94614879606094989795614872608086019a6000870152565b509193909290614b036021614aca565b614c2f57614b1461062e60086111eb565b82106149c757614b2761062e60076111eb565b821161499c57614b6890614b4c86614b42611f726021614479565b876145ac3061099f565b614b558361247f565b9086614b6185836120ee565b918661593a565b93614b7a61462282612c43601b6111eb565b614b95614b8884601d6109a8565b612b3d83612c43836111eb565b614bd4614ba18461264c565b600090614bb061061583611e34565b73ffffffffffffffffffffffffffffffffffffffff821603614c1b575b5084612c66565b614c15614c017ff400e72e69ef4402819dfc57eeddc66f5eb69bf405e0e8098b1946ec1ac14a229461099f565b9486614c0c60405190565b94859485614ad4565b0390a290565b614637614c2991601f6109a8565b38614bcd565b6040517f26d1807b000000000000000000000000000000000000000000000000000000008152600490fd5b61062e94939291906000614aa5565b90612fcd9291614c7960026111eb565b614c84612ecd612e3a565b614c8f816002612a65565b50614cab565b61062e9060081c6109c9565b61062e9054614c95565b50614cb66021614ca1565b614cc06001612f8d565b14614ccf5761062e9133614d9f565b6040517f6022a9e7000000000000000000000000000000000000000000000000000000008152600490fd5b61062e91906000614c69565b919061327361062e612a069390565b61065d91600091614d06565b61065d91600091613262565b6000600461065d92614d4183808301614d15565b614d4e8360018301614d21565b614d5b8360028301614d21565b614d688360038301614d21565b01614d21565b61065d9115614d2d57614d7f614483565b614d2d565b90815260608101939261065d92909160409161307990611432565b60019291614dae8482846131f3565b50614db9838361473e565b9442614dcc611f0061062e606086015190565b1015908115614f1e575b50614ef35760400151936000614deb81610ca4565b8611614dfa575b505050505090565b614e8b614e85614e9193614e1b8987614e16611f726021614479565b615dfc565b614e2c6146228a612b38601b6111eb565b614e47614e3a88601d6109a8565b612b3d8b612b38836111eb565b614e508761264c565b614e5c61061586611e34565b73ffffffffffffffffffffffffffffffffffffffff821603614edf575b5061412b8760246109a8565b90614d6e565b83612c66565b614ebb7f1d9308f6b22a2754a1c622bb30889e8f8f956c83e524d039e9d65d5f052eb9089261099f565b92614ed2614ec860405190565b9283928784614d84565b0390a23880808080614df2565b614e3a614eed91601f6109a8565b38614e79565b6040517f372a7fe5000000000000000000000000000000000000000000000000000000008152600490fd5b9050614f36612f8d614f306021612642565b92151590565b1438614dd6565b33614f5584612cba846109ef8761135d8760256109a8565b614f9c614f92614f8e614f887fa1376f00ce38a02643af0ff97dce59c2c81b4c8ad34c717ce9a44ed623e0718d9461099f565b9461099f565b9490565b946107f260405190565b0390a4565b61067c90610ca4565b60208101929161065d9190614fa1565b90600091614fc783610ca4565b3390614fe081612cba856109ef8861135d8860256109a8565b50614f9c615014614f8e614f887fa1376f00ce38a02643af0ff97dce59c2c81b4c8ad34c717ce9a44ed623e0718d9461099f565b9461501e60405190565b91829182614faa565b3361503b83612ac0846109ef8560266109a8565b61507b61507161506b7f17307eab39ab6107e8899845ad3d59bd9653f200f220920489ca2b5937696c319361099f565b9361099f565b9361079860405190565b0390a3565b61508b8160266109a8565b9061509a61265a3380946109a8565b156150a85750505050600190565b6122ee611f00926109ef6150c49561135d611eab9560256109a8565b106150ce57600190565b600090565b90612fcd95949392916150e660026111eb565b6150f1612ecd612e3a565b6150fc816002612a65565b509593919492909594615113612ab484848a615080565b615133578661512f9596975061512a84848361517f565b6158cc565b5050565b50336129dc61514160405190565b9283927f01aca06d00000000000000000000000000000000000000000000000000000000845260048401613200565b61062e949392919060006150d3565b916025906151918361135d86856109a8565b906151a06122ee3380946109a8565b8190036151c85750612cba906109ef612d089461135d6151c06000610ca4565b9788966109a8565b9291906151e06122ee826109ef8661135d8a886109a8565b8410156151fe576109ef612b3d9361135d61065d97612b2e956109a8565b6040517f13be252b000000000000000000000000000000000000000000000000000000008152600490fd5b90612fcd9493929161523b60026111eb565b615246612ecd612e3a565b615251816002612a65565b509161512f939195949295336158cc565b61062e939291906000615229565b9061528a969594939291615285600184612c66565b61528e565b9091565b9061528a9695949392916152a3600185612c66565b6153ff565b7fffffffff000000000000000000000000000000000000000000000000000000008116610649565b9050519061065d826152a8565b9061062e91602081830312156152d0576152f5600080fd5b6152d0565b73ffffffffffffffffffffffffffffffffffffffff909116815261062e9260808201926153449190614879905b73ffffffffffffffffffffffffffffffffffffffff166020850152565b60608183039101526000815260200190565b61536f61536961062e9263ffffffff1690565b60e01b90565b7fffffffff000000000000000000000000000000000000000000000000000000001690565b1561061057565b61068060209167ffffffffffffffff81116153d857601f017fffffffffffffffffffffffffffffffffffffffffffffffffffffffffffffffe01690565b611b06611b2e565b90612060611bf18361539b565b61062e60006153e0565b61062e6153ed565b5093959492935091600090833b615418611f0084610ca4565b116157de575b615428858561473e565b90919061543484611e34565b9073ffffffffffffffffffffffffffffffffffffffff821673ffffffffffffffffffffffffffffffffffffffff87161480156157a9575b61577d574291606085019561548161062e885190565b8410158015615762575b614ef35760408601928c6154a3611f0061062e875190565b11801561574d575b615722578c8a61553761062e615551978d61062e986154f06154e383601d6109ef6154d68b836109a8565b612b3d8d612b38836111eb565b612b3d89612c43836111eb565b6154f98661264c565b61551873ffffffffffffffffffffffffffffffffffffffff8316611d44565b036156ff575b61552d611d44611d2a8461264c565b036156da57505190565b82036156b757614e8591509161412b613e979360246109a8565b82036155fb5750509161558e84926155f694611f00965089615587608061558161557c602086015190565b955190565b93015190565b928661593a565b968791905b6155a26001614e8b8187612c66565b7fd8413caab9b66d88aed167bb4f6b308542a6953a6a54e22f67c5271d34ef97be6155cc8561099f565b90886155d78561099f565b936155e58761145d60405190565b0390a36155f06153f7565b92615a23565b615394565b97848299611f0097958294956155f69850615616878561473e565b602493916156489060609061564360026156348661412b8d8c6109a8565b5001612b3d8c612c43836111eb565b015190565b615656611f0061062e855190565b10615667575b505050505050615593565b61412b6156966107e96156ab97612b3861569e9688600499508c6156a58c600361569e8c61412b615696895190565b9687956109a8565b5001612a65565b50505190565b5081388080808061565c565b60026156ce613e979461412b612b3d9460246109a8565b500191612b38836111eb565b6156f2612373916156ec601f9161264c565b906109a8565b612b3d87612c43836111eb565b61571d615710601f6156ec8961264c565b612b3d89612b38836111eb565b61551e565b6040517f2c5211c6000000000000000000000000000000000000000000000000000000008152600490fd5b508c61575b611f0084610ca4565b11156154ab565b5061576d6021612642565b6157776001612f8d565b1461548b565b6040515b7f1e4ec46b000000000000000000000000000000000000000000000000000000008152600490fd5b5073ffffffffffffffffffffffffffffffffffffffff871673ffffffffffffffffffffffffffffffffffffffff87161461546b565b61587a856157eb8661099f565b6157f48161099f565b634fb07105916020888a61582461580a60405190565b97889384936158198a60e01b90565b8552600485016152fa565b03818a865af19384156158bf575b60009461587f575b506158749261584e9261536f925050615356565b917fffffffff000000000000000000000000000000000000000000000000000000001690565b14615394565b61541e565b61536f9194509261584e926158ad6158749560203d81116158b8575b6158a58183611b5e565b8101906152dd565b95925092509261583a565b503d61589b565b6158c7611e67565b615832565b61528a9493929190600080615270565b926158f96020610680946158f96014886158f9859b9a869961349c565b01918252565b9061592761065d928054906801000000000000000082101561592d575b6001820181556111a8565b9061451f565b615935611b2e565b61591c565b94936159bf9061410461065d9561594f600090565b506159b86137926159816159676122ee8d601d6109a8565b8c61597160405190565b9384928c8c6020860194856158dc565b61599361598c825190565b9160200190565b20966140e16159a761062e8a9d60246109a8565b976149366159b3614090565b9a8b52565b6060860152565b6158ff565b73ffffffffffffffffffffffffffffffffffffffff909116815261062e93608082019390926159f7919061487990615327565b606081840391015261353f565b3d15615a1e57615a133d6153e0565b903d6000602084013e565b606090565b9392909190600094600093803b615a3c611f0087610ca4565b1115615b1857615a4b8161099f565b906020615a578361099f565b9363c42d8b9595615a863391615a6c60405190565b998a948594615a7b8c60e01b90565b8652600486016159c4565b038189875af160009581615af8575b50615ada5750505050506001615aa85750565b615ab0615a04565b90615ac5611f00615abf845190565b92610ca4565b03615ad257604051615781565b805190602001fd5b50949550919350615af4925061584e915061536f90615356565b1490565b615b1191965060203d81116158b8576158a58183611b5e565b9438615a95565b506001955050505050565b15615b2a57565b6040517f08c379a000000000000000000000000000000000000000000000000000000000815260206004820152602f60248201527f4f6e6c792074686520636f6e7472616374206f776e6572206d6179207065726660448201527f6f726d207468697320616374696f6e00000000000000000000000000000000006064820152608490fd5b61065d90615bcd33615bc7611d446106156000611cd6565b14615b23565b615bd8816001612a26565b615c067f906a1c6bd7e3091ea86693dd029a831c19049ce77f1dce2ce0bab1cacbabce2291610c1f60405190565b0390a1565b61065d90615baf565b15615c1b57565b6040517f08c379a000000000000000000000000000000000000000000000000000000000815260206004820152603560248201527f596f75206d757374206265206e6f6d696e61746564206265666f726520796f7560448201527f2063616e20616363657074206f776e65727368697000000000000000000000006064820152608490fd5b73ffffffffffffffffffffffffffffffffffffffff909116815260408101929161065d91602090613079565b615ce633615ce0611d446106156001611cd6565b14615c14565b615cf06000611cd6565b615cfa6001611cd6565b7fb532073b38c83145e3e5135377a08bf9aab55bc0fd7c1179cd4fb995d2a5159c91615d31615d2860405190565b92839283615ca0565b0390a1615d3e6001611cd6565b615d49816000612a26565b50615d546000611e34565b612d08816001612a26565b61536f61536961062e9290565b9050519061065d82610e60565b9061062e9160208183031215615d6c57615d91600080fd5b615d6c565b15615d9d57565b6040517f08c379a000000000000000000000000000000000000000000000000000000000815260206004820152601f60248201527f5472616e7366657248656c7065723a205452414e534645525f4641494c4544006044820152606490fd5b600091906004615e448493615e3561065d97615e1b63a9059cbb615d5f565b92615e2560405190565b9586946020860190815201613200565b60208201810382520382611b5e565b82602082019151925af1615e56615a04565b81615e62575b50615d96565b8051909150615e74611f006000610ca4565b14908115615e84575b5038615e5c565b615e9e91506020615e93825190565b818301019101615d79565b38615e7d565b73ffffffffffffffffffffffffffffffffffffffff909116815260608101939261065d9290916040916112939061305c565b15615edd57565b6040517f08c379a0000000000000000000000000000000000000000000000000000000008152602060048201526024808201527f5472616e7366657248656c7065723a205452414e534645525f46524f4d5f464160448201527f494c4544000000000000000000000000000000000000000000000000000000006064820152608490fd5b6004615f9a60009493615e3561065d978796615f806323b872dd615d5f565b93615f8a60405190565b9687956020870190815201615ea4565b82602082019151925af1615fac615a04565b81615fb8575b50615ed6565b8051909150615fca611f006000610ca4565b14908115615fda575b5038615fb2565b615fe991506020615e93825190565b38615fd3565b69ffffffffffffffffffff8116610649565b9050519061065d82615fef565b919060a08382031261605b575b6160258184616001565b926160338260208301611e3d565b9261062e6160448460408501611e3d565b936160528160608601611e3d565b93608001616001565b616063600080fd5b61601b565b1561606f57565b6040517f08c379a000000000000000000000000000000000000000000000000000000000815260206004820152601760248201527f496e76616c696420636861696e6c696e6b2070726963650000000000000000006044820152606490fd5b6160ef60a06160e0611f726027611cd6565b63feaf968c9061270e60405190565b825260049082905afa80156161a4575b60009081908190819061616d575b61062e93945060009261611f84610ca4565b8612159384616152575b505082616138575b5050616068565b69ffffffffffffffffffff90811692501610153880616131565b9193509061616390611f0090610ca4565b1415913880616129565b5050505061619461062e9160a03d811161619d575b61618c8183611b5e565b81019061600e565b9150919261610d565b503d616182565b6161ac611e67565b6160ff565b61065d906161c63361390e6106156000611cd6565b616231565b156161d257565b6040517f08c379a000000000000000000000000000000000000000000000000000000000815260206004820152601560248201527f5a65726f206164647265737320646574656374656400000000000000000000006044820152606490fd5b61626390611f726162456106156000611e34565b73ffffffffffffffffffffffffffffffffffffffff831614156161cb565b612d08816027612a26565b61065d906161b1565b61062e61631b6162fc6162de6162be60206162a8611f72735e8422345238f34275888049021821e8e08caa1f61099f565b6370a082319061256d61374d611f726023611cd6565b03915afa908115616374575b600091616356575b50611fbd613e976160ce565b60206162ed611f726022611cd6565b6318160ddd90611f8660405190565b825260049082905afa918215616349575b600092616329575b50611efa565b611fbd6402540be400610ca4565b61634291925060203d811161200b57611ffb8183611b5e565b9038616315565b616351611e67565b61630d565b61636e915060203d811161200b57611ffb8183611b5e565b386162d2565b61637c611e67565b6162ca56fea2646970667358221220eed61cd8fa69ce460d1162ed1e351731e8c21c3183b99c0b47510c7e051a594264736f6c63430008110033",
    "linkReferences": {}
  },
  "methodIdentifiers": {
    "acceptOwnership()": "79ba5097",
    "calcCurCombinedWeight(address)": "8bad86a7",
    "calcCurrLockMultiplier(address,uint256)": "774d4ae7",
    "changeTokenManager(address,address)": "de1a6551",
    "combinedWeightOf(address)": "36f89af2",
    "curvePool()": "218751b2",
    "curveToken()": "4f39059c",
    "earned(address)": "008cc262",
    "fraxPerLPStored()": "d2010fb4",
    "fraxPerLPToken()": "5bfd9258",
    "getAllRewardTokens()": "12edb24c",
    "getLatestETHPriceE8()": "bdb123e3",
    "getProxyFor(address)": "c3543826",
    "getReward(address)": "c00007b0",
    "getReward2(address,bool)": "7910d17b",
    "getRewardExtraLogic(address)": "387edc86",
    "getRewardForDuration()": "1c1f78eb",
    "isApproved(address,bytes32,uint256)": "061a7bf5",
    "isTokenManagerFor(address,address)": "231b68dc",
    "kekAllowance(address,bytes32,address)": "7ab44e40",
    "lastRewardClaimTime(address)": "6c430dbb",
    "lastUpdateTime()": "c8f33c91",
    "lockAdditional(bytes32,uint256)": "b85efd06",
    "lockLonger(bytes32,uint256)": "d2fbdc0d",
    "lockMultiplier(uint256)": "0d7bac4f",
    "lock_max_multiplier()": "cdc82e80",
    "lock_time_for_max_multiplier()": "b94c4dcb",
    "lock_time_min()": "6e27cef9",
    "lockedLiquidityOf(address)": "d9f96e8d",
    "lockedStakes(address,uint256)": "7970833e",
    "lockedStakesOf(address)": "1e090f01",
    "lockedStakesOfLength(address)": "ca6df29d",
    "maxLPForMaxBoost(address)": "a0f23476",
    "minVeFXSForMaxBoost(address)": "4fd2b536",
    "minVeFXSForMaxBoostProxy(address)": "7f472e54",
    "nominateNewOwner(address)": "1627540c",
    "nominatedOwner()": "53a47bb7",
    "owner()": "8da5cb5b",
    "periodFinish()": "ebe2b12b",
    "proxyStakedFrax(address)": "1face856",
    "proxyToggleStaker(address)": "e7f30582",
    "proxy_lp_balances(address)": "7d6ef08e",
    "recoverERC20(address,uint256)": "8980f11f",
    "removeAllowance(address,bytes32)": "b61aa08c",
    "rewardManagers(address)": "41a16f3f",
    "rewardRates(uint256)": "f2caeb1e",
    "rewardTokenAddrToIdx(address)": "69339245",
    "rewardsDuration()": "386a9525",
    "rewardsPerToken()": "70641a36",
    "setAllowance(address,bytes32,uint256)": "a10d3b33",
    "setApprovalForAll(address,bool)": "a22cb465",
    "setETHUSDOracle(address)": "741d3c18",
    "setMiscVariables(uint256[6])": "facefb64",
    "setPauses(bool,bool,bool)": "cc2abd64",
    "setRewardVars(address,uint256,address,address)": "d5e1a9c6",
    "spenderApprovalForAllLocks(address,address)": "1bcb7d90",
    "stakeLocked(uint256,uint256)": "17b18c89",
    "stakerSetVeFXSProxy(address)": "d7400d56",
    "staker_designated_proxies(address)": "28408bab",
    "stakesUnlocked()": "9637927f",
    "stakingToken()": "72f702f3",
    "sync()": "fff6cae9",
    "sync_gauge_weights(bool)": "f77e34d1",
    "toggleValidVeFXSProxy(address)": "91cf600a",
    "totalCombinedWeight()": "64f2c060",
    "totalLiquidityLocked()": "e01f62bf",
    "transferLocked(address,bytes32,uint256,bytes32)": "3c62c44f",
    "transferLockedFrom(address,address,bytes32,uint256,bytes32)": "663b135c",
    "unlockStakes()": "e1ba95d2",
    "updateRewardAndBalance(address,bool)": "55189773",
    "userStakedFrax(address)": "d42fc9b4",
    "veFXSMultiplier(address)": "2c0c2a0a",
    "vefxs_boost_scale_factor()": "aa1d4fce",
    "vefxs_max_multiplier()": "f288baf6",
    "vefxs_per_frax_for_max_boost()": "f2a8d349",
    "withdrawLocked(bytes32,address)": "e44b9fa5"
  },
  "id": 76
}